{
  "contractName": "BasicToken",
  "abi": [
    {
      "constant": true,
      "inputs": [],
      "name": "totalSupply",
      "outputs": [
        {
          "name": "",
          "type": "uint256"
        }
      ],
      "payable": false,
      "stateMutability": "view",
      "type": "function"
    },
    {
      "anonymous": false,
      "inputs": [
        {
          "indexed": true,
          "name": "from",
          "type": "address"
        },
        {
          "indexed": true,
          "name": "to",
          "type": "address"
        },
        {
          "indexed": false,
          "name": "value",
          "type": "uint256"
        }
      ],
      "name": "Transfer",
      "type": "event"
    },
    {
      "constant": false,
      "inputs": [
        {
          "name": "_to",
          "type": "address"
        },
        {
          "name": "_value",
          "type": "uint256"
        }
      ],
      "name": "transfer",
      "outputs": [],
      "payable": false,
      "stateMutability": "nonpayable",
      "type": "function"
    },
    {
      "constant": true,
      "inputs": [
        {
          "name": "_owner",
          "type": "address"
        }
      ],
      "name": "balanceOf",
      "outputs": [
        {
          "name": "balance",
          "type": "uint256"
        }
      ],
      "payable": false,
      "stateMutability": "view",
      "type": "function"
    }
  ],
  "bytecode": "0x608060405234801561001057600080fd5b50610376806100206000396000f300608060405260043610610057576000357c0100000000000000000000000000000000000000000000000000000000900463ffffffff16806318160ddd1461005c57806370a0823114610087578063a9059cbb146100de575b600080fd5b34801561006857600080fd5b5061007161012b565b6040518082815260200191505060405180910390f35b34801561009357600080fd5b506100c8600480360381019080803573ffffffffffffffffffffffffffffffffffffffff169060200190929190505050610131565b6040518082815260200191505060405180910390f35b3480156100ea57600080fd5b50610129600480360381019080803573ffffffffffffffffffffffffffffffffffffffff1690602001909291908035906020019092919050505061017a565b005b60005481565b6000600160008373ffffffffffffffffffffffffffffffffffffffff1673ffffffffffffffffffffffffffffffffffffffff168152602001908152602001600020549050919050565b6101cc81600160003373ffffffffffffffffffffffffffffffffffffffff1673ffffffffffffffffffffffffffffffffffffffff1681526020019081526020016000205461030d90919063ffffffff16565b600160003373ffffffffffffffffffffffffffffffffffffffff1673ffffffffffffffffffffffffffffffffffffffff1681526020019081526020016000208190555061026181600160008573ffffffffffffffffffffffffffffffffffffffff1673ffffffffffffffffffffffffffffffffffffffff1681526020019081526020016000205461032990919063ffffffff16565b600160008473ffffffffffffffffffffffffffffffffffffffff1673ffffffffffffffffffffffffffffffffffffffff168152602001908152602001600020819055508173ffffffffffffffffffffffffffffffffffffffff163373ffffffffffffffffffffffffffffffffffffffff167fddf252ad1be2c89b69c2b068fc378daa952ba7f163c4a11628f55a4df523b3ef836040518082815260200191505060405180910390a35050565b600082821115151561031e57600080fd5b818303905092915050565b600080828401905083811015151561034057600080fd5b80915050929150505600a165627a7a723058201392ae6e562f115b426582538b24d30c7b7305766b782c9633d38c085a4e78330029",
  "source": "pragma solidity ^0.4.23;\n/*\n *             ╔═╗┌─┐┌─┐┬┌─┐┬┌─┐┬   ┌─────────────────────────┐ ╦ ╦┌─┐┌┐ ╔═╗┬┌┬┐┌─┐\n *             ║ ║├┤ ├┤ ││  │├─┤│   │ KOL Community Foundation│ │ ║║║├┤ ├┴┐╚═╗│ │ ├┤\n *             ╚═╝└  └  ┴└─┘┴┴ ┴┴─┘ └─┬─────────────────────┬─┘ ╚╩╝└─┘└─┘╚═╝┴ ┴ └─┘\n *   ┌────────────────────────────────┘                     └──────────────────────────────┐\n *   │    ┌─────────────────────────────────────────────────────────────────────────────┐  │\n *   └────┤ Dev:Jack Koe ├─────────────┤ Special for: KOL  ├───────────────┤ 20200406   ├──┘\n *        └─────────────────────────────────────────────────────────────────────────────┘\n */\n\n library SafeMath {\n   function mul(uint a, uint b) internal pure  returns (uint) {\n     uint c = a * b;\n     require(a == 0 || c / a == b);\n     return c;\n   }\n   function div(uint a, uint b) internal pure returns (uint) {\n     require(b > 0);\n     uint c = a / b;\n     require(a == b * c + a % b);\n     return c;\n   }\n   function sub(uint a, uint b) internal pure returns (uint) {\n     require(b <= a);\n     return a - b;\n   }\n   function add(uint a, uint b) internal pure returns (uint) {\n     uint c = a + b;\n     require(c >= a);\n     return c;\n   }\n   function max64(uint64 a, uint64 b) internal  pure returns (uint64) {\n     return a >= b ? a : b;\n   }\n   function min64(uint64 a, uint64 b) internal  pure returns (uint64) {\n     return a < b ? a : b;\n   }\n   function max256(uint256 a, uint256 b) internal  pure returns (uint256) {\n     return a >= b ? a : b;\n   }\n   function min256(uint256 a, uint256 b) internal  pure returns (uint256) {\n     return a < b ? a : b;\n   }\n }\n\n /**\n  * @title KOL Node Lock & Release Contract\n  * @dev visit: https://github.com/jackoelv/KOL/\n */\n\n contract ERC20Basic {\n   uint public totalSupply;\n   function balanceOf(address who) public constant returns (uint);\n   function transfer(address to, uint value) public;\n   event Transfer(address indexed from, address indexed to, uint value);\n }\n\n contract ERC20 is ERC20Basic {\n   function allowance(address owner, address spender) public constant returns (uint);\n   function transferFrom(address from, address to, uint value) public;\n   function approve(address spender, uint value) public;\n   event Approval(address indexed owner, address indexed spender, uint value);\n }\n\n /**\n  * @title KOL Node Lock & Release Contract\n  * @dev visit: https://github.com/jackoelv/KOL/\n */\n\n contract BasicToken is ERC20Basic {\n\n   using SafeMath for uint;\n\n   mapping(address => uint) balances;\n\n   function transfer(address _to, uint _value) public{\n     balances[msg.sender] = balances[msg.sender].sub(_value);\n     balances[_to] = balances[_to].add(_value);\n     emit Transfer(msg.sender, _to, _value);\n   }\n\n   function balanceOf(address _owner) public constant returns (uint balance) {\n     return balances[_owner];\n   }\n }\n\n /**\n  * @title KOL Node Lock & Release Contract\n  * @dev visit: https://github.com/jackoelv/KOL/\n */\n\n contract StandardToken is BasicToken, ERC20 {\n   mapping (address => mapping (address => uint)) allowed;\n   uint256 public userSupplyed;\n\n   function transferFrom(address _from, address _to, uint _value) public {\n     balances[_to] = balances[_to].add(_value);\n     balances[_from] = balances[_from].sub(_value);\n     allowed[_from][msg.sender] = allowed[_from][msg.sender].sub(_value);\n     emit Transfer(_from, _to, _value);\n   }\n\n   function approve(address _spender, uint _value) public{\n     require((_value == 0) || (allowed[msg.sender][_spender] == 0)) ;\n     allowed[msg.sender][_spender] = _value;\n     emit Approval(msg.sender, _spender, _value);\n   }\n\n   function allowance(address _owner, address _spender) public constant returns (uint remaining) {\n     return allowed[_owner][_spender];\n   }\n }\n contract KOL is StandardToken {\n   function queryNode(address _addr) public view returns(bool);\n   function querySuperNode(address _addr) public view returns(bool);\n }\n\n /**\n  * @title KOL Node Lock & Release Contract\n  * @dev visit: https://github.com/jackoelv/KOL/\n */\n\n contract Ownable {\n     address public owner;\n\n     constructor() public{\n         owner = msg.sender;\n     }\n\n     modifier onlyOwner {\n         require(msg.sender == owner);\n         _;\n     }\n     function transferOwnership(address newOwner) onlyOwner public{\n         if (newOwner != address(0)) {\n             owner = newOwner;\n         }\n     }\n }\n /**\n  * @title KOL Node Lock & Release Contract\n  * @dev visit: https://github.com/jackoelv/KOL/\n */\ncontract KOLLockNode is Ownable{\n  using SafeMath for uint256;\n  string public name = \"KOL Node Lock\";\n  KOL public token;\n\n  uint256 public dealTime =  3 days;\n  uint256 public missionId = 0;\n  uint256 public nodeRate = 0;\n  uint256 public releasedAll = 0;\n  uint256 public balanceAll = 0;\n  /* 正式环境 */\n\n  /* uint16 public constant totalSuperNodes = 21;\n  uint16 public constant totalNodes = 500;\n  uint16 public constant halfSuperNodes = 11;\n  uint16 public constant mostNodes = 335;\n  uint16 public constant halfNodes = 251;\n  uint16 public constant minSuperNodes = 15;\n  uint16 public constant minNodes = 101; */\n  uint16 public constant totalSuperNodes = 3;\n  uint16 public constant totalNodes = 3;\n  uint16 public constant halfSuperNodes = 1;\n  uint16 public constant mostNodes = 1;\n  uint16 public constant halfNodes = 1;\n  uint16 public constant minSuperNodes = 1;\n  uint16 public constant minNodes = 1;\n\n  uint16 public constant most = 67;\n  uint16 public constant half = 51;\n  uint16 public constant less = 33;\n\n  mapping(address => mapping(uint256 => bool)) private Voter;\n\n  constructor(address _tokenAddress) public {\n    token = KOL(_tokenAddress);\n  }\n\n  event MissionPassed(uint256 _missionId,bytes32 _name);\n  event OfferingFinished(uint256 _missionId,uint256 _totalAmount,uint256 _length);\n  event MissionLaunched(bytes32 _name,uint256 _missionId,address _whoLaunch);\n  event AllTokenBack(address _fund,uint256 _amount);\n  event Recycled(address _node,uint256 _amount);\n  event RateChanged(uint256 _rate);\n\n\n  modifier onlySuperNode() {\n    require(token.querySuperNode(msg.sender));\n      _;\n  }\n  modifier onlyNode() {\n      require(token.queryNode(msg.sender));\n      _;\n  }\n  modifier onlyNodes() {\n      require(token.querySuperNode(msg.sender)||token.queryNode(msg.sender));\n      _;\n  }\n\n  struct KolMission{\n    uint256 startTime;\n    uint256 endTime;\n    uint256 totalAmount;\n    uint256 offeringAmount;\n    uint256 rate;\n    bytes32 name;\n    address recycleNodeAddr;\n    uint16 agreeNodes;\n    uint16 refuseNodes;\n    uint16 agreeSuperNodes;\n    uint16 refuseSuperNodes;\n    bool superPassed;\n    bool nodePassed;\n    bool done;\n  }\n  mapping (uint256 => KolMission) private missionList;\n\n  struct KolOffering{\n    address target;\n    uint256 targetAmount;\n  }\n\n  mapping (address => uint256) private nodeBalance;\n  mapping (address => uint256) private nodeReleasedBalance;\n\n  KolOffering[] private kolOfferings;\n  mapping(uint256 => KolOffering[]) private offeringList;\n\n  function missionPassed(uint256 _missionId) private {\n    emit MissionPassed(_missionId,missionList[_missionId].name);\n  }\n  function createKolMission(bytes32 _name,uint256 _totalAmount,address _recycleNodeAddr,uint256 _rate) onlyNodes public {\n      bytes32 iName = _name;\n      uint256 balance = token.balanceOf(this);\n      uint256 allLeftBalance = balanceAll.sub(releasedAll);\n      require(balance >= allLeftBalance.add(_totalAmount));\n      missionList[missionId] = KolMission(uint256(now),\n                                          uint256(now + dealTime),\n                                          _totalAmount,\n                                          0,\n                                          _rate,\n                                          iName,\n                                          _recycleNodeAddr,\n                                          0,\n                                          0,\n                                          0,\n                                          0,\n                                          false,\n                                          false,\n                                          false);\n\n      missionId++;\n      emit MissionLaunched(iName,missionId-1,msg.sender);\n  }\n  function voteMission(uint16 _type,uint256 _missionId,bool _agree) onlyNodes public{\n    require(!Voter[msg.sender][_missionId]);\n    require(!missionList[_missionId].done);\n    uint16 minNodesNum = minNodes;\n    uint16 minSuperNodesNum = minSuperNodes;\n    uint16 passNodes = halfNodes;\n    uint16 passSuperNodes = halfSuperNodes;\n    uint16 rate = half;\n\n    if (_type == 1){\n      require(token.querySuperNode(msg.sender));\n    }else if (_type ==2){\n      require(token.queryNode(msg.sender));\n    }\n\n    if(now > missionList[_missionId].endTime){\n      if ( _type == 1 ){\n        if (\n          (missionList[_missionId].agreeSuperNodes + missionList[_missionId].refuseSuperNodes)>=minSuperNodesNum\n          &&\n          missionList[_missionId].agreeSuperNodes >= (missionList[_missionId].agreeSuperNodes + missionList[_missionId].refuseSuperNodes) * rate/100\n          ){\n            missionList[_missionId].superPassed = true;\n            missionPassed(_missionId);\n        }\n      }else if (_type ==2 ){\n        //节点投票\n        if (\n          (missionList[_missionId].agreeNodes + missionList[_missionId].refuseNodes)>=minNodesNum\n          &&\n          missionList[_missionId].agreeNodes >= (missionList[_missionId].refuseNodes + missionList[_missionId].refuseNodes) * rate/100\n          ){\n            missionList[_missionId].nodePassed = true;\n        }\n      }\n    }else{\n      if(_agree == true){\n        if (_type == 1){\n          missionList[_missionId].agreeSuperNodes++;\n        }else if(_type == 2){\n          missionList[_missionId].agreeNodes++;\n        }\n      }\n      else{\n        if (_type == 1){\n          missionList[_missionId].refuseSuperNodes++;\n        }else if(_type == 2){\n          missionList[_missionId].refuseNodes++;\n        }\n      }\n      if (_type == 1){\n        if (missionList[_missionId].agreeSuperNodes >= passSuperNodes) {\n            missionList[_missionId].superPassed = true;\n            missionPassed(_missionId);\n        }else if (missionList[_missionId].refuseSuperNodes >= passSuperNodes) {\n            missionList[_missionId].done = true;\n        }\n      }else if (_type ==2){\n        if (missionList[_missionId].agreeNodes >= passNodes) {\n            missionList[_missionId].nodePassed = true;\n        }else if (missionList[_missionId].refuseNodes >= passNodes) {\n            missionList[_missionId].done = true;\n        }\n      }\n    }\n    Voter[msg.sender][_missionId] = true;\n  }\n\n  function excuteVote(uint256 _missionId) onlyOwner public {\n    require(!missionList[_missionId].done);\n    require(uint256(now) < (missionList[_missionId].endTime + uint256(dealTime)));\n    require(missionList[_missionId].superPassed);\n    require(missionList[_missionId].nodePassed);\n    if (missionList[_missionId].name == \"TRANSFER ALL KOL TO FUND\"){\n      transferAllKolToFund();\n      missionList[_missionId].done = true;\n    }else if (missionList[_missionId].name == \"RECYCLE KOL FROM OLDNODE\"){\n      recycleKOL(missionList[_missionId].recycleNodeAddr);\n      missionList[_missionId].done = true;\n    }else if(missionList[_missionId].name == \"CHANGE RELEASE RATE\"){\n      nodeRate = missionList[_missionId].rate;\n      missionList[_missionId].done = true;\n      emit RateChanged(nodeRate);\n    }else{\n      require(token.balanceOf(this).add(releasedAll) >= balanceAll.add(missionList[_missionId].totalAmount));\n      require(missionList[_missionId].totalAmount == missionList[_missionId].offeringAmount);\n      for (uint m = 0; m < offeringList[_missionId].length; m++){\n        //这里要做一个记账。\n        /* token.transfer(offeringList[_missionId][m].target, offeringList[_missionId][m].targetAmount); */\n        nodeBalance[offeringList[_missionId][m].target] = nodeBalance[offeringList[_missionId][m].target].add(offeringList[_missionId][m].targetAmount);\n      }\n      balanceAll = balanceAll.add(missionList[_missionId].offeringAmount);\n      nodeRate = missionList[_missionId].rate;\n      missionList[_missionId].done = true;\n      emit RateChanged(nodeRate);\n      emit OfferingFinished(_missionId,missionList[_missionId].offeringAmount,offeringList[_missionId].length);\n    }\n\n  }\n  function getMission1(uint256 _missionId) public view returns(uint256,\n                                                            uint256,\n                                                            uint256,\n                                                            uint256,\n                                                            uint256,\n                                                            bytes32,\n                                                            address){\n    return(missionList[_missionId].startTime,\n            missionList[_missionId].endTime,\n            missionList[_missionId].totalAmount,\n            missionList[_missionId].offeringAmount,\n            missionList[_missionId].rate,\n            missionList[_missionId].name,\n            missionList[_missionId].recycleNodeAddr);\n  }\n  function getMission2(uint256 _missionId) public view returns(uint16,\n                                                              uint16,\n                                                              uint16,\n                                                              uint16,\n                                                              bool,\n                                                              bool,\n                                                              bool){\n    return(\n          missionList[_missionId].agreeNodes,\n          missionList[_missionId].refuseNodes,\n          missionList[_missionId].agreeSuperNodes,\n          missionList[_missionId].refuseSuperNodes,\n          missionList[_missionId].superPassed,\n          missionList[_missionId].nodePassed,\n          missionList[_missionId].done);\n  }\n  function getOfferings(uint256 _missionId,uint256 _id) public view returns(address,uint256,uint256){\n    return(offeringList[_missionId][_id].target,offeringList[_missionId][_id].targetAmount,offeringList[_missionId].length);\n  }\n\n  function addKolOffering(uint256 _missionId,address[] _target ,uint256[] _targetAmount) onlyNodes public{\n    require(missionList[_missionId].superPassed);\n    require(!missionList[_missionId].done);\n    require(_target.length == _targetAmount.length);\n    bool isNode = false;\n    for (uint j = 0; j< _targetAmount.length; j++){\n\n      isNode = token.queryNode(_target[j])||token.querySuperNode(_target[j]);\n      require(isNode);\n      missionList[_missionId].offeringAmount = missionList[_missionId].offeringAmount.add(_targetAmount[j]);\n      offeringList[_missionId].push(KolOffering(_target[j],_targetAmount[j]));\n\n    }\n    require(missionList[_missionId].totalAmount >= missionList[_missionId].offeringAmount);\n\n  }\n  function voted(address _node,uint256 _missionId) public view returns(bool){\n    return Voter[_node][_missionId];\n  }\n  function getKOL() onlyNodes public {\n\n    require(nodeBalance[msg.sender] > 0);\n    uint256 amount = nodeBalance[msg.sender].mul(nodeRate).div(100);\n    uint256 releaseKol = amount.sub(nodeReleasedBalance[msg.sender]);\n    require(releaseKol > 0);\n    require(nodeReleasedBalance[msg.sender].add(releaseKol)<=nodeBalance[msg.sender]);\n    require(token.balanceOf(this) >= releaseKol);\n\n    token.transfer(msg.sender, releaseKol);\n    nodeReleasedBalance[msg.sender] = nodeReleasedBalance[msg.sender].add(releaseKol);\n    releasedAll = releasedAll.add(releaseKol);\n  }\n  function queryBalance(address _node) onlyNodes public view returns(uint256,uint256){\n    return(nodeBalance[_node],nodeReleasedBalance[_node]);\n  }\n  function transferAllKolToFund() private {\n    address fund = 0x27750e6D41Aef99501eBC256538c6A13a254Ea15;\n    uint256 balance = token.balanceOf(this);\n    token.transfer(fund, balance);\n    emit AllTokenBack(fund,balance);\n  }\n  function recycleKOL(address _node) private {\n    require((!token.queryNode(_node)) && (!token.querySuperNode(msg.sender)));\n    require(nodeBalance[_node] > 0);\n    uint256 recycles = nodeBalance[_node].sub(nodeReleasedBalance[_node]);\n    balanceAll = balanceAll.sub(recycles);\n    nodeBalance[_node] = nodeReleasedBalance[_node];\n    emit Recycled(_node,recycles);\n  }\n  function leftKOL() public view returns(uint256,bool) {\n    uint256 balance = token.balanceOf(this);\n    uint256 allLeftBalance = balanceAll.sub(releasedAll);\n    if (balance >= allLeftBalance)\n      return(balance.sub(allLeftBalance),true);\n    else\n      return(allLeftBalance.sub(balance),false);\n  }\n\n}\n",
  "sourcePath": "/Users/jack/git/github/KOL/contracts/KOLLockNode.sol",
  "compiler": {
    "name": "solc",
    "version": "0.4.23+commit.124ca40d.Emscripten.clang"
  },
  "schemaVersion": "3.0.19",
  "updatedAt": "2020-04-11T05:10:58.922Z",
  "devdoc": {
    "methods": {},
    "title": "KOL Node Lock & Release Contract"
  },
  "userdoc": {
    "methods": {}
  }
}