{
  "contractName": "BasicToken",
  "abi": [
    {
      "constant": true,
      "inputs": [],
      "name": "totalSupply",
      "outputs": [
        {
          "name": "",
          "type": "uint256"
        }
      ],
      "payable": false,
      "stateMutability": "view",
      "type": "function"
    },
    {
      "anonymous": false,
      "inputs": [
        {
          "indexed": true,
          "name": "from",
          "type": "address"
        },
        {
          "indexed": true,
          "name": "to",
          "type": "address"
        },
        {
          "indexed": false,
          "name": "value",
          "type": "uint256"
        }
      ],
      "name": "Transfer",
      "type": "event"
    },
    {
      "constant": false,
      "inputs": [
        {
          "name": "_to",
          "type": "address"
        },
        {
          "name": "_value",
          "type": "uint256"
        }
      ],
      "name": "transfer",
      "outputs": [],
      "payable": false,
      "stateMutability": "nonpayable",
      "type": "function"
    },
    {
      "constant": true,
      "inputs": [
        {
          "name": "_owner",
          "type": "address"
        }
      ],
      "name": "balanceOf",
      "outputs": [
        {
          "name": "balance",
          "type": "uint256"
        }
      ],
      "payable": false,
      "stateMutability": "view",
      "type": "function"
    }
  ],
  "bytecode": "0x608060405234801561001057600080fd5b50610376806100206000396000f300608060405260043610610057576000357c0100000000000000000000000000000000000000000000000000000000900463ffffffff16806318160ddd1461005c57806370a0823114610087578063a9059cbb146100de575b600080fd5b34801561006857600080fd5b5061007161012b565b6040518082815260200191505060405180910390f35b34801561009357600080fd5b506100c8600480360381019080803573ffffffffffffffffffffffffffffffffffffffff169060200190929190505050610131565b6040518082815260200191505060405180910390f35b3480156100ea57600080fd5b50610129600480360381019080803573ffffffffffffffffffffffffffffffffffffffff1690602001909291908035906020019092919050505061017a565b005b60005481565b6000600160008373ffffffffffffffffffffffffffffffffffffffff1673ffffffffffffffffffffffffffffffffffffffff168152602001908152602001600020549050919050565b6101cc81600160003373ffffffffffffffffffffffffffffffffffffffff1673ffffffffffffffffffffffffffffffffffffffff1681526020019081526020016000205461030d90919063ffffffff16565b600160003373ffffffffffffffffffffffffffffffffffffffff1673ffffffffffffffffffffffffffffffffffffffff1681526020019081526020016000208190555061026181600160008573ffffffffffffffffffffffffffffffffffffffff1673ffffffffffffffffffffffffffffffffffffffff1681526020019081526020016000205461032990919063ffffffff16565b600160008473ffffffffffffffffffffffffffffffffffffffff1673ffffffffffffffffffffffffffffffffffffffff168152602001908152602001600020819055508173ffffffffffffffffffffffffffffffffffffffff163373ffffffffffffffffffffffffffffffffffffffff167fddf252ad1be2c89b69c2b068fc378daa952ba7f163c4a11628f55a4df523b3ef836040518082815260200191505060405180910390a35050565b600082821115151561031e57600080fd5b818303905092915050565b600080828401905083811015151561034057600080fd5b80915050929150505600a165627a7a723058202c68ead0bd328421301aa585333165e86670ad88386553bbab9acec6ca8911b80029",
  "source": "pragma solidity ^0.4.23;\n/*\n *             ╔═╗┌─┐┌─┐┬┌─┐┬┌─┐┬   ┌─────────────────────────┐ ╦ ╦┌─┐┌┐ ╔═╗┬┌┬┐┌─┐\n *             ║ ║├┤ ├┤ ││  │├─┤│   │ KOL Community Foundation│ │ ║║║├┤ ├┴┐╚═╗│ │ ├┤\n *             ╚═╝└  └  ┴└─┘┴┴ ┴┴─┘ └─┬─────────────────────┬─┘ ╚╩╝└─┘└─┘╚═╝┴ ┴ └─┘\n *   ┌────────────────────────────────┘                     └──────────────────────────────┐\n *   │    ┌─────────────────────────────────────────────────────────────────────────────┐  │\n *   └────┤ Dev:Jack Koe ├─────────────┤ Special for: KOL  ├───────────────┤ 20200513   ├──┘\n *        └─────────────────────────────────────────────────────────────────────────────┘\n */\n\n library SafeMath {\n   function mul(uint a, uint b) internal pure  returns (uint) {\n     uint c = a * b;\n     require(a == 0 || c / a == b);\n     return c;\n   }\n   function div(uint a, uint b) internal pure returns (uint) {\n     require(b > 0);\n     uint c = a / b;\n     require(a == b * c + a % b);\n     return c;\n   }\n   function sub(uint a, uint b) internal pure returns (uint) {\n     require(b <= a);\n     return a - b;\n   }\n   function add(uint a, uint b) internal pure returns (uint) {\n     uint c = a + b;\n     require(c >= a);\n     return c;\n   }\n   function max64(uint64 a, uint64 b) internal  pure returns (uint64) {\n     return a >= b ? a : b;\n   }\n   function min64(uint64 a, uint64 b) internal  pure returns (uint64) {\n     return a < b ? a : b;\n   }\n   function max256(uint256 a, uint256 b) internal  pure returns (uint256) {\n     return a >= b ? a : b;\n   }\n   function min256(uint256 a, uint256 b) internal  pure returns (uint256) {\n     return a < b ? a : b;\n   }\n }\n\n /**\n  * title KOL USER DEV ONCHAIN PRECISION ADVERTISING SYSTEM\n  * dev visit: https://github.com/jackoelv/KOL/\n */\n\n contract ERC20Basic {\n   uint public totalSupply;\n   function balanceOf(address who) public constant returns (uint);\n   function transfer(address to, uint value) public;\n   event Transfer(address indexed from, address indexed to, uint value);\n }\n\n contract ERC20 is ERC20Basic {\n   function allowance(address owner, address spender) public constant returns (uint);\n   function transferFrom(address from, address to, uint value) public;\n   function approve(address spender, uint value) public;\n   event Approval(address indexed owner, address indexed spender, uint value);\n }\n\n /**\n  * title KOL USER DEV ONCHAIN PRECISION ADVERTISING SYSTEM\n  * dev visit: https://github.com/jackoelv/KOL/\n */\n\n contract BasicToken is ERC20Basic {\n\n   using SafeMath for uint;\n\n   mapping(address => uint) balances;\n\n   function transfer(address _to, uint _value) public{\n     balances[msg.sender] = balances[msg.sender].sub(_value);\n     balances[_to] = balances[_to].add(_value);\n     emit Transfer(msg.sender, _to, _value);\n   }\n\n   function balanceOf(address _owner) public constant returns (uint balance) {\n     return balances[_owner];\n   }\n }\n\n /**\n  * title KOL USER DEV ONCHAIN PRECISION ADVERTISING SYSTEM\n  * dev visit: https://github.com/jackoelv/KOL/\n */\n\n contract StandardToken is BasicToken, ERC20 {\n   mapping (address => mapping (address => uint)) allowed;\n   uint256 public userSupplyed;\n\n   function transferFrom(address _from, address _to, uint _value) public {\n     balances[_to] = balances[_to].add(_value);\n     balances[_from] = balances[_from].sub(_value);\n     allowed[_from][msg.sender] = allowed[_from][msg.sender].sub(_value);\n     emit Transfer(_from, _to, _value);\n   }\n\n   function approve(address _spender, uint _value) public{\n     require((_value == 0) || (allowed[msg.sender][_spender] == 0)) ;\n     allowed[msg.sender][_spender] = _value;\n     emit Approval(msg.sender, _spender, _value);\n   }\n\n   function allowance(address _owner, address _spender) public constant returns (uint remaining) {\n     return allowed[_owner][_spender];\n   }\n }\n contract KOL is StandardToken {\n }\n\n /**\n  * title KOL USER DEV ONCHAIN PRECISION ADVERTISING SYSTEM\n  * dev visit: https://github.com/jackoelv/KOL/\n */\n\n contract Ownable {\n     address public owner;\n\n     constructor() public{\n         owner = msg.sender;\n     }\n\n     modifier onlyOwner {\n         require(msg.sender == owner);\n         _;\n     }\n     function transferOwnership(address newOwner) onlyOwner public{\n         if (newOwner != address(0)) {\n             owner = newOwner;\n         }\n     }\n }\n /**\n  * title KOL USER DEV ONCHAIN PRECISION ADVERTISING SYSTEM\n  * dev visit: https://github.com/jackoelv/KOL/\n */\ncontract KOLADUSER is Ownable{\n  using SafeMath for uint256;\n  string public name = \"KOL USER DEV ONCHAIN PRECISION ADVERTISING SYSTEM\";\n  KOL public kol;\n  address private receiver;\n\n  uint256 public iCode;\n  uint256 public totalRegister;\n  uint256 public unit = 50 * (10 ** 18);\n  uint256 public etherFee = 0.002 ether;\n  uint256 public minAmount = 50 * (10 ** 18);\n\n  uint8 public maxlevel = 9;\n  uint8 public fee = 5;\n  bool public going = true;\n\n  mapping (address => address[]) public InviteList;\n  mapping (address => address[]) public ChildAddrs;\n  mapping (uint256 => address) public InviteCode;\n  mapping (address => uint256) public RInviteCode;\n\n  mapping (address => uint8) public UserLevel;\n  mapping (address => uint256) public UserBalance;\n  mapping (address => uint256) public UserDrawedBalance;\n\n  mapping (address => uint256) public TotalUsers;\n  mapping (address => uint8) public maxDeep;\n\n\n\n  //GAS优化\n\n  event Registed(address indexed _user,uint256 indexed inviteCode);\n  event Joined(address indexed _user,uint256 _realUnit,uint8 _userLevel);\n  event WithDrawed(address indexed _user,uint256 _amount);\n  event GradeChanged(address _user,uint8 _newLevel);\n\n  constructor(address _tokenAddress,address _receiver) public {\n    kol = KOL(_tokenAddress);\n    receiver = _receiver;\n    InviteCode[0] = owner;\n    UserLevel[owner] = 9;\n  }\n\n  function reg(address _addr,uint256 _fInviteCode) private {\n    require(InviteCode[_fInviteCode] != address(0));\n    uint256 random = uint256(keccak256(now, _addr)) % 10;\n    uint256 _myInviteCode = iCode.add(random);\n    require(InviteCode[_myInviteCode] == address(0));\n    iCode = iCode.add(random);\n    InviteCode[_myInviteCode] = _addr;\n    RInviteCode[_addr] = _myInviteCode;\n\n    emit Registed(_addr,iCode);\n    totalRegister ++;\n    address father = InviteCode[_fInviteCode];\n    ChildAddrs[father].push(_addr);\n    if (InviteList[_addr].length < 9){\n      InviteList[_addr].push(father);\n      TotalUsers[father] ++;\n      if (maxDeep[father] < 1){\n        maxDeep[father] = 1;\n        emit GradeChanged(father,1);\n      }\n    }\n\n    for (uint8 i = 0 ; i < InviteList[father].length; i++){\n      if (InviteList[_addr].length < 9){\n        InviteList[_addr].push(InviteList[father][i]);\n        TotalUsers[InviteList[father][i]] ++;\n        if (maxDeep[InviteList[father][i]] < i+2){\n          maxDeep[InviteList[father][i]] = i+2;\n          emit GradeChanged(InviteList[father][i],i+2);\n        }\n      }else{\n        break;\n      }\n\n    }\n\n  }\n  function join(address _addr) private {\n    require(UserLevel[_addr]<9);\n    address tokenR1;\n    address tokenR2;\n    if (InviteList[_addr].length <= UserLevel[_addr]){\n      tokenR1 = receiver;\n    }else{\n      tokenR1 = InviteList[_addr][UserLevel[_addr]];\n    }\n    uint256 realUnit;\n    if (UserLevel[_addr] == 0){\n      realUnit = 2 * unit;\n      if (InviteList[_addr].length == 9){\n        tokenR2 = InviteList[_addr][8];\n      }else{\n        tokenR2 = receiver;\n      }\n    }else if(UserLevel[_addr] == 8){\n      realUnit = 2 * unit;\n      tokenR2 = receiver;\n    }else{\n      realUnit = unit;\n    }\n    kol.transferFrom(_addr,address(this),realUnit);\n    if (realUnit == 2*unit){\n      addUnit(_addr, tokenR2);\n    }\n    addUnit(_addr,tokenR1);\n    UserLevel[_addr] += 1;\n    emit Joined(_addr,realUnit,UserLevel[_addr]);\n  }\n  function addUnit(address _self,address _tokenReceiver) private{\n    if (UserLevel[_tokenReceiver]>=UserLevel[_self] + 1){\n      UserBalance[_tokenReceiver] += unit;\n    }else{\n      UserBalance[receiver] += unit;\n    }\n  }\n  function go(uint256 _fInviteCode,bool _joinAll) payable public {\n    require(going);\n    require(msg.value >= etherFee);\n    if (RInviteCode[msg.sender] == 0){\n      reg(msg.sender,_fInviteCode);\n    }\n    if (_joinAll){\n      joinAll(msg.sender);\n    }else{\n      join(msg.sender);\n    }\n\n  }\n  function joinAll(address _addr) private{\n    require(UserLevel[_addr] == 0);\n    kol.transferFrom(_addr,address(this),unit*11);  \n    uint8 done;\n    for (uint8 i=0;i<InviteList[_addr].length;i++){\n      addUnit(_addr,InviteList[_addr][i]);\n      done++;\n    }\n    if (InviteList[_addr].length == 9){\n      addUnit(_addr,InviteList[_addr][8]);\n      addUnit(_addr, receiver);\n      done+=2;\n    }\n    UserBalance[receiver] += (11 - done) * unit;\n    UserLevel[_addr] = 9;\n  }\n\n  function drawKol() payable public {\n    require(msg.value >= etherFee);\n    require(UserBalance[msg.sender] >= minAmount);\n    kol.transfer(msg.sender,UserBalance[msg.sender] * (100-fee)/100);\n    kol.transfer(receiver,UserBalance[msg.sender] * fee/100);\n    UserDrawedBalance[msg.sender]+=UserBalance[msg.sender];\n    emit WithDrawed(msg.sender,UserBalance[msg.sender]);\n    UserBalance[msg.sender] = 0;\n  }\n  function setetherFee(uint256 _fee) onlyOwner public{\n    etherFee = _fee;\n  }\n\n  function setReceiver(address _receiver) onlyOwner public{\n    receiver = _receiver;\n  }\n  function draw() onlyOwner public{\n    receiver.send(address(this).balance);\n  }\n\n  function setGoing(bool _going) onlyOwner public{\n    going = _going;\n  }\n\n  function getFathersLength(address _addr) public view returns(uint256){\n    return InviteList[_addr].length;\n  }\n\n  function getChildsLen(address _addr) public view returns(uint256){\n  return(ChildAddrs[_addr].length);\n  }\n\n  function setUnit(uint256 _unit) onlyOwner public{\n    unit = _unit;\n  }\n  function setFee(uint8 _fee) onlyOwner public{\n    fee = _fee;\n  }\n  function setMinAmount(uint256 _minAmount) onlyOwner public{\n    minAmount = _minAmount;\n  }\n}\n",
  "sourcePath": "/Users/jack/git/github/dev/KOL/contracts/KOLAD.sol",
  "compiler": {
    "name": "solc",
    "version": "0.4.23+commit.124ca40d.Emscripten.clang"
  },
  "schemaVersion": "3.1.0",
  "updatedAt": "2020-05-23T11:54:15.028Z",
  "devdoc": {
    "methods": {}
  },
  "userdoc": {
    "methods": {}
  }
}