{
  "contractName": "BasicToken",
  "abi": [
    {
      "constant": true,
      "inputs": [],
      "name": "owner",
      "outputs": [
        {
          "name": "",
          "type": "address"
        }
      ],
      "payable": false,
      "stateMutability": "view",
      "type": "function"
    },
    {
      "anonymous": false,
      "inputs": [
        {
          "indexed": true,
          "name": "from",
          "type": "address"
        },
        {
          "indexed": true,
          "name": "to",
          "type": "address"
        },
        {
          "indexed": false,
          "name": "value",
          "type": "uint256"
        }
      ],
      "name": "Transfer",
      "type": "event"
    },
    {
      "anonymous": false,
      "inputs": [
        {
          "indexed": true,
          "name": "previousOwner",
          "type": "address"
        },
        {
          "indexed": true,
          "name": "newOwner",
          "type": "address"
        }
      ],
      "name": "OwnershipTransferred",
      "type": "event"
    },
    {
      "constant": false,
      "inputs": [
        {
          "name": "_to",
          "type": "address"
        },
        {
          "name": "_value",
          "type": "uint256"
        }
      ],
      "name": "transfer",
      "outputs": [
        {
          "name": "",
          "type": "bool"
        }
      ],
      "payable": false,
      "stateMutability": "nonpayable",
      "type": "function"
    },
    {
      "constant": true,
      "inputs": [
        {
          "name": "_owner",
          "type": "address"
        }
      ],
      "name": "balanceOf",
      "outputs": [
        {
          "name": "",
          "type": "uint256"
        }
      ],
      "payable": false,
      "stateMutability": "view",
      "type": "function"
    }
  ],
  "bytecode": "0x6080604052336000806101000a81548173ffffffffffffffffffffffffffffffffffffffff021916908373ffffffffffffffffffffffffffffffffffffffff1602179055506104bf806100536000396000f300608060405260043610610057576000357c0100000000000000000000000000000000000000000000000000000000900463ffffffff16806370a082311461005c5780638da5cb5b146100b3578063a9059cbb1461010a575b600080fd5b34801561006857600080fd5b5061009d600480360381019080803573ffffffffffffffffffffffffffffffffffffffff16906020019092919050505061016f565b6040518082815260200191505060405180910390f35b3480156100bf57600080fd5b506100c86101b8565b604051808273ffffffffffffffffffffffffffffffffffffffff1673ffffffffffffffffffffffffffffffffffffffff16815260200191505060405180910390f35b34801561011657600080fd5b50610155600480360381019080803573ffffffffffffffffffffffffffffffffffffffff169060200190929190803590602001909291905050506101dd565b604051808215151515815260200191505060405180910390f35b6000600160008373ffffffffffffffffffffffffffffffffffffffff1673ffffffffffffffffffffffffffffffffffffffff168152602001908152602001600020549050919050565b6000809054906101000a900473ffffffffffffffffffffffffffffffffffffffff1681565b60008060009054906101000a900473ffffffffffffffffffffffffffffffffffffffff1673ffffffffffffffffffffffffffffffffffffffff163373ffffffffffffffffffffffffffffffffffffffff161415151561023b57600080fd5b600160003373ffffffffffffffffffffffffffffffffffffffff1673ffffffffffffffffffffffffffffffffffffffff16815260200190815260200160002054821115151561028957600080fd5b600073ffffffffffffffffffffffffffffffffffffffff168373ffffffffffffffffffffffffffffffffffffffff16141515156102c557600080fd5b61031782600160003373ffffffffffffffffffffffffffffffffffffffff1673ffffffffffffffffffffffffffffffffffffffff1681526020019081526020016000205461045e90919063ffffffff16565b600160003373ffffffffffffffffffffffffffffffffffffffff1673ffffffffffffffffffffffffffffffffffffffff168152602001908152602001600020819055506103ac82600160008673ffffffffffffffffffffffffffffffffffffffff1673ffffffffffffffffffffffffffffffffffffffff1681526020019081526020016000205461047790919063ffffffff16565b600160008573ffffffffffffffffffffffffffffffffffffffff1673ffffffffffffffffffffffffffffffffffffffff168152602001908152602001600020819055508273ffffffffffffffffffffffffffffffffffffffff163373ffffffffffffffffffffffffffffffffffffffff167fddf252ad1be2c89b69c2b068fc378daa952ba7f163c4a11628f55a4df523b3ef846040518082815260200191505060405180910390a36001905092915050565b600082821115151561046c57fe5b818303905092915050565b6000818301905082811015151561048a57fe5b809050929150505600a165627a7a72305820e8e88581ad147b2641bd45f82f400a07b64d0964a086202450800ef3fda385740029",
  "source": "pragma solidity ^0.4.23;\n/*\n *             ╔═╗┌─┐┌─┐┬┌─┐┬┌─┐┬   ┌─────────────────────────┐ ╦ ╦┌─┐┌┐ ╔═╗┬┌┬┐┌─┐\n *             ║ ║├┤ ├┤ ││  │├─┤│   │ KOL Community Alliance  │ ║║║├┤ ├┴┐╚═╗│ │ ├┤\n *             ╚═╝└  └  ┴└─┘┴┴ ┴┴─┘ └─┬─────────────────────┬─┘ ╚╩╝└─┘└─┘╚═╝┴ ┴ └─┘\n *   ┌────────────────────────────────┘                     └──────────────────────────────┐\n *   │    ┌─────────────────────────────────────────────────────────────────────────────┐  │\n *   └────┤ Dev:Jack Koe ├─────────────┤ Special for: KOL  ├───────────────┤ 20191211   ├──┘\n *        └─────────────────────────────────────────────────────────────────────────────┘\n */\n\nlibrary SafeMath {\n\n  function mul(uint256 _a, uint256 _b) internal pure returns (uint256 c) {\n    if (_a == 0) {\n      return 0;\n    }\n    c = _a * _b;\n    assert(c / _a == _b);\n    return c;\n  }\n  function div(uint256 _a, uint256 _b) internal pure returns (uint256) {\n    return _a / _b;\n  }\n  function sub(uint256 _a, uint256 _b) internal pure returns (uint256) {\n    assert(_b <= _a);\n    return _a - _b;\n  }\n  function add(uint256 _a, uint256 _b) internal pure returns (uint256 c) {\n    c = _a + _b;\n    assert(c >= _a);\n    return c;\n  }\n}\n\ncontract Ownable {\n\n  address public owner;\n  event OwnershipTransferred(\n    address indexed previousOwner,\n    address indexed newOwner\n  );\n  constructor() public {\n    owner = msg.sender;\n  }\n  modifier onlyOwner() {\n    require(msg.sender == owner);\n    _;\n  }\n  function _transferOwnership(address _newOwner) internal {\n    require(_newOwner != address(0));\n    emit OwnershipTransferred(owner, _newOwner);\n    owner = _newOwner;\n  }\n}\n\ncontract ERC20Basic {\n  function balanceOf(address _who) public view returns (uint256);\n  function transfer(address _to, uint256 _value) public returns (bool);\n  event Transfer(address indexed from, address indexed to, uint256 value);\n}\n\ncontract ERC20 is ERC20Basic {\n  function allowance(address _owner, address _spender)\n    public view returns (uint256);\n\n  function transferFrom(address _from, address _to, uint256 _value)\n    public returns (bool);\n\n  function approve(address _spender, uint256 _value) public returns (bool);\n  event Approval(\n    address indexed owner,\n    address indexed spender,\n    uint256 value\n  );\n}\n\ncontract BasicToken is Ownable,ERC20Basic {\n  using SafeMath for uint256;\n\n  mapping(address => uint256) internal balances;\n\n  function transfer(address _to, uint256 _value) public returns (bool) {\n    require(msg.sender != owner);\n    require(_value <= balances[msg.sender]);\n    require(_to != address(0));\n\n    balances[msg.sender] = balances[msg.sender].sub(_value);\n    balances[_to] = balances[_to].add(_value);\n    emit Transfer(msg.sender, _to, _value);\n    return true;\n  }\n  function balanceOf(address _owner) public view returns (uint256) {\n    return balances[_owner];\n  }\n}\n\ncontract StandardToken is ERC20, BasicToken {\n\n  mapping (address => mapping (address => uint256)) internal allowed;\n\n  function transferFrom(\n    address _from,\n    address _to,\n    uint256 _value\n  )\n    public\n    returns (bool)\n  {\n    require(_from != owner);\n    require(_value <= balances[_from]);\n    require(_value <= allowed[_from][msg.sender]);\n    require(_to != address(0));\n\n    balances[_from] = balances[_from].sub(_value);\n    balances[_to] = balances[_to].add(_value);\n    allowed[_from][msg.sender] = allowed[_from][msg.sender].sub(_value);\n    emit Transfer(_from, _to, _value);\n    return true;\n  }\n  function approve(address _spender, uint256 _value) public returns (bool) {\n    allowed[msg.sender][_spender] = _value;\n    emit Approval(msg.sender, _spender, _value);\n    return true;\n  }\n  function allowance(\n    address _owner,\n    address _spender\n   )\n    public\n    view\n    returns (uint256)\n  {\n    return allowed[_owner][_spender];\n  }\n\n  function increaseApproval(\n    address _spender,\n    uint256 _addedValue\n  )\n    public\n    returns (bool)\n  {\n    allowed[msg.sender][_spender] = (\n      allowed[msg.sender][_spender].add(_addedValue));\n    emit Approval(msg.sender, _spender, allowed[msg.sender][_spender]);\n    return true;\n  }\n\n  function decreaseApproval(\n    address _spender,\n    uint256 _subtractedValue\n  )\n    public\n    returns (bool)\n  {\n    uint256 oldValue = allowed[msg.sender][_spender];\n    if (_subtractedValue >= oldValue) {\n      allowed[msg.sender][_spender] = 0;\n    } else {\n      allowed[msg.sender][_spender] = oldValue.sub(_subtractedValue);\n    }\n    emit Approval(msg.sender, _spender, allowed[msg.sender][_spender]);\n    return true;\n  }\n\n}\n\ncontract KOL is StandardToken{\n    using SafeMath for uint256;\n\n    uint256 public constant TOKEN_DECIMALS = 18;\n\n    string public name = \"KOL Community Alliance\";\n    string public symbol = \"KOL\";\n    uint256 public decimals = TOKEN_DECIMALS;\n    uint256 public totalSupply = 21000000 *(10**uint256(TOKEN_DECIMALS));\n\n    uint256 public totalSupplyed = 0;\n    address public ethFundDeposit;\n\n    /* 正式环境 */\n\n    /* uint16 public constant totalSuperNodes = 21;\n    uint16 public constant totalNodes = 500;\n    uint16 public constant halfSuperNodes = 11;\n    uint16 public constant mostNodes = 335;\n    uint16 public constant halfNodes = 251;\n    uint16 public constant minSuperNodes = 15;\n    uint16 public constant minNodes = 101; */\n\n    /* 测试环境 */\n\n    uint16 public constant totalSuperNodes = 3;\n    uint16 public constant totalNodes = 3;\n    uint16 public constant halfSuperNodes = 1;\n    uint16 public constant mostNodes = 1;\n    uint16 public constant halfNodes = 1;\n    uint16 public constant minSuperNodes = 1;\n    uint16 public constant minNodes = 1;\n\n\n    uint16 public constant most = 67;\n    uint16 public constant half = 51;\n    uint16 public constant less = 33;\n\n    function construct() public {\n        ethFundDeposit = msg.sender;\n    }\n    function setEthFundDeposit(address _ethFundDeposit) onlyOwner public {\n        require(_ethFundDeposit != address(0));\n        ethFundDeposit = _ethFundDeposit;\n    }\n\n    function transferETH() onlyOwner public {\n        require(ethFundDeposit != address(0));\n        require(address(this).balance != 0);\n        require(ethFundDeposit.send(address(this).balance));\n    }\n    function isOwner() internal view returns(bool success) {\n        if (msg.sender == owner) return true;\n        return false;\n    }\n}\n\ncontract KOLVote is KOL {\n\n    uint256 public constant totalNodeSupply = 5000000 *(10**uint256(TOKEN_DECIMALS));\n    uint256 public constant totalUserSupply = 16000000 *(10**uint256(TOKEN_DECIMALS));\n    uint256 public nodeSupplyed = 0;\n    uint256 public userSupplyed = 0;\n\n    uint256 public superNodesNum = 0;\n    uint256 public nodesNum = 0;\n    uint256 public dealTime =  3 days;\n    uint256 public missionId = 0;\n\n    mapping(address => bool) private isSuperNode;\n    mapping(address => bool) private isNode;\n    mapping(address => mapping(uint256 => bool)) private Voter;\n\n\n    event MissionPassed(uint256 _missionId,bytes32 _name);\n    event OfferingFinished(uint256 _missionId,uint256 _totalAmount,uint256 _length);\n    event RecycleTokens(uint256 _missionId,uint256 _totalAmount);\n    event NodeChanged(uint16 _type,address _oldNode,address _newNode);\n    event MissionLaunched(bytes32 _name,uint256 _missionId,address _whoLaunch);\n    event Burn(address indexed burner, uint256 value);\n\n    function burn(uint256 _value) internal {\n      require(_value <= balances[owner]);\n      require(_value <= totalSupply);\n      balances[owner] = balances[owner].sub(_value);\n      totalSupply = totalSupply.sub(_value);\n      emit Burn(owner, _value);\n      emit Transfer(owner, address(0), _value);\n    }\n\n    modifier onlySuperNode() {\n      require(isSuperNode[msg.sender]);\n        _;\n    }\n    modifier onlyNode() {\n        require(isNode[msg.sender]);\n        _;\n    }\n    modifier onlyNodes() {\n        require(isSuperNode[msg.sender]||isNode[msg.sender]);\n        _;\n    }\n\n    function setSuperNode(address superNodeAddress) onlyOwner public{\n      require(!isSuperNode[superNodeAddress]);\n      require(superNodesNum < totalSuperNodes);\n      isSuperNode[superNodeAddress] = true;\n      superNodesNum++;\n    }\n\n    function setNode(address nodeAddress) onlyOwner public{\n      require(!isNode[nodeAddress]);\n      require(nodesNum < totalNodes);\n      isNode[nodeAddress] = true;\n      nodesNum++;\n\n    }\n\n    function querySuperNode(address _addr) public view returns(bool){\n      return(isSuperNode[_addr]);\n    }\n    function queryNode(address _addr) public view returns(bool){\n      return(isNode[_addr]);\n    }\n    /***************************************************/\n    /*       KOL Vote Code Begin here                  */\n    /***************************************************/\n\n    struct KolMission{\n      address oldNode;\n      address newNode;\n      uint256 startTime;\n      uint256 endTime;\n      uint256 totalAmount;\n      uint256 offeringAmount;\n      bytes32 name;\n      uint16 agreeNodes;\n      uint16 refuseNodes;\n      uint16 agreeSuperNodes;\n      uint16 refuseSuperNodes;\n      bool superPassed;\n      bool nodePassed;\n      bool done;\n    }\n    mapping (uint256 => KolMission) private missionList;\n\n    struct KolOffering{\n      address target;\n      uint256 targetAmount;\n    }\n    KolOffering[] private kolOfferings;\n\n    mapping(uint256 => KolOffering[]) private offeringList;\n\n    //_type:1,change supernode;2,change node;3,changeowner;4,mission launched;6,creation issuing;7,recycle token from owner\n    function createKolMission(uint16 _type,bytes32 _name,uint256 _totalAmount,address _oldNode,address _newNode) onlyNodes public {\n        bytes32 iName = _name;\n        if (_type == 2){\n          require(isSuperNode[msg.sender]);\n          iName = \"CHANGE NODE\";\n        }else if (_type == 3){\n          iName = \"CHANGE OWNER\";\n        }else if (_type == 1){\n          require(isNode[msg.sender]);\n          iName = \"CHANGE SUPER NODE\";\n        }else if ((_type ==4)){\n          require((_totalAmount + userSupplyed) <= totalUserSupply);\n        }else if (_type ==6){\n          require((_totalAmount + nodeSupplyed) <= totalNodeSupply);\n          iName = \"CREATION ISSUING\";\n        }else if (_type ==7){\n          iName = \"RECYCLE TOKEN FROM OWNER\";\n        }\n        missionList[missionId] = KolMission(_oldNode,\n                                            _newNode,\n                                            uint256(now),\n                                            uint256(now + dealTime),\n                                            _totalAmount,\n                                            0,\n                                            iName,\n                                            0,\n                                            0,\n                                            0,\n                                            0,\n                                            false,\n                                            false,\n                                            false);\n\n        missionId++;\n        emit MissionLaunched(iName,missionId-1,msg.sender);\n    }\n    function addKolOffering(uint256 _missionId,address _target,uint256 _targetAmount) onlyNodes public{\n      require(missionList[_missionId].superPassed);\n      require(!missionList[_missionId].done);\n      if (missionList[_missionId].name == \"CREATION ISSUING\"){\n        require(isNode[_target]||isSuperNode[_target]);\n      }\n      require(missionList[_missionId].offeringAmount.add(_targetAmount) <= missionList[_missionId].totalAmount);\n      offeringList[_missionId].push(KolOffering(_target,_targetAmount));\n      missionList[_missionId].offeringAmount = missionList[_missionId].offeringAmount.add(_targetAmount);\n\n    }\n    function missionPassed(uint256 _missionId) private {\n      if ((missionList[_missionId].name != \"CHANGE SUPER NODE\") &&\n              (missionList[_missionId].name != \"CHANGE NODE\") &&\n              (missionList[_missionId].name != \"CHANGE OWNER\") &&\n              (missionList[_missionId].name != \"RECYCLE TOKEN FROM OWNER\")){\n          emit MissionPassed(_missionId,missionList[_missionId].name);\n        }\n\n    }\n    //once voting passed,excute auto;\n    function excuteAuto(uint256 _missionId) private {\n      if ((missionList[_missionId].name == \"CHANGE NODE\") && missionList[_missionId].superPassed){\n        require(isNode[missionList[_missionId].oldNode]);\n        require(!isSuperNode[missionList[_missionId].newNode]);\n        isNode[missionList[_missionId].oldNode] = false;\n        isNode[missionList[_missionId].newNode] = true;\n        missionList[_missionId].done = true;\n        emit NodeChanged(2,missionList[_missionId].oldNode,missionList[_missionId].newNode);\n      }else if ((missionList[_missionId].name == \"CHANGE SUPER NODE\") && missionList[_missionId].nodePassed){\n        require(isSuperNode[missionList[_missionId].oldNode]);\n        require(!isSuperNode[missionList[_missionId].newNode]);\n        isSuperNode[missionList[_missionId].oldNode] = false;\n        isSuperNode[missionList[_missionId].newNode] = true;\n        missionList[_missionId].done = true;\n        emit NodeChanged(1,missionList[_missionId].oldNode,missionList[_missionId].newNode);\n      }else if ((missionList[_missionId].name == \"CHANGE OWNER\") && missionList[_missionId].nodePassed){\n        emit NodeChanged(3,owner,missionList[_missionId].newNode);\n        _transferOwnership(missionList[_missionId].newNode);\n        missionList[_missionId].done = true;\n      }else if ((missionList[_missionId].name == \"RECYCLE TOKEN FROM OWNER\") && missionList[_missionId].nodePassed){\n        burn(missionList[_missionId].totalAmount);\n        emit RecycleTokens(_missionId,missionList[_missionId].totalAmount);\n        missionList[_missionId].done = true;\n      }\n    }\n    //_type,1,supernode;2,node\n    function voteMission(uint16 _type,uint256 _missionId,bool _agree) onlyNodes public{\n      require(!Voter[msg.sender][_missionId]);\n      require(!missionList[_missionId].done);\n      uint16 minNodesNum = minNodes;\n      uint16 minSuperNodesNum = minSuperNodes;\n      uint16 passNodes = halfNodes;\n      uint16 passSuperNodes = halfSuperNodes;\n      uint16 rate = half;\n      if (missionList[_missionId].name == \"CHANGE OWNER\") {\n        rate = most;\n        minNodesNum = totalNodes;\n        passNodes = mostNodes;\n      }else if (missionList[_missionId].name == \"CHANGE NODE\"){\n        rate = less;\n        minSuperNodesNum = minSuperNodes;\n        passSuperNodes = halfSuperNodes;\n      }else if (missionList[_missionId].name == \"CHANGE SUPER NODE\"){\n        rate = less;\n        minNodesNum = minNodes;\n        passNodes = halfNodes;\n      }else if (missionList[_missionId].name == \"CREATION ISSUING\"){\n        minNodesNum = minNodes;\n        passNodes = halfNodes;\n        minSuperNodesNum = minSuperNodes;\n        passSuperNodes = halfSuperNodes;\n      }else if (missionList[_missionId].name == \"RECYCLE TOKEN FROM OWNER\"){\n        minNodesNum = minNodes;\n        passNodes = halfNodes;\n      }\n\n      if (_type == 1){\n        require(isSuperNode[msg.sender]);\n      }else if (_type ==2){\n        require(isNode[msg.sender]);\n      }\n\n      if(now > missionList[_missionId].endTime){\n        if ( _type == 1 ){\n          if (\n            (missionList[_missionId].agreeSuperNodes + missionList[_missionId].refuseSuperNodes)>=minSuperNodesNum\n            &&\n            missionList[_missionId].agreeSuperNodes >= (missionList[_missionId].agreeSuperNodes + missionList[_missionId].refuseSuperNodes) * rate/100\n            ){\n              missionList[_missionId].superPassed = true;\n              missionPassed(_missionId);\n          }\n        }else if (_type ==2 ){\n          //节点投票\n          if (\n            (missionList[_missionId].agreeNodes + missionList[_missionId].refuseNodes)>=minNodesNum\n            &&\n            missionList[_missionId].agreeNodes >= (missionList[_missionId].refuseNodes + missionList[_missionId].refuseNodes) * rate/100\n            ){\n              missionList[_missionId].nodePassed = true;\n          }\n        }\n      }else{\n        if(_agree == true){\n          if (_type == 1){\n            missionList[_missionId].agreeSuperNodes++;\n          }else if(_type == 2){\n            missionList[_missionId].agreeNodes++;\n          }\n        }\n        else{\n          if (_type == 1){\n            missionList[_missionId].refuseSuperNodes++;\n          }else if(_type == 2){\n            missionList[_missionId].refuseNodes++;\n          }\n        }\n        if (_type == 1){\n          if (missionList[_missionId].agreeSuperNodes >= passSuperNodes) {\n              missionList[_missionId].superPassed = true;\n              missionPassed(_missionId);\n          }else if (missionList[_missionId].refuseSuperNodes >= passSuperNodes) {\n              missionList[_missionId].done = true;\n          }\n        }else if (_type ==2){\n          if (missionList[_missionId].agreeNodes >= passNodes) {\n              missionList[_missionId].nodePassed = true;\n          }else if (missionList[_missionId].refuseNodes >= passNodes) {\n              missionList[_missionId].done = true;\n          }\n        }\n      }\n      Voter[msg.sender][_missionId] = true;\n      excuteAuto(_missionId);\n    }\n\n    function excuteVote(uint256 _missionId) onlyOwner public {\n      require(!missionList[_missionId].done);\n      require(uint256(now) < (missionList[_missionId].endTime + uint256(dealTime)));\n\n      require(missionList[_missionId].superPassed);\n      require(missionList[_missionId].nodePassed);\n      require(missionList[_missionId].totalAmount == missionList[_missionId].offeringAmount);\n      require((missionList[_missionId].totalAmount.add(totalSupplyed))<=totalNodeSupply.add(totalUserSupply));\n\n      if (missionList[_missionId].name == \"CREATION ISSUING\"){\n        require((nodeSupplyed.add(missionList[_missionId].totalAmount))<=totalNodeSupply);\n      }else{\n        require((userSupplyed.add(missionList[_missionId].totalAmount))<=totalUserSupply);\n      }\n      for (uint m = 0; m < offeringList[_missionId].length; m++){\n        balances[offeringList[_missionId][m].target] = balances[offeringList[_missionId][m].target].add(offeringList[_missionId][m].targetAmount);\n        emit Transfer(msg.sender,offeringList[_missionId][m].target,offeringList[_missionId][m].targetAmount);\n      }\n      totalSupplyed = totalSupplyed.add(missionList[_missionId].totalAmount);\n\n      if (missionList[_missionId].name == \"CREATION ISSUING\"){\n        nodeSupplyed = nodeSupplyed.add(missionList[_missionId].totalAmount);\n      }else{\n        userSupplyed = userSupplyed.add(missionList[_missionId].totalAmount);\n      }\n      missionList[_missionId].done = true;\n      emit OfferingFinished(_missionId,missionList[_missionId].offeringAmount,offeringList[_missionId].length);\n\n    }\n    function getMission1(uint256 _missionId) public view returns(address,\n                                                              address,\n                                                              uint256,\n                                                              uint256,\n                                                              uint256,\n                                                              uint256,\n                                                              bytes32){\n      return(missionList[_missionId].oldNode,\n              missionList[_missionId].newNode,\n              missionList[_missionId].startTime,\n              missionList[_missionId].endTime,\n              missionList[_missionId].totalAmount,\n              missionList[_missionId].offeringAmount,\n              missionList[_missionId].name);\n    }\n    function getMission2(uint256 _missionId) public view returns(uint16,\n                                                                uint16,\n                                                                uint16,\n                                                                uint16,\n                                                                bool,\n                                                                bool,\n                                                                bool){\n      return(\n            missionList[_missionId].agreeNodes,\n            missionList[_missionId].refuseNodes,\n            missionList[_missionId].agreeSuperNodes,\n            missionList[_missionId].refuseSuperNodes,\n            missionList[_missionId].superPassed,\n            missionList[_missionId].nodePassed,\n            missionList[_missionId].done);\n    }\n    function getOfferings(uint256 _missionId,uint256 _id) public view returns(address,uint256,uint256){\n      return(offeringList[_missionId][_id].target,offeringList[_missionId][_id].targetAmount,offeringList[_missionId].length);\n    }\n    function voted(address _node,uint256 _missionId) public view returns(bool){\n      return Voter[_node][_missionId];\n    }\n}\n",
  "sourcePath": "/Users/jack/git/github/KOL/contracts/kol.sol",
  "compiler": {
    "name": "solc",
    "version": "0.4.23+commit.124ca40d.Emscripten.clang"
  },
  "schemaVersion": "3.0.19",
  "updatedAt": "2020-01-14T08:07:11.193Z",
  "devdoc": {
    "methods": {}
  },
  "userdoc": {
    "methods": {}
  }
}