{
  "contractName": "BTT",
  "abi": [
    {
      "constant": true,
      "inputs": [],
      "name": "receiverAddress",
      "outputs": [
        {
          "name": "",
          "type": "address"
        }
      ],
      "payable": false,
      "stateMutability": "view",
      "type": "function"
    },
    {
      "constant": true,
      "inputs": [],
      "name": "owner",
      "outputs": [
        {
          "name": "",
          "type": "address"
        }
      ],
      "payable": false,
      "stateMutability": "view",
      "type": "function"
    },
    {
      "constant": true,
      "inputs": [
        {
          "name": "",
          "type": "address"
        }
      ],
      "name": "vipList",
      "outputs": [
        {
          "name": "",
          "type": "bool"
        }
      ],
      "payable": false,
      "stateMutability": "view",
      "type": "function"
    },
    {
      "constant": true,
      "inputs": [],
      "name": "txFee",
      "outputs": [
        {
          "name": "",
          "type": "uint256"
        }
      ],
      "payable": false,
      "stateMutability": "view",
      "type": "function"
    },
    {
      "constant": true,
      "inputs": [],
      "name": "VIPFee",
      "outputs": [
        {
          "name": "",
          "type": "uint256"
        }
      ],
      "payable": false,
      "stateMutability": "view",
      "type": "function"
    },
    {
      "constant": false,
      "inputs": [
        {
          "name": "newOwner",
          "type": "address"
        }
      ],
      "name": "transferOwnership",
      "outputs": [],
      "payable": false,
      "stateMutability": "nonpayable",
      "type": "function"
    },
    {
      "anonymous": false,
      "inputs": [
        {
          "indexed": false,
          "name": "token",
          "type": "address"
        },
        {
          "indexed": false,
          "name": "total",
          "type": "uint256"
        }
      ],
      "name": "LogTokenMultiSent",
      "type": "event"
    },
    {
      "anonymous": false,
      "inputs": [
        {
          "indexed": false,
          "name": "token",
          "type": "address"
        },
        {
          "indexed": false,
          "name": "receiver",
          "type": "address"
        },
        {
          "indexed": false,
          "name": "balance",
          "type": "uint256"
        }
      ],
      "name": "LogGetToken",
      "type": "event"
    },
    {
      "constant": false,
      "inputs": [
        {
          "name": "_tokenAddress",
          "type": "address"
        }
      ],
      "name": "getBalance",
      "outputs": [],
      "payable": false,
      "stateMutability": "nonpayable",
      "type": "function"
    },
    {
      "constant": false,
      "inputs": [],
      "name": "registerVIP",
      "outputs": [],
      "payable": true,
      "stateMutability": "payable",
      "type": "function"
    },
    {
      "constant": false,
      "inputs": [
        {
          "name": "_vipList",
          "type": "address[]"
        }
      ],
      "name": "addToVIPList",
      "outputs": [],
      "payable": false,
      "stateMutability": "nonpayable",
      "type": "function"
    },
    {
      "constant": false,
      "inputs": [
        {
          "name": "_vipList",
          "type": "address[]"
        }
      ],
      "name": "removeFromVIPList",
      "outputs": [],
      "payable": false,
      "stateMutability": "nonpayable",
      "type": "function"
    },
    {
      "constant": true,
      "inputs": [
        {
          "name": "_addr",
          "type": "address"
        }
      ],
      "name": "isVIP",
      "outputs": [
        {
          "name": "",
          "type": "bool"
        }
      ],
      "payable": false,
      "stateMutability": "view",
      "type": "function"
    },
    {
      "constant": false,
      "inputs": [
        {
          "name": "_addr",
          "type": "address"
        }
      ],
      "name": "setReceiverAddress",
      "outputs": [],
      "payable": false,
      "stateMutability": "nonpayable",
      "type": "function"
    },
    {
      "constant": true,
      "inputs": [],
      "name": "getReceiverAddress",
      "outputs": [
        {
          "name": "",
          "type": "address"
        }
      ],
      "payable": false,
      "stateMutability": "view",
      "type": "function"
    },
    {
      "constant": false,
      "inputs": [
        {
          "name": "_fee",
          "type": "uint256"
        }
      ],
      "name": "setVIPFee",
      "outputs": [],
      "payable": false,
      "stateMutability": "nonpayable",
      "type": "function"
    },
    {
      "constant": false,
      "inputs": [
        {
          "name": "_fee",
          "type": "uint256"
        }
      ],
      "name": "setTxFee",
      "outputs": [],
      "payable": false,
      "stateMutability": "nonpayable",
      "type": "function"
    },
    {
      "constant": false,
      "inputs": [
        {
          "name": "_to",
          "type": "address[]"
        },
        {
          "name": "_value",
          "type": "uint256"
        }
      ],
      "name": "batchEth",
      "outputs": [],
      "payable": true,
      "stateMutability": "payable",
      "type": "function"
    },
    {
      "constant": false,
      "inputs": [
        {
          "name": "_to",
          "type": "address[]"
        },
        {
          "name": "_value",
          "type": "uint256[]"
        }
      ],
      "name": "batchSend",
      "outputs": [],
      "payable": true,
      "stateMutability": "payable",
      "type": "function"
    },
    {
      "constant": false,
      "inputs": [
        {
          "name": "_tokenAddress",
          "type": "address"
        },
        {
          "name": "_to",
          "type": "address[]"
        },
        {
          "name": "_value",
          "type": "uint256[]"
        }
      ],
      "name": "batchToken",
      "outputs": [],
      "payable": true,
      "stateMutability": "payable",
      "type": "function"
    },
    {
      "constant": false,
      "inputs": [
        {
          "name": "_tokenAddress",
          "type": "address"
        },
        {
          "name": "_to",
          "type": "address[]"
        },
        {
          "name": "_value",
          "type": "uint256"
        }
      ],
      "name": "airDrop",
      "outputs": [],
      "payable": true,
      "stateMutability": "payable",
      "type": "function"
    }
  ],
  "bytecode": "0x6080604052660110d9316ec000600255670de0b6b3a7640000600355336000806101000a81548173ffffffffffffffffffffffffffffffffffffffff021916908373ffffffffffffffffffffffffffffffffffffffff160217905550611a178061006a6000396000f300608060405260043610610107576000357c0100000000000000000000000000000000000000000000000000000000900463ffffffff16806316fed3e21461010c5780633d06242a14610163578063531ebce5146101905780636b3b9c22146101e757806375dadb1d1461026a5780637a53bcfc146102cd5780638279c7db146103695780638da5cb5b146103ac5780639c1f613314610403578063aa168b471461040d578063ba60121b14610468578063c8813ffd14610524578063cf8204611461058a578063f05d16f7146105b5578063f0a0a299146105e2578063f2fde38b1461060d578063f4201c3c14610650578063f48d11af146106ab578063f8b2cb4f14610711575b600080fd5b34801561011857600080fd5b50610121610754565b604051808273ffffffffffffffffffffffffffffffffffffffff1673ffffffffffffffffffffffffffffffffffffffff16815260200191505060405180910390f35b34801561016f57600080fd5b5061018e6004803603810190808035906020019092919050505061077a565b005b34801561019c57600080fd5b506101a56107df565b604051808273ffffffffffffffffffffffffffffffffffffffff1673ffffffffffffffffffffffffffffffffffffffff16815260200191505060405180910390f35b610268600480360381019080803573ffffffffffffffffffffffffffffffffffffffff1690602001909291908035906020019082018035906020019080806020026020016040519081016040528093929190818152602001838360200280828437820191505050505050919291929080359060200190929190505050610889565b005b6102cb6004803603810190808035906020019082018035906020019080806020026020016040519081016040528093929190818152602001838360200280828437820191505050505050919291929080359060200190929190505050610899565b005b61036760048036038101908080359060200190820180359060200190808060200260200160405190810160405280939291908181526020018383602002808284378201915050505050509192919290803590602001908201803590602001908080602002602001604051908101604052809392919081815260200183836020028082843782019150505050505091929192905050506108a7565b005b34801561037557600080fd5b506103aa600480360381019080803573ffffffffffffffffffffffffffffffffffffffff1690602001909291905050506108b5565b005b3480156103b857600080fd5b506103c1610990565b604051808273ffffffffffffffffffffffffffffffffffffffff1673ffffffffffffffffffffffffffffffffffffffff16815260200191505060405180910390f35b61040b6109b5565b005b34801561041957600080fd5b5061044e600480360381019080803573ffffffffffffffffffffffffffffffffffffffff169060200190929190505050610a6d565b604051808215151515815260200191505060405180910390f35b610522600480360381019080803573ffffffffffffffffffffffffffffffffffffffff1690602001909291908035906020019082018035906020019080806020026020016040519081016040528093929190818152602001838360200280828437820191505050505050919291929080359060200190820180359060200190808060200260200160405190810160405280939291908181526020018383602002808284378201915050505050509192919290505050610a8d565b005b34801561053057600080fd5b5061058860048036038101908080359060200190820180359060200190808060200260200160405190810160405280939291908181526020018383602002808284378201915050505050509192919290505050610a9d565b005b34801561059657600080fd5b5061059f610b88565b6040518082815260200191505060405180910390f35b3480156105c157600080fd5b506105e060048036038101908080359060200190929190505050610b8e565b005b3480156105ee57600080fd5b506105f7610bf3565b6040518082815260200191505060405180910390f35b34801561061957600080fd5b5061064e600480360381019080803573ffffffffffffffffffffffffffffffffffffffff169060200190929190505050610bf9565b005b34801561065c57600080fd5b50610691600480360381019080803573ffffffffffffffffffffffffffffffffffffffff169060200190929190505050610cce565b604051808215151515815260200191505060405180910390f35b3480156106b757600080fd5b5061070f60048036038101908080359060200190820180359060200190808060200260200160405190810160405280939291908181526020018383602002808284378201915050505050509192919290505050610d7b565b005b34801561071d57600080fd5b50610752600480360381019080803573ffffffffffffffffffffffffffffffffffffffff169060200190929190505050610e66565b005b600160009054906101000a900473ffffffffffffffffffffffffffffffffffffffff1681565b6000809054906101000a900473ffffffffffffffffffffffffffffffffffffffff1673ffffffffffffffffffffffffffffffffffffffff163373ffffffffffffffffffffffffffffffffffffffff161415156107d557600080fd5b8060038190555050565b60008073ffffffffffffffffffffffffffffffffffffffff16600160009054906101000a900473ffffffffffffffffffffffffffffffffffffffff1673ffffffffffffffffffffffffffffffffffffffff161415610860576000809054906101000a900473ffffffffffffffffffffffffffffffffffffffff169050610886565b600160009054906101000a900473ffffffffffffffffffffffffffffffffffffffff1690505b90565b61089483838361119d565b505050565b6108a382826113c0565b5050565b6108b18282611564565b5050565b6000809054906101000a900473ffffffffffffffffffffffffffffffffffffffff1673ffffffffffffffffffffffffffffffffffffffff163373ffffffffffffffffffffffffffffffffffffffff1614151561091057600080fd5b600073ffffffffffffffffffffffffffffffffffffffff168173ffffffffffffffffffffffffffffffffffffffff161415151561094c57600080fd5b80600160006101000a81548173ffffffffffffffffffffffffffffffffffffffff021916908373ffffffffffffffffffffffffffffffffffffffff16021790555050565b6000809054906101000a900473ffffffffffffffffffffffffffffffffffffffff1681565b600060035434101515156109c857600080fd5b6109d06107df565b90508073ffffffffffffffffffffffffffffffffffffffff166108fc349081150290604051600060405180830381858888f193505050501515610a1257600080fd5b6001600460003373ffffffffffffffffffffffffffffffffffffffff1673ffffffffffffffffffffffffffffffffffffffff16815260200190815260200160002060006101000a81548160ff02191690831515021790555050565b60046020528060005260406000206000915054906101000a900460ff1681565b610a9883838361173e565b505050565b60008060009054906101000a900473ffffffffffffffffffffffffffffffffffffffff1673ffffffffffffffffffffffffffffffffffffffff163373ffffffffffffffffffffffffffffffffffffffff16141515610afa57600080fd5b600090505b8151811015610b84576001600460008484815181101515610b1c57fe5b9060200190602002015173ffffffffffffffffffffffffffffffffffffffff1673ffffffffffffffffffffffffffffffffffffffff16815260200190815260200160002060006101000a81548160ff0219169083151502179055508080600101915050610aff565b5050565b60025481565b6000809054906101000a900473ffffffffffffffffffffffffffffffffffffffff1673ffffffffffffffffffffffffffffffffffffffff163373ffffffffffffffffffffffffffffffffffffffff16141515610be957600080fd5b8060028190555050565b60035481565b6000809054906101000a900473ffffffffffffffffffffffffffffffffffffffff1673ffffffffffffffffffffffffffffffffffffffff163373ffffffffffffffffffffffffffffffffffffffff16141515610c5457600080fd5b600073ffffffffffffffffffffffffffffffffffffffff168173ffffffffffffffffffffffffffffffffffffffff16141515610ccb57806000806101000a81548173ffffffffffffffffffffffffffffffffffffffff021916908373ffffffffffffffffffffffffffffffffffffffff1602179055505b50565b60008060009054906101000a900473ffffffffffffffffffffffffffffffffffffffff1673ffffffffffffffffffffffffffffffffffffffff168273ffffffffffffffffffffffffffffffffffffffff161480610d745750600460008373ffffffffffffffffffffffffffffffffffffffff1673ffffffffffffffffffffffffffffffffffffffff16815260200190815260200160002060009054906101000a900460ff165b9050919050565b60008060009054906101000a900473ffffffffffffffffffffffffffffffffffffffff1673ffffffffffffffffffffffffffffffffffffffff163373ffffffffffffffffffffffffffffffffffffffff16141515610dd857600080fd5b600090505b8151811015610e62576000600460008484815181101515610dfa57fe5b9060200190602002015173ffffffffffffffffffffffffffffffffffffffff1673ffffffffffffffffffffffffffffffffffffffff16815260200190815260200160002060006101000a81548160ff0219169083151502179055508080600101915050610ddd565b5050565b60008060008060009054906101000a900473ffffffffffffffffffffffffffffffffffffffff1673ffffffffffffffffffffffffffffffffffffffff163373ffffffffffffffffffffffffffffffffffffffff16141515610ec657600080fd5b610ece6107df565b9250600073ffffffffffffffffffffffffffffffffffffffff168473ffffffffffffffffffffffffffffffffffffffff161415610f61578273ffffffffffffffffffffffffffffffffffffffff166108fc3073ffffffffffffffffffffffffffffffffffffffff16319081150290604051600060405180830381858888f193505050501515610f5c57600080fd5b611197565b8391508173ffffffffffffffffffffffffffffffffffffffff166370a08231306040518263ffffffff167c0100000000000000000000000000000000000000000000000000000000028152600401808273ffffffffffffffffffffffffffffffffffffffff1673ffffffffffffffffffffffffffffffffffffffff168152602001915050602060405180830381600087803b158015610fff57600080fd5b505af1158015611013573d6000803e3d6000fd5b505050506040513d602081101561102957600080fd5b810190808051906020019092919050505090508173ffffffffffffffffffffffffffffffffffffffff1663a9059cbb84836040518363ffffffff167c0100000000000000000000000000000000000000000000000000000000028152600401808373ffffffffffffffffffffffffffffffffffffffff1673ffffffffffffffffffffffffffffffffffffffff16815260200182815260200192505050600060405180830381600087803b1580156110df57600080fd5b505af11580156110f3573d6000803e3d6000fd5b505050507fc9076fc68f7c8242d2eeb2e0c02b8cafae31bb4fcbe2b89ef1f27846ac6facaf848483604051808473ffffffffffffffffffffffffffffffffffffffff1673ffffffffffffffffffffffffffffffffffffffff1681526020018373ffffffffffffffffffffffffffffffffffffffff1673ffffffffffffffffffffffffffffffffffffffff168152602001828152602001935050505060405180910390a15b50505050565b6000806000806000803495506111b233610cce565b94508415156111e3576111d4600189510360025461197890919063ffffffff16565b86101515156111e257600080fd5b5b60ff8851111515156111f457600080fd5b33935061121e8761121060018b516119ae90919063ffffffff16565b61197890919063ffffffff16565b9250889150600190505b87518160ff16101561134a578173ffffffffffffffffffffffffffffffffffffffff166323b872dd858a8460ff1681518110151561126257fe5b906020019060200201518a6040518463ffffffff167c0100000000000000000000000000000000000000000000000000000000028152600401808473ffffffffffffffffffffffffffffffffffffffff1673ffffffffffffffffffffffffffffffffffffffff1681526020018373ffffffffffffffffffffffffffffffffffffffff1673ffffffffffffffffffffffffffffffffffffffff1681526020018281526020019350505050600060405180830381600087803b15801561132557600080fd5b505af1158015611339573d6000803e3d6000fd5b505050508080600101915050611228565b7fed5764a1b8be605b492a928d158c22b5e031d1d054b31e8ff6d3211a4dacb7308984604051808373ffffffffffffffffffffffffffffffffffffffff1673ffffffffffffffffffffffffffffffffffffffff1681526020018281526020019250505060405180910390a1505050505050505050565b6000806000806113ed856113df600189516119ae90919063ffffffff16565b61197890919063ffffffff16565b93503492506113fb33610cce565b915081156114175783831015151561141257600080fd5b611451565b611442611433600188510360025461197890919063ffffffff16565b856119ca90919063ffffffff16565b831015151561145057600080fd5b5b60ff86511115151561146257600080fd5b600190505b85518160ff1610156114ef5761148685846119ae90919063ffffffff16565b9250858160ff1681518110151561149957fe5b9060200190602002015173ffffffffffffffffffffffffffffffffffffffff166108fc869081150290604051600060405180830381858888f1935050505015156114e257600080fd5b8080600101915050611467565b7fed5764a1b8be605b492a928d158c22b5e031d1d054b31e8ff6d3211a4dacb73061aaaa34604051808373ffffffffffffffffffffffffffffffffffffffff1673ffffffffffffffffffffffffffffffffffffffff1681526020018281526020019250505060405180910390a1505050505050565b60008060008084600081518110151561157957fe5b90602001906020020151935034925061159133610cce565b915081156115ad578383101515156115a857600080fd5b6115e7565b6115d86115c9600188510360025461197890919063ffffffff16565b856119ca90919063ffffffff16565b83101515156115e657600080fd5b5b845186511415156115f757600080fd5b60ff86511115151561160857600080fd5b600190505b85518160ff1610156116c957611646858260ff1681518110151561162d57fe5b90602001906020020151846119ae90919063ffffffff16565b9250858160ff1681518110151561165957fe5b9060200190602002015173ffffffffffffffffffffffffffffffffffffffff166108fc868360ff1681518110151561168d57fe5b906020019060200201519081150290604051600060405180830381858888f1935050505015156116bc57600080fd5b808060010191505061160d565b7fed5764a1b8be605b492a928d158c22b5e031d1d054b31e8ff6d3211a4dacb73061aaaa34604051808373ffffffffffffffffffffffffffffffffffffffff1673ffffffffffffffffffffffffffffffffffffffff1681526020018281526020019250505060405180910390a1505050505050565b600080600080600034945061175233610cce565b935083151561178357611774600188510360025461197890919063ffffffff16565b851015151561178257600080fd5b5b8551875114151561179357600080fd5b60ff8751111515156117a457600080fd5b8560008151811015156117b357fe5b906020019060200201519250879150600190505b86518160ff161015611903578173ffffffffffffffffffffffffffffffffffffffff166323b872dd33898460ff1681518110151561180157fe5b90602001906020020151898560ff1681518110151561181c57fe5b906020019060200201516040518463ffffffff167c0100000000000000000000000000000000000000000000000000000000028152600401808473ffffffffffffffffffffffffffffffffffffffff1673ffffffffffffffffffffffffffffffffffffffff1681526020018373ffffffffffffffffffffffffffffffffffffffff1673ffffffffffffffffffffffffffffffffffffffff1681526020018281526020019350505050600060405180830381600087803b1580156118de57600080fd5b505af11580156118f2573d6000803e3d6000fd5b5050505080806001019150506117c7565b7fed5764a1b8be605b492a928d158c22b5e031d1d054b31e8ff6d3211a4dacb7308884604051808373ffffffffffffffffffffffffffffffffffffffff1673ffffffffffffffffffffffffffffffffffffffff1681526020018281526020019250505060405180910390a15050505050505050565b60008082840290506000841480611999575082848281151561199657fe5b04145b15156119a457600080fd5b8091505092915050565b60008282111515156119bf57600080fd5b818303905092915050565b60008082840190508381101515156119e157600080fd5b80915050929150505600a165627a7a72305820f66585bb6fcdbfc908b5412b5519f7a412ac11fa7a6b9eba6dbd9997cc0c6ead0029",
  "source": "pragma solidity ^0.4.0;\n\n/**\n * @title BTT(Batch Token Transfer), support ETH and ERC20 Tokens\n * @dev To Use this Dapp: https://btt.kols.club\n*/\n\n\nlibrary SafeMath {\n  function mul(uint a, uint b) internal pure  returns (uint) {\n    uint c = a * b;\n    require(a == 0 || c / a == b);\n    return c;\n  }\n  function div(uint a, uint b) internal pure returns (uint) {\n    require(b > 0);\n    uint c = a / b;\n    require(a == b * c + a % b);\n    return c;\n  }\n  function sub(uint a, uint b) internal pure returns (uint) {\n    require(b <= a);\n    return a - b;\n  }\n  function add(uint a, uint b) internal pure returns (uint) {\n    uint c = a + b;\n    require(c >= a);\n    return c;\n  }\n  function max64(uint64 a, uint64 b) internal  pure returns (uint64) {\n    return a >= b ? a : b;\n  }\n  function min64(uint64 a, uint64 b) internal  pure returns (uint64) {\n    return a < b ? a : b;\n  }\n  function max256(uint256 a, uint256 b) internal  pure returns (uint256) {\n    return a >= b ? a : b;\n  }\n  function min256(uint256 a, uint256 b) internal  pure returns (uint256) {\n    return a < b ? a : b;\n  }\n}\n\n/**\n * @title BTT(Batch Token Transfer), support ETH and ERC20 Tokens\n * @dev To Use this Dapp: https://btt.kols.club\n*/\n\ncontract ERC20Basic {\n  uint public totalSupply;\n  function balanceOf(address who) public constant returns (uint);\n  function transfer(address to, uint value) public;\n  event Transfer(address indexed from, address indexed to, uint value);\n}\n\ncontract ERC20 is ERC20Basic {\n  function allowance(address owner, address spender) public constant returns (uint);\n  function transferFrom(address from, address to, uint value) public;\n  function approve(address spender, uint value) public;\n  event Approval(address indexed owner, address indexed spender, uint value);\n}\n\n/**\n * @title BTT(Batch Token Transfer), support ETH and ERC20 Tokens\n * @dev To Use this Dapp: https://btt.kols.club\n*/\n\ncontract BasicToken is ERC20Basic {\n\n  using SafeMath for uint;\n\n  mapping(address => uint) balances;\n\n  function transfer(address _to, uint _value) public{\n    balances[msg.sender] = balances[msg.sender].sub(_value);\n    balances[_to] = balances[_to].add(_value);\n    Transfer(msg.sender, _to, _value);\n  }\n\n  function balanceOf(address _owner) public constant returns (uint balance) {\n    return balances[_owner];\n  }\n}\n\n/**\n * @title BTT(Batch Token Transfer), support ETH and ERC20 Tokens\n * @dev To Use this Dapp: https://btt.kols.club\n*/\n\ncontract StandardToken is BasicToken, ERC20 {\n  mapping (address => mapping (address => uint)) allowed;\n\n  function transferFrom(address _from, address _to, uint _value) public {\n    balances[_to] = balances[_to].add(_value);\n    balances[_from] = balances[_from].sub(_value);\n    allowed[_from][msg.sender] = allowed[_from][msg.sender].sub(_value);\n    Transfer(_from, _to, _value);\n  }\n\n  function approve(address _spender, uint _value) public{\n    require((_value == 0) || (allowed[msg.sender][_spender] == 0)) ;\n    allowed[msg.sender][_spender] = _value;\n    Approval(msg.sender, _spender, _value);\n  }\n\n  function allowance(address _owner, address _spender) public constant returns (uint remaining) {\n    return allowed[_owner][_spender];\n  }\n}\n\n/**\n * @title BTT(Batch Token Transfer), support ETH and ERC20 Tokens\n * @dev To Use this Dapp: https://btt.kols.club\n*/\n\ncontract Ownable {\n    address public owner;\n\n    function Ownable() public{\n        owner = msg.sender;\n    }\n\n    modifier onlyOwner {\n        require(msg.sender == owner);\n        _;\n    }\n    function transferOwnership(address newOwner) onlyOwner public{\n        if (newOwner != address(0)) {\n            owner = newOwner;\n        }\n    }\n}\n\n/**\n * @title BTT(Batch Token Transfer), support ETH and ERC20 Tokens\n * @dev To Use this Dapp: https://btt.kols.club\n*/\n\ncontract BTT is Ownable{\n\n    using SafeMath for uint;\n\n\n    event LogTokenMultiSent(address token,uint256 total);\n    event LogGetToken(address token, address receiver, uint256 balance);\n    address public receiverAddress;\n    uint public txFee = 0.0003 ether;\n    uint public VIPFee = 1 ether;\n\n    mapping(address => bool) public vipList;\n\n\n  function getBalance(address _tokenAddress) onlyOwner public {\n      address _receiverAddress = getReceiverAddress();\n      if(_tokenAddress == address(0)){\n          require(_receiverAddress.send(address(this).balance));\n          return;\n      }\n      StandardToken token = StandardToken(_tokenAddress);\n      uint256 balance = token.balanceOf(this);\n      token.transfer(_receiverAddress, balance);\n\n      emit LogGetToken(_tokenAddress,_receiverAddress,balance);\n  }\n\n\n   /*\n  *  Register VIP\n  */\n  function registerVIP() payable public {\n      require(msg.value >= VIPFee);\n      address _receiverAddress = getReceiverAddress();\n      require(_receiverAddress.send(msg.value));\n      vipList[msg.sender] = true;\n  }\n\n\n  function addToVIPList(address[] _vipList) onlyOwner public {\n    for (uint i =0;i<_vipList.length;i++){\n      vipList[_vipList[i]] = true;\n    }\n  }\n\n  function removeFromVIPList(address[] _vipList) onlyOwner public {\n    for (uint i =0;i<_vipList.length;i++){\n      vipList[_vipList[i]] = false;\n    }\n   }\n\n    function isVIP(address _addr) public view returns (bool) {\n        return _addr == owner || vipList[_addr];\n    }\n\n\n    function setReceiverAddress(address _addr) onlyOwner public {\n        require(_addr != address(0));\n        receiverAddress = _addr;\n    }\n\n\n    function getReceiverAddress() public view returns  (address){\n        if(receiverAddress == address(0)){\n            return owner;\n        }\n\n        return receiverAddress;\n    }\n\n    function setVIPFee(uint _fee) onlyOwner public {\n        VIPFee = _fee;\n    }\n\n\n    function setTxFee(uint _fee) onlyOwner public {\n        txFee = _fee;\n    }\n\n\n   function ethSendSameValue(address[] _to, uint _value) internal {\n\n        uint sendAmount = _to.length.sub(1).mul(_value);\n        uint remainingValue = msg.value;\n\n        bool vip = isVIP(msg.sender);\n        if(vip){\n            require(remainingValue >= sendAmount);\n        }else{\n            require(remainingValue >= sendAmount.add(txFee.mul(_to.length-1))) ;\n        }\n\t\trequire(_to.length <= 255);\n\n\t\tfor (uint8 i = 1; i < _to.length; i++) {\n\t\t\tremainingValue = remainingValue.sub(_value);\n\t\t\trequire(_to[i].send(_value));\n\t\t}\n\n\t    emit LogTokenMultiSent(0x000000000000000000000000000000000000aaaa,msg.value);\n    }\n\n    function ethSendDifferentValue(address[] _to, uint[] _value) internal {\n\n        uint sendAmount = _value[0];\n\t\tuint remainingValue = msg.value;\n\n\t    bool vip = isVIP(msg.sender);\n        if(vip){\n            require(remainingValue >= sendAmount);\n        }else{\n            require(remainingValue >= sendAmount.add(txFee.mul(_to.length-1))) ;\n        }\n\n\t\trequire(_to.length == _value.length);\n\t\trequire(_to.length <= 255);\n\n\t\tfor (uint8 i = 1; i < _to.length; i++) {\n\t\t\tremainingValue = remainingValue.sub(_value[i]);\n\t\t\trequire(_to[i].send(_value[i]));\n\t\t}\n\t    emit LogTokenMultiSent(0x000000000000000000000000000000000000aaaa,msg.value);\n\n    }\n\n    function coinSendSameValue(address _tokenAddress, address[] _to, uint _value)  internal {\n  \t\tuint sendValue = msg.value;\n      bool vip = isVIP(msg.sender);\n          if(!vip){\n  \t\t    require(sendValue >= txFee.mul(_to.length-1));\n          }\n  \t\trequire(_to.length <= 255);\n\n  \t\taddress from = msg.sender;\n  \t\tuint256 sendAmount = _to.length.sub(1).mul(_value);\n\n          StandardToken token = StandardToken(_tokenAddress);\n  \t\tfor (uint8 i = 1; i < _to.length; i++) {\n  \t\t\ttoken.transferFrom(from, _to[i], _value);\n  \t\t}\n\n  \t    emit LogTokenMultiSent(_tokenAddress,sendAmount);\n\n\t}\n\n\tfunction coinSendDifferentValue(address _tokenAddress, address[] _to, uint[] _value)  internal  {\n\t\tuint sendValue = msg.value;\n\t    bool vip = isVIP(msg.sender);\n        if(!vip){\n\t\t    require(sendValue >= txFee.mul(_to.length-1));\n        }\n\n\t\trequire(_to.length == _value.length);\n\t\trequire(_to.length <= 255);\n\n        uint256 sendAmount = _value[0];\n        StandardToken token = StandardToken(_tokenAddress);\n\n\t\tfor (uint8 i = 1; i < _to.length; i++) {\n\t\t\ttoken.transferFrom(msg.sender, _to[i], _value[i]);\n\t\t}\n        emit LogTokenMultiSent(_tokenAddress,sendAmount);\n\n\t}\n\n    function batchEth(address[] _to, uint _value) payable public {\n\t\tethSendSameValue(_to,_value);\n\t  }\n\n    function batchSend(address[] _to, uint[] _value) payable public {\n\t\t ethSendDifferentValue(_to,_value);\n\t  }\n\n\n\n    function batchToken(address _tokenAddress, address[] _to, uint[] _value) payable public {\n\t    coinSendDifferentValue(_tokenAddress, _to, _value);\n    }\n\n    function airDrop(address _tokenAddress, address[] _to, uint _value)  payable public {\n\t\tcoinSendSameValue(_tokenAddress, _to, _value);\n\t }\n\n\n\n}\n",
  "sourcePath": "/Users/jack/git/github/batchToken/contracts/BTT.sol",
  "compiler": {
    "name": "solc",
    "version": "0.4.23+commit.124ca40d.Emscripten.clang"
  },
  "schemaVersion": "3.0.19",
  "updatedAt": "2020-03-06T10:23:44.371Z",
  "networkType": "ethereum",
  "devdoc": {
    "methods": {},
    "title": "BTT(Batch Token Transfer), support ETH and ERC20 Tokens"
  },
  "userdoc": {
    "methods": {}
  }
}