{
  "contractName": "KOL",
  "abi": [
    {
      "constant": true,
      "inputs": [],
      "name": "name",
      "outputs": [
        {
          "name": "",
          "type": "string"
        }
      ],
      "payable": false,
      "stateMutability": "view",
      "type": "function"
    },
    {
      "constant": false,
      "inputs": [
        {
          "name": "_spender",
          "type": "address"
        },
        {
          "name": "_value",
          "type": "uint256"
        }
      ],
      "name": "approve",
      "outputs": [
        {
          "name": "",
          "type": "bool"
        }
      ],
      "payable": false,
      "stateMutability": "nonpayable",
      "type": "function"
    },
    {
      "constant": true,
      "inputs": [],
      "name": "totalSupply",
      "outputs": [
        {
          "name": "",
          "type": "uint256"
        }
      ],
      "payable": false,
      "stateMutability": "view",
      "type": "function"
    },
    {
      "constant": false,
      "inputs": [
        {
          "name": "_from",
          "type": "address"
        },
        {
          "name": "_to",
          "type": "address"
        },
        {
          "name": "_value",
          "type": "uint256"
        }
      ],
      "name": "transferFrom",
      "outputs": [
        {
          "name": "",
          "type": "bool"
        }
      ],
      "payable": false,
      "stateMutability": "nonpayable",
      "type": "function"
    },
    {
      "constant": true,
      "inputs": [],
      "name": "decimals",
      "outputs": [
        {
          "name": "",
          "type": "uint256"
        }
      ],
      "payable": false,
      "stateMutability": "view",
      "type": "function"
    },
    {
      "constant": true,
      "inputs": [],
      "name": "minNodes",
      "outputs": [
        {
          "name": "",
          "type": "uint16"
        }
      ],
      "payable": false,
      "stateMutability": "view",
      "type": "function"
    },
    {
      "constant": true,
      "inputs": [],
      "name": "minSuperNodes",
      "outputs": [
        {
          "name": "",
          "type": "uint16"
        }
      ],
      "payable": false,
      "stateMutability": "view",
      "type": "function"
    },
    {
      "constant": true,
      "inputs": [],
      "name": "most",
      "outputs": [
        {
          "name": "",
          "type": "uint16"
        }
      ],
      "payable": false,
      "stateMutability": "view",
      "type": "function"
    },
    {
      "constant": true,
      "inputs": [],
      "name": "TOKEN_DECIMALS",
      "outputs": [
        {
          "name": "",
          "type": "uint256"
        }
      ],
      "payable": false,
      "stateMutability": "view",
      "type": "function"
    },
    {
      "constant": false,
      "inputs": [
        {
          "name": "_spender",
          "type": "address"
        },
        {
          "name": "_subtractedValue",
          "type": "uint256"
        }
      ],
      "name": "decreaseApproval",
      "outputs": [
        {
          "name": "",
          "type": "bool"
        }
      ],
      "payable": false,
      "stateMutability": "nonpayable",
      "type": "function"
    },
    {
      "constant": true,
      "inputs": [],
      "name": "halfSuperNodes",
      "outputs": [
        {
          "name": "",
          "type": "uint16"
        }
      ],
      "payable": false,
      "stateMutability": "view",
      "type": "function"
    },
    {
      "constant": true,
      "inputs": [
        {
          "name": "_owner",
          "type": "address"
        }
      ],
      "name": "balanceOf",
      "outputs": [
        {
          "name": "",
          "type": "uint256"
        }
      ],
      "payable": false,
      "stateMutability": "view",
      "type": "function"
    },
    {
      "constant": true,
      "inputs": [],
      "name": "owner",
      "outputs": [
        {
          "name": "",
          "type": "address"
        }
      ],
      "payable": false,
      "stateMutability": "view",
      "type": "function"
    },
    {
      "constant": true,
      "inputs": [],
      "name": "totalNodes",
      "outputs": [
        {
          "name": "",
          "type": "uint16"
        }
      ],
      "payable": false,
      "stateMutability": "view",
      "type": "function"
    },
    {
      "constant": true,
      "inputs": [],
      "name": "symbol",
      "outputs": [
        {
          "name": "",
          "type": "string"
        }
      ],
      "payable": false,
      "stateMutability": "view",
      "type": "function"
    },
    {
      "constant": true,
      "inputs": [],
      "name": "mostNodes",
      "outputs": [
        {
          "name": "",
          "type": "uint16"
        }
      ],
      "payable": false,
      "stateMutability": "view",
      "type": "function"
    },
    {
      "constant": true,
      "inputs": [],
      "name": "totalSuperNodes",
      "outputs": [
        {
          "name": "",
          "type": "uint16"
        }
      ],
      "payable": false,
      "stateMutability": "view",
      "type": "function"
    },
    {
      "constant": true,
      "inputs": [],
      "name": "ethFundDeposit",
      "outputs": [
        {
          "name": "",
          "type": "address"
        }
      ],
      "payable": false,
      "stateMutability": "view",
      "type": "function"
    },
    {
      "constant": false,
      "inputs": [
        {
          "name": "_to",
          "type": "address"
        },
        {
          "name": "_value",
          "type": "uint256"
        }
      ],
      "name": "transfer",
      "outputs": [
        {
          "name": "",
          "type": "bool"
        }
      ],
      "payable": false,
      "stateMutability": "nonpayable",
      "type": "function"
    },
    {
      "constant": true,
      "inputs": [],
      "name": "totalSupplyed",
      "outputs": [
        {
          "name": "",
          "type": "uint256"
        }
      ],
      "payable": false,
      "stateMutability": "view",
      "type": "function"
    },
    {
      "constant": true,
      "inputs": [],
      "name": "less",
      "outputs": [
        {
          "name": "",
          "type": "uint16"
        }
      ],
      "payable": false,
      "stateMutability": "view",
      "type": "function"
    },
    {
      "constant": false,
      "inputs": [
        {
          "name": "_spender",
          "type": "address"
        },
        {
          "name": "_addedValue",
          "type": "uint256"
        }
      ],
      "name": "increaseApproval",
      "outputs": [
        {
          "name": "",
          "type": "bool"
        }
      ],
      "payable": false,
      "stateMutability": "nonpayable",
      "type": "function"
    },
    {
      "constant": true,
      "inputs": [],
      "name": "halfNodes",
      "outputs": [
        {
          "name": "",
          "type": "uint16"
        }
      ],
      "payable": false,
      "stateMutability": "view",
      "type": "function"
    },
    {
      "constant": true,
      "inputs": [
        {
          "name": "_owner",
          "type": "address"
        },
        {
          "name": "_spender",
          "type": "address"
        }
      ],
      "name": "allowance",
      "outputs": [
        {
          "name": "",
          "type": "uint256"
        }
      ],
      "payable": false,
      "stateMutability": "view",
      "type": "function"
    },
    {
      "constant": true,
      "inputs": [],
      "name": "half",
      "outputs": [
        {
          "name": "",
          "type": "uint16"
        }
      ],
      "payable": false,
      "stateMutability": "view",
      "type": "function"
    },
    {
      "anonymous": false,
      "inputs": [
        {
          "indexed": true,
          "name": "owner",
          "type": "address"
        },
        {
          "indexed": true,
          "name": "spender",
          "type": "address"
        },
        {
          "indexed": false,
          "name": "value",
          "type": "uint256"
        }
      ],
      "name": "Approval",
      "type": "event"
    },
    {
      "anonymous": false,
      "inputs": [
        {
          "indexed": true,
          "name": "from",
          "type": "address"
        },
        {
          "indexed": true,
          "name": "to",
          "type": "address"
        },
        {
          "indexed": false,
          "name": "value",
          "type": "uint256"
        }
      ],
      "name": "Transfer",
      "type": "event"
    },
    {
      "anonymous": false,
      "inputs": [
        {
          "indexed": true,
          "name": "previousOwner",
          "type": "address"
        },
        {
          "indexed": true,
          "name": "newOwner",
          "type": "address"
        }
      ],
      "name": "OwnershipTransferred",
      "type": "event"
    },
    {
      "constant": false,
      "inputs": [],
      "name": "construct",
      "outputs": [],
      "payable": false,
      "stateMutability": "nonpayable",
      "type": "function"
    },
    {
      "constant": false,
      "inputs": [
        {
          "name": "_ethFundDeposit",
          "type": "address"
        }
      ],
      "name": "setEthFundDeposit",
      "outputs": [],
      "payable": false,
      "stateMutability": "nonpayable",
      "type": "function"
    },
    {
      "constant": false,
      "inputs": [],
      "name": "transferETH",
      "outputs": [],
      "payable": false,
      "stateMutability": "nonpayable",
      "type": "function"
    }
  ],
  "bytecode": "0x60806040526040805190810160405280601681526020017f4b4f4c20436f6d6d756e69747920416c6c69616e6365000000000000000000008152506003908051906020019062000051929190620000fe565b506040805190810160405280600381526020017f4b4f4c0000000000000000000000000000000000000000000000000000000000815250600490805190602001906200009f929190620000fe565b5060126005556012600a0a6301406f40026006556000600755336000806101000a81548173ffffffffffffffffffffffffffffffffffffffff021916908373ffffffffffffffffffffffffffffffffffffffff160217905550620001ad565b828054600181600116156101000203166002900490600052602060002090601f016020900481019282601f106200014157805160ff191683800117855562000172565b8280016001018555821562000172579182015b828111156200017157825182559160200191906001019062000154565b5b50905062000181919062000185565b5090565b620001aa91905b80821115620001a65760008160009055506001016200018c565b5090565b90565b611ad680620001bd6000396000f30060806040526004361061016a576000357c0100000000000000000000000000000000000000000000000000000000900463ffffffff16806306fdde031461016f578063095ea7b3146101ff57806318160ddd1461026457806323b872dd1461028f578063313ce56714610314578063495122141461033f5780635797654d1461037257806358d7889c146103a55780635b7f415c146103d857806366188463146104035780636bfa24ea1461046857806370a082311461049b5780638da5cb5b146104f257806394b91deb146105495780639592d4241461056057806395d89b41146105935780639625e0fb1461062357806399619fa614610656578063a81c3bdf14610689578063a9059cbb146106e0578063b9f8c99714610745578063d0b4237314610770578063d73dd623146107a3578063d886ad4914610808578063d90374411461083b578063dd62ed3e1461087e578063e28d717b146108f5578063f6a6462c1461090c575b600080fd5b34801561017b57600080fd5b5061018461093f565b6040518080602001828103825283818151815260200191508051906020019080838360005b838110156101c45780820151818401526020810190506101a9565b50505050905090810190601f1680156101f15780820380516001836020036101000a031916815260200191505b509250505060405180910390f35b34801561020b57600080fd5b5061024a600480360381019080803573ffffffffffffffffffffffffffffffffffffffff169060200190929190803590602001909291905050506109dd565b604051808215151515815260200191505060405180910390f35b34801561027057600080fd5b50610279610acf565b6040518082815260200191505060405180910390f35b34801561029b57600080fd5b506102fa600480360381019080803573ffffffffffffffffffffffffffffffffffffffff169060200190929190803573ffffffffffffffffffffffffffffffffffffffff16906020019092919080359060200190929190505050610ad5565b604051808215151515815260200191505060405180910390f35b34801561032057600080fd5b50610329610ef1565b6040518082815260200191505060405180910390f35b34801561034b57600080fd5b50610354610ef7565b604051808261ffff1661ffff16815260200191505060405180910390f35b34801561037e57600080fd5b50610387610efc565b604051808261ffff1661ffff16815260200191505060405180910390f35b3480156103b157600080fd5b506103ba610f01565b604051808261ffff1661ffff16815260200191505060405180910390f35b3480156103e457600080fd5b506103ed610f06565b6040518082815260200191505060405180910390f35b34801561040f57600080fd5b5061044e600480360381019080803573ffffffffffffffffffffffffffffffffffffffff16906020019092919080359060200190929190505050610f0b565b604051808215151515815260200191505060405180910390f35b34801561047457600080fd5b5061047d61119d565b604051808261ffff1661ffff16815260200191505060405180910390f35b3480156104a757600080fd5b506104dc600480360381019080803573ffffffffffffffffffffffffffffffffffffffff1690602001909291905050506111a2565b6040518082815260200191505060405180910390f35b3480156104fe57600080fd5b506105076111eb565b604051808273ffffffffffffffffffffffffffffffffffffffff1673ffffffffffffffffffffffffffffffffffffffff16815260200191505060405180910390f35b34801561055557600080fd5b5061055e611210565b005b34801561056c57600080fd5b50610575611253565b604051808261ffff1661ffff16815260200191505060405180910390f35b34801561059f57600080fd5b506105a8611258565b6040518080602001828103825283818151815260200191508051906020019080838360005b838110156105e85780820151818401526020810190506105cd565b50505050905090810190601f1680156106155780820380516001836020036101000a031916815260200191505b509250505060405180910390f35b34801561062f57600080fd5b506106386112f6565b604051808261ffff1661ffff16815260200191505060405180910390f35b34801561066257600080fd5b5061066b6112fb565b604051808261ffff1661ffff16815260200191505060405180910390f35b34801561069557600080fd5b5061069e611300565b604051808273ffffffffffffffffffffffffffffffffffffffff1673ffffffffffffffffffffffffffffffffffffffff16815260200191505060405180910390f35b3480156106ec57600080fd5b5061072b600480360381019080803573ffffffffffffffffffffffffffffffffffffffff16906020019092919080359060200190929190505050611326565b604051808215151515815260200191505060405180910390f35b34801561075157600080fd5b5061075a6115a7565b6040518082815260200191505060405180910390f35b34801561077c57600080fd5b506107856115ad565b604051808261ffff1661ffff16815260200191505060405180910390f35b3480156107af57600080fd5b506107ee600480360381019080803573ffffffffffffffffffffffffffffffffffffffff169060200190929190803590602001909291905050506115b2565b604051808215151515815260200191505060405180910390f35b34801561081457600080fd5b5061081d6117ae565b604051808261ffff1661ffff16815260200191505060405180910390f35b34801561084757600080fd5b5061087c600480360381019080803573ffffffffffffffffffffffffffffffffffffffff1690602001909291905050506117b3565b005b34801561088a57600080fd5b506108df600480360381019080803573ffffffffffffffffffffffffffffffffffffffff169060200190929190803573ffffffffffffffffffffffffffffffffffffffff16906020019092919050505061188e565b6040518082815260200191505060405180910390f35b34801561090157600080fd5b5061090a611915565b005b34801561091857600080fd5b50610921611a70565b604051808261ffff1661ffff16815260200191505060405180910390f35b60038054600181600116156101000203166002900480601f0160208091040260200160405190810160405280929190818152602001828054600181600116156101000203166002900480156109d55780601f106109aa576101008083540402835291602001916109d5565b820191906000526020600020905b8154815290600101906020018083116109b857829003601f168201915b505050505081565b600081600260003373ffffffffffffffffffffffffffffffffffffffff1673ffffffffffffffffffffffffffffffffffffffff16815260200190815260200160002060008573ffffffffffffffffffffffffffffffffffffffff1673ffffffffffffffffffffffffffffffffffffffff168152602001908152602001600020819055508273ffffffffffffffffffffffffffffffffffffffff163373ffffffffffffffffffffffffffffffffffffffff167f8c5be1e5ebec7d5bd14f71427d1e84f3dd0314c0f7b2291e5b200ac8c7c3b925846040518082815260200191505060405180910390a36001905092915050565b60065481565b60008060009054906101000a900473ffffffffffffffffffffffffffffffffffffffff1673ffffffffffffffffffffffffffffffffffffffff168473ffffffffffffffffffffffffffffffffffffffff1614151515610b3357600080fd5b600160008573ffffffffffffffffffffffffffffffffffffffff1673ffffffffffffffffffffffffffffffffffffffff168152602001908152602001600020548211151515610b8157600080fd5b600260008573ffffffffffffffffffffffffffffffffffffffff1673ffffffffffffffffffffffffffffffffffffffff16815260200190815260200160002060003373ffffffffffffffffffffffffffffffffffffffff1673ffffffffffffffffffffffffffffffffffffffff168152602001908152602001600020548211151515610c0c57600080fd5b600073ffffffffffffffffffffffffffffffffffffffff168373ffffffffffffffffffffffffffffffffffffffff1614151515610c4857600080fd5b610c9a82600160008773ffffffffffffffffffffffffffffffffffffffff1673ffffffffffffffffffffffffffffffffffffffff16815260200190815260200160002054611a7590919063ffffffff16565b600160008673ffffffffffffffffffffffffffffffffffffffff1673ffffffffffffffffffffffffffffffffffffffff16815260200190815260200160002081905550610d2f82600160008673ffffffffffffffffffffffffffffffffffffffff1673ffffffffffffffffffffffffffffffffffffffff16815260200190815260200160002054611a8e90919063ffffffff16565b600160008573ffffffffffffffffffffffffffffffffffffffff1673ffffffffffffffffffffffffffffffffffffffff16815260200190815260200160002081905550610e0182600260008773ffffffffffffffffffffffffffffffffffffffff1673ffffffffffffffffffffffffffffffffffffffff16815260200190815260200160002060003373ffffffffffffffffffffffffffffffffffffffff1673ffffffffffffffffffffffffffffffffffffffff16815260200190815260200160002054611a7590919063ffffffff16565b600260008673ffffffffffffffffffffffffffffffffffffffff1673ffffffffffffffffffffffffffffffffffffffff16815260200190815260200160002060003373ffffffffffffffffffffffffffffffffffffffff1673ffffffffffffffffffffffffffffffffffffffff168152602001908152602001600020819055508273ffffffffffffffffffffffffffffffffffffffff168473ffffffffffffffffffffffffffffffffffffffff167fddf252ad1be2c89b69c2b068fc378daa952ba7f163c4a11628f55a4df523b3ef846040518082815260200191505060405180910390a3600190509392505050565b60055481565b600181565b600181565b604381565b601281565b600080600260003373ffffffffffffffffffffffffffffffffffffffff1673ffffffffffffffffffffffffffffffffffffffff16815260200190815260200160002060008573ffffffffffffffffffffffffffffffffffffffff1673ffffffffffffffffffffffffffffffffffffffff168152602001908152602001600020549050808310151561101d576000600260003373ffffffffffffffffffffffffffffffffffffffff1673ffffffffffffffffffffffffffffffffffffffff16815260200190815260200160002060008673ffffffffffffffffffffffffffffffffffffffff1673ffffffffffffffffffffffffffffffffffffffff168152602001908152602001600020819055506110b1565b6110308382611a7590919063ffffffff16565b600260003373ffffffffffffffffffffffffffffffffffffffff1673ffffffffffffffffffffffffffffffffffffffff16815260200190815260200160002060008673ffffffffffffffffffffffffffffffffffffffff1673ffffffffffffffffffffffffffffffffffffffff168152602001908152602001600020819055505b8373ffffffffffffffffffffffffffffffffffffffff163373ffffffffffffffffffffffffffffffffffffffff167f8c5be1e5ebec7d5bd14f71427d1e84f3dd0314c0f7b2291e5b200ac8c7c3b925600260003373ffffffffffffffffffffffffffffffffffffffff1673ffffffffffffffffffffffffffffffffffffffff16815260200190815260200160002060008873ffffffffffffffffffffffffffffffffffffffff1673ffffffffffffffffffffffffffffffffffffffff168152602001908152602001600020546040518082815260200191505060405180910390a3600191505092915050565b600181565b6000600160008373ffffffffffffffffffffffffffffffffffffffff1673ffffffffffffffffffffffffffffffffffffffff168152602001908152602001600020549050919050565b6000809054906101000a900473ffffffffffffffffffffffffffffffffffffffff1681565b33600860006101000a81548173ffffffffffffffffffffffffffffffffffffffff021916908373ffffffffffffffffffffffffffffffffffffffff160217905550565b600381565b60048054600181600116156101000203166002900480601f0160208091040260200160405190810160405280929190818152602001828054600181600116156101000203166002900480156112ee5780601f106112c3576101008083540402835291602001916112ee565b820191906000526020600020905b8154815290600101906020018083116112d157829003601f168201915b505050505081565b600181565b600381565b600860009054906101000a900473ffffffffffffffffffffffffffffffffffffffff1681565b60008060009054906101000a900473ffffffffffffffffffffffffffffffffffffffff1673ffffffffffffffffffffffffffffffffffffffff163373ffffffffffffffffffffffffffffffffffffffff161415151561138457600080fd5b600160003373ffffffffffffffffffffffffffffffffffffffff1673ffffffffffffffffffffffffffffffffffffffff1681526020019081526020016000205482111515156113d257600080fd5b600073ffffffffffffffffffffffffffffffffffffffff168373ffffffffffffffffffffffffffffffffffffffff161415151561140e57600080fd5b61146082600160003373ffffffffffffffffffffffffffffffffffffffff1673ffffffffffffffffffffffffffffffffffffffff16815260200190815260200160002054611a7590919063ffffffff16565b600160003373ffffffffffffffffffffffffffffffffffffffff1673ffffffffffffffffffffffffffffffffffffffff168152602001908152602001600020819055506114f582600160008673ffffffffffffffffffffffffffffffffffffffff1673ffffffffffffffffffffffffffffffffffffffff16815260200190815260200160002054611a8e90919063ffffffff16565b600160008573ffffffffffffffffffffffffffffffffffffffff1673ffffffffffffffffffffffffffffffffffffffff168152602001908152602001600020819055508273ffffffffffffffffffffffffffffffffffffffff163373ffffffffffffffffffffffffffffffffffffffff167fddf252ad1be2c89b69c2b068fc378daa952ba7f163c4a11628f55a4df523b3ef846040518082815260200191505060405180910390a36001905092915050565b60075481565b602181565b600061164382600260003373ffffffffffffffffffffffffffffffffffffffff1673ffffffffffffffffffffffffffffffffffffffff16815260200190815260200160002060008673ffffffffffffffffffffffffffffffffffffffff1673ffffffffffffffffffffffffffffffffffffffff16815260200190815260200160002054611a8e90919063ffffffff16565b600260003373ffffffffffffffffffffffffffffffffffffffff1673ffffffffffffffffffffffffffffffffffffffff16815260200190815260200160002060008573ffffffffffffffffffffffffffffffffffffffff1673ffffffffffffffffffffffffffffffffffffffff168152602001908152602001600020819055508273ffffffffffffffffffffffffffffffffffffffff163373ffffffffffffffffffffffffffffffffffffffff167f8c5be1e5ebec7d5bd14f71427d1e84f3dd0314c0f7b2291e5b200ac8c7c3b925600260003373ffffffffffffffffffffffffffffffffffffffff1673ffffffffffffffffffffffffffffffffffffffff16815260200190815260200160002060008773ffffffffffffffffffffffffffffffffffffffff1673ffffffffffffffffffffffffffffffffffffffff168152602001908152602001600020546040518082815260200191505060405180910390a36001905092915050565b600181565b6000809054906101000a900473ffffffffffffffffffffffffffffffffffffffff1673ffffffffffffffffffffffffffffffffffffffff163373ffffffffffffffffffffffffffffffffffffffff1614151561180e57600080fd5b600073ffffffffffffffffffffffffffffffffffffffff168173ffffffffffffffffffffffffffffffffffffffff161415151561184a57600080fd5b80600860006101000a81548173ffffffffffffffffffffffffffffffffffffffff021916908373ffffffffffffffffffffffffffffffffffffffff16021790555050565b6000600260008473ffffffffffffffffffffffffffffffffffffffff1673ffffffffffffffffffffffffffffffffffffffff16815260200190815260200160002060008373ffffffffffffffffffffffffffffffffffffffff1673ffffffffffffffffffffffffffffffffffffffff16815260200190815260200160002054905092915050565b6000809054906101000a900473ffffffffffffffffffffffffffffffffffffffff1673ffffffffffffffffffffffffffffffffffffffff163373ffffffffffffffffffffffffffffffffffffffff1614151561197057600080fd5b600073ffffffffffffffffffffffffffffffffffffffff16600860009054906101000a900473ffffffffffffffffffffffffffffffffffffffff1673ffffffffffffffffffffffffffffffffffffffff16141515156119ce57600080fd5b60003073ffffffffffffffffffffffffffffffffffffffff1631141515156119f557600080fd5b600860009054906101000a900473ffffffffffffffffffffffffffffffffffffffff1673ffffffffffffffffffffffffffffffffffffffff166108fc3073ffffffffffffffffffffffffffffffffffffffff16319081150290604051600060405180830381858888f193505050501515611a6e57600080fd5b565b603381565b6000828211151515611a8357fe5b818303905092915050565b60008183019050828110151515611aa157fe5b809050929150505600a165627a7a72305820f26c0428cf5cd0eac287b1e082d6c0ffa4248243a386ae28815fe3a443021f6c0029",
  "source": "/**\n *Submitted for verification at Etherscan.io on 2019-12-11\n*/\n\npragma solidity ^0.4.23;\n/*\n *                   \n *                      KOL Community Alliance      \n *                      \n *                        \n *         \n *    Dev:Jack Koe  Special for: KOL   20191211   \n *        \n */\n\nlibrary SafeMath {\n\n  function mul(uint256 _a, uint256 _b) internal pure returns (uint256 c) {\n    if (_a == 0) {\n      return 0;\n    }\n    c = _a * _b;\n    assert(c / _a == _b);\n    return c;\n  }\n  function div(uint256 _a, uint256 _b) internal pure returns (uint256) {\n    return _a / _b;\n  }\n  function sub(uint256 _a, uint256 _b) internal pure returns (uint256) {\n    assert(_b <= _a);\n    return _a - _b;\n  }\n  function add(uint256 _a, uint256 _b) internal pure returns (uint256 c) {\n    c = _a + _b;\n    assert(c >= _a);\n    return c;\n  }\n}\n\ncontract Ownable {\n\n  address public owner;\n  event OwnershipTransferred(\n    address indexed previousOwner,\n    address indexed newOwner\n  );\n  constructor() public {\n    owner = msg.sender;\n  }\n  modifier onlyOwner() {\n    require(msg.sender == owner);\n    _;\n  }\n  function _transferOwnership(address _newOwner) internal {\n    require(_newOwner != address(0));\n    emit OwnershipTransferred(owner, _newOwner);\n    owner = _newOwner;\n  }\n}\n\ncontract ERC20Basic {\n  function balanceOf(address _who) public view returns (uint256);\n  function transfer(address _to, uint256 _value) public returns (bool);\n  event Transfer(address indexed from, address indexed to, uint256 value);\n}\n\ncontract ERC20 is ERC20Basic {\n  function allowance(address _owner, address _spender)\n    public view returns (uint256);\n\n  function transferFrom(address _from, address _to, uint256 _value)\n    public returns (bool);\n\n  function approve(address _spender, uint256 _value) public returns (bool);\n  event Approval(\n    address indexed owner,\n    address indexed spender,\n    uint256 value\n  );\n}\n\ncontract BasicToken is Ownable,ERC20Basic {\n  using SafeMath for uint256;\n\n  mapping(address => uint256) internal balances;\n\n  function transfer(address _to, uint256 _value) public returns (bool) {\n    require(msg.sender != owner);\n    require(_value <= balances[msg.sender]);\n    require(_to != address(0));\n\n    balances[msg.sender] = balances[msg.sender].sub(_value);\n    balances[_to] = balances[_to].add(_value);\n    emit Transfer(msg.sender, _to, _value);\n    return true;\n  }\n  function balanceOf(address _owner) public view returns (uint256) {\n    return balances[_owner];\n  }\n}\n\ncontract StandardToken is ERC20, BasicToken {\n\n  mapping (address => mapping (address => uint256)) internal allowed;\n\n  function transferFrom(\n    address _from,\n    address _to,\n    uint256 _value\n  )\n    public\n    returns (bool)\n  {\n    require(_from != owner);\n    require(_value <= balances[_from]);\n    require(_value <= allowed[_from][msg.sender]);\n    require(_to != address(0));\n\n    balances[_from] = balances[_from].sub(_value);\n    balances[_to] = balances[_to].add(_value);\n    allowed[_from][msg.sender] = allowed[_from][msg.sender].sub(_value);\n    emit Transfer(_from, _to, _value);\n    return true;\n  }\n  function approve(address _spender, uint256 _value) public returns (bool) {\n    allowed[msg.sender][_spender] = _value;\n    emit Approval(msg.sender, _spender, _value);\n    return true;\n  }\n  function allowance(\n    address _owner,\n    address _spender\n   )\n    public\n    view\n    returns (uint256)\n  {\n    return allowed[_owner][_spender];\n  }\n\n  function increaseApproval(\n    address _spender,\n    uint256 _addedValue\n  )\n    public\n    returns (bool)\n  {\n    allowed[msg.sender][_spender] = (\n      allowed[msg.sender][_spender].add(_addedValue));\n    emit Approval(msg.sender, _spender, allowed[msg.sender][_spender]);\n    return true;\n  }\n\n  function decreaseApproval(\n    address _spender,\n    uint256 _subtractedValue\n  )\n    public\n    returns (bool)\n  {\n    uint256 oldValue = allowed[msg.sender][_spender];\n    if (_subtractedValue >= oldValue) {\n      allowed[msg.sender][_spender] = 0;\n    } else {\n      allowed[msg.sender][_spender] = oldValue.sub(_subtractedValue);\n    }\n    emit Approval(msg.sender, _spender, allowed[msg.sender][_spender]);\n    return true;\n  }\n\n}\n\ncontract KOL is StandardToken{\n    using SafeMath for uint256;\n\n    uint256 public constant TOKEN_DECIMALS = 18;\n\n    string public name = \"KOL Community Alliance\";\n    string public symbol = \"KOL\";\n    uint256 public decimals = TOKEN_DECIMALS;\n    uint256 public totalSupply = 21000000 *(10**uint256(TOKEN_DECIMALS));\n\n    uint256 public totalSupplyed = 0;\n    address public ethFundDeposit;\n\n    /* uint16 public constant totalSuperNodes = 21;\n    uint16 public constant totalNodes = 500;\n    uint16 public constant halfSuperNodes = 11;\n    uint16 public constant mostNodes = 335;\n    uint16 public constant halfNodes = 251;\n    uint16 public constant minSuperNodes = 15;\n    uint16 public constant minNodes = 101; */\n    //test\n    uint16 public constant totalSuperNodes = 3;\n    uint16 public constant totalNodes = 3;\n    uint16 public constant halfSuperNodes = 1;\n    uint16 public constant mostNodes = 1;\n    uint16 public constant halfNodes = 1;\n    uint16 public constant minSuperNodes = 1;\n    uint16 public constant minNodes = 1;\n\n    uint16 public constant most = 67;\n    uint16 public constant half = 51;\n    uint16 public constant less = 33;\n\n    function construct() public {\n        ethFundDeposit = msg.sender;\n    }\n    function setEthFundDeposit(address _ethFundDeposit) onlyOwner public {\n        require(_ethFundDeposit != address(0));\n        ethFundDeposit = _ethFundDeposit;\n    }\n\n    function transferETH() onlyOwner public {\n        require(ethFundDeposit != address(0));\n        require(address(this).balance != 0);\n        require(ethFundDeposit.send(address(this).balance));\n    }\n    function isOwner() internal view returns(bool success) {\n        if (msg.sender == owner) return true;\n        return false;\n    }\n}\n\ncontract KOLVote is KOL {\n\n    uint256 public constant totalNodeSupply = 5000000 *(10**uint256(TOKEN_DECIMALS));\n    uint256 public constant totalUserSupply = 16000000 *(10**uint256(TOKEN_DECIMALS));\n    uint256 public nodeSupplyed = 0;\n    uint256 public userSupplyed = 0;\n\n    uint256 public superNodesNum = 0;\n    uint256 public nodesNum = 0;\n    uint256 public dealTime =  3 days;\n    uint256 public missionId = 0;\n\n    mapping(address => bool) private isSuperNode;\n    mapping(address => bool) private isNode;\n    mapping(address => mapping(uint256 => bool)) private Voter;\n\n\n    event MissionPassed(uint256 _missionId,bytes32 _name);\n    event OfferingFinished(uint256 _missionId,uint256 _totalAmount,uint256 _length);\n    event RecycleTokens(uint256 _missionId,uint256 _totalAmount);\n    event NodeChanged(uint16 _type,address _oldNode,address _newNode);\n    event MissionLaunched(bytes32 _name,uint256 _missionId,address _whoLaunch);\n    event Burn(address indexed burner, uint256 value);\n\n    function burn(uint256 _value) internal {\n      require(_value <= balances[owner]);\n      require(_value <= totalSupply);\n      balances[owner] = balances[owner].sub(_value);\n      totalSupply = totalSupply.sub(_value);\n      emit Burn(owner, _value);\n      emit Transfer(owner, address(0), _value);\n    }\n\n    modifier onlySuperNode() {\n      require(isSuperNode[msg.sender]);\n        _;\n    }\n    modifier onlyNode() {\n        require(isNode[msg.sender]);\n        _;\n    }\n    modifier onlyNodes() {\n        require(isSuperNode[msg.sender]||isNode[msg.sender]);\n        _;\n    }\n\n    function setSuperNode(address superNodeAddress) onlyOwner public{\n      require(!isSuperNode[superNodeAddress]);\n      require(superNodesNum < totalSuperNodes);\n      isSuperNode[superNodeAddress] = true;\n      superNodesNum++;\n    }\n\n    function setNode(address nodeAddress) onlyOwner public{\n      require(!isNode[nodeAddress]);\n      require(nodesNum < totalNodes);\n      isNode[nodeAddress] = true;\n      nodesNum++;\n\n    }\n\n    function querySuperNode(address _addr) public view returns(bool){\n      return(isSuperNode[_addr]);\n    }\n    function queryNode(address _addr) public view returns(bool){\n      return(isNode[_addr]);\n    }\n    /***************************************************/\n    /*       KOL Vote Code Begin here                  */\n    /***************************************************/\n\n    struct KolMission{\n      address oldNode;\n      address newNode;\n      uint256 startTime;\n      uint256 endTime;\n      uint256 totalAmount;\n      uint256 offeringAmount;\n      bytes32 name;\n      uint16 agreeNodes;\n      uint16 refuseNodes;\n      uint16 agreeSuperNodes;\n      uint16 refuseSuperNodes;\n      bool superPassed;\n      bool nodePassed;\n      bool done;\n    }\n    mapping (uint256 => KolMission) private missionList;\n\n    struct KolOffering{\n      address target;\n      uint256 targetAmount;\n    }\n    KolOffering[] private kolOfferings;\n\n    mapping(uint256 => KolOffering[]) private offeringList;\n\n    //_type:1,change supernode;2,change node;3,changeowner;4,mission launched;6,creation issuing;7,recycle token from owner\n    function createKolMission(uint16 _type,bytes32 _name,uint256 _totalAmount,address _oldNode,address _newNode) onlyNodes public {\n        bytes32 iName = _name;\n        if (_type == 2){\n          require(isSuperNode[msg.sender]);\n          iName = \"CHANGE NODE\";\n        }else if (_type == 3){\n          iName = \"CHANGE OWNER\";\n        }else if (_type == 1){\n          require(isNode[msg.sender]);\n          iName = \"CHANGE SUPER NODE\";\n        }else if ((_type ==4)){\n          require((_totalAmount + userSupplyed) <= totalUserSupply);\n        }else if (_type ==6){\n          require((_totalAmount + nodeSupplyed) <= totalNodeSupply);\n          iName = \"CREATION ISSUING\";\n        }else if (_type ==7){\n          iName = \"RECYCLE TOKEN FROM OWNER\";\n        }\n        missionList[missionId] = KolMission(_oldNode,\n                                            _newNode,\n                                            uint256(now),\n                                            uint256(now + dealTime),\n                                            _totalAmount,\n                                            0,\n                                            iName,\n                                            0,\n                                            0,\n                                            0,\n                                            0,\n                                            false,\n                                            false,\n                                            false);\n\n        missionId++;\n        emit MissionLaunched(iName,missionId-1,msg.sender);\n    }\n    function addKolOffering(uint256 _missionId,address _target,uint256 _targetAmount) onlyNodes public{\n      require(missionList[_missionId].superPassed);\n      require(!missionList[_missionId].done);\n      if (missionList[_missionId].name == \"CREATION ISSUING\"){\n        require(isNode[_target]||isSuperNode[_target]);\n      }\n      require(missionList[_missionId].offeringAmount.add(_targetAmount) <= missionList[_missionId].totalAmount);\n      offeringList[_missionId].push(KolOffering(_target,_targetAmount));\n      missionList[_missionId].offeringAmount = missionList[_missionId].offeringAmount.add(_targetAmount);\n\n    }\n    function missionPassed(uint256 _missionId) private {\n      if ((missionList[_missionId].name != \"CHANGE SUPER NODE\") &&\n              (missionList[_missionId].name != \"CHANGE NODE\") &&\n              (missionList[_missionId].name != \"CHANGE OWNER\") &&\n              (missionList[_missionId].name != \"RECYCLE TOKEN FROM OWNER\")){\n          emit MissionPassed(_missionId,missionList[_missionId].name);\n        }\n\n    }\n    //once voting passed,excute auto;\n    function excuteAuto(uint256 _missionId) private {\n      if ((missionList[_missionId].name == \"CHANGE NODE\") && missionList[_missionId].superPassed){\n        require(isNode[missionList[_missionId].oldNode]);\n        require(!isSuperNode[missionList[_missionId].newNode]);\n        isNode[missionList[_missionId].oldNode] = false;\n        isNode[missionList[_missionId].newNode] = true;\n        missionList[_missionId].done = true;\n        emit NodeChanged(2,missionList[_missionId].oldNode,missionList[_missionId].newNode);\n      }else if ((missionList[_missionId].name == \"CHANGE SUPER NODE\") && missionList[_missionId].nodePassed){\n        require(isSuperNode[missionList[_missionId].oldNode]);\n        require(!isSuperNode[missionList[_missionId].newNode]);\n        isSuperNode[missionList[_missionId].oldNode] = false;\n        isSuperNode[missionList[_missionId].newNode] = true;\n        missionList[_missionId].done = true;\n        emit NodeChanged(1,missionList[_missionId].oldNode,missionList[_missionId].newNode);\n      }else if ((missionList[_missionId].name == \"CHANGE OWNER\") && missionList[_missionId].nodePassed){\n        emit NodeChanged(3,owner,missionList[_missionId].newNode);\n        _transferOwnership(missionList[_missionId].newNode);\n        missionList[_missionId].done = true;\n      }else if ((missionList[_missionId].name == \"RECYCLE TOKEN FROM OWNER\") && missionList[_missionId].nodePassed){\n        burn(missionList[_missionId].totalAmount);\n        emit RecycleTokens(_missionId,missionList[_missionId].totalAmount);\n        missionList[_missionId].done = true;\n      }\n    }\n    //_type,1,supernode;2,node\n    function voteMission(uint16 _type,uint256 _missionId,bool _agree) onlyNodes public{\n      require(!Voter[msg.sender][_missionId]);\n      require(!missionList[_missionId].done);\n      uint16 minNodesNum = minNodes;\n      uint16 minSuperNodesNum = minSuperNodes;\n      uint16 passNodes = halfNodes;\n      uint16 passSuperNodes = halfSuperNodes;\n      uint16 rate = half;\n      if (missionList[_missionId].name == \"CHANGE OWNER\") {\n        rate = most;\n        minNodesNum = totalNodes;\n        passNodes = mostNodes;\n      }else if (missionList[_missionId].name == \"CHANGE NODE\"){\n        rate = less;\n        minSuperNodesNum = minSuperNodes;\n        passSuperNodes = halfSuperNodes;\n      }else if (missionList[_missionId].name == \"CHANGE SUPER NODE\"){\n        rate = less;\n        minNodesNum = minNodes;\n        passNodes = halfNodes;\n      }else if (missionList[_missionId].name == \"CREATION ISSUING\"){\n        minNodesNum = minNodes;\n        passNodes = halfNodes;\n        minSuperNodesNum = minSuperNodes;\n        passSuperNodes = halfSuperNodes;\n      }else if (missionList[_missionId].name == \"RECYCLE TOKEN FROM OWNER\"){\n        minNodesNum = minNodes;\n        passNodes = halfNodes;\n      }\n\n      if (_type == 1){\n        require(isSuperNode[msg.sender]);\n      }else if (_type ==2){\n        require(isNode[msg.sender]);\n      }\n\n      if(now > missionList[_missionId].endTime){\n        if ( _type == 1 ){\n          if (\n            (missionList[_missionId].agreeSuperNodes + missionList[_missionId].refuseSuperNodes)>=minSuperNodesNum\n            &&\n            missionList[_missionId].agreeSuperNodes >= (missionList[_missionId].agreeSuperNodes + missionList[_missionId].refuseSuperNodes) * rate/100\n            ){\n              missionList[_missionId].superPassed = true;\n              missionPassed(_missionId);\n          }\n        }else if (_type ==2 ){\n          //\n          if (\n            (missionList[_missionId].agreeNodes + missionList[_missionId].refuseNodes)>=minNodesNum\n            &&\n            missionList[_missionId].agreeNodes >= (missionList[_missionId].refuseNodes + missionList[_missionId].refuseNodes) * rate/100\n            ){\n              missionList[_missionId].nodePassed = true;\n          }\n        }\n      }else{\n        if(_agree == true){\n          if (_type == 1){\n            missionList[_missionId].agreeSuperNodes++;\n          }else if(_type == 2){\n            missionList[_missionId].agreeNodes++;\n          }\n        }\n        else{\n          if (_type == 1){\n            missionList[_missionId].refuseSuperNodes++;\n          }else if(_type == 2){\n            missionList[_missionId].refuseNodes++;\n          }\n        }\n        if (_type == 1){\n          if (missionList[_missionId].agreeSuperNodes >= passSuperNodes) {\n              missionList[_missionId].superPassed = true;\n              missionPassed(_missionId);\n          }else if (missionList[_missionId].refuseSuperNodes >= passSuperNodes) {\n              missionList[_missionId].done = true;\n          }\n        }else if (_type ==2){\n          if (missionList[_missionId].agreeNodes >= passNodes) {\n              missionList[_missionId].nodePassed = true;\n          }else if (missionList[_missionId].refuseNodes >= passNodes) {\n              missionList[_missionId].done = true;\n          }\n        }\n      }\n      Voter[msg.sender][_missionId] = true;\n      excuteAuto(_missionId);\n    }\n\n    function excuteVote(uint256 _missionId) onlyOwner public {\n      require(!missionList[_missionId].done);\n      require(uint256(now) < (missionList[_missionId].endTime + uint256(dealTime)));\n\n      require(missionList[_missionId].superPassed);\n      require(missionList[_missionId].nodePassed);\n      require(missionList[_missionId].totalAmount == missionList[_missionId].offeringAmount);\n      require((missionList[_missionId].totalAmount.add(totalSupplyed))<=totalNodeSupply.add(totalUserSupply));\n\n      if (missionList[_missionId].name == \"CREATION ISSUING\"){\n        require((nodeSupplyed.add(missionList[_missionId].totalAmount))<=totalNodeSupply);\n      }else{\n        require((userSupplyed.add(missionList[_missionId].totalAmount))<=totalUserSupply);\n      }\n      for (uint m = 0; m < offeringList[_missionId].length; m++){\n        balances[offeringList[_missionId][m].target] = balances[offeringList[_missionId][m].target].add(offeringList[_missionId][m].targetAmount);\n        emit Transfer(msg.sender,offeringList[_missionId][m].target,offeringList[_missionId][m].targetAmount);\n      }\n      totalSupplyed = totalSupplyed.add(missionList[_missionId].totalAmount);\n\n      if (missionList[_missionId].name == \"CREATION ISSUING\"){\n        nodeSupplyed = nodeSupplyed.add(missionList[_missionId].totalAmount);\n      }else{\n        userSupplyed = userSupplyed.add(missionList[_missionId].totalAmount);\n      }\n      missionList[_missionId].done = true;\n      emit OfferingFinished(_missionId,missionList[_missionId].offeringAmount,offeringList[_missionId].length);\n\n    }\n    function getMission1(uint256 _missionId) public view returns(address,\n                                                              address,\n                                                              uint256,\n                                                              uint256,\n                                                              uint256,\n                                                              uint256,\n                                                              bytes32){\n      return(missionList[_missionId].oldNode,\n              missionList[_missionId].newNode,\n              missionList[_missionId].startTime,\n              missionList[_missionId].endTime,\n              missionList[_missionId].totalAmount,\n              missionList[_missionId].offeringAmount,\n              missionList[_missionId].name);\n    }\n    function getMission2(uint256 _missionId) public view returns(uint16,\n                                                                uint16,\n                                                                uint16,\n                                                                uint16,\n                                                                bool,\n                                                                bool,\n                                                                bool){\n      return(\n            missionList[_missionId].agreeNodes,\n            missionList[_missionId].refuseNodes,\n            missionList[_missionId].agreeSuperNodes,\n            missionList[_missionId].refuseSuperNodes,\n            missionList[_missionId].superPassed,\n            missionList[_missionId].nodePassed,\n            missionList[_missionId].done);\n    }\n    function getOfferings(uint256 _missionId,uint256 _id) public view returns(address,uint256,uint256){\n      return(offeringList[_missionId][_id].target,offeringList[_missionId][_id].targetAmount,offeringList[_missionId].length);\n    }\n    function voted(address _node,uint256 _missionId) public view returns(bool){\n      return Voter[_node][_missionId];\n    }\n}\n",
  "sourcePath": "/Users/jack/git/github/KOL/contracts/kol.sol",
  "compiler": {
    "name": "solc",
    "version": "0.4.23+commit.124ca40d.Emscripten.clang"
  },
  "schemaVersion": "3.0.19",
  "updatedAt": "2020-04-22T06:01:50.926Z",
  "devdoc": {
    "methods": {}
  },
  "userdoc": {
    "methods": {}
  }
}