{
  "contractName": "KOLCoreTeam",
  "abi": [
    {
      "constant": true,
      "inputs": [],
      "name": "coreNum",
      "outputs": [
        {
          "name": "",
          "type": "uint8"
        }
      ],
      "payable": false,
      "stateMutability": "view",
      "type": "function"
    },
    {
      "constant": true,
      "inputs": [],
      "name": "settedCoreNum",
      "outputs": [
        {
          "name": "",
          "type": "uint8"
        }
      ],
      "payable": false,
      "stateMutability": "view",
      "type": "function"
    },
    {
      "constant": true,
      "inputs": [],
      "name": "owner",
      "outputs": [
        {
          "name": "",
          "type": "address"
        }
      ],
      "payable": false,
      "stateMutability": "view",
      "type": "function"
    },
    {
      "constant": true,
      "inputs": [
        {
          "name": "",
          "type": "address"
        }
      ],
      "name": "CoreTeamReleased",
      "outputs": [
        {
          "name": "",
          "type": "uint256"
        }
      ],
      "payable": false,
      "stateMutability": "view",
      "type": "function"
    },
    {
      "constant": false,
      "inputs": [
        {
          "name": "newOwner",
          "type": "address"
        }
      ],
      "name": "transferOwnership",
      "outputs": [],
      "payable": false,
      "stateMutability": "nonpayable",
      "type": "function"
    },
    {
      "constant": true,
      "inputs": [],
      "name": "token",
      "outputs": [
        {
          "name": "",
          "type": "address"
        }
      ],
      "payable": false,
      "stateMutability": "view",
      "type": "function"
    },
    {
      "inputs": [
        {
          "name": "_tokenAddress",
          "type": "address"
        }
      ],
      "payable": false,
      "stateMutability": "nonpayable",
      "type": "constructor"
    },
    {
      "constant": false,
      "inputs": [
        {
          "name": "_coreAddr",
          "type": "address"
        },
        {
          "name": "_rate",
          "type": "uint8"
        }
      ],
      "name": "setCoreAddr",
      "outputs": [],
      "payable": false,
      "stateMutability": "nonpayable",
      "type": "function"
    },
    {
      "constant": false,
      "inputs": [
        {
          "name": "_newCoreAddr",
          "type": "address"
        }
      ],
      "name": "changeCoreAddr",
      "outputs": [],
      "payable": false,
      "stateMutability": "nonpayable",
      "type": "function"
    },
    {
      "constant": false,
      "inputs": [
        {
          "name": "_amount",
          "type": "uint256"
        }
      ],
      "name": "releaseKOL",
      "outputs": [],
      "payable": false,
      "stateMutability": "nonpayable",
      "type": "function"
    },
    {
      "constant": true,
      "inputs": [
        {
          "name": "_coreAddr",
          "type": "address"
        }
      ],
      "name": "queryCore",
      "outputs": [
        {
          "name": "",
          "type": "bool"
        },
        {
          "name": "",
          "type": "uint8"
        }
      ],
      "payable": false,
      "stateMutability": "view",
      "type": "function"
    },
    {
      "constant": true,
      "inputs": [
        {
          "name": "_coreAddr",
          "type": "address"
        }
      ],
      "name": "queryCoreReleased",
      "outputs": [
        {
          "name": "",
          "type": "uint256"
        }
      ],
      "payable": false,
      "stateMutability": "view",
      "type": "function"
    }
  ],
  "bytecode": "0x60806040526000600560006101000a81548160ff021916908360ff16021790555034801561002c57600080fd5b50604051602080610eda83398101806040528101908080519060200190929190505050336000806101000a81548173ffffffffffffffffffffffffffffffffffffffff021916908373ffffffffffffffffffffffffffffffffffffffff16021790555080600160006101000a81548173ffffffffffffffffffffffffffffffffffffffff021916908373ffffffffffffffffffffffffffffffffffffffff16021790555050610dfa806100e06000396000f3006080604052600436106100af576000357c0100000000000000000000000000000000000000000000000000000000900463ffffffff1680632dc6b499146100b45780632fa1a383146100e55780634d0fc6f01461013c5780638da5cb5b1461016d57806393231f90146101c45780639e0db3fb14610207578063caf7bd9c14610234578063dc570ad91461029c578063f0b8d0c2146102f3578063f2fde38b14610343578063fc0c546a14610386575b600080fd5b3480156100c057600080fd5b506100c96103dd565b604051808260ff1660ff16815260200191505060405180910390f35b3480156100f157600080fd5b50610126600480360381019080803573ffffffffffffffffffffffffffffffffffffffff1690602001909291905050506103e2565b6040518082815260200191505060405180910390f35b34801561014857600080fd5b5061015161042b565b604051808260ff1660ff16815260200191505060405180910390f35b34801561017957600080fd5b5061018261043e565b604051808273ffffffffffffffffffffffffffffffffffffffff1673ffffffffffffffffffffffffffffffffffffffff16815260200191505060405180910390f35b3480156101d057600080fd5b50610205600480360381019080803573ffffffffffffffffffffffffffffffffffffffff169060200190929190505050610463565b005b34801561021357600080fd5b5061023260048036038101908080359060200190929190505050610695565b005b34801561024057600080fd5b50610275600480360381019080803573ffffffffffffffffffffffffffffffffffffffff169060200190929190505050610a12565b60405180831515151581526020018260ff1660ff1681526020019250505060405180910390f35b3480156102a857600080fd5b506102dd600480360381019080803573ffffffffffffffffffffffffffffffffffffffff169060200190929190505050610ab8565b6040518082815260200191505060405180910390f35b3480156102ff57600080fd5b50610341600480360381019080803573ffffffffffffffffffffffffffffffffffffffff169060200190929190803560ff169060200190929190505050610ad0565b005b34801561034f57600080fd5b50610384600480360381019080803573ffffffffffffffffffffffffffffffffffffffff169060200190929190505050610c35565b005b34801561039257600080fd5b5061039b610d0a565b604051808273ffffffffffffffffffffffffffffffffffffffff1673ffffffffffffffffffffffffffffffffffffffff16815260200191505060405180910390f35b600381565b6000600260008373ffffffffffffffffffffffffffffffffffffffff1673ffffffffffffffffffffffffffffffffffffffff168152602001908152602001600020549050919050565b600560009054906101000a900460ff1681565b6000809054906101000a900473ffffffffffffffffffffffffffffffffffffffff1681565b600360003373ffffffffffffffffffffffffffffffffffffffff1673ffffffffffffffffffffffffffffffffffffffff16815260200190815260200160002060009054906101000a900460ff1615156104bb57600080fd5b6001600360008373ffffffffffffffffffffffffffffffffffffffff1673ffffffffffffffffffffffffffffffffffffffff16815260200190815260200160002060006101000a81548160ff021916908315150217905550600460003373ffffffffffffffffffffffffffffffffffffffff1673ffffffffffffffffffffffffffffffffffffffff16815260200190815260200160002060009054906101000a900460ff16600460008373ffffffffffffffffffffffffffffffffffffffff1673ffffffffffffffffffffffffffffffffffffffff16815260200190815260200160002060006101000a81548160ff021916908360ff1602179055506000600360003373ffffffffffffffffffffffffffffffffffffffff1673ffffffffffffffffffffffffffffffffffffffff16815260200190815260200160002060006101000a81548160ff021916908315150217905550600260003373ffffffffffffffffffffffffffffffffffffffff1673ffffffffffffffffffffffffffffffffffffffff16815260200190815260200160002054600260008373ffffffffffffffffffffffffffffffffffffffff1673ffffffffffffffffffffffffffffffffffffffff1681526020019081526020016000208190555050565b6000600360003373ffffffffffffffffffffffffffffffffffffffff1673ffffffffffffffffffffffffffffffffffffffff16815260200190815260200160002060009054906101000a900460ff1615156106ef57600080fd5b600160009054906101000a900473ffffffffffffffffffffffffffffffffffffffff1673ffffffffffffffffffffffffffffffffffffffff166389df13a96040518163ffffffff167c0100000000000000000000000000000000000000000000000000000000028152600401602060405180830381600087803b15801561077557600080fd5b505af1158015610789573d6000803e3d6000fd5b505050506040513d602081101561079f57600080fd5b810190808051906020019092919050505090506108276064610819600460003373ffffffffffffffffffffffffffffffffffffffff1673ffffffffffffffffffffffffffffffffffffffff16815260200190815260200160002060009054906101000a900460ff1660ff1684610d3090919063ffffffff16565b610d6690919063ffffffff16565b61088f600a60ff1661088185600260003373ffffffffffffffffffffffffffffffffffffffff1673ffffffffffffffffffffffffffffffffffffffff16815260200190815260200160002054610dad90919063ffffffff16565b610d3090919063ffffffff16565b1115151561089c57600080fd5b600160009054906101000a900473ffffffffffffffffffffffffffffffffffffffff1673ffffffffffffffffffffffffffffffffffffffff1663a9059cbb33846040518363ffffffff167c0100000000000000000000000000000000000000000000000000000000028152600401808373ffffffffffffffffffffffffffffffffffffffff1673ffffffffffffffffffffffffffffffffffffffff16815260200182815260200192505050600060405180830381600087803b15801561096157600080fd5b505af1158015610975573d6000803e3d6000fd5b505050506109cb82600260003373ffffffffffffffffffffffffffffffffffffffff1673ffffffffffffffffffffffffffffffffffffffff16815260200190815260200160002054610dad90919063ffffffff16565b600260003373ffffffffffffffffffffffffffffffffffffffff1673ffffffffffffffffffffffffffffffffffffffff168152602001908152602001600020819055505050565b600080600360008473ffffffffffffffffffffffffffffffffffffffff1673ffffffffffffffffffffffffffffffffffffffff16815260200190815260200160002060009054906101000a900460ff16600460008573ffffffffffffffffffffffffffffffffffffffff1673ffffffffffffffffffffffffffffffffffffffff16815260200190815260200160002060009054906101000a900460ff1691509150915091565b60026020528060005260406000206000915090505481565b6000809054906101000a900473ffffffffffffffffffffffffffffffffffffffff1673ffffffffffffffffffffffffffffffffffffffff163373ffffffffffffffffffffffffffffffffffffffff16141515610b2b57600080fd5b600360ff16600560009054906101000a900460ff1660ff16101515610b4f57600080fd5b6001600360008473ffffffffffffffffffffffffffffffffffffffff1673ffffffffffffffffffffffffffffffffffffffff16815260200190815260200160002060006101000a81548160ff02191690831515021790555080600460008473ffffffffffffffffffffffffffffffffffffffff1673ffffffffffffffffffffffffffffffffffffffff16815260200190815260200160002060006101000a81548160ff021916908360ff1602179055506005600081819054906101000a900460ff168092919060010191906101000a81548160ff021916908360ff160217905550505050565b6000809054906101000a900473ffffffffffffffffffffffffffffffffffffffff1673ffffffffffffffffffffffffffffffffffffffff163373ffffffffffffffffffffffffffffffffffffffff16141515610c9057600080fd5b600073ffffffffffffffffffffffffffffffffffffffff168173ffffffffffffffffffffffffffffffffffffffff16141515610d0757806000806101000a81548173ffffffffffffffffffffffffffffffffffffffff021916908373ffffffffffffffffffffffffffffffffffffffff1602179055505b50565b600160009054906101000a900473ffffffffffffffffffffffffffffffffffffffff1681565b60008082840290506000841480610d515750828482811515610d4e57fe5b04145b1515610d5c57600080fd5b8091505092915050565b600080600083111515610d7857600080fd5b8284811515610d8357fe5b0490508284811515610d9157fe5b068184020184141515610da357600080fd5b8091505092915050565b6000808284019050838110151515610dc457600080fd5b80915050929150505600a165627a7a72305820967bce3d94120a84d067d07a8777ce9676d9e41568402bffa5822fadfd4b514d0029",
  "source": "pragma solidity ^0.4.23;\n\n/**\n * @title KOL Core Team Release Contract\n * @dev visit: https://github.com/jackoelv/KOL/\n*/\n\n\nlibrary SafeMath {\n  function mul(uint a, uint b) internal pure  returns (uint) {\n    uint c = a * b;\n    require(a == 0 || c / a == b);\n    return c;\n  }\n  function div(uint a, uint b) internal pure returns (uint) {\n    require(b > 0);\n    uint c = a / b;\n    require(a == b * c + a % b);\n    return c;\n  }\n  function sub(uint a, uint b) internal pure returns (uint) {\n    require(b <= a);\n    return a - b;\n  }\n  function add(uint a, uint b) internal pure returns (uint) {\n    uint c = a + b;\n    require(c >= a);\n    return c;\n  }\n  function max64(uint64 a, uint64 b) internal  pure returns (uint64) {\n    return a >= b ? a : b;\n  }\n  function min64(uint64 a, uint64 b) internal  pure returns (uint64) {\n    return a < b ? a : b;\n  }\n  function max256(uint256 a, uint256 b) internal  pure returns (uint256) {\n    return a >= b ? a : b;\n  }\n  function min256(uint256 a, uint256 b) internal  pure returns (uint256) {\n    return a < b ? a : b;\n  }\n}\n\n/**\n * @title KOL Core Team Release Contract\n * @dev visit: https://github.com/jackoelv/KOL/\n*/\n\ncontract ERC20Basic {\n  uint public totalSupply;\n  function balanceOf(address who) public constant returns (uint);\n  function transfer(address to, uint value) public;\n  event Transfer(address indexed from, address indexed to, uint value);\n}\n\ncontract ERC20 is ERC20Basic {\n  function allowance(address owner, address spender) public constant returns (uint);\n  function transferFrom(address from, address to, uint value) public;\n  function approve(address spender, uint value) public;\n  event Approval(address indexed owner, address indexed spender, uint value);\n}\n\n/**\n * @title KOL Core Team Release Contract\n * @dev visit: https://github.com/jackoelv/KOL/\n*/\n\ncontract BasicToken is ERC20Basic {\n\n  using SafeMath for uint;\n\n  mapping(address => uint) balances;\n\n  function transfer(address _to, uint _value) public{\n    balances[msg.sender] = balances[msg.sender].sub(_value);\n    balances[_to] = balances[_to].add(_value);\n    emit Transfer(msg.sender, _to, _value);\n  }\n\n  function balanceOf(address _owner) public constant returns (uint balance) {\n    return balances[_owner];\n  }\n}\n\n/**\n * @title KOL Core Team Release Contract\n * @dev visit: https://github.com/jackoelv/KOL/\n*/\n\ncontract StandardToken is BasicToken, ERC20 {\n  mapping (address => mapping (address => uint)) allowed;\n  uint256 public userSupplyed;\n\n  function transferFrom(address _from, address _to, uint _value) public {\n    balances[_to] = balances[_to].add(_value);\n    balances[_from] = balances[_from].sub(_value);\n    allowed[_from][msg.sender] = allowed[_from][msg.sender].sub(_value);\n    emit Transfer(_from, _to, _value);\n  }\n\n  function approve(address _spender, uint _value) public{\n    require((_value == 0) || (allowed[msg.sender][_spender] == 0)) ;\n    allowed[msg.sender][_spender] = _value;\n    emit Approval(msg.sender, _spender, _value);\n  }\n\n  function allowance(address _owner, address _spender) public constant returns (uint remaining) {\n    return allowed[_owner][_spender];\n  }\n}\n\n/**\n * @title KOL Core Team Release Contract\n * @dev visit: https://github.com/jackoelv/KOL/\n*/\n\ncontract Ownable {\n    address public owner;\n\n    constructor() public{\n        owner = msg.sender;\n    }\n\n    modifier onlyOwner {\n        require(msg.sender == owner);\n        _;\n    }\n    function transferOwnership(address newOwner) onlyOwner public{\n        if (newOwner != address(0)) {\n            owner = newOwner;\n        }\n    }\n}\n\n/**\n * @title KOL Core Team Release Contract\n * @dev visit: https://github.com/jackoelv/KOL/\n*/\ncontract KOLCoreTeam is Ownable{\n    using SafeMath for uint256;\n\n    StandardToken public token;\n    mapping (address => uint256) public CoreTeamReleased;\n    mapping (address => bool) private CoreAddr;\n    mapping (address => uint8) private CoreRate;\n\n    uint8 private constant rate = 10;\n    uint8 public constant coreNum = 3;\n    uint8 public settedCoreNum = 0;\n\n    constructor(address _tokenAddress) public {\n      token = StandardToken(_tokenAddress);\n    }\n\n    modifier onlyCore {\n        require(CoreAddr[msg.sender]);\n        _;\n    }\n    function setCoreAddr(address _coreAddr,uint8 _rate) onlyOwner public {\n      require(settedCoreNum < coreNum);\n      CoreAddr[_coreAddr] = true;\n      CoreRate[_coreAddr] = _rate;\n      settedCoreNum ++;\n    }\n    function changeCoreAddr(address _newCoreAddr) onlyCore public {\n      CoreAddr[_newCoreAddr] = true;\n      CoreRate[_newCoreAddr] = CoreRate[msg.sender];\n      CoreAddr[msg.sender] = false;\n      CoreTeamReleased[_newCoreAddr] = CoreTeamReleased[msg.sender];\n    }\n\n    function releaseKOL(uint256 _amount) onlyCore public {\n      uint256 userSupplyed = token.userSupplyed();\n      require( (CoreTeamReleased[msg.sender].add(_amount)).mul(rate) <=\n                  (userSupplyed.mul(CoreRate[msg.sender])).div(100));\n      token.transfer(msg.sender, _amount);\n      CoreTeamReleased[msg.sender] = CoreTeamReleased[msg.sender].add(_amount);\n    }\n    function queryCore(address _coreAddr) public view returns (bool,uint8){\n      return(CoreAddr[_coreAddr],CoreRate[_coreAddr]);\n    }\n    function queryCoreReleased(address _coreAddr) public view returns (uint256) {\n      return(CoreTeamReleased[_coreAddr]);\n    }\n\n}\n",
  "sourcePath": "/Users/jack/git/github/KOL/contracts/KOLCoreTeam.sol",
  "compiler": {
    "name": "solc",
    "version": "0.4.23+commit.124ca40d.Emscripten.clang"
  },
  "schemaVersion": "3.0.19",
  "updatedAt": "2020-02-16T01:50:55.998Z",
  "devdoc": {
    "methods": {},
    "title": "KOL Core Team Release Contract"
  },
  "userdoc": {
    "methods": {}
  }
}