{
  "contractName": "KOLLockNode",
  "abi": [
    {
      "constant": true,
      "inputs": [],
      "name": "name",
      "outputs": [
        {
          "name": "",
          "type": "string"
        }
      ],
      "payable": false,
      "stateMutability": "view",
      "type": "function"
    },
    {
      "constant": true,
      "inputs": [],
      "name": "balanceAll",
      "outputs": [
        {
          "name": "",
          "type": "uint256"
        }
      ],
      "payable": false,
      "stateMutability": "view",
      "type": "function"
    },
    {
      "constant": true,
      "inputs": [],
      "name": "minNodes",
      "outputs": [
        {
          "name": "",
          "type": "uint16"
        }
      ],
      "payable": false,
      "stateMutability": "view",
      "type": "function"
    },
    {
      "constant": true,
      "inputs": [],
      "name": "releasedAll",
      "outputs": [
        {
          "name": "",
          "type": "uint256"
        }
      ],
      "payable": false,
      "stateMutability": "view",
      "type": "function"
    },
    {
      "constant": true,
      "inputs": [],
      "name": "minSuperNodes",
      "outputs": [
        {
          "name": "",
          "type": "uint16"
        }
      ],
      "payable": false,
      "stateMutability": "view",
      "type": "function"
    },
    {
      "constant": true,
      "inputs": [],
      "name": "most",
      "outputs": [
        {
          "name": "",
          "type": "uint16"
        }
      ],
      "payable": false,
      "stateMutability": "view",
      "type": "function"
    },
    {
      "constant": true,
      "inputs": [],
      "name": "halfSuperNodes",
      "outputs": [
        {
          "name": "",
          "type": "uint16"
        }
      ],
      "payable": false,
      "stateMutability": "view",
      "type": "function"
    },
    {
      "constant": true,
      "inputs": [],
      "name": "owner",
      "outputs": [
        {
          "name": "",
          "type": "address"
        }
      ],
      "payable": false,
      "stateMutability": "view",
      "type": "function"
    },
    {
      "constant": true,
      "inputs": [],
      "name": "totalNodes",
      "outputs": [
        {
          "name": "",
          "type": "uint16"
        }
      ],
      "payable": false,
      "stateMutability": "view",
      "type": "function"
    },
    {
      "constant": true,
      "inputs": [],
      "name": "mostNodes",
      "outputs": [
        {
          "name": "",
          "type": "uint16"
        }
      ],
      "payable": false,
      "stateMutability": "view",
      "type": "function"
    },
    {
      "constant": true,
      "inputs": [],
      "name": "totalSuperNodes",
      "outputs": [
        {
          "name": "",
          "type": "uint16"
        }
      ],
      "payable": false,
      "stateMutability": "view",
      "type": "function"
    },
    {
      "constant": true,
      "inputs": [],
      "name": "missionId",
      "outputs": [
        {
          "name": "",
          "type": "uint256"
        }
      ],
      "payable": false,
      "stateMutability": "view",
      "type": "function"
    },
    {
      "constant": true,
      "inputs": [],
      "name": "dealTime",
      "outputs": [
        {
          "name": "",
          "type": "uint256"
        }
      ],
      "payable": false,
      "stateMutability": "view",
      "type": "function"
    },
    {
      "constant": true,
      "inputs": [],
      "name": "less",
      "outputs": [
        {
          "name": "",
          "type": "uint16"
        }
      ],
      "payable": false,
      "stateMutability": "view",
      "type": "function"
    },
    {
      "constant": true,
      "inputs": [],
      "name": "halfNodes",
      "outputs": [
        {
          "name": "",
          "type": "uint16"
        }
      ],
      "payable": false,
      "stateMutability": "view",
      "type": "function"
    },
    {
      "constant": false,
      "inputs": [
        {
          "name": "newOwner",
          "type": "address"
        }
      ],
      "name": "transferOwnership",
      "outputs": [],
      "payable": false,
      "stateMutability": "nonpayable",
      "type": "function"
    },
    {
      "constant": true,
      "inputs": [],
      "name": "half",
      "outputs": [
        {
          "name": "",
          "type": "uint16"
        }
      ],
      "payable": false,
      "stateMutability": "view",
      "type": "function"
    },
    {
      "constant": true,
      "inputs": [],
      "name": "token",
      "outputs": [
        {
          "name": "",
          "type": "address"
        }
      ],
      "payable": false,
      "stateMutability": "view",
      "type": "function"
    },
    {
      "constant": true,
      "inputs": [],
      "name": "nodeRate",
      "outputs": [
        {
          "name": "",
          "type": "uint256"
        }
      ],
      "payable": false,
      "stateMutability": "view",
      "type": "function"
    },
    {
      "inputs": [
        {
          "name": "_tokenAddress",
          "type": "address"
        }
      ],
      "payable": false,
      "stateMutability": "nonpayable",
      "type": "constructor"
    },
    {
      "anonymous": false,
      "inputs": [
        {
          "indexed": false,
          "name": "_missionId",
          "type": "uint256"
        },
        {
          "indexed": false,
          "name": "_name",
          "type": "bytes32"
        }
      ],
      "name": "MissionPassed",
      "type": "event"
    },
    {
      "anonymous": false,
      "inputs": [
        {
          "indexed": false,
          "name": "_missionId",
          "type": "uint256"
        },
        {
          "indexed": false,
          "name": "_totalAmount",
          "type": "uint256"
        },
        {
          "indexed": false,
          "name": "_length",
          "type": "uint256"
        }
      ],
      "name": "OfferingFinished",
      "type": "event"
    },
    {
      "anonymous": false,
      "inputs": [
        {
          "indexed": false,
          "name": "_name",
          "type": "bytes32"
        },
        {
          "indexed": false,
          "name": "_missionId",
          "type": "uint256"
        },
        {
          "indexed": false,
          "name": "_whoLaunch",
          "type": "address"
        }
      ],
      "name": "MissionLaunched",
      "type": "event"
    },
    {
      "anonymous": false,
      "inputs": [
        {
          "indexed": false,
          "name": "_fund",
          "type": "address"
        },
        {
          "indexed": false,
          "name": "_amount",
          "type": "uint256"
        }
      ],
      "name": "AllTokenBack",
      "type": "event"
    },
    {
      "anonymous": false,
      "inputs": [
        {
          "indexed": false,
          "name": "_node",
          "type": "address"
        },
        {
          "indexed": false,
          "name": "_amount",
          "type": "uint256"
        }
      ],
      "name": "Recycled",
      "type": "event"
    },
    {
      "anonymous": false,
      "inputs": [
        {
          "indexed": false,
          "name": "_rate",
          "type": "uint256"
        }
      ],
      "name": "RateChanged",
      "type": "event"
    },
    {
      "constant": false,
      "inputs": [
        {
          "name": "_name",
          "type": "bytes32"
        },
        {
          "name": "_totalAmount",
          "type": "uint256"
        },
        {
          "name": "_recycleNodeAddr",
          "type": "address"
        },
        {
          "name": "_rate",
          "type": "uint256"
        }
      ],
      "name": "createKolMission",
      "outputs": [],
      "payable": false,
      "stateMutability": "nonpayable",
      "type": "function"
    },
    {
      "constant": false,
      "inputs": [
        {
          "name": "_type",
          "type": "uint16"
        },
        {
          "name": "_missionId",
          "type": "uint256"
        },
        {
          "name": "_agree",
          "type": "bool"
        }
      ],
      "name": "voteMission",
      "outputs": [],
      "payable": false,
      "stateMutability": "nonpayable",
      "type": "function"
    },
    {
      "constant": false,
      "inputs": [
        {
          "name": "_missionId",
          "type": "uint256"
        }
      ],
      "name": "excuteVote",
      "outputs": [],
      "payable": false,
      "stateMutability": "nonpayable",
      "type": "function"
    },
    {
      "constant": true,
      "inputs": [
        {
          "name": "_missionId",
          "type": "uint256"
        }
      ],
      "name": "getMission1",
      "outputs": [
        {
          "name": "",
          "type": "uint256"
        },
        {
          "name": "",
          "type": "uint256"
        },
        {
          "name": "",
          "type": "uint256"
        },
        {
          "name": "",
          "type": "uint256"
        },
        {
          "name": "",
          "type": "uint256"
        },
        {
          "name": "",
          "type": "bytes32"
        },
        {
          "name": "",
          "type": "address"
        }
      ],
      "payable": false,
      "stateMutability": "view",
      "type": "function"
    },
    {
      "constant": true,
      "inputs": [
        {
          "name": "_missionId",
          "type": "uint256"
        }
      ],
      "name": "getMission2",
      "outputs": [
        {
          "name": "",
          "type": "uint16"
        },
        {
          "name": "",
          "type": "uint16"
        },
        {
          "name": "",
          "type": "uint16"
        },
        {
          "name": "",
          "type": "uint16"
        },
        {
          "name": "",
          "type": "bool"
        },
        {
          "name": "",
          "type": "bool"
        },
        {
          "name": "",
          "type": "bool"
        }
      ],
      "payable": false,
      "stateMutability": "view",
      "type": "function"
    },
    {
      "constant": true,
      "inputs": [
        {
          "name": "_missionId",
          "type": "uint256"
        },
        {
          "name": "_id",
          "type": "uint256"
        }
      ],
      "name": "getOfferings",
      "outputs": [
        {
          "name": "",
          "type": "address"
        },
        {
          "name": "",
          "type": "uint256"
        },
        {
          "name": "",
          "type": "uint256"
        }
      ],
      "payable": false,
      "stateMutability": "view",
      "type": "function"
    },
    {
      "constant": false,
      "inputs": [
        {
          "name": "_missionId",
          "type": "uint256"
        },
        {
          "name": "_target",
          "type": "address[]"
        },
        {
          "name": "_targetAmount",
          "type": "uint256[]"
        }
      ],
      "name": "addKolOffering",
      "outputs": [],
      "payable": false,
      "stateMutability": "nonpayable",
      "type": "function"
    },
    {
      "constant": true,
      "inputs": [
        {
          "name": "_node",
          "type": "address"
        },
        {
          "name": "_missionId",
          "type": "uint256"
        }
      ],
      "name": "voted",
      "outputs": [
        {
          "name": "",
          "type": "bool"
        }
      ],
      "payable": false,
      "stateMutability": "view",
      "type": "function"
    },
    {
      "constant": false,
      "inputs": [],
      "name": "getKOL",
      "outputs": [],
      "payable": false,
      "stateMutability": "nonpayable",
      "type": "function"
    },
    {
      "constant": true,
      "inputs": [
        {
          "name": "_node",
          "type": "address"
        }
      ],
      "name": "queryBalance",
      "outputs": [
        {
          "name": "",
          "type": "uint256"
        },
        {
          "name": "",
          "type": "uint256"
        }
      ],
      "payable": false,
      "stateMutability": "view",
      "type": "function"
    },
    {
      "constant": true,
      "inputs": [],
      "name": "leftKOL",
      "outputs": [
        {
          "name": "",
          "type": "uint256"
        },
        {
          "name": "",
          "type": "bool"
        }
      ],
      "payable": false,
      "stateMutability": "view",
      "type": "function"
    }
  ],
  "bytecode": "0x60806040526040805190810160405280600d81526020017f4b4f4c204e6f6465204c6f636b00000000000000000000000000000000000000815250600190805190602001906200005192919062000126565b506203f48060035560006004556000600555600060065560006007553480156200007a57600080fd5b50604051602080620041ee83398101806040528101908080519060200190929190505050336000806101000a81548173ffffffffffffffffffffffffffffffffffffffff021916908373ffffffffffffffffffffffffffffffffffffffff16021790555080600260006101000a81548173ffffffffffffffffffffffffffffffffffffffff021916908373ffffffffffffffffffffffffffffffffffffffff16021790555050620001d5565b828054600181600116156101000203166002900490600052602060002090601f016020900481019282601f106200016957805160ff19168380011785556200019a565b828001600101855582156200019a579182015b82811115620001995782518255916020019190600101906200017c565b5b509050620001a99190620001ad565b5090565b620001d291905b80821115620001ce576000816000905550600101620001b4565b5090565b90565b61400980620001e56000396000f300608060405260043610610180576000357c0100000000000000000000000000000000000000000000000000000000900463ffffffff16806301424b2c14610185578063030bcd2f146101b257806306fdde03146101e857806337f428411461027857806342729c14146102d657806349512214146103015780634be99be9146103345780635797654d1461035f5780635883f0321461039257806358d7889c146104175780636bfa24ea1461044a57806384312e721461047d5780638da5cb5b146104c45780639592d4241461051b5780639625e0fb1461054e57806399619fa6146105815780639c6a5baf146105b45780639c76cc4414610667578063af26b762146106cc578063bbc1a300146106f7578063c446b6de1461078e578063c591aa98146107b9578063d0b423731461081e578063d23db1cd14610851578063d886ad49146108f0578063e26f4ff114610923578063f2fde38b1461093a578063f6a6462c1461097d578063fc0c546a146109b0578063fd38062114610a07575b600080fd5b34801561019157600080fd5b506101b060048036038101908080359060200190929190505050610a32565b005b3480156101be57600080fd5b506101c761118a565b60405180838152602001821515151581526020019250505060405180910390f35b3480156101f457600080fd5b506101fd6112ea565b6040518080602001828103825283818151815260200191508051906020019080838360005b8381101561023d578082015181840152602081019050610222565b50505050905090810190601f16801561026a5780820380516001836020036101000a031916815260200191505b509250505060405180910390f35b34801561028457600080fd5b506102b9600480360381019080803573ffffffffffffffffffffffffffffffffffffffff169060200190929190505050611388565b604051808381526020018281526020019250505060405180910390f35b3480156102e257600080fd5b506102eb611616565b6040518082815260200191505060405180910390f35b34801561030d57600080fd5b5061031661161c565b604051808261ffff1661ffff16815260200191505060405180910390f35b34801561034057600080fd5b50610349611621565b6040518082815260200191505060405180910390f35b34801561036b57600080fd5b50610374611627565b604051808261ffff1661ffff16815260200191505060405180910390f35b34801561039e57600080fd5b506103c7600480360381019080803590602001909291908035906020019092919050505061162c565b604051808473ffffffffffffffffffffffffffffffffffffffff1673ffffffffffffffffffffffffffffffffffffffff168152602001838152602001828152602001935050505060405180910390f35b34801561042357600080fd5b5061042c6116d9565b604051808261ffff1661ffff16815260200191505060405180910390f35b34801561045657600080fd5b5061045f6116de565b604051808261ffff1661ffff16815260200191505060405180910390f35b34801561048957600080fd5b506104c2600480360381019080803561ffff169060200190929190803590602001909291908035151590602001909291905050506116e3565b005b3480156104d057600080fd5b506104d9612202565b604051808273ffffffffffffffffffffffffffffffffffffffff1673ffffffffffffffffffffffffffffffffffffffff16815260200191505060405180910390f35b34801561052757600080fd5b50610530612227565b604051808261ffff1661ffff16815260200191505060405180910390f35b34801561055a57600080fd5b5061056361222d565b604051808261ffff1661ffff16815260200191505060405180910390f35b34801561058d57600080fd5b50610596612233565b604051808261ffff1661ffff16815260200191505060405180910390f35b3480156105c057600080fd5b50610665600480360381019080803590602001909291908035906020019082018035906020019080806020026020016040519081016040528093929190818152602001838360200280828437820191505050505050919291929080359060200190820180359060200190808060200260200160405190810160405280939291908181526020018383602002808284378201915050505050509192919290505050612238565b005b34801561067357600080fd5b506106ca600480360381019080803560001916906020019092919080359060200190929190803573ffffffffffffffffffffffffffffffffffffffff16906020019092919080359060200190929190505050612885565b005b3480156106d857600080fd5b506106e1612e8c565b6040518082815260200191505060405180910390f35b34801561070357600080fd5b5061072260048036038101908080359060200190929190505050612e92565b604051808861ffff1661ffff1681526020018761ffff1661ffff1681526020018661ffff1661ffff1681526020018561ffff1661ffff16815260200184151515158152602001831515151581526020018215151515815260200197505050505050505060405180910390f35b34801561079a57600080fd5b506107a3612fb6565b6040518082815260200191505060405180910390f35b3480156107c557600080fd5b50610804600480360381019080803573ffffffffffffffffffffffffffffffffffffffff16906020019092919080359060200190929190505050612fbc565b604051808215151515815260200191505060405180910390f35b34801561082a57600080fd5b50610833613024565b604051808261ffff1661ffff16815260200191505060405180910390f35b34801561085d57600080fd5b5061087c60048036038101908080359060200190929190505050613029565b6040518088815260200187815260200186815260200185815260200184815260200183600019166000191681526020018273ffffffffffffffffffffffffffffffffffffffff1673ffffffffffffffffffffffffffffffffffffffff16815260200197505050505050505060405180910390f35b3480156108fc57600080fd5b5061090561310e565b604051808261ffff1661ffff16815260200191505060405180910390f35b34801561092f57600080fd5b50610938613113565b005b34801561094657600080fd5b5061097b600480360381019080803573ffffffffffffffffffffffffffffffffffffffff169060200190929190505050613768565b005b34801561098957600080fd5b5061099261383d565b604051808261ffff1661ffff16815260200191505060405180910390f35b3480156109bc57600080fd5b506109c5613842565b604051808273ffffffffffffffffffffffffffffffffffffffff1673ffffffffffffffffffffffffffffffffffffffff16815260200191505060405180910390f35b348015610a1357600080fd5b50610a1c613868565b6040518082815260200191505060405180910390f35b60008060009054906101000a900473ffffffffffffffffffffffffffffffffffffffff1673ffffffffffffffffffffffffffffffffffffffff163373ffffffffffffffffffffffffffffffffffffffff16141515610a8f57600080fd5b60096000838152602001908152602001600020600601601e9054906101000a900460ff16151515610abf57600080fd5b60035460096000848152602001908152602001600020600101540142101515610ae757600080fd5b60096000838152602001908152602001600020600601601c9054906101000a900460ff161515610b1657600080fd5b60096000838152602001908152602001600020600601601d9054906101000a900460ff161515610b4557600080fd5b7f5452414e5346455220414c4c204b4f4c20544f2046554e4400000000000000006009600084815260200190815260200160002060050154600019161415610bc357610b8f61386e565b600160096000848152602001908152602001600020600601601e6101000a81548160ff021916908315150217905550611186565b7f52454359434c45204b4f4c2046524f4d204f4c444e4f444500000000000000006009600084815260200190815260200160002060050154600019161415610c7857610c446009600084815260200190815260200160002060060160009054906101000a900473ffffffffffffffffffffffffffffffffffffffff16613ace565b600160096000848152602001908152602001600020600601601e6101000a81548160ff021916908315150217905550611185565b7f4348414e47452052454c454153452052415445000000000000000000000000006009600084815260200190815260200160002060050154600019161415610d44576009600083815260200190815260200160002060040154600581905550600160096000848152602001908152602001600020600601601e6101000a81548160ff0219169083151502179055507f595a30f13a69b616c4d568e2a2b7875fdfe86e4300a049953c76ee278f8f3f106005546040518082815260200191505060405180910390a1611184565b610d6f6009600084815260200190815260200160002060020154600754613ec390919063ffffffff16565b610e7b600654600260009054906101000a900473ffffffffffffffffffffffffffffffffffffffff1673ffffffffffffffffffffffffffffffffffffffff166370a08231306040518263ffffffff167c0100000000000000000000000000000000000000000000000000000000028152600401808273ffffffffffffffffffffffffffffffffffffffff1673ffffffffffffffffffffffffffffffffffffffff168152602001915050602060405180830381600087803b158015610e3257600080fd5b505af1158015610e46573d6000803e3d6000fd5b505050506040513d6020811015610e5c57600080fd5b8101908080519060200190929190505050613ec390919063ffffffff16565b10151515610e8857600080fd5b60096000838152602001908152602001600020600301546009600084815260200190815260200160002060020154141515610ec257600080fd5b600090505b600d60008381526020019081526020016000208054905081101561105a57610fb9600d600084815260200190815260200160002082815481101515610f0857fe5b906000526020600020906002020160010154600a6000600d600087815260200190815260200160002085815481101515610f3e57fe5b906000526020600020906002020160000160009054906101000a900473ffffffffffffffffffffffffffffffffffffffff1673ffffffffffffffffffffffffffffffffffffffff1673ffffffffffffffffffffffffffffffffffffffff16815260200190815260200160002054613ec390919063ffffffff16565b600a6000600d600086815260200190815260200160002084815481101515610fdd57fe5b906000526020600020906002020160000160009054906101000a900473ffffffffffffffffffffffffffffffffffffffff1673ffffffffffffffffffffffffffffffffffffffff1673ffffffffffffffffffffffffffffffffffffffff168152602001908152602001600020819055508080600101915050610ec7565b6110856009600084815260200190815260200160002060030154600754613ec390919063ffffffff16565b6007819055506009600083815260200190815260200160002060040154600581905550600160096000848152602001908152602001600020600601601e6101000a81548160ff0219169083151502179055507f595a30f13a69b616c4d568e2a2b7875fdfe86e4300a049953c76ee278f8f3f106005546040518082815260200191505060405180910390a17f1022a2c4ccad65760f1f251079912a70e8690dba3a6efc0e30332501a68092d5826009600085815260200190815260200160002060030154600d60008681526020019081526020016000208054905060405180848152602001838152602001828152602001935050505060405180910390a15b5b5b5050565b600080600080600260009054906101000a900473ffffffffffffffffffffffffffffffffffffffff1673ffffffffffffffffffffffffffffffffffffffff166370a08231306040518263ffffffff167c0100000000000000000000000000000000000000000000000000000000028152600401808273ffffffffffffffffffffffffffffffffffffffff1673ffffffffffffffffffffffffffffffffffffffff168152602001915050602060405180830381600087803b15801561124d57600080fd5b505af1158015611261573d6000803e3d6000fd5b505050506040513d602081101561127757600080fd5b810190808051906020019092919050505091506112a1600654600754613ee490919063ffffffff16565b905080821015156112ca576112bf8183613ee490919063ffffffff16565b6001935093506112e4565b6112dd8282613ee490919063ffffffff16565b6000935093505b50509091565b60018054600181600116156101000203166002900480601f0160208091040260200160405190810160405280929190818152602001828054600181600116156101000203166002900480156113805780601f1061135557610100808354040283529160200191611380565b820191906000526020600020905b81548152906001019060200180831161136357829003601f168201915b505050505081565b600080600260009054906101000a900473ffffffffffffffffffffffffffffffffffffffff1673ffffffffffffffffffffffffffffffffffffffff1663c4a1dbad336040518263ffffffff167c0100000000000000000000000000000000000000000000000000000000028152600401808273ffffffffffffffffffffffffffffffffffffffff1673ffffffffffffffffffffffffffffffffffffffff168152602001915050602060405180830381600087803b15801561144857600080fd5b505af115801561145c573d6000803e3d6000fd5b505050506040513d602081101561147257600080fd5b8101908080519060200190929190505050806115825750600260009054906101000a900473ffffffffffffffffffffffffffffffffffffffff1673ffffffffffffffffffffffffffffffffffffffff1663bac30981336040518263ffffffff167c0100000000000000000000000000000000000000000000000000000000028152600401808273ffffffffffffffffffffffffffffffffffffffff1673ffffffffffffffffffffffffffffffffffffffff168152602001915050602060405180830381600087803b15801561154657600080fd5b505af115801561155a573d6000803e3d6000fd5b505050506040513d602081101561157057600080fd5b81019080805190602001909291905050505b151561158d57600080fd5b600a60008473ffffffffffffffffffffffffffffffffffffffff1673ffffffffffffffffffffffffffffffffffffffff16815260200190815260200160002054600b60008573ffffffffffffffffffffffffffffffffffffffff1673ffffffffffffffffffffffffffffffffffffffff1681526020019081526020016000205491509150915091565b60075481565b606581565b60065481565b600f81565b6000806000600d60008681526020019081526020016000208481548110151561165157fe5b906000526020600020906002020160000160009054906101000a900473ffffffffffffffffffffffffffffffffffffffff16600d6000878152602001908152602001600020858154811015156116a357fe5b906000526020600020906002020160010154600d6000888152602001908152602001600020805490509250925092509250925092565b604381565b600b81565b6000806000806000600260009054906101000a900473ffffffffffffffffffffffffffffffffffffffff1673ffffffffffffffffffffffffffffffffffffffff1663c4a1dbad336040518263ffffffff167c0100000000000000000000000000000000000000000000000000000000028152600401808273ffffffffffffffffffffffffffffffffffffffff1673ffffffffffffffffffffffffffffffffffffffff168152602001915050602060405180830381600087803b1580156117a857600080fd5b505af11580156117bc573d6000803e3d6000fd5b505050506040513d60208110156117d257600080fd5b8101908080519060200190929190505050806118e25750600260009054906101000a900473ffffffffffffffffffffffffffffffffffffffff1673ffffffffffffffffffffffffffffffffffffffff1663bac30981336040518263ffffffff167c0100000000000000000000000000000000000000000000000000000000028152600401808273ffffffffffffffffffffffffffffffffffffffff1673ffffffffffffffffffffffffffffffffffffffff168152602001915050602060405180830381600087803b1580156118a657600080fd5b505af11580156118ba573d6000803e3d6000fd5b505050506040513d60208110156118d057600080fd5b81019080805190602001909291905050505b15156118ed57600080fd5b600860003373ffffffffffffffffffffffffffffffffffffffff1673ffffffffffffffffffffffffffffffffffffffff168152602001908152602001600020600088815260200190815260200160002060009054906101000a900460ff1615151561195757600080fd5b60096000888152602001908152602001600020600601601e9054906101000a900460ff1615151561198757600080fd5b60659450600f935060fb9250600b91506033905060018861ffff161415611ab057600260009054906101000a900473ffffffffffffffffffffffffffffffffffffffff1673ffffffffffffffffffffffffffffffffffffffff1663c4a1dbad336040518263ffffffff167c0100000000000000000000000000000000000000000000000000000000028152600401808273ffffffffffffffffffffffffffffffffffffffff1673ffffffffffffffffffffffffffffffffffffffff168152602001915050602060405180830381600087803b158015611a6557600080fd5b505af1158015611a79573d6000803e3d6000fd5b505050506040513d6020811015611a8f57600080fd5b81019080805190602001909291905050501515611aab57600080fd5b611bc2565b60028861ffff161415611bc157600260009054906101000a900473ffffffffffffffffffffffffffffffffffffffff1673ffffffffffffffffffffffffffffffffffffffff1663bac30981336040518263ffffffff167c0100000000000000000000000000000000000000000000000000000000028152600401808273ffffffffffffffffffffffffffffffffffffffff1673ffffffffffffffffffffffffffffffffffffffff168152602001915050602060405180830381600087803b158015611b7a57600080fd5b505af1158015611b8e573d6000803e3d6000fd5b505050506040513d6020811015611ba457600080fd5b81019080805190602001909291905050501515611bc057600080fd5b5b5b6009600088815260200190815260200160002060010154421115611e4d5760018861ffff161415611d1a578361ffff1660096000898152602001908152602001600020600601601a9054906101000a900461ffff16600960008a815260200190815260200160002060060160189054906101000a900461ffff160161ffff1610158015611cd75750606481600960008a8152602001908152602001600020600601601a9054906101000a900461ffff16600960008b815260200190815260200160002060060160189054906101000a900461ffff16010261ffff16811515611ca657fe5b0461ffff166009600089815260200190815260200160002060060160189054906101000a900461ffff1661ffff1610155b15611d1557600160096000898152602001908152602001600020600601601c6101000a81548160ff021916908315150217905550611d1487613f00565b5b611e48565b60028861ffff161415611e47578461ffff166009600089815260200190815260200160002060060160169054906101000a900461ffff16600960008a815260200190815260200160002060060160149054906101000a900461ffff160161ffff1610158015611e115750606481600960008a815260200190815260200160002060060160169054906101000a900461ffff16600960008b815260200190815260200160002060060160169054906101000a900461ffff16010261ffff16811515611de057fe5b0461ffff166009600089815260200190815260200160002060060160149054906101000a900461ffff1661ffff1610155b15611e4657600160096000898152602001908152602001600020600601601d6101000a81548160ff0219169083151502179055505b5b5b61218f565b600115158615151415611f125760018861ffff161415611eb55760096000888152602001908152602001600020600601601881819054906101000a900461ffff168092919060010191906101000a81548161ffff021916908361ffff16021790555050611f0d565b60028861ffff161415611f0c5760096000888152602001908152602001600020600601601481819054906101000a900461ffff168092919060010191906101000a81548161ffff021916908361ffff160217905550505b5b611fc6565b60018861ffff161415611f6d5760096000888152602001908152602001600020600601601a81819054906101000a900461ffff168092919060010191906101000a81548161ffff021916908361ffff16021790555050611fc5565b60028861ffff161415611fc45760096000888152602001908152602001600020600601601681819054906101000a900461ffff168092919060010191906101000a81548161ffff021916908361ffff160217905550505b5b5b60018861ffff1614156120b0578161ffff166009600089815260200190815260200160002060060160189054906101000a900461ffff1661ffff1610151561204557600160096000898152602001908152602001600020600601601c6101000a81548160ff02191690831515021790555061204087613f00565b6120ab565b8161ffff1660096000898152602001908152602001600020600601601a9054906101000a900461ffff1661ffff161015156120aa57600160096000898152602001908152602001600020600601601e6101000a81548160ff0219169083151502179055505b5b61218e565b60028861ffff16141561218d578261ffff166009600089815260200190815260200160002060060160149054906101000a900461ffff1661ffff1610151561212657600160096000898152602001908152602001600020600601601d6101000a81548160ff02191690831515021790555061218c565b8261ffff166009600089815260200190815260200160002060060160169054906101000a900461ffff1661ffff1610151561218b57600160096000898152602001908152602001600020600601601e6101000a81548160ff0219169083151502179055505b5b5b5b5b6001600860003373ffffffffffffffffffffffffffffffffffffffff1673ffffffffffffffffffffffffffffffffffffffff168152602001908152602001600020600089815260200190815260200160002060006101000a81548160ff0219169083151502179055505050505050505050565b6000809054906101000a900473ffffffffffffffffffffffffffffffffffffffff1681565b6101f481565b61014f81565b601581565b600080600260009054906101000a900473ffffffffffffffffffffffffffffffffffffffff1673ffffffffffffffffffffffffffffffffffffffff1663c4a1dbad336040518263ffffffff167c0100000000000000000000000000000000000000000000000000000000028152600401808273ffffffffffffffffffffffffffffffffffffffff1673ffffffffffffffffffffffffffffffffffffffff168152602001915050602060405180830381600087803b1580156122f857600080fd5b505af115801561230c573d6000803e3d6000fd5b505050506040513d602081101561232257600080fd5b8101908080519060200190929190505050806124325750600260009054906101000a900473ffffffffffffffffffffffffffffffffffffffff1673ffffffffffffffffffffffffffffffffffffffff1663bac30981336040518263ffffffff167c0100000000000000000000000000000000000000000000000000000000028152600401808273ffffffffffffffffffffffffffffffffffffffff1673ffffffffffffffffffffffffffffffffffffffff168152602001915050602060405180830381600087803b1580156123f657600080fd5b505af115801561240a573d6000803e3d6000fd5b505050506040513d602081101561242057600080fd5b81019080805190602001909291905050505b151561243d57600080fd5b60096000868152602001908152602001600020600601601c9054906101000a900460ff16151561246c57600080fd5b60096000868152602001908152602001600020600601601e9054906101000a900460ff1615151561249c57600080fd5b825184511415156124ac57600080fd5b60009150600090505b825181101561284357600260009054906101000a900473ffffffffffffffffffffffffffffffffffffffff1673ffffffffffffffffffffffffffffffffffffffff1663bac30981858381518110151561250a57fe5b906020019060200201516040518263ffffffff167c0100000000000000000000000000000000000000000000000000000000028152600401808273ffffffffffffffffffffffffffffffffffffffff1673ffffffffffffffffffffffffffffffffffffffff168152602001915050602060405180830381600087803b15801561259257600080fd5b505af11580156125a6573d6000803e3d6000fd5b505050506040513d60208110156125bc57600080fd5b8101908080519060200190929190505050806126e35750600260009054906101000a900473ffffffffffffffffffffffffffffffffffffffff1673ffffffffffffffffffffffffffffffffffffffff1663c4a1dbad858381518110151561261f57fe5b906020019060200201516040518263ffffffff167c0100000000000000000000000000000000000000000000000000000000028152600401808273ffffffffffffffffffffffffffffffffffffffff1673ffffffffffffffffffffffffffffffffffffffff168152602001915050602060405180830381600087803b1580156126a757600080fd5b505af11580156126bb573d6000803e3d6000fd5b505050506040513d60208110156126d157600080fd5b81019080805190602001909291905050505b91508115156126f157600080fd5b612731838281518110151561270257fe5b906020019060200201516009600088815260200190815260200160002060030154613ec390919063ffffffff16565b6009600087815260200190815260200160002060030181905550600d60008681526020019081526020016000206040805190810160405280868481518110151561277757fe5b9060200190602002015173ffffffffffffffffffffffffffffffffffffffff16815260200185848151811015156127aa57fe5b906020019060200201518152509080600181540180825580915050906001820390600052602060002090600202016000909192909190915060008201518160000160006101000a81548173ffffffffffffffffffffffffffffffffffffffff021916908373ffffffffffffffffffffffffffffffffffffffff1602179055506020820151816001015550505080806001019150506124b5565b600960008681526020019081526020016000206003015460096000878152602001908152602001600020600201541015151561287e57600080fd5b5050505050565b6000806000600260009054906101000a900473ffffffffffffffffffffffffffffffffffffffff1673ffffffffffffffffffffffffffffffffffffffff1663c4a1dbad336040518263ffffffff167c0100000000000000000000000000000000000000000000000000000000028152600401808273ffffffffffffffffffffffffffffffffffffffff1673ffffffffffffffffffffffffffffffffffffffff168152602001915050602060405180830381600087803b15801561294757600080fd5b505af115801561295b573d6000803e3d6000fd5b505050506040513d602081101561297157600080fd5b810190808051906020019092919050505080612a815750600260009054906101000a900473ffffffffffffffffffffffffffffffffffffffff1673ffffffffffffffffffffffffffffffffffffffff1663bac30981336040518263ffffffff167c0100000000000000000000000000000000000000000000000000000000028152600401808273ffffffffffffffffffffffffffffffffffffffff1673ffffffffffffffffffffffffffffffffffffffff168152602001915050602060405180830381600087803b158015612a4557600080fd5b505af1158015612a59573d6000803e3d6000fd5b505050506040513d6020811015612a6f57600080fd5b81019080805190602001909291905050505b1515612a8c57600080fd5b869250600260009054906101000a900473ffffffffffffffffffffffffffffffffffffffff1673ffffffffffffffffffffffffffffffffffffffff166370a08231306040518263ffffffff167c0100000000000000000000000000000000000000000000000000000000028152600401808273ffffffffffffffffffffffffffffffffffffffff1673ffffffffffffffffffffffffffffffffffffffff168152602001915050602060405180830381600087803b158015612b4c57600080fd5b505af1158015612b60573d6000803e3d6000fd5b505050506040513d6020811015612b7657600080fd5b81019080805190602001909291905050509150612ba0600654600754613ee490919063ffffffff16565b9050612bb58682613ec390919063ffffffff16565b8210151515612bc357600080fd5b6101c0604051908101604052804281526020016003544201815260200187815260200160008152602001858152602001846000191681526020018673ffffffffffffffffffffffffffffffffffffffff168152602001600061ffff168152602001600061ffff168152602001600061ffff168152602001600061ffff16815260200160001515815260200160001515815260200160001515815250600960006004548152602001908152602001600020600082015181600001556020820151816001015560408201518160020155606082015181600301556080820151816004015560a0820151816005019060001916905560c08201518160060160006101000a81548173ffffffffffffffffffffffffffffffffffffffff021916908373ffffffffffffffffffffffffffffffffffffffff16021790555060e08201518160060160146101000a81548161ffff021916908361ffff1602179055506101008201518160060160166101000a81548161ffff021916908361ffff1602179055506101208201518160060160186101000a81548161ffff021916908361ffff16021790555061014082015181600601601a6101000a81548161ffff021916908361ffff16021790555061016082015181600601601c6101000a81548160ff02191690831515021790555061018082015181600601601d6101000a81548160ff0219169083151502179055506101a082015181600601601e6101000a81548160ff0219169083151502179055509050506004600081548092919060010191905055507fc96853e9a347a4993a1ab1a2f1f683db63a40fab5e2ce45e29c81b5149c58e4683600160045403336040518084600019166000191681526020018381526020018273ffffffffffffffffffffffffffffffffffffffff1673ffffffffffffffffffffffffffffffffffffffff168152602001935050505060405180910390a150505050505050565b60045481565b60008060008060008060006009600089815260200190815260200160002060060160149054906101000a900461ffff16600960008a815260200190815260200160002060060160169054906101000a900461ffff16600960008b815260200190815260200160002060060160189054906101000a900461ffff16600960008c8152602001908152602001600020600601601a9054906101000a900461ffff16600960008d8152602001908152602001600020600601601c9054906101000a900460ff16600960008e8152602001908152602001600020600601601d9054906101000a900460ff16600960008f8152602001908152602001600020600601601e9054906101000a900460ff169650965096509650965096509650919395979092949650565b60035481565b6000600860008473ffffffffffffffffffffffffffffffffffffffff1673ffffffffffffffffffffffffffffffffffffffff168152602001908152602001600020600083815260200190815260200160002060009054906101000a900460ff16905092915050565b602181565b60008060008060008060006009600089815260200190815260200160002060000154600960008a815260200190815260200160002060010154600960008b815260200190815260200160002060020154600960008c815260200190815260200160002060030154600960008d815260200190815260200160002060040154600960008e815260200190815260200160002060050154600960008f815260200190815260200160002060060160009054906101000a900473ffffffffffffffffffffffffffffffffffffffff169650965096509650965096509650919395979092949650565b60fb81565b600080600260009054906101000a900473ffffffffffffffffffffffffffffffffffffffff1673ffffffffffffffffffffffffffffffffffffffff1663c4a1dbad336040518263ffffffff167c0100000000000000000000000000000000000000000000000000000000028152600401808273ffffffffffffffffffffffffffffffffffffffff1673ffffffffffffffffffffffffffffffffffffffff168152602001915050602060405180830381600087803b1580156131d357600080fd5b505af11580156131e7573d6000803e3d6000fd5b505050506040513d60208110156131fd57600080fd5b81019080805190602001909291905050508061330d5750600260009054906101000a900473ffffffffffffffffffffffffffffffffffffffff1673ffffffffffffffffffffffffffffffffffffffff1663bac30981336040518263ffffffff167c0100000000000000000000000000000000000000000000000000000000028152600401808273ffffffffffffffffffffffffffffffffffffffff1673ffffffffffffffffffffffffffffffffffffffff168152602001915050602060405180830381600087803b1580156132d157600080fd5b505af11580156132e5573d6000803e3d6000fd5b505050506040513d60208110156132fb57600080fd5b81019080805190602001909291905050505b151561331857600080fd5b6000600a60003373ffffffffffffffffffffffffffffffffffffffff1673ffffffffffffffffffffffffffffffffffffffff1681526020019081526020016000205411151561336657600080fd5b6133cd60646133bf600554600a60003373ffffffffffffffffffffffffffffffffffffffff1673ffffffffffffffffffffffffffffffffffffffff16815260200190815260200160002054613f6090919063ffffffff16565b613f9690919063ffffffff16565b9150613421600b60003373ffffffffffffffffffffffffffffffffffffffff1673ffffffffffffffffffffffffffffffffffffffff1681526020019081526020016000205483613ee490919063ffffffff16565b905060008111151561343257600080fd5b600a60003373ffffffffffffffffffffffffffffffffffffffff1673ffffffffffffffffffffffffffffffffffffffff168152602001908152602001600020546134c482600b60003373ffffffffffffffffffffffffffffffffffffffff1673ffffffffffffffffffffffffffffffffffffffff16815260200190815260200160002054613ec390919063ffffffff16565b111515156134d157600080fd5b80600260009054906101000a900473ffffffffffffffffffffffffffffffffffffffff1673ffffffffffffffffffffffffffffffffffffffff166370a08231306040518263ffffffff167c0100000000000000000000000000000000000000000000000000000000028152600401808273ffffffffffffffffffffffffffffffffffffffff1673ffffffffffffffffffffffffffffffffffffffff168152602001915050602060405180830381600087803b15801561358f57600080fd5b505af11580156135a3573d6000803e3d6000fd5b505050506040513d60208110156135b957600080fd5b8101908080519060200190929190505050101515156135d757600080fd5b600260009054906101000a900473ffffffffffffffffffffffffffffffffffffffff1673ffffffffffffffffffffffffffffffffffffffff1663a9059cbb33836040518363ffffffff167c0100000000000000000000000000000000000000000000000000000000028152600401808373ffffffffffffffffffffffffffffffffffffffff1673ffffffffffffffffffffffffffffffffffffffff16815260200182815260200192505050600060405180830381600087803b15801561369c57600080fd5b505af11580156136b0573d6000803e3d6000fd5b5050505061370681600b60003373ffffffffffffffffffffffffffffffffffffffff1673ffffffffffffffffffffffffffffffffffffffff16815260200190815260200160002054613ec390919063ffffffff16565b600b60003373ffffffffffffffffffffffffffffffffffffffff1673ffffffffffffffffffffffffffffffffffffffff1681526020019081526020016000208190555061375e81600654613ec390919063ffffffff16565b6006819055505050565b6000809054906101000a900473ffffffffffffffffffffffffffffffffffffffff1673ffffffffffffffffffffffffffffffffffffffff163373ffffffffffffffffffffffffffffffffffffffff161415156137c357600080fd5b600073ffffffffffffffffffffffffffffffffffffffff168173ffffffffffffffffffffffffffffffffffffffff1614151561383a57806000806101000a81548173ffffffffffffffffffffffffffffffffffffffff021916908373ffffffffffffffffffffffffffffffffffffffff1602179055505b50565b603381565b600260009054906101000a900473ffffffffffffffffffffffffffffffffffffffff1681565b60055481565b6000807327750e6d41aef99501ebc256538c6a13a254ea159150600260009054906101000a900473ffffffffffffffffffffffffffffffffffffffff1673ffffffffffffffffffffffffffffffffffffffff166370a08231306040518263ffffffff167c0100000000000000000000000000000000000000000000000000000000028152600401808273ffffffffffffffffffffffffffffffffffffffff1673ffffffffffffffffffffffffffffffffffffffff168152602001915050602060405180830381600087803b15801561394557600080fd5b505af1158015613959573d6000803e3d6000fd5b505050506040513d602081101561396f57600080fd5b81019080805190602001909291905050509050600260009054906101000a900473ffffffffffffffffffffffffffffffffffffffff1673ffffffffffffffffffffffffffffffffffffffff1663a9059cbb83836040518363ffffffff167c0100000000000000000000000000000000000000000000000000000000028152600401808373ffffffffffffffffffffffffffffffffffffffff1673ffffffffffffffffffffffffffffffffffffffff16815260200182815260200192505050600060405180830381600087803b158015613a4757600080fd5b505af1158015613a5b573d6000803e3d6000fd5b505050507faa1735f2235e2996186e242477b7108318d39df0a1e25d517e9a0a9532eb8c188282604051808373ffffffffffffffffffffffffffffffffffffffff1673ffffffffffffffffffffffffffffffffffffffff1681526020018281526020019250505060405180910390a15050565b6000600260009054906101000a900473ffffffffffffffffffffffffffffffffffffffff1673ffffffffffffffffffffffffffffffffffffffff1663bac30981836040518263ffffffff167c0100000000000000000000000000000000000000000000000000000000028152600401808273ffffffffffffffffffffffffffffffffffffffff1673ffffffffffffffffffffffffffffffffffffffff168152602001915050602060405180830381600087803b158015613b8d57600080fd5b505af1158015613ba1573d6000803e3d6000fd5b505050506040513d6020811015613bb757600080fd5b8101908080519060200190929190505050158015613cca5750600260009054906101000a900473ffffffffffffffffffffffffffffffffffffffff1673ffffffffffffffffffffffffffffffffffffffff1663c4a1dbad336040518263ffffffff167c0100000000000000000000000000000000000000000000000000000000028152600401808273ffffffffffffffffffffffffffffffffffffffff1673ffffffffffffffffffffffffffffffffffffffff168152602001915050602060405180830381600087803b158015613c8d57600080fd5b505af1158015613ca1573d6000803e3d6000fd5b505050506040513d6020811015613cb757600080fd5b8101908080519060200190929190505050155b1515613cd557600080fd5b6000600a60008473ffffffffffffffffffffffffffffffffffffffff1673ffffffffffffffffffffffffffffffffffffffff16815260200190815260200160002054111515613d2357600080fd5b613db4600b60008473ffffffffffffffffffffffffffffffffffffffff1673ffffffffffffffffffffffffffffffffffffffff16815260200190815260200160002054600a60008573ffffffffffffffffffffffffffffffffffffffff1673ffffffffffffffffffffffffffffffffffffffff16815260200190815260200160002054613ee490919063ffffffff16565b9050613dcb81600754613ee490919063ffffffff16565b600781905550600b60008373ffffffffffffffffffffffffffffffffffffffff1673ffffffffffffffffffffffffffffffffffffffff16815260200190815260200160002054600a60008473ffffffffffffffffffffffffffffffffffffffff1673ffffffffffffffffffffffffffffffffffffffff168152602001908152602001600020819055507f2f4fe6ef20731a5b53da6e61c37b5ef0800322b87280725dfdf2638bcb2fa5038282604051808373ffffffffffffffffffffffffffffffffffffffff1673ffffffffffffffffffffffffffffffffffffffff1681526020018281526020019250505060405180910390a15050565b6000808284019050838110151515613eda57600080fd5b8091505092915050565b6000828211151515613ef557600080fd5b818303905092915050565b7f3aa94a81513bec2a88fbe53be130cc208c447c9914b300256c34c95ed7d5d8ab8160096000848152602001908152602001600020600501546040518083815260200182600019166000191681526020019250505060405180910390a150565b60008082840290506000841480613f815750828482811515613f7e57fe5b04145b1515613f8c57600080fd5b8091505092915050565b600080600083111515613fa857600080fd5b8284811515613fb357fe5b0490508284811515613fc157fe5b068184020184141515613fd357600080fd5b80915050929150505600a165627a7a72305820f33c93ce405ac64406b4b060d9000dcee2716f227c02596e9bf3c715957c43460029",
  "source": "pragma solidity ^0.4.23;\n/*\n *                   \n *                      KOL Community Foundation      \n *                      \n *                        \n *         \n *    Dev:Jack Koe  Special for: KOL   20200406   \n *        \n */\n\n library SafeMath {\n   function mul(uint a, uint b) internal pure  returns (uint) {\n     uint c = a * b;\n     require(a == 0 || c / a == b);\n     return c;\n   }\n   function div(uint a, uint b) internal pure returns (uint) {\n     require(b > 0);\n     uint c = a / b;\n     require(a == b * c + a % b);\n     return c;\n   }\n   function sub(uint a, uint b) internal pure returns (uint) {\n     require(b <= a);\n     return a - b;\n   }\n   function add(uint a, uint b) internal pure returns (uint) {\n     uint c = a + b;\n     require(c >= a);\n     return c;\n   }\n   function max64(uint64 a, uint64 b) internal  pure returns (uint64) {\n     return a >= b ? a : b;\n   }\n   function min64(uint64 a, uint64 b) internal  pure returns (uint64) {\n     return a < b ? a : b;\n   }\n   function max256(uint256 a, uint256 b) internal  pure returns (uint256) {\n     return a >= b ? a : b;\n   }\n   function min256(uint256 a, uint256 b) internal  pure returns (uint256) {\n     return a < b ? a : b;\n   }\n }\n\n /**\n  * @title KOL Node Lock & Release Contract\n  * @dev visit: https://github.com/jackoelv/KOL/\n */\n\n contract ERC20Basic {\n   uint public totalSupply;\n   function balanceOf(address who) public constant returns (uint);\n   function transfer(address to, uint value) public;\n   event Transfer(address indexed from, address indexed to, uint value);\n }\n\n contract ERC20 is ERC20Basic {\n   function allowance(address owner, address spender) public constant returns (uint);\n   function transferFrom(address from, address to, uint value) public;\n   function approve(address spender, uint value) public;\n   event Approval(address indexed owner, address indexed spender, uint value);\n }\n\n /**\n  * @title KOL Node Lock & Release Contract\n  * @dev visit: https://github.com/jackoelv/KOL/\n */\n\n contract BasicToken is ERC20Basic {\n\n   using SafeMath for uint;\n\n   mapping(address => uint) balances;\n\n   function transfer(address _to, uint _value) public{\n     balances[msg.sender] = balances[msg.sender].sub(_value);\n     balances[_to] = balances[_to].add(_value);\n     emit Transfer(msg.sender, _to, _value);\n   }\n\n   function balanceOf(address _owner) public constant returns (uint balance) {\n     return balances[_owner];\n   }\n }\n\n /**\n  * @title KOL Node Lock & Release Contract\n  * @dev visit: https://github.com/jackoelv/KOL/\n */\n\n contract StandardToken is BasicToken, ERC20 {\n   mapping (address => mapping (address => uint)) allowed;\n   uint256 public userSupplyed;\n\n   function transferFrom(address _from, address _to, uint _value) public {\n     balances[_to] = balances[_to].add(_value);\n     balances[_from] = balances[_from].sub(_value);\n     allowed[_from][msg.sender] = allowed[_from][msg.sender].sub(_value);\n     emit Transfer(_from, _to, _value);\n   }\n\n   function approve(address _spender, uint _value) public{\n     require((_value == 0) || (allowed[msg.sender][_spender] == 0)) ;\n     allowed[msg.sender][_spender] = _value;\n     emit Approval(msg.sender, _spender, _value);\n   }\n\n   function allowance(address _owner, address _spender) public constant returns (uint remaining) {\n     return allowed[_owner][_spender];\n   }\n }\n contract KOL is StandardToken {\n   function queryNode(address _addr) public view returns(bool);\n   function querySuperNode(address _addr) public view returns(bool);\n }\n\n /**\n  * @title KOL Node Lock & Release Contract\n  * @dev visit: https://github.com/jackoelv/KOL/\n */\n\n contract Ownable {\n     address public owner;\n\n     constructor() public{\n         owner = msg.sender;\n     }\n\n     modifier onlyOwner {\n         require(msg.sender == owner);\n         _;\n     }\n     function transferOwnership(address newOwner) onlyOwner public{\n         if (newOwner != address(0)) {\n             owner = newOwner;\n         }\n     }\n }\n /**\n  * @title KOL Node Lock & Release Contract\n  * @dev visit: https://github.com/jackoelv/KOL/\n */\ncontract KOLLockNode is Ownable{\n  using SafeMath for uint256;\n  string public name = \"KOL Node Lock\";\n  KOL public token;\n\n  uint256 public dealTime =  3 days;\n  uint256 public missionId = 0;\n  uint256 public nodeRate = 0;\n  uint256 public releasedAll = 0;\n  uint256 public balanceAll = 0;\n  /*  */\n\n  uint16 public constant totalSuperNodes = 21;\n  uint16 public constant totalNodes = 500;\n  uint16 public constant halfSuperNodes = 11;\n  uint16 public constant mostNodes = 335;\n  uint16 public constant halfNodes = 251;\n  uint16 public constant minSuperNodes = 15;\n  uint16 public constant minNodes = 101;\n\n  /*  */\n/*\n  uint16 public constant totalSuperNodes = 3;\n  uint16 public constant totalNodes = 10;\n  uint16 public constant halfSuperNodes = 1;\n  uint16 public constant mostNodes = 1;\n  uint16 public constant halfNodes = 1;\n  uint16 public constant minSuperNodes = 1;\n  uint16 public constant minNodes = 1; */\n\n  uint16 public constant most = 67;\n  uint16 public constant half = 51;\n  uint16 public constant less = 33;\n\n  mapping(address => mapping(uint256 => bool)) private Voter;\n\n  constructor(address _tokenAddress) public {\n    token = KOL(_tokenAddress);\n  }\n\n  event MissionPassed(uint256 _missionId,bytes32 _name);\n  event OfferingFinished(uint256 _missionId,uint256 _totalAmount,uint256 _length);\n  event MissionLaunched(bytes32 _name,uint256 _missionId,address _whoLaunch);\n  event AllTokenBack(address _fund,uint256 _amount);\n  event Recycled(address _node,uint256 _amount);\n  event RateChanged(uint256 _rate);\n\n\n  modifier onlySuperNode() {\n    require(token.querySuperNode(msg.sender));\n      _;\n  }\n  modifier onlyNode() {\n      require(token.queryNode(msg.sender));\n      _;\n  }\n  modifier onlyNodes() {\n      require(token.querySuperNode(msg.sender)||token.queryNode(msg.sender));\n      _;\n  }\n\n  struct KolMission{\n    uint256 startTime;\n    uint256 endTime;\n    uint256 totalAmount;\n    uint256 offeringAmount;\n    uint256 rate;\n    bytes32 name;\n    address recycleNodeAddr;\n    uint16 agreeNodes;\n    uint16 refuseNodes;\n    uint16 agreeSuperNodes;\n    uint16 refuseSuperNodes;\n    bool superPassed;\n    bool nodePassed;\n    bool done;\n  }\n  mapping (uint256 => KolMission) private missionList;\n\n  struct KolOffering{\n    address target;\n    uint256 targetAmount;\n  }\n\n  mapping (address => uint256) private nodeBalance;\n  mapping (address => uint256) private nodeReleasedBalance;\n\n  KolOffering[] private kolOfferings;\n  mapping(uint256 => KolOffering[]) private offeringList;\n\n  function missionPassed(uint256 _missionId) private {\n    emit MissionPassed(_missionId,missionList[_missionId].name);\n  }\n  function createKolMission(bytes32 _name,uint256 _totalAmount,address _recycleNodeAddr,uint256 _rate) onlyNodes public {\n      bytes32 iName = _name;\n      uint256 balance = token.balanceOf(this);\n      uint256 allLeftBalance = balanceAll.sub(releasedAll);\n      require(balance >= allLeftBalance.add(_totalAmount));\n      missionList[missionId] = KolMission(uint256(now),\n                                          uint256(now + dealTime),\n                                          _totalAmount,\n                                          0,\n                                          _rate,\n                                          iName,\n                                          _recycleNodeAddr,\n                                          0,\n                                          0,\n                                          0,\n                                          0,\n                                          false,\n                                          false,\n                                          false);\n\n      missionId++;\n      emit MissionLaunched(iName,missionId-1,msg.sender);\n  }\n  function voteMission(uint16 _type,uint256 _missionId,bool _agree) onlyNodes public{\n    require(!Voter[msg.sender][_missionId]);\n    require(!missionList[_missionId].done);\n    uint16 minNodesNum = minNodes;\n    uint16 minSuperNodesNum = minSuperNodes;\n    uint16 passNodes = halfNodes;\n    uint16 passSuperNodes = halfSuperNodes;\n    uint16 rate = half;\n\n    if (_type == 1){\n      require(token.querySuperNode(msg.sender));\n    }else if (_type ==2){\n      require(token.queryNode(msg.sender));\n    }\n\n    if(now > missionList[_missionId].endTime){\n      if ( _type == 1 ){\n        if (\n          (missionList[_missionId].agreeSuperNodes + missionList[_missionId].refuseSuperNodes)>=minSuperNodesNum\n          &&\n          missionList[_missionId].agreeSuperNodes >= (missionList[_missionId].agreeSuperNodes + missionList[_missionId].refuseSuperNodes) * rate/100\n          ){\n            missionList[_missionId].superPassed = true;\n            missionPassed(_missionId);\n        }\n      }else if (_type ==2 ){\n        //\n        if (\n          (missionList[_missionId].agreeNodes + missionList[_missionId].refuseNodes)>=minNodesNum\n          &&\n          missionList[_missionId].agreeNodes >= (missionList[_missionId].refuseNodes + missionList[_missionId].refuseNodes) * rate/100\n          ){\n            missionList[_missionId].nodePassed = true;\n        }\n      }\n    }else{\n      if(_agree == true){\n        if (_type == 1){\n          missionList[_missionId].agreeSuperNodes++;\n        }else if(_type == 2){\n          missionList[_missionId].agreeNodes++;\n        }\n      }\n      else{\n        if (_type == 1){\n          missionList[_missionId].refuseSuperNodes++;\n        }else if(_type == 2){\n          missionList[_missionId].refuseNodes++;\n        }\n      }\n      if (_type == 1){\n        if (missionList[_missionId].agreeSuperNodes >= passSuperNodes) {\n            missionList[_missionId].superPassed = true;\n            missionPassed(_missionId);\n        }else if (missionList[_missionId].refuseSuperNodes >= passSuperNodes) {\n            missionList[_missionId].done = true;\n        }\n      }else if (_type ==2){\n        if (missionList[_missionId].agreeNodes >= passNodes) {\n            missionList[_missionId].nodePassed = true;\n        }else if (missionList[_missionId].refuseNodes >= passNodes) {\n            missionList[_missionId].done = true;\n        }\n      }\n    }\n    Voter[msg.sender][_missionId] = true;\n  }\n\n  function excuteVote(uint256 _missionId) onlyOwner public {\n    require(!missionList[_missionId].done);\n    require(uint256(now) < (missionList[_missionId].endTime + uint256(dealTime)));\n    require(missionList[_missionId].superPassed);\n    require(missionList[_missionId].nodePassed);\n    if (missionList[_missionId].name == \"TRANSFER ALL KOL TO FUND\"){\n      transferAllKolToFund();\n      missionList[_missionId].done = true;\n    }else if (missionList[_missionId].name == \"RECYCLE KOL FROM OLDNODE\"){\n      recycleKOL(missionList[_missionId].recycleNodeAddr);\n      missionList[_missionId].done = true;\n    }else if(missionList[_missionId].name == \"CHANGE RELEASE RATE\"){\n      nodeRate = missionList[_missionId].rate;\n      missionList[_missionId].done = true;\n      emit RateChanged(nodeRate);\n    }else{\n      require(token.balanceOf(this).add(releasedAll) >= balanceAll.add(missionList[_missionId].totalAmount));\n      require(missionList[_missionId].totalAmount == missionList[_missionId].offeringAmount);\n      for (uint m = 0; m < offeringList[_missionId].length; m++){\n        //\n        /* token.transfer(offeringList[_missionId][m].target, offeringList[_missionId][m].targetAmount); */\n        nodeBalance[offeringList[_missionId][m].target] = nodeBalance[offeringList[_missionId][m].target].add(offeringList[_missionId][m].targetAmount);\n      }\n      balanceAll = balanceAll.add(missionList[_missionId].offeringAmount);\n      nodeRate = missionList[_missionId].rate;\n      missionList[_missionId].done = true;\n      emit RateChanged(nodeRate);\n      emit OfferingFinished(_missionId,missionList[_missionId].offeringAmount,offeringList[_missionId].length);\n    }\n\n  }\n  function getMission1(uint256 _missionId) public view returns(uint256,\n                                                            uint256,\n                                                            uint256,\n                                                            uint256,\n                                                            uint256,\n                                                            bytes32,\n                                                            address){\n    return(missionList[_missionId].startTime,\n            missionList[_missionId].endTime,\n            missionList[_missionId].totalAmount,\n            missionList[_missionId].offeringAmount,\n            missionList[_missionId].rate,\n            missionList[_missionId].name,\n            missionList[_missionId].recycleNodeAddr);\n  }\n  function getMission2(uint256 _missionId) public view returns(uint16,\n                                                              uint16,\n                                                              uint16,\n                                                              uint16,\n                                                              bool,\n                                                              bool,\n                                                              bool){\n    return(\n          missionList[_missionId].agreeNodes,\n          missionList[_missionId].refuseNodes,\n          missionList[_missionId].agreeSuperNodes,\n          missionList[_missionId].refuseSuperNodes,\n          missionList[_missionId].superPassed,\n          missionList[_missionId].nodePassed,\n          missionList[_missionId].done);\n  }\n  function getOfferings(uint256 _missionId,uint256 _id) public view returns(address,uint256,uint256){\n    return(offeringList[_missionId][_id].target,offeringList[_missionId][_id].targetAmount,offeringList[_missionId].length);\n  }\n\n  function addKolOffering(uint256 _missionId,address[] _target ,uint256[] _targetAmount) onlyNodes public{\n    require(missionList[_missionId].superPassed);\n    require(!missionList[_missionId].done);\n    require(_target.length == _targetAmount.length);\n    bool isNode = false;\n    for (uint j = 0; j< _targetAmount.length; j++){\n\n      isNode = token.queryNode(_target[j])||token.querySuperNode(_target[j]);\n      require(isNode);\n      missionList[_missionId].offeringAmount = missionList[_missionId].offeringAmount.add(_targetAmount[j]);\n      offeringList[_missionId].push(KolOffering(_target[j],_targetAmount[j]));\n\n    }\n    require(missionList[_missionId].totalAmount >= missionList[_missionId].offeringAmount);\n\n  }\n  function voted(address _node,uint256 _missionId) public view returns(bool){\n    return Voter[_node][_missionId];\n  }\n  function getKOL() onlyNodes public {\n\n    require(nodeBalance[msg.sender] > 0);\n    uint256 amount = nodeBalance[msg.sender].mul(nodeRate).div(100);\n    uint256 releaseKol = amount.sub(nodeReleasedBalance[msg.sender]);\n    require(releaseKol > 0);\n    require(nodeReleasedBalance[msg.sender].add(releaseKol)<=nodeBalance[msg.sender]);\n    require(token.balanceOf(this) >= releaseKol);\n\n    token.transfer(msg.sender, releaseKol);\n    nodeReleasedBalance[msg.sender] = nodeReleasedBalance[msg.sender].add(releaseKol);\n    releasedAll = releasedAll.add(releaseKol);\n  }\n  function queryBalance(address _node) onlyNodes public view returns(uint256,uint256){\n    return(nodeBalance[_node],nodeReleasedBalance[_node]);\n  }\n  function transferAllKolToFund() private {\n    address fund = 0x27750e6D41Aef99501eBC256538c6A13a254Ea15;\n    uint256 balance = token.balanceOf(this);\n    token.transfer(fund, balance);\n    emit AllTokenBack(fund,balance);\n  }\n  function recycleKOL(address _node) private {\n    require((!token.queryNode(_node)) && (!token.querySuperNode(msg.sender)));\n    require(nodeBalance[_node] > 0);\n    uint256 recycles = nodeBalance[_node].sub(nodeReleasedBalance[_node]);\n    balanceAll = balanceAll.sub(recycles);\n    nodeBalance[_node] = nodeReleasedBalance[_node];\n    emit Recycled(_node,recycles);\n  }\n  function leftKOL() public view returns(uint256,bool) {\n    uint256 balance = token.balanceOf(this);\n    uint256 allLeftBalance = balanceAll.sub(releasedAll);\n    if (balance >= allLeftBalance)\n      return(balance.sub(allLeftBalance),true);\n    else\n      return(allLeftBalance.sub(balance),false);\n  }\n\n}\n",
  "sourcePath": "/Users/jack/git/github/KOL/contracts/KOLLockNode.sol",
  "compiler": {
    "name": "solc",
    "version": "0.4.23+commit.124ca40d.Emscripten.clang"
  },
  "schemaVersion": "3.0.19",
  "updatedAt": "2020-04-06T04:12:45.148Z",
  "networkType": "ethereum",
  "devdoc": {
    "methods": {},
    "title": "KOL Node Lock & Release Contract"
  },
  "userdoc": {
    "methods": {}
  }
}