{
  "contractName": "KOLPro",
  "abi": [
    {
      "constant": true,
      "inputs": [
        {
          "name": "",
          "type": "address"
        }
      ],
      "name": "isLevelN",
      "outputs": [
        {
          "name": "",
          "type": "uint8"
        }
      ],
      "payable": false,
      "stateMutability": "view",
      "type": "function"
    },
    {
      "constant": true,
      "inputs": [],
      "name": "comLevel3",
      "outputs": [
        {
          "name": "",
          "type": "uint8"
        }
      ],
      "payable": false,
      "stateMutability": "view",
      "type": "function"
    },
    {
      "constant": true,
      "inputs": [],
      "name": "name",
      "outputs": [
        {
          "name": "",
          "type": "string"
        }
      ],
      "payable": false,
      "stateMutability": "view",
      "type": "function"
    },
    {
      "constant": true,
      "inputs": [],
      "name": "comLevel2Amount",
      "outputs": [
        {
          "name": "",
          "type": "uint256"
        }
      ],
      "payable": false,
      "stateMutability": "view",
      "type": "function"
    },
    {
      "constant": true,
      "inputs": [],
      "name": "kol",
      "outputs": [
        {
          "name": "",
          "type": "address"
        }
      ],
      "payable": false,
      "stateMutability": "view",
      "type": "function"
    },
    {
      "constant": true,
      "inputs": [],
      "name": "comLevel3Amount",
      "outputs": [
        {
          "name": "",
          "type": "uint256"
        }
      ],
      "payable": false,
      "stateMutability": "view",
      "type": "function"
    },
    {
      "constant": true,
      "inputs": [],
      "name": "begin",
      "outputs": [
        {
          "name": "",
          "type": "uint256"
        }
      ],
      "payable": false,
      "stateMutability": "view",
      "type": "function"
    },
    {
      "constant": true,
      "inputs": [
        {
          "name": "",
          "type": "address"
        }
      ],
      "name": "TotalLockingAmount",
      "outputs": [
        {
          "name": "",
          "type": "uint256"
        }
      ],
      "payable": false,
      "stateMutability": "view",
      "type": "function"
    },
    {
      "constant": true,
      "inputs": [],
      "name": "comLevel2Users",
      "outputs": [
        {
          "name": "",
          "type": "uint16"
        }
      ],
      "payable": false,
      "stateMutability": "view",
      "type": "function"
    },
    {
      "constant": true,
      "inputs": [
        {
          "name": "",
          "type": "address"
        },
        {
          "name": "",
          "type": "uint256"
        }
      ],
      "name": "LockHistory",
      "outputs": [
        {
          "name": "begin",
          "type": "uint256"
        },
        {
          "name": "amount",
          "type": "uint256"
        },
        {
          "name": "end",
          "type": "uint256"
        },
        {
          "name": "withDrawed",
          "type": "bool"
        }
      ],
      "payable": false,
      "stateMutability": "view",
      "type": "function"
    },
    {
      "constant": true,
      "inputs": [],
      "name": "comLevel1Amount",
      "outputs": [
        {
          "name": "",
          "type": "uint256"
        }
      ],
      "payable": false,
      "stateMutability": "view",
      "type": "function"
    },
    {
      "constant": true,
      "inputs": [
        {
          "name": "",
          "type": "uint256"
        }
      ],
      "name": "ClosePrice",
      "outputs": [
        {
          "name": "",
          "type": "uint256"
        }
      ],
      "payable": false,
      "stateMutability": "view",
      "type": "function"
    },
    {
      "constant": true,
      "inputs": [
        {
          "name": "",
          "type": "address"
        }
      ],
      "name": "LockBalance",
      "outputs": [
        {
          "name": "",
          "type": "uint256"
        }
      ],
      "payable": false,
      "stateMutability": "view",
      "type": "function"
    },
    {
      "constant": true,
      "inputs": [
        {
          "name": "",
          "type": "address"
        }
      ],
      "name": "USDTOrCoin",
      "outputs": [
        {
          "name": "",
          "type": "bool"
        }
      ],
      "payable": false,
      "stateMutability": "view",
      "type": "function"
    },
    {
      "constant": true,
      "inputs": [
        {
          "name": "",
          "type": "address"
        },
        {
          "name": "",
          "type": "uint256"
        }
      ],
      "name": "InviteList",
      "outputs": [
        {
          "name": "",
          "type": "address"
        }
      ],
      "payable": false,
      "stateMutability": "view",
      "type": "function"
    },
    {
      "constant": true,
      "inputs": [],
      "name": "userLevel2",
      "outputs": [
        {
          "name": "",
          "type": "uint8"
        }
      ],
      "payable": false,
      "stateMutability": "view",
      "type": "function"
    },
    {
      "constant": true,
      "inputs": [],
      "name": "every",
      "outputs": [
        {
          "name": "",
          "type": "uint256"
        }
      ],
      "payable": false,
      "stateMutability": "view",
      "type": "function"
    },
    {
      "constant": true,
      "inputs": [],
      "name": "iCode",
      "outputs": [
        {
          "name": "",
          "type": "uint256"
        }
      ],
      "payable": false,
      "stateMutability": "view",
      "type": "function"
    },
    {
      "constant": true,
      "inputs": [
        {
          "name": "",
          "type": "uint8"
        }
      ],
      "name": "levelRate",
      "outputs": [
        {
          "name": "",
          "type": "uint8"
        }
      ],
      "payable": false,
      "stateMutability": "view",
      "type": "function"
    },
    {
      "constant": true,
      "inputs": [],
      "name": "comLevel2",
      "outputs": [
        {
          "name": "",
          "type": "uint8"
        }
      ],
      "payable": false,
      "stateMutability": "view",
      "type": "function"
    },
    {
      "constant": true,
      "inputs": [],
      "name": "withDrawDays",
      "outputs": [
        {
          "name": "",
          "type": "uint256"
        }
      ],
      "payable": false,
      "stateMutability": "view",
      "type": "function"
    },
    {
      "constant": true,
      "inputs": [
        {
          "name": "",
          "type": "address"
        },
        {
          "name": "",
          "type": "uint256"
        }
      ],
      "name": "TeamRateList",
      "outputs": [
        {
          "name": "rate",
          "type": "uint8"
        },
        {
          "name": "changeTime",
          "type": "uint256"
        }
      ],
      "payable": false,
      "stateMutability": "view",
      "type": "function"
    },
    {
      "constant": true,
      "inputs": [
        {
          "name": "",
          "type": "address"
        },
        {
          "name": "",
          "type": "uint256"
        }
      ],
      "name": "LockTeamBonus",
      "outputs": [
        {
          "name": "theDayLastSecond",
          "type": "uint256"
        },
        {
          "name": "theDayTeamBonus",
          "type": "uint256"
        },
        {
          "name": "totalTeamBonus",
          "type": "uint256"
        },
        {
          "name": "theDayRate",
          "type": "uint8"
        }
      ],
      "payable": false,
      "stateMutability": "view",
      "type": "function"
    },
    {
      "constant": true,
      "inputs": [],
      "name": "comLevel3Users",
      "outputs": [
        {
          "name": "",
          "type": "uint16"
        }
      ],
      "payable": false,
      "stateMutability": "view",
      "type": "function"
    },
    {
      "constant": true,
      "inputs": [],
      "name": "comLevel1Users",
      "outputs": [
        {
          "name": "",
          "type": "uint16"
        }
      ],
      "payable": false,
      "stateMutability": "view",
      "type": "function"
    },
    {
      "constant": true,
      "inputs": [],
      "name": "inviteLevel1",
      "outputs": [
        {
          "name": "",
          "type": "uint8"
        }
      ],
      "payable": false,
      "stateMutability": "view",
      "type": "function"
    },
    {
      "constant": true,
      "inputs": [
        {
          "name": "",
          "type": "address"
        }
      ],
      "name": "RInviteCode",
      "outputs": [
        {
          "name": "",
          "type": "uint256"
        }
      ],
      "payable": false,
      "stateMutability": "view",
      "type": "function"
    },
    {
      "constant": true,
      "inputs": [],
      "name": "owner",
      "outputs": [
        {
          "name": "",
          "type": "address"
        }
      ],
      "payable": false,
      "stateMutability": "view",
      "type": "function"
    },
    {
      "constant": true,
      "inputs": [],
      "name": "inviteLevel2",
      "outputs": [
        {
          "name": "",
          "type": "uint8"
        }
      ],
      "payable": false,
      "stateMutability": "view",
      "type": "function"
    },
    {
      "constant": true,
      "inputs": [],
      "name": "totalBalance",
      "outputs": [
        {
          "name": "",
          "type": "uint256"
        }
      ],
      "payable": false,
      "stateMutability": "view",
      "type": "function"
    },
    {
      "constant": true,
      "inputs": [],
      "name": "inviteLevel3",
      "outputs": [
        {
          "name": "",
          "type": "uint8"
        }
      ],
      "payable": false,
      "stateMutability": "view",
      "type": "function"
    },
    {
      "constant": true,
      "inputs": [],
      "name": "maxlevel",
      "outputs": [
        {
          "name": "",
          "type": "uint8"
        }
      ],
      "payable": false,
      "stateMutability": "view",
      "type": "function"
    },
    {
      "constant": true,
      "inputs": [],
      "name": "comLevel1",
      "outputs": [
        {
          "name": "",
          "type": "uint8"
        }
      ],
      "payable": false,
      "stateMutability": "view",
      "type": "function"
    },
    {
      "constant": true,
      "inputs": [
        {
          "name": "",
          "type": "uint256"
        }
      ],
      "name": "InviteCode",
      "outputs": [
        {
          "name": "",
          "type": "address"
        }
      ],
      "payable": false,
      "stateMutability": "view",
      "type": "function"
    },
    {
      "constant": true,
      "inputs": [],
      "name": "going",
      "outputs": [
        {
          "name": "",
          "type": "bool"
        }
      ],
      "payable": false,
      "stateMutability": "view",
      "type": "function"
    },
    {
      "constant": true,
      "inputs": [],
      "name": "fee",
      "outputs": [
        {
          "name": "",
          "type": "uint8"
        }
      ],
      "payable": false,
      "stateMutability": "view",
      "type": "function"
    },
    {
      "constant": true,
      "inputs": [
        {
          "name": "",
          "type": "address"
        }
      ],
      "name": "TotalUsers",
      "outputs": [
        {
          "name": "",
          "type": "uint256"
        }
      ],
      "payable": false,
      "stateMutability": "view",
      "type": "function"
    },
    {
      "constant": true,
      "inputs": [],
      "name": "userLevel1",
      "outputs": [
        {
          "name": "",
          "type": "uint8"
        }
      ],
      "payable": false,
      "stateMutability": "view",
      "type": "function"
    },
    {
      "constant": true,
      "inputs": [
        {
          "name": "",
          "type": "address"
        },
        {
          "name": "",
          "type": "uint256"
        }
      ],
      "name": "LockInviteBonus",
      "outputs": [
        {
          "name": "theDayLastSecond",
          "type": "uint256"
        },
        {
          "name": "theDayInviteBonus",
          "type": "uint256"
        },
        {
          "name": "totalInviteBonus",
          "type": "uint256"
        }
      ],
      "payable": false,
      "stateMutability": "view",
      "type": "function"
    },
    {
      "constant": true,
      "inputs": [],
      "name": "end",
      "outputs": [
        {
          "name": "",
          "type": "uint256"
        }
      ],
      "payable": false,
      "stateMutability": "view",
      "type": "function"
    },
    {
      "constant": false,
      "inputs": [
        {
          "name": "newOwner",
          "type": "address"
        }
      ],
      "name": "transferOwnership",
      "outputs": [],
      "payable": false,
      "stateMutability": "nonpayable",
      "type": "function"
    },
    {
      "constant": true,
      "inputs": [],
      "name": "totalRegister",
      "outputs": [
        {
          "name": "",
          "type": "uint256"
        }
      ],
      "payable": false,
      "stateMutability": "view",
      "type": "function"
    },
    {
      "constant": true,
      "inputs": [
        {
          "name": "",
          "type": "address"
        },
        {
          "name": "",
          "type": "uint256"
        }
      ],
      "name": "ChildAddrs",
      "outputs": [
        {
          "name": "",
          "type": "address"
        }
      ],
      "payable": false,
      "stateMutability": "view",
      "type": "function"
    },
    {
      "inputs": [
        {
          "name": "_tokenAddress",
          "type": "address"
        },
        {
          "name": "_receiver",
          "type": "address"
        },
        {
          "name": "_begin",
          "type": "uint256"
        },
        {
          "name": "_end",
          "type": "uint256"
        }
      ],
      "payable": false,
      "stateMutability": "nonpayable",
      "type": "constructor"
    },
    {
      "anonymous": false,
      "inputs": [
        {
          "indexed": false,
          "name": "_user",
          "type": "address"
        },
        {
          "indexed": false,
          "name": "inviteCode",
          "type": "uint256"
        }
      ],
      "name": "Registed",
      "type": "event"
    },
    {
      "anonymous": false,
      "inputs": [
        {
          "indexed": false,
          "name": "_user",
          "type": "address"
        },
        {
          "indexed": false,
          "name": "_theTime",
          "type": "uint256"
        },
        {
          "indexed": false,
          "name": "_amount",
          "type": "uint256"
        },
        {
          "indexed": false,
          "name": "_usdtOrCoin",
          "type": "bool"
        }
      ],
      "name": "Joined",
      "type": "event"
    },
    {
      "anonymous": false,
      "inputs": [
        {
          "indexed": false,
          "name": "_user",
          "type": "address"
        },
        {
          "indexed": false,
          "name": "_oldLevel",
          "type": "uint8"
        },
        {
          "indexed": false,
          "name": "_newLevel",
          "type": "uint8"
        }
      ],
      "name": "GradeChanged",
      "type": "event"
    },
    {
      "constant": false,
      "inputs": [
        {
          "name": "_fInviteCode",
          "type": "uint256"
        }
      ],
      "name": "register",
      "outputs": [],
      "payable": false,
      "stateMutability": "nonpayable",
      "type": "function"
    },
    {
      "constant": false,
      "inputs": [
        {
          "name": "_amount",
          "type": "uint256"
        },
        {
          "name": "_usdtOrCoin",
          "type": "bool"
        }
      ],
      "name": "join",
      "outputs": [],
      "payable": true,
      "stateMutability": "payable",
      "type": "function"
    },
    {
      "constant": true,
      "inputs": [
        {
          "name": "_selfAddr",
          "type": "address"
        },
        {
          "name": "_topAddr",
          "type": "address"
        },
        {
          "name": "_amount",
          "type": "uint256"
        }
      ],
      "name": "calcuDiffAmount",
      "outputs": [
        {
          "name": "",
          "type": "uint256"
        }
      ],
      "payable": false,
      "stateMutability": "view",
      "type": "function"
    },
    {
      "constant": false,
      "inputs": [
        {
          "name": "_topAddr",
          "type": "address"
        },
        {
          "name": "_minAmount",
          "type": "uint256"
        }
      ],
      "name": "setTopTeamBonus",
      "outputs": [
        {
          "name": "",
          "type": "uint8"
        }
      ],
      "payable": false,
      "stateMutability": "nonpayable",
      "type": "function"
    },
    {
      "constant": false,
      "inputs": [
        {
          "name": "_addr",
          "type": "address"
        }
      ],
      "name": "queryAndSetLevelN",
      "outputs": [],
      "payable": false,
      "stateMutability": "nonpayable",
      "type": "function"
    },
    {
      "constant": true,
      "inputs": [
        {
          "name": "_addr",
          "type": "address"
        },
        {
          "name": "_queryTime",
          "type": "uint256"
        }
      ],
      "name": "queryLockBalance",
      "outputs": [
        {
          "name": "",
          "type": "uint256"
        }
      ],
      "payable": false,
      "stateMutability": "view",
      "type": "function"
    },
    {
      "constant": true,
      "inputs": [
        {
          "name": "_queryTime",
          "type": "uint256"
        }
      ],
      "name": "getYestodayLastSecond",
      "outputs": [
        {
          "name": "",
          "type": "uint256"
        }
      ],
      "payable": false,
      "stateMutability": "view",
      "type": "function"
    },
    {
      "constant": false,
      "inputs": [
        {
          "name": "price",
          "type": "uint256"
        },
        {
          "name": "_queryTime",
          "type": "uint256"
        }
      ],
      "name": "putClosePrice",
      "outputs": [],
      "payable": false,
      "stateMutability": "nonpayable",
      "type": "function"
    },
    {
      "constant": false,
      "inputs": [
        {
          "name": "_addr",
          "type": "address"
        }
      ],
      "name": "setContract",
      "outputs": [],
      "payable": false,
      "stateMutability": "nonpayable",
      "type": "function"
    },
    {
      "constant": false,
      "inputs": [
        {
          "name": "_going",
          "type": "bool"
        }
      ],
      "name": "setGoing",
      "outputs": [],
      "payable": false,
      "stateMutability": "nonpayable",
      "type": "function"
    },
    {
      "constant": false,
      "inputs": [
        {
          "name": "_end",
          "type": "uint256"
        }
      ],
      "name": "setEnd",
      "outputs": [],
      "payable": false,
      "stateMutability": "nonpayable",
      "type": "function"
    },
    {
      "constant": false,
      "inputs": [
        {
          "name": "_level",
          "type": "uint8"
        },
        {
          "name": "_users",
          "type": "uint16"
        },
        {
          "name": "_amount",
          "type": "uint256"
        }
      ],
      "name": "setLevelN",
      "outputs": [],
      "payable": false,
      "stateMutability": "nonpayable",
      "type": "function"
    },
    {
      "constant": false,
      "inputs": [
        {
          "name": "_addr",
          "type": "address"
        }
      ],
      "name": "clearLock",
      "outputs": [],
      "payable": false,
      "stateMutability": "nonpayable",
      "type": "function"
    },
    {
      "constant": false,
      "inputs": [
        {
          "name": "_addr",
          "type": "address"
        },
        {
          "name": "_theDayLastSecond",
          "type": "uint256"
        },
        {
          "name": "_theDayInviteBonus",
          "type": "uint256"
        },
        {
          "name": "_totalInviteBonus",
          "type": "uint256"
        }
      ],
      "name": "pushInvite",
      "outputs": [],
      "payable": false,
      "stateMutability": "nonpayable",
      "type": "function"
    },
    {
      "constant": false,
      "inputs": [
        {
          "name": "_addr",
          "type": "address"
        },
        {
          "name": "_theDayInviteBonus",
          "type": "uint256"
        },
        {
          "name": "_totalInviteBonus",
          "type": "uint256"
        }
      ],
      "name": "setLastInvite",
      "outputs": [],
      "payable": false,
      "stateMutability": "nonpayable",
      "type": "function"
    },
    {
      "constant": false,
      "inputs": [
        {
          "name": "_addr",
          "type": "address"
        },
        {
          "name": "_theDayLastSecond",
          "type": "uint256"
        },
        {
          "name": "_theDayTeamBonus",
          "type": "uint256"
        },
        {
          "name": "_totalTeamBonus",
          "type": "uint256"
        },
        {
          "name": "_theDayRate",
          "type": "uint8"
        }
      ],
      "name": "pushTeam",
      "outputs": [],
      "payable": false,
      "stateMutability": "nonpayable",
      "type": "function"
    },
    {
      "constant": false,
      "inputs": [
        {
          "name": "_addr",
          "type": "address"
        },
        {
          "name": "_theDayTeamBonus",
          "type": "uint256"
        },
        {
          "name": "_totalTeamBonus",
          "type": "uint256"
        },
        {
          "name": "_theDayRate",
          "type": "uint8"
        }
      ],
      "name": "setLastTeam",
      "outputs": [],
      "payable": false,
      "stateMutability": "nonpayable",
      "type": "function"
    },
    {
      "constant": false,
      "inputs": [
        {
          "name": "_addr",
          "type": "address"
        }
      ],
      "name": "subTotalUsers",
      "outputs": [],
      "payable": false,
      "stateMutability": "nonpayable",
      "type": "function"
    },
    {
      "constant": false,
      "inputs": [
        {
          "name": "_addr",
          "type": "address"
        },
        {
          "name": "_amount",
          "type": "uint256"
        }
      ],
      "name": "subTotalLockingAmount",
      "outputs": [],
      "payable": false,
      "stateMutability": "nonpayable",
      "type": "function"
    },
    {
      "constant": false,
      "inputs": [
        {
          "name": "_amount",
          "type": "uint256"
        }
      ],
      "name": "subTotalBalance",
      "outputs": [],
      "payable": false,
      "stateMutability": "nonpayable",
      "type": "function"
    },
    {
      "constant": true,
      "inputs": [
        {
          "name": "_addr",
          "type": "address"
        }
      ],
      "name": "getLockLen",
      "outputs": [
        {
          "name": "",
          "type": "uint256"
        }
      ],
      "payable": false,
      "stateMutability": "view",
      "type": "function"
    },
    {
      "constant": true,
      "inputs": [
        {
          "name": "_addr",
          "type": "address"
        }
      ],
      "name": "getFathersLength",
      "outputs": [
        {
          "name": "",
          "type": "uint256"
        }
      ],
      "payable": false,
      "stateMutability": "view",
      "type": "function"
    },
    {
      "constant": true,
      "inputs": [
        {
          "name": "_addr",
          "type": "address"
        }
      ],
      "name": "getLockTeamBonusLen",
      "outputs": [
        {
          "name": "",
          "type": "uint256"
        }
      ],
      "payable": false,
      "stateMutability": "view",
      "type": "function"
    },
    {
      "constant": true,
      "inputs": [
        {
          "name": "_addr",
          "type": "address"
        }
      ],
      "name": "getLockInviteBonusLen",
      "outputs": [
        {
          "name": "",
          "type": "uint256"
        }
      ],
      "payable": false,
      "stateMutability": "view",
      "type": "function"
    },
    {
      "constant": true,
      "inputs": [
        {
          "name": "_addr",
          "type": "address"
        }
      ],
      "name": "getChildsLen",
      "outputs": [
        {
          "name": "",
          "type": "uint256"
        }
      ],
      "payable": false,
      "stateMutability": "view",
      "type": "function"
    },
    {
      "constant": false,
      "inputs": [
        {
          "name": "_level",
          "type": "uint8"
        },
        {
          "name": "_users",
          "type": "uint16"
        },
        {
          "name": "_amount",
          "type": "uint256"
        }
      ],
      "name": "setLevelC",
      "outputs": [],
      "payable": false,
      "stateMutability": "nonpayable",
      "type": "function"
    },
    {
      "constant": false,
      "inputs": [
        {
          "name": "_level",
          "type": "uint8"
        },
        {
          "name": "_levelRate",
          "type": "uint8"
        }
      ],
      "name": "setLevelR",
      "outputs": [],
      "payable": false,
      "stateMutability": "nonpayable",
      "type": "function"
    },
    {
      "constant": false,
      "inputs": [
        {
          "name": "_receiver",
          "type": "address"
        }
      ],
      "name": "setReceiver",
      "outputs": [],
      "payable": false,
      "stateMutability": "nonpayable",
      "type": "function"
    },
    {
      "constant": false,
      "inputs": [],
      "name": "draw",
      "outputs": [],
      "payable": false,
      "stateMutability": "nonpayable",
      "type": "function"
    }
  ],
  "bytecode": "0x60806040526040805190810160405280600d81526020017f4b4f4c2050726f6d6f74696f6e000000000000000000000000000000000000008152506001908051906020019062000051929190620003ac565b50620151806008556014600b60006101000a81548160ff021916908360ff160217905550600a600b60016101000a81548160ff021916908360ff1602179055506009600b60026101000a81548160ff021916908360ff1602179055506064600b60036101000a81548161ffff021916908361ffff16021790555060c8600b60056101000a81548161ffff021916908361ffff16021790555061012c600b60076101000a81548161ffff021916908361ffff16021790555069065a4da25d3016c00000600c55690a968163f0a57b400000600d5569152d02c7e14af6800000600e556001600f60006101000a81548160ff0219169083151502179055503480156200015a57600080fd5b5060405160808062005eeb83398101806040528101908080519060200190929190805190602001909291908051906020019092919080519060200190929190505050336000806101000a81548173ffffffffffffffffffffffffffffffffffffffff021916908373ffffffffffffffffffffffffffffffffffffffff16021790555083600260006101000a81548173ffffffffffffffffffffffffffffffffffffffff021916908373ffffffffffffffffffffffffffffffffffffffff16021790555082600460006101000a81548173ffffffffffffffffffffffffffffffffffffffff021916908373ffffffffffffffffffffffffffffffffffffffff16021790555081600581905550806006819055506000809054906101000a900473ffffffffffffffffffffffffffffffffffffffff16601a600080815260200190815260200160002060006101000a81548173ffffffffffffffffffffffffffffffffffffffff021916908373ffffffffffffffffffffffffffffffffffffffff1602179055506000601d60008060ff16815260200190815260200160002060006101000a81548160ff021916908360ff1602179055506003601d6000600160ff16815260200190815260200160002060006101000a81548160ff021916908360ff1602179055506005601d6000600260ff16815260200190815260200160002060006101000a81548160ff021916908360ff160217905550600a601d6000600360ff16815260200190815260200160002060006101000a81548160ff021916908360ff160217905550505050506200045b565b828054600181600116156101000203166002900490600052602060002090601f016020900481019282601f10620003ef57805160ff191683800117855562000420565b8280016001018555821562000420579182015b828111156200041f57825182559160200191906001019062000402565b5b5090506200042f919062000433565b5090565b6200045891905b80821115620004545760008160009055506001016200043a565b5090565b90565b615a80806200046b6000396000f30060806040526004361061034d576000357c0100000000000000000000000000000000000000000000000000000000900463ffffffff16806219757b14610352578063042a59ea1461039a57806305536ac2146103f7578063057a53fc14610428578063069f19ce1461046b57806306fdde03146104cc57806308b7da391461055c5780630dcba2d1146105875780630eecae21146105de5780630efd7661146105f55780631251b7a41461062057806315038e9e146106775780631bce6ff3146106e55780631ecf396d146107105780632217e6b6146107675780632253d3811461079a57806324750558146108145780632517656b1461087b578063254fbd72146108fc578063275cdec314610953578063294b48161461097e5780632a61ae19146109bf5780632e39140f14610a165780632f63c36514610a77578063312b43ad14610ad25780633983c66514610b2957806339e01ed814610bb65780633a9c7d1214610bf35780633bc6cf4714610c24578063571f231514610c4f5780635b204f4c14610c7a5780635dbac10e14610cc457806360cd2f7c14610cf557806361c17fa914610d205780636463a1d014610d4f5780636f42d97f14610d865780637132c03a14610dea578063718da7ee14610e5857806372e03a5c14610e9b57806375f890ab14610f175780637c4bc6f714610f5a5780637f498ffc14610f87578063808fe48a14610fb45780638099a6a614610fe757806389689e451461101a5780638be7038e1461104b5780638da5cb5b146110a25780638dc73521146110f957806396931d111461113c578063a1aebce81461116d578063ad7a672f146111c4578063b4c81c68146111ef578063bf131ad214611220578063c93ae0fc14611261578063cb3cdc4b146112b8578063cc7bc3a0146112e9578063cccbeebf1461131a578063d0b3da9914611387578063d4d2a5e2146113b3578063d7320563146113fb578063d83a3c951461143e578063d8495ac31461148b578063dbf46a02146114e2578063ddca3f4314611511578063e1d1792d14611542578063e4ebc0e814611599578063e77f9124146115ca578063efbe1c1c14611639578063f207564e14611664578063f2fde38b14611691578063f718924a146116d4578063fca2aca5146116ff575b600080fd5b34801561035e57600080fd5b50610398600480360381019080803560ff169060200190929190803561ffff1690602001909291908035906020019092919050505061178c565b005b3480156103a657600080fd5b506103db600480360381019080803573ffffffffffffffffffffffffffffffffffffffff169060200190929190505050611889565b604051808260ff1660ff16815260200191505060405180910390f35b34801561040357600080fd5b5061040c6118a9565b604051808260ff1660ff16815260200191505060405180910390f35b34801561043457600080fd5b50610469600480360381019080803573ffffffffffffffffffffffffffffffffffffffff1690602001909291905050506118ae565b005b34801561047757600080fd5b506104b6600480360381019080803573ffffffffffffffffffffffffffffffffffffffff169060200190929190803590602001909291905050506119a4565b6040518082815260200191505060405180910390f35b3480156104d857600080fd5b506104e1611c92565b6040518080602001828103825283818151815260200191508051906020019080838360005b83811015610521578082015181840152602081019050610506565b50505050905090810190601f16801561054e5780820380516001836020036101000a031916815260200191505b509250505060405180910390f35b34801561056857600080fd5b50610571611d30565b6040518082815260200191505060405180910390f35b34801561059357600080fd5b5061059c611d36565b604051808273ffffffffffffffffffffffffffffffffffffffff1673ffffffffffffffffffffffffffffffffffffffff16815260200191505060405180910390f35b3480156105ea57600080fd5b506105f3611d5c565b005b34801561060157600080fd5b5061060a611e28565b6040518082815260200191505060405180910390f35b34801561062c57600080fd5b50610675600480360381019080803573ffffffffffffffffffffffffffffffffffffffff1690602001909291908035906020019092919080359060200190929190505050611e2e565b005b34801561068357600080fd5b506106e3600480360381019080803573ffffffffffffffffffffffffffffffffffffffff169060200190929190803590602001909291908035906020019092919080359060200190929190803560ff169060200190929190505050611f9e565b005b3480156106f157600080fd5b506106fa6120d2565b6040518082815260200191505060405180910390f35b34801561071c57600080fd5b50610751600480360381019080803573ffffffffffffffffffffffffffffffffffffffff1690602001909291905050506120d8565b6040518082815260200191505060405180910390f35b34801561077357600080fd5b5061077c6120f0565b604051808261ffff1661ffff16815260200191505060405180910390f35b3480156107a657600080fd5b506107e5600480360381019080803573ffffffffffffffffffffffffffffffffffffffff16906020019092919080359060200190929190505050612104565b604051808581526020018481526020018381526020018215151515815260200194505050505060405180910390f35b34801561082057600080fd5b5061085f600480360381019080803573ffffffffffffffffffffffffffffffffffffffff1690602001909291908035906020019092919050505061215d565b604051808260ff1660ff16815260200191505060405180910390f35b34801561088757600080fd5b506108e6600480360381019080803573ffffffffffffffffffffffffffffffffffffffff169060200190929190803573ffffffffffffffffffffffffffffffffffffffff16906020019092919080359060200190929190505050612635565b6040518082815260200191505060405180910390f35b34801561090857600080fd5b5061093d600480360381019080803573ffffffffffffffffffffffffffffffffffffffff1690602001909291905050506127b7565b6040518082815260200191505060405180910390f35b34801561095f57600080fd5b50610968612803565b6040518082815260200191505060405180910390f35b34801561098a57600080fd5b506109a960048036038101908080359060200190929190505050612809565b6040518082815260200191505060405180910390f35b3480156109cb57600080fd5b50610a00600480360381019080803573ffffffffffffffffffffffffffffffffffffffff169060200190929190505050612821565b6040518082815260200191505060405180910390f35b348015610a2257600080fd5b50610a75600480360381019080803573ffffffffffffffffffffffffffffffffffffffff169060200190929190803590602001909291908035906020019092919080359060200190929190505050612839565b005b348015610a8357600080fd5b50610ab8600480360381019080803573ffffffffffffffffffffffffffffffffffffffff169060200190929190505050612942565b604051808215151515815260200191505060405180910390f35b348015610ade57600080fd5b50610b13600480360381019080803573ffffffffffffffffffffffffffffffffffffffff169060200190929190505050612962565b6040518082815260200191505060405180910390f35b348015610b3557600080fd5b50610b74600480360381019080803573ffffffffffffffffffffffffffffffffffffffff169060200190929190803590602001909291905050506129ae565b604051808273ffffffffffffffffffffffffffffffffffffffff1673ffffffffffffffffffffffffffffffffffffffff16815260200191505060405180910390f35b348015610bc257600080fd5b50610bf1600480360381019080803560ff169060200190929190803560ff1690602001909291905050506129fb565b005b348015610bff57600080fd5b50610c08612a8c565b604051808260ff1660ff16815260200191505060405180910390f35b348015610c3057600080fd5b50610c39612a9f565b6040518082815260200191505060405180910390f35b348015610c5b57600080fd5b50610c64612aa5565b6040518082815260200191505060405180910390f35b348015610c8657600080fd5b50610ca8600480360381019080803560ff169060200190929190505050612aab565b604051808260ff1660ff16815260200191505060405180910390f35b348015610cd057600080fd5b50610cd9612acb565b604051808260ff1660ff16815260200191505060405180910390f35b348015610d0157600080fd5b50610d0a612ad0565b6040518082815260200191505060405180910390f35b348015610d2c57600080fd5b50610d4d600480360381019080803515159060200190929190505050612ad7565b005b348015610d5b57600080fd5b50610d846004803603810190808035906020019092919080359060200190929190505050612b4f565b005b348015610d9257600080fd5b50610de8600480360381019080803573ffffffffffffffffffffffffffffffffffffffff1690602001909291908035906020019092919080359060200190929190803560ff169060200190929190505050612be5565b005b348015610df657600080fd5b50610e35600480360381019080803573ffffffffffffffffffffffffffffffffffffffff16906020019092919080359060200190929190505050612dcc565b604051808360ff1660ff1681526020018281526020019250505060405180910390f35b348015610e6457600080fd5b50610e99600480360381019080803573ffffffffffffffffffffffffffffffffffffffff169060200190929190505050612e19565b005b348015610ea757600080fd5b50610ee6600480360381019080803573ffffffffffffffffffffffffffffffffffffffff16906020019092919080359060200190929190505050612eb8565b604051808581526020018481526020018381526020018260ff1660ff16815260200194505050505060405180910390f35b348015610f2357600080fd5b50610f58600480360381019080803573ffffffffffffffffffffffffffffffffffffffff169060200190929190505050612f11565b005b348015610f6657600080fd5b50610f8560048036038101908080359060200190929190505050612fb0565b005b348015610f9357600080fd5b50610fb26004803603810190808035906020019092919050505061301f565b005b348015610fc057600080fd5b50610fc9613086565b604051808261ffff1661ffff16815260200191505060405180910390f35b348015610ff357600080fd5b50610ffc61309a565b604051808261ffff1661ffff16815260200191505060405180910390f35b34801561102657600080fd5b5061102f6130ae565b604051808260ff1660ff16815260200191505060405180910390f35b34801561105757600080fd5b5061108c600480360381019080803573ffffffffffffffffffffffffffffffffffffffff1690602001909291905050506130b3565b6040518082815260200191505060405180910390f35b3480156110ae57600080fd5b506110b76130cb565b604051808273ffffffffffffffffffffffffffffffffffffffff1673ffffffffffffffffffffffffffffffffffffffff16815260200191505060405180910390f35b34801561110557600080fd5b5061113a600480360381019080803573ffffffffffffffffffffffffffffffffffffffff1690602001909291905050506130f0565b005b34801561114857600080fd5b506111516132cb565b604051808260ff1660ff16815260200191505060405180910390f35b34801561117957600080fd5b506111ae600480360381019080803573ffffffffffffffffffffffffffffffffffffffff1690602001909291905050506132d0565b6040518082815260200191505060405180910390f35b3480156111d057600080fd5b506111d961331c565b6040518082815260200191505060405180910390f35b3480156111fb57600080fd5b50611204613322565b604051808260ff1660ff16815260200191505060405180910390f35b34801561122c57600080fd5b5061124b60048036038101908080359060200190929190505050613327565b6040518082815260200191505060405180910390f35b34801561126d57600080fd5b506112a2600480360381019080803573ffffffffffffffffffffffffffffffffffffffff16906020019092919050505061337c565b6040518082815260200191505060405180910390f35b3480156112c457600080fd5b506112cd6133c8565b604051808260ff1660ff16815260200191505060405180910390f35b3480156112f557600080fd5b506112fe6133db565b604051808260ff1660ff16815260200191505060405180910390f35b34801561132657600080fd5b50611345600480360381019080803590602001909291905050506133e0565b604051808273ffffffffffffffffffffffffffffffffffffffff1673ffffffffffffffffffffffffffffffffffffffff16815260200191505060405180910390f35b6113b160048036038101908080359060200190929190803515159060200190929190505050613413565b005b3480156113bf57600080fd5b506113f9600480360381019080803560ff169060200190929190803561ffff16906020019092919080359060200190929190505050613e68565b005b34801561140757600080fd5b5061143c600480360381019080803573ffffffffffffffffffffffffffffffffffffffff169060200190929190505050613f65565b005b34801561144a57600080fd5b50611489600480360381019080803573ffffffffffffffffffffffffffffffffffffffff16906020019092919080359060200190929190505050614b1f565b005b34801561149757600080fd5b506114cc600480360381019080803573ffffffffffffffffffffffffffffffffffffffff169060200190929190505050614c15565b6040518082815260200191505060405180910390f35b3480156114ee57600080fd5b506114f7614c61565b604051808215151515815260200191505060405180910390f35b34801561151d57600080fd5b50611526614c74565b604051808260ff1660ff16815260200191505060405180910390f35b34801561154e57600080fd5b50611583600480360381019080803573ffffffffffffffffffffffffffffffffffffffff169060200190929190505050614c79565b6040518082815260200191505060405180910390f35b3480156115a557600080fd5b506115ae614c91565b604051808260ff1660ff16815260200191505060405180910390f35b3480156115d657600080fd5b50611615600480360381019080803573ffffffffffffffffffffffffffffffffffffffff16906020019092919080359060200190929190505050614ca4565b60405180848152602001838152602001828152602001935050505060405180910390f35b34801561164557600080fd5b5061164e614cea565b6040518082815260200191505060405180910390f35b34801561167057600080fd5b5061168f60048036038101908080359060200190929190505050614cf0565b005b34801561169d57600080fd5b506116d2600480360381019080803573ffffffffffffffffffffffffffffffffffffffff169060200190929190505050615398565b005b3480156116e057600080fd5b506116e961546d565b6040518082815260200191505060405180910390f35b34801561170b57600080fd5b5061174a600480360381019080803573ffffffffffffffffffffffffffffffffffffffff16906020019092919080359060200190929190505050615473565b604051808273ffffffffffffffffffffffffffffffffffffffff1673ffffffffffffffffffffffffffffffffffffffff16815260200191505060405180910390f35b6000809054906101000a900473ffffffffffffffffffffffffffffffffffffffff1673ffffffffffffffffffffffffffffffffffffffff163373ffffffffffffffffffffffffffffffffffffffff161415156117e757600080fd5b60018360ff16141561181c5781600b60036101000a81548161ffff021916908361ffff16021790555080600c81905550611884565b60028360ff1614156118515781600b60056101000a81548161ffff021916908361ffff16021790555080600d81905550611883565b60038360ff1614156118825781600b60076101000a81548161ffff021916908361ffff16021790555080600e819055505b5b5b505050565b601c6020528060005260406000206000915054906101000a900460ff1681565b600a81565b600360009054906101000a900473ffffffffffffffffffffffffffffffffffffffff1673ffffffffffffffffffffffffffffffffffffffff163373ffffffffffffffffffffffffffffffffffffffff1614151561190a57600080fd5b6000601860008373ffffffffffffffffffffffffffffffffffffffff1673ffffffffffffffffffffffffffffffffffffffff1681526020019081526020016000205411156119a1576001601860008373ffffffffffffffffffffffffffffffffffffffff1673ffffffffffffffffffffffffffffffffffffffff168152602001908152602001600020600082825403925050819055505b50565b600080600060065484111515156119ba57600080fd5b600090505b601560008673ffffffffffffffffffffffffffffffffffffffff1673ffffffffffffffffffffffffffffffffffffffff16815260200190815260200160002080549050811015611c8757601560008673ffffffffffffffffffffffffffffffffffffffff1673ffffffffffffffffffffffffffffffffffffffff16815260200190815260200160002081815481101515611a5557fe5b906000526020600020906004020160030160009054906101000a900460ff1615611bb057601560008673ffffffffffffffffffffffffffffffffffffffff1673ffffffffffffffffffffffffffffffffffffffff16815260200190815260200160002081815481101515611ac557fe5b9060005260206000209060040201600001548410158015611b435750601560008673ffffffffffffffffffffffffffffffffffffffff1673ffffffffffffffffffffffffffffffffffffffff16815260200190815260200160002081815481101515611b2d57fe5b9060005260206000209060040201600201548411155b15611bab57601560008673ffffffffffffffffffffffffffffffffffffffff1673ffffffffffffffffffffffffffffffffffffffff16815260200190815260200160002081815481101515611b9457fe5b906000526020600020906004020160010154820191505b611c7a565b601560008673ffffffffffffffffffffffffffffffffffffffff1673ffffffffffffffffffffffffffffffffffffffff16815260200190815260200160002081815481101515611bfc57fe5b90600052602060002090600402016000015484101515611c7957601560008673ffffffffffffffffffffffffffffffffffffffff1673ffffffffffffffffffffffffffffffffffffffff16815260200190815260200160002081815481101515611c6257fe5b906000526020600020906004020160010154820191505b5b80806001019150506119bf565b819250505092915050565b60018054600181600116156101000203166002900480601f016020809104026020016040519081016040528092919081815260200182805460018160011615610100020316600290048015611d285780601f10611cfd57610100808354040283529160200191611d28565b820191906000526020600020905b815481529060010190602001808311611d0b57829003601f168201915b505050505081565b600d5481565b600260009054906101000a900473ffffffffffffffffffffffffffffffffffffffff1681565b6000809054906101000a900473ffffffffffffffffffffffffffffffffffffffff1673ffffffffffffffffffffffffffffffffffffffff163373ffffffffffffffffffffffffffffffffffffffff16141515611db757600080fd5b600460009054906101000a900473ffffffffffffffffffffffffffffffffffffffff1673ffffffffffffffffffffffffffffffffffffffff166108fc3073ffffffffffffffffffffffffffffffffffffffff16319081150290604051600060405180830381858888f1935050505050565b600e5481565b6000600360009054906101000a900473ffffffffffffffffffffffffffffffffffffffff1673ffffffffffffffffffffffffffffffffffffffff163373ffffffffffffffffffffffffffffffffffffffff16141515611e8c57600080fd5b6001601160008673ffffffffffffffffffffffffffffffffffffffff1673ffffffffffffffffffffffffffffffffffffffff1681526020019081526020016000208054905003905082601160008673ffffffffffffffffffffffffffffffffffffffff1673ffffffffffffffffffffffffffffffffffffffff16815260200190815260200160002082815481101515611f2157fe5b90600052602060002090600302016001018190555081601160008673ffffffffffffffffffffffffffffffffffffffff1673ffffffffffffffffffffffffffffffffffffffff16815260200190815260200160002082815481101515611f8357fe5b90600052602060002090600302016002018190555050505050565b600360009054906101000a900473ffffffffffffffffffffffffffffffffffffffff1673ffffffffffffffffffffffffffffffffffffffff163373ffffffffffffffffffffffffffffffffffffffff16141515611ffa57600080fd5b601060008673ffffffffffffffffffffffffffffffffffffffff1673ffffffffffffffffffffffffffffffffffffffff1681526020019081526020016000206080604051908101604052808681526020018581526020018481526020018360ff168152509080600181540180825580915050906001820390600052602060002090600402016000909192909190915060008201518160000155602082015181600101556040820151816002015560608201518160030160006101000a81548160ff021916908360ff1602179055505050505050505050565b60055481565b60196020528060005260406000206000915090505481565b600b60059054906101000a900461ffff1681565b60156020528160005260406000208181548110151561211f57fe5b9060005260206000209060040201600091509150508060000154908060010154908060020154908060030160009054906101000a900460ff16905084565b600080612168615a28565b6000806000601d6000601c60008b73ffffffffffffffffffffffffffffffffffffffff1673ffffffffffffffffffffffffffffffffffffffff16815260200190815260200160002060009054906101000a900460ff1660ff1660ff16815260200190815260200160002060009054906101000a900460ff169450608060405190810160405280600081526020016000815260200160008152602001600060ff16815250935060085461221942613327565b0192506000601060008a73ffffffffffffffffffffffffffffffffffffffff1673ffffffffffffffffffffffffffffffffffffffff16815260200190815260200160002080549050141561235a57828460000181815250508684602001818152505060648560ff16880281151561228c57fe5b0484604001818152505084846060019060ff16908160ff1681525050601060008973ffffffffffffffffffffffffffffffffffffffff1673ffffffffffffffffffffffffffffffffffffffff168152602001908152602001600020849080600181540180825580915050906001820390600052602060002090600402016000909192909190915060008201518160000155602082015181600101556040820151816002015560608201518160030160006101000a81548160ff021916908360ff16021790555050505061262a565b6001601060008a73ffffffffffffffffffffffffffffffffffffffff1673ffffffffffffffffffffffffffffffffffffffff16815260200190815260200160002080549050039150601060008973ffffffffffffffffffffffffffffffffffffffff1673ffffffffffffffffffffffffffffffffffffffff168152602001908152602001600020828154811015156123ee57fe5b9060005260206000209060040201608060405190810160405290816000820154815260200160018201548152602001600282015481526020016003820160009054906101000a900460ff1660ff1660ff168152505093506008548460000151840381151561245857fe5b0490506064846060015160ff16856020015183020281151561247657fe5b0484604001818152505060648560ff16880281151561249157fe5b048460400181815101915081815250508684602001818151019150818152505084846060019060ff16908160ff1681525050828460000151101561258b5782846000018181525050601060008973ffffffffffffffffffffffffffffffffffffffff1673ffffffffffffffffffffffffffffffffffffffff168152602001908152602001600020849080600181540180825580915050906001820390600052602060002090600402016000909192909190915060008201518160000155602082015181600101556040820151816002015560608201518160030160006101000a81548160ff021916908360ff160217905550505050612629565b83601060008a73ffffffffffffffffffffffffffffffffffffffff1673ffffffffffffffffffffffffffffffffffffffff168152602001908152602001600020838154811015156125d857fe5b906000526020600020906004020160008201518160000155602082015181600101556040820151816002015560608201518160030160006101000a81548160ff021916908360ff1602179055509050505b5b505050505092915050565b600080600080600080600061264a89426119a4565b95506126568a426119a4565b9450848610151561266957879350612780565b6001601560008c73ffffffffffffffffffffffffffffffffffffffff1673ffffffffffffffffffffffffffffffffffffffff16815260200190815260200160002080549050111561277b576002601560008c73ffffffffffffffffffffffffffffffffffffffff1673ffffffffffffffffffffffffffffffffffffffff16815260200190815260200160002080549050039250601560008b73ffffffffffffffffffffffffffffffffffffffff1673ffffffffffffffffffffffffffffffffffffffff1681526020019081526020016000208381548110151561274857fe5b90600052602060002090600402016000015491506127668a836119a4565b9050808611156127765780860393505b61277f565b8593505b5b6127a86103e861279a6003876154c090919063ffffffff16565b6154f690919063ffffffff16565b96505050505050509392505050565b6000601060008373ffffffffffffffffffffffffffffffffffffffff1673ffffffffffffffffffffffffffffffffffffffff168152602001908152602001600020805490509050919050565b600c5481565b60176020528060005260406000206000915090505481565b60166020528060005260406000206000915090505481565b600360009054906101000a900473ffffffffffffffffffffffffffffffffffffffff1673ffffffffffffffffffffffffffffffffffffffff163373ffffffffffffffffffffffffffffffffffffffff1614151561289557600080fd5b601160008573ffffffffffffffffffffffffffffffffffffffff1673ffffffffffffffffffffffffffffffffffffffff168152602001908152602001600020606060405190810160405280858152602001848152602001838152509080600181540180825580915050906001820390600052602060002090600302016000909192909190915060008201518160000155602082015181600101556040820151816002015550505050505050565b601e6020528060005260406000206000915054906101000a900460ff1681565b6000601160008373ffffffffffffffffffffffffffffffffffffffff1673ffffffffffffffffffffffffffffffffffffffff168152602001908152602001600020805490509050919050565b6012602052816000526040600020818154811015156129c957fe5b906000526020600020016000915091509054906101000a900473ffffffffffffffffffffffffffffffffffffffff1681565b6000809054906101000a900473ffffffffffffffffffffffffffffffffffffffff1673ffffffffffffffffffffffffffffffffffffffff163373ffffffffffffffffffffffffffffffffffffffff16141515612a5657600080fd5b80601d60008460ff1660ff16815260200190815260200160002060006101000a81548160ff021916908360ff1602179055505050565b600b60019054906101000a900460ff1681565b60085481565b60075481565b601d6020528060005260406000206000915054906101000a900460ff1681565b600581565b62278d0081565b6000809054906101000a900473ffffffffffffffffffffffffffffffffffffffff1673ffffffffffffffffffffffffffffffffffffffff163373ffffffffffffffffffffffffffffffffffffffff16141515612b3257600080fd5b80600f60006101000a81548160ff02191690831515021790555050565b60008060009054906101000a900473ffffffffffffffffffffffffffffffffffffffff1673ffffffffffffffffffffffffffffffffffffffff163373ffffffffffffffffffffffffffffffffffffffff16141515612bac57600080fd5b6006548211151515612bbd57600080fd5b612bc682613327565b9050826017600083815260200190815260200160002081905550505050565b6000600360009054906101000a900473ffffffffffffffffffffffffffffffffffffffff1673ffffffffffffffffffffffffffffffffffffffff163373ffffffffffffffffffffffffffffffffffffffff16141515612c4357600080fd5b6001601060008773ffffffffffffffffffffffffffffffffffffffff1673ffffffffffffffffffffffffffffffffffffffff1681526020019081526020016000208054905003905083601060008773ffffffffffffffffffffffffffffffffffffffff1673ffffffffffffffffffffffffffffffffffffffff16815260200190815260200160002082815481101515612cd857fe5b90600052602060002090600402016001018190555082601060008773ffffffffffffffffffffffffffffffffffffffff1673ffffffffffffffffffffffffffffffffffffffff16815260200190815260200160002082815481101515612d3a57fe5b90600052602060002090600402016002018190555081601060008773ffffffffffffffffffffffffffffffffffffffff1673ffffffffffffffffffffffffffffffffffffffff16815260200190815260200160002082815481101515612d9c57fe5b906000526020600020906004020160030160006101000a81548160ff021916908360ff1602179055505050505050565b601460205281600052604060002081815481101515612de757fe5b9060005260206000209060020201600091509150508060000160009054906101000a900460ff16908060010154905082565b6000809054906101000a900473ffffffffffffffffffffffffffffffffffffffff1673ffffffffffffffffffffffffffffffffffffffff163373ffffffffffffffffffffffffffffffffffffffff16141515612e7457600080fd5b80600460006101000a81548173ffffffffffffffffffffffffffffffffffffffff021916908373ffffffffffffffffffffffffffffffffffffffff16021790555050565b601060205281600052604060002081815481101515612ed357fe5b9060005260206000209060040201600091509150508060000154908060010154908060020154908060030160009054906101000a900460ff16905084565b6000809054906101000a900473ffffffffffffffffffffffffffffffffffffffff1673ffffffffffffffffffffffffffffffffffffffff163373ffffffffffffffffffffffffffffffffffffffff16141515612f6c57600080fd5b80600360006101000a81548173ffffffffffffffffffffffffffffffffffffffff021916908373ffffffffffffffffffffffffffffffffffffffff16021790555050565b600360009054906101000a900473ffffffffffffffffffffffffffffffffffffffff1673ffffffffffffffffffffffffffffffffffffffff163373ffffffffffffffffffffffffffffffffffffffff1614151561300c57600080fd5b80600a6000828254039250508190555050565b6000809054906101000a900473ffffffffffffffffffffffffffffffffffffffff1673ffffffffffffffffffffffffffffffffffffffff163373ffffffffffffffffffffffffffffffffffffffff1614151561307a57600080fd5b60065460068190555050565b600b60079054906101000a900461ffff1681565b600b60039054906101000a900461ffff1681565b600281565b601b6020528060005260406000206000915090505481565b6000809054906101000a900473ffffffffffffffffffffffffffffffffffffffff1681565b6000600360009054906101000a900473ffffffffffffffffffffffffffffffffffffffff1673ffffffffffffffffffffffffffffffffffffffff163373ffffffffffffffffffffffffffffffffffffffff1614151561314e57600080fd5b600090505b601560008373ffffffffffffffffffffffffffffffffffffffff1673ffffffffffffffffffffffffffffffffffffffff168152602001908152602001600020805490508110156132825742601560008473ffffffffffffffffffffffffffffffffffffffff1673ffffffffffffffffffffffffffffffffffffffff168152602001908152602001600020828154811015156131ea57fe5b9060005260206000209060040201600201819055506001601560008473ffffffffffffffffffffffffffffffffffffffff1673ffffffffffffffffffffffffffffffffffffffff1681526020019081526020016000208281548110151561324d57fe5b906000526020600020906004020160030160006101000a81548160ff0219169083151502179055508080600101915050613153565b6000601660003373ffffffffffffffffffffffffffffffffffffffff1673ffffffffffffffffffffffffffffffffffffffff168152602001908152602001600020819055505050565b600381565b6000601360008373ffffffffffffffffffffffffffffffffffffffff1673ffffffffffffffffffffffffffffffffffffffff168152602001908152602001600020805490509050919050565b600a5481565b600581565b600060085460065401821115151561333e57600080fd5b600161337460085461335b6005548661553d90919063ffffffff16565b81151561336457fe5b068461553d90919063ffffffff16565b039050919050565b6000601560008373ffffffffffffffffffffffffffffffffffffffff1673ffffffffffffffffffffffffffffffffffffffff168152602001908152602001600020805490509050919050565b600b60029054906101000a900460ff1681565b600381565b601a6020528060005260406000206000915054906101000a900473ffffffffffffffffffffffffffffffffffffffff1681565b6000806000600f60009054906101000a900460ff16151561343357600080fd5b600654421115151561344457600080fd5b6000601660003373ffffffffffffffffffffffffffffffffffffffff1673ffffffffffffffffffffffffffffffffffffffff1681526020019081526020016000205414156134e45783601e60003373ffffffffffffffffffffffffffffffffffffffff1673ffffffffffffffffffffffffffffffffffffffff16815260200190815260200160002060006101000a81548160ff0219169083151502179055505b600260009054906101000a900473ffffffffffffffffffffffffffffffffffffffff1673ffffffffffffffffffffffffffffffffffffffff166323b872dd33600360009054906101000a900473ffffffffffffffffffffffffffffffffffffffff16886040518463ffffffff167c0100000000000000000000000000000000000000000000000000000000028152600401808473ffffffffffffffffffffffffffffffffffffffff1673ffffffffffffffffffffffffffffffffffffffff1681526020018373ffffffffffffffffffffffffffffffffffffffff1673ffffffffffffffffffffffffffffffffffffffff1681526020018281526020019350505050600060405180830381600087803b1580156135ff57600080fd5b505af1158015613613573d6000803e3d6000fd5b50505050601560003373ffffffffffffffffffffffffffffffffffffffff1673ffffffffffffffffffffffffffffffffffffffff16815260200190815260200160002060806040519081016040528042815260200187815260200160008152602001600015158152509080600181540180825580915050906001820390600052602060002090600402016000909192909190915060008201518160000155602082015181600101556040820151816002015560608201518160030160006101000a81548160ff021916908315150217905550505050601660003373ffffffffffffffffffffffffffffffffffffffff1673ffffffffffffffffffffffffffffffffffffffff16815260200190815260200160002054925061377c85601660003373ffffffffffffffffffffffffffffffffffffffff1673ffffffffffffffffffffffffffffffffffffffff1681526020019081526020016000205461555990919063ffffffff16565b601660003373ffffffffffffffffffffffffffffffffffffffff1673ffffffffffffffffffffffffffffffffffffffff168152602001908152602001600020819055506137d485600a5461555990919063ffffffff16565b600a819055507f11cb292a08eba5f64499fcedb93fd02a1af37c611dfdf9aa1012b3d408d7d59e33428787604051808573ffffffffffffffffffffffffffffffffffffffff1673ffffffffffffffffffffffffffffffffffffffff1681526020018481526020018381526020018215151515815260200194505050505060405180910390a1600090505b601260003373ffffffffffffffffffffffffffffffffffffffff1673ffffffffffffffffffffffffffffffffffffffff16815260200190815260200160002080549050811015613e6157600b60029054906101000a900460ff1660ff168114156138c757613e61565b6001601560003373ffffffffffffffffffffffffffffffffffffffff1673ffffffffffffffffffffffffffffffffffffffff1681526020019081526020016000208054905014156139db57600160186000601260003373ffffffffffffffffffffffffffffffffffffffff1673ffffffffffffffffffffffffffffffffffffffff1681526020019081526020016000208481548110151561396457fe5b9060005260206000200160009054906101000a900473ffffffffffffffffffffffffffffffffffffffff1673ffffffffffffffffffffffffffffffffffffffff1673ffffffffffffffffffffffffffffffffffffffff16815260200190815260200160002060008282540192505081905550613aaa565b6000831415613aa957600160186000601260003373ffffffffffffffffffffffffffffffffffffffff1673ffffffffffffffffffffffffffffffffffffffff16815260200190815260200160002084815481101515613a3657fe5b9060005260206000200160009054906101000a900473ffffffffffffffffffffffffffffffffffffffff1673ffffffffffffffffffffffffffffffffffffffff1673ffffffffffffffffffffffffffffffffffffffff168152602001908152602001600020600082825401925050819055505b5b613b728560196000601260003373ffffffffffffffffffffffffffffffffffffffff1673ffffffffffffffffffffffffffffffffffffffff16815260200190815260200160002085815481101515613afe57fe5b9060005260206000200160009054906101000a900473ffffffffffffffffffffffffffffffffffffffff1673ffffffffffffffffffffffffffffffffffffffff1673ffffffffffffffffffffffffffffffffffffffff1681526020019081526020016000205461555990919063ffffffff16565b60196000601260003373ffffffffffffffffffffffffffffffffffffffff1673ffffffffffffffffffffffffffffffffffffffff16815260200190815260200160002084815481101515613bc257fe5b9060005260206000200160009054906101000a900473ffffffffffffffffffffffffffffffffffffffff1673ffffffffffffffffffffffffffffffffffffffff1673ffffffffffffffffffffffffffffffffffffffff16815260200190815260200160002081905550613caa601260003373ffffffffffffffffffffffffffffffffffffffff1673ffffffffffffffffffffffffffffffffffffffff16815260200190815260200160002082815481101515613c7a57fe5b9060005260206000200160009054906101000a900473ffffffffffffffffffffffffffffffffffffffff16613f65565b613d2b33601260003373ffffffffffffffffffffffffffffffffffffffff1673ffffffffffffffffffffffffffffffffffffffff16815260200190815260200160002083815481101515613cfa57fe5b9060005260206000200160009054906101000a900473ffffffffffffffffffffffffffffffffffffffff1687612635565b91506002811015613db857613db7601260003373ffffffffffffffffffffffffffffffffffffffff1673ffffffffffffffffffffffffffffffffffffffff16815260200190815260200160002082815481101515613d8557fe5b9060005260206000200160009054906101000a900473ffffffffffffffffffffffffffffffffffffffff16838361557a565b5b600b60029054906101000a900460ff1660ff16811015613e5457613e52601260003373ffffffffffffffffffffffffffffffffffffffff1673ffffffffffffffffffffffffffffffffffffffff16815260200190815260200160002082815481101515613e2157fe5b9060005260206000200160009054906101000a900473ffffffffffffffffffffffffffffffffffffffff168361215d565b505b808060010191505061385e565b5050505050565b6000809054906101000a900473ffffffffffffffffffffffffffffffffffffffff1673ffffffffffffffffffffffffffffffffffffffff163373ffffffffffffffffffffffffffffffffffffffff16141515613ec357600080fd5b60018360ff161415613ef85781600b60036101000a81548161ffff021916908361ffff16021790555080600c81905550613f60565b60028360ff161415613f2d5781600b60056101000a81548161ffff021916908361ffff16021790555080600d81905550613f5f565b60038360ff161415613f5e5781600b60076101000a81548161ffff021916908361ffff16021790555080600e819055505b5b5b505050565b600b60079054906101000a900461ffff1661ffff16601860008373ffffffffffffffffffffffffffffffffffffffff1673ffffffffffffffffffffffffffffffffffffffff16815260200190815260200160002054101580156140095750600e54601960008373ffffffffffffffffffffffffffffffffffffffff1673ffffffffffffffffffffffffffffffffffffffff1681526020019081526020016000205410155b801561405b5750600560ff16601360008373ffffffffffffffffffffffffffffffffffffffff1673ffffffffffffffffffffffffffffffffffffffff1681526020019081526020016000208054905010155b15614292576003601c60008373ffffffffffffffffffffffffffffffffffffffff1673ffffffffffffffffffffffffffffffffffffffff16815260200190815260200160002060009054906101000a900460ff1660ff1614151561428d577fc7d5ff51d6870ddf5a0064f51d3b5ddc326806d4c4a84146226d42ea13e0bf3e81601c60008473ffffffffffffffffffffffffffffffffffffffff1673ffffffffffffffffffffffffffffffffffffffff16815260200190815260200160002060009054906101000a900460ff166003604051808473ffffffffffffffffffffffffffffffffffffffff1673ffffffffffffffffffffffffffffffffffffffff1681526020018360ff1660ff1681526020018260ff168152602001935050505060405180910390a16003601c60008373ffffffffffffffffffffffffffffffffffffffff1673ffffffffffffffffffffffffffffffffffffffff16815260200190815260200160002060006101000a81548160ff021916908360ff160217905550601460008273ffffffffffffffffffffffffffffffffffffffff1673ffffffffffffffffffffffffffffffffffffffff1681526020019081526020016000206040805190810160405280600360ff168152602001428152509080600181540180825580915050906001820390600052602060002090600202016000909192909190915060008201518160000160006101000a81548160ff021916908360ff160217905550602082015181600101555050505b614b1c565b600b60059054906101000a900461ffff1661ffff16601860008373ffffffffffffffffffffffffffffffffffffffff1673ffffffffffffffffffffffffffffffffffffffff16815260200190815260200160002054101580156143365750600d54601960008373ffffffffffffffffffffffffffffffffffffffff1673ffffffffffffffffffffffffffffffffffffffff1681526020019081526020016000205410155b80156143885750600360ff16601360008373ffffffffffffffffffffffffffffffffffffffff1673ffffffffffffffffffffffffffffffffffffffff1681526020019081526020016000208054905010155b156145bf576002601c60008373ffffffffffffffffffffffffffffffffffffffff1673ffffffffffffffffffffffffffffffffffffffff16815260200190815260200160002060009054906101000a900460ff1660ff161415156145ba577fc7d5ff51d6870ddf5a0064f51d3b5ddc326806d4c4a84146226d42ea13e0bf3e81601c60008473ffffffffffffffffffffffffffffffffffffffff1673ffffffffffffffffffffffffffffffffffffffff16815260200190815260200160002060009054906101000a900460ff166002604051808473ffffffffffffffffffffffffffffffffffffffff1673ffffffffffffffffffffffffffffffffffffffff1681526020018360ff1660ff1681526020018260ff168152602001935050505060405180910390a16002601c60008373ffffffffffffffffffffffffffffffffffffffff1673ffffffffffffffffffffffffffffffffffffffff16815260200190815260200160002060006101000a81548160ff021916908360ff160217905550601460008273ffffffffffffffffffffffffffffffffffffffff1673ffffffffffffffffffffffffffffffffffffffff1681526020019081526020016000206040805190810160405280600260ff168152602001428152509080600181540180825580915050906001820390600052602060002090600202016000909192909190915060008201518160000160006101000a81548160ff021916908360ff160217905550602082015181600101555050505b614b1b565b600b60039054906101000a900461ffff1661ffff16601860008373ffffffffffffffffffffffffffffffffffffffff1673ffffffffffffffffffffffffffffffffffffffff16815260200190815260200160002054101580156146635750600c54601960008373ffffffffffffffffffffffffffffffffffffffff1673ffffffffffffffffffffffffffffffffffffffff1681526020019081526020016000205410155b80156146b55750600260ff16601360008373ffffffffffffffffffffffffffffffffffffffff1673ffffffffffffffffffffffffffffffffffffffff1681526020019081526020016000208054905010155b156148ec576001601c60008373ffffffffffffffffffffffffffffffffffffffff1673ffffffffffffffffffffffffffffffffffffffff16815260200190815260200160002060009054906101000a900460ff1660ff161415156148e7577fc7d5ff51d6870ddf5a0064f51d3b5ddc326806d4c4a84146226d42ea13e0bf3e81601c60008473ffffffffffffffffffffffffffffffffffffffff1673ffffffffffffffffffffffffffffffffffffffff16815260200190815260200160002060009054906101000a900460ff166001604051808473ffffffffffffffffffffffffffffffffffffffff1673ffffffffffffffffffffffffffffffffffffffff1681526020018360ff1660ff1681526020018260ff168152602001935050505060405180910390a16001601c60008373ffffffffffffffffffffffffffffffffffffffff1673ffffffffffffffffffffffffffffffffffffffff16815260200190815260200160002060006101000a81548160ff021916908360ff160217905550601460008273ffffffffffffffffffffffffffffffffffffffff1673ffffffffffffffffffffffffffffffffffffffff1681526020019081526020016000206040805190810160405280600160ff168152602001428152509080600181540180825580915050906001820390600052602060002090600202016000909192909190915060008201518160000160006101000a81548160ff021916908360ff160217905550602082015181600101555050505b614b1a565b6000601c60008373ffffffffffffffffffffffffffffffffffffffff1673ffffffffffffffffffffffffffffffffffffffff16815260200190815260200160002060009054906101000a900460ff1660ff16141515614b19577fc7d5ff51d6870ddf5a0064f51d3b5ddc326806d4c4a84146226d42ea13e0bf3e81601c60008473ffffffffffffffffffffffffffffffffffffffff1673ffffffffffffffffffffffffffffffffffffffff16815260200190815260200160002060009054906101000a900460ff166000604051808473ffffffffffffffffffffffffffffffffffffffff1673ffffffffffffffffffffffffffffffffffffffff1681526020018360ff1660ff1681526020018260ff168152602001935050505060405180910390a16000601c60008373ffffffffffffffffffffffffffffffffffffffff1673ffffffffffffffffffffffffffffffffffffffff16815260200190815260200160002060006101000a81548160ff021916908360ff160217905550601460008273ffffffffffffffffffffffffffffffffffffffff1673ffffffffffffffffffffffffffffffffffffffff1681526020019081526020016000206040805190810160405280600060ff168152602001428152509080600181540180825580915050906001820390600052602060002090600202016000909192909190915060008201518160000160006101000a81548160ff021916908360ff160217905550602082015181600101555050505b5b5b5b50565b600360009054906101000a900473ffffffffffffffffffffffffffffffffffffffff1673ffffffffffffffffffffffffffffffffffffffff163373ffffffffffffffffffffffffffffffffffffffff16141515614b7b57600080fd5b80601960008473ffffffffffffffffffffffffffffffffffffffff1673ffffffffffffffffffffffffffffffffffffffff16815260200190815260200160002054101515614c115780601860008473ffffffffffffffffffffffffffffffffffffffff1673ffffffffffffffffffffffffffffffffffffffff168152602001908152602001600020600082825403925050819055505b5050565b6000601260008373ffffffffffffffffffffffffffffffffffffffff1673ffffffffffffffffffffffffffffffffffffffff168152602001908152602001600020805490509050919050565b600f60009054906101000a900460ff1681565b600581565b60186020528060005260406000206000915090505481565b600b60009054906101000a900460ff1681565b601160205281600052604060002081815481101515614cbf57fe5b9060005260206000209060030201600091509150508060000154908060010154908060020154905083565b60065481565b600080600080600f60009054906101000a900460ff161515614d1157600080fd5b6006544211151515614d2257600080fd5b6000601b60003373ffffffffffffffffffffffffffffffffffffffff1673ffffffffffffffffffffffffffffffffffffffff16815260200190815260200160002054141515614d7057600080fd5b60644233604051808381526020018273ffffffffffffffffffffffffffffffffffffffff1673ffffffffffffffffffffffffffffffffffffffff166c0100000000000000000000000002815260140192505050604051809103902060019004811515614dd857fe5b069350614df08460075461555990919063ffffffff16565b9250614e078460075461555990919063ffffffff16565b600781905550600073ffffffffffffffffffffffffffffffffffffffff16601a600085815260200190815260200160002060009054906101000a900473ffffffffffffffffffffffffffffffffffffffff1673ffffffffffffffffffffffffffffffffffffffff16141515614e7b57600080fd5b600073ffffffffffffffffffffffffffffffffffffffff16601a600087815260200190815260200160002060009054906101000a900473ffffffffffffffffffffffffffffffffffffffff1673ffffffffffffffffffffffffffffffffffffffff1614151515614eea57600080fd5b33601a600085815260200190815260200160002060006101000a81548173ffffffffffffffffffffffffffffffffffffffff021916908373ffffffffffffffffffffffffffffffffffffffff16021790555082601b60003373ffffffffffffffffffffffffffffffffffffffff1673ffffffffffffffffffffffffffffffffffffffff168152602001908152602001600020819055507f29317bf7eb9941522faad78efabe2efda58f223f6b421c6e91762fb0484cbdad33600754604051808373ffffffffffffffffffffffffffffffffffffffff1673ffffffffffffffffffffffffffffffffffffffff1681526020018281526020019250505060405180910390a1600960008154809291906001019190505550601a600086815260200190815260200160002060009054906101000a900473ffffffffffffffffffffffffffffffffffffffff169150601360008373ffffffffffffffffffffffffffffffffffffffff1673ffffffffffffffffffffffffffffffffffffffff1681526020019081526020016000203390806001815401808255809150509060018203906000526020600020016000909192909190916101000a81548173ffffffffffffffffffffffffffffffffffffffff021916908373ffffffffffffffffffffffffffffffffffffffff160217905550506009601260003373ffffffffffffffffffffffffffffffffffffffff1673ffffffffffffffffffffffffffffffffffffffff1681526020019081526020016000208054905010156151c757601260003373ffffffffffffffffffffffffffffffffffffffff1673ffffffffffffffffffffffffffffffffffffffff1681526020019081526020016000208290806001815401808255809150509060018203906000526020600020016000909192909190916101000a81548173ffffffffffffffffffffffffffffffffffffffff021916908373ffffffffffffffffffffffffffffffffffffffff160217905550505b600090505b601260008373ffffffffffffffffffffffffffffffffffffffff1673ffffffffffffffffffffffffffffffffffffffff16815260200190815260200160002080549050811015615391576009601260003373ffffffffffffffffffffffffffffffffffffffff1673ffffffffffffffffffffffffffffffffffffffff16815260200190815260200160002080549050101561537f57601260003373ffffffffffffffffffffffffffffffffffffffff1673ffffffffffffffffffffffffffffffffffffffff168152602001908152602001600020601260008473ffffffffffffffffffffffffffffffffffffffff1673ffffffffffffffffffffffffffffffffffffffff168152602001908152602001600020828154811015156152ec57fe5b9060005260206000200160009054906101000a900473ffffffffffffffffffffffffffffffffffffffff1690806001815401808255809150509060018203906000526020600020016000909192909190916101000a81548173ffffffffffffffffffffffffffffffffffffffff021916908373ffffffffffffffffffffffffffffffffffffffff16021790555050615384565b615391565b80806001019150506151cc565b5050505050565b6000809054906101000a900473ffffffffffffffffffffffffffffffffffffffff1673ffffffffffffffffffffffffffffffffffffffff163373ffffffffffffffffffffffffffffffffffffffff161415156153f357600080fd5b600073ffffffffffffffffffffffffffffffffffffffff168173ffffffffffffffffffffffffffffffffffffffff1614151561546a57806000806101000a81548173ffffffffffffffffffffffffffffffffffffffff021916908373ffffffffffffffffffffffffffffffffffffffff1602179055505b50565b60095481565b60136020528160005260406000208181548110151561548e57fe5b906000526020600020016000915091509054906101000a900473ffffffffffffffffffffffffffffffffffffffff1681565b600080828402905060008414806154e157508284828115156154de57fe5b04145b15156154ec57600080fd5b8091505092915050565b60008060008311151561550857600080fd5b828481151561551357fe5b049050828481151561552157fe5b06818402018414151561553357600080fd5b8091505092915050565b600082821115151561554e57600080fd5b818303905092915050565b600080828401905083811015151561557057600080fd5b8091505092915050565b6000806000806000806000806000808a14156155a757600b60009054906101000a900460ff1698506155cd565b60018a14156155c757600b60019054906101000a900460ff1698506155cc565b615a1a565b5b6008546155d942613327565b0197506000601160008e73ffffffffffffffffffffffffffffffffffffffff1673ffffffffffffffffffffffffffffffffffffffff1681526020019081526020016000208054905014156156f557601160008d73ffffffffffffffffffffffffffffffffffffffff1673ffffffffffffffffffffffffffffffffffffffff1681526020019081526020016000206060604051908101604052808a815260200160648c60ff168f0281151561568957fe5b04815260200160648c60ff168f028115156156a057fe5b0481525090806001815401808255809150509060018203906000526020600020906003020160009091929091909150600082015181600001556020820151816001015560408201518160020155505050615a19565b6001601160008e73ffffffffffffffffffffffffffffffffffffffff1673ffffffffffffffffffffffffffffffffffffffff16815260200190815260200160002080549050039650601160008d73ffffffffffffffffffffffffffffffffffffffff1673ffffffffffffffffffffffffffffffffffffffff1681526020019081526020016000208781548110151561578957fe5b9060005260206000209060030201600001549550601160008d73ffffffffffffffffffffffffffffffffffffffff1673ffffffffffffffffffffffffffffffffffffffff168152602001908152602001600020878154811015156157e957fe5b9060005260206000209060030201600101549450601160008d73ffffffffffffffffffffffffffffffffffffffff1673ffffffffffffffffffffffffffffffffffffffff1681526020019081526020016000208781548110151561584957fe5b906000526020600020906003020160020154935060085486890381151561586c57fe5b0492508460648a60ff168d0281151561588157fe5b040191508360648a60ff168d0281151561589757fe5b04868502010190508786101561595357601160008d73ffffffffffffffffffffffffffffffffffffffff1673ffffffffffffffffffffffffffffffffffffffff1681526020019081526020016000206060604051908101604052808a81526020018481526020018381525090806001815401808255809150509060018203906000526020600020906003020160009091929091909150600082015181600001556020820151816001015560408201518160020155505050615a18565b81601160008e73ffffffffffffffffffffffffffffffffffffffff1673ffffffffffffffffffffffffffffffffffffffff168152602001908152602001600020888154811015156159a057fe5b90600052602060002090600302016001018190555080601160008e73ffffffffffffffffffffffffffffffffffffffff1673ffffffffffffffffffffffffffffffffffffffff16815260200190815260200160002088815481101515615a0257fe5b9060005260206000209060030201600201819055505b5b5b505050505050505050505050565b608060405190810160405280600081526020016000815260200160008152602001600060ff16815250905600a165627a7a723058205d1ecb07524592dc29bdd7515bef95875647ed8528e9fa2062e53be84ace858c0029",
  "source": "pragma solidity ^0.4.23;\n/*\n *             ╔═╗┌─┐┌─┐┬┌─┐┬┌─┐┬   ┌─────────────────────────┐ ╦ ╦┌─┐┌┐ ╔═╗┬┌┬┐┌─┐\n *             ║ ║├┤ ├┤ ││  │├─┤│   │ KOL Community Foundation│ │ ║║║├┤ ├┴┐╚═╗│ │ ├┤\n *             ╚═╝└  └  ┴└─┘┴┴ ┴┴─┘ └─┬─────────────────────┬─┘ ╚╩╝└─┘└─┘╚═╝┴ ┴ └─┘\n *   ┌────────────────────────────────┘                     └──────────────────────────────┐\n *   │    ┌─────────────────────────────────────────────────────────────────────────────┐  │\n *   └────┤ Dev:Jack Koe ├─────────────┤ Special for: KOL  ├───────────────┤ 20200422   ├──┘\n *        └─────────────────────────────────────────────────────────────────────────────┘\n */\n\n library SafeMath {\n   function mul(uint a, uint b) internal pure  returns (uint) {\n     uint c = a * b;\n     require(a == 0 || c / a == b);\n     return c;\n   }\n   function div(uint a, uint b) internal pure returns (uint) {\n     require(b > 0);\n     uint c = a / b;\n     require(a == b * c + a % b);\n     return c;\n   }\n   function sub(uint a, uint b) internal pure returns (uint) {\n     require(b <= a);\n     return a - b;\n   }\n   function add(uint a, uint b) internal pure returns (uint) {\n     uint c = a + b;\n     require(c >= a);\n     return c;\n   }\n   function max64(uint64 a, uint64 b) internal  pure returns (uint64) {\n     return a >= b ? a : b;\n   }\n   function min64(uint64 a, uint64 b) internal  pure returns (uint64) {\n     return a < b ? a : b;\n   }\n   function max256(uint256 a, uint256 b) internal  pure returns (uint256) {\n     return a >= b ? a : b;\n   }\n   function min256(uint256 a, uint256 b) internal  pure returns (uint256) {\n     return a < b ? a : b;\n   }\n }\n\n /**\n  * title KOL Promotion contract\n  * dev visit: https://github.com/jackoelv/KOL/\n */\n\n contract ERC20Basic {\n   uint public totalSupply;\n   function balanceOf(address who) public constant returns (uint);\n   function transfer(address to, uint value) public;\n   event Transfer(address indexed from, address indexed to, uint value);\n }\n\n contract ERC20 is ERC20Basic {\n   function allowance(address owner, address spender) public constant returns (uint);\n   function transferFrom(address from, address to, uint value) public;\n   function approve(address spender, uint value) public;\n   event Approval(address indexed owner, address indexed spender, uint value);\n }\n\n /**\n  * title KOL Promotion contract\n  * dev visit: https://github.com/jackoelv/KOL/\n */\n\n contract BasicToken is ERC20Basic {\n\n   using SafeMath for uint;\n\n   mapping(address => uint) balances;\n\n   function transfer(address _to, uint _value) public{\n     balances[msg.sender] = balances[msg.sender].sub(_value);\n     balances[_to] = balances[_to].add(_value);\n     emit Transfer(msg.sender, _to, _value);\n   }\n\n   function balanceOf(address _owner) public constant returns (uint balance) {\n     return balances[_owner];\n   }\n }\n\n /**\n  * title KOL Promotion contract\n  * dev visit: https://github.com/jackoelv/KOL/\n */\n\n contract StandardToken is BasicToken, ERC20 {\n   mapping (address => mapping (address => uint)) allowed;\n   uint256 public userSupplyed;\n\n   function transferFrom(address _from, address _to, uint _value) public {\n     balances[_to] = balances[_to].add(_value);\n     balances[_from] = balances[_from].sub(_value);\n     allowed[_from][msg.sender] = allowed[_from][msg.sender].sub(_value);\n     emit Transfer(_from, _to, _value);\n   }\n\n   function approve(address _spender, uint _value) public{\n     require((_value == 0) || (allowed[msg.sender][_spender] == 0)) ;\n     allowed[msg.sender][_spender] = _value;\n     emit Approval(msg.sender, _spender, _value);\n   }\n\n   function allowance(address _owner, address _spender) public constant returns (uint remaining) {\n     return allowed[_owner][_spender];\n   }\n }\n contract KOL is StandardToken {\n }\n\n /**\n  * title KOL Promotion contract\n  * dev visit: https://github.com/jackoelv/KOL/\n */\n\n contract Ownable {\n     address public owner;\n\n     constructor() public{\n         owner = msg.sender;\n     }\n\n     modifier onlyOwner {\n         require(msg.sender == owner);\n         _;\n     }\n     function transferOwnership(address newOwner) onlyOwner public{\n         if (newOwner != address(0)) {\n             owner = newOwner;\n         }\n     }\n }\n /**\n  * title KOL Promotion contract\n  * dev visit: https://github.com/jackoelv/KOL/\n */\n //测试说明，把一天改成1分钟。提现限制为5分钟。\ncontract KOLPro is Ownable{\n  using SafeMath for uint256;\n  string public name = \"KOL Promotion\";\n  KOL public kol;\n  address public draw;\n  address private receiver;\n\n  uint256 public begin;\n  uint256 public end;\n\n  uint256 public iCode;\n  uint256 public every = 1 days;\n  uint256 public totalRegister;\n  uint256 public totalBalance;\n\n  uint8 public  userLevel1 = 20;\n  uint8 public  userLevel2 = 10;\n  uint8 public maxlevel = 9;\n\n  uint16 public  comLevel1Users = 100;\n  uint16 public  comLevel2Users = 200;\n  uint16 public  comLevel3Users = 300;\n\n  //测试的时候就把数字变小一点。\n  /* uint16 public  comLevel1Users = 2;\n  uint16 public  comLevel2Users = 3;\n  uint16 public  comLevel3Users = 4; */\n\n  uint256 public  comLevel1Amount = 30000 * (10 ** 18);\n  uint256 public  comLevel2Amount = 50000 * (10 ** 18);\n  uint256 public  comLevel3Amount = 100000 * (10 ** 18);\n\n  uint8 public constant comLevel1 = 3;\n  uint8 public constant comLevel2 = 5;\n  uint8 public constant comLevel3 = 10;\n  uint8 public constant inviteLevel1 = 2;//直推3个才能升级网体1\n  uint8 public constant inviteLevel2 = 3;\n  uint8 public constant inviteLevel3 = 5;\n\n\n  uint8 public constant fee = 5;\n  bool public going = true;\n\n  uint256 public constant withDrawDays = 30 days;\n  //测试限制5分钟\n  /* uint256 public constant withDrawDays = 2 minutes; */\n\n  struct lock{\n    uint256 begin;\n    uint256 amount;\n    uint256 end;\n    bool withDrawed;\n  }\n\n  struct teamRate{\n    uint8 rate;\n    uint256 changeTime;\n\n  }\n\n  struct dayTeamBonus{\n    uint256 theDayLastSecond;\n    uint256 theDayTeamBonus;\n    uint256 totalTeamBonus;\n    uint8 theDayRate;\n  }\n  struct dayInviteBonus{\n    uint256 theDayLastSecond;\n    uint256 theDayInviteBonus;\n    uint256 totalInviteBonus;\n  }\n\n\n\n  mapping (address => dayTeamBonus[]) public LockTeamBonus;\n  mapping (address => dayInviteBonus[]) public LockInviteBonus;\n\n\n  mapping (address => address[]) public InviteList;\n  mapping (address => address[]) public ChildAddrs;\n  mapping (address => teamRate[]) public TeamRateList;\n  mapping (address => lock[]) public LockHistory;\n  mapping (address => uint256) public LockBalance;\n\n  mapping (uint256 => uint256) public ClosePrice;//需要给个默认值，而且还允许修改，否则忘记就很麻烦了。\n  mapping (address => uint256) public TotalUsers;\n  mapping (address => uint256) public TotalLockingAmount;\n  mapping (uint256 => address) public InviteCode;\n  mapping (address => uint256) public RInviteCode;\n\n  mapping (address => uint8) public isLevelN;\n  mapping (uint8 => uint8) public levelRate;\n  mapping (address => bool) public USDTOrCoin;\n\n  //GAS优化\n\n  event Registed(address _user,uint256 inviteCode);\n  event Joined(address _user,uint256 _theTime,uint256 _amount,bool _usdtOrCoin);\n  event GradeChanged(address _user,uint8 _oldLevel,uint8 _newLevel);\n\n  modifier onlyContract {\n      require(msg.sender == draw);\n      _;\n  }\n\n\n  constructor(address _tokenAddress,address _receiver,uint256 _begin,uint256 _end) public {\n    kol = KOL(_tokenAddress);\n    receiver = _receiver;\n    begin = _begin;\n    end = _end;\n    InviteCode[0] = owner;\n    levelRate[0] = 0;\n    levelRate[1] = comLevel1;\n    levelRate[2] = comLevel2;\n    levelRate[3] = comLevel3;\n  }\n\n  function register(uint256 _fInviteCode) public {\n    require(going);\n    require(now <= end);\n    require(RInviteCode[msg.sender] == 0);\n    uint256 random = uint256(keccak256(now, msg.sender)) % 100;\n    uint256 _myInviteCode = iCode.add(random);\n    iCode = iCode.add(random);\n\n    require(InviteCode[_myInviteCode] == address(0));\n    require(InviteCode[_fInviteCode] != address(0));\n    InviteCode[_myInviteCode] = msg.sender;\n    RInviteCode[msg.sender] = _myInviteCode;\n    emit Registed(msg.sender,iCode);\n    totalRegister ++;\n    address father = InviteCode[_fInviteCode];\n    ChildAddrs[father].push(msg.sender);\n    if (InviteList[msg.sender].length < 9){\n      InviteList[msg.sender].push(father);\n    }\n    for (uint i = 0 ; i < InviteList[father].length; i++){\n      if (InviteList[msg.sender].length < 9){\n        InviteList[msg.sender].push(InviteList[father][i]);\n      }else{\n        break;\n      }\n\n    }\n\n  }\n  /**\n   * title 转入KOL进行持仓生息\n   * _usdtOrCoin, true:金本位; false:币本位\n   * dev visit: https://github.com/jackoelv/KOL/\n  */\n  function join(uint256 _amount,bool _usdtOrCoin) payable  public {\n    require(going);\n    require(now <= end);\n    if (LockBalance[msg.sender] == 0) USDTOrCoin[msg.sender] = _usdtOrCoin;\n    kol.transferFrom(msg.sender,draw,_amount);\n    LockHistory[msg.sender].push(lock(now,_amount,0,false));\n    uint256 oldBalance = LockBalance[msg.sender];\n    LockBalance[msg.sender] = LockBalance[msg.sender].add(_amount);\n    totalBalance = totalBalance.add(_amount);\n    emit Joined(msg.sender,now,_amount,_usdtOrCoin);\n\n    uint256 amount3;//amount*3/1000以后\n\n    for (uint i = 0; i<InviteList[msg.sender].length; i++){\n      if (i == maxlevel) break;\n      if (LockHistory[msg.sender].length == 1){\n        //给上面的人数+1\n        TotalUsers[InviteList[msg.sender][i]] += 1;\n      }else{\n        if (oldBalance == 0) TotalUsers[InviteList[msg.sender][i]] += 1;\n      }\n      //给上面的加入团队总金额\n\n      TotalLockingAmount[InviteList[msg.sender][i]] = TotalLockingAmount[InviteList[msg.sender][i]].add(_amount);\n      queryAndSetLevelN(InviteList[msg.sender][i]);\n\n      amount3 = calcuDiffAmount(msg.sender,InviteList[msg.sender][i],_amount);\n\n\n      if (i<2){\n        setTopInviteBonus(InviteList[msg.sender][i],amount3,i);\n      }\n\n      if (i < maxlevel){\n        setTopTeamBonus(InviteList[msg.sender][i],amount3);\n      }\n    }\n  }\n  function calcuDiffAmount(address _selfAddr,address _topAddr,uint256 _amount) public view returns(uint256){\n    //计算网体收益加速额。\n    uint256 topDayLockBalance = queryLockBalance(_topAddr,now);\n    uint256 selfDayLockBalance = queryLockBalance(_selfAddr,now);\n    uint256 minAmount;\n    if (topDayLockBalance >= selfDayLockBalance){\n      minAmount = _amount;\n    }else{\n        if(LockHistory[_selfAddr].length > 1){\n            uint256 previous = LockHistory[_selfAddr].length - 2;\n            uint256 theTime = LockHistory[_selfAddr][previous].begin;\n            uint256 previousLockBalance = queryLockBalance(_selfAddr,theTime);\n            if (topDayLockBalance > previousLockBalance){\n              //_amount + previousLockBalance 一定是大于topDayLockBalance的；\n              minAmount = topDayLockBalance - previousLockBalance;\n            }\n        }else{\n          minAmount = topDayLockBalance;\n        }\n    }\n    return minAmount.mul(3).div(1000);\n  }\n  function setTopTeamBonus(address _topAddr,uint256 _minAmount) public returns(uint8){\n    uint8 newRate = levelRate[isLevelN[_topAddr]];\n    dayTeamBonus memory theDayTB =dayTeamBonus(0,0,0,0);\n    uint256 tomorrowLastSecond =getYestodayLastSecond(now) +  every;\n\n    if (LockTeamBonus[_topAddr].length == 0){\n      theDayTB.theDayLastSecond = tomorrowLastSecond;\n      theDayTB.theDayTeamBonus = _minAmount;\n      theDayTB.totalTeamBonus = _minAmount * newRate / 100;\n      theDayTB.theDayRate = newRate;\n      LockTeamBonus[_topAddr].push(theDayTB);\n    }else{\n      uint256 last = LockTeamBonus[_topAddr].length -1;\n      theDayTB = LockTeamBonus[_topAddr][last];\n\n      uint256 lastingDays = (tomorrowLastSecond - theDayTB.theDayLastSecond) / every;\n\n      theDayTB.totalTeamBonus = lastingDays * theDayTB.theDayTeamBonus * theDayTB.theDayRate/100;//这里不好解决啊\n      theDayTB.totalTeamBonus += _minAmount * newRate / 100;\n      theDayTB.theDayTeamBonus += _minAmount;\n      theDayTB.theDayRate = newRate;\n        //必然就都是明天。\n      if(theDayTB.theDayLastSecond < tomorrowLastSecond){\n        theDayTB.theDayLastSecond = tomorrowLastSecond;\n        LockTeamBonus[_topAddr].push(theDayTB);\n      }else{\n        LockTeamBonus[_topAddr][last]=theDayTB;\n      }\n    }\n  }\n  function setTopInviteBonus(address _topAddr,uint256 _minAmount,uint256 _index) internal {\n    uint8 inviteRate;\n    if (_index == 0){\n      inviteRate = userLevel1;\n    }else if(_index ==1){\n      inviteRate = userLevel2;\n    }else{\n      return;\n    }\n    uint256 tomorrowLastSecond = getYestodayLastSecond(now) + every;\n    if (LockInviteBonus[_topAddr].length == 0){\n      LockInviteBonus[_topAddr].push(dayInviteBonus(tomorrowLastSecond,\n                                            _minAmount * inviteRate/100,\n                                            _minAmount * inviteRate/100));\n    }else{\n      uint256 last = LockInviteBonus[_topAddr].length -1;\n\n      uint256 lastDayLastSecond = LockInviteBonus[_topAddr][last].theDayLastSecond;\n      uint256 lastDayInviteBonus = LockInviteBonus[_topAddr][last].theDayInviteBonus;\n      uint256 lastDayInviteTotalBonus = LockInviteBonus[_topAddr][last].totalInviteBonus;\n\n      uint256 lastingDays = (tomorrowLastSecond - lastDayLastSecond) / every;\n      uint256 newDayInviteBonus = _minAmount* inviteRate / 100 + lastDayInviteBonus;\n      uint256 newDayInviteTotalBonus = (lastingDays * lastDayInviteBonus) + _minAmount * inviteRate /100 + lastDayInviteTotalBonus;\n        //必然就都是明天。\n      if(lastDayLastSecond < tomorrowLastSecond){\n        LockInviteBonus[_topAddr].push(dayInviteBonus(tomorrowLastSecond,\n                                              newDayInviteBonus,\n                                              newDayInviteTotalBonus));\n      }else{\n        LockInviteBonus[_topAddr][last].theDayInviteBonus = newDayInviteBonus;\n        LockInviteBonus[_topAddr][last].totalInviteBonus = newDayInviteTotalBonus;\n      }\n\n    }\n  }\n  /**\n   * title 查询并设置用户的身份级别\n   * dev visit: https://github.com/jackoelv/KOL/\n  */\n  function queryAndSetLevelN(address _addr) public{\n    if ((TotalUsers[_addr] >= comLevel3Users) &&\n              (TotalLockingAmount[_addr] >= comLevel3Amount) &&\n              ChildAddrs[_addr].length>=inviteLevel3){\n      if (isLevelN[_addr]!=3){\n        emit GradeChanged(_addr,isLevelN[_addr],3);\n        isLevelN[_addr] = 3;\n        TeamRateList[_addr].push(teamRate(3,now));\n      }\n    }else if((TotalUsers[_addr] >= comLevel2Users) &&\n              (TotalLockingAmount[_addr] >= comLevel2Amount) &&\n              ChildAddrs[_addr].length>=inviteLevel2){\n      if (isLevelN[_addr]!=2){\n        emit GradeChanged(_addr,isLevelN[_addr],2);\n        isLevelN[_addr] = 2;\n        TeamRateList[_addr].push(teamRate(2,now));\n      }\n    }else if((TotalUsers[_addr] >= comLevel1Users) &&\n              (TotalLockingAmount[_addr] >= comLevel1Amount) &&\n              ChildAddrs[_addr].length>=inviteLevel1){\n      if (isLevelN[_addr]!=1){\n        emit GradeChanged(_addr,isLevelN[_addr],1);\n        isLevelN[_addr] = 1;\n        TeamRateList[_addr].push(teamRate(1,now));\n      }\n    }else{\n      if (isLevelN[_addr]!=0){\n        emit GradeChanged(_addr,isLevelN[_addr],0);\n        isLevelN[_addr] = 0;\n        TeamRateList[_addr].push(teamRate(0,now));\n      }\n    }\n  }\n  /**\n   * title 查询指定时间用户的有效锁仓余额\n   * dev visit: https://github.com/jackoelv/KOL/\n  */\n  function queryLockBalance(address _addr,uint256 _queryTime) public view returns(uint256) {\n    require(_queryTime <= end);\n    uint256 dayLockBalance;\n    for (uint j = 0; j<LockHistory[_addr].length; j++){\n      if (LockHistory[_addr][j].withDrawed){\n        //如果是已经提现的资金，那就要求计算日期是在起止时间内的。\n        if ((_queryTime >= LockHistory[_addr][j].begin) && (_queryTime <= LockHistory[_addr][j].end)){\n            dayLockBalance += LockHistory[_addr][j].amount;\n        }\n      }else{\n        if (_queryTime >= LockHistory[_addr][j].begin ){\n          //这个就要计入到当天的收益\n          dayLockBalance += LockHistory[_addr][j].amount;\n        }\n      }\n    }\n    return dayLockBalance;\n  }\n\n  /**\n   * title 根据给定时间计算出昨天的最后一秒\n   * dev visit: https://github.com/jackoelv/KOL/\n  */\n  function getYestodayLastSecond(uint256 _queryTime) public view returns(uint256){\n    //录入的价格为4位小数\n    /* return (_queryTime.sub(_queryTime.sub(begin) % 86400) - 1); */\n    //测试 上一分钟的最后一秒\n    require(_queryTime <= (end + every));\n    return (_queryTime.sub(_queryTime.sub(begin) % every) - 1);\n  }\n  /**\n   * title 录入KOL的收盘价\n   * dev visit: https://github.com/jackoelv/KOL/\n  */\n  function putClosePrice(uint256 price,uint256 _queryTime) onlyOwner public{\n    //录入的价格为4位小数\n    require(_queryTime <= end);\n    uint256 yestodayLastSecond = getYestodayLastSecond(_queryTime);\n    ClosePrice[yestodayLastSecond] = price;\n\n  }\n\n  function setContract(address _addr) onlyOwner public{\n    draw = _addr;\n  }\n  function setGoing(bool _going) onlyOwner public{\n    going = _going;\n  }\n  function setEnd(uint256 _end) onlyOwner public{\n    end = end;\n  }\n  function setLevelN(uint8 _level,uint16 _users,uint256 _amount) onlyOwner public{\n    if (_level == 1){\n      comLevel1Users = _users;\n      comLevel1Amount = _amount;\n    }else if(_level ==2){\n      comLevel2Users = _users;\n      comLevel2Amount = _amount;\n    }else if(_level ==3){\n      comLevel3Users = _users;\n      comLevel3Amount = _amount;\n    }\n  }\n\n  function clearLock(address _addr) onlyContract public{\n    for (uint i =0;i<LockHistory[_addr].length;i++){\n      LockHistory[_addr][i].end = now;\n      LockHistory[_addr][i].withDrawed = true;\n    }\n    LockBalance[msg.sender] = 0;\n  }\n  function pushInvite(address _addr,\n                      uint256 _theDayLastSecond,\n                      uint256 _theDayInviteBonus,\n                      uint256 _totalInviteBonus) onlyContract public{\n    LockInviteBonus[_addr].push(dayInviteBonus(_theDayLastSecond,\n                                              _theDayInviteBonus,\n                                              _totalInviteBonus));\n  }\n  function setLastInvite(address _addr,\n                      uint256 _theDayInviteBonus,\n                      uint256 _totalInviteBonus) onlyContract public{\n    uint256 last = LockInviteBonus[_addr].length -1;\n    LockInviteBonus[_addr][last].theDayInviteBonus = _theDayInviteBonus;\n    LockInviteBonus[_addr][last].totalInviteBonus = _totalInviteBonus;\n  }\n  function pushTeam(address _addr,\n                      uint256 _theDayLastSecond,\n                      uint256 _theDayTeamBonus,\n                      uint256 _totalTeamBonus,\n                      uint8 _theDayRate) onlyContract public{\n    LockTeamBonus[_addr].push(dayTeamBonus(_theDayLastSecond,\n                                              _theDayTeamBonus,\n                                              _totalTeamBonus,\n                                              _theDayRate));\n  }\n  function setLastTeam(address _addr,\n                      uint256 _theDayTeamBonus,\n                      uint256 _totalTeamBonus,\n                      uint8 _theDayRate) onlyContract public{\n    uint256 last = LockTeamBonus[_addr].length -1;\n    LockTeamBonus[_addr][last].theDayTeamBonus = _theDayTeamBonus;\n    LockTeamBonus[_addr][last].totalTeamBonus = _totalTeamBonus;\n    LockTeamBonus[_addr][last].theDayRate = _theDayRate;\n\n  }\n  function subTotalUsers(address _addr) onlyContract public{\n    if (TotalUsers[_addr] > 0){\n      TotalUsers[_addr] -=1;\n    }\n  }\n  function subTotalLockingAmount(address _addr,uint256 _amount) onlyContract public{\n    if (TotalLockingAmount[_addr] >= _amount){\n      TotalUsers[_addr] -= _amount;\n    }\n  }\n  function subTotalBalance(uint256 _amount) onlyContract public{\n    totalBalance-=_amount;\n  }\n\n  function getLockLen(address _addr) public view returns(uint256) {\n    return(LockHistory[_addr].length);\n  }\n  function getFathersLength(address _addr) public view returns(uint256){\n    return InviteList[_addr].length;\n  }\n  function getLockTeamBonusLen(address _addr) public view returns(uint256){\n    return(LockTeamBonus[_addr].length);\n  }\n  function getLockInviteBonusLen(address _addr) public view returns(uint256){\n    return(LockInviteBonus[_addr].length);\n  }\n  function getChildsLen(address _addr) public view returns(uint256){\n  return(ChildAddrs[_addr].length);\n  }\n  function setLevelC(uint8 _level,uint16 _users,uint256 _amount) onlyOwner public{\n    if (_level == 1){\n      comLevel1Users = _users;\n      comLevel1Amount = _amount;\n    }else if(_level ==2){\n      comLevel2Users = _users;\n      comLevel2Amount = _amount;\n    }else if(_level ==3){\n      comLevel3Users = _users;\n      comLevel3Amount = _amount;\n    }\n  }\n  function setLevelR(uint8 _level,uint8 _levelRate) onlyOwner public{\n    levelRate[_level] = _levelRate;\n  }\n  function setReceiver(address _receiver) onlyOwner public{\n    receiver = _receiver;\n  }\n  function draw() onlyOwner public{\n    receiver.send(address(this).balance);\n  }\n\n\n\n}\n",
  "sourcePath": "/Users/jack/git/github/KOL/contracts/KOLPromotion.sol",
  "compiler": {
    "name": "solc",
    "version": "0.4.23+commit.124ca40d.Emscripten.clang"
  },
  "schemaVersion": "3.0.19",
  "updatedAt": "2020-05-10T03:24:18.773Z",
  "networkType": "ethereum",
  "devdoc": {
    "methods": {}
  },
  "userdoc": {
    "methods": {
      "getYestodayLastSecond(uint256)": {
        "notice": "title 根据给定时间计算出昨天的最后一秒 dev visit: https://github.com/jackoelv/KOL/"
      },
      "join(uint256,bool)": {
        "notice": "title 转入KOL进行持仓生息 _usdtOrCoin, true:金本位; false:币本位 dev visit: https://github.com/jackoelv/KOL/"
      },
      "putClosePrice(uint256,uint256)": {
        "notice": "title 录入KOL的收盘价 dev visit: https://github.com/jackoelv/KOL/"
      },
      "queryAndSetLevelN(address)": {
        "notice": "title 查询并设置用户的身份级别 dev visit: https://github.com/jackoelv/KOL/"
      },
      "queryLockBalance(address,uint256)": {
        "notice": "title 查询指定时间用户的有效锁仓余额 dev visit: https://github.com/jackoelv/KOL/"
      }
    }
  }
}