{
  "contractName": "KOLPro",
  "abi": [
    {
      "constant": true,
      "inputs": [
        {
          "name": "",
          "type": "address"
        }
      ],
      "name": "isLevelN",
      "outputs": [
        {
          "name": "",
          "type": "uint8"
        }
      ],
      "payable": false,
      "stateMutability": "view",
      "type": "function"
    },
    {
      "constant": true,
      "inputs": [],
      "name": "comLevel3",
      "outputs": [
        {
          "name": "",
          "type": "uint8"
        }
      ],
      "payable": false,
      "stateMutability": "view",
      "type": "function"
    },
    {
      "constant": true,
      "inputs": [],
      "name": "name",
      "outputs": [
        {
          "name": "",
          "type": "string"
        }
      ],
      "payable": false,
      "stateMutability": "view",
      "type": "function"
    },
    {
      "constant": true,
      "inputs": [],
      "name": "comLevel2Amount",
      "outputs": [
        {
          "name": "",
          "type": "uint256"
        }
      ],
      "payable": false,
      "stateMutability": "view",
      "type": "function"
    },
    {
      "constant": true,
      "inputs": [],
      "name": "kol",
      "outputs": [
        {
          "name": "",
          "type": "address"
        }
      ],
      "payable": false,
      "stateMutability": "view",
      "type": "function"
    },
    {
      "constant": true,
      "inputs": [],
      "name": "comLevel3Amount",
      "outputs": [
        {
          "name": "",
          "type": "uint256"
        }
      ],
      "payable": false,
      "stateMutability": "view",
      "type": "function"
    },
    {
      "constant": true,
      "inputs": [],
      "name": "begin",
      "outputs": [
        {
          "name": "",
          "type": "uint256"
        }
      ],
      "payable": false,
      "stateMutability": "view",
      "type": "function"
    },
    {
      "constant": true,
      "inputs": [
        {
          "name": "",
          "type": "address"
        }
      ],
      "name": "TotalLockingAmount",
      "outputs": [
        {
          "name": "",
          "type": "uint256"
        }
      ],
      "payable": false,
      "stateMutability": "view",
      "type": "function"
    },
    {
      "constant": true,
      "inputs": [],
      "name": "comLevel2Users",
      "outputs": [
        {
          "name": "",
          "type": "uint16"
        }
      ],
      "payable": false,
      "stateMutability": "view",
      "type": "function"
    },
    {
      "constant": true,
      "inputs": [
        {
          "name": "",
          "type": "address"
        },
        {
          "name": "",
          "type": "uint256"
        }
      ],
      "name": "LockHistory",
      "outputs": [
        {
          "name": "begin",
          "type": "uint256"
        },
        {
          "name": "amount",
          "type": "uint256"
        },
        {
          "name": "end",
          "type": "uint256"
        },
        {
          "name": "withDrawed",
          "type": "bool"
        }
      ],
      "payable": false,
      "stateMutability": "view",
      "type": "function"
    },
    {
      "constant": true,
      "inputs": [],
      "name": "comLevel1Amount",
      "outputs": [
        {
          "name": "",
          "type": "uint256"
        }
      ],
      "payable": false,
      "stateMutability": "view",
      "type": "function"
    },
    {
      "constant": true,
      "inputs": [
        {
          "name": "",
          "type": "uint256"
        }
      ],
      "name": "ClosePrice",
      "outputs": [
        {
          "name": "",
          "type": "uint256"
        }
      ],
      "payable": false,
      "stateMutability": "view",
      "type": "function"
    },
    {
      "constant": true,
      "inputs": [
        {
          "name": "",
          "type": "address"
        }
      ],
      "name": "LockBalance",
      "outputs": [
        {
          "name": "",
          "type": "uint256"
        }
      ],
      "payable": false,
      "stateMutability": "view",
      "type": "function"
    },
    {
      "constant": true,
      "inputs": [
        {
          "name": "",
          "type": "address"
        }
      ],
      "name": "USDTOrCoin",
      "outputs": [
        {
          "name": "",
          "type": "bool"
        }
      ],
      "payable": false,
      "stateMutability": "view",
      "type": "function"
    },
    {
      "constant": true,
      "inputs": [
        {
          "name": "",
          "type": "address"
        },
        {
          "name": "",
          "type": "uint256"
        }
      ],
      "name": "InviteList",
      "outputs": [
        {
          "name": "",
          "type": "address"
        }
      ],
      "payable": false,
      "stateMutability": "view",
      "type": "function"
    },
    {
      "constant": true,
      "inputs": [],
      "name": "userLevel2",
      "outputs": [
        {
          "name": "",
          "type": "uint8"
        }
      ],
      "payable": false,
      "stateMutability": "view",
      "type": "function"
    },
    {
      "constant": true,
      "inputs": [],
      "name": "every",
      "outputs": [
        {
          "name": "",
          "type": "uint256"
        }
      ],
      "payable": false,
      "stateMutability": "view",
      "type": "function"
    },
    {
      "constant": true,
      "inputs": [],
      "name": "iCode",
      "outputs": [
        {
          "name": "",
          "type": "uint256"
        }
      ],
      "payable": false,
      "stateMutability": "view",
      "type": "function"
    },
    {
      "constant": true,
      "inputs": [
        {
          "name": "",
          "type": "uint8"
        }
      ],
      "name": "levelRate",
      "outputs": [
        {
          "name": "",
          "type": "uint8"
        }
      ],
      "payable": false,
      "stateMutability": "view",
      "type": "function"
    },
    {
      "constant": true,
      "inputs": [],
      "name": "comLevel2",
      "outputs": [
        {
          "name": "",
          "type": "uint8"
        }
      ],
      "payable": false,
      "stateMutability": "view",
      "type": "function"
    },
    {
      "constant": true,
      "inputs": [],
      "name": "withDrawDays",
      "outputs": [
        {
          "name": "",
          "type": "uint256"
        }
      ],
      "payable": false,
      "stateMutability": "view",
      "type": "function"
    },
    {
      "constant": true,
      "inputs": [
        {
          "name": "",
          "type": "address"
        },
        {
          "name": "",
          "type": "uint256"
        }
      ],
      "name": "TeamRateList",
      "outputs": [
        {
          "name": "rate",
          "type": "uint8"
        },
        {
          "name": "changeTime",
          "type": "uint256"
        }
      ],
      "payable": false,
      "stateMutability": "view",
      "type": "function"
    },
    {
      "constant": true,
      "inputs": [
        {
          "name": "",
          "type": "address"
        },
        {
          "name": "",
          "type": "uint256"
        }
      ],
      "name": "LockTeamBonus",
      "outputs": [
        {
          "name": "theDayLastSecond",
          "type": "uint256"
        },
        {
          "name": "theDayTeamBonus",
          "type": "uint256"
        },
        {
          "name": "totalTeamBonus",
          "type": "uint256"
        },
        {
          "name": "theDayRate",
          "type": "uint8"
        }
      ],
      "payable": false,
      "stateMutability": "view",
      "type": "function"
    },
    {
      "constant": true,
      "inputs": [],
      "name": "comLevel3Users",
      "outputs": [
        {
          "name": "",
          "type": "uint16"
        }
      ],
      "payable": false,
      "stateMutability": "view",
      "type": "function"
    },
    {
      "constant": true,
      "inputs": [],
      "name": "comLevel1Users",
      "outputs": [
        {
          "name": "",
          "type": "uint16"
        }
      ],
      "payable": false,
      "stateMutability": "view",
      "type": "function"
    },
    {
      "constant": true,
      "inputs": [],
      "name": "inviteLevel1",
      "outputs": [
        {
          "name": "",
          "type": "uint8"
        }
      ],
      "payable": false,
      "stateMutability": "view",
      "type": "function"
    },
    {
      "constant": true,
      "inputs": [
        {
          "name": "",
          "type": "address"
        }
      ],
      "name": "RInviteCode",
      "outputs": [
        {
          "name": "",
          "type": "uint256"
        }
      ],
      "payable": false,
      "stateMutability": "view",
      "type": "function"
    },
    {
      "constant": true,
      "inputs": [],
      "name": "owner",
      "outputs": [
        {
          "name": "",
          "type": "address"
        }
      ],
      "payable": false,
      "stateMutability": "view",
      "type": "function"
    },
    {
      "constant": true,
      "inputs": [],
      "name": "inviteLevel2",
      "outputs": [
        {
          "name": "",
          "type": "uint8"
        }
      ],
      "payable": false,
      "stateMutability": "view",
      "type": "function"
    },
    {
      "constant": true,
      "inputs": [],
      "name": "totalBalance",
      "outputs": [
        {
          "name": "",
          "type": "uint256"
        }
      ],
      "payable": false,
      "stateMutability": "view",
      "type": "function"
    },
    {
      "constant": true,
      "inputs": [],
      "name": "inviteLevel3",
      "outputs": [
        {
          "name": "",
          "type": "uint8"
        }
      ],
      "payable": false,
      "stateMutability": "view",
      "type": "function"
    },
    {
      "constant": true,
      "inputs": [],
      "name": "maxlevel",
      "outputs": [
        {
          "name": "",
          "type": "uint8"
        }
      ],
      "payable": false,
      "stateMutability": "view",
      "type": "function"
    },
    {
      "constant": true,
      "inputs": [],
      "name": "comLevel1",
      "outputs": [
        {
          "name": "",
          "type": "uint8"
        }
      ],
      "payable": false,
      "stateMutability": "view",
      "type": "function"
    },
    {
      "constant": true,
      "inputs": [
        {
          "name": "",
          "type": "uint256"
        }
      ],
      "name": "InviteCode",
      "outputs": [
        {
          "name": "",
          "type": "address"
        }
      ],
      "payable": false,
      "stateMutability": "view",
      "type": "function"
    },
    {
      "constant": true,
      "inputs": [],
      "name": "going",
      "outputs": [
        {
          "name": "",
          "type": "bool"
        }
      ],
      "payable": false,
      "stateMutability": "view",
      "type": "function"
    },
    {
      "constant": true,
      "inputs": [],
      "name": "fee",
      "outputs": [
        {
          "name": "",
          "type": "uint8"
        }
      ],
      "payable": false,
      "stateMutability": "view",
      "type": "function"
    },
    {
      "constant": true,
      "inputs": [
        {
          "name": "",
          "type": "address"
        }
      ],
      "name": "TotalUsers",
      "outputs": [
        {
          "name": "",
          "type": "uint256"
        }
      ],
      "payable": false,
      "stateMutability": "view",
      "type": "function"
    },
    {
      "constant": true,
      "inputs": [],
      "name": "userLevel1",
      "outputs": [
        {
          "name": "",
          "type": "uint8"
        }
      ],
      "payable": false,
      "stateMutability": "view",
      "type": "function"
    },
    {
      "constant": true,
      "inputs": [
        {
          "name": "",
          "type": "address"
        },
        {
          "name": "",
          "type": "uint256"
        }
      ],
      "name": "LockInviteBonus",
      "outputs": [
        {
          "name": "theDayLastSecond",
          "type": "uint256"
        },
        {
          "name": "theDayInviteBonus",
          "type": "uint256"
        },
        {
          "name": "totalInviteBonus",
          "type": "uint256"
        }
      ],
      "payable": false,
      "stateMutability": "view",
      "type": "function"
    },
    {
      "constant": true,
      "inputs": [],
      "name": "end",
      "outputs": [
        {
          "name": "",
          "type": "uint256"
        }
      ],
      "payable": false,
      "stateMutability": "view",
      "type": "function"
    },
    {
      "constant": false,
      "inputs": [
        {
          "name": "newOwner",
          "type": "address"
        }
      ],
      "name": "transferOwnership",
      "outputs": [],
      "payable": false,
      "stateMutability": "nonpayable",
      "type": "function"
    },
    {
      "constant": true,
      "inputs": [],
      "name": "totalRegister",
      "outputs": [
        {
          "name": "",
          "type": "uint256"
        }
      ],
      "payable": false,
      "stateMutability": "view",
      "type": "function"
    },
    {
      "constant": true,
      "inputs": [
        {
          "name": "",
          "type": "address"
        },
        {
          "name": "",
          "type": "uint256"
        }
      ],
      "name": "ChildAddrs",
      "outputs": [
        {
          "name": "",
          "type": "address"
        }
      ],
      "payable": false,
      "stateMutability": "view",
      "type": "function"
    },
    {
      "inputs": [
        {
          "name": "_tokenAddress",
          "type": "address"
        },
        {
          "name": "_receiver",
          "type": "address"
        },
        {
          "name": "_begin",
          "type": "uint256"
        },
        {
          "name": "_end",
          "type": "uint256"
        }
      ],
      "payable": false,
      "stateMutability": "nonpayable",
      "type": "constructor"
    },
    {
      "anonymous": false,
      "inputs": [
        {
          "indexed": false,
          "name": "_user",
          "type": "address"
        },
        {
          "indexed": false,
          "name": "inviteCode",
          "type": "uint256"
        }
      ],
      "name": "Registed",
      "type": "event"
    },
    {
      "anonymous": false,
      "inputs": [
        {
          "indexed": false,
          "name": "_user",
          "type": "address"
        },
        {
          "indexed": false,
          "name": "_theTime",
          "type": "uint256"
        },
        {
          "indexed": false,
          "name": "_amount",
          "type": "uint256"
        },
        {
          "indexed": false,
          "name": "_usdtOrCoin",
          "type": "bool"
        }
      ],
      "name": "Joined",
      "type": "event"
    },
    {
      "anonymous": false,
      "inputs": [
        {
          "indexed": false,
          "name": "_user",
          "type": "address"
        },
        {
          "indexed": false,
          "name": "_oldLevel",
          "type": "uint8"
        },
        {
          "indexed": false,
          "name": "_newLevel",
          "type": "uint8"
        }
      ],
      "name": "GradeChanged",
      "type": "event"
    },
    {
      "constant": false,
      "inputs": [
        {
          "name": "_fInviteCode",
          "type": "uint256"
        }
      ],
      "name": "register",
      "outputs": [],
      "payable": false,
      "stateMutability": "nonpayable",
      "type": "function"
    },
    {
      "constant": false,
      "inputs": [
        {
          "name": "_amount",
          "type": "uint256"
        },
        {
          "name": "_usdtOrCoin",
          "type": "bool"
        }
      ],
      "name": "join",
      "outputs": [],
      "payable": true,
      "stateMutability": "payable",
      "type": "function"
    },
    {
      "constant": true,
      "inputs": [
        {
          "name": "_selfAddr",
          "type": "address"
        },
        {
          "name": "_topAddr",
          "type": "address"
        },
        {
          "name": "_amount",
          "type": "uint256"
        }
      ],
      "name": "calcuDiffAmount",
      "outputs": [
        {
          "name": "",
          "type": "uint256"
        }
      ],
      "payable": false,
      "stateMutability": "view",
      "type": "function"
    },
    {
      "constant": false,
      "inputs": [
        {
          "name": "_topAddr",
          "type": "address"
        },
        {
          "name": "_minAmount",
          "type": "uint256"
        }
      ],
      "name": "setTopTeamBonus",
      "outputs": [
        {
          "name": "",
          "type": "uint8"
        }
      ],
      "payable": false,
      "stateMutability": "nonpayable",
      "type": "function"
    },
    {
      "constant": false,
      "inputs": [
        {
          "name": "_addr",
          "type": "address"
        }
      ],
      "name": "queryAndSetLevelN",
      "outputs": [],
      "payable": false,
      "stateMutability": "nonpayable",
      "type": "function"
    },
    {
      "constant": true,
      "inputs": [
        {
          "name": "_addr",
          "type": "address"
        },
        {
          "name": "_queryTime",
          "type": "uint256"
        }
      ],
      "name": "queryLockBalance",
      "outputs": [
        {
          "name": "",
          "type": "uint256"
        }
      ],
      "payable": false,
      "stateMutability": "view",
      "type": "function"
    },
    {
      "constant": true,
      "inputs": [
        {
          "name": "_queryTime",
          "type": "uint256"
        }
      ],
      "name": "getYestodayLastSecond",
      "outputs": [
        {
          "name": "",
          "type": "uint256"
        }
      ],
      "payable": false,
      "stateMutability": "view",
      "type": "function"
    },
    {
      "constant": false,
      "inputs": [
        {
          "name": "price",
          "type": "uint256"
        },
        {
          "name": "_queryTime",
          "type": "uint256"
        }
      ],
      "name": "putClosePrice",
      "outputs": [],
      "payable": false,
      "stateMutability": "nonpayable",
      "type": "function"
    },
    {
      "constant": false,
      "inputs": [
        {
          "name": "_addr",
          "type": "address"
        }
      ],
      "name": "setContract",
      "outputs": [],
      "payable": false,
      "stateMutability": "nonpayable",
      "type": "function"
    },
    {
      "constant": false,
      "inputs": [
        {
          "name": "_going",
          "type": "bool"
        }
      ],
      "name": "setGoing",
      "outputs": [],
      "payable": false,
      "stateMutability": "nonpayable",
      "type": "function"
    },
    {
      "constant": false,
      "inputs": [
        {
          "name": "_begin",
          "type": "uint256"
        }
      ],
      "name": "setBegin",
      "outputs": [],
      "payable": false,
      "stateMutability": "nonpayable",
      "type": "function"
    },
    {
      "constant": false,
      "inputs": [
        {
          "name": "_end",
          "type": "uint256"
        }
      ],
      "name": "setEnd",
      "outputs": [],
      "payable": false,
      "stateMutability": "nonpayable",
      "type": "function"
    },
    {
      "constant": false,
      "inputs": [
        {
          "name": "_level",
          "type": "uint8"
        },
        {
          "name": "_users",
          "type": "uint16"
        },
        {
          "name": "_amount",
          "type": "uint256"
        }
      ],
      "name": "setLevelN",
      "outputs": [],
      "payable": false,
      "stateMutability": "nonpayable",
      "type": "function"
    },
    {
      "constant": false,
      "inputs": [
        {
          "name": "_addr",
          "type": "address"
        }
      ],
      "name": "clearLock",
      "outputs": [],
      "payable": false,
      "stateMutability": "nonpayable",
      "type": "function"
    },
    {
      "constant": false,
      "inputs": [
        {
          "name": "_addr",
          "type": "address"
        },
        {
          "name": "_theDayLastSecond",
          "type": "uint256"
        },
        {
          "name": "_theDayInviteBonus",
          "type": "uint256"
        },
        {
          "name": "_totalInviteBonus",
          "type": "uint256"
        }
      ],
      "name": "pushInvite",
      "outputs": [],
      "payable": false,
      "stateMutability": "nonpayable",
      "type": "function"
    },
    {
      "constant": false,
      "inputs": [
        {
          "name": "_addr",
          "type": "address"
        },
        {
          "name": "_theDayInviteBonus",
          "type": "uint256"
        },
        {
          "name": "_totalInviteBonus",
          "type": "uint256"
        }
      ],
      "name": "setLastInvite",
      "outputs": [],
      "payable": false,
      "stateMutability": "nonpayable",
      "type": "function"
    },
    {
      "constant": false,
      "inputs": [
        {
          "name": "_addr",
          "type": "address"
        },
        {
          "name": "_theDayLastSecond",
          "type": "uint256"
        },
        {
          "name": "_theDayTeamBonus",
          "type": "uint256"
        },
        {
          "name": "_totalTeamBonus",
          "type": "uint256"
        },
        {
          "name": "_theDayRate",
          "type": "uint8"
        }
      ],
      "name": "pushTeam",
      "outputs": [],
      "payable": false,
      "stateMutability": "nonpayable",
      "type": "function"
    },
    {
      "constant": false,
      "inputs": [
        {
          "name": "_addr",
          "type": "address"
        },
        {
          "name": "_theDayTeamBonus",
          "type": "uint256"
        },
        {
          "name": "_totalTeamBonus",
          "type": "uint256"
        },
        {
          "name": "_theDayRate",
          "type": "uint8"
        }
      ],
      "name": "setLastTeam",
      "outputs": [],
      "payable": false,
      "stateMutability": "nonpayable",
      "type": "function"
    },
    {
      "constant": false,
      "inputs": [
        {
          "name": "_addr",
          "type": "address"
        }
      ],
      "name": "subTotalUsers",
      "outputs": [],
      "payable": false,
      "stateMutability": "nonpayable",
      "type": "function"
    },
    {
      "constant": false,
      "inputs": [
        {
          "name": "_addr",
          "type": "address"
        },
        {
          "name": "_amount",
          "type": "uint256"
        }
      ],
      "name": "subTotalLockingAmount",
      "outputs": [],
      "payable": false,
      "stateMutability": "nonpayable",
      "type": "function"
    },
    {
      "constant": false,
      "inputs": [
        {
          "name": "_amount",
          "type": "uint256"
        }
      ],
      "name": "subTotalBalance",
      "outputs": [],
      "payable": false,
      "stateMutability": "nonpayable",
      "type": "function"
    },
    {
      "constant": true,
      "inputs": [
        {
          "name": "_addr",
          "type": "address"
        }
      ],
      "name": "getLockLen",
      "outputs": [
        {
          "name": "",
          "type": "uint256"
        }
      ],
      "payable": false,
      "stateMutability": "view",
      "type": "function"
    },
    {
      "constant": true,
      "inputs": [
        {
          "name": "_addr",
          "type": "address"
        }
      ],
      "name": "getFathersLength",
      "outputs": [
        {
          "name": "",
          "type": "uint256"
        }
      ],
      "payable": false,
      "stateMutability": "view",
      "type": "function"
    },
    {
      "constant": true,
      "inputs": [
        {
          "name": "_addr",
          "type": "address"
        }
      ],
      "name": "getLockTeamBonusLen",
      "outputs": [
        {
          "name": "",
          "type": "uint256"
        }
      ],
      "payable": false,
      "stateMutability": "view",
      "type": "function"
    },
    {
      "constant": true,
      "inputs": [
        {
          "name": "_addr",
          "type": "address"
        }
      ],
      "name": "getLockInviteBonusLen",
      "outputs": [
        {
          "name": "",
          "type": "uint256"
        }
      ],
      "payable": false,
      "stateMutability": "view",
      "type": "function"
    },
    {
      "constant": true,
      "inputs": [
        {
          "name": "_addr",
          "type": "address"
        }
      ],
      "name": "getChildsLen",
      "outputs": [
        {
          "name": "",
          "type": "uint256"
        }
      ],
      "payable": false,
      "stateMutability": "view",
      "type": "function"
    },
    {
      "constant": false,
      "inputs": [
        {
          "name": "_level",
          "type": "uint8"
        },
        {
          "name": "_users",
          "type": "uint16"
        },
        {
          "name": "_amount",
          "type": "uint256"
        }
      ],
      "name": "setLevelC",
      "outputs": [],
      "payable": false,
      "stateMutability": "nonpayable",
      "type": "function"
    },
    {
      "constant": false,
      "inputs": [
        {
          "name": "_level",
          "type": "uint8"
        },
        {
          "name": "_levelRate",
          "type": "uint8"
        }
      ],
      "name": "setLevelR",
      "outputs": [],
      "payable": false,
      "stateMutability": "nonpayable",
      "type": "function"
    },
    {
      "constant": false,
      "inputs": [
        {
          "name": "_receiver",
          "type": "address"
        }
      ],
      "name": "setReceiver",
      "outputs": [],
      "payable": false,
      "stateMutability": "nonpayable",
      "type": "function"
    },
    {
      "constant": false,
      "inputs": [],
      "name": "draw",
      "outputs": [],
      "payable": false,
      "stateMutability": "nonpayable",
      "type": "function"
    }
  ],
  "bytecode": "0x60806040526040805190810160405280600d81526020017f4b4f4c2050726f6d6f74696f6e000000000000000000000000000000000000008152506001908051906020019062000051929190620003ac565b50620151806008556014600b60006101000a81548160ff021916908360ff160217905550600a600b60016101000a81548160ff021916908360ff1602179055506009600b60026101000a81548160ff021916908360ff1602179055506064600b60036101000a81548161ffff021916908361ffff16021790555060c8600b60056101000a81548161ffff021916908361ffff16021790555061012c600b60076101000a81548161ffff021916908361ffff16021790555069065a4da25d3016c00000600c55690a968163f0a57b400000600d5569152d02c7e14af6800000600e556001600f60006101000a81548160ff0219169083151502179055503480156200015a57600080fd5b5060405160808062005f8d83398101806040528101908080519060200190929190805190602001909291908051906020019092919080519060200190929190505050336000806101000a81548173ffffffffffffffffffffffffffffffffffffffff021916908373ffffffffffffffffffffffffffffffffffffffff16021790555083600260006101000a81548173ffffffffffffffffffffffffffffffffffffffff021916908373ffffffffffffffffffffffffffffffffffffffff16021790555082600460006101000a81548173ffffffffffffffffffffffffffffffffffffffff021916908373ffffffffffffffffffffffffffffffffffffffff16021790555081600581905550806006819055506000809054906101000a900473ffffffffffffffffffffffffffffffffffffffff16601a600080815260200190815260200160002060006101000a81548173ffffffffffffffffffffffffffffffffffffffff021916908373ffffffffffffffffffffffffffffffffffffffff1602179055506000601d60008060ff16815260200190815260200160002060006101000a81548160ff021916908360ff1602179055506003601d6000600160ff16815260200190815260200160002060006101000a81548160ff021916908360ff1602179055506005601d6000600260ff16815260200190815260200160002060006101000a81548160ff021916908360ff160217905550600a601d6000600360ff16815260200190815260200160002060006101000a81548160ff021916908360ff160217905550505050506200045b565b828054600181600116156101000203166002900490600052602060002090601f016020900481019282601f10620003ef57805160ff191683800117855562000420565b8280016001018555821562000420579182015b828111156200041f57825182559160200191906001019062000402565b5b5090506200042f919062000433565b5090565b6200045891905b80821115620004545760008160009055506001016200043a565b5090565b90565b615b22806200046b6000396000f300608060405260043610610358576000357c0100000000000000000000000000000000000000000000000000000000900463ffffffff16806219757b1461035d578063042a59ea146103a557806305536ac214610402578063057a53fc14610433578063069f19ce1461047657806306fdde03146104d757806308b7da39146105675780630dcba2d1146105925780630eecae21146105e95780630efd7661146106005780631251b7a41461062b57806315038e9e146106825780631bce6ff3146106f05780631ecf396d1461071b5780632217e6b6146107725780632253d381146107a5578063247505581461081f5780632517656b14610886578063254fbd7214610907578063275cdec31461095e578063294b4816146109895780632a61ae19146109ca5780632e39140f14610a215780632f63c36514610a82578063312b43ad14610add5780633983c66514610b3457806339e01ed814610bc15780633a9c7d1214610bfe5780633bc6cf4714610c2f578063549c5b4d14610c5a578063571f231514610c875780635b204f4c14610cb25780635dbac10e14610cfc57806360cd2f7c14610d2d57806361c17fa914610d585780636463a1d014610d875780636f42d97f14610dbe5780637132c03a14610e22578063718da7ee14610e9057806372e03a5c14610ed357806375f890ab14610f4f5780637c4bc6f714610f925780637f498ffc14610fbf578063808fe48a14610fec5780638099a6a61461101f57806389689e45146110525780638be7038e146110835780638da5cb5b146110da5780638dc735211461113157806396931d1114611174578063a1aebce8146111a5578063ad7a672f146111fc578063b4c81c6814611227578063bf131ad214611258578063c93ae0fc14611299578063cb3cdc4b146112f0578063cc7bc3a014611321578063cccbeebf14611352578063d0b3da99146113bf578063d4d2a5e2146113eb578063d732056314611433578063d83a3c9514611476578063d8495ac3146114c3578063dbf46a021461151a578063ddca3f4314611549578063e1d1792d1461157a578063e4ebc0e8146115d1578063e77f912414611602578063efbe1c1c14611671578063f207564e1461169c578063f2fde38b146116c9578063f718924a1461170c578063fca2aca514611737575b600080fd5b34801561036957600080fd5b506103a3600480360381019080803560ff169060200190929190803561ffff169060200190929190803590602001909291905050506117c4565b005b3480156103b157600080fd5b506103e6600480360381019080803573ffffffffffffffffffffffffffffffffffffffff1690602001909291905050506118c1565b604051808260ff1660ff16815260200191505060405180910390f35b34801561040e57600080fd5b506104176118e1565b604051808260ff1660ff16815260200191505060405180910390f35b34801561043f57600080fd5b50610474600480360381019080803573ffffffffffffffffffffffffffffffffffffffff1690602001909291905050506118e6565b005b34801561048257600080fd5b506104c1600480360381019080803573ffffffffffffffffffffffffffffffffffffffff169060200190929190803590602001909291905050506119dc565b6040518082815260200191505060405180910390f35b3480156104e357600080fd5b506104ec611cca565b6040518080602001828103825283818151815260200191508051906020019080838360005b8381101561052c578082015181840152602081019050610511565b50505050905090810190601f1680156105595780820380516001836020036101000a031916815260200191505b509250505060405180910390f35b34801561057357600080fd5b5061057c611d68565b6040518082815260200191505060405180910390f35b34801561059e57600080fd5b506105a7611d6e565b604051808273ffffffffffffffffffffffffffffffffffffffff1673ffffffffffffffffffffffffffffffffffffffff16815260200191505060405180910390f35b3480156105f557600080fd5b506105fe611d94565b005b34801561060c57600080fd5b50610615611e60565b6040518082815260200191505060405180910390f35b34801561063757600080fd5b50610680600480360381019080803573ffffffffffffffffffffffffffffffffffffffff1690602001909291908035906020019092919080359060200190929190505050611e66565b005b34801561068e57600080fd5b506106ee600480360381019080803573ffffffffffffffffffffffffffffffffffffffff169060200190929190803590602001909291908035906020019092919080359060200190929190803560ff169060200190929190505050611fd6565b005b3480156106fc57600080fd5b5061070561210a565b6040518082815260200191505060405180910390f35b34801561072757600080fd5b5061075c600480360381019080803573ffffffffffffffffffffffffffffffffffffffff169060200190929190505050612110565b6040518082815260200191505060405180910390f35b34801561077e57600080fd5b50610787612128565b604051808261ffff1661ffff16815260200191505060405180910390f35b3480156107b157600080fd5b506107f0600480360381019080803573ffffffffffffffffffffffffffffffffffffffff1690602001909291908035906020019092919050505061213c565b604051808581526020018481526020018381526020018215151515815260200194505050505060405180910390f35b34801561082b57600080fd5b5061086a600480360381019080803573ffffffffffffffffffffffffffffffffffffffff16906020019092919080359060200190929190505050612195565b604051808260ff1660ff16815260200191505060405180910390f35b34801561089257600080fd5b506108f1600480360381019080803573ffffffffffffffffffffffffffffffffffffffff169060200190929190803573ffffffffffffffffffffffffffffffffffffffff1690602001909291908035906020019092919050505061266d565b6040518082815260200191505060405180910390f35b34801561091357600080fd5b50610948600480360381019080803573ffffffffffffffffffffffffffffffffffffffff1690602001909291905050506127ef565b6040518082815260200191505060405180910390f35b34801561096a57600080fd5b5061097361283b565b6040518082815260200191505060405180910390f35b34801561099557600080fd5b506109b460048036038101908080359060200190929190505050612841565b6040518082815260200191505060405180910390f35b3480156109d657600080fd5b50610a0b600480360381019080803573ffffffffffffffffffffffffffffffffffffffff169060200190929190505050612859565b6040518082815260200191505060405180910390f35b348015610a2d57600080fd5b50610a80600480360381019080803573ffffffffffffffffffffffffffffffffffffffff169060200190929190803590602001909291908035906020019092919080359060200190929190505050612871565b005b348015610a8e57600080fd5b50610ac3600480360381019080803573ffffffffffffffffffffffffffffffffffffffff16906020019092919050505061297a565b604051808215151515815260200191505060405180910390f35b348015610ae957600080fd5b50610b1e600480360381019080803573ffffffffffffffffffffffffffffffffffffffff16906020019092919050505061299a565b6040518082815260200191505060405180910390f35b348015610b4057600080fd5b50610b7f600480360381019080803573ffffffffffffffffffffffffffffffffffffffff169060200190929190803590602001909291905050506129e6565b604051808273ffffffffffffffffffffffffffffffffffffffff1673ffffffffffffffffffffffffffffffffffffffff16815260200191505060405180910390f35b348015610bcd57600080fd5b50610bfc600480360381019080803560ff169060200190929190803560ff169060200190929190505050612a33565b005b348015610c0a57600080fd5b50610c13612ac4565b604051808260ff1660ff16815260200191505060405180910390f35b348015610c3b57600080fd5b50610c44612ad7565b6040518082815260200191505060405180910390f35b348015610c6657600080fd5b50610c8560048036038101908080359060200190929190505050612add565b005b348015610c9357600080fd5b50610c9c612b42565b6040518082815260200191505060405180910390f35b348015610cbe57600080fd5b50610ce0600480360381019080803560ff169060200190929190505050612b48565b604051808260ff1660ff16815260200191505060405180910390f35b348015610d0857600080fd5b50610d11612b68565b604051808260ff1660ff16815260200191505060405180910390f35b348015610d3957600080fd5b50610d42612b6d565b6040518082815260200191505060405180910390f35b348015610d6457600080fd5b50610d85600480360381019080803515159060200190929190505050612b74565b005b348015610d9357600080fd5b50610dbc6004803603810190808035906020019092919080359060200190929190505050612bec565b005b348015610dca57600080fd5b50610e20600480360381019080803573ffffffffffffffffffffffffffffffffffffffff1690602001909291908035906020019092919080359060200190929190803560ff169060200190929190505050612c89565b005b348015610e2e57600080fd5b50610e6d600480360381019080803573ffffffffffffffffffffffffffffffffffffffff16906020019092919080359060200190929190505050612e70565b604051808360ff1660ff1681526020018281526020019250505060405180910390f35b348015610e9c57600080fd5b50610ed1600480360381019080803573ffffffffffffffffffffffffffffffffffffffff169060200190929190505050612ebd565b005b348015610edf57600080fd5b50610f1e600480360381019080803573ffffffffffffffffffffffffffffffffffffffff16906020019092919080359060200190929190505050612f5c565b604051808581526020018481526020018381526020018260ff1660ff16815260200194505050505060405180910390f35b348015610f5b57600080fd5b50610f90600480360381019080803573ffffffffffffffffffffffffffffffffffffffff169060200190929190505050612fb5565b005b348015610f9e57600080fd5b50610fbd60048036038101908080359060200190929190505050613054565b005b348015610fcb57600080fd5b50610fea600480360381019080803590602001909291905050506130c3565b005b348015610ff857600080fd5b50611001613128565b604051808261ffff1661ffff16815260200191505060405180910390f35b34801561102b57600080fd5b5061103461313c565b604051808261ffff1661ffff16815260200191505060405180910390f35b34801561105e57600080fd5b50611067613150565b604051808260ff1660ff16815260200191505060405180910390f35b34801561108f57600080fd5b506110c4600480360381019080803573ffffffffffffffffffffffffffffffffffffffff169060200190929190505050613155565b6040518082815260200191505060405180910390f35b3480156110e657600080fd5b506110ef61316d565b604051808273ffffffffffffffffffffffffffffffffffffffff1673ffffffffffffffffffffffffffffffffffffffff16815260200191505060405180910390f35b34801561113d57600080fd5b50611172600480360381019080803573ffffffffffffffffffffffffffffffffffffffff169060200190929190505050613192565b005b34801561118057600080fd5b5061118961336d565b604051808260ff1660ff16815260200191505060405180910390f35b3480156111b157600080fd5b506111e6600480360381019080803573ffffffffffffffffffffffffffffffffffffffff169060200190929190505050613372565b6040518082815260200191505060405180910390f35b34801561120857600080fd5b506112116133be565b6040518082815260200191505060405180910390f35b34801561123357600080fd5b5061123c6133c4565b604051808260ff1660ff16815260200191505060405180910390f35b34801561126457600080fd5b50611283600480360381019080803590602001909291905050506133c9565b6040518082815260200191505060405180910390f35b3480156112a557600080fd5b506112da600480360381019080803573ffffffffffffffffffffffffffffffffffffffff16906020019092919050505061341e565b6040518082815260200191505060405180910390f35b3480156112fc57600080fd5b5061130561346a565b604051808260ff1660ff16815260200191505060405180910390f35b34801561132d57600080fd5b5061133661347d565b604051808260ff1660ff16815260200191505060405180910390f35b34801561135e57600080fd5b5061137d60048036038101908080359060200190929190505050613482565b604051808273ffffffffffffffffffffffffffffffffffffffff1673ffffffffffffffffffffffffffffffffffffffff16815260200191505060405180910390f35b6113e9600480360381019080803590602001909291908035151590602001909291905050506134b5565b005b3480156113f757600080fd5b50611431600480360381019080803560ff169060200190929190803561ffff16906020019092919080359060200190929190505050613f0a565b005b34801561143f57600080fd5b50611474600480360381019080803573ffffffffffffffffffffffffffffffffffffffff169060200190929190505050614007565b005b34801561148257600080fd5b506114c1600480360381019080803573ffffffffffffffffffffffffffffffffffffffff16906020019092919080359060200190929190505050614bc1565b005b3480156114cf57600080fd5b50611504600480360381019080803573ffffffffffffffffffffffffffffffffffffffff169060200190929190505050614cb7565b6040518082815260200191505060405180910390f35b34801561152657600080fd5b5061152f614d03565b604051808215151515815260200191505060405180910390f35b34801561155557600080fd5b5061155e614d16565b604051808260ff1660ff16815260200191505060405180910390f35b34801561158657600080fd5b506115bb600480360381019080803573ffffffffffffffffffffffffffffffffffffffff169060200190929190505050614d1b565b6040518082815260200191505060405180910390f35b3480156115dd57600080fd5b506115e6614d33565b604051808260ff1660ff16815260200191505060405180910390f35b34801561160e57600080fd5b5061164d600480360381019080803573ffffffffffffffffffffffffffffffffffffffff16906020019092919080359060200190929190505050614d46565b60405180848152602001838152602001828152602001935050505060405180910390f35b34801561167d57600080fd5b50611686614d8c565b6040518082815260200191505060405180910390f35b3480156116a857600080fd5b506116c760048036038101908080359060200190929190505050614d92565b005b3480156116d557600080fd5b5061170a600480360381019080803573ffffffffffffffffffffffffffffffffffffffff16906020019092919050505061543a565b005b34801561171857600080fd5b5061172161550f565b6040518082815260200191505060405180910390f35b34801561174357600080fd5b50611782600480360381019080803573ffffffffffffffffffffffffffffffffffffffff16906020019092919080359060200190929190505050615515565b604051808273ffffffffffffffffffffffffffffffffffffffff1673ffffffffffffffffffffffffffffffffffffffff16815260200191505060405180910390f35b6000809054906101000a900473ffffffffffffffffffffffffffffffffffffffff1673ffffffffffffffffffffffffffffffffffffffff163373ffffffffffffffffffffffffffffffffffffffff1614151561181f57600080fd5b60018360ff1614156118545781600b60036101000a81548161ffff021916908361ffff16021790555080600c819055506118bc565b60028360ff1614156118895781600b60056101000a81548161ffff021916908361ffff16021790555080600d819055506118bb565b60038360ff1614156118ba5781600b60076101000a81548161ffff021916908361ffff16021790555080600e819055505b5b5b505050565b601c6020528060005260406000206000915054906101000a900460ff1681565b600a81565b600360009054906101000a900473ffffffffffffffffffffffffffffffffffffffff1673ffffffffffffffffffffffffffffffffffffffff163373ffffffffffffffffffffffffffffffffffffffff1614151561194257600080fd5b6000601860008373ffffffffffffffffffffffffffffffffffffffff1673ffffffffffffffffffffffffffffffffffffffff1681526020019081526020016000205411156119d9576001601860008373ffffffffffffffffffffffffffffffffffffffff1673ffffffffffffffffffffffffffffffffffffffff168152602001908152602001600020600082825403925050819055505b50565b600080600060065484111515156119f257600080fd5b600090505b601560008673ffffffffffffffffffffffffffffffffffffffff1673ffffffffffffffffffffffffffffffffffffffff16815260200190815260200160002080549050811015611cbf57601560008673ffffffffffffffffffffffffffffffffffffffff1673ffffffffffffffffffffffffffffffffffffffff16815260200190815260200160002081815481101515611a8d57fe5b906000526020600020906004020160030160009054906101000a900460ff1615611be857601560008673ffffffffffffffffffffffffffffffffffffffff1673ffffffffffffffffffffffffffffffffffffffff16815260200190815260200160002081815481101515611afd57fe5b9060005260206000209060040201600001548410158015611b7b5750601560008673ffffffffffffffffffffffffffffffffffffffff1673ffffffffffffffffffffffffffffffffffffffff16815260200190815260200160002081815481101515611b6557fe5b9060005260206000209060040201600201548411155b15611be357601560008673ffffffffffffffffffffffffffffffffffffffff1673ffffffffffffffffffffffffffffffffffffffff16815260200190815260200160002081815481101515611bcc57fe5b906000526020600020906004020160010154820191505b611cb2565b601560008673ffffffffffffffffffffffffffffffffffffffff1673ffffffffffffffffffffffffffffffffffffffff16815260200190815260200160002081815481101515611c3457fe5b90600052602060002090600402016000015484101515611cb157601560008673ffffffffffffffffffffffffffffffffffffffff1673ffffffffffffffffffffffffffffffffffffffff16815260200190815260200160002081815481101515611c9a57fe5b906000526020600020906004020160010154820191505b5b80806001019150506119f7565b819250505092915050565b60018054600181600116156101000203166002900480601f016020809104026020016040519081016040528092919081815260200182805460018160011615610100020316600290048015611d605780601f10611d3557610100808354040283529160200191611d60565b820191906000526020600020905b815481529060010190602001808311611d4357829003601f168201915b505050505081565b600d5481565b600260009054906101000a900473ffffffffffffffffffffffffffffffffffffffff1681565b6000809054906101000a900473ffffffffffffffffffffffffffffffffffffffff1673ffffffffffffffffffffffffffffffffffffffff163373ffffffffffffffffffffffffffffffffffffffff16141515611def57600080fd5b600460009054906101000a900473ffffffffffffffffffffffffffffffffffffffff1673ffffffffffffffffffffffffffffffffffffffff166108fc3073ffffffffffffffffffffffffffffffffffffffff16319081150290604051600060405180830381858888f1935050505050565b600e5481565b6000600360009054906101000a900473ffffffffffffffffffffffffffffffffffffffff1673ffffffffffffffffffffffffffffffffffffffff163373ffffffffffffffffffffffffffffffffffffffff16141515611ec457600080fd5b6001601160008673ffffffffffffffffffffffffffffffffffffffff1673ffffffffffffffffffffffffffffffffffffffff1681526020019081526020016000208054905003905082601160008673ffffffffffffffffffffffffffffffffffffffff1673ffffffffffffffffffffffffffffffffffffffff16815260200190815260200160002082815481101515611f5957fe5b90600052602060002090600302016001018190555081601160008673ffffffffffffffffffffffffffffffffffffffff1673ffffffffffffffffffffffffffffffffffffffff16815260200190815260200160002082815481101515611fbb57fe5b90600052602060002090600302016002018190555050505050565b600360009054906101000a900473ffffffffffffffffffffffffffffffffffffffff1673ffffffffffffffffffffffffffffffffffffffff163373ffffffffffffffffffffffffffffffffffffffff1614151561203257600080fd5b601060008673ffffffffffffffffffffffffffffffffffffffff1673ffffffffffffffffffffffffffffffffffffffff1681526020019081526020016000206080604051908101604052808681526020018581526020018481526020018360ff168152509080600181540180825580915050906001820390600052602060002090600402016000909192909190915060008201518160000155602082015181600101556040820151816002015560608201518160030160006101000a81548160ff021916908360ff1602179055505050505050505050565b60055481565b60196020528060005260406000206000915090505481565b600b60059054906101000a900461ffff1681565b60156020528160005260406000208181548110151561215757fe5b9060005260206000209060040201600091509150508060000154908060010154908060020154908060030160009054906101000a900460ff16905084565b6000806121a0615aca565b6000806000601d6000601c60008b73ffffffffffffffffffffffffffffffffffffffff1673ffffffffffffffffffffffffffffffffffffffff16815260200190815260200160002060009054906101000a900460ff1660ff1660ff16815260200190815260200160002060009054906101000a900460ff169450608060405190810160405280600081526020016000815260200160008152602001600060ff168152509350600854612251426133c9565b0192506000601060008a73ffffffffffffffffffffffffffffffffffffffff1673ffffffffffffffffffffffffffffffffffffffff16815260200190815260200160002080549050141561239257828460000181815250508684602001818152505060648560ff1688028115156122c457fe5b0484604001818152505084846060019060ff16908160ff1681525050601060008973ffffffffffffffffffffffffffffffffffffffff1673ffffffffffffffffffffffffffffffffffffffff168152602001908152602001600020849080600181540180825580915050906001820390600052602060002090600402016000909192909190915060008201518160000155602082015181600101556040820151816002015560608201518160030160006101000a81548160ff021916908360ff160217905550505050612662565b6001601060008a73ffffffffffffffffffffffffffffffffffffffff1673ffffffffffffffffffffffffffffffffffffffff16815260200190815260200160002080549050039150601060008973ffffffffffffffffffffffffffffffffffffffff1673ffffffffffffffffffffffffffffffffffffffff1681526020019081526020016000208281548110151561242657fe5b9060005260206000209060040201608060405190810160405290816000820154815260200160018201548152602001600282015481526020016003820160009054906101000a900460ff1660ff1660ff168152505093506008548460000151840381151561249057fe5b0490506064846060015160ff1685602001518302028115156124ae57fe5b0484604001818152505060648560ff1688028115156124c957fe5b048460400181815101915081815250508684602001818151019150818152505084846060019060ff16908160ff168152505082846000015110156125c35782846000018181525050601060008973ffffffffffffffffffffffffffffffffffffffff1673ffffffffffffffffffffffffffffffffffffffff168152602001908152602001600020849080600181540180825580915050906001820390600052602060002090600402016000909192909190915060008201518160000155602082015181600101556040820151816002015560608201518160030160006101000a81548160ff021916908360ff160217905550505050612661565b83601060008a73ffffffffffffffffffffffffffffffffffffffff1673ffffffffffffffffffffffffffffffffffffffff1681526020019081526020016000208381548110151561261057fe5b906000526020600020906004020160008201518160000155602082015181600101556040820151816002015560608201518160030160006101000a81548160ff021916908360ff1602179055509050505b5b505050505092915050565b600080600080600080600061268289426119dc565b955061268e8a426119dc565b945084861015156126a1578793506127b8565b6001601560008c73ffffffffffffffffffffffffffffffffffffffff1673ffffffffffffffffffffffffffffffffffffffff1681526020019081526020016000208054905011156127b3576002601560008c73ffffffffffffffffffffffffffffffffffffffff1673ffffffffffffffffffffffffffffffffffffffff16815260200190815260200160002080549050039250601560008b73ffffffffffffffffffffffffffffffffffffffff1673ffffffffffffffffffffffffffffffffffffffff1681526020019081526020016000208381548110151561278057fe5b906000526020600020906004020160000154915061279e8a836119dc565b9050808611156127ae5780860393505b6127b7565b8593505b5b6127e06103e86127d260038761556290919063ffffffff16565b61559890919063ffffffff16565b96505050505050509392505050565b6000601060008373ffffffffffffffffffffffffffffffffffffffff1673ffffffffffffffffffffffffffffffffffffffff168152602001908152602001600020805490509050919050565b600c5481565b60176020528060005260406000206000915090505481565b60166020528060005260406000206000915090505481565b600360009054906101000a900473ffffffffffffffffffffffffffffffffffffffff1673ffffffffffffffffffffffffffffffffffffffff163373ffffffffffffffffffffffffffffffffffffffff161415156128cd57600080fd5b601160008573ffffffffffffffffffffffffffffffffffffffff1673ffffffffffffffffffffffffffffffffffffffff168152602001908152602001600020606060405190810160405280858152602001848152602001838152509080600181540180825580915050906001820390600052602060002090600302016000909192909190915060008201518160000155602082015181600101556040820151816002015550505050505050565b601e6020528060005260406000206000915054906101000a900460ff1681565b6000601160008373ffffffffffffffffffffffffffffffffffffffff1673ffffffffffffffffffffffffffffffffffffffff168152602001908152602001600020805490509050919050565b601260205281600052604060002081815481101515612a0157fe5b906000526020600020016000915091509054906101000a900473ffffffffffffffffffffffffffffffffffffffff1681565b6000809054906101000a900473ffffffffffffffffffffffffffffffffffffffff1673ffffffffffffffffffffffffffffffffffffffff163373ffffffffffffffffffffffffffffffffffffffff16141515612a8e57600080fd5b80601d60008460ff1660ff16815260200190815260200160002060006101000a81548160ff021916908360ff1602179055505050565b600b60019054906101000a900460ff1681565b60085481565b6000809054906101000a900473ffffffffffffffffffffffffffffffffffffffff1673ffffffffffffffffffffffffffffffffffffffff163373ffffffffffffffffffffffffffffffffffffffff16141515612b3857600080fd5b8060058190555050565b60075481565b601d6020528060005260406000206000915054906101000a900460ff1681565b600581565b62278d0081565b6000809054906101000a900473ffffffffffffffffffffffffffffffffffffffff1673ffffffffffffffffffffffffffffffffffffffff163373ffffffffffffffffffffffffffffffffffffffff16141515612bcf57600080fd5b80600f60006101000a81548160ff02191690831515021790555050565b60008060009054906101000a900473ffffffffffffffffffffffffffffffffffffffff1673ffffffffffffffffffffffffffffffffffffffff163373ffffffffffffffffffffffffffffffffffffffff16141515612c4957600080fd5b600854600202600654018211151515612c6157600080fd5b612c6a826133c9565b9050826017600083815260200190815260200160002081905550505050565b6000600360009054906101000a900473ffffffffffffffffffffffffffffffffffffffff1673ffffffffffffffffffffffffffffffffffffffff163373ffffffffffffffffffffffffffffffffffffffff16141515612ce757600080fd5b6001601060008773ffffffffffffffffffffffffffffffffffffffff1673ffffffffffffffffffffffffffffffffffffffff1681526020019081526020016000208054905003905083601060008773ffffffffffffffffffffffffffffffffffffffff1673ffffffffffffffffffffffffffffffffffffffff16815260200190815260200160002082815481101515612d7c57fe5b90600052602060002090600402016001018190555082601060008773ffffffffffffffffffffffffffffffffffffffff1673ffffffffffffffffffffffffffffffffffffffff16815260200190815260200160002082815481101515612dde57fe5b90600052602060002090600402016002018190555081601060008773ffffffffffffffffffffffffffffffffffffffff1673ffffffffffffffffffffffffffffffffffffffff16815260200190815260200160002082815481101515612e4057fe5b906000526020600020906004020160030160006101000a81548160ff021916908360ff1602179055505050505050565b601460205281600052604060002081815481101515612e8b57fe5b9060005260206000209060020201600091509150508060000160009054906101000a900460ff16908060010154905082565b6000809054906101000a900473ffffffffffffffffffffffffffffffffffffffff1673ffffffffffffffffffffffffffffffffffffffff163373ffffffffffffffffffffffffffffffffffffffff16141515612f1857600080fd5b80600460006101000a81548173ffffffffffffffffffffffffffffffffffffffff021916908373ffffffffffffffffffffffffffffffffffffffff16021790555050565b601060205281600052604060002081815481101515612f7757fe5b9060005260206000209060040201600091509150508060000154908060010154908060020154908060030160009054906101000a900460ff16905084565b6000809054906101000a900473ffffffffffffffffffffffffffffffffffffffff1673ffffffffffffffffffffffffffffffffffffffff163373ffffffffffffffffffffffffffffffffffffffff1614151561301057600080fd5b80600360006101000a81548173ffffffffffffffffffffffffffffffffffffffff021916908373ffffffffffffffffffffffffffffffffffffffff16021790555050565b600360009054906101000a900473ffffffffffffffffffffffffffffffffffffffff1673ffffffffffffffffffffffffffffffffffffffff163373ffffffffffffffffffffffffffffffffffffffff161415156130b057600080fd5b80600a6000828254039250508190555050565b6000809054906101000a900473ffffffffffffffffffffffffffffffffffffffff1673ffffffffffffffffffffffffffffffffffffffff163373ffffffffffffffffffffffffffffffffffffffff1614151561311e57600080fd5b8060068190555050565b600b60079054906101000a900461ffff1681565b600b60039054906101000a900461ffff1681565b600281565b601b6020528060005260406000206000915090505481565b6000809054906101000a900473ffffffffffffffffffffffffffffffffffffffff1681565b6000600360009054906101000a900473ffffffffffffffffffffffffffffffffffffffff1673ffffffffffffffffffffffffffffffffffffffff163373ffffffffffffffffffffffffffffffffffffffff161415156131f057600080fd5b600090505b601560008373ffffffffffffffffffffffffffffffffffffffff1673ffffffffffffffffffffffffffffffffffffffff168152602001908152602001600020805490508110156133245742601560008473ffffffffffffffffffffffffffffffffffffffff1673ffffffffffffffffffffffffffffffffffffffff1681526020019081526020016000208281548110151561328c57fe5b9060005260206000209060040201600201819055506001601560008473ffffffffffffffffffffffffffffffffffffffff1673ffffffffffffffffffffffffffffffffffffffff168152602001908152602001600020828154811015156132ef57fe5b906000526020600020906004020160030160006101000a81548160ff02191690831515021790555080806001019150506131f5565b6000601660003373ffffffffffffffffffffffffffffffffffffffff1673ffffffffffffffffffffffffffffffffffffffff168152602001908152602001600020819055505050565b600381565b6000601360008373ffffffffffffffffffffffffffffffffffffffff1673ffffffffffffffffffffffffffffffffffffffff168152602001908152602001600020805490509050919050565b600a5481565b600581565b60006008546006540182111515156133e057600080fd5b60016134166008546133fd600554866155df90919063ffffffff16565b81151561340657fe5b06846155df90919063ffffffff16565b039050919050565b6000601560008373ffffffffffffffffffffffffffffffffffffffff1673ffffffffffffffffffffffffffffffffffffffff168152602001908152602001600020805490509050919050565b600b60029054906101000a900460ff1681565b600381565b601a6020528060005260406000206000915054906101000a900473ffffffffffffffffffffffffffffffffffffffff1681565b6000806000600f60009054906101000a900460ff1615156134d557600080fd5b60065442111515156134e657600080fd5b6000601660003373ffffffffffffffffffffffffffffffffffffffff1673ffffffffffffffffffffffffffffffffffffffff1681526020019081526020016000205414156135865783601e60003373ffffffffffffffffffffffffffffffffffffffff1673ffffffffffffffffffffffffffffffffffffffff16815260200190815260200160002060006101000a81548160ff0219169083151502179055505b600260009054906101000a900473ffffffffffffffffffffffffffffffffffffffff1673ffffffffffffffffffffffffffffffffffffffff166323b872dd33600360009054906101000a900473ffffffffffffffffffffffffffffffffffffffff16886040518463ffffffff167c0100000000000000000000000000000000000000000000000000000000028152600401808473ffffffffffffffffffffffffffffffffffffffff1673ffffffffffffffffffffffffffffffffffffffff1681526020018373ffffffffffffffffffffffffffffffffffffffff1673ffffffffffffffffffffffffffffffffffffffff1681526020018281526020019350505050600060405180830381600087803b1580156136a157600080fd5b505af11580156136b5573d6000803e3d6000fd5b50505050601560003373ffffffffffffffffffffffffffffffffffffffff1673ffffffffffffffffffffffffffffffffffffffff16815260200190815260200160002060806040519081016040528042815260200187815260200160008152602001600015158152509080600181540180825580915050906001820390600052602060002090600402016000909192909190915060008201518160000155602082015181600101556040820151816002015560608201518160030160006101000a81548160ff021916908315150217905550505050601660003373ffffffffffffffffffffffffffffffffffffffff1673ffffffffffffffffffffffffffffffffffffffff16815260200190815260200160002054925061381e85601660003373ffffffffffffffffffffffffffffffffffffffff1673ffffffffffffffffffffffffffffffffffffffff168152602001908152602001600020546155fb90919063ffffffff16565b601660003373ffffffffffffffffffffffffffffffffffffffff1673ffffffffffffffffffffffffffffffffffffffff1681526020019081526020016000208190555061387685600a546155fb90919063ffffffff16565b600a819055507f11cb292a08eba5f64499fcedb93fd02a1af37c611dfdf9aa1012b3d408d7d59e33428787604051808573ffffffffffffffffffffffffffffffffffffffff1673ffffffffffffffffffffffffffffffffffffffff1681526020018481526020018381526020018215151515815260200194505050505060405180910390a1600090505b601260003373ffffffffffffffffffffffffffffffffffffffff1673ffffffffffffffffffffffffffffffffffffffff16815260200190815260200160002080549050811015613f0357600b60029054906101000a900460ff1660ff1681141561396957613f03565b6001601560003373ffffffffffffffffffffffffffffffffffffffff1673ffffffffffffffffffffffffffffffffffffffff168152602001908152602001600020805490501415613a7d57600160186000601260003373ffffffffffffffffffffffffffffffffffffffff1673ffffffffffffffffffffffffffffffffffffffff16815260200190815260200160002084815481101515613a0657fe5b9060005260206000200160009054906101000a900473ffffffffffffffffffffffffffffffffffffffff1673ffffffffffffffffffffffffffffffffffffffff1673ffffffffffffffffffffffffffffffffffffffff16815260200190815260200160002060008282540192505081905550613b4c565b6000831415613b4b57600160186000601260003373ffffffffffffffffffffffffffffffffffffffff1673ffffffffffffffffffffffffffffffffffffffff16815260200190815260200160002084815481101515613ad857fe5b9060005260206000200160009054906101000a900473ffffffffffffffffffffffffffffffffffffffff1673ffffffffffffffffffffffffffffffffffffffff1673ffffffffffffffffffffffffffffffffffffffff168152602001908152602001600020600082825401925050819055505b5b613c148560196000601260003373ffffffffffffffffffffffffffffffffffffffff1673ffffffffffffffffffffffffffffffffffffffff16815260200190815260200160002085815481101515613ba057fe5b9060005260206000200160009054906101000a900473ffffffffffffffffffffffffffffffffffffffff1673ffffffffffffffffffffffffffffffffffffffff1673ffffffffffffffffffffffffffffffffffffffff168152602001908152602001600020546155fb90919063ffffffff16565b60196000601260003373ffffffffffffffffffffffffffffffffffffffff1673ffffffffffffffffffffffffffffffffffffffff16815260200190815260200160002084815481101515613c6457fe5b9060005260206000200160009054906101000a900473ffffffffffffffffffffffffffffffffffffffff1673ffffffffffffffffffffffffffffffffffffffff1673ffffffffffffffffffffffffffffffffffffffff16815260200190815260200160002081905550613d4c601260003373ffffffffffffffffffffffffffffffffffffffff1673ffffffffffffffffffffffffffffffffffffffff16815260200190815260200160002082815481101515613d1c57fe5b9060005260206000200160009054906101000a900473ffffffffffffffffffffffffffffffffffffffff16614007565b613dcd33601260003373ffffffffffffffffffffffffffffffffffffffff1673ffffffffffffffffffffffffffffffffffffffff16815260200190815260200160002083815481101515613d9c57fe5b9060005260206000200160009054906101000a900473ffffffffffffffffffffffffffffffffffffffff168761266d565b91506002811015613e5a57613e59601260003373ffffffffffffffffffffffffffffffffffffffff1673ffffffffffffffffffffffffffffffffffffffff16815260200190815260200160002082815481101515613e2757fe5b9060005260206000200160009054906101000a900473ffffffffffffffffffffffffffffffffffffffff16838361561c565b5b600b60029054906101000a900460ff1660ff16811015613ef657613ef4601260003373ffffffffffffffffffffffffffffffffffffffff1673ffffffffffffffffffffffffffffffffffffffff16815260200190815260200160002082815481101515613ec357fe5b9060005260206000200160009054906101000a900473ffffffffffffffffffffffffffffffffffffffff1683612195565b505b8080600101915050613900565b5050505050565b6000809054906101000a900473ffffffffffffffffffffffffffffffffffffffff1673ffffffffffffffffffffffffffffffffffffffff163373ffffffffffffffffffffffffffffffffffffffff16141515613f6557600080fd5b60018360ff161415613f9a5781600b60036101000a81548161ffff021916908361ffff16021790555080600c81905550614002565b60028360ff161415613fcf5781600b60056101000a81548161ffff021916908361ffff16021790555080600d81905550614001565b60038360ff1614156140005781600b60076101000a81548161ffff021916908361ffff16021790555080600e819055505b5b5b505050565b600b60079054906101000a900461ffff1661ffff16601860008373ffffffffffffffffffffffffffffffffffffffff1673ffffffffffffffffffffffffffffffffffffffff16815260200190815260200160002054101580156140ab5750600e54601960008373ffffffffffffffffffffffffffffffffffffffff1673ffffffffffffffffffffffffffffffffffffffff1681526020019081526020016000205410155b80156140fd5750600560ff16601360008373ffffffffffffffffffffffffffffffffffffffff1673ffffffffffffffffffffffffffffffffffffffff1681526020019081526020016000208054905010155b15614334576003601c60008373ffffffffffffffffffffffffffffffffffffffff1673ffffffffffffffffffffffffffffffffffffffff16815260200190815260200160002060009054906101000a900460ff1660ff1614151561432f577fc7d5ff51d6870ddf5a0064f51d3b5ddc326806d4c4a84146226d42ea13e0bf3e81601c60008473ffffffffffffffffffffffffffffffffffffffff1673ffffffffffffffffffffffffffffffffffffffff16815260200190815260200160002060009054906101000a900460ff166003604051808473ffffffffffffffffffffffffffffffffffffffff1673ffffffffffffffffffffffffffffffffffffffff1681526020018360ff1660ff1681526020018260ff168152602001935050505060405180910390a16003601c60008373ffffffffffffffffffffffffffffffffffffffff1673ffffffffffffffffffffffffffffffffffffffff16815260200190815260200160002060006101000a81548160ff021916908360ff160217905550601460008273ffffffffffffffffffffffffffffffffffffffff1673ffffffffffffffffffffffffffffffffffffffff1681526020019081526020016000206040805190810160405280600360ff168152602001428152509080600181540180825580915050906001820390600052602060002090600202016000909192909190915060008201518160000160006101000a81548160ff021916908360ff160217905550602082015181600101555050505b614bbe565b600b60059054906101000a900461ffff1661ffff16601860008373ffffffffffffffffffffffffffffffffffffffff1673ffffffffffffffffffffffffffffffffffffffff16815260200190815260200160002054101580156143d85750600d54601960008373ffffffffffffffffffffffffffffffffffffffff1673ffffffffffffffffffffffffffffffffffffffff1681526020019081526020016000205410155b801561442a5750600360ff16601360008373ffffffffffffffffffffffffffffffffffffffff1673ffffffffffffffffffffffffffffffffffffffff1681526020019081526020016000208054905010155b15614661576002601c60008373ffffffffffffffffffffffffffffffffffffffff1673ffffffffffffffffffffffffffffffffffffffff16815260200190815260200160002060009054906101000a900460ff1660ff1614151561465c577fc7d5ff51d6870ddf5a0064f51d3b5ddc326806d4c4a84146226d42ea13e0bf3e81601c60008473ffffffffffffffffffffffffffffffffffffffff1673ffffffffffffffffffffffffffffffffffffffff16815260200190815260200160002060009054906101000a900460ff166002604051808473ffffffffffffffffffffffffffffffffffffffff1673ffffffffffffffffffffffffffffffffffffffff1681526020018360ff1660ff1681526020018260ff168152602001935050505060405180910390a16002601c60008373ffffffffffffffffffffffffffffffffffffffff1673ffffffffffffffffffffffffffffffffffffffff16815260200190815260200160002060006101000a81548160ff021916908360ff160217905550601460008273ffffffffffffffffffffffffffffffffffffffff1673ffffffffffffffffffffffffffffffffffffffff1681526020019081526020016000206040805190810160405280600260ff168152602001428152509080600181540180825580915050906001820390600052602060002090600202016000909192909190915060008201518160000160006101000a81548160ff021916908360ff160217905550602082015181600101555050505b614bbd565b600b60039054906101000a900461ffff1661ffff16601860008373ffffffffffffffffffffffffffffffffffffffff1673ffffffffffffffffffffffffffffffffffffffff16815260200190815260200160002054101580156147055750600c54601960008373ffffffffffffffffffffffffffffffffffffffff1673ffffffffffffffffffffffffffffffffffffffff1681526020019081526020016000205410155b80156147575750600260ff16601360008373ffffffffffffffffffffffffffffffffffffffff1673ffffffffffffffffffffffffffffffffffffffff1681526020019081526020016000208054905010155b1561498e576001601c60008373ffffffffffffffffffffffffffffffffffffffff1673ffffffffffffffffffffffffffffffffffffffff16815260200190815260200160002060009054906101000a900460ff1660ff16141515614989577fc7d5ff51d6870ddf5a0064f51d3b5ddc326806d4c4a84146226d42ea13e0bf3e81601c60008473ffffffffffffffffffffffffffffffffffffffff1673ffffffffffffffffffffffffffffffffffffffff16815260200190815260200160002060009054906101000a900460ff166001604051808473ffffffffffffffffffffffffffffffffffffffff1673ffffffffffffffffffffffffffffffffffffffff1681526020018360ff1660ff1681526020018260ff168152602001935050505060405180910390a16001601c60008373ffffffffffffffffffffffffffffffffffffffff1673ffffffffffffffffffffffffffffffffffffffff16815260200190815260200160002060006101000a81548160ff021916908360ff160217905550601460008273ffffffffffffffffffffffffffffffffffffffff1673ffffffffffffffffffffffffffffffffffffffff1681526020019081526020016000206040805190810160405280600160ff168152602001428152509080600181540180825580915050906001820390600052602060002090600202016000909192909190915060008201518160000160006101000a81548160ff021916908360ff160217905550602082015181600101555050505b614bbc565b6000601c60008373ffffffffffffffffffffffffffffffffffffffff1673ffffffffffffffffffffffffffffffffffffffff16815260200190815260200160002060009054906101000a900460ff1660ff16141515614bbb577fc7d5ff51d6870ddf5a0064f51d3b5ddc326806d4c4a84146226d42ea13e0bf3e81601c60008473ffffffffffffffffffffffffffffffffffffffff1673ffffffffffffffffffffffffffffffffffffffff16815260200190815260200160002060009054906101000a900460ff166000604051808473ffffffffffffffffffffffffffffffffffffffff1673ffffffffffffffffffffffffffffffffffffffff1681526020018360ff1660ff1681526020018260ff168152602001935050505060405180910390a16000601c60008373ffffffffffffffffffffffffffffffffffffffff1673ffffffffffffffffffffffffffffffffffffffff16815260200190815260200160002060006101000a81548160ff021916908360ff160217905550601460008273ffffffffffffffffffffffffffffffffffffffff1673ffffffffffffffffffffffffffffffffffffffff1681526020019081526020016000206040805190810160405280600060ff168152602001428152509080600181540180825580915050906001820390600052602060002090600202016000909192909190915060008201518160000160006101000a81548160ff021916908360ff160217905550602082015181600101555050505b5b5b5b50565b600360009054906101000a900473ffffffffffffffffffffffffffffffffffffffff1673ffffffffffffffffffffffffffffffffffffffff163373ffffffffffffffffffffffffffffffffffffffff16141515614c1d57600080fd5b80601960008473ffffffffffffffffffffffffffffffffffffffff1673ffffffffffffffffffffffffffffffffffffffff16815260200190815260200160002054101515614cb35780601860008473ffffffffffffffffffffffffffffffffffffffff1673ffffffffffffffffffffffffffffffffffffffff168152602001908152602001600020600082825403925050819055505b5050565b6000601260008373ffffffffffffffffffffffffffffffffffffffff1673ffffffffffffffffffffffffffffffffffffffff168152602001908152602001600020805490509050919050565b600f60009054906101000a900460ff1681565b600581565b60186020528060005260406000206000915090505481565b600b60009054906101000a900460ff1681565b601160205281600052604060002081815481101515614d6157fe5b9060005260206000209060030201600091509150508060000154908060010154908060020154905083565b60065481565b600080600080600f60009054906101000a900460ff161515614db357600080fd5b6006544211151515614dc457600080fd5b6000601b60003373ffffffffffffffffffffffffffffffffffffffff1673ffffffffffffffffffffffffffffffffffffffff16815260200190815260200160002054141515614e1257600080fd5b60644233604051808381526020018273ffffffffffffffffffffffffffffffffffffffff1673ffffffffffffffffffffffffffffffffffffffff166c0100000000000000000000000002815260140192505050604051809103902060019004811515614e7a57fe5b069350614e92846007546155fb90919063ffffffff16565b9250614ea9846007546155fb90919063ffffffff16565b600781905550600073ffffffffffffffffffffffffffffffffffffffff16601a600085815260200190815260200160002060009054906101000a900473ffffffffffffffffffffffffffffffffffffffff1673ffffffffffffffffffffffffffffffffffffffff16141515614f1d57600080fd5b600073ffffffffffffffffffffffffffffffffffffffff16601a600087815260200190815260200160002060009054906101000a900473ffffffffffffffffffffffffffffffffffffffff1673ffffffffffffffffffffffffffffffffffffffff1614151515614f8c57600080fd5b33601a600085815260200190815260200160002060006101000a81548173ffffffffffffffffffffffffffffffffffffffff021916908373ffffffffffffffffffffffffffffffffffffffff16021790555082601b60003373ffffffffffffffffffffffffffffffffffffffff1673ffffffffffffffffffffffffffffffffffffffff168152602001908152602001600020819055507f29317bf7eb9941522faad78efabe2efda58f223f6b421c6e91762fb0484cbdad33600754604051808373ffffffffffffffffffffffffffffffffffffffff1673ffffffffffffffffffffffffffffffffffffffff1681526020018281526020019250505060405180910390a1600960008154809291906001019190505550601a600086815260200190815260200160002060009054906101000a900473ffffffffffffffffffffffffffffffffffffffff169150601360008373ffffffffffffffffffffffffffffffffffffffff1673ffffffffffffffffffffffffffffffffffffffff1681526020019081526020016000203390806001815401808255809150509060018203906000526020600020016000909192909190916101000a81548173ffffffffffffffffffffffffffffffffffffffff021916908373ffffffffffffffffffffffffffffffffffffffff160217905550506009601260003373ffffffffffffffffffffffffffffffffffffffff1673ffffffffffffffffffffffffffffffffffffffff16815260200190815260200160002080549050101561526957601260003373ffffffffffffffffffffffffffffffffffffffff1673ffffffffffffffffffffffffffffffffffffffff1681526020019081526020016000208290806001815401808255809150509060018203906000526020600020016000909192909190916101000a81548173ffffffffffffffffffffffffffffffffffffffff021916908373ffffffffffffffffffffffffffffffffffffffff160217905550505b600090505b601260008373ffffffffffffffffffffffffffffffffffffffff1673ffffffffffffffffffffffffffffffffffffffff16815260200190815260200160002080549050811015615433576009601260003373ffffffffffffffffffffffffffffffffffffffff1673ffffffffffffffffffffffffffffffffffffffff16815260200190815260200160002080549050101561542157601260003373ffffffffffffffffffffffffffffffffffffffff1673ffffffffffffffffffffffffffffffffffffffff168152602001908152602001600020601260008473ffffffffffffffffffffffffffffffffffffffff1673ffffffffffffffffffffffffffffffffffffffff1681526020019081526020016000208281548110151561538e57fe5b9060005260206000200160009054906101000a900473ffffffffffffffffffffffffffffffffffffffff1690806001815401808255809150509060018203906000526020600020016000909192909190916101000a81548173ffffffffffffffffffffffffffffffffffffffff021916908373ffffffffffffffffffffffffffffffffffffffff16021790555050615426565b615433565b808060010191505061526e565b5050505050565b6000809054906101000a900473ffffffffffffffffffffffffffffffffffffffff1673ffffffffffffffffffffffffffffffffffffffff163373ffffffffffffffffffffffffffffffffffffffff1614151561549557600080fd5b600073ffffffffffffffffffffffffffffffffffffffff168173ffffffffffffffffffffffffffffffffffffffff1614151561550c57806000806101000a81548173ffffffffffffffffffffffffffffffffffffffff021916908373ffffffffffffffffffffffffffffffffffffffff1602179055505b50565b60095481565b60136020528160005260406000208181548110151561553057fe5b906000526020600020016000915091509054906101000a900473ffffffffffffffffffffffffffffffffffffffff1681565b60008082840290506000841480615583575082848281151561558057fe5b04145b151561558e57600080fd5b8091505092915050565b6000806000831115156155aa57600080fd5b82848115156155b557fe5b04905082848115156155c357fe5b0681840201841415156155d557600080fd5b8091505092915050565b60008282111515156155f057600080fd5b818303905092915050565b600080828401905083811015151561561257600080fd5b8091505092915050565b6000806000806000806000806000808a141561564957600b60009054906101000a900460ff16985061566f565b60018a141561566957600b60019054906101000a900460ff16985061566e565b615abc565b5b60085461567b426133c9565b0197506000601160008e73ffffffffffffffffffffffffffffffffffffffff1673ffffffffffffffffffffffffffffffffffffffff16815260200190815260200160002080549050141561579757601160008d73ffffffffffffffffffffffffffffffffffffffff1673ffffffffffffffffffffffffffffffffffffffff1681526020019081526020016000206060604051908101604052808a815260200160648c60ff168f0281151561572b57fe5b04815260200160648c60ff168f0281151561574257fe5b0481525090806001815401808255809150509060018203906000526020600020906003020160009091929091909150600082015181600001556020820151816001015560408201518160020155505050615abb565b6001601160008e73ffffffffffffffffffffffffffffffffffffffff1673ffffffffffffffffffffffffffffffffffffffff16815260200190815260200160002080549050039650601160008d73ffffffffffffffffffffffffffffffffffffffff1673ffffffffffffffffffffffffffffffffffffffff1681526020019081526020016000208781548110151561582b57fe5b9060005260206000209060030201600001549550601160008d73ffffffffffffffffffffffffffffffffffffffff1673ffffffffffffffffffffffffffffffffffffffff1681526020019081526020016000208781548110151561588b57fe5b9060005260206000209060030201600101549450601160008d73ffffffffffffffffffffffffffffffffffffffff1673ffffffffffffffffffffffffffffffffffffffff168152602001908152602001600020878154811015156158eb57fe5b906000526020600020906003020160020154935060085486890381151561590e57fe5b0492508460648a60ff168d0281151561592357fe5b040191508360648a60ff168d0281151561593957fe5b0486850201019050878610156159f557601160008d73ffffffffffffffffffffffffffffffffffffffff1673ffffffffffffffffffffffffffffffffffffffff1681526020019081526020016000206060604051908101604052808a81526020018481526020018381525090806001815401808255809150509060018203906000526020600020906003020160009091929091909150600082015181600001556020820151816001015560408201518160020155505050615aba565b81601160008e73ffffffffffffffffffffffffffffffffffffffff1673ffffffffffffffffffffffffffffffffffffffff16815260200190815260200160002088815481101515615a4257fe5b90600052602060002090600302016001018190555080601160008e73ffffffffffffffffffffffffffffffffffffffff1673ffffffffffffffffffffffffffffffffffffffff16815260200190815260200160002088815481101515615aa457fe5b9060005260206000209060030201600201819055505b5b5b505050505050505050505050565b608060405190810160405280600081526020016000815260200160008152602001600060ff16815250905600a165627a7a72305820dcf61e3c8088f8bdb7c7b945d2e679d88c2fa51454779ca99c3934883eeca01e0029",
  "source": "pragma solidity ^0.4.23;\n/*\n *             ╔═╗┌─┐┌─┐┬┌─┐┬┌─┐┬   ┌─────────────────────────┐ ╦ ╦┌─┐┌┐ ╔═╗┬┌┬┐┌─┐\n *             ║ ║├┤ ├┤ ││  │├─┤│   │ KOL Community Foundation│ │ ║║║├┤ ├┴┐╚═╗│ │ ├┤\n *             ╚═╝└  └  ┴└─┘┴┴ ┴┴─┘ └─┬─────────────────────┬─┘ ╚╩╝└─┘└─┘╚═╝┴ ┴ └─┘\n *   ┌────────────────────────────────┘                     └──────────────────────────────┐\n *   │    ┌─────────────────────────────────────────────────────────────────────────────┐  │\n *   └────┤ Dev:Jack Koe ├─────────────┤ Special for: KOL  ├───────────────┤ 20200510   ├──┘\n *        └─────────────────────────────────────────────────────────────────────────────┘\n */\n\n library SafeMath {\n   function mul(uint a, uint b) internal pure  returns (uint) {\n     uint c = a * b;\n     require(a == 0 || c / a == b);\n     return c;\n   }\n   function div(uint a, uint b) internal pure returns (uint) {\n     require(b > 0);\n     uint c = a / b;\n     require(a == b * c + a % b);\n     return c;\n   }\n   function sub(uint a, uint b) internal pure returns (uint) {\n     require(b <= a);\n     return a - b;\n   }\n   function add(uint a, uint b) internal pure returns (uint) {\n     uint c = a + b;\n     require(c >= a);\n     return c;\n   }\n   function max64(uint64 a, uint64 b) internal  pure returns (uint64) {\n     return a >= b ? a : b;\n   }\n   function min64(uint64 a, uint64 b) internal  pure returns (uint64) {\n     return a < b ? a : b;\n   }\n   function max256(uint256 a, uint256 b) internal  pure returns (uint256) {\n     return a >= b ? a : b;\n   }\n   function min256(uint256 a, uint256 b) internal  pure returns (uint256) {\n     return a < b ? a : b;\n   }\n }\n\n /**\n  * title KOL Promotion contract\n  * dev visit: https://github.com/jackoelv/KOL/\n */\n\n contract ERC20Basic {\n   uint public totalSupply;\n   function balanceOf(address who) public constant returns (uint);\n   function transfer(address to, uint value) public;\n   event Transfer(address indexed from, address indexed to, uint value);\n }\n\n contract ERC20 is ERC20Basic {\n   function allowance(address owner, address spender) public constant returns (uint);\n   function transferFrom(address from, address to, uint value) public;\n   function approve(address spender, uint value) public;\n   event Approval(address indexed owner, address indexed spender, uint value);\n }\n\n /**\n  * title KOL Promotion contract\n  * dev visit: https://github.com/jackoelv/KOL/\n */\n\n contract BasicToken is ERC20Basic {\n\n   using SafeMath for uint;\n\n   mapping(address => uint) balances;\n\n   function transfer(address _to, uint _value) public{\n     balances[msg.sender] = balances[msg.sender].sub(_value);\n     balances[_to] = balances[_to].add(_value);\n     emit Transfer(msg.sender, _to, _value);\n   }\n\n   function balanceOf(address _owner) public constant returns (uint balance) {\n     return balances[_owner];\n   }\n }\n\n /**\n  * title KOL Promotion contract\n  * dev visit: https://github.com/jackoelv/KOL/\n */\n\n contract StandardToken is BasicToken, ERC20 {\n   mapping (address => mapping (address => uint)) allowed;\n   uint256 public userSupplyed;\n\n   function transferFrom(address _from, address _to, uint _value) public {\n     balances[_to] = balances[_to].add(_value);\n     balances[_from] = balances[_from].sub(_value);\n     allowed[_from][msg.sender] = allowed[_from][msg.sender].sub(_value);\n     emit Transfer(_from, _to, _value);\n   }\n\n   function approve(address _spender, uint _value) public{\n     require((_value == 0) || (allowed[msg.sender][_spender] == 0)) ;\n     allowed[msg.sender][_spender] = _value;\n     emit Approval(msg.sender, _spender, _value);\n   }\n\n   function allowance(address _owner, address _spender) public constant returns (uint remaining) {\n     return allowed[_owner][_spender];\n   }\n }\n contract KOL is StandardToken {\n }\n\n /**\n  * title KOL Promotion contract\n  * dev visit: https://github.com/jackoelv/KOL/\n */\n\n contract Ownable {\n     address public owner;\n\n     constructor() public{\n         owner = msg.sender;\n     }\n\n     modifier onlyOwner {\n         require(msg.sender == owner);\n         _;\n     }\n     function transferOwnership(address newOwner) onlyOwner public{\n         if (newOwner != address(0)) {\n             owner = newOwner;\n         }\n     }\n }\n /**\n  * title KOL Promotion contract\n  * dev visit: https://github.com/jackoelv/KOL/\n */\ncontract KOLPro is Ownable{\n  using SafeMath for uint256;\n  string public name = \"KOL Promotion\";\n  KOL public kol;\n  address public draw;\n  address private receiver;\n\n  uint256 public begin;\n  uint256 public end;\n\n  uint256 public iCode;\n  uint256 public every = 1 days;\n  uint256 public totalRegister;\n  uint256 public totalBalance;\n\n  uint8 public  userLevel1 = 20;\n  uint8 public  userLevel2 = 10;\n  uint8 public maxlevel = 9;\n\n  uint16 public  comLevel1Users = 100;\n  uint16 public  comLevel2Users = 200;\n  uint16 public  comLevel3Users = 300;\n\n  uint256 public  comLevel1Amount = 30000 * (10 ** 18);\n  uint256 public  comLevel2Amount = 50000 * (10 ** 18);\n  uint256 public  comLevel3Amount = 100000 * (10 ** 18);\n\n  uint8 public constant comLevel1 = 3;\n  uint8 public constant comLevel2 = 5;\n  uint8 public constant comLevel3 = 10;\n  uint8 public constant inviteLevel1 = 2;\n  uint8 public constant inviteLevel2 = 3;\n  uint8 public constant inviteLevel3 = 5;\n\n\n  uint8 public constant fee = 5;\n  bool public going = true;\n\n  uint256 public constant withDrawDays = 30 days;\n\n  struct lock{\n    uint256 begin;\n    uint256 amount;\n    uint256 end;\n    bool withDrawed;\n  }\n\n  struct teamRate{\n    uint8 rate;\n    uint256 changeTime;\n\n  }\n\n  struct dayTeamBonus{\n    uint256 theDayLastSecond;\n    uint256 theDayTeamBonus;\n    uint256 totalTeamBonus;\n    uint8 theDayRate;\n  }\n  struct dayInviteBonus{\n    uint256 theDayLastSecond;\n    uint256 theDayInviteBonus;\n    uint256 totalInviteBonus;\n  }\n\n\n\n  mapping (address => dayTeamBonus[]) public LockTeamBonus;\n  mapping (address => dayInviteBonus[]) public LockInviteBonus;\n\n\n  mapping (address => address[]) public InviteList;\n  mapping (address => address[]) public ChildAddrs;\n  mapping (address => teamRate[]) public TeamRateList;\n  mapping (address => lock[]) public LockHistory;\n  mapping (address => uint256) public LockBalance;\n\n  mapping (uint256 => uint256) public ClosePrice;\n  mapping (address => uint256) public TotalUsers;\n  mapping (address => uint256) public TotalLockingAmount;\n  mapping (uint256 => address) public InviteCode;\n  mapping (address => uint256) public RInviteCode;\n\n  mapping (address => uint8) public isLevelN;\n  mapping (uint8 => uint8) public levelRate;\n  mapping (address => bool) public USDTOrCoin;\n\n  //GAS优化\n\n  event Registed(address _user,uint256 inviteCode);\n  event Joined(address _user,uint256 _theTime,uint256 _amount,bool _usdtOrCoin);\n  event GradeChanged(address _user,uint8 _oldLevel,uint8 _newLevel);\n\n  modifier onlyContract {\n      require(msg.sender == draw);\n      _;\n  }\n  constructor(address _tokenAddress,address _receiver,uint256 _begin,uint256 _end) public {\n    kol = KOL(_tokenAddress);\n    receiver = _receiver;\n    begin = _begin;\n    end = _end;\n    InviteCode[0] = owner;\n    levelRate[0] = 0;\n    levelRate[1] = comLevel1;\n    levelRate[2] = comLevel2;\n    levelRate[3] = comLevel3;\n  }\n\n  function register(uint256 _fInviteCode) public {\n    require(going);\n    require(now <= end);\n    require(RInviteCode[msg.sender] == 0);\n    uint256 random = uint256(keccak256(now, msg.sender)) % 100;\n    uint256 _myInviteCode = iCode.add(random);\n    iCode = iCode.add(random);\n\n    require(InviteCode[_myInviteCode] == address(0));\n    require(InviteCode[_fInviteCode] != address(0));\n    InviteCode[_myInviteCode] = msg.sender;\n    RInviteCode[msg.sender] = _myInviteCode;\n    emit Registed(msg.sender,iCode);\n    totalRegister ++;\n    address father = InviteCode[_fInviteCode];\n    ChildAddrs[father].push(msg.sender);\n    if (InviteList[msg.sender].length < 9){\n      InviteList[msg.sender].push(father);\n    }\n    for (uint i = 0 ; i < InviteList[father].length; i++){\n      if (InviteList[msg.sender].length < 9){\n        InviteList[msg.sender].push(InviteList[father][i]);\n      }else{\n        break;\n      }\n\n    }\n\n  }\n  /**\n   * title 转入KOL进行持仓生息\n   * _usdtOrCoin, true:金本位; false:币本位\n   * dev visit: https://github.com/jackoelv/KOL/\n  */\n  function join(uint256 _amount,bool _usdtOrCoin) payable  public {\n    require(going);\n    require(now <= end);\n    if (LockBalance[msg.sender] == 0) USDTOrCoin[msg.sender] = _usdtOrCoin;\n    kol.transferFrom(msg.sender,draw,_amount);\n    LockHistory[msg.sender].push(lock(now,_amount,0,false));\n    uint256 oldBalance = LockBalance[msg.sender];\n    LockBalance[msg.sender] = LockBalance[msg.sender].add(_amount);\n    totalBalance = totalBalance.add(_amount);\n    emit Joined(msg.sender,now,_amount,_usdtOrCoin);\n\n    uint256 amount3;//amount*3/1000以后\n\n    for (uint i = 0; i<InviteList[msg.sender].length; i++){\n      if (i == maxlevel) break;\n      if (LockHistory[msg.sender].length == 1){\n        //给上面的人数+1\n        TotalUsers[InviteList[msg.sender][i]] += 1;\n      }else{\n        if (oldBalance == 0) TotalUsers[InviteList[msg.sender][i]] += 1;\n      }\n      //给上面的加入团队总金额\n\n      TotalLockingAmount[InviteList[msg.sender][i]] = TotalLockingAmount[InviteList[msg.sender][i]].add(_amount);\n      queryAndSetLevelN(InviteList[msg.sender][i]);\n\n      amount3 = calcuDiffAmount(msg.sender,InviteList[msg.sender][i],_amount);\n\n\n      if (i<2){\n        setTopInviteBonus(InviteList[msg.sender][i],amount3,i);\n      }\n\n      if (i < maxlevel){\n        setTopTeamBonus(InviteList[msg.sender][i],amount3);\n      }\n    }\n  }\n  function calcuDiffAmount(address _selfAddr,address _topAddr,uint256 _amount) public view returns(uint256){\n    //计算网体收益加速额。\n    uint256 topDayLockBalance = queryLockBalance(_topAddr,now);\n    uint256 selfDayLockBalance = queryLockBalance(_selfAddr,now);\n    uint256 minAmount;\n    if (topDayLockBalance >= selfDayLockBalance){\n      minAmount = _amount;\n    }else{\n        if(LockHistory[_selfAddr].length > 1){\n            uint256 previous = LockHistory[_selfAddr].length - 2;\n            uint256 theTime = LockHistory[_selfAddr][previous].begin;\n            uint256 previousLockBalance = queryLockBalance(_selfAddr,theTime);\n            if (topDayLockBalance > previousLockBalance){\n              //_amount + previousLockBalance 一定是大于topDayLockBalance的；\n              minAmount = topDayLockBalance - previousLockBalance;\n            }\n        }else{\n          minAmount = topDayLockBalance;\n        }\n    }\n    return minAmount.mul(3).div(1000);\n  }\n  function setTopTeamBonus(address _topAddr,uint256 _minAmount) public returns(uint8){\n    uint8 newRate = levelRate[isLevelN[_topAddr]];\n    dayTeamBonus memory theDayTB =dayTeamBonus(0,0,0,0);\n    uint256 tomorrowLastSecond =getYestodayLastSecond(now) +  every;\n\n    if (LockTeamBonus[_topAddr].length == 0){\n      theDayTB.theDayLastSecond = tomorrowLastSecond;\n      theDayTB.theDayTeamBonus = _minAmount;\n      theDayTB.totalTeamBonus = _minAmount * newRate / 100;\n      theDayTB.theDayRate = newRate;\n      LockTeamBonus[_topAddr].push(theDayTB);\n    }else{\n      uint256 last = LockTeamBonus[_topAddr].length -1;\n      theDayTB = LockTeamBonus[_topAddr][last];\n\n      uint256 lastingDays = (tomorrowLastSecond - theDayTB.theDayLastSecond) / every;\n\n      theDayTB.totalTeamBonus = lastingDays * theDayTB.theDayTeamBonus * theDayTB.theDayRate/100;//这里不好解决啊\n      theDayTB.totalTeamBonus += _minAmount * newRate / 100;\n      theDayTB.theDayTeamBonus += _minAmount;\n      theDayTB.theDayRate = newRate;\n        //必然就都是明天。\n      if(theDayTB.theDayLastSecond < tomorrowLastSecond){\n        theDayTB.theDayLastSecond = tomorrowLastSecond;\n        LockTeamBonus[_topAddr].push(theDayTB);\n      }else{\n        LockTeamBonus[_topAddr][last]=theDayTB;\n      }\n    }\n  }\n  function setTopInviteBonus(address _topAddr,uint256 _minAmount,uint256 _index) internal {\n    uint8 inviteRate;\n    if (_index == 0){\n      inviteRate = userLevel1;\n    }else if(_index ==1){\n      inviteRate = userLevel2;\n    }else{\n      return;\n    }\n    uint256 tomorrowLastSecond = getYestodayLastSecond(now) + every;\n    if (LockInviteBonus[_topAddr].length == 0){\n      LockInviteBonus[_topAddr].push(dayInviteBonus(tomorrowLastSecond,\n                                            _minAmount * inviteRate/100,\n                                            _minAmount * inviteRate/100));\n    }else{\n      uint256 last = LockInviteBonus[_topAddr].length -1;\n\n      uint256 lastDayLastSecond = LockInviteBonus[_topAddr][last].theDayLastSecond;\n      uint256 lastDayInviteBonus = LockInviteBonus[_topAddr][last].theDayInviteBonus;\n      uint256 lastDayInviteTotalBonus = LockInviteBonus[_topAddr][last].totalInviteBonus;\n\n      uint256 lastingDays = (tomorrowLastSecond - lastDayLastSecond) / every;\n      uint256 newDayInviteBonus = _minAmount* inviteRate / 100 + lastDayInviteBonus;\n      uint256 newDayInviteTotalBonus = (lastingDays * lastDayInviteBonus) + _minAmount * inviteRate /100 + lastDayInviteTotalBonus;\n        //必然就都是明天。\n      if(lastDayLastSecond < tomorrowLastSecond){\n        LockInviteBonus[_topAddr].push(dayInviteBonus(tomorrowLastSecond,\n                                              newDayInviteBonus,\n                                              newDayInviteTotalBonus));\n      }else{\n        LockInviteBonus[_topAddr][last].theDayInviteBonus = newDayInviteBonus;\n        LockInviteBonus[_topAddr][last].totalInviteBonus = newDayInviteTotalBonus;\n      }\n\n    }\n  }\n  /**\n   * title 查询并设置用户的身份级别\n   * dev visit: https://github.com/jackoelv/KOL/\n  */\n  function queryAndSetLevelN(address _addr) public{\n    if ((TotalUsers[_addr] >= comLevel3Users) &&\n              (TotalLockingAmount[_addr] >= comLevel3Amount) &&\n              ChildAddrs[_addr].length>=inviteLevel3){\n      if (isLevelN[_addr]!=3){\n        emit GradeChanged(_addr,isLevelN[_addr],3);\n        isLevelN[_addr] = 3;\n        TeamRateList[_addr].push(teamRate(3,now));\n      }\n    }else if((TotalUsers[_addr] >= comLevel2Users) &&\n              (TotalLockingAmount[_addr] >= comLevel2Amount) &&\n              ChildAddrs[_addr].length>=inviteLevel2){\n      if (isLevelN[_addr]!=2){\n        emit GradeChanged(_addr,isLevelN[_addr],2);\n        isLevelN[_addr] = 2;\n        TeamRateList[_addr].push(teamRate(2,now));\n      }\n    }else if((TotalUsers[_addr] >= comLevel1Users) &&\n              (TotalLockingAmount[_addr] >= comLevel1Amount) &&\n              ChildAddrs[_addr].length>=inviteLevel1){\n      if (isLevelN[_addr]!=1){\n        emit GradeChanged(_addr,isLevelN[_addr],1);\n        isLevelN[_addr] = 1;\n        TeamRateList[_addr].push(teamRate(1,now));\n      }\n    }else{\n      if (isLevelN[_addr]!=0){\n        emit GradeChanged(_addr,isLevelN[_addr],0);\n        isLevelN[_addr] = 0;\n        TeamRateList[_addr].push(teamRate(0,now));\n      }\n    }\n  }\n  /**\n   * title 查询指定时间用户的有效锁仓余额\n   * dev visit: https://github.com/jackoelv/KOL/\n  */\n  function queryLockBalance(address _addr,uint256 _queryTime) public view returns(uint256) {\n    require(_queryTime <= end);\n    uint256 dayLockBalance;\n    for (uint j = 0; j<LockHistory[_addr].length; j++){\n      if (LockHistory[_addr][j].withDrawed){\n        //如果是已经提现的资金，那就要求计算日期是在起止时间内的。\n        if ((_queryTime >= LockHistory[_addr][j].begin) && (_queryTime <= LockHistory[_addr][j].end)){\n            dayLockBalance += LockHistory[_addr][j].amount;\n        }\n      }else{\n        if (_queryTime >= LockHistory[_addr][j].begin ){\n          //这个就要计入到当天的收益\n          dayLockBalance += LockHistory[_addr][j].amount;\n        }\n      }\n    }\n    return dayLockBalance;\n  }\n\n  /**\n   * title 根据给定时间计算出昨天的最后一秒\n   * dev visit: https://github.com/jackoelv/KOL/\n  */\n  function getYestodayLastSecond(uint256 _queryTime) public view returns(uint256){\n    require(_queryTime <= (end + every));\n    return (_queryTime.sub(_queryTime.sub(begin) % every) - 1);\n  }\n  /**\n   * title 录入KOL的收盘价\n   * dev visit: https://github.com/jackoelv/KOL/\n  */\n  function putClosePrice(uint256 price,uint256 _queryTime) onlyOwner public{\n    //录入的价格为4位小数\n    require(_queryTime <= (end + 2*every));\n    uint256 yestodayLastSecond = getYestodayLastSecond(_queryTime);\n    ClosePrice[yestodayLastSecond] = price;\n  }\n\n  function setContract(address _addr) onlyOwner public{\n    draw = _addr;\n  }\n  function setGoing(bool _going) onlyOwner public{\n    going = _going;\n  }\n  function setBegin(uint256 _begin) onlyOwner public{\n    begin = _begin;\n  }\n  function setEnd(uint256 _end) onlyOwner public{\n    end = _end;\n  }\n  function setLevelN(uint8 _level,uint16 _users,uint256 _amount) onlyOwner public{\n    if (_level == 1){\n      comLevel1Users = _users;\n      comLevel1Amount = _amount;\n    }else if(_level ==2){\n      comLevel2Users = _users;\n      comLevel2Amount = _amount;\n    }else if(_level ==3){\n      comLevel3Users = _users;\n      comLevel3Amount = _amount;\n    }\n  }\n\n  function clearLock(address _addr) onlyContract public{\n    for (uint i =0;i<LockHistory[_addr].length;i++){\n      LockHistory[_addr][i].end = now;\n      LockHistory[_addr][i].withDrawed = true;\n    }\n    LockBalance[msg.sender] = 0;\n  }\n  function pushInvite(address _addr,\n                      uint256 _theDayLastSecond,\n                      uint256 _theDayInviteBonus,\n                      uint256 _totalInviteBonus) onlyContract public{\n    LockInviteBonus[_addr].push(dayInviteBonus(_theDayLastSecond,\n                                              _theDayInviteBonus,\n                                              _totalInviteBonus));\n  }\n  function setLastInvite(address _addr,\n                      uint256 _theDayInviteBonus,\n                      uint256 _totalInviteBonus) onlyContract public{\n    uint256 last = LockInviteBonus[_addr].length -1;\n    LockInviteBonus[_addr][last].theDayInviteBonus = _theDayInviteBonus;\n    LockInviteBonus[_addr][last].totalInviteBonus = _totalInviteBonus;\n  }\n  function pushTeam(address _addr,\n                      uint256 _theDayLastSecond,\n                      uint256 _theDayTeamBonus,\n                      uint256 _totalTeamBonus,\n                      uint8 _theDayRate) onlyContract public{\n    LockTeamBonus[_addr].push(dayTeamBonus(_theDayLastSecond,\n                                              _theDayTeamBonus,\n                                              _totalTeamBonus,\n                                              _theDayRate));\n  }\n  function setLastTeam(address _addr,\n                      uint256 _theDayTeamBonus,\n                      uint256 _totalTeamBonus,\n                      uint8 _theDayRate) onlyContract public{\n    uint256 last = LockTeamBonus[_addr].length -1;\n    LockTeamBonus[_addr][last].theDayTeamBonus = _theDayTeamBonus;\n    LockTeamBonus[_addr][last].totalTeamBonus = _totalTeamBonus;\n    LockTeamBonus[_addr][last].theDayRate = _theDayRate;\n\n  }\n  function subTotalUsers(address _addr) onlyContract public{\n    if (TotalUsers[_addr] > 0){\n      TotalUsers[_addr] -=1;\n    }\n  }\n  function subTotalLockingAmount(address _addr,uint256 _amount) onlyContract public{\n    if (TotalLockingAmount[_addr] >= _amount){\n      TotalUsers[_addr] -= _amount;\n    }\n  }\n  function subTotalBalance(uint256 _amount) onlyContract public{\n    totalBalance-=_amount;\n  }\n\n  function getLockLen(address _addr) public view returns(uint256) {\n    return(LockHistory[_addr].length);\n  }\n  function getFathersLength(address _addr) public view returns(uint256){\n    return InviteList[_addr].length;\n  }\n  function getLockTeamBonusLen(address _addr) public view returns(uint256){\n    return(LockTeamBonus[_addr].length);\n  }\n  function getLockInviteBonusLen(address _addr) public view returns(uint256){\n    return(LockInviteBonus[_addr].length);\n  }\n  function getChildsLen(address _addr) public view returns(uint256){\n  return(ChildAddrs[_addr].length);\n  }\n  function setLevelC(uint8 _level,uint16 _users,uint256 _amount) onlyOwner public{\n    if (_level == 1){\n      comLevel1Users = _users;\n      comLevel1Amount = _amount;\n    }else if(_level ==2){\n      comLevel2Users = _users;\n      comLevel2Amount = _amount;\n    }else if(_level ==3){\n      comLevel3Users = _users;\n      comLevel3Amount = _amount;\n    }\n  }\n  function setLevelR(uint8 _level,uint8 _levelRate) onlyOwner public{\n    levelRate[_level] = _levelRate;\n  }\n  function setReceiver(address _receiver) onlyOwner public{\n    receiver = _receiver;\n  }\n  function draw() onlyOwner public{\n    receiver.send(address(this).balance);\n  }\n\n\n}\n",
  "sourcePath": "/Users/jack/git/github/KOL/contracts/KOLPromotion.sol",
  "compiler": {
    "name": "solc",
    "version": "0.4.23+commit.124ca40d.Emscripten.clang"
  },
  "schemaVersion": "3.0.19",
  "updatedAt": "2020-05-10T12:28:51.706Z",
  "networkType": "ethereum",
  "devdoc": {
    "methods": {}
  },
  "userdoc": {
    "methods": {
      "getYestodayLastSecond(uint256)": {
        "notice": "title 根据给定时间计算出昨天的最后一秒 dev visit: https://github.com/jackoelv/KOL/"
      },
      "join(uint256,bool)": {
        "notice": "title 转入KOL进行持仓生息 _usdtOrCoin, true:金本位; false:币本位 dev visit: https://github.com/jackoelv/KOL/"
      },
      "putClosePrice(uint256,uint256)": {
        "notice": "title 录入KOL的收盘价 dev visit: https://github.com/jackoelv/KOL/"
      },
      "queryAndSetLevelN(address)": {
        "notice": "title 查询并设置用户的身份级别 dev visit: https://github.com/jackoelv/KOL/"
      },
      "queryLockBalance(address,uint256)": {
        "notice": "title 查询指定时间用户的有效锁仓余额 dev visit: https://github.com/jackoelv/KOL/"
      }
    }
  }
}