{
  "contractName": "KOLPro",
  "abi": [
    {
      "constant": true,
      "inputs": [
        {
          "name": "",
          "type": "address"
        }
      ],
      "name": "isLevelN",
      "outputs": [
        {
          "name": "",
          "type": "uint8"
        }
      ],
      "payable": false,
      "stateMutability": "view",
      "type": "function"
    },
    {
      "constant": true,
      "inputs": [],
      "name": "comLevel3",
      "outputs": [
        {
          "name": "",
          "type": "uint8"
        }
      ],
      "payable": false,
      "stateMutability": "view",
      "type": "function"
    },
    {
      "constant": true,
      "inputs": [],
      "name": "name",
      "outputs": [
        {
          "name": "",
          "type": "string"
        }
      ],
      "payable": false,
      "stateMutability": "view",
      "type": "function"
    },
    {
      "constant": true,
      "inputs": [],
      "name": "comLevel2Amount",
      "outputs": [
        {
          "name": "",
          "type": "uint256"
        }
      ],
      "payable": false,
      "stateMutability": "view",
      "type": "function"
    },
    {
      "constant": true,
      "inputs": [],
      "name": "kol",
      "outputs": [
        {
          "name": "",
          "type": "address"
        }
      ],
      "payable": false,
      "stateMutability": "view",
      "type": "function"
    },
    {
      "constant": true,
      "inputs": [],
      "name": "comLevel3Amount",
      "outputs": [
        {
          "name": "",
          "type": "uint256"
        }
      ],
      "payable": false,
      "stateMutability": "view",
      "type": "function"
    },
    {
      "constant": true,
      "inputs": [],
      "name": "begin",
      "outputs": [
        {
          "name": "",
          "type": "uint256"
        }
      ],
      "payable": false,
      "stateMutability": "view",
      "type": "function"
    },
    {
      "constant": true,
      "inputs": [
        {
          "name": "",
          "type": "address"
        }
      ],
      "name": "TotalLockingAmount",
      "outputs": [
        {
          "name": "",
          "type": "uint256"
        }
      ],
      "payable": false,
      "stateMutability": "view",
      "type": "function"
    },
    {
      "constant": true,
      "inputs": [],
      "name": "comLevel2Users",
      "outputs": [
        {
          "name": "",
          "type": "uint16"
        }
      ],
      "payable": false,
      "stateMutability": "view",
      "type": "function"
    },
    {
      "constant": true,
      "inputs": [
        {
          "name": "",
          "type": "address"
        },
        {
          "name": "",
          "type": "uint256"
        }
      ],
      "name": "LockHistory",
      "outputs": [
        {
          "name": "begin",
          "type": "uint256"
        },
        {
          "name": "amount",
          "type": "uint256"
        },
        {
          "name": "end",
          "type": "uint256"
        },
        {
          "name": "withDrawed",
          "type": "bool"
        }
      ],
      "payable": false,
      "stateMutability": "view",
      "type": "function"
    },
    {
      "constant": true,
      "inputs": [],
      "name": "comLevel1Amount",
      "outputs": [
        {
          "name": "",
          "type": "uint256"
        }
      ],
      "payable": false,
      "stateMutability": "view",
      "type": "function"
    },
    {
      "constant": true,
      "inputs": [
        {
          "name": "",
          "type": "uint256"
        }
      ],
      "name": "ClosePrice",
      "outputs": [
        {
          "name": "",
          "type": "uint256"
        }
      ],
      "payable": false,
      "stateMutability": "view",
      "type": "function"
    },
    {
      "constant": true,
      "inputs": [
        {
          "name": "",
          "type": "address"
        }
      ],
      "name": "LockBalance",
      "outputs": [
        {
          "name": "",
          "type": "uint256"
        }
      ],
      "payable": false,
      "stateMutability": "view",
      "type": "function"
    },
    {
      "constant": true,
      "inputs": [
        {
          "name": "",
          "type": "address"
        }
      ],
      "name": "USDTOrCoin",
      "outputs": [
        {
          "name": "",
          "type": "bool"
        }
      ],
      "payable": false,
      "stateMutability": "view",
      "type": "function"
    },
    {
      "constant": true,
      "inputs": [
        {
          "name": "",
          "type": "address"
        }
      ],
      "name": "InviteHistoryBonus",
      "outputs": [
        {
          "name": "",
          "type": "uint256"
        }
      ],
      "payable": false,
      "stateMutability": "view",
      "type": "function"
    },
    {
      "constant": true,
      "inputs": [
        {
          "name": "",
          "type": "address"
        },
        {
          "name": "",
          "type": "uint256"
        }
      ],
      "name": "InviteList",
      "outputs": [
        {
          "name": "",
          "type": "address"
        }
      ],
      "payable": false,
      "stateMutability": "view",
      "type": "function"
    },
    {
      "constant": true,
      "inputs": [],
      "name": "userLevel2",
      "outputs": [
        {
          "name": "",
          "type": "uint8"
        }
      ],
      "payable": false,
      "stateMutability": "view",
      "type": "function"
    },
    {
      "constant": true,
      "inputs": [],
      "name": "every",
      "outputs": [
        {
          "name": "",
          "type": "uint256"
        }
      ],
      "payable": false,
      "stateMutability": "view",
      "type": "function"
    },
    {
      "constant": true,
      "inputs": [],
      "name": "iCode",
      "outputs": [
        {
          "name": "",
          "type": "uint256"
        }
      ],
      "payable": false,
      "stateMutability": "view",
      "type": "function"
    },
    {
      "constant": true,
      "inputs": [
        {
          "name": "",
          "type": "uint8"
        }
      ],
      "name": "levelRate",
      "outputs": [
        {
          "name": "",
          "type": "uint8"
        }
      ],
      "payable": false,
      "stateMutability": "view",
      "type": "function"
    },
    {
      "constant": true,
      "inputs": [],
      "name": "comLevel2",
      "outputs": [
        {
          "name": "",
          "type": "uint8"
        }
      ],
      "payable": false,
      "stateMutability": "view",
      "type": "function"
    },
    {
      "constant": true,
      "inputs": [],
      "name": "withDrawDays",
      "outputs": [
        {
          "name": "",
          "type": "uint256"
        }
      ],
      "payable": false,
      "stateMutability": "view",
      "type": "function"
    },
    {
      "constant": true,
      "inputs": [
        {
          "name": "",
          "type": "address"
        }
      ],
      "name": "InviteRelation",
      "outputs": [
        {
          "name": "",
          "type": "address"
        }
      ],
      "payable": false,
      "stateMutability": "view",
      "type": "function"
    },
    {
      "constant": true,
      "inputs": [
        {
          "name": "",
          "type": "address"
        },
        {
          "name": "",
          "type": "address"
        }
      ],
      "name": "ABTeamBonus",
      "outputs": [
        {
          "name": "",
          "type": "uint256"
        }
      ],
      "payable": false,
      "stateMutability": "view",
      "type": "function"
    },
    {
      "constant": true,
      "inputs": [
        {
          "name": "",
          "type": "address"
        },
        {
          "name": "",
          "type": "uint256"
        }
      ],
      "name": "TeamRateList",
      "outputs": [
        {
          "name": "rate",
          "type": "uint8"
        },
        {
          "name": "changeTime",
          "type": "uint256"
        }
      ],
      "payable": false,
      "stateMutability": "view",
      "type": "function"
    },
    {
      "constant": true,
      "inputs": [],
      "name": "maxSettleDays",
      "outputs": [
        {
          "name": "",
          "type": "uint256"
        }
      ],
      "payable": false,
      "stateMutability": "view",
      "type": "function"
    },
    {
      "constant": true,
      "inputs": [
        {
          "name": "",
          "type": "address"
        },
        {
          "name": "",
          "type": "uint256"
        }
      ],
      "name": "LockTeamBonus",
      "outputs": [
        {
          "name": "theDayLastSecond",
          "type": "uint256"
        },
        {
          "name": "theDayTeamBonus",
          "type": "uint256"
        },
        {
          "name": "totalTeamBonus",
          "type": "uint256"
        },
        {
          "name": "theDayRate",
          "type": "uint8"
        }
      ],
      "payable": false,
      "stateMutability": "view",
      "type": "function"
    },
    {
      "constant": true,
      "inputs": [],
      "name": "comLevel3Users",
      "outputs": [
        {
          "name": "",
          "type": "uint16"
        }
      ],
      "payable": false,
      "stateMutability": "view",
      "type": "function"
    },
    {
      "constant": true,
      "inputs": [],
      "name": "comLevel1Users",
      "outputs": [
        {
          "name": "",
          "type": "uint16"
        }
      ],
      "payable": false,
      "stateMutability": "view",
      "type": "function"
    },
    {
      "constant": true,
      "inputs": [],
      "name": "inviteLevel1",
      "outputs": [
        {
          "name": "",
          "type": "uint8"
        }
      ],
      "payable": false,
      "stateMutability": "view",
      "type": "function"
    },
    {
      "constant": true,
      "inputs": [
        {
          "name": "",
          "type": "address"
        }
      ],
      "name": "RInviteCode",
      "outputs": [
        {
          "name": "",
          "type": "uint256"
        }
      ],
      "payable": false,
      "stateMutability": "view",
      "type": "function"
    },
    {
      "constant": true,
      "inputs": [],
      "name": "owner",
      "outputs": [
        {
          "name": "",
          "type": "address"
        }
      ],
      "payable": false,
      "stateMutability": "view",
      "type": "function"
    },
    {
      "constant": true,
      "inputs": [],
      "name": "inviteLevel2",
      "outputs": [
        {
          "name": "",
          "type": "uint8"
        }
      ],
      "payable": false,
      "stateMutability": "view",
      "type": "function"
    },
    {
      "constant": true,
      "inputs": [
        {
          "name": "",
          "type": "address"
        },
        {
          "name": "",
          "type": "address"
        }
      ],
      "name": "ABInviteBonus",
      "outputs": [
        {
          "name": "",
          "type": "uint256"
        }
      ],
      "payable": false,
      "stateMutability": "view",
      "type": "function"
    },
    {
      "constant": true,
      "inputs": [],
      "name": "totalBonus",
      "outputs": [
        {
          "name": "",
          "type": "uint256"
        }
      ],
      "payable": false,
      "stateMutability": "view",
      "type": "function"
    },
    {
      "constant": true,
      "inputs": [],
      "name": "totalBalance",
      "outputs": [
        {
          "name": "",
          "type": "uint256"
        }
      ],
      "payable": false,
      "stateMutability": "view",
      "type": "function"
    },
    {
      "constant": true,
      "inputs": [],
      "name": "inviteLevel3",
      "outputs": [
        {
          "name": "",
          "type": "uint8"
        }
      ],
      "payable": false,
      "stateMutability": "view",
      "type": "function"
    },
    {
      "constant": true,
      "inputs": [],
      "name": "maxlevel",
      "outputs": [
        {
          "name": "",
          "type": "uint8"
        }
      ],
      "payable": false,
      "stateMutability": "view",
      "type": "function"
    },
    {
      "constant": true,
      "inputs": [],
      "name": "comLevel1",
      "outputs": [
        {
          "name": "",
          "type": "uint8"
        }
      ],
      "payable": false,
      "stateMutability": "view",
      "type": "function"
    },
    {
      "constant": true,
      "inputs": [
        {
          "name": "",
          "type": "uint256"
        }
      ],
      "name": "InviteCode",
      "outputs": [
        {
          "name": "",
          "type": "address"
        }
      ],
      "payable": false,
      "stateMutability": "view",
      "type": "function"
    },
    {
      "constant": true,
      "inputs": [
        {
          "name": "",
          "type": "address"
        }
      ],
      "name": "InviteCurrentDayBonus",
      "outputs": [
        {
          "name": "",
          "type": "uint256"
        }
      ],
      "payable": false,
      "stateMutability": "view",
      "type": "function"
    },
    {
      "constant": true,
      "inputs": [],
      "name": "withDrawRate",
      "outputs": [
        {
          "name": "",
          "type": "uint8"
        }
      ],
      "payable": false,
      "stateMutability": "view",
      "type": "function"
    },
    {
      "constant": true,
      "inputs": [],
      "name": "fee",
      "outputs": [
        {
          "name": "",
          "type": "uint8"
        }
      ],
      "payable": false,
      "stateMutability": "view",
      "type": "function"
    },
    {
      "constant": true,
      "inputs": [
        {
          "name": "",
          "type": "address"
        }
      ],
      "name": "TotalUsers",
      "outputs": [
        {
          "name": "",
          "type": "uint256"
        }
      ],
      "payable": false,
      "stateMutability": "view",
      "type": "function"
    },
    {
      "constant": true,
      "inputs": [
        {
          "name": "",
          "type": "address"
        }
      ],
      "name": "WithDraws",
      "outputs": [
        {
          "name": "",
          "type": "uint256"
        }
      ],
      "payable": false,
      "stateMutability": "view",
      "type": "function"
    },
    {
      "constant": true,
      "inputs": [],
      "name": "userLevel1",
      "outputs": [
        {
          "name": "",
          "type": "uint8"
        }
      ],
      "payable": false,
      "stateMutability": "view",
      "type": "function"
    },
    {
      "constant": true,
      "inputs": [
        {
          "name": "",
          "type": "address"
        },
        {
          "name": "",
          "type": "uint256"
        }
      ],
      "name": "LockInviteBonus",
      "outputs": [
        {
          "name": "theDayLastSecond",
          "type": "uint256"
        },
        {
          "name": "theDayInviteBonus",
          "type": "uint256"
        },
        {
          "name": "totalInviteBonus",
          "type": "uint256"
        }
      ],
      "payable": false,
      "stateMutability": "view",
      "type": "function"
    },
    {
      "constant": true,
      "inputs": [],
      "name": "end",
      "outputs": [
        {
          "name": "",
          "type": "uint256"
        }
      ],
      "payable": false,
      "stateMutability": "view",
      "type": "function"
    },
    {
      "constant": false,
      "inputs": [
        {
          "name": "newOwner",
          "type": "address"
        }
      ],
      "name": "transferOwnership",
      "outputs": [],
      "payable": false,
      "stateMutability": "nonpayable",
      "type": "function"
    },
    {
      "constant": true,
      "inputs": [],
      "name": "reciever",
      "outputs": [
        {
          "name": "",
          "type": "address"
        }
      ],
      "payable": false,
      "stateMutability": "view",
      "type": "function"
    },
    {
      "constant": true,
      "inputs": [],
      "name": "totalRegister",
      "outputs": [
        {
          "name": "",
          "type": "uint256"
        }
      ],
      "payable": false,
      "stateMutability": "view",
      "type": "function"
    },
    {
      "constant": true,
      "inputs": [
        {
          "name": "",
          "type": "address"
        },
        {
          "name": "",
          "type": "uint256"
        }
      ],
      "name": "ChildAddrs",
      "outputs": [
        {
          "name": "",
          "type": "address"
        }
      ],
      "payable": false,
      "stateMutability": "view",
      "type": "function"
    },
    {
      "inputs": [
        {
          "name": "_tokenAddress",
          "type": "address"
        },
        {
          "name": "_reciever",
          "type": "address"
        },
        {
          "name": "_begin",
          "type": "uint256"
        },
        {
          "name": "_end",
          "type": "uint256"
        }
      ],
      "payable": false,
      "stateMutability": "nonpayable",
      "type": "constructor"
    },
    {
      "anonymous": false,
      "inputs": [
        {
          "indexed": false,
          "name": "_user",
          "type": "address"
        },
        {
          "indexed": false,
          "name": "inviteCode",
          "type": "uint256"
        }
      ],
      "name": "Registed",
      "type": "event"
    },
    {
      "anonymous": false,
      "inputs": [
        {
          "indexed": false,
          "name": "_user",
          "type": "address"
        },
        {
          "indexed": false,
          "name": "_oldLevel",
          "type": "uint8"
        },
        {
          "indexed": false,
          "name": "_newLevel",
          "type": "uint8"
        }
      ],
      "name": "GradeChanged",
      "type": "event"
    },
    {
      "anonymous": false,
      "inputs": [
        {
          "indexed": false,
          "name": "_user",
          "type": "address"
        },
        {
          "indexed": false,
          "name": "_amount",
          "type": "uint256"
        }
      ],
      "name": "WithDraw",
      "type": "event"
    },
    {
      "anonymous": false,
      "inputs": [
        {
          "indexed": false,
          "name": "_user",
          "type": "address"
        },
        {
          "indexed": false,
          "name": "_balance",
          "type": "uint256"
        }
      ],
      "name": "WithDrawBalance",
      "type": "event"
    },
    {
      "constant": false,
      "inputs": [
        {
          "name": "_fInviteCode",
          "type": "uint256"
        }
      ],
      "name": "register",
      "outputs": [],
      "payable": false,
      "stateMutability": "nonpayable",
      "type": "function"
    },
    {
      "constant": false,
      "inputs": [
        {
          "name": "_amount",
          "type": "uint256"
        },
        {
          "name": "_usdtOrCoin",
          "type": "bool"
        }
      ],
      "name": "join",
      "outputs": [],
      "payable": false,
      "stateMutability": "nonpayable",
      "type": "function"
    },
    {
      "constant": false,
      "inputs": [
        {
          "name": "_addr",
          "type": "address"
        }
      ],
      "name": "queryAndSetLevelN",
      "outputs": [],
      "payable": false,
      "stateMutability": "nonpayable",
      "type": "function"
    },
    {
      "constant": true,
      "inputs": [
        {
          "name": "_addr",
          "type": "address"
        },
        {
          "name": "_queryTime",
          "type": "uint256"
        }
      ],
      "name": "queryLockBalance",
      "outputs": [
        {
          "name": "",
          "type": "uint256"
        }
      ],
      "payable": false,
      "stateMutability": "view",
      "type": "function"
    },
    {
      "constant": true,
      "inputs": [
        {
          "name": "_queryTime",
          "type": "uint256"
        }
      ],
      "name": "getYestodayLastSecond",
      "outputs": [
        {
          "name": "",
          "type": "uint256"
        }
      ],
      "payable": false,
      "stateMutability": "view",
      "type": "function"
    },
    {
      "constant": true,
      "inputs": [],
      "name": "getCode",
      "outputs": [
        {
          "name": "",
          "type": "uint256"
        }
      ],
      "payable": false,
      "stateMutability": "view",
      "type": "function"
    },
    {
      "constant": true,
      "inputs": [],
      "name": "getTeam",
      "outputs": [
        {
          "name": "",
          "type": "address[]"
        }
      ],
      "payable": false,
      "stateMutability": "view",
      "type": "function"
    },
    {
      "constant": true,
      "inputs": [],
      "name": "getFathers",
      "outputs": [
        {
          "name": "",
          "type": "address[]"
        }
      ],
      "payable": false,
      "stateMutability": "view",
      "type": "function"
    },
    {
      "constant": true,
      "inputs": [],
      "name": "getTeamTotalUsers",
      "outputs": [
        {
          "name": "",
          "type": "uint256"
        }
      ],
      "payable": false,
      "stateMutability": "view",
      "type": "function"
    },
    {
      "constant": true,
      "inputs": [],
      "name": "getTeamTotalAmount",
      "outputs": [
        {
          "name": "",
          "type": "uint256"
        }
      ],
      "payable": false,
      "stateMutability": "view",
      "type": "function"
    },
    {
      "constant": true,
      "inputs": [
        {
          "name": "_index",
          "type": "uint256"
        }
      ],
      "name": "getLockHistory",
      "outputs": [
        {
          "name": "",
          "type": "uint256"
        },
        {
          "name": "",
          "type": "uint256"
        },
        {
          "name": "",
          "type": "uint256"
        },
        {
          "name": "",
          "type": "bool"
        },
        {
          "name": "",
          "type": "uint256"
        }
      ],
      "payable": false,
      "stateMutability": "view",
      "type": "function"
    },
    {
      "constant": true,
      "inputs": [
        {
          "name": "_addr",
          "type": "address"
        },
        {
          "name": "_index",
          "type": "uint256"
        }
      ],
      "name": "getHistoryTeamBonus",
      "outputs": [
        {
          "name": "",
          "type": "uint256"
        },
        {
          "name": "",
          "type": "uint256"
        },
        {
          "name": "",
          "type": "uint256"
        },
        {
          "name": "",
          "type": "uint256"
        },
        {
          "name": "",
          "type": "uint256"
        }
      ],
      "payable": false,
      "stateMutability": "view",
      "type": "function"
    },
    {
      "constant": true,
      "inputs": [
        {
          "name": "_addr",
          "type": "address"
        },
        {
          "name": "_index",
          "type": "uint256"
        }
      ],
      "name": "getHistoryInviteBonus",
      "outputs": [
        {
          "name": "",
          "type": "uint256"
        },
        {
          "name": "",
          "type": "uint256"
        },
        {
          "name": "",
          "type": "uint256"
        },
        {
          "name": "",
          "type": "uint256"
        }
      ],
      "payable": false,
      "stateMutability": "view",
      "type": "function"
    },
    {
      "constant": true,
      "inputs": [
        {
          "name": "_addr",
          "type": "address"
        },
        {
          "name": "_index",
          "type": "uint256"
        }
      ],
      "name": "getTeamRateList",
      "outputs": [
        {
          "name": "",
          "type": "uint256"
        },
        {
          "name": "",
          "type": "uint256"
        },
        {
          "name": "",
          "type": "uint256"
        }
      ],
      "payable": false,
      "stateMutability": "view",
      "type": "function"
    },
    {
      "constant": false,
      "inputs": [
        {
          "name": "price",
          "type": "uint256"
        },
        {
          "name": "_queryTime",
          "type": "uint256"
        }
      ],
      "name": "putClosePrice",
      "outputs": [],
      "payable": false,
      "stateMutability": "nonpayable",
      "type": "function"
    },
    {
      "constant": false,
      "inputs": [
        {
          "name": "_addr",
          "type": "address"
        }
      ],
      "name": "setReciever",
      "outputs": [],
      "payable": false,
      "stateMutability": "nonpayable",
      "type": "function"
    }
  ],
  "bytecode": "0x60806040526040805190810160405280600d81526020017f4b4f4c2050726f6d6f74696f6e000000000000000000000000000000000000008152506001908051906020019062000051929190620002de565b50600a60075560016008556009600c60006101000a81548160ff021916908360ff1602179055503480156200008557600080fd5b5060405160808062005c3283398101806040528101908080519060200190929190805190602001909291908051906020019092919080519060200190929190505050336000806101000a81548173ffffffffffffffffffffffffffffffffffffffff021916908373ffffffffffffffffffffffffffffffffffffffff16021790555083600260006101000a81548173ffffffffffffffffffffffffffffffffffffffff021916908373ffffffffffffffffffffffffffffffffffffffff16021790555081600481905550816004819055508060058190555082600360006101000a81548173ffffffffffffffffffffffffffffffffffffffff021916908373ffffffffffffffffffffffffffffffffffffffff1602179055506000809054906101000a900473ffffffffffffffffffffffffffffffffffffffff16601a600080815260200190815260200160002060006101000a81548173ffffffffffffffffffffffffffffffffffffffff021916908373ffffffffffffffffffffffffffffffffffffffff1602179055506000601d60008060ff16815260200190815260200160002060006101000a81548160ff021916908360ff1602179055506003601d6000600160ff16815260200190815260200160002060006101000a81548160ff021916908360ff1602179055506005601d6000600260ff16815260200190815260200160002060006101000a81548160ff021916908360ff160217905550600a601d6000600360ff16815260200190815260200160002060006101000a81548160ff021916908360ff160217905550505050506200038d565b828054600181600116156101000203166002900490600052602060002090601f016020900481019282601f106200032157805160ff191683800117855562000352565b8280016001018555821562000352579182015b828111156200035157825182559160200191906001019062000334565b5b50905062000361919062000365565b5090565b6200038a91905b80821115620003865760008160009055506001016200036c565b5090565b90565b615895806200039d6000396000f300608060405260043610610322576000357c0100000000000000000000000000000000000000000000000000000000900463ffffffff168063042a59ea1461032757806305536ac214610384578063069f19ce146103b557806306fdde031461041657806308b7da39146104a65780630dcba2d1146104d15780630efd766114610528578063117c8653146105535780631b6a798c146105c95780631bce6ff3146105f45780631ecf396d1461061f57806320f5256d146106765780632217e6b6146106a15780632253d381146106d4578063275cdec31461074e578063294b4816146107795780632a61ae19146107ba5780632f63c365146108115780633885836f1461086c5780633983c665146108c35780633a9c7d12146109505780633bc6cf4714610981578063571f2315146109ac5780635b204f4c146109d75780635da35eee14610a215780635dbac10e14610a9e57806360cd2f7c14610acf57806361ec34db14610afa5780636463a1d014610b7d5780636afd70fe14610bb45780637132c03a14610c2b5780637138160614610c9957806372e03a5c14610cc4578063808fe48a14610d405780638099a6a614610d7357806381a2e32114610da657806387974fa714610e1557806388335aa314610e7657806389689e4514610ee25780638bce6edd14610f135780638be7038e14610f7f5780638da5cb5b14610fd657806396931d111461102d5780639ec12fed1461105e578063a0db86f9146110d5578063a8dd07dc14611118578063ad7a672f14611143578063b4c81c681461116e578063bf131ad21461119f578063cb3cdc4b146111e0578063cc7bc3a014611211578063cccbeebf14611242578063ce5a6ecc146112af578063d0b3da9914611306578063d520c99d1461133f578063d732056314611370578063ddca3f43146113b3578063e1d1792d146113e4578063e36fe7d71461143b578063e4ebc0e814611492578063e77f9124146114c3578063ea87963414611532578063efbe1c1c1461155d578063f207564e14611588578063f2fde38b146115b5578063f4b0b756146115f8578063f718924a1461164f578063fca2aca51461167a575b600080fd5b34801561033357600080fd5b50610368600480360381019080803573ffffffffffffffffffffffffffffffffffffffff169060200190929190505050611707565b604051808260ff1660ff16815260200191505060405180910390f35b34801561039057600080fd5b50610399611727565b604051808260ff1660ff16815260200191505060405180910390f35b3480156103c157600080fd5b50610400600480360381019080803573ffffffffffffffffffffffffffffffffffffffff1690602001909291908035906020019092919050505061172c565b6040518082815260200191505060405180910390f35b34801561042257600080fd5b5061042b611a1a565b6040518080602001828103825283818151815260200191508051906020019080838360005b8381101561046b578082015181840152602081019050610450565b50505050905090810190601f1680156104985780820380516001836020036101000a031916815260200191505b509250505060405180910390f35b3480156104b257600080fd5b506104bb611ab8565b6040518082815260200191505060405180910390f35b3480156104dd57600080fd5b506104e6611ac6565b604051808273ffffffffffffffffffffffffffffffffffffffff1673ffffffffffffffffffffffffffffffffffffffff16815260200191505060405180910390f35b34801561053457600080fd5b5061053d611aec565b6040518082815260200191505060405180910390f35b34801561055f57600080fd5b5061059e600480360381019080803573ffffffffffffffffffffffffffffffffffffffff16906020019092919080359060200190929190505050611afa565b6040518085815260200184815260200183815260200182815260200194505050505060405180910390f35b3480156105d557600080fd5b506105de611cd8565b6040518082815260200191505060405180910390f35b34801561060057600080fd5b50610609611d1f565b6040518082815260200191505060405180910390f35b34801561062b57600080fd5b50610660600480360381019080803573ffffffffffffffffffffffffffffffffffffffff169060200190929190505050611d25565b6040518082815260200191505060405180910390f35b34801561068257600080fd5b5061068b611d3d565b6040518082815260200191505060405180910390f35b3480156106ad57600080fd5b506106b6611d84565b604051808261ffff1661ffff16815260200191505060405180910390f35b3480156106e057600080fd5b5061071f600480360381019080803573ffffffffffffffffffffffffffffffffffffffff16906020019092919080359060200190929190505050611d89565b604051808581526020018481526020018381526020018215151515815260200194505050505060405180910390f35b34801561075a57600080fd5b50610763611de2565b6040518082815260200191505060405180910390f35b34801561078557600080fd5b506107a460048036038101908080359060200190929190505050611df0565b6040518082815260200191505060405180910390f35b3480156107c657600080fd5b506107fb600480360381019080803573ffffffffffffffffffffffffffffffffffffffff169060200190929190505050611e08565b6040518082815260200191505060405180910390f35b34801561081d57600080fd5b50610852600480360381019080803573ffffffffffffffffffffffffffffffffffffffff169060200190929190505050611e20565b604051808215151515815260200191505060405180910390f35b34801561087857600080fd5b506108ad600480360381019080803573ffffffffffffffffffffffffffffffffffffffff169060200190929190505050611e40565b6040518082815260200191505060405180910390f35b3480156108cf57600080fd5b5061090e600480360381019080803573ffffffffffffffffffffffffffffffffffffffff16906020019092919080359060200190929190505050611e58565b604051808273ffffffffffffffffffffffffffffffffffffffff1673ffffffffffffffffffffffffffffffffffffffff16815260200191505060405180910390f35b34801561095c57600080fd5b50610965611ea5565b604051808260ff1660ff16815260200191505060405180910390f35b34801561098d57600080fd5b50610996611eaa565b6040518082815260200191505060405180910390f35b3480156109b857600080fd5b506109c1611eb0565b6040518082815260200191505060405180910390f35b3480156109e357600080fd5b50610a05600480360381019080803560ff169060200190929190505050611eb6565b604051808260ff1660ff16815260200191505060405180910390f35b348015610a2d57600080fd5b50610a6c600480360381019080803573ffffffffffffffffffffffffffffffffffffffff16906020019092919080359060200190929190505050611ed6565b604051808681526020018581526020018481526020018381526020018281526020019550505050505060405180910390f35b348015610aaa57600080fd5b50610ab3612131565b604051808260ff1660ff16815260200191505060405180910390f35b348015610adb57600080fd5b50610ae4612136565b6040518082815260200191505060405180910390f35b348015610b0657600080fd5b50610b3b600480360381019080803573ffffffffffffffffffffffffffffffffffffffff16906020019092919050505061213b565b604051808273ffffffffffffffffffffffffffffffffffffffff1673ffffffffffffffffffffffffffffffffffffffff16815260200191505060405180910390f35b348015610b8957600080fd5b50610bb2600480360381019080803590602001909291908035906020019092919050505061216e565b005b348015610bc057600080fd5b50610c15600480360381019080803573ffffffffffffffffffffffffffffffffffffffff169060200190929190803573ffffffffffffffffffffffffffffffffffffffff169060200190929190505050612204565b6040518082815260200191505060405180910390f35b348015610c3757600080fd5b50610c76600480360381019080803573ffffffffffffffffffffffffffffffffffffffff16906020019092919080359060200190929190505050612228565b604051808360ff1660ff1681526020018281526020019250505060405180910390f35b348015610ca557600080fd5b50610cae612275565b6040518082815260200191505060405180910390f35b348015610cd057600080fd5b50610d0f600480360381019080803573ffffffffffffffffffffffffffffffffffffffff1690602001909291908035906020019092919050505061227b565b604051808581526020018481526020018381526020018260ff1660ff16815260200194505050505060405180910390f35b348015610d4c57600080fd5b50610d556122d4565b604051808261ffff1661ffff16815260200191505060405180910390f35b348015610d7f57600080fd5b50610d886122d9565b604051808261ffff1661ffff16815260200191505060405180910390f35b348015610db257600080fd5b50610df1600480360381019080803573ffffffffffffffffffffffffffffffffffffffff169060200190929190803590602001909291905050506122de565b60405180848152602001838152602001828152602001935050505060405180910390f35b348015610e2157600080fd5b50610e4060048036038101908080359060200190929190505050612452565b60405180868152602001858152602001848152602001831515151581526020018281526020019550505050505060405180910390f35b348015610e8257600080fd5b50610e8b612692565b6040518080602001828103825283818151815260200191508051906020019060200280838360005b83811015610ece578082015181840152602081019050610eb3565b505050509050019250505060405180910390f35b348015610eee57600080fd5b50610ef761275d565b604051808260ff1660ff16815260200191505060405180910390f35b348015610f1f57600080fd5b50610f28612762565b6040518080602001828103825283818151815260200191508051906020019060200280838360005b83811015610f6b578082015181840152602081019050610f50565b505050509050019250505060405180910390f35b348015610f8b57600080fd5b50610fc0600480360381019080803573ffffffffffffffffffffffffffffffffffffffff16906020019092919050505061282d565b6040518082815260200191505060405180910390f35b348015610fe257600080fd5b50610feb612845565b604051808273ffffffffffffffffffffffffffffffffffffffff1673ffffffffffffffffffffffffffffffffffffffff16815260200191505060405180910390f35b34801561103957600080fd5b5061104261286a565b604051808260ff1660ff16815260200191505060405180910390f35b34801561106a57600080fd5b506110bf600480360381019080803573ffffffffffffffffffffffffffffffffffffffff169060200190929190803573ffffffffffffffffffffffffffffffffffffffff16906020019092919050505061286f565b6040518082815260200191505060405180910390f35b3480156110e157600080fd5b50611116600480360381019080803573ffffffffffffffffffffffffffffffffffffffff169060200190929190505050612894565b005b34801561112457600080fd5b5061112d612933565b6040518082815260200191505060405180910390f35b34801561114f57600080fd5b50611158612939565b6040518082815260200191505060405180910390f35b34801561117a57600080fd5b5061118361293f565b604051808260ff1660ff16815260200191505060405180910390f35b3480156111ab57600080fd5b506111ca60048036038101908080359060200190929190505050612944565b6040518082815260200191505060405180910390f35b3480156111ec57600080fd5b506111f5612999565b604051808260ff1660ff16815260200191505060405180910390f35b34801561121d57600080fd5b506112266129ac565b604051808260ff1660ff16815260200191505060405180910390f35b34801561124e57600080fd5b5061126d600480360381019080803590602001909291905050506129b1565b604051808273ffffffffffffffffffffffffffffffffffffffff1673ffffffffffffffffffffffffffffffffffffffff16815260200191505060405180910390f35b3480156112bb57600080fd5b506112f0600480360381019080803573ffffffffffffffffffffffffffffffffffffffff1690602001909291905050506129e4565b6040518082815260200191505060405180910390f35b34801561131257600080fd5b5061133d600480360381019080803590602001909291908035151590602001909291905050506129fc565b005b34801561134b57600080fd5b50611354613627565b604051808260ff1660ff16815260200191505060405180910390f35b34801561137c57600080fd5b506113b1600480360381019080803573ffffffffffffffffffffffffffffffffffffffff16906020019092919050505061362c565b005b3480156113bf57600080fd5b506113c86141d1565b604051808260ff1660ff16815260200191505060405180910390f35b3480156113f057600080fd5b50611425600480360381019080803573ffffffffffffffffffffffffffffffffffffffff1690602001909291905050506141d6565b6040518082815260200191505060405180910390f35b34801561144757600080fd5b5061147c600480360381019080803573ffffffffffffffffffffffffffffffffffffffff1690602001909291905050506141ee565b6040518082815260200191505060405180910390f35b34801561149e57600080fd5b506114a7614206565b604051808260ff1660ff16815260200191505060405180910390f35b3480156114cf57600080fd5b5061150e600480360381019080803573ffffffffffffffffffffffffffffffffffffffff1690602001909291908035906020019092919050505061420b565b60405180848152602001838152602001828152602001935050505060405180910390f35b34801561153e57600080fd5b50611547614251565b6040518082815260200191505060405180910390f35b34801561156957600080fd5b50611572614298565b6040518082815260200191505060405180910390f35b34801561159457600080fd5b506115b36004803603810190808035906020019092919050505061429e565b005b3480156115c157600080fd5b506115f6600480360381019080803573ffffffffffffffffffffffffffffffffffffffff1690602001909291905050506149a9565b005b34801561160457600080fd5b5061160d614a7e565b604051808273ffffffffffffffffffffffffffffffffffffffff1673ffffffffffffffffffffffffffffffffffffffff16815260200191505060405180910390f35b34801561165b57600080fd5b50611664614aa4565b6040518082815260200191505060405180910390f35b34801561168657600080fd5b506116c5600480360381019080803573ffffffffffffffffffffffffffffffffffffffff16906020019092919080359060200190929190505050614aaa565b604051808273ffffffffffffffffffffffffffffffffffffffff1673ffffffffffffffffffffffffffffffffffffffff16815260200191505060405180910390f35b601c6020528060005260406000206000915054906101000a900460ff1681565b600a81565b6000806000600554841115151561174257600080fd5b600090505b601260008673ffffffffffffffffffffffffffffffffffffffff1673ffffffffffffffffffffffffffffffffffffffff16815260200190815260200160002080549050811015611a0f57601260008673ffffffffffffffffffffffffffffffffffffffff1673ffffffffffffffffffffffffffffffffffffffff168152602001908152602001600020818154811015156117dd57fe5b906000526020600020906004020160030160009054906101000a900460ff161561193857601260008673ffffffffffffffffffffffffffffffffffffffff1673ffffffffffffffffffffffffffffffffffffffff1681526020019081526020016000208181548110151561184d57fe5b90600052602060002090600402016000015484101580156118cb5750601260008673ffffffffffffffffffffffffffffffffffffffff1673ffffffffffffffffffffffffffffffffffffffff168152602001908152602001600020818154811015156118b557fe5b9060005260206000209060040201600201548411155b1561193357601260008673ffffffffffffffffffffffffffffffffffffffff1673ffffffffffffffffffffffffffffffffffffffff1681526020019081526020016000208181548110151561191c57fe5b906000526020600020906004020160010154820191505b611a02565b601260008673ffffffffffffffffffffffffffffffffffffffff1673ffffffffffffffffffffffffffffffffffffffff1681526020019081526020016000208181548110151561198457fe5b90600052602060002090600402016000015484101515611a0157601260008673ffffffffffffffffffffffffffffffffffffffff1673ffffffffffffffffffffffffffffffffffffffff168152602001908152602001600020818154811015156119ea57fe5b906000526020600020906004020160010154820191505b5b8080600101915050611747565b819250505092915050565b60018054600181600116156101000203166002900480601f016020809104026020016040519081016040528092919081815260200182805460018160011615610100020316600290048015611ab05780601f10611a8557610100808354040283529160200191611ab0565b820191906000526020600020905b815481529060010190602001808311611a9357829003601f168201915b505050505081565b69065a4da25d3016c0000081565b600260009054906101000a900473ffffffffffffffffffffffffffffffffffffffff1681565b690a968163f0a57b40000081565b60008060008084600e60008873ffffffffffffffffffffffffffffffffffffffff1673ffffffffffffffffffffffffffffffffffffffff168152602001908152602001600020805490501115611cb457600e60008773ffffffffffffffffffffffffffffffffffffffff1673ffffffffffffffffffffffffffffffffffffffff16815260200190815260200160002085815481101515611b9657fe5b906000526020600020906003020160000154600e60008873ffffffffffffffffffffffffffffffffffffffff1673ffffffffffffffffffffffffffffffffffffffff16815260200190815260200160002086815481101515611bf457fe5b906000526020600020906003020160010154600e60008973ffffffffffffffffffffffffffffffffffffffff1673ffffffffffffffffffffffffffffffffffffffff16815260200190815260200160002087815481101515611c5257fe5b906000526020600020906003020160020154600e60008a73ffffffffffffffffffffffffffffffffffffffff1673ffffffffffffffffffffffffffffffffffffffff168152602001908152602001600020805490509350935093509350611ccf565b60008060008083935082925081915080905093509350935093505b92959194509250565b6000601960003373ffffffffffffffffffffffffffffffffffffffff1673ffffffffffffffffffffffffffffffffffffffff16815260200190815260200160002054905090565b60045481565b60196020528060005260406000206000915090505481565b6000601860003373ffffffffffffffffffffffffffffffffffffffff1673ffffffffffffffffffffffffffffffffffffffff16815260200190815260200160002054905090565b600381565b601260205281600052604060002081815481101515611da457fe5b9060005260206000209060040201600091509150508060000154908060010154908060020154908060030160009054906101000a900460ff16905084565b69021e19e0c9bab240000081565b60176020528060005260406000206000915090505481565b60136020528060005260406000206000915090505481565b601e6020528060005260406000206000915054906101000a900460ff1681565b60146020528060005260406000206000915090505481565b600f60205281600052604060002081815481101515611e7357fe5b906000526020600020016000915091509054906101000a900473ffffffffffffffffffffffffffffffffffffffff1681565b600a81565b60075481565b60065481565b601d6020528060005260406000206000915054906101000a900460ff1681565b600080600080600085600d60008973ffffffffffffffffffffffffffffffffffffffff1673ffffffffffffffffffffffffffffffffffffffff16815260200190815260200160002080549050111561210557600d60008873ffffffffffffffffffffffffffffffffffffffff1673ffffffffffffffffffffffffffffffffffffffff16815260200190815260200160002086815481101515611f7457fe5b906000526020600020906004020160000154600d60008973ffffffffffffffffffffffffffffffffffffffff1673ffffffffffffffffffffffffffffffffffffffff16815260200190815260200160002087815481101515611fd257fe5b906000526020600020906004020160010154600d60008a73ffffffffffffffffffffffffffffffffffffffff1673ffffffffffffffffffffffffffffffffffffffff1681526020019081526020016000208881548110151561203057fe5b906000526020600020906004020160020154600d60008b73ffffffffffffffffffffffffffffffffffffffff1673ffffffffffffffffffffffffffffffffffffffff1681526020019081526020016000208981548110151561208e57fe5b906000526020600020906004020160030160009054906101000a900460ff16600d60008c73ffffffffffffffffffffffffffffffffffffffff1673ffffffffffffffffffffffffffffffffffffffff168152602001908152602001600020805490508160ff16915094509450945094509450612127565b6000806000806000849450839350829250819150809050945094509450945094505b9295509295909350565b600581565b607881565b60166020528060005260406000206000915054906101000a900473ffffffffffffffffffffffffffffffffffffffff1681565b60008060009054906101000a900473ffffffffffffffffffffffffffffffffffffffff1673ffffffffffffffffffffffffffffffffffffffff163373ffffffffffffffffffffffffffffffffffffffff161415156121cb57600080fd5b60055482111515156121dc57600080fd5b6121e582612944565b9050826017600083815260200190815260200160002081905550505050565b60208052816000526040600020602052806000526040600020600091509150505481565b60116020528160005260406000208181548110151561224357fe5b9060005260206000209060020201600091509150508060000160009054906101000a900460ff16908060010154905082565b60085481565b600d6020528160005260406000208181548110151561229657fe5b9060005260206000209060040201600091509150508060000154908060010154908060020154908060030160009054906101000a900460ff16905084565b600481565b600281565b6000806000601160003373ffffffffffffffffffffffffffffffffffffffff1673ffffffffffffffffffffffffffffffffffffffff168152602001908152602001600020805490508410151561233357600080fd5b601160003373ffffffffffffffffffffffffffffffffffffffff1673ffffffffffffffffffffffffffffffffffffffff1681526020019081526020016000208481548110151561237f57fe5b906000526020600020906002020160000160009054906101000a900460ff16601160003373ffffffffffffffffffffffffffffffffffffffff1673ffffffffffffffffffffffffffffffffffffffff168152602001908152602001600020858154811015156123ea57fe5b906000526020600020906002020160010154601160003373ffffffffffffffffffffffffffffffffffffffff1673ffffffffffffffffffffffffffffffffffffffff168152602001908152602001600020805490508260ff1692509250925092509250925092565b6000806000806000601260003373ffffffffffffffffffffffffffffffffffffffff1673ffffffffffffffffffffffffffffffffffffffff16815260200190815260200160002080549050861080156124ac575060008610155b15156124b757600080fd5b601260003373ffffffffffffffffffffffffffffffffffffffff1673ffffffffffffffffffffffffffffffffffffffff1681526020019081526020016000208681548110151561250357fe5b906000526020600020906004020160000154601260003373ffffffffffffffffffffffffffffffffffffffff1673ffffffffffffffffffffffffffffffffffffffff1681526020019081526020016000208781548110151561256157fe5b906000526020600020906004020160020154601260003373ffffffffffffffffffffffffffffffffffffffff1673ffffffffffffffffffffffffffffffffffffffff168152602001908152602001600020888154811015156125bf57fe5b906000526020600020906004020160010154601260003373ffffffffffffffffffffffffffffffffffffffff1673ffffffffffffffffffffffffffffffffffffffff1681526020019081526020016000208981548110151561261d57fe5b906000526020600020906004020160030160009054906101000a900460ff16601260003373ffffffffffffffffffffffffffffffffffffffff1673ffffffffffffffffffffffffffffffffffffffff168152602001908152602001600020805490509450945094509450945091939590929450565b6060600f60003373ffffffffffffffffffffffffffffffffffffffff1673ffffffffffffffffffffffffffffffffffffffff16815260200190815260200160002080548060200260200160405190810160405280929190818152602001828054801561275357602002820191906000526020600020905b8160009054906101000a900473ffffffffffffffffffffffffffffffffffffffff1673ffffffffffffffffffffffffffffffffffffffff1681526020019060010190808311612709575b5050505050905090565b600381565b6060601060003373ffffffffffffffffffffffffffffffffffffffff1673ffffffffffffffffffffffffffffffffffffffff16815260200190815260200160002080548060200260200160405190810160405280929190818152602001828054801561282357602002820191906000526020600020905b8160009054906101000a900473ffffffffffffffffffffffffffffffffffffffff1673ffffffffffffffffffffffffffffffffffffffff16815260200190600101908083116127d9575b5050505050905090565b601b6020528060005260406000206000915090505481565b6000809054906101000a900473ffffffffffffffffffffffffffffffffffffffff1681565b600581565b6021602052816000526040600020602052806000526040600020600091509150505481565b6000809054906101000a900473ffffffffffffffffffffffffffffffffffffffff1673ffffffffffffffffffffffffffffffffffffffff163373ffffffffffffffffffffffffffffffffffffffff161415156128ef57600080fd5b80600360006101000a81548173ffffffffffffffffffffffffffffffffffffffff021916908373ffffffffffffffffffffffffffffffffffffffff16021790555050565b600b5481565b600a5481565b600a81565b600060075460055401821115151561295b57600080fd5b600161299160075461297860045486614af790919063ffffffff16565b81151561298157fe5b0684614af790919063ffffffff16565b039050919050565b600c60009054906101000a900460ff1681565b600381565b601a6020528060005260406000206000915054906101000a900473ffffffffffffffffffffffffffffffffffffffff1681565b60156020528060005260406000206000915090505481565b60008060006005544211151515612a1257600080fd5b6000601360003373ffffffffffffffffffffffffffffffffffffffff1673ffffffffffffffffffffffffffffffffffffffff168152602001908152602001600020541415612ab25783601e60003373ffffffffffffffffffffffffffffffffffffffff1673ffffffffffffffffffffffffffffffffffffffff16815260200190815260200160002060006101000a81548160ff0219169083151502179055505b600260009054906101000a900473ffffffffffffffffffffffffffffffffffffffff1673ffffffffffffffffffffffffffffffffffffffff166323b872dd3330886040518463ffffffff167c0100000000000000000000000000000000000000000000000000000000028152600401808473ffffffffffffffffffffffffffffffffffffffff1673ffffffffffffffffffffffffffffffffffffffff1681526020018373ffffffffffffffffffffffffffffffffffffffff1673ffffffffffffffffffffffffffffffffffffffff1681526020018281526020019350505050600060405180830381600087803b158015612bab57600080fd5b505af1158015612bbf573d6000803e3d6000fd5b50505050601260003373ffffffffffffffffffffffffffffffffffffffff1673ffffffffffffffffffffffffffffffffffffffff16815260200190815260200160002060806040519081016040528042815260200187815260200160008152602001600015158152509080600181540180825580915050906001820390600052602060002090600402016000909192909190915060008201518160000155602082015181600101556040820151816002015560608201518160030160006101000a81548160ff021916908315150217905550505050601360003373ffffffffffffffffffffffffffffffffffffffff1673ffffffffffffffffffffffffffffffffffffffff168152602001908152602001600020549250612d2885601360003373ffffffffffffffffffffffffffffffffffffffff1673ffffffffffffffffffffffffffffffffffffffff16815260200190815260200160002054614b1390919063ffffffff16565b601360003373ffffffffffffffffffffffffffffffffffffffff1673ffffffffffffffffffffffffffffffffffffffff16815260200190815260200160002081905550612d8085600a54614b1390919063ffffffff16565b600a81905550600090505b600f60003373ffffffffffffffffffffffffffffffffffffffff1673ffffffffffffffffffffffffffffffffffffffff1681526020019081526020016000208054905081101561362057600c60009054906101000a900460ff1660ff16811415612df457613620565b6001601260003373ffffffffffffffffffffffffffffffffffffffff1673ffffffffffffffffffffffffffffffffffffffff168152602001908152602001600020805490501415612f0857600160186000600f60003373ffffffffffffffffffffffffffffffffffffffff1673ffffffffffffffffffffffffffffffffffffffff16815260200190815260200160002084815481101515612e9157fe5b9060005260206000200160009054906101000a900473ffffffffffffffffffffffffffffffffffffffff1673ffffffffffffffffffffffffffffffffffffffff1673ffffffffffffffffffffffffffffffffffffffff16815260200190815260200160002060008282540192505081905550612fd7565b6000831415612fd657600160186000600f60003373ffffffffffffffffffffffffffffffffffffffff1673ffffffffffffffffffffffffffffffffffffffff16815260200190815260200160002084815481101515612f6357fe5b9060005260206000200160009054906101000a900473ffffffffffffffffffffffffffffffffffffffff1673ffffffffffffffffffffffffffffffffffffffff1673ffffffffffffffffffffffffffffffffffffffff168152602001908152602001600020600082825401925050819055505b5b61309f8560196000600f60003373ffffffffffffffffffffffffffffffffffffffff1673ffffffffffffffffffffffffffffffffffffffff1681526020019081526020016000208581548110151561302b57fe5b9060005260206000200160009054906101000a900473ffffffffffffffffffffffffffffffffffffffff1673ffffffffffffffffffffffffffffffffffffffff1673ffffffffffffffffffffffffffffffffffffffff16815260200190815260200160002054614b1390919063ffffffff16565b60196000600f60003373ffffffffffffffffffffffffffffffffffffffff1673ffffffffffffffffffffffffffffffffffffffff168152602001908152602001600020848154811015156130ef57fe5b9060005260206000200160009054906101000a900473ffffffffffffffffffffffffffffffffffffffff1673ffffffffffffffffffffffffffffffffffffffff1673ffffffffffffffffffffffffffffffffffffffff168152602001908152602001600020819055506131d7600f60003373ffffffffffffffffffffffffffffffffffffffff1673ffffffffffffffffffffffffffffffffffffffff168152602001908152602001600020828154811015156131a757fe5b9060005260206000200160009054906101000a900473ffffffffffffffffffffffffffffffffffffffff1661362c565b61325833600f60003373ffffffffffffffffffffffffffffffffffffffff1673ffffffffffffffffffffffffffffffffffffffff1681526020019081526020016000208381548110151561322757fe5b9060005260206000200160009054906101000a900473ffffffffffffffffffffffffffffffffffffffff1687614b34565b9150600281101561342f576000600e6000600f60003373ffffffffffffffffffffffffffffffffffffffff1673ffffffffffffffffffffffffffffffffffffffff168152602001908152602001600020848154811015156132b557fe5b9060005260206000200160009054906101000a900473ffffffffffffffffffffffffffffffffffffffff1673ffffffffffffffffffffffffffffffffffffffff1673ffffffffffffffffffffffffffffffffffffffff1681526020019081526020016000208054905014156133ab576133a633600f60003373ffffffffffffffffffffffffffffffffffffffff1673ffffffffffffffffffffffffffffffffffffffff1681526020019081526020016000208381548110151561337457fe5b9060005260206000200160009054906101000a900473ffffffffffffffffffffffffffffffffffffffff168484614bb6565b61342e565b61342d33600f60003373ffffffffffffffffffffffffffffffffffffffff1673ffffffffffffffffffffffffffffffffffffffff168152602001908152602001600020838154811015156133fb57fe5b9060005260206000200160009054906101000a900473ffffffffffffffffffffffffffffffffffffffff168784614cd2565b5b5b600c60009054906101000a900460ff1660ff16811015613613576000600d6000600f60003373ffffffffffffffffffffffffffffffffffffffff1673ffffffffffffffffffffffffffffffffffffffff1681526020019081526020016000208481548110151561349b57fe5b9060005260206000200160009054906101000a900473ffffffffffffffffffffffffffffffffffffffff1673ffffffffffffffffffffffffffffffffffffffff1673ffffffffffffffffffffffffffffffffffffffff1681526020019081526020016000208054905014156135905761358b33600f60003373ffffffffffffffffffffffffffffffffffffffff1673ffffffffffffffffffffffffffffffffffffffff1681526020019081526020016000208381548110151561355a57fe5b9060005260206000200160009054906101000a900473ffffffffffffffffffffffffffffffffffffffff168461506a565b613612565b61361133600f60003373ffffffffffffffffffffffffffffffffffffffff1673ffffffffffffffffffffffffffffffffffffffff168152602001908152602001600020838154811015156135e057fe5b9060005260206000200160009054906101000a900473ffffffffffffffffffffffffffffffffffffffff16876151e8565b5b5b8080600101915050612d8b565b5050505050565b600581565b600461ffff16601860008373ffffffffffffffffffffffffffffffffffffffff1673ffffffffffffffffffffffffffffffffffffffff16815260200190815260200160002054101580156136c95750690a968163f0a57b400000601960008373ffffffffffffffffffffffffffffffffffffffff1673ffffffffffffffffffffffffffffffffffffffff1681526020019081526020016000205410155b801561371b5750600a60ff16601060008373ffffffffffffffffffffffffffffffffffffffff1673ffffffffffffffffffffffffffffffffffffffff1681526020019081526020016000208054905010155b15613952576003601c60008373ffffffffffffffffffffffffffffffffffffffff1673ffffffffffffffffffffffffffffffffffffffff16815260200190815260200160002060009054906101000a900460ff1660ff1614151561394d577fc7d5ff51d6870ddf5a0064f51d3b5ddc326806d4c4a84146226d42ea13e0bf3e81601c60008473ffffffffffffffffffffffffffffffffffffffff1673ffffffffffffffffffffffffffffffffffffffff16815260200190815260200160002060009054906101000a900460ff166003604051808473ffffffffffffffffffffffffffffffffffffffff1673ffffffffffffffffffffffffffffffffffffffff1681526020018360ff1660ff1681526020018260ff168152602001935050505060405180910390a16003601c60008373ffffffffffffffffffffffffffffffffffffffff1673ffffffffffffffffffffffffffffffffffffffff16815260200190815260200160002060006101000a81548160ff021916908360ff160217905550601160008273ffffffffffffffffffffffffffffffffffffffff1673ffffffffffffffffffffffffffffffffffffffff1681526020019081526020016000206040805190810160405280600360ff168152602001428152509080600181540180825580915050906001820390600052602060002090600202016000909192909190915060008201518160000160006101000a81548160ff021916908360ff160217905550602082015181600101555050505b6141ce565b600361ffff16601860008373ffffffffffffffffffffffffffffffffffffffff1673ffffffffffffffffffffffffffffffffffffffff16815260200190815260200160002054101580156139ef575069065a4da25d3016c00000601960008373ffffffffffffffffffffffffffffffffffffffff1673ffffffffffffffffffffffffffffffffffffffff1681526020019081526020016000205410155b8015613a415750600560ff16601060008373ffffffffffffffffffffffffffffffffffffffff1673ffffffffffffffffffffffffffffffffffffffff1681526020019081526020016000208054905010155b15613c78576002601c60008373ffffffffffffffffffffffffffffffffffffffff1673ffffffffffffffffffffffffffffffffffffffff16815260200190815260200160002060009054906101000a900460ff1660ff16141515613c73577fc7d5ff51d6870ddf5a0064f51d3b5ddc326806d4c4a84146226d42ea13e0bf3e81601c60008473ffffffffffffffffffffffffffffffffffffffff1673ffffffffffffffffffffffffffffffffffffffff16815260200190815260200160002060009054906101000a900460ff166002604051808473ffffffffffffffffffffffffffffffffffffffff1673ffffffffffffffffffffffffffffffffffffffff1681526020018360ff1660ff1681526020018260ff168152602001935050505060405180910390a16002601c60008373ffffffffffffffffffffffffffffffffffffffff1673ffffffffffffffffffffffffffffffffffffffff16815260200190815260200160002060006101000a81548160ff021916908360ff160217905550601160008273ffffffffffffffffffffffffffffffffffffffff1673ffffffffffffffffffffffffffffffffffffffff1681526020019081526020016000206040805190810160405280600260ff168152602001428152509080600181540180825580915050906001820390600052602060002090600202016000909192909190915060008201518160000160006101000a81548160ff021916908360ff160217905550602082015181600101555050505b6141cd565b600261ffff16601860008373ffffffffffffffffffffffffffffffffffffffff1673ffffffffffffffffffffffffffffffffffffffff1681526020019081526020016000205410158015613d15575069021e19e0c9bab2400000601960008373ffffffffffffffffffffffffffffffffffffffff1673ffffffffffffffffffffffffffffffffffffffff1681526020019081526020016000205410155b8015613d675750600360ff16601060008373ffffffffffffffffffffffffffffffffffffffff1673ffffffffffffffffffffffffffffffffffffffff1681526020019081526020016000208054905010155b15613f9e576001601c60008373ffffffffffffffffffffffffffffffffffffffff1673ffffffffffffffffffffffffffffffffffffffff16815260200190815260200160002060009054906101000a900460ff1660ff16141515613f99577fc7d5ff51d6870ddf5a0064f51d3b5ddc326806d4c4a84146226d42ea13e0bf3e81601c60008473ffffffffffffffffffffffffffffffffffffffff1673ffffffffffffffffffffffffffffffffffffffff16815260200190815260200160002060009054906101000a900460ff166001604051808473ffffffffffffffffffffffffffffffffffffffff1673ffffffffffffffffffffffffffffffffffffffff1681526020018360ff1660ff1681526020018260ff168152602001935050505060405180910390a16001601c60008373ffffffffffffffffffffffffffffffffffffffff1673ffffffffffffffffffffffffffffffffffffffff16815260200190815260200160002060006101000a81548160ff021916908360ff160217905550601160008273ffffffffffffffffffffffffffffffffffffffff1673ffffffffffffffffffffffffffffffffffffffff1681526020019081526020016000206040805190810160405280600160ff168152602001428152509080600181540180825580915050906001820390600052602060002090600202016000909192909190915060008201518160000160006101000a81548160ff021916908360ff160217905550602082015181600101555050505b6141cc565b6000601c60008373ffffffffffffffffffffffffffffffffffffffff1673ffffffffffffffffffffffffffffffffffffffff16815260200190815260200160002060009054906101000a900460ff1660ff161415156141cb577fc7d5ff51d6870ddf5a0064f51d3b5ddc326806d4c4a84146226d42ea13e0bf3e81601c60008473ffffffffffffffffffffffffffffffffffffffff1673ffffffffffffffffffffffffffffffffffffffff16815260200190815260200160002060009054906101000a900460ff166000604051808473ffffffffffffffffffffffffffffffffffffffff1673ffffffffffffffffffffffffffffffffffffffff1681526020018360ff1660ff1681526020018260ff168152602001935050505060405180910390a16000601c60008373ffffffffffffffffffffffffffffffffffffffff1673ffffffffffffffffffffffffffffffffffffffff16815260200190815260200160002060006101000a81548160ff021916908360ff160217905550601160008273ffffffffffffffffffffffffffffffffffffffff1673ffffffffffffffffffffffffffffffffffffffff1681526020019081526020016000206040805190810160405280600060ff168152602001428152509080600181540180825580915050906001820390600052602060002090600202016000909192909190915060008201518160000160006101000a81548160ff021916908360ff160217905550602082015181600101555050505b5b5b5b50565b600581565b60186020528060005260406000206000915090505481565b601f6020528060005260406000206000915090505481565b601481565b600e6020528160005260406000208181548110151561422657fe5b9060005260206000209060030201600091509150508060000154908060010154908060020154905083565b6000601b60003373ffffffffffffffffffffffffffffffffffffffff1673ffffffffffffffffffffffffffffffffffffffff16815260200190815260200160002054905090565b60055481565b60008060008060055442111515156142b557600080fd5b6000601b60003373ffffffffffffffffffffffffffffffffffffffff1673ffffffffffffffffffffffffffffffffffffffff1681526020019081526020016000205414151561430357600080fd5b60644233604051808381526020018273ffffffffffffffffffffffffffffffffffffffff1673ffffffffffffffffffffffffffffffffffffffff166c010000000000000000000000000281526014019250505060405180910390206001900481151561436b57fe5b06935061438384600654614b1390919063ffffffff16565b925061439a84600654614b1390919063ffffffff16565b600681905550600073ffffffffffffffffffffffffffffffffffffffff16601a600085815260200190815260200160002060009054906101000a900473ffffffffffffffffffffffffffffffffffffffff1673ffffffffffffffffffffffffffffffffffffffff1614151561440e57600080fd5b600073ffffffffffffffffffffffffffffffffffffffff16601a600087815260200190815260200160002060009054906101000a900473ffffffffffffffffffffffffffffffffffffffff1673ffffffffffffffffffffffffffffffffffffffff161415151561447d57600080fd5b33601a600085815260200190815260200160002060006101000a81548173ffffffffffffffffffffffffffffffffffffffff021916908373ffffffffffffffffffffffffffffffffffffffff16021790555082601b60003373ffffffffffffffffffffffffffffffffffffffff1673ffffffffffffffffffffffffffffffffffffffff168152602001908152602001600020819055507f29317bf7eb9941522faad78efabe2efda58f223f6b421c6e91762fb0484cbdad33600654604051808373ffffffffffffffffffffffffffffffffffffffff1673ffffffffffffffffffffffffffffffffffffffff1681526020018281526020019250505060405180910390a1600960008154809291906001019190505550601a600086815260200190815260200160002060009054906101000a900473ffffffffffffffffffffffffffffffffffffffff16915081601660003373ffffffffffffffffffffffffffffffffffffffff1673ffffffffffffffffffffffffffffffffffffffff16815260200190815260200160002060006101000a81548173ffffffffffffffffffffffffffffffffffffffff021916908373ffffffffffffffffffffffffffffffffffffffff160217905550601060008373ffffffffffffffffffffffffffffffffffffffff1673ffffffffffffffffffffffffffffffffffffffff1681526020019081526020016000203390806001815401808255809150509060018203906000526020600020016000909192909190916101000a81548173ffffffffffffffffffffffffffffffffffffffff021916908373ffffffffffffffffffffffffffffffffffffffff160217905550506009600f60003373ffffffffffffffffffffffffffffffffffffffff1673ffffffffffffffffffffffffffffffffffffffff1681526020019081526020016000208054905010156147d857600f60003373ffffffffffffffffffffffffffffffffffffffff1673ffffffffffffffffffffffffffffffffffffffff1681526020019081526020016000208290806001815401808255809150509060018203906000526020600020016000909192909190916101000a81548173ffffffffffffffffffffffffffffffffffffffff021916908373ffffffffffffffffffffffffffffffffffffffff160217905550505b600090505b600f60008373ffffffffffffffffffffffffffffffffffffffff1673ffffffffffffffffffffffffffffffffffffffff168152602001908152602001600020805490508110156149a2576009600f60003373ffffffffffffffffffffffffffffffffffffffff1673ffffffffffffffffffffffffffffffffffffffff16815260200190815260200160002080549050101561499057600f60003373ffffffffffffffffffffffffffffffffffffffff1673ffffffffffffffffffffffffffffffffffffffff168152602001908152602001600020600f60008473ffffffffffffffffffffffffffffffffffffffff1673ffffffffffffffffffffffffffffffffffffffff168152602001908152602001600020828154811015156148fd57fe5b9060005260206000200160009054906101000a900473ffffffffffffffffffffffffffffffffffffffff1690806001815401808255809150509060018203906000526020600020016000909192909190916101000a81548173ffffffffffffffffffffffffffffffffffffffff021916908373ffffffffffffffffffffffffffffffffffffffff16021790555050614995565b6149a2565b80806001019150506147dd565b5050505050565b6000809054906101000a900473ffffffffffffffffffffffffffffffffffffffff1673ffffffffffffffffffffffffffffffffffffffff163373ffffffffffffffffffffffffffffffffffffffff16141515614a0457600080fd5b600073ffffffffffffffffffffffffffffffffffffffff168173ffffffffffffffffffffffffffffffffffffffff16141515614a7b57806000806101000a81548173ffffffffffffffffffffffffffffffffffffffff021916908373ffffffffffffffffffffffffffffffffffffffff1602179055505b50565b600360009054906101000a900473ffffffffffffffffffffffffffffffffffffffff1681565b60095481565b601060205281600052604060002081815481101515614ac557fe5b906000526020600020016000915091509054906101000a900473ffffffffffffffffffffffffffffffffffffffff1681565b6000828211151515614b0857600080fd5b818303905092915050565b6000808284019050838110151515614b2a57600080fd5b8091505092915050565b6000806000806000614b46874261172c565b9350614b52884261172c565b92508284101515614b6557859150614b80565b83830390508581101515614b7c5760009150614bab565b8091505b614ba86103e8614b9a6003856156ce90919063ffffffff16565b61570490919063ffffffff16565b94505b505050509392505050565b6000806000831415614bcb5760149150614be3565b6001831415614bdd57600a9150614be2565b614cca565b5b600754600202614bf242612944565b019050614c0086868661574b565b600e60008673ffffffffffffffffffffffffffffffffffffffff1673ffffffffffffffffffffffffffffffffffffffff16815260200190815260200160002060606040519081016040528083815260200160648560ff168802811515614c6257fe5b04815260200160648560ff168802811515614c7957fe5b04815250908060018154018082558091505090600182039060005260206000209060030201600090919290919091506000820151816000015560208201518160010155604082015181600201555050505b505050505050565b6000806000806000806000806000808a1415614cf15760149850614d09565b60018a1415614d0357600a9850614d08565b61505b565b5b600754600202614d1842612944565b0197506001600e60008e73ffffffffffffffffffffffffffffffffffffffff1673ffffffffffffffffffffffffffffffffffffffff16815260200190815260200160002080549050039650600e60008d73ffffffffffffffffffffffffffffffffffffffff1673ffffffffffffffffffffffffffffffffffffffff16815260200190815260200160002087815481101515614daf57fe5b9060005260206000209060030201600001549550600e60008d73ffffffffffffffffffffffffffffffffffffffff1673ffffffffffffffffffffffffffffffffffffffff16815260200190815260200160002087815481101515614e0f57fe5b9060005260206000209060030201600101549450600e60008d73ffffffffffffffffffffffffffffffffffffffff1673ffffffffffffffffffffffffffffffffffffffff16815260200190815260200160002087815481101515614e6f57fe5b9060005260206000209060030201600201549350600754868903811515614e9257fe5b0692508460648a60ff168d02811515614ea757fe5b04019150614eb68d8d8d6157da565b8360648a60ff168d02811515614ec857fe5b0460648b60ff1688870202811515614edc57fe5b040101905087861015614f9557600e60008d73ffffffffffffffffffffffffffffffffffffffff1673ffffffffffffffffffffffffffffffffffffffff1681526020019081526020016000206060604051908101604052808a8152602001848152602001838152509080600181540180825580915050906001820390600052602060002090600302016000909192909190915060008201518160000155602082015181600101556040820151816002015550505061505a565b81600e60008e73ffffffffffffffffffffffffffffffffffffffff1673ffffffffffffffffffffffffffffffffffffffff16815260200190815260200160002088815481101515614fe257fe5b90600052602060002090600302016001018190555080600e60008e73ffffffffffffffffffffffffffffffffffffffff1673ffffffffffffffffffffffffffffffffffffffff1681526020019081526020016000208881548110151561504457fe5b9060005260206000209060030201600201819055505b5b50505050505050505050505050565b60008060075460020261507c42612944565b019150601d6000601c60008773ffffffffffffffffffffffffffffffffffffffff1673ffffffffffffffffffffffffffffffffffffffff16815260200190815260200160002060009054906101000a900460ff1660ff1660ff16815260200190815260200160002060009054906101000a900460ff1690506150ff85858561574b565b600d60008573ffffffffffffffffffffffffffffffffffffffff1673ffffffffffffffffffffffffffffffffffffffff16815260200190815260200160002060806040519081016040528084815260200185815260200160648460ff16870281151561516757fe5b0481526020018360ff168152509080600181540180825580915050906001820390600052602060002090600402016000909192909190915060008201518160000155602082015181600101556040820151816002015560608201518160030160006101000a81548160ff021916908360ff1602179055505050505050505050565b600080600080600080600080600080600060075460020261520842612944565b019a506001600d60008f73ffffffffffffffffffffffffffffffffffffffff1673ffffffffffffffffffffffffffffffffffffffff16815260200190815260200160002080549050039950600d60008e73ffffffffffffffffffffffffffffffffffffffff1673ffffffffffffffffffffffffffffffffffffffff1681526020019081526020016000208a81548110151561529f57fe5b9060005260206000209060040201600001549850600d60008e73ffffffffffffffffffffffffffffffffffffffff1673ffffffffffffffffffffffffffffffffffffffff1681526020019081526020016000208a8154811015156152ff57fe5b9060005260206000209060040201600101549750600d60008e73ffffffffffffffffffffffffffffffffffffffff1673ffffffffffffffffffffffffffffffffffffffff1681526020019081526020016000208a81548110151561535f57fe5b9060005260206000209060040201600201549650600d60008e73ffffffffffffffffffffffffffffffffffffffff1673ffffffffffffffffffffffffffffffffffffffff1681526020019081526020016000208a8154811015156153bf57fe5b906000526020600020906004020160030160009054906101000a900460ff169550600754898c038115156153ef57fe5b069450601c60008e73ffffffffffffffffffffffffffffffffffffffff1673ffffffffffffffffffffffffffffffffffffffff16815260200190815260200160002060009054906101000a900460ff169350601d60008560ff1660ff16815260200190815260200160002060009054906101000a900460ff169250878c01915061547a8e8e8e61574b565b8660648460ff168e0281151561548c57fe5b0460648860ff168b8902028115156154a057fe5b04010190508a89101561558357600d60008e73ffffffffffffffffffffffffffffffffffffffff1673ffffffffffffffffffffffffffffffffffffffff1681526020019081526020016000206080604051908101604052808d81526020018481526020018381526020018560ff168152509080600181540180825580915050906001820390600052602060002090600402016000909192909190915060008201518160000155602082015181600101556040820151816002015560608201518160030160006101000a81548160ff021916908360ff1602179055505050506156be565b81600d60008f73ffffffffffffffffffffffffffffffffffffffff1673ffffffffffffffffffffffffffffffffffffffff1681526020019081526020016000208b8154811015156155d057fe5b90600052602060002090600402016001018190555080600d60008f73ffffffffffffffffffffffffffffffffffffffff1673ffffffffffffffffffffffffffffffffffffffff1681526020019081526020016000208b81548110151561563257fe5b90600052602060002090600402016002018190555082600d60008f73ffffffffffffffffffffffffffffffffffffffff1673ffffffffffffffffffffffffffffffffffffffff1681526020019081526020016000208b81548110151561569457fe5b906000526020600020906004020160030160006101000a81548160ff021916908360ff1602179055505b5050505050505050505050505050565b600080828402905060008414806156ef57508284828115156156ec57fe5b04145b15156156fa57600080fd5b8091505092915050565b60008060008311151561571657600080fd5b828481151561572157fe5b049050828481151561572f57fe5b06818402018414151561574157600080fd5b8091505092915050565b80602060008573ffffffffffffffffffffffffffffffffffffffff1673ffffffffffffffffffffffffffffffffffffffff16815260200190815260200160002060008473ffffffffffffffffffffffffffffffffffffffff1673ffffffffffffffffffffffffffffffffffffffff16815260200190815260200160002060008282540192505081905550505050565b80602160008573ffffffffffffffffffffffffffffffffffffffff1673ffffffffffffffffffffffffffffffffffffffff16815260200190815260200160002060008473ffffffffffffffffffffffffffffffffffffffff1673ffffffffffffffffffffffffffffffffffffffff168152602001908152602001600020600082825401925050819055505050505600a165627a7a7230582087b16ed42059d9a86b29d9318649aaaf2d51da081bb6c83a6c23227a4b1f92090029",
  "source": "pragma solidity ^0.4.23;\n/*\n *             ╔═╗┌─┐┌─┐┬┌─┐┬┌─┐┬   ┌─────────────────────────┐ ╦ ╦┌─┐┌┐ ╔═╗┬┌┬┐┌─┐\n *             ║ ║├┤ ├┤ ││  │├─┤│   │ KOL Community Foundation│ │ ║║║├┤ ├┴┐╚═╗│ │ ├┤\n *             ╚═╝└  └  ┴└─┘┴┴ ┴┴─┘ └─┬─────────────────────┬─┘ ╚╩╝└─┘└─┘╚═╝┴ ┴ └─┘\n *   ┌────────────────────────────────┘                     └──────────────────────────────┐\n *   │    ┌─────────────────────────────────────────────────────────────────────────────┐  │\n *   └────┤ Dev:Jack Koe ├─────────────┤ Special for: KOL  ├───────────────┤ 20200422   ├──┘\n *        └─────────────────────────────────────────────────────────────────────────────┘\n */\n\n library SafeMath {\n   function mul(uint a, uint b) internal pure  returns (uint) {\n     uint c = a * b;\n     require(a == 0 || c / a == b);\n     return c;\n   }\n   function div(uint a, uint b) internal pure returns (uint) {\n     require(b > 0);\n     uint c = a / b;\n     require(a == b * c + a % b);\n     return c;\n   }\n   function sub(uint a, uint b) internal pure returns (uint) {\n     require(b <= a);\n     return a - b;\n   }\n   function add(uint a, uint b) internal pure returns (uint) {\n     uint c = a + b;\n     require(c >= a);\n     return c;\n   }\n   function max64(uint64 a, uint64 b) internal  pure returns (uint64) {\n     return a >= b ? a : b;\n   }\n   function min64(uint64 a, uint64 b) internal  pure returns (uint64) {\n     return a < b ? a : b;\n   }\n   function max256(uint256 a, uint256 b) internal  pure returns (uint256) {\n     return a >= b ? a : b;\n   }\n   function min256(uint256 a, uint256 b) internal  pure returns (uint256) {\n     return a < b ? a : b;\n   }\n }\n\n /**\n  * title KOL Promotion contract\n  * dev visit: https://github.com/jackoelv/KOL/\n */\n\n contract ERC20Basic {\n   uint public totalSupply;\n   function balanceOf(address who) public constant returns (uint);\n   function transfer(address to, uint value) public;\n   event Transfer(address indexed from, address indexed to, uint value);\n }\n\n contract ERC20 is ERC20Basic {\n   function allowance(address owner, address spender) public constant returns (uint);\n   function transferFrom(address from, address to, uint value) public;\n   function approve(address spender, uint value) public;\n   event Approval(address indexed owner, address indexed spender, uint value);\n }\n\n /**\n  * title KOL Promotion contract\n  * dev visit: https://github.com/jackoelv/KOL/\n */\n\n contract BasicToken is ERC20Basic {\n\n   using SafeMath for uint;\n\n   mapping(address => uint) balances;\n\n   function transfer(address _to, uint _value) public{\n     balances[msg.sender] = balances[msg.sender].sub(_value);\n     balances[_to] = balances[_to].add(_value);\n     emit Transfer(msg.sender, _to, _value);\n   }\n\n   function balanceOf(address _owner) public constant returns (uint balance) {\n     return balances[_owner];\n   }\n }\n\n /**\n  * title KOL Promotion contract\n  * dev visit: https://github.com/jackoelv/KOL/\n */\n\n contract StandardToken is BasicToken, ERC20 {\n   mapping (address => mapping (address => uint)) allowed;\n   uint256 public userSupplyed;\n\n   function transferFrom(address _from, address _to, uint _value) public {\n     balances[_to] = balances[_to].add(_value);\n     balances[_from] = balances[_from].sub(_value);\n     allowed[_from][msg.sender] = allowed[_from][msg.sender].sub(_value);\n     emit Transfer(_from, _to, _value);\n   }\n\n   function approve(address _spender, uint _value) public{\n     require((_value == 0) || (allowed[msg.sender][_spender] == 0)) ;\n     allowed[msg.sender][_spender] = _value;\n     emit Approval(msg.sender, _spender, _value);\n   }\n\n   function allowance(address _owner, address _spender) public constant returns (uint remaining) {\n     return allowed[_owner][_spender];\n   }\n }\n contract KOL is StandardToken {\n   function queryNode(address _addr) public view returns(bool);\n   function querySuperNode(address _addr) public view returns(bool);\n }\n\n /**\n  * title KOL Promotion contract\n  * dev visit: https://github.com/jackoelv/KOL/\n */\n\n contract Ownable {\n     address public owner;\n\n     constructor() public{\n         owner = msg.sender;\n     }\n\n     modifier onlyOwner {\n         require(msg.sender == owner);\n         _;\n     }\n     function transferOwnership(address newOwner) onlyOwner public{\n         if (newOwner != address(0)) {\n             owner = newOwner;\n         }\n     }\n }\n /**\n  * title KOL Promotion contract\n  * dev visit: https://github.com/jackoelv/KOL/\n */\n //测试说明，把一天改成1分钟。提现限制为5分钟。\ncontract KOLPro is Ownable{\n  using SafeMath for uint256;\n  string public name = \"KOL Promotion\";\n  KOL public kol;\n  address public reciever;\n\n  uint256 public begin;//2020年4月22日0点0分0秒\n  uint256 public end;\n\n  uint256 public iCode;\n  uint256 public every = 10 seconds;//1 days;\n  uint256 public maxSettleDays = 1;\n  uint256 public totalRegister;\n  uint256 public totalBalance;\n  uint256 public totalBonus;\n\n\n\n  uint8 public constant userLevel1 = 20;\n  uint8 public constant userLevel2 = 10;\n  uint8 public maxlevel = 9;\n\n  /* uint16 public constant comLevel1Users = 100;\n  uint16 public constant comLevel2Users = 300;\n  uint16 public constant comLevel3Users = 500; */\n\n  //测试的时候就把数字变小一点。\n  uint16 public constant comLevel1Users = 2;\n  uint16 public constant comLevel2Users = 3;\n  uint16 public constant comLevel3Users = 4;\n\n  uint256 public constant comLevel1Amount = 10000 * (10 ** 18);\n  uint256 public constant comLevel2Amount = 30000 * (10 ** 18);\n  uint256 public constant comLevel3Amount = 50000 * (10 ** 18);\n\n  uint8 public constant comLevel1 = 3;\n  uint8 public constant comLevel2 = 5;\n  uint8 public constant comLevel3 = 10;\n  uint8 public constant inviteLevel1 = 3;//直推3个才能升级网体1\n  uint8 public constant inviteLevel2 = 5;\n  uint8 public constant inviteLevel3 = 10;\n  uint8 public constant withDrawRate = 5;\n  uint8 public constant fee = 5;\n\n  /* uint256 public constant withDrawDays = 30 days; */\n  //测试限制5分钟\n  uint256 public constant withDrawDays = 2 minutes;\n\n  /* address[] private inviteAddr;// A->B->C: inviteAddr= B,A\n  address[] private childAddr;// A-->B,A-->C,childAddr= B, C */\n\n\n\n  struct lock{\n    uint256 begin;\n    uint256 amount;\n    uint256 end;\n    bool withDrawed;\n  }\n\n  struct teamRate{\n    uint8 rate;\n    uint256 changeTime;\n\n  }\n\n  struct inviteBonus{\n    uint256 begin;//网体开始时间\n    uint256 dayBonus;//网体当日加速\n    uint256 hisTotalBonus;\n  }\n  struct withDraws{\n    uint256 time;\n    uint256 amount;\n  }\n  struct dayTeamBonus{\n    uint256 theDayLastSecond;\n    uint256 theDayTeamBonus;\n    uint256 totalTeamBonus;\n    uint8 theDayRate;\n  }\n  struct dayInviteBonus{\n    uint256 theDayLastSecond;\n    uint256 theDayInviteBonus;\n    uint256 totalInviteBonus;\n  }\n\n\n\n  mapping (address => dayTeamBonus[]) public LockTeamBonus;\n  mapping (address => dayInviteBonus[]) public LockInviteBonus;\n\n\n  mapping (address => address[]) public InviteList;\n  mapping (address => address[]) public ChildAddrs;\n  mapping (address => teamRate[]) public TeamRateList;\n  mapping (address => lock[]) public LockHistory;\n  mapping (address => uint256) public LockBalance;\n\n  mapping (address => uint256) public InviteHistoryBonus;\n  mapping (address => uint256) public InviteCurrentDayBonus;\n\n  mapping (address => address) public InviteRelation;//A=>B B is father;\n  mapping (uint256 => uint256) public ClosePrice;//需要给个默认值，而且还允许修改，否则忘记就很麻烦了。\n  mapping (address => uint256) public TotalUsers;\n  mapping (address => uint256) public TotalLockingAmount;\n  mapping (uint256 => address) public InviteCode;\n  mapping (address => uint256) public RInviteCode;\n\n  mapping (address => uint8) public isLevelN;\n  mapping (uint8 => uint8) public levelRate;\n  mapping (address => bool) public USDTOrCoin;\n\n  mapping (address => uint256) public WithDraws;\n  mapping (address => mapping (address => uint256) ) public ABTeamBonus;//A是下级，B是上级，ABBonus就是A给B加速的总数。\n  mapping (address => mapping (address => uint256) ) public ABInviteBonus;//A是下级，B是上级，ABBonus就是A给B加速的总数。\n\n  //GAS优化\n\n  event Registed(address _user,uint256 inviteCode);\n  event GradeChanged(address _user,uint8 _oldLevel,uint8 _newLevel);\n  event WithDraw(address _user,uint256 _amount);\n  event WithDrawBalance(address _user,uint256 _balance);\n\n\n  constructor(address _tokenAddress,address _reciever,uint256 _begin,uint256 _end) public {\n    kol = KOL(_tokenAddress);\n    begin = _begin;\n    begin = _begin;\n    end = _end;\n    reciever = _reciever;\n    InviteCode[0] = owner;\n    levelRate[0] = 0;\n    levelRate[1] = comLevel1;\n    levelRate[2] = comLevel2;\n    levelRate[3] = comLevel3;\n  }\n\n  function register(uint256 _fInviteCode) public {\n    require(now <= end);\n    require(RInviteCode[msg.sender] == 0);\n    uint256 random = uint256(keccak256(now, msg.sender)) % 100;\n    uint256 _myInviteCode = iCode.add(random);\n    iCode = iCode.add(random);\n\n    require(InviteCode[_myInviteCode] == address(0));\n    require(InviteCode[_fInviteCode] != address(0));\n    InviteCode[_myInviteCode] = msg.sender;\n    RInviteCode[msg.sender] = _myInviteCode;\n    emit Registed(msg.sender,iCode);\n    totalRegister ++;\n    address father = InviteCode[_fInviteCode];\n    InviteRelation[msg.sender] = father;\n\n    ChildAddrs[father].push(msg.sender);\n    if (InviteList[msg.sender].length < 9){\n      InviteList[msg.sender].push(father);\n    }\n    for (uint i = 0 ; i < InviteList[father].length; i++){\n      if (InviteList[msg.sender].length < 9){\n        InviteList[msg.sender].push(InviteList[father][i]);\n      }else{\n        break;\n      }\n\n    }\n\n  }\n  /**\n   * title 转入KOL进行持仓生息\n   * _usdtOrCoin, true:金本位; false:币本位\n   * dev visit: https://github.com/jackoelv/KOL/\n  */\n  function join(uint256 _amount,bool _usdtOrCoin) public {\n    require(now <= end);\n    if (LockBalance[msg.sender] == 0) USDTOrCoin[msg.sender] = _usdtOrCoin;\n    kol.transferFrom(msg.sender,address(this),_amount);\n    LockHistory[msg.sender].push(lock(now,_amount,0,false));\n    uint256 oldBalance = LockBalance[msg.sender];\n    LockBalance[msg.sender] = LockBalance[msg.sender].add(_amount);\n    totalBalance = totalBalance.add(_amount);\n\n    uint256 amount;\n\n    for (uint i = 0; i<InviteList[msg.sender].length; i++){\n      if (i == maxlevel) break;\n      if (LockHistory[msg.sender].length == 1){\n        //给上面的人数+1\n        TotalUsers[InviteList[msg.sender][i]] += 1;\n      }else{\n        if (oldBalance == 0) TotalUsers[InviteList[msg.sender][i]] += 1;\n      }\n      //给上面的加入团队总金额\n\n      TotalLockingAmount[InviteList[msg.sender][i]] = TotalLockingAmount[InviteList[msg.sender][i]].add(_amount);\n      queryAndSetLevelN(InviteList[msg.sender][i]);\n\n      amount = calcuDiffAmount(msg.sender,InviteList[msg.sender][i],_amount);\n\n\n      if (i<2){\n        if (LockInviteBonus[InviteList[msg.sender][i]].length == 0){\n          initInviteBonus(msg.sender,InviteList[msg.sender][i],amount,i);\n        }else{\n          setTopInviteBonus(msg.sender,InviteList[msg.sender][i],_amount,i);\n        }\n      }\n\n      if (i < maxlevel){\n        if (LockTeamBonus[InviteList[msg.sender][i]].length == 0){\n          initTeamBonus(msg.sender,InviteList[msg.sender][i],amount);\n        }else{\n          setTopTeamBonus(msg.sender,InviteList[msg.sender][i],_amount);\n        }\n      }\n\n\n\n\n    }\n  }\n  function calcuDiffAmount(address _selfAddr,address _topAddr,uint256 _amount) internal view returns(uint256){\n    //计算网体收益加速额。\n    uint256 topDayLockBalance = queryLockBalance(_topAddr,now);\n    uint256 selfDayLockBalance = queryLockBalance(_selfAddr,now);\n    uint256 minAmount;\n    if (topDayLockBalance >= selfDayLockBalance){\n      minAmount = _amount;\n    }else{\n      uint256 diff = selfDayLockBalance - topDayLockBalance;\n      if (diff >= _amount){\n        minAmount = 0;//完全烧伤\n        return;\n      }\n      else{\n        minAmount = diff;//部分烧伤\n      }\n    }\n    return minAmount.mul(3).div(1000);\n  }\n  function initTeamBonus(address _selfAddr,address _topAddr,uint256 _minAmount) internal {\n    uint256 tomorrowLastSecond = getYestodayLastSecond(now) + 2 * every;\n    uint8 newRate = levelRate[isLevelN[_topAddr]];\n    setTeamBonus(_selfAddr,_topAddr,_minAmount);\n    LockTeamBonus[_topAddr].push(dayTeamBonus(tomorrowLastSecond,\n                                          _minAmount,\n                                          _minAmount * newRate / 100,\n                                          newRate));\n  }\n  function initInviteBonus(address _selfAddr,address _topAddr,uint256 _minAmount,uint256 _index) internal {\n    uint8 inviteRate;\n    if (_index == 0){\n      inviteRate = userLevel1;\n    }else if(_index ==1){\n      inviteRate = userLevel2;\n    }else{\n      return;\n    }\n\n    uint256 tomorrowLastSecond = getYestodayLastSecond(now) + 2 * every;\n\n    setTeamBonus(_selfAddr,_topAddr,_minAmount);\n    LockInviteBonus[_topAddr].push(dayInviteBonus(tomorrowLastSecond,\n                                          _minAmount * inviteRate/100,\n                                          _minAmount * inviteRate/100));\n\n\n\n  }\n  function setTopTeamBonus(address _selfAddr,address _topAddr,uint256 _minAmount) internal {\n    uint256 tomorrowLastSecond = getYestodayLastSecond(now) + 2 * every;\n    uint256 last = LockTeamBonus[_topAddr].length -1;\n\n    uint256 lastDayLastSecond = LockTeamBonus[_topAddr][last].theDayLastSecond;\n    uint256 lastDayTeamBonus = LockTeamBonus[_topAddr][last].theDayTeamBonus;\n    uint256 lastDayTeamTotalBonus = LockTeamBonus[_topAddr][last].totalTeamBonus;\n    uint8 lastDayRate = LockTeamBonus[_topAddr][last].theDayRate;\n\n    uint256 lastingDays = (tomorrowLastSecond - lastDayLastSecond) % every;\n\n    uint8 level = isLevelN[_topAddr];\n    uint8 newRate = levelRate[level];\n    uint256 newDayTeamBonus = _minAmount + lastDayTeamBonus;\n    setTeamBonus(_selfAddr,_topAddr,_minAmount);\n    uint256 newDayTeamTotalBonus = (lastingDays * lastDayTeamBonus * lastDayRate/100) + _minAmount * newRate / 100 + lastDayTeamTotalBonus;\n      //必然就都是明天。\n    if(lastDayLastSecond < tomorrowLastSecond){\n      LockTeamBonus[_topAddr].push(dayTeamBonus(tomorrowLastSecond,\n                                            newDayTeamBonus,\n                                            newDayTeamTotalBonus,\n                                            newRate));\n    }else{\n      LockTeamBonus[_topAddr][last].theDayTeamBonus = newDayTeamBonus;\n      LockTeamBonus[_topAddr][last].totalTeamBonus = newDayTeamTotalBonus;\n      LockTeamBonus[_topAddr][last].theDayRate = newRate;\n    }\n\n  }\n  function setTopInviteBonus(address _selfAddr,address _topAddr,uint256 _minAmount,uint256 _index) internal {\n    uint8 inviteRate;\n    if (_index == 0){\n      inviteRate = userLevel1;\n    }else if(_index ==1){\n      inviteRate = userLevel2;\n    }else{\n      return;\n    }\n    uint256 tomorrowLastSecond = getYestodayLastSecond(now) + 2 * every;\n    uint256 last = LockInviteBonus[_topAddr].length -1;\n\n    uint256 lastDayLastSecond = LockInviteBonus[_topAddr][last].theDayLastSecond;\n    uint256 lastDayInviteBonus = LockInviteBonus[_topAddr][last].theDayInviteBonus;\n    uint256 lastDayInviteTotalBonus = LockInviteBonus[_topAddr][last].totalInviteBonus;\n\n    uint256 lastingDays = (tomorrowLastSecond - lastDayLastSecond) % every;\n    uint256 newDayInviteBonus = _minAmount* inviteRate / 100 + lastDayInviteBonus;\n    setInviteBonus(_selfAddr,_topAddr,_minAmount);\n    uint256 newDayInviteTotalBonus = (lastingDays * lastDayInviteBonus * inviteRate / 100) + _minAmount * inviteRate /100 + lastDayInviteTotalBonus;\n      //必然就都是明天。\n    if(lastDayLastSecond < tomorrowLastSecond){\n      LockInviteBonus[_topAddr].push(dayInviteBonus(tomorrowLastSecond,\n                                            newDayInviteBonus,\n                                            newDayInviteTotalBonus));\n    }else{\n      LockInviteBonus[_topAddr][last].theDayInviteBonus = newDayInviteBonus;\n      LockInviteBonus[_topAddr][last].totalInviteBonus = newDayInviteTotalBonus;\n    }\n\n  }\n  function setTeamBonus(address _selfAddr,address _topAddr,uint256 _amount) internal {\n    ABTeamBonus[_selfAddr][_topAddr] += _amount;\n  }\n  function setInviteBonus(address _selfAddr,address _topAddr,uint256 _amount) internal {\n    ABInviteBonus[_selfAddr][_topAddr] += _amount;\n  }\n  /**\n   * title 查询并设置用户的身份级别\n   * dev visit: https://github.com/jackoelv/KOL/\n  */\n  function queryAndSetLevelN(address _addr) public{\n    if ((TotalUsers[_addr] >= comLevel3Users) &&\n              (TotalLockingAmount[_addr] >= comLevel3Amount) &&\n              ChildAddrs[_addr].length>=inviteLevel3){\n      if (isLevelN[_addr]!=3){\n        emit GradeChanged(_addr,isLevelN[_addr],3);\n        isLevelN[_addr] = 3;\n        TeamRateList[_addr].push(teamRate(3,now));\n      }\n    }else if((TotalUsers[_addr] >= comLevel2Users) &&\n              (TotalLockingAmount[_addr] >= comLevel2Amount) &&\n              ChildAddrs[_addr].length>=inviteLevel2){\n      if (isLevelN[_addr]!=2){\n        emit GradeChanged(_addr,isLevelN[_addr],2);\n        isLevelN[_addr] = 2;\n        TeamRateList[_addr].push(teamRate(2,now));\n      }\n    }else if((TotalUsers[_addr] >= comLevel1Users) &&\n              (TotalLockingAmount[_addr] >= comLevel1Amount) &&\n              ChildAddrs[_addr].length>=inviteLevel1){\n      if (isLevelN[_addr]!=1){\n        emit GradeChanged(_addr,isLevelN[_addr],1);\n        isLevelN[_addr] = 1;\n        TeamRateList[_addr].push(teamRate(1,now));\n      }\n    }else{\n      if (isLevelN[_addr]!=0){\n        emit GradeChanged(_addr,isLevelN[_addr],0);\n        isLevelN[_addr] = 0;\n        TeamRateList[_addr].push(teamRate(0,now));\n      }\n    }\n  }\n  /**\n   * title 查询指定时间用户的有效锁仓余额\n   * dev visit: https://github.com/jackoelv/KOL/\n  */\n  function queryLockBalance(address _addr,uint256 _queryTime) public view returns(uint256) {\n    require(_queryTime <= end);\n    uint256 dayLockBalance;\n    for (uint j = 0; j<LockHistory[_addr].length; j++){\n      if (LockHistory[_addr][j].withDrawed){\n        //如果是已经提现的资金，那就要求计算日期是在起止时间内的。\n        if ((_queryTime >= LockHistory[_addr][j].begin) && (_queryTime <= LockHistory[_addr][j].end)){\n            dayLockBalance += LockHistory[_addr][j].amount;\n        }\n      }else{\n        if (_queryTime >= LockHistory[_addr][j].begin ){\n          //这个就要计入到当天的收益\n          dayLockBalance += LockHistory[_addr][j].amount;\n        }\n      }\n    }\n    return dayLockBalance;\n  }\n\n  /**\n   * title 根据给定时间计算出昨天的最后一秒\n   * dev visit: https://github.com/jackoelv/KOL/\n  */\n  function getYestodayLastSecond(uint256 _queryTime) public view returns(uint256){\n    //录入的价格为4位小数\n    /* return (_queryTime.sub(_queryTime.sub(begin) % 86400) - 1); */\n    //测试 上一分钟的最后一秒\n    require(_queryTime <= (end + every));\n    return (_queryTime.sub(_queryTime.sub(begin) % every) - 1);\n  }\n  /**\n   * title 获得自己的邀请码\n   * dev visit: https://github.com/jackoelv/KOL/\n  */\n  function getCode() public view returns(uint256) {\n    return (RInviteCode[msg.sender]);\n  }\n  /**\n   * title 查询自己的直推下级\n   * dev visit: https://github.com/jackoelv/KOL/\n  */\n  function getTeam() public view returns(address[]) {\n    return (ChildAddrs[msg.sender]);\n  }\n  function getFathers() public view returns(address[]) {\n    return (InviteList[msg.sender]);\n  }\n  /**\n   * title 查询自己的网体人数\n   * dev visit: https://github.com/jackoelv/KOL/\n  */\n  function getTeamTotalUsers() public view returns(uint256) {\n    return (TotalUsers[msg.sender]);\n  }\n  /**\n   * title 查询自己的网体金额\n   * dev visit: https://github.com/jackoelv/KOL/\n  */\n  function getTeamTotalAmount() public view returns(uint256) {\n    return (TotalLockingAmount[msg.sender]);\n  }\n  /**\n   * title 查询自己的锁仓历史\n   * dev visit: https://github.com/jackoelv/KOL/\n  */\n  function getLockHistory(uint _index) public view returns(uint256,uint256,uint256,bool,uint256) {\n    require( (_index<(LockHistory[msg.sender].length)) && (_index>=0) );\n    return(LockHistory[msg.sender][_index].begin,\n                LockHistory[msg.sender][_index].end,\n                LockHistory[msg.sender][_index].amount,\n                LockHistory[msg.sender][_index].withDrawed,\n                LockHistory[msg.sender].length);\n  }\n\n  /**\n   * title 查询自己过去每日的收益汇总。\n   * dev visit: https://github.com/jackoelv/KOL/\n  */\n  function getHistoryTeamBonus(address _addr,uint256 _index) public view returns(uint256,uint256,uint256,uint256,uint256){\n    //返回查询昨天的收益。\n    if (LockTeamBonus[_addr].length > _index){\n      return (LockTeamBonus[_addr][_index].theDayLastSecond,\n              LockTeamBonus[_addr][_index].theDayTeamBonus,\n              LockTeamBonus[_addr][_index].totalTeamBonus,\n              LockTeamBonus[_addr][_index].theDayRate,\n              LockTeamBonus[_addr].length);\n    }else{\n      return(0,0,0,0,0);\n    }\n  }\n  function getHistoryInviteBonus(address _addr,uint256 _index) public view returns(uint256,uint256,uint256,uint256){\n    //返回查询昨天的收益。\n    if (LockInviteBonus[_addr].length > _index){\n      return (LockInviteBonus[_addr][_index].theDayLastSecond,\n              LockInviteBonus[_addr][_index].theDayInviteBonus,\n              LockInviteBonus[_addr][_index].totalInviteBonus,\n              LockInviteBonus[_addr].length);\n    }else{\n      return(0,0,0,0);\n    }\n  }\n\n  /**\n   * title 查询某个特定时间用户的等级\n   * dev visit: https://github.com/jackoelv/KOL/\n  */\n  function getTeamRateList(address _addr,uint256 _index) public view returns(uint256,uint256,uint256){\n    require(_index < TeamRateList[msg.sender].length);\n    return(TeamRateList[msg.sender][_index].rate,\n          TeamRateList[msg.sender][_index].changeTime,\n          TeamRateList[msg.sender].length);\n  }\n  /**\n   * title 录入KOL的收盘价\n   * dev visit: https://github.com/jackoelv/KOL/\n  */\n  function putClosePrice(uint256 price,uint256 _queryTime) onlyOwner public{\n    //录入的价格为4位小数\n    require(_queryTime <= end);\n    uint256 yestodayLastSecond = getYestodayLastSecond(_queryTime);\n    ClosePrice[yestodayLastSecond] = price;\n\n  }\n  function setReciever(address _addr) onlyOwner public{\n    reciever = _addr;\n  }\n\n}\n",
  "sourcePath": "/Users/jack/git/github/KOL/contracts/KOLPromotion.sol",
  "compiler": {
    "name": "solc",
    "version": "0.4.23+commit.124ca40d.Emscripten.clang"
  },
  "schemaVersion": "3.0.19",
  "updatedAt": "2020-05-02T08:03:38.665Z",
  "networkType": "ethereum",
  "devdoc": {
    "methods": {}
  },
  "userdoc": {
    "methods": {
      "getCode()": {
        "notice": "title 获得自己的邀请码 dev visit: https://github.com/jackoelv/KOL/"
      },
      "getHistoryTeamBonus(address,uint256)": {
        "notice": "title 查询自己过去每日的收益汇总。 dev visit: https://github.com/jackoelv/KOL/"
      },
      "getLockHistory(uint256)": {
        "notice": "title 查询自己的锁仓历史 dev visit: https://github.com/jackoelv/KOL/"
      },
      "getTeam()": {
        "notice": "title 查询自己的直推下级 dev visit: https://github.com/jackoelv/KOL/"
      },
      "getTeamRateList(address,uint256)": {
        "notice": "title 查询某个特定时间用户的等级 dev visit: https://github.com/jackoelv/KOL/"
      },
      "getTeamTotalAmount()": {
        "notice": "title 查询自己的网体金额 dev visit: https://github.com/jackoelv/KOL/"
      },
      "getTeamTotalUsers()": {
        "notice": "title 查询自己的网体人数 dev visit: https://github.com/jackoelv/KOL/"
      },
      "getYestodayLastSecond(uint256)": {
        "notice": "title 根据给定时间计算出昨天的最后一秒 dev visit: https://github.com/jackoelv/KOL/"
      },
      "join(uint256,bool)": {
        "notice": "title 转入KOL进行持仓生息 _usdtOrCoin, true:金本位; false:币本位 dev visit: https://github.com/jackoelv/KOL/"
      },
      "putClosePrice(uint256,uint256)": {
        "notice": "title 录入KOL的收盘价 dev visit: https://github.com/jackoelv/KOL/"
      },
      "queryAndSetLevelN(address)": {
        "notice": "title 查询并设置用户的身份级别 dev visit: https://github.com/jackoelv/KOL/"
      },
      "queryLockBalance(address,uint256)": {
        "notice": "title 查询指定时间用户的有效锁仓余额 dev visit: https://github.com/jackoelv/KOL/"
      }
    }
  }
}