{
  "contractName": "KOLPub",
  "abi": [
    {
      "constant": true,
      "inputs": [],
      "name": "name",
      "outputs": [
        {
          "name": "",
          "type": "string"
        }
      ],
      "payable": false,
      "stateMutability": "view",
      "type": "function"
    },
    {
      "constant": true,
      "inputs": [],
      "name": "minSuperNodes",
      "outputs": [
        {
          "name": "",
          "type": "uint16"
        }
      ],
      "payable": false,
      "stateMutability": "view",
      "type": "function"
    },
    {
      "constant": true,
      "inputs": [],
      "name": "halfSuperNodes",
      "outputs": [
        {
          "name": "",
          "type": "uint16"
        }
      ],
      "payable": false,
      "stateMutability": "view",
      "type": "function"
    },
    {
      "constant": true,
      "inputs": [],
      "name": "owner",
      "outputs": [
        {
          "name": "",
          "type": "address"
        }
      ],
      "payable": false,
      "stateMutability": "view",
      "type": "function"
    },
    {
      "constant": true,
      "inputs": [],
      "name": "symbol",
      "outputs": [
        {
          "name": "",
          "type": "string"
        }
      ],
      "payable": false,
      "stateMutability": "view",
      "type": "function"
    },
    {
      "constant": true,
      "inputs": [],
      "name": "missionId",
      "outputs": [
        {
          "name": "",
          "type": "uint256"
        }
      ],
      "payable": false,
      "stateMutability": "view",
      "type": "function"
    },
    {
      "constant": true,
      "inputs": [],
      "name": "dealTime",
      "outputs": [
        {
          "name": "",
          "type": "uint256"
        }
      ],
      "payable": false,
      "stateMutability": "view",
      "type": "function"
    },
    {
      "constant": true,
      "inputs": [],
      "name": "TEN",
      "outputs": [
        {
          "name": "",
          "type": "uint256"
        }
      ],
      "payable": false,
      "stateMutability": "view",
      "type": "function"
    },
    {
      "constant": true,
      "inputs": [],
      "name": "token",
      "outputs": [
        {
          "name": "",
          "type": "address"
        }
      ],
      "payable": false,
      "stateMutability": "view",
      "type": "function"
    },
    {
      "inputs": [
        {
          "name": "_tokenAddress",
          "type": "address"
        }
      ],
      "payable": false,
      "stateMutability": "nonpayable",
      "type": "constructor"
    },
    {
      "anonymous": false,
      "inputs": [
        {
          "indexed": false,
          "name": "_missionId",
          "type": "uint256"
        },
        {
          "indexed": false,
          "name": "_name",
          "type": "bytes32"
        }
      ],
      "name": "MissionPassed",
      "type": "event"
    },
    {
      "anonymous": false,
      "inputs": [
        {
          "indexed": false,
          "name": "_missionId",
          "type": "uint256"
        },
        {
          "indexed": false,
          "name": "_totalAmount",
          "type": "uint256"
        },
        {
          "indexed": false,
          "name": "_length",
          "type": "uint256"
        }
      ],
      "name": "OfferingFinished",
      "type": "event"
    },
    {
      "anonymous": false,
      "inputs": [
        {
          "indexed": false,
          "name": "_name",
          "type": "bytes32"
        },
        {
          "indexed": false,
          "name": "_missionId",
          "type": "uint256"
        },
        {
          "indexed": false,
          "name": "_whoLaunch",
          "type": "address"
        }
      ],
      "name": "MissionLaunched",
      "type": "event"
    },
    {
      "anonymous": false,
      "inputs": [
        {
          "indexed": true,
          "name": "previousOwner",
          "type": "address"
        },
        {
          "indexed": true,
          "name": "newOwner",
          "type": "address"
        }
      ],
      "name": "OwnershipTransferred",
      "type": "event"
    },
    {
      "constant": false,
      "inputs": [
        {
          "name": "_name",
          "type": "bytes32"
        },
        {
          "name": "_totalAmount",
          "type": "uint256"
        }
      ],
      "name": "createKolMission",
      "outputs": [],
      "payable": false,
      "stateMutability": "nonpayable",
      "type": "function"
    },
    {
      "constant": false,
      "inputs": [
        {
          "name": "_missionId",
          "type": "uint256"
        },
        {
          "name": "_agree",
          "type": "bool"
        }
      ],
      "name": "voteMission",
      "outputs": [],
      "payable": false,
      "stateMutability": "nonpayable",
      "type": "function"
    },
    {
      "constant": false,
      "inputs": [
        {
          "name": "_missionId",
          "type": "uint256"
        },
        {
          "name": "_target",
          "type": "address"
        },
        {
          "name": "_targetAmount",
          "type": "uint256"
        }
      ],
      "name": "addKolOffering",
      "outputs": [],
      "payable": false,
      "stateMutability": "nonpayable",
      "type": "function"
    },
    {
      "constant": false,
      "inputs": [
        {
          "name": "_missionId",
          "type": "uint256"
        }
      ],
      "name": "excuteVote",
      "outputs": [],
      "payable": false,
      "stateMutability": "nonpayable",
      "type": "function"
    },
    {
      "constant": true,
      "inputs": [
        {
          "name": "_missionId",
          "type": "uint256"
        }
      ],
      "name": "getMission1",
      "outputs": [
        {
          "name": "",
          "type": "uint256"
        },
        {
          "name": "",
          "type": "uint256"
        },
        {
          "name": "",
          "type": "uint256"
        },
        {
          "name": "",
          "type": "uint256"
        },
        {
          "name": "",
          "type": "bytes32"
        }
      ],
      "payable": false,
      "stateMutability": "view",
      "type": "function"
    },
    {
      "constant": true,
      "inputs": [
        {
          "name": "_missionId",
          "type": "uint256"
        }
      ],
      "name": "getMission2",
      "outputs": [
        {
          "name": "",
          "type": "uint16"
        },
        {
          "name": "",
          "type": "uint16"
        },
        {
          "name": "",
          "type": "bool"
        },
        {
          "name": "",
          "type": "bool"
        }
      ],
      "payable": false,
      "stateMutability": "view",
      "type": "function"
    },
    {
      "constant": true,
      "inputs": [
        {
          "name": "_missionId",
          "type": "uint256"
        },
        {
          "name": "_id",
          "type": "uint256"
        }
      ],
      "name": "getOfferings",
      "outputs": [
        {
          "name": "",
          "type": "address"
        },
        {
          "name": "",
          "type": "uint256"
        },
        {
          "name": "",
          "type": "uint256"
        }
      ],
      "payable": false,
      "stateMutability": "view",
      "type": "function"
    },
    {
      "constant": true,
      "inputs": [
        {
          "name": "_node",
          "type": "address"
        },
        {
          "name": "_missionId",
          "type": "uint256"
        }
      ],
      "name": "voted",
      "outputs": [
        {
          "name": "",
          "type": "bool"
        }
      ],
      "payable": false,
      "stateMutability": "view",
      "type": "function"
    }
  ],
  "bytecode": "0x60806040526040805190810160405280601281526020017f4b4f4c2050756220466f756e646174696f6e0000000000000000000000000000815250600190805190602001906200005192919062000165565b506040805190810160405280600681526020017f4b4f4c5075620000000000000000000000000000000000000000000000000000815250600290805190602001906200009f92919062000165565b506203f4806004556000600555348015620000b957600080fd5b5060405160208062001cd883398101806040528101908080519060200190929190505050336000806101000a81548173ffffffffffffffffffffffffffffffffffffffff021916908373ffffffffffffffffffffffffffffffffffffffff16021790555080600360006101000a81548173ffffffffffffffffffffffffffffffffffffffff021916908373ffffffffffffffffffffffffffffffffffffffff1602179055505062000214565b828054600181600116156101000203166002900490600052602060002090601f016020900481019282601f10620001a857805160ff1916838001178555620001d9565b82800160010185558215620001d9579182015b82811115620001d8578251825591602001919060010190620001bb565b5b509050620001e89190620001ec565b5090565b6200021191905b808211156200020d576000816000905550600101620001f3565b5090565b90565b611ab480620002246000396000f3006080604052600436106100f1576000357c0100000000000000000000000000000000000000000000000000000000900463ffffffff16806301424b2c146100f657806306fdde03146101235780631ff3c3c5146101b35780633c10edaa146101ee5780635797654d146102275780635883f0321461025a5780636bfa24ea146102df5780637291437c146103125780638da5cb5b1461036957806395d89b41146103c0578063af26b76214610450578063bbc1a3001461047b578063c446b6de146104e9578063c591aa9814610514578063d23db1cd14610579578063ee2f3a05146105de578063fc0c546a14610609575b600080fd5b34801561010257600080fd5b5061012160048036038101908080359060200190929190505050610660565b005b34801561012f57600080fd5b506101386109d7565b6040518080602001828103825283818151815260200191508051906020019080838360005b8381101561017857808201518184015260208101905061015d565b50505050905090810190601f1680156101a55780820380516001836020036101000a031916815260200191505b509250505060405180910390f35b3480156101bf57600080fd5b506101ec600480360381019080803560001916906020019092919080359060200190929190505050610a75565b005b3480156101fa57600080fd5b5061022560048036038101908080359060200190929190803515159060200190929190505050610d45565b005b34801561023357600080fd5b5061023c61122e565b604051808261ffff1661ffff16815260200191505060405180910390f35b34801561026657600080fd5b5061028f6004803603810190808035906020019092919080359060200190929190505050611233565b604051808473ffffffffffffffffffffffffffffffffffffffff1673ffffffffffffffffffffffffffffffffffffffff168152602001838152602001828152602001935050505060405180910390f35b3480156102eb57600080fd5b506102f46112e0565b604051808261ffff1661ffff16815260200191505060405180910390f35b34801561031e57600080fd5b5061036760048036038101908080359060200190929190803573ffffffffffffffffffffffffffffffffffffffff169060200190929190803590602001909291905050506112e5565b005b34801561037557600080fd5b5061037e61176c565b604051808273ffffffffffffffffffffffffffffffffffffffff1673ffffffffffffffffffffffffffffffffffffffff16815260200191505060405180910390f35b3480156103cc57600080fd5b506103d5611791565b6040518080602001828103825283818151815260200191508051906020019080838360005b838110156104155780820151818401526020810190506103fa565b50505050905090810190601f1680156104425780820380516001836020036101000a031916815260200191505b509250505060405180910390f35b34801561045c57600080fd5b5061046561182f565b6040518082815260200191505060405180910390f35b34801561048757600080fd5b506104a660048036038101908080359060200190929190505050611835565b604051808561ffff1661ffff1681526020018461ffff1661ffff168152602001831515151581526020018215151515815260200194505050505060405180910390f35b3480156104f557600080fd5b506104fe6118dc565b6040518082815260200191505060405180910390f35b34801561052057600080fd5b5061055f600480360381019080803573ffffffffffffffffffffffffffffffffffffffff169060200190929190803590602001909291905050506118e2565b604051808215151515815260200191505060405180910390f35b34801561058557600080fd5b506105a46004803603810190808035906020019092919050505061194a565b6040518086815260200185815260200184815260200183815260200182600019166000191681526020019550505050505060405180910390f35b3480156105ea57600080fd5b506105f36119d8565b6040518082815260200191505060405180910390f35b34801561061557600080fd5b5061061e6119e6565b604051808273ffffffffffffffffffffffffffffffffffffffff1673ffffffffffffffffffffffffffffffffffffffff16815260200191505060405180910390f35b60008060009054906101000a900473ffffffffffffffffffffffffffffffffffffffff1673ffffffffffffffffffffffffffffffffffffffff163373ffffffffffffffffffffffffffffffffffffffff161415156106bd57600080fd5b6007600083815260200190815260200160002060050160059054906101000a900460ff161515156106ed57600080fd5b6004546007600084815260200190815260200160002060010154014210151561071557600080fd5b6007600083815260200190815260200160002060050160049054906101000a900460ff16151561074457600080fd5b6007600083815260200190815260200160002060030154600760008481526020019081526020016000206002015414151561077e57600080fd5b600090505b600960008381526020019081526020016000208054905081101561093157600360009054906101000a900473ffffffffffffffffffffffffffffffffffffffff1673ffffffffffffffffffffffffffffffffffffffff1663a9059cbb60096000858152602001908152602001600020838154811015156107ff57fe5b906000526020600020906002020160000160009054906101000a900473ffffffffffffffffffffffffffffffffffffffff16600960008681526020019081526020016000208481548110151561085157fe5b9060005260206000209060020201600101546040518363ffffffff167c0100000000000000000000000000000000000000000000000000000000028152600401808373ffffffffffffffffffffffffffffffffffffffff1673ffffffffffffffffffffffffffffffffffffffff16815260200182815260200192505050602060405180830381600087803b1580156108e857600080fd5b505af11580156108fc573d6000803e3d6000fd5b505050506040513d602081101561091257600080fd5b8101908080519060200190929190505050508080600101915050610783565b60016007600084815260200190815260200160002060050160056101000a81548160ff0219169083151502179055507f1022a2c4ccad65760f1f251079912a70e8690dba3a6efc0e30332501a68092d5826007600085815260200190815260200160002060030154600960008681526020019081526020016000208054905060405180848152602001838152602001828152602001935050505060405180910390a15050565b60018054600181600116156101000203166002900480601f016020809104026020016040519081016040528092919081815260200182805460018160011615610100020316600290048015610a6d5780601f10610a4257610100808354040283529160200191610a6d565b820191906000526020600020905b815481529060010190602001808311610a5057829003601f168201915b505050505081565b6000600360009054906101000a900473ffffffffffffffffffffffffffffffffffffffff1673ffffffffffffffffffffffffffffffffffffffff1663c4a1dbad336040518263ffffffff167c0100000000000000000000000000000000000000000000000000000000028152600401808273ffffffffffffffffffffffffffffffffffffffff1673ffffffffffffffffffffffffffffffffffffffff168152602001915050602060405180830381600087803b158015610b3457600080fd5b505af1158015610b48573d6000803e3d6000fd5b505050506040513d6020811015610b5e57600080fd5b81019080805190602001909291905050501515610b7a57600080fd5b82905061012060405190810160405280428152602001600454420181526020018381526020016000815260200182600019168152602001600061ffff168152602001600061ffff16815260200160001515815260200160001515815250600760006005548152602001908152602001600020600082015181600001556020820151816001015560408201518160020155606082015181600301556080820151816004019060001916905560a08201518160050160006101000a81548161ffff021916908361ffff16021790555060c08201518160050160026101000a81548161ffff021916908361ffff16021790555060e08201518160050160046101000a81548160ff0219169083151502179055506101008201518160050160056101000a81548160ff0219169083151502179055509050506005600081548092919060010191905055507fc96853e9a347a4993a1ab1a2f1f683db63a40fab5e2ce45e29c81b5149c58e4681600160055403336040518084600019166000191681526020018381526020018273ffffffffffffffffffffffffffffffffffffffff1673ffffffffffffffffffffffffffffffffffffffff168152602001935050505060405180910390a1505050565b600080600360009054906101000a900473ffffffffffffffffffffffffffffffffffffffff1673ffffffffffffffffffffffffffffffffffffffff1663c4a1dbad336040518263ffffffff167c0100000000000000000000000000000000000000000000000000000000028152600401808273ffffffffffffffffffffffffffffffffffffffff1673ffffffffffffffffffffffffffffffffffffffff168152602001915050602060405180830381600087803b158015610e0557600080fd5b505af1158015610e19573d6000803e3d6000fd5b505050506040513d6020811015610e2f57600080fd5b81019080805190602001909291905050501515610e4b57600080fd5b600760008581526020019081526020016000206001015442101515610e6f57600080fd5b600360009054906101000a900473ffffffffffffffffffffffffffffffffffffffff1673ffffffffffffffffffffffffffffffffffffffff1663c4a1dbad336040518263ffffffff167c0100000000000000000000000000000000000000000000000000000000028152600401808273ffffffffffffffffffffffffffffffffffffffff1673ffffffffffffffffffffffffffffffffffffffff168152602001915050602060405180830381600087803b158015610f2c57600080fd5b505af1158015610f40573d6000803e3d6000fd5b505050506040513d6020811015610f5657600080fd5b81019080805190602001909291905050501515610f7257600080fd5b6007600085815260200190815260200160002060050160059054906101000a900460ff16151515610fa257600080fd5b600660003373ffffffffffffffffffffffffffffffffffffffff1673ffffffffffffffffffffffffffffffffffffffff168152602001908152602001600020600085815260200190815260200160002060009054906101000a900460ff1615151561100c57600080fd5b600f9150600b905069152d02c7e14af6800000600760008681526020019081526020016000206002015410151561104257600f90505b60011515831515141561109d5760076000858152602001908152602001600020600501600081819054906101000a900461ffff168092919060010191906101000a81548161ffff021916908361ffff160217905550506110e7565b60076000858152602001908152602001600020600501600281819054906101000a900461ffff168092919060010191906101000a81548161ffff021916908361ffff160217905550505b8061ffff166007600086815260200190815260200160002060050160009054906101000a900461ffff1661ffff161015156111595760016007600086815260200190815260200160002060050160046101000a81548160ff02191690831515021790555061115484611a0c565b6111bf565b8061ffff166007600086815260200190815260200160002060050160029054906101000a900461ffff1661ffff161015156111be5760016007600086815260200190815260200160002060050160056101000a81548160ff0219169083151502179055505b5b6001600660003373ffffffffffffffffffffffffffffffffffffffff1673ffffffffffffffffffffffffffffffffffffffff168152602001908152602001600020600086815260200190815260200160002060006101000a81548160ff02191690831515021790555050505050565b600f81565b6000806000600960008681526020019081526020016000208481548110151561125857fe5b906000526020600020906002020160000160009054906101000a900473ffffffffffffffffffffffffffffffffffffffff1660096000878152602001908152602001600020858154811015156112aa57fe5b90600052602060002090600202016001015460096000888152602001908152602001600020805490509250925092509250925092565b600b81565b600360009054906101000a900473ffffffffffffffffffffffffffffffffffffffff1673ffffffffffffffffffffffffffffffffffffffff1663c4a1dbad336040518263ffffffff167c0100000000000000000000000000000000000000000000000000000000028152600401808273ffffffffffffffffffffffffffffffffffffffff1673ffffffffffffffffffffffffffffffffffffffff168152602001915050602060405180830381600087803b1580156113a257600080fd5b505af11580156113b6573d6000803e3d6000fd5b505050506040513d60208110156113cc57600080fd5b810190808051906020019092919050505015156113e857600080fd5b6007600084815260200190815260200160002060050160059054906101000a900460ff1615151561141857600080fd5b600360009054906101000a900473ffffffffffffffffffffffffffffffffffffffff1673ffffffffffffffffffffffffffffffffffffffff1663bac30981836040518263ffffffff167c0100000000000000000000000000000000000000000000000000000000028152600401808273ffffffffffffffffffffffffffffffffffffffff1673ffffffffffffffffffffffffffffffffffffffff168152602001915050602060405180830381600087803b1580156114d557600080fd5b505af11580156114e9573d6000803e3d6000fd5b505050506040513d60208110156114ff57600080fd5b81019080805190602001909291905050508061160f5750600360009054906101000a900473ffffffffffffffffffffffffffffffffffffffff1673ffffffffffffffffffffffffffffffffffffffff1663c4a1dbad836040518263ffffffff167c0100000000000000000000000000000000000000000000000000000000028152600401808273ffffffffffffffffffffffffffffffffffffffff1673ffffffffffffffffffffffffffffffffffffffff168152602001915050602060405180830381600087803b1580156115d357600080fd5b505af11580156115e7573d6000803e3d6000fd5b505050506040513d60208110156115fd57600080fd5b81019080805190602001909291905050505b151561161a57600080fd5b600760008481526020019081526020016000206002015461165a826007600087815260200190815260200160002060030154611a6c90919063ffffffff16565b1115151561166757600080fd5b6009600084815260200190815260200160002060408051908101604052808473ffffffffffffffffffffffffffffffffffffffff168152602001838152509080600181540180825580915050906001820390600052602060002090600202016000909192909190915060008201518160000160006101000a81548173ffffffffffffffffffffffffffffffffffffffff021916908373ffffffffffffffffffffffffffffffffffffffff1602179055506020820151816001015550505061174d816007600086815260200190815260200160002060030154611a6c90919063ffffffff16565b6007600085815260200190815260200160002060030181905550505050565b6000809054906101000a900473ffffffffffffffffffffffffffffffffffffffff1681565b60028054600181600116156101000203166002900480601f0160208091040260200160405190810160405280929190818152602001828054600181600116156101000203166002900480156118275780601f106117fc57610100808354040283529160200191611827565b820191906000526020600020905b81548152906001019060200180831161180a57829003601f168201915b505050505081565b60055481565b6000806000806007600086815260200190815260200160002060050160009054906101000a900461ffff166007600087815260200190815260200160002060050160029054906101000a900461ffff166007600088815260200190815260200160002060050160049054906101000a900460ff166007600089815260200190815260200160002060050160059054906101000a900460ff1693509350935093509193509193565b60045481565b6000600660008473ffffffffffffffffffffffffffffffffffffffff1673ffffffffffffffffffffffffffffffffffffffff168152602001908152602001600020600083815260200190815260200160002060009054906101000a900460ff16905092915050565b6000806000806000600760008781526020019081526020016000206000015460076000888152602001908152602001600020600101546007600089815260200190815260200160002060020154600760008a815260200190815260200160002060030154600760008b8152602001908152602001600020600401549450945094509450945091939590929450565b69152d02c7e14af680000081565b600360009054906101000a900473ffffffffffffffffffffffffffffffffffffffff1681565b7f3aa94a81513bec2a88fbe53be130cc208c447c9914b300256c34c95ed7d5d8ab8160076000848152602001908152602001600020600401546040518083815260200182600019166000191681526020019250505060405180910390a150565b60008183019050828110151515611a7f57fe5b809050929150505600a165627a7a72305820202a388a135fee04654e9fbdd757dc979818e042d182ce6bc5ac02ff21ad20270029",
  "source": "pragma solidity ^0.4.23;\n/*\n *                   \n *                      KOL Community Foundation      \n *                      \n *                        \n *         \n *    Dev:Jack Koe  Special for: KOL   20200106   \n *        \n */\n\nlibrary SafeMath {\n\n  function mul(uint256 _a, uint256 _b) internal pure returns (uint256 c) {\n    if (_a == 0) {\n      return 0;\n    }\n    c = _a * _b;\n    assert(c / _a == _b);\n    return c;\n  }\n  function div(uint256 _a, uint256 _b) internal pure returns (uint256) {\n    return _a / _b;\n  }\n  function sub(uint256 _a, uint256 _b) internal pure returns (uint256) {\n    assert(_b <= _a);\n    return _a - _b;\n  }\n  function add(uint256 _a, uint256 _b) internal pure returns (uint256 c) {\n    c = _a + _b;\n    assert(c >= _a);\n    return c;\n  }\n}\n\ncontract Ownable {\n\n  address public owner;\n  event OwnershipTransferred(\n    address indexed previousOwner,\n    address indexed newOwner\n  );\n  constructor() public {\n    owner = msg.sender;\n  }\n  modifier onlyOwner() {\n    require(msg.sender == owner);\n    _;\n  }\n  function _transferOwnership(address _newOwner) internal {\n    require(_newOwner != address(0));\n    emit OwnershipTransferred(owner, _newOwner);\n    owner = _newOwner;\n  }\n}\n\ncontract ERC20Basic {\n  function balanceOf(address _who) public view returns (uint256);\n  function transfer(address _to, uint256 _value) public returns (bool);\n  event Transfer(address indexed from, address indexed to, uint256 value);\n}\n\ncontract ERC20 is ERC20Basic {\n  function allowance(address _owner, address _spender)\n    public view returns (uint256);\n\n  function transferFrom(address _from, address _to, uint256 _value)\n    public returns (bool);\n\n  function approve(address _spender, uint256 _value) public returns (bool);\n  event Approval(\n    address indexed owner,\n    address indexed spender,\n    uint256 value\n  );\n}\n\ncontract BasicToken is Ownable,ERC20Basic {\n  using SafeMath for uint256;\n\n  mapping(address => uint256) internal balances;\n\n  function transfer(address _to, uint256 _value) public returns (bool) {\n    require(msg.sender != owner);\n    require(_value <= balances[msg.sender]);\n    require(_to != address(0));\n\n    balances[msg.sender] = balances[msg.sender].sub(_value);\n    balances[_to] = balances[_to].add(_value);\n    emit Transfer(msg.sender, _to, _value);\n    return true;\n  }\n  function balanceOf(address _owner) public view returns (uint256) {\n    return balances[_owner];\n  }\n}\n\ncontract StandardToken is ERC20, BasicToken {\n\n  mapping (address => mapping (address => uint256)) internal allowed;\n\n  function transferFrom(\n    address _from,\n    address _to,\n    uint256 _value\n  )\n    public\n    returns (bool)\n  {\n    require(_from != owner);\n    require(_value <= balances[_from]);\n    require(_value <= allowed[_from][msg.sender]);\n    require(_to != address(0));\n\n    balances[_from] = balances[_from].sub(_value);\n    balances[_to] = balances[_to].add(_value);\n    allowed[_from][msg.sender] = allowed[_from][msg.sender].sub(_value);\n    emit Transfer(_from, _to, _value);\n    return true;\n  }\n  function approve(address _spender, uint256 _value) public returns (bool) {\n    allowed[msg.sender][_spender] = _value;\n    emit Approval(msg.sender, _spender, _value);\n    return true;\n  }\n  function allowance(\n    address _owner,\n    address _spender\n   )\n    public\n    view\n    returns (uint256)\n  {\n    return allowed[_owner][_spender];\n  }\n\n  function increaseApproval(\n    address _spender,\n    uint256 _addedValue\n  )\n    public\n    returns (bool)\n  {\n    allowed[msg.sender][_spender] = (\n      allowed[msg.sender][_spender].add(_addedValue));\n    emit Approval(msg.sender, _spender, allowed[msg.sender][_spender]);\n    return true;\n  }\n\n  function decreaseApproval(\n    address _spender,\n    uint256 _subtractedValue\n  )\n    public\n    returns (bool)\n  {\n    uint256 oldValue = allowed[msg.sender][_spender];\n    if (_subtractedValue >= oldValue) {\n      allowed[msg.sender][_spender] = 0;\n    } else {\n      allowed[msg.sender][_spender] = oldValue.sub(_subtractedValue);\n    }\n    emit Approval(msg.sender, _spender, allowed[msg.sender][_spender]);\n    return true;\n  }\n\n}\n\ncontract KOL is StandardToken{\n    using SafeMath for uint256;\n\n    uint256 public constant TOKEN_DECIMALS = 18;\n\n    string public name = \"KOL Community Alliance\";\n    string public symbol = \"KOL\";\n    uint256 public decimals = TOKEN_DECIMALS;\n    uint256 public totalSupply = 21000000 *(10**uint256(TOKEN_DECIMALS));\n\n    uint256 public totalSupplyed = 0;\n    address public ethFundDeposit;\n\n\n    uint16 public constant totalSuperNodes = 21;\n    uint16 public constant totalNodes = 500;\n    uint16 public constant halfSuperNodes = 11;\n    uint16 public constant mostNodes = 335;\n    uint16 public constant halfNodes = 251;\n    uint16 public constant minSuperNodes = 15;\n    uint16 public constant minNodes = 101;\n\n    /* uint16 public constant totalSuperNodes = 3;\n    uint16 public constant totalNodes = 3;\n    uint16 public constant halfSuperNodes = 1;\n    uint16 public constant mostNodes = 1;\n    uint16 public constant halfNodes = 1;\n    uint16 public constant minSuperNodes = 1;\n    uint16 public constant minNodes = 1; */\n\n    uint16 public constant most = 67;\n    uint16 public constant half = 51;\n    uint16 public constant less = 33;\n\n    function construct() public {\n        ethFundDeposit = msg.sender;\n    }\n    function setEthFundDeposit(address _ethFundDeposit) onlyOwner public {\n        require(_ethFundDeposit != address(0));\n        ethFundDeposit = _ethFundDeposit;\n    }\n\n    function transferETH() onlyOwner public {\n        require(ethFundDeposit != address(0));\n        require(address(this).balance != 0);\n        require(ethFundDeposit.send(address(this).balance));\n    }\n    function isOwner() internal view returns(bool success) {\n        if (msg.sender == owner) return true;\n        return false;\n    }\n}\n\ncontract KOLVote is KOL {\n\n    uint256 public constant totalNodeSupply = 5000000 *(10**uint256(TOKEN_DECIMALS));\n    uint256 public constant totalUserSupply = 16000000 *(10**uint256(TOKEN_DECIMALS));\n    uint256 public nodeSupplyed = 0;\n    uint256 public userSupplyed = 0;\n\n    uint256 public superNodesNum = 0;\n    uint256 public nodesNum = 0;\n    uint256 public dealTime =  3 days;\n    uint256 public missionId = 0;\n\n    mapping(address => bool) private isSuperNode;\n    mapping(address => bool) private isNode;\n    mapping(address => mapping(uint256 => bool)) private Voter;\n\n\n    event MissionPassed(uint256 _missionId,bytes32 _name);\n    event OfferingFinished(uint256 _missionId,uint256 _totalAmount,uint256 _length);\n    event RecycleTokens(uint256 _missionId,uint256 _totalAmount);\n    event NodeChanged(uint16 _type,address _oldNode,address _newNode);\n    event MissionLaunched(bytes32 _name,uint256 _missionId,address _whoLaunch);\n    event Burn(address indexed burner, uint256 value);\n\n    function burn(uint256 _value) internal {\n      require(_value <= balances[owner]);\n      require(_value <= totalSupply);\n      balances[owner] = balances[owner].sub(_value);\n      totalSupply = totalSupply.sub(_value);\n      emit Burn(owner, _value);\n      emit Transfer(owner, address(0), _value);\n    }\n\n    modifier onlySuperNode() {\n      require(isSuperNode[msg.sender]);\n        _;\n    }\n    modifier onlyNode() {\n        require(isNode[msg.sender]);\n        _;\n    }\n    modifier onlyNodes() {\n        require(isSuperNode[msg.sender]||isNode[msg.sender]);\n        _;\n    }\n\n    function setSuperNode(address superNodeAddress) onlyOwner public{\n      require(!isSuperNode[superNodeAddress]);\n      require(superNodesNum < totalSuperNodes);\n      isSuperNode[superNodeAddress] = true;\n      superNodesNum++;\n    }\n\n    function setNode(address nodeAddress) onlyOwner public{\n      require(!isNode[nodeAddress]);\n      require(nodesNum < totalNodes);\n      isNode[nodeAddress] = true;\n      nodesNum++;\n\n    }\n\n    function querySuperNode(address _addr) public view returns(bool){\n      return(isSuperNode[_addr]);\n    }\n    function queryNode(address _addr) public view returns(bool){\n      return(isNode[_addr]);\n    }\n    /***************************************************/\n    /*       KOL Vote Code Begin here                  */\n    /***************************************************/\n\n    struct KolMission{\n      address oldNode;\n      address newNode;\n      uint256 startTime;\n      uint256 endTime;\n      uint256 totalAmount;\n      uint256 offeringAmount;\n      bytes32 name;\n      uint16 agreeNodes;\n      uint16 refuseNodes;\n      uint16 agreeSuperNodes;\n      uint16 refuseSuperNodes;\n      bool superPassed;\n      bool nodePassed;\n      bool done;\n    }\n    mapping (uint256 => KolMission) private missionList;\n\n    struct KolOffering{\n      address target;\n      uint256 targetAmount;\n    }\n    KolOffering[] private kolOfferings;\n\n    mapping(uint256 => KolOffering[]) private offeringList;\n\n    //_type:1,change supernode;2,change node;3,changeowner;4,mission launched;6,creation issuing;7,recycle token from owner\n    function createKolMission(uint16 _type,bytes32 _name,uint256 _totalAmount,address _oldNode,address _newNode) onlyNodes public {\n        bytes32 iName = _name;\n        if (_type == 2){\n          require(isSuperNode[msg.sender]);\n          iName = \"CHANGE NODE\";\n        }else if (_type == 3){\n          iName = \"CHANGE OWNER\";\n        }else if (_type == 1){\n          require(isNode[msg.sender]);\n          iName = \"CHANGE SUPER NODE\";\n        }else if ((_type ==4)){\n          require((_totalAmount + userSupplyed) <= totalUserSupply);\n        }else if (_type ==6){\n          require((_totalAmount + nodeSupplyed) <= totalNodeSupply);\n          iName = \"CREATION ISSUING\";\n        }else if (_type ==7){\n          iName = \"RECYCLE TOKEN FROM OWNER\";\n        }\n        missionList[missionId] = KolMission(_oldNode,\n                                            _newNode,\n                                            uint256(now),\n                                            uint256(now + dealTime),\n                                            _totalAmount,\n                                            0,\n                                            iName,\n                                            0,\n                                            0,\n                                            0,\n                                            0,\n                                            false,\n                                            false,\n                                            false);\n\n        missionId++;\n        emit MissionLaunched(iName,missionId-1,msg.sender);\n    }\n    function addKolOffering(uint256 _missionId,address _target,uint256 _targetAmount) onlyNodes public{\n      require(missionList[_missionId].superPassed);\n      require(!missionList[_missionId].done);\n      if (missionList[_missionId].name == \"CREATION ISSUING\"){\n        require(isNode[_target]||isSuperNode[_target]);\n      }\n      require(missionList[_missionId].offeringAmount.add(_targetAmount) <= missionList[_missionId].totalAmount);\n      offeringList[_missionId].push(KolOffering(_target,_targetAmount));\n      missionList[_missionId].offeringAmount = missionList[_missionId].offeringAmount.add(_targetAmount);\n\n    }\n    function missionPassed(uint256 _missionId) private {\n      if ((missionList[_missionId].name != \"CHANGE SUPER NODE\") &&\n              (missionList[_missionId].name != \"CHANGE NODE\") &&\n              (missionList[_missionId].name != \"CHANGE OWNER\") &&\n              (missionList[_missionId].name != \"RECYCLE TOKEN FROM OWNER\")){\n          emit MissionPassed(_missionId,missionList[_missionId].name);\n        }\n\n    }\n    //once voting passed,excute auto;\n    function excuteAuto(uint256 _missionId) private {\n      if ((missionList[_missionId].name == \"CHANGE NODE\") && missionList[_missionId].superPassed){\n        require(isNode[missionList[_missionId].oldNode]);\n        require(!isSuperNode[missionList[_missionId].newNode]);\n        isNode[missionList[_missionId].oldNode] = false;\n        isNode[missionList[_missionId].newNode] = true;\n        missionList[_missionId].done = true;\n        emit NodeChanged(2,missionList[_missionId].oldNode,missionList[_missionId].newNode);\n      }else if ((missionList[_missionId].name == \"CHANGE SUPER NODE\") && missionList[_missionId].nodePassed){\n        require(isSuperNode[missionList[_missionId].oldNode]);\n        require(!isSuperNode[missionList[_missionId].newNode]);\n        isSuperNode[missionList[_missionId].oldNode] = false;\n        isSuperNode[missionList[_missionId].newNode] = true;\n        missionList[_missionId].done = true;\n        emit NodeChanged(1,missionList[_missionId].oldNode,missionList[_missionId].newNode);\n      }else if ((missionList[_missionId].name == \"CHANGE OWNER\") && missionList[_missionId].nodePassed){\n        emit NodeChanged(3,owner,missionList[_missionId].newNode);\n        _transferOwnership(missionList[_missionId].newNode);\n        missionList[_missionId].done = true;\n      }else if ((missionList[_missionId].name == \"RECYCLE TOKEN FROM OWNER\") && missionList[_missionId].nodePassed){\n        burn(missionList[_missionId].totalAmount);\n        emit RecycleTokens(_missionId,missionList[_missionId].totalAmount);\n        missionList[_missionId].done = true;\n      }\n    }\n    //_type,1,supernode;2,node\n    function voteMission(uint16 _type,uint256 _missionId,bool _agree) onlyNodes public{\n      require(!Voter[msg.sender][_missionId]);\n      require(!missionList[_missionId].done);\n      uint16 minNodesNum = minNodes;\n      uint16 minSuperNodesNum = minSuperNodes;\n      uint16 passNodes = halfNodes;\n      uint16 passSuperNodes = halfSuperNodes;\n      uint16 rate = half;\n      if (missionList[_missionId].name == \"CHANGE OWNER\") {\n        rate = most;\n        minNodesNum = totalNodes;\n        passNodes = mostNodes;\n      }else if (missionList[_missionId].name == \"CHANGE NODE\"){\n        rate = less;\n        minSuperNodesNum = minSuperNodes;\n        passSuperNodes = halfSuperNodes;\n      }else if (missionList[_missionId].name == \"CHANGE SUPER NODE\"){\n        rate = less;\n        minNodesNum = minNodes;\n        passNodes = halfNodes;\n      }else if (missionList[_missionId].name == \"CREATION ISSUING\"){\n        minNodesNum = minNodes;\n        passNodes = halfNodes;\n        minSuperNodesNum = minSuperNodes;\n        passSuperNodes = halfSuperNodes;\n      }else if (missionList[_missionId].name == \"RECYCLE TOKEN FROM OWNER\"){\n        minNodesNum = minNodes;\n        passNodes = halfNodes;\n      }\n\n      if (_type == 1){\n        require(isSuperNode[msg.sender]);\n      }else if (_type ==2){\n        require(isNode[msg.sender]);\n      }\n\n      if(now > missionList[_missionId].endTime){\n        if ( _type == 1 ){\n          if (\n            (missionList[_missionId].agreeSuperNodes + missionList[_missionId].refuseSuperNodes)>=minSuperNodesNum\n            &&\n            missionList[_missionId].agreeSuperNodes >= (missionList[_missionId].agreeSuperNodes + missionList[_missionId].refuseSuperNodes) * rate/100\n            ){\n              missionList[_missionId].superPassed = true;\n              missionPassed(_missionId);\n          }\n        }else if (_type ==2 ){\n          //\n          if (\n            (missionList[_missionId].agreeNodes + missionList[_missionId].refuseNodes)>=minNodesNum\n            &&\n            missionList[_missionId].agreeNodes >= (missionList[_missionId].refuseNodes + missionList[_missionId].refuseNodes) * rate/100\n            ){\n              missionList[_missionId].nodePassed = true;\n          }\n        }\n      }else{\n        if(_agree == true){\n          if (_type == 1){\n            missionList[_missionId].agreeSuperNodes++;\n          }else if(_type == 2){\n            missionList[_missionId].agreeNodes++;\n          }\n        }\n        else{\n          if (_type == 1){\n            missionList[_missionId].refuseSuperNodes++;\n          }else if(_type == 2){\n            missionList[_missionId].refuseNodes++;\n          }\n        }\n        if (_type == 1){\n          if (missionList[_missionId].agreeSuperNodes >= passSuperNodes) {\n              missionList[_missionId].superPassed = true;\n              missionPassed(_missionId);\n          }else if (missionList[_missionId].refuseSuperNodes >= passSuperNodes) {\n              missionList[_missionId].done = true;\n          }\n        }else if (_type ==2){\n          if (missionList[_missionId].agreeNodes >= passNodes) {\n              missionList[_missionId].nodePassed = true;\n          }else if (missionList[_missionId].refuseNodes >= passNodes) {\n              missionList[_missionId].done = true;\n          }\n        }\n      }\n      Voter[msg.sender][_missionId] = true;\n      excuteAuto(_missionId);\n    }\n\n    function excuteVote(uint256 _missionId) onlyOwner public {\n      require(!missionList[_missionId].done);\n      require(uint256(now) < (missionList[_missionId].endTime + uint256(dealTime)));\n\n      require(missionList[_missionId].superPassed);\n      require(missionList[_missionId].nodePassed);\n      require(missionList[_missionId].totalAmount == missionList[_missionId].offeringAmount);\n      require((missionList[_missionId].totalAmount.add(totalSupplyed))<=totalNodeSupply.add(totalUserSupply));\n\n      if (missionList[_missionId].name == \"CREATION ISSUING\"){\n        require((nodeSupplyed.add(missionList[_missionId].totalAmount))<=totalNodeSupply);\n      }else{\n        require((userSupplyed.add(missionList[_missionId].totalAmount))<=totalUserSupply);\n      }\n      for (uint m = 0; m < offeringList[_missionId].length; m++){\n        balances[offeringList[_missionId][m].target] = balances[offeringList[_missionId][m].target].add(offeringList[_missionId][m].targetAmount);\n        emit Transfer(msg.sender,offeringList[_missionId][m].target,offeringList[_missionId][m].targetAmount);\n      }\n      totalSupplyed = totalSupplyed.add(missionList[_missionId].totalAmount);\n\n      if (missionList[_missionId].name == \"CREATION ISSUING\"){\n        nodeSupplyed = nodeSupplyed.add(missionList[_missionId].totalAmount);\n      }else{\n        userSupplyed = userSupplyed.add(missionList[_missionId].totalAmount);\n      }\n      missionList[_missionId].done = true;\n      emit OfferingFinished(_missionId,missionList[_missionId].offeringAmount,offeringList[_missionId].length);\n\n    }\n    function getMission1(uint256 _missionId) public view returns(address,\n                                                              address,\n                                                              uint256,\n                                                              uint256,\n                                                              uint256,\n                                                              uint256,\n                                                              bytes32){\n      return(missionList[_missionId].oldNode,\n              missionList[_missionId].newNode,\n              missionList[_missionId].startTime,\n              missionList[_missionId].endTime,\n              missionList[_missionId].totalAmount,\n              missionList[_missionId].offeringAmount,\n              missionList[_missionId].name);\n    }\n    function getMission2(uint256 _missionId) public view returns(uint16,\n                                                                uint16,\n                                                                uint16,\n                                                                uint16,\n                                                                bool,\n                                                                bool,\n                                                                bool){\n      return(\n            missionList[_missionId].agreeNodes,\n            missionList[_missionId].refuseNodes,\n            missionList[_missionId].agreeSuperNodes,\n            missionList[_missionId].refuseSuperNodes,\n            missionList[_missionId].superPassed,\n            missionList[_missionId].nodePassed,\n            missionList[_missionId].done);\n    }\n    function getOfferings(uint256 _missionId,uint256 _id) public view returns(address,uint256,uint256){\n      return(offeringList[_missionId][_id].target,offeringList[_missionId][_id].targetAmount,offeringList[_missionId].length);\n    }\n    function voted(address _node,uint256 _missionId) public view returns(bool){\n      return Voter[_node][_missionId];\n    }\n}\ncontract KOLPub is Ownable{\n  using SafeMath for uint256;\n  string public name = \"KOL Pub Foundation\";\n  string public symbol = \"KOLPub\";\n  KOLVote public token;\n\n  uint256 public dealTime =  3 days;\n  uint256 public missionId = 0;\n  uint256 public constant TEN = 100000 * (10 ** 18);\n\n  uint16 public constant halfSuperNodes = 11;\n  uint16 public constant minSuperNodes = 15;\n\n  mapping(address => mapping(uint256 => bool)) private Voter;\n\n  constructor(address _tokenAddress) public {\n    token = KOLVote(_tokenAddress);\n  }\n\n  event MissionPassed(uint256 _missionId,bytes32 _name);\n  event OfferingFinished(uint256 _missionId,uint256 _totalAmount,uint256 _length);\n  event MissionLaunched(bytes32 _name,uint256 _missionId,address _whoLaunch);\n\n  modifier onlySuperNode() {\n    require(token.querySuperNode(msg.sender));\n      _;\n  }\n\n  struct KolMission{\n    uint256 startTime;\n    uint256 endTime;\n    uint256 totalAmount;\n    uint256 offeringAmount;\n    bytes32 name;\n    uint16 agreeSuperNodes;\n    uint16 refuseSuperNodes;\n    bool superPassed;\n    bool done;\n  }\n  mapping (uint256 => KolMission) private missionList;\n\n  struct KolOffering{\n    address target;\n    uint256 targetAmount;\n  }\n  KolOffering[] private kolOfferings;\n  mapping(uint256 => KolOffering[]) private offeringList;\n\n  function missionPassed(uint256 _missionId) private {\n    emit MissionPassed(_missionId,missionList[_missionId].name);\n  }\n  function createKolMission(bytes32 _name,uint256 _totalAmount) onlySuperNode public {\n      bytes32 iName = _name;\n      missionList[missionId] = KolMission(uint256(now),\n                                          uint256(now + dealTime),\n                                          _totalAmount,\n                                          0,\n                                          iName,\n                                          0,\n                                          0,\n                                          false,\n                                          false);\n\n      missionId++;\n      emit MissionLaunched(iName,missionId-1,msg.sender);\n  }\n  function voteMission(uint256 _missionId,bool _agree) onlySuperNode public{\n    require(now < missionList[_missionId].endTime);\n    require(token.querySuperNode(msg.sender));\n    require(!missionList[_missionId].done);\n    require(!Voter[msg.sender][_missionId]);\n\n    uint16 minSuperNodesNum = minSuperNodes;\n    uint16 passSuperNodes = halfSuperNodes;\n\n\n    if (missionList[_missionId].totalAmount >= TEN){\n      passSuperNodes = minSuperNodes;\n    }\n\n    if(_agree == true){\n      missionList[_missionId].agreeSuperNodes++;\n    }\n    else{\n      missionList[_missionId].refuseSuperNodes++;\n    }\n    if (missionList[_missionId].agreeSuperNodes >= passSuperNodes) {\n        missionList[_missionId].superPassed = true;\n        missionPassed(_missionId);\n    }else if (missionList[_missionId].refuseSuperNodes >= passSuperNodes) {\n        missionList[_missionId].done = true;\n    }\n    Voter[msg.sender][_missionId] = true;\n  }\n  function addKolOffering(uint256 _missionId,address _target,uint256 _targetAmount) onlySuperNode public{\n    require(!missionList[_missionId].done);\n    require(token.queryNode(_target)||token.querySuperNode(_target));\n    require(missionList[_missionId].offeringAmount.add(_targetAmount) <= missionList[_missionId].totalAmount);\n    offeringList[_missionId].push(KolOffering(_target,_targetAmount));\n    missionList[_missionId].offeringAmount = missionList[_missionId].offeringAmount.add(_targetAmount);\n\n  }\n  function excuteVote(uint256 _missionId) onlyOwner public {\n    require(!missionList[_missionId].done);\n    require(uint256(now) < (missionList[_missionId].endTime + uint256(dealTime)));\n    require(missionList[_missionId].superPassed);\n    require(missionList[_missionId].totalAmount == missionList[_missionId].offeringAmount);\n\n\n    for (uint m = 0; m < offeringList[_missionId].length; m++){\n      token.transfer(offeringList[_missionId][m].target, offeringList[_missionId][m].targetAmount);\n    }\n    missionList[_missionId].done = true;\n    emit OfferingFinished(_missionId,missionList[_missionId].offeringAmount,offeringList[_missionId].length);\n\n  }\n  function getMission1(uint256 _missionId) public view returns(uint256,\n                                                            uint256,\n                                                            uint256,\n                                                            uint256,\n                                                            bytes32){\n    return(missionList[_missionId].startTime,\n            missionList[_missionId].endTime,\n            missionList[_missionId].totalAmount,\n            missionList[_missionId].offeringAmount,\n            missionList[_missionId].name);\n  }\n  function getMission2(uint256 _missionId) public view returns(uint16,\n                                                              uint16,\n                                                              bool,\n                                                              bool){\n    return(\n          missionList[_missionId].agreeSuperNodes,\n          missionList[_missionId].refuseSuperNodes,\n          missionList[_missionId].superPassed,\n          missionList[_missionId].done);\n  }\n  function getOfferings(uint256 _missionId,uint256 _id) public view returns(address,uint256,uint256){\n    return(offeringList[_missionId][_id].target,offeringList[_missionId][_id].targetAmount,offeringList[_missionId].length);\n  }\n  function voted(address _node,uint256 _missionId) public view returns(bool){\n    return Voter[_node][_missionId];\n  }\n\n}\n",
  "sourcePath": "/Users/jack/git/github/KOL/contracts/KOLPub.sol",
  "compiler": {
    "name": "solc",
    "version": "0.4.23+commit.124ca40d.Emscripten.clang"
  },
  "schemaVersion": "3.0.19",
  "updatedAt": "2020-02-08T09:29:29.512Z",
  "devdoc": {
    "methods": {}
  },
  "userdoc": {
    "methods": {}
  }
}