{
  "contractName": "KOLPromote",
  "abi": [
    {
      "constant": true,
      "inputs": [],
      "name": "comLevel3",
      "outputs": [
        {
          "name": "",
          "type": "uint8"
        }
      ],
      "payable": false,
      "stateMutability": "view",
      "type": "function"
    },
    {
      "constant": true,
      "inputs": [],
      "name": "name",
      "outputs": [
        {
          "name": "",
          "type": "string"
        }
      ],
      "payable": false,
      "stateMutability": "view",
      "type": "function"
    },
    {
      "constant": true,
      "inputs": [],
      "name": "comLevel2Amount",
      "outputs": [
        {
          "name": "",
          "type": "uint256"
        }
      ],
      "payable": false,
      "stateMutability": "view",
      "type": "function"
    },
    {
      "constant": true,
      "inputs": [],
      "name": "kol",
      "outputs": [
        {
          "name": "",
          "type": "address"
        }
      ],
      "payable": false,
      "stateMutability": "view",
      "type": "function"
    },
    {
      "constant": true,
      "inputs": [],
      "name": "comLevel3Amount",
      "outputs": [
        {
          "name": "",
          "type": "uint256"
        }
      ],
      "payable": false,
      "stateMutability": "view",
      "type": "function"
    },
    {
      "constant": true,
      "inputs": [],
      "name": "begin",
      "outputs": [
        {
          "name": "",
          "type": "uint256"
        }
      ],
      "payable": false,
      "stateMutability": "view",
      "type": "function"
    },
    {
      "constant": true,
      "inputs": [],
      "name": "comLevel2Users",
      "outputs": [
        {
          "name": "",
          "type": "uint16"
        }
      ],
      "payable": false,
      "stateMutability": "view",
      "type": "function"
    },
    {
      "constant": true,
      "inputs": [],
      "name": "comLevel1Amount",
      "outputs": [
        {
          "name": "",
          "type": "uint256"
        }
      ],
      "payable": false,
      "stateMutability": "view",
      "type": "function"
    },
    {
      "constant": true,
      "inputs": [
        {
          "name": "",
          "type": "address"
        }
      ],
      "name": "USDTOrCoin",
      "outputs": [
        {
          "name": "",
          "type": "bool"
        }
      ],
      "payable": false,
      "stateMutability": "view",
      "type": "function"
    },
    {
      "constant": true,
      "inputs": [],
      "name": "userLevel2",
      "outputs": [
        {
          "name": "",
          "type": "uint8"
        }
      ],
      "payable": false,
      "stateMutability": "view",
      "type": "function"
    },
    {
      "constant": true,
      "inputs": [],
      "name": "iCode",
      "outputs": [
        {
          "name": "",
          "type": "uint256"
        }
      ],
      "payable": false,
      "stateMutability": "view",
      "type": "function"
    },
    {
      "constant": true,
      "inputs": [],
      "name": "comLevel2",
      "outputs": [
        {
          "name": "",
          "type": "uint8"
        }
      ],
      "payable": false,
      "stateMutability": "view",
      "type": "function"
    },
    {
      "constant": true,
      "inputs": [],
      "name": "withDrawDays",
      "outputs": [
        {
          "name": "",
          "type": "uint256"
        }
      ],
      "payable": false,
      "stateMutability": "view",
      "type": "function"
    },
    {
      "constant": true,
      "inputs": [],
      "name": "comLevel3Users",
      "outputs": [
        {
          "name": "",
          "type": "uint16"
        }
      ],
      "payable": false,
      "stateMutability": "view",
      "type": "function"
    },
    {
      "constant": true,
      "inputs": [],
      "name": "comLevel1Users",
      "outputs": [
        {
          "name": "",
          "type": "uint16"
        }
      ],
      "payable": false,
      "stateMutability": "view",
      "type": "function"
    },
    {
      "constant": true,
      "inputs": [
        {
          "name": "",
          "type": "address"
        }
      ],
      "name": "RInviteCode",
      "outputs": [
        {
          "name": "",
          "type": "uint256"
        }
      ],
      "payable": false,
      "stateMutability": "view",
      "type": "function"
    },
    {
      "constant": true,
      "inputs": [],
      "name": "owner",
      "outputs": [
        {
          "name": "",
          "type": "address"
        }
      ],
      "payable": false,
      "stateMutability": "view",
      "type": "function"
    },
    {
      "constant": true,
      "inputs": [],
      "name": "comLevel1",
      "outputs": [
        {
          "name": "",
          "type": "uint8"
        }
      ],
      "payable": false,
      "stateMutability": "view",
      "type": "function"
    },
    {
      "constant": true,
      "inputs": [
        {
          "name": "",
          "type": "uint256"
        }
      ],
      "name": "InviteCode",
      "outputs": [
        {
          "name": "",
          "type": "address"
        }
      ],
      "payable": false,
      "stateMutability": "view",
      "type": "function"
    },
    {
      "constant": true,
      "inputs": [],
      "name": "withDrawRate",
      "outputs": [
        {
          "name": "",
          "type": "uint8"
        }
      ],
      "payable": false,
      "stateMutability": "view",
      "type": "function"
    },
    {
      "constant": true,
      "inputs": [
        {
          "name": "",
          "type": "address"
        }
      ],
      "name": "WithDraws",
      "outputs": [
        {
          "name": "",
          "type": "uint256"
        }
      ],
      "payable": false,
      "stateMutability": "view",
      "type": "function"
    },
    {
      "constant": true,
      "inputs": [],
      "name": "userLevel1",
      "outputs": [
        {
          "name": "",
          "type": "uint8"
        }
      ],
      "payable": false,
      "stateMutability": "view",
      "type": "function"
    },
    {
      "constant": true,
      "inputs": [],
      "name": "end",
      "outputs": [
        {
          "name": "",
          "type": "uint256"
        }
      ],
      "payable": false,
      "stateMutability": "view",
      "type": "function"
    },
    {
      "constant": false,
      "inputs": [
        {
          "name": "newOwner",
          "type": "address"
        }
      ],
      "name": "transferOwnership",
      "outputs": [],
      "payable": false,
      "stateMutability": "nonpayable",
      "type": "function"
    },
    {
      "constant": true,
      "inputs": [],
      "name": "reciever",
      "outputs": [
        {
          "name": "",
          "type": "address"
        }
      ],
      "payable": false,
      "stateMutability": "view",
      "type": "function"
    },
    {
      "inputs": [
        {
          "name": "_tokenAddress",
          "type": "address"
        },
        {
          "name": "_reciever",
          "type": "address"
        },
        {
          "name": "_begin",
          "type": "uint256"
        },
        {
          "name": "_end",
          "type": "uint256"
        }
      ],
      "payable": false,
      "stateMutability": "nonpayable",
      "type": "constructor"
    },
    {
      "anonymous": false,
      "inputs": [
        {
          "indexed": false,
          "name": "_user",
          "type": "address"
        },
        {
          "indexed": false,
          "name": "inviteCode",
          "type": "uint256"
        }
      ],
      "name": "Registed",
      "type": "event"
    },
    {
      "anonymous": false,
      "inputs": [
        {
          "indexed": false,
          "name": "_user",
          "type": "address"
        },
        {
          "indexed": false,
          "name": "_oldLevel",
          "type": "uint8"
        },
        {
          "indexed": false,
          "name": "_newLevel",
          "type": "uint8"
        }
      ],
      "name": "GradeChanged",
      "type": "event"
    },
    {
      "anonymous": false,
      "inputs": [
        {
          "indexed": false,
          "name": "_user",
          "type": "address"
        },
        {
          "indexed": false,
          "name": "_self",
          "type": "uint256"
        },
        {
          "indexed": false,
          "name": "_promotion",
          "type": "uint256"
        },
        {
          "indexed": false,
          "name": "_team",
          "type": "uint256"
        }
      ],
      "name": "WithDraw",
      "type": "event"
    },
    {
      "anonymous": false,
      "inputs": [
        {
          "indexed": false,
          "name": "_user",
          "type": "address"
        },
        {
          "indexed": false,
          "name": "_balance",
          "type": "uint256"
        }
      ],
      "name": "WithDrawBalance",
      "type": "event"
    },
    {
      "constant": false,
      "inputs": [
        {
          "name": "_type",
          "type": "bool"
        }
      ],
      "name": "withDraw",
      "outputs": [],
      "payable": false,
      "stateMutability": "nonpayable",
      "type": "function"
    },
    {
      "constant": true,
      "inputs": [],
      "name": "getCode",
      "outputs": [
        {
          "name": "",
          "type": "uint256"
        }
      ],
      "payable": false,
      "stateMutability": "view",
      "type": "function"
    },
    {
      "constant": false,
      "inputs": [
        {
          "name": "_fInviteCode",
          "type": "uint256"
        }
      ],
      "name": "register",
      "outputs": [],
      "payable": false,
      "stateMutability": "nonpayable",
      "type": "function"
    },
    {
      "constant": false,
      "inputs": [
        {
          "name": "_amount",
          "type": "uint256"
        },
        {
          "name": "_usdtOrCoin",
          "type": "bool"
        }
      ],
      "name": "join",
      "outputs": [],
      "payable": false,
      "stateMutability": "nonpayable",
      "type": "function"
    },
    {
      "constant": false,
      "inputs": [
        {
          "name": "price",
          "type": "uint256"
        },
        {
          "name": "_queryTime",
          "type": "uint256"
        }
      ],
      "name": "putClosePrice",
      "outputs": [],
      "payable": false,
      "stateMutability": "nonpayable",
      "type": "function"
    },
    {
      "constant": false,
      "inputs": [
        {
          "name": "_addr",
          "type": "address"
        }
      ],
      "name": "setReciever",
      "outputs": [],
      "payable": false,
      "stateMutability": "nonpayable",
      "type": "function"
    }
  ],
  "bytecode": "0x60806040526040805190810160405280600d81526020017f4b4f4c2050726f6d6f74696f6e00000000000000000000000000000000000000815250600190805190602001906200005192919062000183565b50635eaaf6006004553480156200006757600080fd5b50604051608080620046be83398101806040528101908080519060200190929190805190602001909291908051906020019092919080519060200190929190505050336000806101000a81548173ffffffffffffffffffffffffffffffffffffffff021916908373ffffffffffffffffffffffffffffffffffffffff16021790555083600260006101000a81548173ffffffffffffffffffffffffffffffffffffffff021916908373ffffffffffffffffffffffffffffffffffffffff160217905550816004819055508060058190555082600360006101000a81548173ffffffffffffffffffffffffffffffffffffffff021916908373ffffffffffffffffffffffffffffffffffffffff1602179055505050505062000232565b828054600181600116156101000203166002900490600052602060002090601f016020900481019282601f10620001c657805160ff1916838001178555620001f7565b82800160010185558215620001f7579182015b82811115620001f6578251825591602001919060010190620001d9565b5b5090506200020691906200020a565b5090565b6200022f91905b808211156200022b57600081600090555060010162000211565b5090565b90565b61447c80620002426000396000f30060806040526004361061018b576000357c0100000000000000000000000000000000000000000000000000000000900463ffffffff16806305536ac21461019057806306fdde03146101c157806308b7da39146102515780630dcba2d11461027c5780630efd7661146102d35780631bce6ff3146102fe5780632217e6b614610329578063275cdec31461035c5780632f63c365146103875780633a9c7d12146103e2578063571f2315146104135780635dbac10e1461043e57806360cd2f7c1461046f5780636463a1d01461049a578063808fe48a146104d15780638099a6a6146105045780638be7038e146105375780638cdb20221461058e5780638da5cb5b146105bd578063a0db86f914610614578063cc7bc3a014610657578063cccbeebf14610688578063d0b3da99146106f5578063d520c99d1461072e578063e36fe7d71461075f578063e4ebc0e8146107b6578063ea879634146107e7578063efbe1c1c14610812578063f207564e1461083d578063f2fde38b1461086a578063f4b0b756146108ad575b600080fd5b34801561019c57600080fd5b506101a5610904565b604051808260ff1660ff16815260200191505060405180910390f35b3480156101cd57600080fd5b506101d6610909565b6040518080602001828103825283818151815260200191508051906020019080838360005b838110156102165780820151818401526020810190506101fb565b50505050905090810190601f1680156102435780820380516001836020036101000a031916815260200191505b509250505060405180910390f35b34801561025d57600080fd5b506102666109a7565b6040518082815260200191505060405180910390f35b34801561028857600080fd5b506102916109b5565b604051808273ffffffffffffffffffffffffffffffffffffffff1673ffffffffffffffffffffffffffffffffffffffff16815260200191505060405180910390f35b3480156102df57600080fd5b506102e86109db565b6040518082815260200191505060405180910390f35b34801561030a57600080fd5b506103136109e9565b6040518082815260200191505060405180910390f35b34801561033557600080fd5b5061033e6109ef565b604051808261ffff1661ffff16815260200191505060405180910390f35b34801561036857600080fd5b506103716109f5565b6040518082815260200191505060405180910390f35b34801561039357600080fd5b506103c8600480360381019080803573ffffffffffffffffffffffffffffffffffffffff169060200190929190505050610a03565b604051808215151515815260200191505060405180910390f35b3480156103ee57600080fd5b506103f7610a23565b604051808260ff1660ff16815260200191505060405180910390f35b34801561041f57600080fd5b50610428610a28565b6040518082815260200191505060405180910390f35b34801561044a57600080fd5b50610453610a2e565b604051808260ff1660ff16815260200191505060405180910390f35b34801561047b57600080fd5b50610484610a33565b6040518082815260200191505060405180910390f35b3480156104a657600080fd5b506104cf6004803603810190808035906020019092919080359060200190929190505050610a3a565b005b3480156104dd57600080fd5b506104e6610c66565b604051808261ffff1661ffff16815260200191505060405180910390f35b34801561051057600080fd5b50610519610c6c565b604051808261ffff1661ffff16815260200191505060405180910390f35b34801561054357600080fd5b50610578600480360381019080803573ffffffffffffffffffffffffffffffffffffffff169060200190929190505050610c71565b6040518082815260200191505060405180910390f35b34801561059a57600080fd5b506105bb600480360381019080803515159060200190929190505050610c89565b005b3480156105c957600080fd5b506105d2611461565b604051808273ffffffffffffffffffffffffffffffffffffffff1673ffffffffffffffffffffffffffffffffffffffff16815260200191505060405180910390f35b34801561062057600080fd5b50610655600480360381019080803573ffffffffffffffffffffffffffffffffffffffff169060200190929190505050611486565b005b34801561066357600080fd5b5061066c611525565b604051808260ff1660ff16815260200191505060405180910390f35b34801561069457600080fd5b506106b36004803603810190808035906020019092919050505061152a565b604051808273ffffffffffffffffffffffffffffffffffffffff1673ffffffffffffffffffffffffffffffffffffffff16815260200191505060405180910390f35b34801561070157600080fd5b5061072c6004803603810190808035906020019092919080351515906020019092919050505061155d565b005b34801561073a57600080fd5b50610743611b9e565b604051808260ff1660ff16815260200191505060405180910390f35b34801561076b57600080fd5b506107a0600480360381019080803573ffffffffffffffffffffffffffffffffffffffff169060200190929190505050611ba3565b6040518082815260200191505060405180910390f35b3480156107c257600080fd5b506107cb611bbb565b604051808260ff1660ff16815260200191505060405180910390f35b3480156107f357600080fd5b506107fc611bc0565b6040518082815260200191505060405180910390f35b34801561081e57600080fd5b50610827611c07565b6040518082815260200191505060405180910390f35b34801561084957600080fd5b5061086860048036038101908080359060200190929190505050611c0d565b005b34801561087657600080fd5b506108ab600480360381019080803573ffffffffffffffffffffffffffffffffffffffff169060200190929190505050612206565b005b3480156108b957600080fd5b506108c26122db565b604051808273ffffffffffffffffffffffffffffffffffffffff1673ffffffffffffffffffffffffffffffffffffffff16815260200191505060405180910390f35b600a81565b60018054600181600116156101000203166002900480601f01602080910402602001604051908101604052809291908181526020018280546001816001161561010002031660029004801561099f5780601f106109745761010080835404028352916020019161099f565b820191906000526020600020905b81548152906001019060200180831161098257829003601f168201915b505050505081565b69065a4da25d3016c0000081565b600260009054906101000a900473ffffffffffffffffffffffffffffffffffffffff1681565b690a968163f0a57b40000081565b60045481565b61012c81565b69021e19e0c9bab240000081565b60166020528060005260406000206000915054906101000a900460ff1681565b600a81565b60065481565b600581565b62278d0081565b6000600260009054906101000a900473ffffffffffffffffffffffffffffffffffffffff1673ffffffffffffffffffffffffffffffffffffffff1663c4a1dbad336040518263ffffffff167c0100000000000000000000000000000000000000000000000000000000028152600401808273ffffffffffffffffffffffffffffffffffffffff1673ffffffffffffffffffffffffffffffffffffffff168152602001915050602060405180830381600087803b158015610af957600080fd5b505af1158015610b0d573d6000803e3d6000fd5b505050506040513d6020811015610b2357600080fd5b810190808051906020019092919050505080610c335750600260009054906101000a900473ffffffffffffffffffffffffffffffffffffffff1673ffffffffffffffffffffffffffffffffffffffff1663bac30981336040518263ffffffff167c0100000000000000000000000000000000000000000000000000000000028152600401808273ffffffffffffffffffffffffffffffffffffffff1673ffffffffffffffffffffffffffffffffffffffff168152602001915050602060405180830381600087803b158015610bf757600080fd5b505af1158015610c0b573d6000803e3d6000fd5b505050506040513d6020811015610c2157600080fd5b81019080805190602001909291905050505b1515610c3e57600080fd5b610c4782612301565b9050826010600083815260200190815260200160002081905550505050565b6101f481565b606481565b60146020528060005260406000206000915090505481565b600080600080600080600080600080600b60003373ffffffffffffffffffffffffffffffffffffffff1673ffffffffffffffffffffffffffffffffffffffff16815260200190815260200160002054111515610ce457600080fd5b610ced42612301565b9450610d3962015180610d2b62015180610d126004544261234290919063ffffffff16565b811515610d1b57fe5b064261234290919063ffffffff16565b61235e90919063ffffffff16565b9350600092505b83831015610d9757610d5233866123a5565b89019850610d603386612a6b565b88019750610d6e3386612cfe565b87019650610d88620151808661234290919063ffffffff16565b94508280600101935050610d40565b7fbf79b1192913bd26b5198d852f8a38b4852fa1ac348957e63ffecd43ad427b58338a8a8a604051808573ffffffffffffffffffffffffffffffffffffffff1673ffffffffffffffffffffffffffffffffffffffff16815260200184815260200183815260200182815260200194505050505060405180910390a1610e3787610e298a8c61305490919063ffffffff16565b61305490919063ffffffff16565b915081601760003373ffffffffffffffffffffffffffffffffffffffff1673ffffffffffffffffffffffffffffffffffffffff1681526020019081526020016000206000828254019250508190555089151561121a57610ee3600560ff16600b60003373ffffffffffffffffffffffffffffffffffffffff1673ffffffffffffffffffffffffffffffffffffffff1681526020019081526020016000205461307590919063ffffffff16565b601260003373ffffffffffffffffffffffffffffffffffffffff1673ffffffffffffffffffffffffffffffffffffffff16815260200190815260200160002054108015610f92575062278d00600a60003373ffffffffffffffffffffffffffffffffffffffff1673ffffffffffffffffffffffffffffffffffffffff1681526020019081526020016000206000815481101515610f7c57fe5b9060005260206000209060040201600001540142105b15610f9c57611455565b600090505b600a60003373ffffffffffffffffffffffffffffffffffffffff1673ffffffffffffffffffffffffffffffffffffffff168152602001908152602001600020805490508110156110d05742600a60003373ffffffffffffffffffffffffffffffffffffffff1673ffffffffffffffffffffffffffffffffffffffff1681526020019081526020016000208281548110151561103857fe5b9060005260206000209060040201600201819055506001600a60003373ffffffffffffffffffffffffffffffffffffffff1673ffffffffffffffffffffffffffffffffffffffff1681526020019081526020016000208281548110151561109b57fe5b906000526020600020906004020160030160006101000a81548160ff0219169083151502179055508080600101915050610fa1565b600b60003373ffffffffffffffffffffffffffffffffffffffff1673ffffffffffffffffffffffffffffffffffffffff1681526020019081526020016000205495507f1d7e20a3af434720a531a7785440694acdceb547ac66ab57e37f52ba0d6edee53387604051808373ffffffffffffffffffffffffffffffffffffffff1673ffffffffffffffffffffffffffffffffffffffff1681526020018281526020019250505060405180910390a185601760003373ffffffffffffffffffffffffffffffffffffffff1673ffffffffffffffffffffffffffffffffffffffff168152602001908152602001600020600082825401925050819055506000600b60003373ffffffffffffffffffffffffffffffffffffffff1673ffffffffffffffffffffffffffffffffffffffff1681526020019081526020016000208190555061121933876130ab565b5b600260009054906101000a900473ffffffffffffffffffffffffffffffffffffffff1673ffffffffffffffffffffffffffffffffffffffff1663a9059cbb33611292896112846064611276605f8a61307590919063ffffffff16565b61235e90919063ffffffff16565b61305490919063ffffffff16565b6040518363ffffffff167c0100000000000000000000000000000000000000000000000000000000028152600401808373ffffffffffffffffffffffffffffffffffffffff1673ffffffffffffffffffffffffffffffffffffffff16815260200182815260200192505050600060405180830381600087803b15801561131757600080fd5b505af115801561132b573d6000803e3d6000fd5b50505050600260009054906101000a900473ffffffffffffffffffffffffffffffffffffffff1673ffffffffffffffffffffffffffffffffffffffff1663a9059cbb600360009054906101000a900473ffffffffffffffffffffffffffffffffffffffff166113b760646113a960058861307590919063ffffffff16565b61235e90919063ffffffff16565b6040518363ffffffff167c0100000000000000000000000000000000000000000000000000000000028152600401808373ffffffffffffffffffffffffffffffffffffffff1673ffffffffffffffffffffffffffffffffffffffff16815260200182815260200192505050600060405180830381600087803b15801561143c57600080fd5b505af1158015611450573d6000803e3d6000fd5b505050505b50505050505050505050565b6000809054906101000a900473ffffffffffffffffffffffffffffffffffffffff1681565b6000809054906101000a900473ffffffffffffffffffffffffffffffffffffffff1673ffffffffffffffffffffffffffffffffffffffff163373ffffffffffffffffffffffffffffffffffffffff161415156114e157600080fd5b80600360006101000a81548173ffffffffffffffffffffffffffffffffffffffff021916908373ffffffffffffffffffffffffffffffffffffffff16021790555050565b600381565b60136020528060005260406000206000915054906101000a900473ffffffffffffffffffffffffffffffffffffffff1681565b6000600260009054906101000a900473ffffffffffffffffffffffffffffffffffffffff1673ffffffffffffffffffffffffffffffffffffffff166323b872dd3330866040518463ffffffff167c0100000000000000000000000000000000000000000000000000000000028152600401808473ffffffffffffffffffffffffffffffffffffffff1673ffffffffffffffffffffffffffffffffffffffff1681526020018373ffffffffffffffffffffffffffffffffffffffff1673ffffffffffffffffffffffffffffffffffffffff1681526020018281526020019350505050600060405180830381600087803b15801561165857600080fd5b505af115801561166c573d6000803e3d6000fd5b50505050600a60003373ffffffffffffffffffffffffffffffffffffffff1673ffffffffffffffffffffffffffffffffffffffff16815260200190815260200160002060806040519081016040528042815260200185815260200160008152602001600015158152509080600181540180825580915050906001820390600052602060002090600402016000909192909190915060008201518160000155602082015181600101556040820151816002015560608201518160030160006101000a81548160ff02191690831515021790555050505061179383600b60003373ffffffffffffffffffffffffffffffffffffffff1673ffffffffffffffffffffffffffffffffffffffff1681526020019081526020016000205461305490919063ffffffff16565b600b60003373ffffffffffffffffffffffffffffffffffffffff1673ffffffffffffffffffffffffffffffffffffffff1681526020019081526020016000208190555081601660003373ffffffffffffffffffffffffffffffffffffffff1673ffffffffffffffffffffffffffffffffffffffff16815260200190815260200160002060006101000a81548160ff021916908315150217905550600090505b600760003373ffffffffffffffffffffffffffffffffffffffff1673ffffffffffffffffffffffffffffffffffffffff16815260200190815260200160002080549050811015611b99576001600a60003373ffffffffffffffffffffffffffffffffffffffff1673ffffffffffffffffffffffffffffffffffffffff16815260200190815260200160002080549050141561198c57600160116000600760003373ffffffffffffffffffffffffffffffffffffffff1673ffffffffffffffffffffffffffffffffffffffff1681526020019081526020016000208481548110151561191957fe5b9060005260206000200160009054906101000a900473ffffffffffffffffffffffffffffffffffffffff1673ffffffffffffffffffffffffffffffffffffffff1673ffffffffffffffffffffffffffffffffffffffff168152602001908152602001600020600082825401925050819055505b611a548360126000600760003373ffffffffffffffffffffffffffffffffffffffff1673ffffffffffffffffffffffffffffffffffffffff168152602001908152602001600020858154811015156119e057fe5b9060005260206000200160009054906101000a900473ffffffffffffffffffffffffffffffffffffffff1673ffffffffffffffffffffffffffffffffffffffff1673ffffffffffffffffffffffffffffffffffffffff1681526020019081526020016000205461305490919063ffffffff16565b60126000600760003373ffffffffffffffffffffffffffffffffffffffff1673ffffffffffffffffffffffffffffffffffffffff16815260200190815260200160002084815481101515611aa457fe5b9060005260206000200160009054906101000a900473ffffffffffffffffffffffffffffffffffffffff1673ffffffffffffffffffffffffffffffffffffffff1673ffffffffffffffffffffffffffffffffffffffff16815260200190815260200160002081905550611b8c600760003373ffffffffffffffffffffffffffffffffffffffff1673ffffffffffffffffffffffffffffffffffffffff16815260200190815260200160002082815481101515611b5c57fe5b9060005260206000200160009054906101000a900473ffffffffffffffffffffffffffffffffffffffff16613495565b8080600101915050611832565b505050565b600581565b60176020528060005260406000206000915090505481565b601481565b6000601460003373ffffffffffffffffffffffffffffffffffffffff1673ffffffffffffffffffffffffffffffffffffffff16815260200190815260200160002054905090565b60055481565b60008060008060644233604051808381526020018273ffffffffffffffffffffffffffffffffffffffff1673ffffffffffffffffffffffffffffffffffffffff166c0100000000000000000000000002815260140192505050604051809103902060019004811515611c7b57fe5b069350611c938460065461305490919063ffffffff16565b9250611caa8460065461305490919063ffffffff16565b600681905550600073ffffffffffffffffffffffffffffffffffffffff166013600085815260200190815260200160002060009054906101000a900473ffffffffffffffffffffffffffffffffffffffff1673ffffffffffffffffffffffffffffffffffffffff16141515611d1e57600080fd5b600073ffffffffffffffffffffffffffffffffffffffff166013600087815260200190815260200160002060009054906101000a900473ffffffffffffffffffffffffffffffffffffffff1673ffffffffffffffffffffffffffffffffffffffff1614151515611d8d57600080fd5b336013600085815260200190815260200160002060006101000a81548173ffffffffffffffffffffffffffffffffffffffff021916908373ffffffffffffffffffffffffffffffffffffffff16021790555082601460003373ffffffffffffffffffffffffffffffffffffffff1673ffffffffffffffffffffffffffffffffffffffff168152602001908152602001600020819055507f29317bf7eb9941522faad78efabe2efda58f223f6b421c6e91762fb0484cbdad33600654604051808373ffffffffffffffffffffffffffffffffffffffff1673ffffffffffffffffffffffffffffffffffffffff1681526020018281526020019250505060405180910390a16013600086815260200190815260200160002060009054906101000a900473ffffffffffffffffffffffffffffffffffffffff16915081600f60003373ffffffffffffffffffffffffffffffffffffffff1673ffffffffffffffffffffffffffffffffffffffff16815260200190815260200160002060006101000a81548173ffffffffffffffffffffffffffffffffffffffff021916908373ffffffffffffffffffffffffffffffffffffffff160217905550600860008373ffffffffffffffffffffffffffffffffffffffff1673ffffffffffffffffffffffffffffffffffffffff1681526020019081526020016000203390806001815401808255809150509060018203906000526020600020016000909192909190916101000a81548173ffffffffffffffffffffffffffffffffffffffff021916908373ffffffffffffffffffffffffffffffffffffffff16021790555050600760003373ffffffffffffffffffffffffffffffffffffffff1673ffffffffffffffffffffffffffffffffffffffff1681526020019081526020016000208290806001815401808255809150509060018203906000526020600020016000909192909190916101000a81548173ffffffffffffffffffffffffffffffffffffffff021916908373ffffffffffffffffffffffffffffffffffffffff16021790555050600090505b600760008373ffffffffffffffffffffffffffffffffffffffff1673ffffffffffffffffffffffffffffffffffffffff168152602001908152602001600020805490508110156121ff57600760003373ffffffffffffffffffffffffffffffffffffffff1673ffffffffffffffffffffffffffffffffffffffff168152602001908152602001600020600760008473ffffffffffffffffffffffffffffffffffffffff1673ffffffffffffffffffffffffffffffffffffffff1681526020019081526020016000208281548110151561216457fe5b9060005260206000200160009054906101000a900473ffffffffffffffffffffffffffffffffffffffff1690806001815401808255809150509060018203906000526020600020016000909192909190916101000a81548173ffffffffffffffffffffffffffffffffffffffff021916908373ffffffffffffffffffffffffffffffffffffffff16021790555050808060010191505061208f565b5050505050565b6000809054906101000a900473ffffffffffffffffffffffffffffffffffffffff1673ffffffffffffffffffffffffffffffffffffffff163373ffffffffffffffffffffffffffffffffffffffff1614151561226157600080fd5b600073ffffffffffffffffffffffffffffffffffffffff168173ffffffffffffffffffffffffffffffffffffffff161415156122d857806000806101000a81548173ffffffffffffffffffffffffffffffffffffffff021916908373ffffffffffffffffffffffffffffffffffffffff1602179055505b50565b600360009054906101000a900473ffffffffffffffffffffffffffffffffffffffff1681565b6000600161233a620151806123216004548661234290919063ffffffff16565b81151561232a57fe5b068461234290919063ffffffff16565b039050919050565b600082821115151561235357600080fd5b818303905092915050565b60008060008311151561237057600080fd5b828481151561237b57fe5b049050828481151561238957fe5b06818402018414151561239b57600080fd5b8091505092915050565b6000806000806000806000600a60008a73ffffffffffffffffffffffffffffffffffffffff1673ffffffffffffffffffffffffffffffffffffffff168152602001908152602001600020805490501115612a5d57600090505b600a60008973ffffffffffffffffffffffffffffffffffffffff1673ffffffffffffffffffffffffffffffffffffffff16815260200190815260200160002080549050811015612a5c57600a60008973ffffffffffffffffffffffffffffffffffffffff1673ffffffffffffffffffffffffffffffffffffffff1681526020019081526020016000208181548110151561249457fe5b906000526020600020906004020160030160009054906101000a900460ff16156127ba57600a60008973ffffffffffffffffffffffffffffffffffffffff1673ffffffffffffffffffffffffffffffffffffffff1681526020019081526020016000208181548110151561250457fe5b90600052602060002090600402016000015487101580156125825750600a60008973ffffffffffffffffffffffffffffffffffffffff1673ffffffffffffffffffffffffffffffffffffffff1681526020019081526020016000208181548110151561256c57fe5b9060005260206000209060040201600201548711155b156127b557601660008973ffffffffffffffffffffffffffffffffffffffff1673ffffffffffffffffffffffffffffffffffffffff16815260200190815260200160002060009054906101000a900460ff161561272a576125e287612301565b935061264a600a60008a73ffffffffffffffffffffffffffffffffffffffff1673ffffffffffffffffffffffffffffffffffffffff1681526020019081526020016000208281548110151561263357fe5b906000526020600020906004020160000154612301565b92506126f66103e86126e860036126da6010600089815260200190815260200160002054600a60008f73ffffffffffffffffffffffffffffffffffffffff1673ffffffffffffffffffffffffffffffffffffffff168152602001908152602001600020878154811015156126ba57fe5b90600052602060002090600402016001015461307590919063ffffffff16565b61307590919063ffffffff16565b61235e90919063ffffffff16565b915061271e60106000868152602001908152602001600020548361235e90919063ffffffff16565b915081850194506127b4565b6127af6103e86127a16003600a60008d73ffffffffffffffffffffffffffffffffffffffff1673ffffffffffffffffffffffffffffffffffffffff1681526020019081526020016000208581548110151561278157fe5b90600052602060002090600402016001015461307590919063ffffffff16565b61235e90919063ffffffff16565b850194505b5b612a4f565b600a60008973ffffffffffffffffffffffffffffffffffffffff1673ffffffffffffffffffffffffffffffffffffffff1681526020019081526020016000208181548110151561280657fe5b90600052602060002090600402016000015487101515612a4e57601660008973ffffffffffffffffffffffffffffffffffffffff1673ffffffffffffffffffffffffffffffffffffffff16815260200190815260200160002060009054906101000a900460ff16156129c35761287b87612301565b93506128e3600a60008a73ffffffffffffffffffffffffffffffffffffffff1673ffffffffffffffffffffffffffffffffffffffff168152602001908152602001600020828154811015156128cc57fe5b906000526020600020906004020160000154612301565b925061298f6103e861298160036129736010600089815260200190815260200160002054600a60008f73ffffffffffffffffffffffffffffffffffffffff1673ffffffffffffffffffffffffffffffffffffffff1681526020019081526020016000208781548110151561295357fe5b90600052602060002090600402016001015461307590919063ffffffff16565b61307590919063ffffffff16565b61235e90919063ffffffff16565b91506129b760106000868152602001908152602001600020548361235e90919063ffffffff16565b91508185019450612a4d565b612a486103e8612a3a6003600a60008d73ffffffffffffffffffffffffffffffffffffffff1673ffffffffffffffffffffffffffffffffffffffff16815260200190815260200160002085815481101515612a1a57fe5b90600052602060002090600402016001015461307590919063ffffffff16565b61235e90919063ffffffff16565b850194505b5b5b80806001019150506123fe565b5b849550505050505092915050565b600080600080600080600080600080600860008d73ffffffffffffffffffffffffffffffffffffffff1673ffffffffffffffffffffffffffffffffffffffff1681526020019081526020016000209850612ac58c8c613f46565b9750600092505b8880549050831015612cda57612b1a8984815481101515612ae957fe5b9060005260206000200160009054906101000a900473ffffffffffffffffffffffffffffffffffffffff168c613f46565b96508688101515612b5857612b4f6064612b41601460ff168a61307590919063ffffffff16565b61235e90919063ffffffff16565b85019450612b87565b612b826064612b74601460ff168b61307590919063ffffffff16565b61235e90919063ffffffff16565b850194505b600860008a85815481101515612b9957fe5b9060005260206000200160009054906101000a900473ffffffffffffffffffffffffffffffffffffffff1673ffffffffffffffffffffffffffffffffffffffff1673ffffffffffffffffffffffffffffffffffffffff1681526020019081526020016000209150600090505b8180549050811015612ccd57612c538282815481101515612c2257fe5b9060005260206000200160009054906101000a900473ffffffffffffffffffffffffffffffffffffffff168c613f46565b95508588101515612c9157612c886064612c7a600a60ff168a61307590919063ffffffff16565b61235e90919063ffffffff16565b84019350612cc0565b612cbb6064612cad600a60ff168b61307590919063ffffffff16565b61235e90919063ffffffff16565b840193505b8080600101915050612c05565b8280600101935050612acc565b612ced848661305490919063ffffffff16565b995050505050505050505092915050565b6000806000806000600960008873ffffffffffffffffffffffffffffffffffffffff1673ffffffffffffffffffffffffffffffffffffffff168152602001908152602001600020805490501415612d58576000935061304b565b600091505b600960008773ffffffffffffffffffffffffffffffffffffffff1673ffffffffffffffffffffffffffffffffffffffff1681526020019081526020016000208054905082101561301b576001600960008873ffffffffffffffffffffffffffffffffffffffff1673ffffffffffffffffffffffffffffffffffffffff1681526020019081526020016000208054905003821015612f3957600960008773ffffffffffffffffffffffffffffffffffffffff1673ffffffffffffffffffffffffffffffffffffffff16815260200190815260200160002082815481101515612e4057fe5b9060005260206000209060020201600101548510158015612ec15750600960008773ffffffffffffffffffffffffffffffffffffffff1673ffffffffffffffffffffffffffffffffffffffff16815260200190815260200160002060018301815481101515612eab57fe5b9060005260206000209060020201600101548511155b15612f3457600960008773ffffffffffffffffffffffffffffffffffffffff1673ffffffffffffffffffffffffffffffffffffffff16815260200190815260200160002082815481101515612f1257fe5b906000526020600020906002020160000160009054906101000a900460ff1692505b61300e565b600960008773ffffffffffffffffffffffffffffffffffffffff1673ffffffffffffffffffffffffffffffffffffffff16815260200190815260200160002082815481101515612f8557fe5b9060005260206000209060020201600101548510151561300d57600960008773ffffffffffffffffffffffffffffffffffffffff1673ffffffffffffffffffffffffffffffffffffffff16815260200190815260200160002082815481101515612feb57fe5b906000526020600020906002020160000160009054906101000a900460ff1692505b5b8180600101925050612d5d565b60008360ff161115613046576130318686613f46565b905061303f81848888614222565b935061304b565b600093505b50505092915050565b600080828401905083811015151561306b57600080fd5b8091505092915050565b60008082840290506000841480613096575082848281151561309357fe5b04145b15156130a157600080fd5b8091505092915050565b60008090505b600760008473ffffffffffffffffffffffffffffffffffffffff1673ffffffffffffffffffffffffffffffffffffffff1681526020019081526020016000208054905081101561349057600060116000600760008773ffffffffffffffffffffffffffffffffffffffff1673ffffffffffffffffffffffffffffffffffffffff1681526020019081526020016000208481548110151561314d57fe5b9060005260206000200160009054906101000a900473ffffffffffffffffffffffffffffffffffffffff1673ffffffffffffffffffffffffffffffffffffffff1673ffffffffffffffffffffffffffffffffffffffff168152602001908152602001600020541115156131bf57600080fd5b600160116000600760008773ffffffffffffffffffffffffffffffffffffffff1673ffffffffffffffffffffffffffffffffffffffff1681526020019081526020016000208481548110151561321157fe5b9060005260206000200160009054906101000a900473ffffffffffffffffffffffffffffffffffffffff1673ffffffffffffffffffffffffffffffffffffffff1673ffffffffffffffffffffffffffffffffffffffff1681526020019081526020016000206000828254039250508190555061334b8260126000600760008873ffffffffffffffffffffffffffffffffffffffff1673ffffffffffffffffffffffffffffffffffffffff168152602001908152602001600020858154811015156132d757fe5b9060005260206000200160009054906101000a900473ffffffffffffffffffffffffffffffffffffffff1673ffffffffffffffffffffffffffffffffffffffff1673ffffffffffffffffffffffffffffffffffffffff1681526020019081526020016000205461234290919063ffffffff16565b60126000600760008773ffffffffffffffffffffffffffffffffffffffff1673ffffffffffffffffffffffffffffffffffffffff1681526020019081526020016000208481548110151561339b57fe5b9060005260206000200160009054906101000a900473ffffffffffffffffffffffffffffffffffffffff1673ffffffffffffffffffffffffffffffffffffffff1673ffffffffffffffffffffffffffffffffffffffff16815260200190815260200160002081905550613483600760008573ffffffffffffffffffffffffffffffffffffffff1673ffffffffffffffffffffffffffffffffffffffff1681526020019081526020016000208281548110151561345357fe5b9060005260206000200160009054906101000a900473ffffffffffffffffffffffffffffffffffffffff16613495565b80806001019150506130b1565b505050565b6101f461ffff16601160008373ffffffffffffffffffffffffffffffffffffffff1673ffffffffffffffffffffffffffffffffffffffff16815260200190815260200160002054101580156135335750690a968163f0a57b400000601260008373ffffffffffffffffffffffffffffffffffffffff1673ffffffffffffffffffffffffffffffffffffffff1681526020019081526020016000205410155b1561376a576003601560008373ffffffffffffffffffffffffffffffffffffffff1673ffffffffffffffffffffffffffffffffffffffff16815260200190815260200160002060009054906101000a900460ff1660ff16141515613765577fc7d5ff51d6870ddf5a0064f51d3b5ddc326806d4c4a84146226d42ea13e0bf3e81601560008473ffffffffffffffffffffffffffffffffffffffff1673ffffffffffffffffffffffffffffffffffffffff16815260200190815260200160002060009054906101000a900460ff166003604051808473ffffffffffffffffffffffffffffffffffffffff1673ffffffffffffffffffffffffffffffffffffffff1681526020018360ff1660ff1681526020018260ff168152602001935050505060405180910390a16003601560008373ffffffffffffffffffffffffffffffffffffffff1673ffffffffffffffffffffffffffffffffffffffff16815260200190815260200160002060006101000a81548160ff021916908360ff160217905550600960008273ffffffffffffffffffffffffffffffffffffffff1673ffffffffffffffffffffffffffffffffffffffff1681526020019081526020016000206040805190810160405280600360ff168152602001428152509080600181540180825580915050906001820390600052602060002090600202016000909192909190915060008201518160000160006101000a81548160ff021916908360ff160217905550602082015181600101555050505b613f43565b61012c61ffff16601160008373ffffffffffffffffffffffffffffffffffffffff1673ffffffffffffffffffffffffffffffffffffffff1681526020019081526020016000205410158015613808575069065a4da25d3016c00000601260008373ffffffffffffffffffffffffffffffffffffffff1673ffffffffffffffffffffffffffffffffffffffff1681526020019081526020016000205410155b15613a3f576002601560008373ffffffffffffffffffffffffffffffffffffffff1673ffffffffffffffffffffffffffffffffffffffff16815260200190815260200160002060009054906101000a900460ff1660ff16141515613a3a577fc7d5ff51d6870ddf5a0064f51d3b5ddc326806d4c4a84146226d42ea13e0bf3e81601560008473ffffffffffffffffffffffffffffffffffffffff1673ffffffffffffffffffffffffffffffffffffffff16815260200190815260200160002060009054906101000a900460ff166002604051808473ffffffffffffffffffffffffffffffffffffffff1673ffffffffffffffffffffffffffffffffffffffff1681526020018360ff1660ff1681526020018260ff168152602001935050505060405180910390a16002601560008373ffffffffffffffffffffffffffffffffffffffff1673ffffffffffffffffffffffffffffffffffffffff16815260200190815260200160002060006101000a81548160ff021916908360ff160217905550600960008273ffffffffffffffffffffffffffffffffffffffff1673ffffffffffffffffffffffffffffffffffffffff1681526020019081526020016000206040805190810160405280600260ff168152602001428152509080600181540180825580915050906001820390600052602060002090600202016000909192909190915060008201518160000160006101000a81548160ff021916908360ff160217905550602082015181600101555050505b613f42565b606461ffff16601160008373ffffffffffffffffffffffffffffffffffffffff1673ffffffffffffffffffffffffffffffffffffffff1681526020019081526020016000205410158015613adc575069021e19e0c9bab2400000601260008373ffffffffffffffffffffffffffffffffffffffff1673ffffffffffffffffffffffffffffffffffffffff1681526020019081526020016000205410155b15613d13576001601560008373ffffffffffffffffffffffffffffffffffffffff1673ffffffffffffffffffffffffffffffffffffffff16815260200190815260200160002060009054906101000a900460ff1660ff16141515613d0e577fc7d5ff51d6870ddf5a0064f51d3b5ddc326806d4c4a84146226d42ea13e0bf3e81601560008473ffffffffffffffffffffffffffffffffffffffff1673ffffffffffffffffffffffffffffffffffffffff16815260200190815260200160002060009054906101000a900460ff166001604051808473ffffffffffffffffffffffffffffffffffffffff1673ffffffffffffffffffffffffffffffffffffffff1681526020018360ff1660ff1681526020018260ff168152602001935050505060405180910390a16001601560008373ffffffffffffffffffffffffffffffffffffffff1673ffffffffffffffffffffffffffffffffffffffff16815260200190815260200160002060006101000a81548160ff021916908360ff160217905550600960008273ffffffffffffffffffffffffffffffffffffffff1673ffffffffffffffffffffffffffffffffffffffff1681526020019081526020016000206040805190810160405280600160ff168152602001428152509080600181540180825580915050906001820390600052602060002090600202016000909192909190915060008201518160000160006101000a81548160ff021916908360ff160217905550602082015181600101555050505b613f41565b6000601560008373ffffffffffffffffffffffffffffffffffffffff1673ffffffffffffffffffffffffffffffffffffffff16815260200190815260200160002060009054906101000a900460ff1660ff16141515613f40577fc7d5ff51d6870ddf5a0064f51d3b5ddc326806d4c4a84146226d42ea13e0bf3e81601560008473ffffffffffffffffffffffffffffffffffffffff1673ffffffffffffffffffffffffffffffffffffffff16815260200190815260200160002060009054906101000a900460ff166000604051808473ffffffffffffffffffffffffffffffffffffffff1673ffffffffffffffffffffffffffffffffffffffff1681526020018360ff1660ff1681526020018260ff168152602001935050505060405180910390a16000601560008373ffffffffffffffffffffffffffffffffffffffff1673ffffffffffffffffffffffffffffffffffffffff16815260200190815260200160002060006101000a81548160ff021916908360ff160217905550600960008273ffffffffffffffffffffffffffffffffffffffff1673ffffffffffffffffffffffffffffffffffffffff1681526020019081526020016000206040805190810160405280600060ff168152602001428152509080600181540180825580915050906001820390600052602060002090600202016000909192909190915060008201518160000160006101000a81548160ff021916908360ff160217905550602082015181600101555050505b5b5b5b50565b60008060008090505b600a60008673ffffffffffffffffffffffffffffffffffffffff1673ffffffffffffffffffffffffffffffffffffffff1681526020019081526020016000208054905081101561421757600a60008673ffffffffffffffffffffffffffffffffffffffff1673ffffffffffffffffffffffffffffffffffffffff16815260200190815260200160002081815481101515613fe557fe5b906000526020600020906004020160030160009054906101000a900460ff161561414057600a60008673ffffffffffffffffffffffffffffffffffffffff1673ffffffffffffffffffffffffffffffffffffffff1681526020019081526020016000208181548110151561405557fe5b90600052602060002090600402016000015484101580156140d35750600a60008673ffffffffffffffffffffffffffffffffffffffff1673ffffffffffffffffffffffffffffffffffffffff168152602001908152602001600020818154811015156140bd57fe5b9060005260206000209060040201600201548411155b1561413b57600a60008673ffffffffffffffffffffffffffffffffffffffff1673ffffffffffffffffffffffffffffffffffffffff1681526020019081526020016000208181548110151561412457fe5b906000526020600020906004020160010154820191505b61420a565b600a60008673ffffffffffffffffffffffffffffffffffffffff1673ffffffffffffffffffffffffffffffffffffffff1681526020019081526020016000208181548110151561418c57fe5b9060005260206000209060040201600001548410151561420957600a60008673ffffffffffffffffffffffffffffffffffffffff1673ffffffffffffffffffffffffffffffffffffffff168152602001908152602001600020818154811015156141f257fe5b906000526020600020906004020160010154820191505b5b8080600101915050613f4f565b819250505092915050565b6000806000806000600860008873ffffffffffffffffffffffffffffffffffffffff1673ffffffffffffffffffffffffffffffffffffffff16815260200190815260200160002080549050111561444157600091505b600860008773ffffffffffffffffffffffffffffffffffffffff1673ffffffffffffffffffffffffffffffffffffffff1681526020019081526020016000208054905082101561444057614342600860008873ffffffffffffffffffffffffffffffffffffffff1673ffffffffffffffffffffffffffffffffffffffff1681526020019081526020016000208381548110151561431157fe5b9060005260206000200160009054906101000a900473ffffffffffffffffffffffffffffffffffffffff1686613f46565b9050808810151561437f5761437660646143688960ff168461307590919063ffffffff16565b61235e90919063ffffffff16565b830192506143ad565b6143a8606461439a8960ff168b61307590919063ffffffff16565b61235e90919063ffffffff16565b830192505b61442f8888600860008a73ffffffffffffffffffffffffffffffffffffffff1673ffffffffffffffffffffffffffffffffffffffff168152602001908152602001600020858154811015156143fe57fe5b9060005260206000200160009054906101000a900473ffffffffffffffffffffffffffffffffffffffff1688614222565b830192508180600101925050614278565b5b600093505050509493505050505600a165627a7a723058207419651e7dd950a8b26fede98a0edbe6f598f6dfc07304c2e9fcc29a8f5d50850029",
  "source": "pragma solidity ^0.4.23;\n/*\n *             ╔═╗┌─┐┌─┐┬┌─┐┬┌─┐┬   ┌─────────────────────────┐ ╦ ╦┌─┐┌┐ ╔═╗┬┌┬┐┌─┐\n *             ║ ║├┤ ├┤ ││  │├─┤│   │ KOL Community Foundation│ │ ║║║├┤ ├┴┐╚═╗│ │ ├┤\n *             ╚═╝└  └  ┴└─┘┴┴ ┴┴─┘ └─┬─────────────────────┬─┘ ╚╩╝└─┘└─┘╚═╝┴ ┴ └─┘\n *   ┌────────────────────────────────┘                     └──────────────────────────────┐\n *   │    ┌─────────────────────────────────────────────────────────────────────────────┐  │\n *   └────┤ Dev:Jack Koe ├─────────────┤ Special for: KOL  ├───────────────┤ 20200422   ├──┘\n *        └─────────────────────────────────────────────────────────────────────────────┘\n */\n\n library SafeMath {\n   function mul(uint a, uint b) internal pure  returns (uint) {\n     uint c = a * b;\n     require(a == 0 || c / a == b);\n     return c;\n   }\n   function div(uint a, uint b) internal pure returns (uint) {\n     require(b > 0);\n     uint c = a / b;\n     require(a == b * c + a % b);\n     return c;\n   }\n   function sub(uint a, uint b) internal pure returns (uint) {\n     require(b <= a);\n     return a - b;\n   }\n   function add(uint a, uint b) internal pure returns (uint) {\n     uint c = a + b;\n     require(c >= a);\n     return c;\n   }\n   function max64(uint64 a, uint64 b) internal  pure returns (uint64) {\n     return a >= b ? a : b;\n   }\n   function min64(uint64 a, uint64 b) internal  pure returns (uint64) {\n     return a < b ? a : b;\n   }\n   function max256(uint256 a, uint256 b) internal  pure returns (uint256) {\n     return a >= b ? a : b;\n   }\n   function min256(uint256 a, uint256 b) internal  pure returns (uint256) {\n     return a < b ? a : b;\n   }\n }\n\n /**\n  * title KOL Promotion contract\n  * dev visit: https://github.com/jackoelv/KOL/\n */\n\n contract ERC20Basic {\n   uint public totalSupply;\n   function balanceOf(address who) public constant returns (uint);\n   function transfer(address to, uint value) public;\n   event Transfer(address indexed from, address indexed to, uint value);\n }\n\n contract ERC20 is ERC20Basic {\n   function allowance(address owner, address spender) public constant returns (uint);\n   function transferFrom(address from, address to, uint value) public;\n   function approve(address spender, uint value) public;\n   event Approval(address indexed owner, address indexed spender, uint value);\n }\n\n /**\n  * title KOL Promotion contract\n  * dev visit: https://github.com/jackoelv/KOL/\n */\n\n contract BasicToken is ERC20Basic {\n\n   using SafeMath for uint;\n\n   mapping(address => uint) balances;\n\n   function transfer(address _to, uint _value) public{\n     balances[msg.sender] = balances[msg.sender].sub(_value);\n     balances[_to] = balances[_to].add(_value);\n     emit Transfer(msg.sender, _to, _value);\n   }\n\n   function balanceOf(address _owner) public constant returns (uint balance) {\n     return balances[_owner];\n   }\n }\n\n /**\n  * title KOL Promotion contract\n  * dev visit: https://github.com/jackoelv/KOL/\n */\n\n contract StandardToken is BasicToken, ERC20 {\n   mapping (address => mapping (address => uint)) allowed;\n   uint256 public userSupplyed;\n\n   function transferFrom(address _from, address _to, uint _value) public {\n     balances[_to] = balances[_to].add(_value);\n     balances[_from] = balances[_from].sub(_value);\n     allowed[_from][msg.sender] = allowed[_from][msg.sender].sub(_value);\n     emit Transfer(_from, _to, _value);\n   }\n\n   function approve(address _spender, uint _value) public{\n     require((_value == 0) || (allowed[msg.sender][_spender] == 0)) ;\n     allowed[msg.sender][_spender] = _value;\n     emit Approval(msg.sender, _spender, _value);\n   }\n\n   function allowance(address _owner, address _spender) public constant returns (uint remaining) {\n     return allowed[_owner][_spender];\n   }\n }\n contract KOL is StandardToken {\n   function queryNode(address _addr) public view returns(bool);\n   function querySuperNode(address _addr) public view returns(bool);\n }\n\n /**\n  * title KOL Promotion contract\n  * dev visit: https://github.com/jackoelv/KOL/\n */\n\n contract Ownable {\n     address public owner;\n\n     constructor() public{\n         owner = msg.sender;\n     }\n\n     modifier onlyOwner {\n         require(msg.sender == owner);\n         _;\n     }\n     function transferOwnership(address newOwner) onlyOwner public{\n         if (newOwner != address(0)) {\n             owner = newOwner;\n         }\n     }\n }\n /**\n  * title KOL Promotion contract\n  * dev visit: https://github.com/jackoelv/KOL/\n */\ncontract KOLPromote is Ownable{\n  using SafeMath for uint256;\n  string public name = \"KOL Promotion\";\n  KOL public kol;\n  address public reciever;\n\n  uint256 public begin = 1588262400;//2020年5月1日0点0分0秒\n  uint256 public end;\n\n  uint256 public iCode;\n\n\n\n  uint8 public constant userLevel1 = 20;\n  uint8 public constant userLevel2 = 10;\n\n  uint16 public constant comLevel1Users = 100;\n  uint16 public constant comLevel2Users = 300;\n  uint16 public constant comLevel3Users = 500;\n\n  uint256 public constant comLevel1Amount = 10000 * (10 ** 18);\n  uint256 public constant comLevel2Amount = 30000 * (10 ** 18);\n  uint256 public constant comLevel3Amount = 50000 * (10 ** 18);\n\n  uint8 public constant comLevel1 = 3;\n  uint8 public constant comLevel2 = 5;\n  uint8 public constant comLevel3 = 10;\n  uint8 public constant withDrawRate = 5;\n\n  uint256 public constant withDrawDays = 30 days;\n\n\n  /* address[] private inviteAddr;// A->B->C: inviteAddr= B,A\n  address[] private childAddr;// A-->B,A-->C,childAddr= B, C */\n\n\n\n  struct lock{\n    uint256 begin;\n    uint256 amount;\n    uint256 end;\n    bool withDrawed;\n  }\n\n  struct teamRate{\n    uint8 rate;\n    uint256 changeTime;\n\n  }\n\n  struct inviteBonus{\n    uint256 begin;//网体开始时间\n    uint256 dayBonus;//网体当日加速\n    uint256 hisTotalBonus;\n  }\n  struct withDraws{\n    uint256 time;\n    uint256 amount;\n  }\n\n  mapping (address => address[]) internal InviteList;\n  mapping (address => address[]) internal ChildAddrs;\n  mapping (address => teamRate[]) internal TeamRateList;\n  mapping (address => lock[]) internal LockHistory;\n  mapping (address => uint256) internal LockBalance;\n  mapping (address => uint256) internal LockHistoryBonus;\n  mapping (address => uint256) internal InviteHistoryBonus;\n  mapping (address => uint256) internal InviteCurrentDayBonus;\n\n  mapping (address => address) internal InviteRelation;//A=>B B is father;\n  mapping (uint256 => uint256) internal ClosePrice;\n  mapping (address => uint256) internal TotalUsers;\n  mapping (address => uint256) internal TotalLockingAmount;\n  mapping (uint256 => address) public InviteCode;\n  mapping (address => uint256) public RInviteCode;\n\n  mapping (address => uint8) internal isLevelN;\n  mapping (address => bool) public USDTOrCoin;\n\n  mapping (address => uint256) public WithDraws;\n\n\n  event Registed(address _user,uint256 inviteCode);\n  event GradeChanged(address _user,uint8 _oldLevel,uint8 _newLevel);\n  event WithDraw(address _user,uint256 _self,uint256 _promotion,uint256 _team);\n  event WithDrawBalance(address _user,uint256 _balance);\n\n\n  constructor(address _tokenAddress,address _reciever,uint256 _begin,uint256 _end) public {\n    kol = KOL(_tokenAddress);\n    begin = _begin;\n    end = _end;\n    reciever = _reciever;\n\n  }\n\n  modifier onlySuperNode() {\n    require(kol.querySuperNode(msg.sender));\n      _;\n  }\n  modifier onlyNode() {\n      require(kol.queryNode(msg.sender));\n      _;\n  }\n  modifier onlyNodes() {\n      require(kol.querySuperNode(msg.sender)||kol.queryNode(msg.sender));\n      _;\n  }\n  /**\n   * title 提现KOL到自己的账户\n   * dev visit: https://github.com/jackoelv/KOL/\n  */\n  function withDraw(bool _type) public {\n    //_type true，提利息，false，提本息\n    //提现就把利息全部提走，只能提整数，不能提小数点。\n    //如果是提现本金，需要判断一下用户是否满足自由提现的条件。\n    require(LockBalance[msg.sender] > 0);\n    uint256 self;\n    uint256 promotion;\n    uint256 team;\n    uint256 balance;\n    uint256 yestodayLastSecond = getYestodayLastSecond(now);//昨天的最后一秒\n    uint256 lastingDays = now.sub(now.sub(begin) % 86400).div(86400);//除法刚好是整数\n    for (uint i = 0 ; i<lastingDays; i++) {\n       self += calcuBonus(msg.sender,yestodayLastSecond);\n       promotion += calcuInviteBonus(msg.sender,yestodayLastSecond);\n       team += calcuTeamBonus(msg.sender,yestodayLastSecond);\n       yestodayLastSecond = yestodayLastSecond.sub(86400);\n    }\n    //应该把这个历史记录下来？爆出一个事件吧，不记录链上了。\n    emit WithDraw(msg.sender,self,promotion,team);\n    uint256 total = self.add(promotion).add(team);\n    WithDraws[msg.sender] += total;\n\n    if (!_type) {\n      //提利息+奖励\n      //今天凌晨的时间\n      //提本金，先判断是否符合条件，一旦提了本金就要注意给上级网体降级减少网体的加速。\n      if ((TotalLockingAmount[msg.sender] < LockBalance[msg.sender].mul(withDrawRate)) &&\n                                    (now < LockHistory[msg.sender][0].begin + withDrawDays)){\n          //没有达到提现要求\n          return;\n      }else{\n        for (uint j = 0; j<LockHistory[msg.sender].length; j++){\n          LockHistory[msg.sender][j].end = now;\n          LockHistory[msg.sender][j].withDrawed = true;\n        }\n        balance = LockBalance[msg.sender];\n        emit WithDrawBalance(msg.sender,balance);\n        WithDraws[msg.sender] += balance;\n        /* kol.transfer(msg.sender,balance); */\n        LockBalance[msg.sender] = 0;\n        afterDraw(msg.sender,balance);//提现以后需要对上级所有的网体人数和金额做减法。\n      }\n\n    }\n    kol.transfer(msg.sender,total.mul(95).div(100).add(balance));\n    kol.transfer(reciever,total.mul(5).div(100));\n\n  }\n  /**\n   * title 提现以后上级的处理\n   * dev visit: https://github.com/jackoelv/KOL/\n  */\n  function afterDraw(address _addr,uint256 _amount) private{\n    for (uint i = 0; i<InviteList[_addr].length; i++){\n        require(TotalUsers[InviteList[_addr][i]] > 0);\n        TotalUsers[InviteList[_addr][i]] -= 1;\n        //给上面的加入团队总金额\n        TotalLockingAmount[InviteList[_addr][i]] = TotalLockingAmount[InviteList[_addr][i]].sub(_amount);\n        queryAndSetLevelN(InviteList[_addr][i]);\n    }\n  }\n\n  /**\n   * title 获得自己的邀请码\n   * dev visit: https://github.com/jackoelv/KOL/\n  */\n  function getCode() public view returns(uint256) {\n    return (RInviteCode[msg.sender]);\n  }\n  /**\n   * title 注册并绑定邀请关系\n   * dev visit: https://github.com/jackoelv/KOL/\n  */\n  function register(uint256 _fInviteCode) public {\n    uint256 random = uint256(keccak256(now, msg.sender)) % 100;\n    uint256 _myInviteCode = iCode.add(random);\n    iCode = iCode.add(random);\n\n    require(InviteCode[_myInviteCode] == address(0));\n    require(InviteCode[_fInviteCode] != address(0));\n    InviteCode[_myInviteCode] = msg.sender;\n    RInviteCode[msg.sender] = _myInviteCode;\n    emit Registed(msg.sender,iCode);\n\n    address father = InviteCode[_fInviteCode];\n    InviteRelation[msg.sender] = father;\n\n    ChildAddrs[father].push(msg.sender);\n\n    InviteList[msg.sender].push(father);\n    for (uint i = 0 ; i < InviteList[father].length; i++){\n      InviteList[msg.sender].push(InviteList[father][i]);\n    }\n\n  }\n  /**\n   * title 转入KOL进行持仓生息\n   * _usdtOrCoin, true:金本位; false:币本位\n   * dev visit: https://github.com/jackoelv/KOL/\n  */\n  function join(uint256 _amount,bool _usdtOrCoin) public {\n    kol.transferFrom(msg.sender,address(this),_amount);\n    LockHistory[msg.sender].push(lock(now,_amount,0,false));\n    LockBalance[msg.sender] = LockBalance[msg.sender].add(_amount);\n\n    USDTOrCoin[msg.sender] = _usdtOrCoin;\n\n    for (uint i = 0; i<InviteList[msg.sender].length; i++){\n      if (LockHistory[msg.sender].length == 1){\n        //给上面的人数+1\n        TotalUsers[InviteList[msg.sender][i]] += 1;\n      }\n      //给上面的加入团队总金额\n      TotalLockingAmount[InviteList[msg.sender][i]] = TotalLockingAmount[InviteList[msg.sender][i]].add(_amount);\n      queryAndSetLevelN(InviteList[msg.sender][i]);\n    }\n\n\n  }\n  /**\n   * title 查询并设置用户的身份级别\n   * dev visit: https://github.com/jackoelv/KOL/\n  */\n  function queryAndSetLevelN(address _addr) internal{\n    if ((TotalUsers[_addr] >= comLevel3Users) && (TotalLockingAmount[_addr] >= comLevel3Amount)){\n      if (isLevelN[_addr]!=3){\n        emit GradeChanged(_addr,isLevelN[_addr],3);\n        isLevelN[_addr] = 3;\n        TeamRateList[_addr].push(teamRate(3,now));\n      }\n    }else if((TotalUsers[_addr] >= comLevel2Users) && (TotalLockingAmount[_addr] >= comLevel2Amount)){\n      if (isLevelN[_addr]!=2){\n        emit GradeChanged(_addr,isLevelN[_addr],2);\n        isLevelN[_addr] = 2;\n        TeamRateList[_addr].push(teamRate(2,now));\n      }\n    }else if((TotalUsers[_addr] >= comLevel1Users) && (TotalLockingAmount[_addr] >= comLevel1Amount)){\n      if (isLevelN[_addr]!=1){\n        emit GradeChanged(_addr,isLevelN[_addr],1);\n        isLevelN[_addr] = 1;\n        TeamRateList[_addr].push(teamRate(1,now));\n      }\n    }else{\n      if (isLevelN[_addr]!=0){\n        emit GradeChanged(_addr,isLevelN[_addr],0);\n        isLevelN[_addr] = 0;\n        TeamRateList[_addr].push(teamRate(0,now));\n      }\n    }\n  }\n  /**\n   * title 查询到指定时间点，当天用户的持币生息收益，建议输入时间为当天的11点59分\n   * dev visit: https://github.com/jackoelv/KOL/\n  */\n  function calcuBonus(address _addr,uint256 _queryTime) private view returns(uint256) {\n    //输入参数为查询的时间。\n    //返回值为截止到查询时间之前当天的静态收益。\n    //金本位考虑进来。\n    uint256 tmpBonus;\n    uint256 yestodayLastSecond;\n    uint256 theDaylastSecond;\n    uint256 tmpCalcu;\n    if (LockHistory[_addr].length > 0){\n      for (uint i = 0; i<LockHistory[_addr].length; i++){\n        if (LockHistory[_addr][i].withDrawed){\n          //如果是已经提现的资金，那就要求计算日期是在起止时间内的。\n          if ((_queryTime >= LockHistory[_addr][i].begin) && (_queryTime <= LockHistory[_addr][i].end)){\n              if (USDTOrCoin[_addr]){\n                //金本位\n                yestodayLastSecond = getYestodayLastSecond(_queryTime);\n                theDaylastSecond = getYestodayLastSecond(LockHistory[_addr][i].begin);\n                tmpCalcu = LockHistory[_addr][i].amount.mul(ClosePrice[theDaylastSecond]).mul(3).div(1000);\n                tmpCalcu = tmpCalcu.div(ClosePrice[yestodayLastSecond]);\n                tmpBonus += tmpCalcu;\n              }else{\n                //币本位\n                tmpBonus += LockHistory[_addr][i].amount.mul(3).div(1000);\n              }\n\n          }\n        }else{\n          if (_queryTime >= LockHistory[_addr][i].begin ){\n            //这个就要计入到当天的收益\n            if (USDTOrCoin[_addr]){\n              yestodayLastSecond = getYestodayLastSecond(_queryTime);\n              theDaylastSecond = getYestodayLastSecond(LockHistory[_addr][i].begin);\n              tmpCalcu = LockHistory[_addr][i].amount.mul(ClosePrice[theDaylastSecond]).mul(3).div(1000);\n              tmpCalcu = tmpCalcu.div(ClosePrice[yestodayLastSecond]);\n              tmpBonus += tmpCalcu;\n            }else{\n              tmpBonus += LockHistory[_addr][i].amount.mul(3).div(1000);\n            }\n          }\n        }\n      }\n    }\n    return tmpBonus;\n\n\n  }\n  /**\n   * title 查询到指定时间点，计算用户当天的推广收益\n   * dev visit: https://github.com/jackoelv/KOL/\n  */\n  function calcuInviteBonus(address _addr,uint256 _queryTime) private view returns(uint256) {\n    //直推，直推的直推，比较金额，计算佣金。\n    //先计算直推的\n    address[] childUser = ChildAddrs[_addr];\n\n    uint256 dayLockBalance;//先算出这一天他的有效锁仓余额是多少\n    uint256 childLockBalance;\n    uint256 child2LockBalance;\n\n    uint256 level1Bonus;\n    uint256 level2Bonus;\n\n    dayLockBalance = queryLockBalance(_addr,_queryTime);\n\n    for (uint i = 0; i<childUser.length; i++){\n      //每个直推独立计算\n      childLockBalance = queryLockBalance(childUser[i],_queryTime);\n      if (dayLockBalance >= childLockBalance){\n        level1Bonus += childLockBalance.mul(userLevel1).div(100);\n      }else{\n        level1Bonus += dayLockBalance.mul(userLevel1).div(100);\n      }\n      //再计算二级的\n      address[] child2User = ChildAddrs[childUser[i]];\n      for (uint j = 0; j<child2User.length; j++){\n        child2LockBalance = queryLockBalance(child2User[j],_queryTime);\n        if (dayLockBalance >= child2LockBalance){\n          level2Bonus += childLockBalance.mul(userLevel2).div(100);\n        }else{\n          level2Bonus += dayLockBalance.mul(userLevel2).div(100);\n        }\n      }\n    }\n    return (level1Bonus.add(level2Bonus));\n\n  }\n  /**\n   * title 查询指定时间用户的有效锁仓余额\n   * dev visit: https://github.com/jackoelv/KOL/\n  */\n  function queryLockBalance(address _addr,uint256 _queryTime) private view returns(uint256) {\n    uint256 dayLockBalance;\n    for (uint j = 0; j<LockHistory[_addr].length; j++){\n      if (LockHistory[_addr][j].withDrawed){\n        //如果是已经提现的资金，那就要求计算日期是在起止时间内的。\n        if ((_queryTime >= LockHistory[_addr][j].begin) && (_queryTime <= LockHistory[_addr][j].end)){\n            dayLockBalance += LockHistory[_addr][j].amount;\n        }\n      }else{\n        if (_queryTime >= LockHistory[_addr][j].begin ){\n          //这个就要计入到当天的收益\n          dayLockBalance += LockHistory[_addr][j].amount;\n        }\n      }\n    }\n    return dayLockBalance;\n  }\n  /**\n   * title 查询并计算用户的网体收益\n   * dev visit: https://github.com/jackoelv/KOL/\n  */\n  function calcuTeamBonus(address _addr,uint256 _queryTime) private view returns(uint256) {\n    uint8 rate;\n    if (TeamRateList[_addr].length == 0){\n      return 0;\n    }else{\n      for (uint i = 0; i<TeamRateList[_addr].length; i++){\n        if (i < TeamRateList[_addr].length -1){\n          if (( _queryTime >= TeamRateList[_addr][i].changeTime ) &&\n                    ( _queryTime <= TeamRateList[_addr][i+1].changeTime )){\n            rate = TeamRateList[_addr][i].rate;\n          }\n        }else{\n          if ( _queryTime >= TeamRateList[_addr][i].changeTime ){\n            rate = TeamRateList[_addr][i].rate;\n          }\n        }\n\n      }\n    }\n\n    if (rate>0){\n      //现在开始计算整个网体的奖励，从直推开始一路递归下去\n      //有一个问题没有考虑到，就是升级以前的网体收益是不同的。！！！\n      uint256 dayLockBalance = queryLockBalance(_addr,_queryTime);\n      return levelBonus(dayLockBalance,rate,_addr,_queryTime);\n\n    }else{\n      return 0;\n    }\n\n  }\n  /**\n   * title 递归计算直推网体奖励\n   * dev visit: https://github.com/jackoelv/KOL/\n  */\n  function levelBonus(uint256 _ancientBalance,uint8 _rate,address _addr,uint256 _queryTime) private view returns(uint256){\n    uint256 bonus;\n\n    if ( ChildAddrs[_addr].length > 0 ){\n      for (uint i = 0; i<ChildAddrs[_addr].length; i++){\n        uint256 childLockBalance = queryLockBalance(ChildAddrs[_addr][i],_queryTime);\n        if (_ancientBalance >= childLockBalance) {\n          bonus += childLockBalance.mul(_rate).div(100);\n        }else{\n          bonus += _ancientBalance.mul(_rate).div(100);\n        }\n        bonus += levelBonus(_ancientBalance,_rate,ChildAddrs[_addr][i],_queryTime);\n      }\n    }\n    return 0;\n  }\n  /**\n   * title 根据给定时间计算出昨天的最后一秒\n   * dev visit: https://github.com/jackoelv/KOL/\n  */\n  function getYestodayLastSecond(uint256 _queryTime) private view returns(uint256){\n    //录入的价格为4位小数\n    return (_queryTime.sub(_queryTime.sub(begin) % 86400) - 1);\n  }\n\n\n\n  /**\n   * title 录入KOL的收盘价\n   * dev visit: https://github.com/jackoelv/KOL/\n  */\n  function putClosePrice(uint256 price,uint256 _queryTime) onlyNodes public{\n    //录入的价格为4位小数\n    uint256 yestodayLastSecond = getYestodayLastSecond(_queryTime);\n    ClosePrice[yestodayLastSecond] = price;\n\n  }\n  function setReciever(address _addr) onlyOwner public{\n    reciever = _addr;\n  }\n\n}\n",
  "sourcePath": "/Users/jack/git/github/KOL/contracts/KOLPromotion.sol",
  "compiler": {
    "name": "solc",
    "version": "0.4.23+commit.124ca40d.Emscripten.clang"
  },
  "schemaVersion": "3.0.19",
  "updatedAt": "2020-04-22T07:29:53.758Z",
  "devdoc": {
    "methods": {}
  },
  "userdoc": {
    "methods": {
      "getCode()": {
        "notice": "title 获得自己的邀请码 dev visit: https://github.com/jackoelv/KOL/"
      },
      "join(uint256,bool)": {
        "notice": "title 转入KOL进行持仓生息 _usdtOrCoin, true:金本位; false:币本位 dev visit: https://github.com/jackoelv/KOL/"
      },
      "putClosePrice(uint256,uint256)": {
        "notice": "title 录入KOL的收盘价 dev visit: https://github.com/jackoelv/KOL/"
      },
      "register(uint256)": {
        "notice": "title 注册并绑定邀请关系 dev visit: https://github.com/jackoelv/KOL/"
      },
      "withDraw(bool)": {
        "notice": "title 提现KOL到自己的账户 dev visit: https://github.com/jackoelv/KOL/"
      }
    }
  }
}