{
  "contractName": "KOLPro",
  "abi": [
    {
      "constant": true,
      "inputs": [
        {
          "name": "",
          "type": "address"
        }
      ],
      "name": "isLevelN",
      "outputs": [
        {
          "name": "",
          "type": "uint8"
        }
      ],
      "payable": false,
      "stateMutability": "view",
      "type": "function"
    },
    {
      "constant": true,
      "inputs": [],
      "name": "comLevel3",
      "outputs": [
        {
          "name": "",
          "type": "uint8"
        }
      ],
      "payable": false,
      "stateMutability": "view",
      "type": "function"
    },
    {
      "constant": true,
      "inputs": [],
      "name": "name",
      "outputs": [
        {
          "name": "",
          "type": "string"
        }
      ],
      "payable": false,
      "stateMutability": "view",
      "type": "function"
    },
    {
      "constant": true,
      "inputs": [],
      "name": "comLevel2Amount",
      "outputs": [
        {
          "name": "",
          "type": "uint256"
        }
      ],
      "payable": false,
      "stateMutability": "view",
      "type": "function"
    },
    {
      "constant": true,
      "inputs": [],
      "name": "kol",
      "outputs": [
        {
          "name": "",
          "type": "address"
        }
      ],
      "payable": false,
      "stateMutability": "view",
      "type": "function"
    },
    {
      "constant": true,
      "inputs": [],
      "name": "comLevel3Amount",
      "outputs": [
        {
          "name": "",
          "type": "uint256"
        }
      ],
      "payable": false,
      "stateMutability": "view",
      "type": "function"
    },
    {
      "constant": true,
      "inputs": [],
      "name": "begin",
      "outputs": [
        {
          "name": "",
          "type": "uint256"
        }
      ],
      "payable": false,
      "stateMutability": "view",
      "type": "function"
    },
    {
      "constant": true,
      "inputs": [
        {
          "name": "",
          "type": "address"
        }
      ],
      "name": "TotalLockingAmount",
      "outputs": [
        {
          "name": "",
          "type": "uint256"
        }
      ],
      "payable": false,
      "stateMutability": "view",
      "type": "function"
    },
    {
      "constant": true,
      "inputs": [],
      "name": "comLevel2Users",
      "outputs": [
        {
          "name": "",
          "type": "uint16"
        }
      ],
      "payable": false,
      "stateMutability": "view",
      "type": "function"
    },
    {
      "constant": true,
      "inputs": [
        {
          "name": "",
          "type": "address"
        },
        {
          "name": "",
          "type": "uint256"
        }
      ],
      "name": "LockHistory",
      "outputs": [
        {
          "name": "begin",
          "type": "uint256"
        },
        {
          "name": "amount",
          "type": "uint256"
        },
        {
          "name": "end",
          "type": "uint256"
        },
        {
          "name": "withDrawed",
          "type": "bool"
        }
      ],
      "payable": false,
      "stateMutability": "view",
      "type": "function"
    },
    {
      "constant": true,
      "inputs": [],
      "name": "comLevel1Amount",
      "outputs": [
        {
          "name": "",
          "type": "uint256"
        }
      ],
      "payable": false,
      "stateMutability": "view",
      "type": "function"
    },
    {
      "constant": true,
      "inputs": [
        {
          "name": "",
          "type": "uint256"
        }
      ],
      "name": "ClosePrice",
      "outputs": [
        {
          "name": "",
          "type": "uint256"
        }
      ],
      "payable": false,
      "stateMutability": "view",
      "type": "function"
    },
    {
      "constant": true,
      "inputs": [
        {
          "name": "",
          "type": "address"
        }
      ],
      "name": "LockBalance",
      "outputs": [
        {
          "name": "",
          "type": "uint256"
        }
      ],
      "payable": false,
      "stateMutability": "view",
      "type": "function"
    },
    {
      "constant": true,
      "inputs": [
        {
          "name": "",
          "type": "address"
        }
      ],
      "name": "USDTOrCoin",
      "outputs": [
        {
          "name": "",
          "type": "bool"
        }
      ],
      "payable": false,
      "stateMutability": "view",
      "type": "function"
    },
    {
      "constant": true,
      "inputs": [
        {
          "name": "",
          "type": "address"
        },
        {
          "name": "",
          "type": "uint256"
        }
      ],
      "name": "InviteList",
      "outputs": [
        {
          "name": "",
          "type": "address"
        }
      ],
      "payable": false,
      "stateMutability": "view",
      "type": "function"
    },
    {
      "constant": true,
      "inputs": [],
      "name": "userLevel2",
      "outputs": [
        {
          "name": "",
          "type": "uint8"
        }
      ],
      "payable": false,
      "stateMutability": "view",
      "type": "function"
    },
    {
      "constant": true,
      "inputs": [],
      "name": "every",
      "outputs": [
        {
          "name": "",
          "type": "uint256"
        }
      ],
      "payable": false,
      "stateMutability": "view",
      "type": "function"
    },
    {
      "constant": true,
      "inputs": [],
      "name": "iCode",
      "outputs": [
        {
          "name": "",
          "type": "uint256"
        }
      ],
      "payable": false,
      "stateMutability": "view",
      "type": "function"
    },
    {
      "constant": true,
      "inputs": [
        {
          "name": "",
          "type": "uint8"
        }
      ],
      "name": "levelRate",
      "outputs": [
        {
          "name": "",
          "type": "uint8"
        }
      ],
      "payable": false,
      "stateMutability": "view",
      "type": "function"
    },
    {
      "constant": true,
      "inputs": [],
      "name": "comLevel2",
      "outputs": [
        {
          "name": "",
          "type": "uint8"
        }
      ],
      "payable": false,
      "stateMutability": "view",
      "type": "function"
    },
    {
      "constant": true,
      "inputs": [
        {
          "name": "",
          "type": "address"
        },
        {
          "name": "",
          "type": "uint256"
        }
      ],
      "name": "TeamRateList",
      "outputs": [
        {
          "name": "rate",
          "type": "uint8"
        },
        {
          "name": "changeTime",
          "type": "uint256"
        }
      ],
      "payable": false,
      "stateMutability": "view",
      "type": "function"
    },
    {
      "constant": true,
      "inputs": [
        {
          "name": "",
          "type": "address"
        },
        {
          "name": "",
          "type": "uint256"
        }
      ],
      "name": "LockTeamBonus",
      "outputs": [
        {
          "name": "theDayLastSecond",
          "type": "uint256"
        },
        {
          "name": "theDayTeamBonus",
          "type": "uint256"
        },
        {
          "name": "totalTeamBonus",
          "type": "uint256"
        },
        {
          "name": "theDayRate",
          "type": "uint8"
        }
      ],
      "payable": false,
      "stateMutability": "view",
      "type": "function"
    },
    {
      "constant": true,
      "inputs": [],
      "name": "comLevel3Users",
      "outputs": [
        {
          "name": "",
          "type": "uint16"
        }
      ],
      "payable": false,
      "stateMutability": "view",
      "type": "function"
    },
    {
      "constant": true,
      "inputs": [],
      "name": "comLevel1Users",
      "outputs": [
        {
          "name": "",
          "type": "uint16"
        }
      ],
      "payable": false,
      "stateMutability": "view",
      "type": "function"
    },
    {
      "constant": true,
      "inputs": [],
      "name": "inviteLevel1",
      "outputs": [
        {
          "name": "",
          "type": "uint8"
        }
      ],
      "payable": false,
      "stateMutability": "view",
      "type": "function"
    },
    {
      "constant": true,
      "inputs": [
        {
          "name": "",
          "type": "address"
        }
      ],
      "name": "RInviteCode",
      "outputs": [
        {
          "name": "",
          "type": "uint256"
        }
      ],
      "payable": false,
      "stateMutability": "view",
      "type": "function"
    },
    {
      "constant": true,
      "inputs": [],
      "name": "owner",
      "outputs": [
        {
          "name": "",
          "type": "address"
        }
      ],
      "payable": false,
      "stateMutability": "view",
      "type": "function"
    },
    {
      "constant": true,
      "inputs": [],
      "name": "inviteLevel2",
      "outputs": [
        {
          "name": "",
          "type": "uint8"
        }
      ],
      "payable": false,
      "stateMutability": "view",
      "type": "function"
    },
    {
      "constant": true,
      "inputs": [],
      "name": "totalBalance",
      "outputs": [
        {
          "name": "",
          "type": "uint256"
        }
      ],
      "payable": false,
      "stateMutability": "view",
      "type": "function"
    },
    {
      "constant": true,
      "inputs": [],
      "name": "inviteLevel3",
      "outputs": [
        {
          "name": "",
          "type": "uint8"
        }
      ],
      "payable": false,
      "stateMutability": "view",
      "type": "function"
    },
    {
      "constant": true,
      "inputs": [],
      "name": "maxlevel",
      "outputs": [
        {
          "name": "",
          "type": "uint8"
        }
      ],
      "payable": false,
      "stateMutability": "view",
      "type": "function"
    },
    {
      "constant": true,
      "inputs": [],
      "name": "comLevel1",
      "outputs": [
        {
          "name": "",
          "type": "uint8"
        }
      ],
      "payable": false,
      "stateMutability": "view",
      "type": "function"
    },
    {
      "constant": true,
      "inputs": [
        {
          "name": "",
          "type": "uint256"
        }
      ],
      "name": "InviteCode",
      "outputs": [
        {
          "name": "",
          "type": "address"
        }
      ],
      "payable": false,
      "stateMutability": "view",
      "type": "function"
    },
    {
      "constant": true,
      "inputs": [],
      "name": "going",
      "outputs": [
        {
          "name": "",
          "type": "bool"
        }
      ],
      "payable": false,
      "stateMutability": "view",
      "type": "function"
    },
    {
      "constant": true,
      "inputs": [],
      "name": "fee",
      "outputs": [
        {
          "name": "",
          "type": "uint8"
        }
      ],
      "payable": false,
      "stateMutability": "view",
      "type": "function"
    },
    {
      "constant": true,
      "inputs": [
        {
          "name": "",
          "type": "address"
        }
      ],
      "name": "TotalUsers",
      "outputs": [
        {
          "name": "",
          "type": "uint256"
        }
      ],
      "payable": false,
      "stateMutability": "view",
      "type": "function"
    },
    {
      "constant": true,
      "inputs": [],
      "name": "userLevel1",
      "outputs": [
        {
          "name": "",
          "type": "uint8"
        }
      ],
      "payable": false,
      "stateMutability": "view",
      "type": "function"
    },
    {
      "constant": true,
      "inputs": [
        {
          "name": "",
          "type": "address"
        },
        {
          "name": "",
          "type": "uint256"
        }
      ],
      "name": "LockInviteBonus",
      "outputs": [
        {
          "name": "theDayLastSecond",
          "type": "uint256"
        },
        {
          "name": "theDayInviteBonus",
          "type": "uint256"
        },
        {
          "name": "totalInviteBonus",
          "type": "uint256"
        }
      ],
      "payable": false,
      "stateMutability": "view",
      "type": "function"
    },
    {
      "constant": true,
      "inputs": [],
      "name": "end",
      "outputs": [
        {
          "name": "",
          "type": "uint256"
        }
      ],
      "payable": false,
      "stateMutability": "view",
      "type": "function"
    },
    {
      "constant": false,
      "inputs": [
        {
          "name": "newOwner",
          "type": "address"
        }
      ],
      "name": "transferOwnership",
      "outputs": [],
      "payable": false,
      "stateMutability": "nonpayable",
      "type": "function"
    },
    {
      "constant": true,
      "inputs": [],
      "name": "totalRegister",
      "outputs": [
        {
          "name": "",
          "type": "uint256"
        }
      ],
      "payable": false,
      "stateMutability": "view",
      "type": "function"
    },
    {
      "constant": true,
      "inputs": [
        {
          "name": "",
          "type": "address"
        },
        {
          "name": "",
          "type": "uint256"
        }
      ],
      "name": "ChildAddrs",
      "outputs": [
        {
          "name": "",
          "type": "address"
        }
      ],
      "payable": false,
      "stateMutability": "view",
      "type": "function"
    },
    {
      "inputs": [
        {
          "name": "_tokenAddress",
          "type": "address"
        },
        {
          "name": "_receiver",
          "type": "address"
        },
        {
          "name": "_begin",
          "type": "uint256"
        },
        {
          "name": "_end",
          "type": "uint256"
        }
      ],
      "payable": false,
      "stateMutability": "nonpayable",
      "type": "constructor"
    },
    {
      "anonymous": false,
      "inputs": [
        {
          "indexed": false,
          "name": "_user",
          "type": "address"
        },
        {
          "indexed": false,
          "name": "inviteCode",
          "type": "uint256"
        }
      ],
      "name": "Registed",
      "type": "event"
    },
    {
      "anonymous": false,
      "inputs": [
        {
          "indexed": false,
          "name": "_user",
          "type": "address"
        },
        {
          "indexed": false,
          "name": "_theTime",
          "type": "uint256"
        },
        {
          "indexed": false,
          "name": "_amount",
          "type": "uint256"
        },
        {
          "indexed": false,
          "name": "_usdtOrCoin",
          "type": "bool"
        }
      ],
      "name": "Joined",
      "type": "event"
    },
    {
      "anonymous": false,
      "inputs": [
        {
          "indexed": false,
          "name": "_user",
          "type": "address"
        },
        {
          "indexed": false,
          "name": "_oldLevel",
          "type": "uint8"
        },
        {
          "indexed": false,
          "name": "_newLevel",
          "type": "uint8"
        }
      ],
      "name": "GradeChanged",
      "type": "event"
    },
    {
      "constant": false,
      "inputs": [
        {
          "name": "_fInviteCode",
          "type": "uint256"
        }
      ],
      "name": "register",
      "outputs": [],
      "payable": false,
      "stateMutability": "nonpayable",
      "type": "function"
    },
    {
      "constant": false,
      "inputs": [
        {
          "name": "_amount",
          "type": "uint256"
        },
        {
          "name": "_usdtOrCoin",
          "type": "bool"
        }
      ],
      "name": "join",
      "outputs": [],
      "payable": true,
      "stateMutability": "payable",
      "type": "function"
    },
    {
      "constant": true,
      "inputs": [
        {
          "name": "_selfAddr",
          "type": "address"
        },
        {
          "name": "_topAddr",
          "type": "address"
        },
        {
          "name": "_amount",
          "type": "uint256"
        }
      ],
      "name": "calcuDiffAmount",
      "outputs": [
        {
          "name": "",
          "type": "uint256"
        }
      ],
      "payable": false,
      "stateMutability": "view",
      "type": "function"
    },
    {
      "constant": true,
      "inputs": [
        {
          "name": "_addr",
          "type": "address"
        },
        {
          "name": "_queryTime",
          "type": "uint256"
        }
      ],
      "name": "queryLockBalance",
      "outputs": [
        {
          "name": "",
          "type": "uint256"
        }
      ],
      "payable": false,
      "stateMutability": "view",
      "type": "function"
    },
    {
      "constant": true,
      "inputs": [
        {
          "name": "_queryTime",
          "type": "uint256"
        }
      ],
      "name": "getYestodayLastSecond",
      "outputs": [
        {
          "name": "",
          "type": "uint256"
        }
      ],
      "payable": false,
      "stateMutability": "view",
      "type": "function"
    },
    {
      "constant": false,
      "inputs": [
        {
          "name": "_addr",
          "type": "address"
        }
      ],
      "name": "clearLock",
      "outputs": [],
      "payable": false,
      "stateMutability": "nonpayable",
      "type": "function"
    },
    {
      "constant": false,
      "inputs": [
        {
          "name": "_addr",
          "type": "address"
        },
        {
          "name": "_theDayLastSecond",
          "type": "uint256"
        },
        {
          "name": "_theDayInviteBonus",
          "type": "uint256"
        },
        {
          "name": "_totalInviteBonus",
          "type": "uint256"
        }
      ],
      "name": "pushInvite",
      "outputs": [],
      "payable": false,
      "stateMutability": "nonpayable",
      "type": "function"
    },
    {
      "constant": false,
      "inputs": [
        {
          "name": "_addr",
          "type": "address"
        },
        {
          "name": "_theDayInviteBonus",
          "type": "uint256"
        },
        {
          "name": "_totalInviteBonus",
          "type": "uint256"
        }
      ],
      "name": "setLastInvite",
      "outputs": [],
      "payable": false,
      "stateMutability": "nonpayable",
      "type": "function"
    },
    {
      "constant": false,
      "inputs": [
        {
          "name": "_addr",
          "type": "address"
        },
        {
          "name": "_theDayLastSecond",
          "type": "uint256"
        },
        {
          "name": "_theDayTeamBonus",
          "type": "uint256"
        },
        {
          "name": "_totalTeamBonus",
          "type": "uint256"
        },
        {
          "name": "_theDayRate",
          "type": "uint8"
        }
      ],
      "name": "pushTeam",
      "outputs": [],
      "payable": false,
      "stateMutability": "nonpayable",
      "type": "function"
    },
    {
      "constant": false,
      "inputs": [
        {
          "name": "_addr",
          "type": "address"
        },
        {
          "name": "_theDayTeamBonus",
          "type": "uint256"
        },
        {
          "name": "_totalTeamBonus",
          "type": "uint256"
        },
        {
          "name": "_theDayRate",
          "type": "uint8"
        }
      ],
      "name": "setLastTeam",
      "outputs": [],
      "payable": false,
      "stateMutability": "nonpayable",
      "type": "function"
    },
    {
      "constant": false,
      "inputs": [
        {
          "name": "_addr",
          "type": "address"
        }
      ],
      "name": "subTotalUsers",
      "outputs": [],
      "payable": false,
      "stateMutability": "nonpayable",
      "type": "function"
    },
    {
      "constant": false,
      "inputs": [
        {
          "name": "_addr",
          "type": "address"
        },
        {
          "name": "_amount",
          "type": "uint256"
        }
      ],
      "name": "subTotalLockingAmount",
      "outputs": [],
      "payable": false,
      "stateMutability": "nonpayable",
      "type": "function"
    },
    {
      "constant": false,
      "inputs": [
        {
          "name": "_amount",
          "type": "uint256"
        }
      ],
      "name": "subTotalBalance",
      "outputs": [],
      "payable": false,
      "stateMutability": "nonpayable",
      "type": "function"
    },
    {
      "constant": false,
      "inputs": [
        {
          "name": "_addr",
          "type": "address"
        }
      ],
      "name": "qsLevel",
      "outputs": [],
      "payable": false,
      "stateMutability": "nonpayable",
      "type": "function"
    },
    {
      "constant": false,
      "inputs": [
        {
          "name": "_addr",
          "type": "address"
        }
      ],
      "name": "setInviteTeam",
      "outputs": [],
      "payable": false,
      "stateMutability": "nonpayable",
      "type": "function"
    },
    {
      "constant": false,
      "inputs": [
        {
          "name": "price",
          "type": "uint256"
        },
        {
          "name": "_queryTime",
          "type": "uint256"
        }
      ],
      "name": "putClosePrice",
      "outputs": [],
      "payable": false,
      "stateMutability": "nonpayable",
      "type": "function"
    },
    {
      "constant": false,
      "inputs": [
        {
          "name": "_receiver",
          "type": "address"
        }
      ],
      "name": "setReceiver",
      "outputs": [],
      "payable": false,
      "stateMutability": "nonpayable",
      "type": "function"
    },
    {
      "constant": false,
      "inputs": [],
      "name": "draw",
      "outputs": [],
      "payable": false,
      "stateMutability": "nonpayable",
      "type": "function"
    },
    {
      "constant": false,
      "inputs": [
        {
          "name": "_addr",
          "type": "address"
        }
      ],
      "name": "setContract",
      "outputs": [],
      "payable": false,
      "stateMutability": "nonpayable",
      "type": "function"
    },
    {
      "constant": false,
      "inputs": [
        {
          "name": "_going",
          "type": "bool"
        }
      ],
      "name": "setGoing",
      "outputs": [],
      "payable": false,
      "stateMutability": "nonpayable",
      "type": "function"
    },
    {
      "constant": false,
      "inputs": [
        {
          "name": "_end",
          "type": "uint256"
        }
      ],
      "name": "setEnd",
      "outputs": [],
      "payable": false,
      "stateMutability": "nonpayable",
      "type": "function"
    },
    {
      "constant": true,
      "inputs": [
        {
          "name": "_addr",
          "type": "address"
        }
      ],
      "name": "getLockLen",
      "outputs": [
        {
          "name": "",
          "type": "uint256"
        }
      ],
      "payable": false,
      "stateMutability": "view",
      "type": "function"
    },
    {
      "constant": true,
      "inputs": [
        {
          "name": "_addr",
          "type": "address"
        }
      ],
      "name": "getFathersLength",
      "outputs": [
        {
          "name": "",
          "type": "uint256"
        }
      ],
      "payable": false,
      "stateMutability": "view",
      "type": "function"
    },
    {
      "constant": true,
      "inputs": [
        {
          "name": "_addr",
          "type": "address"
        }
      ],
      "name": "getLockTeamBonusLen",
      "outputs": [
        {
          "name": "",
          "type": "uint256"
        }
      ],
      "payable": false,
      "stateMutability": "view",
      "type": "function"
    },
    {
      "constant": true,
      "inputs": [
        {
          "name": "_addr",
          "type": "address"
        }
      ],
      "name": "getLockInviteBonusLen",
      "outputs": [
        {
          "name": "",
          "type": "uint256"
        }
      ],
      "payable": false,
      "stateMutability": "view",
      "type": "function"
    },
    {
      "constant": true,
      "inputs": [
        {
          "name": "_addr",
          "type": "address"
        }
      ],
      "name": "getChildsLen",
      "outputs": [
        {
          "name": "",
          "type": "uint256"
        }
      ],
      "payable": false,
      "stateMutability": "view",
      "type": "function"
    }
  ],
  "bytecode": "0x60806040526040805190810160405280600d81526020017f4b4f4c2050726f6d6f74696f6e000000000000000000000000000000000000008152506001908051906020019062000051929190620003ac565b50620151806008556014600b60006101000a81548160ff021916908360ff160217905550600a600b60016101000a81548160ff021916908360ff1602179055506009600b60026101000a81548160ff021916908360ff1602179055506064600b60036101000a81548161ffff021916908361ffff16021790555060c8600b60056101000a81548161ffff021916908361ffff16021790555061012c600b60076101000a81548161ffff021916908361ffff16021790555069065a4da25d3016c00000600c55690a968163f0a57b400000600d5569152d02c7e14af6800000600e556001600f60006101000a81548160ff0219169083151502179055503480156200015a57600080fd5b5060405160808062005fc083398101806040528101908080519060200190929190805190602001909291908051906020019092919080519060200190929190505050336000806101000a81548173ffffffffffffffffffffffffffffffffffffffff021916908373ffffffffffffffffffffffffffffffffffffffff16021790555083600260006101000a81548173ffffffffffffffffffffffffffffffffffffffff021916908373ffffffffffffffffffffffffffffffffffffffff16021790555082600460006101000a81548173ffffffffffffffffffffffffffffffffffffffff021916908373ffffffffffffffffffffffffffffffffffffffff16021790555081600581905550806006819055506000809054906101000a900473ffffffffffffffffffffffffffffffffffffffff16601a600080815260200190815260200160002060006101000a81548173ffffffffffffffffffffffffffffffffffffffff021916908373ffffffffffffffffffffffffffffffffffffffff1602179055506000601d60008060ff16815260200190815260200160002060006101000a81548160ff021916908360ff1602179055506003601d6000600160ff16815260200190815260200160002060006101000a81548160ff021916908360ff1602179055506005601d6000600260ff16815260200190815260200160002060006101000a81548160ff021916908360ff160217905550600a601d6000600360ff16815260200190815260200160002060006101000a81548160ff021916908360ff160217905550505050506200045b565b828054600181600116156101000203166002900490600052602060002090601f016020900481019282601f10620003ef57805160ff191683800117855562000420565b8280016001018555821562000420579182015b828111156200041f57825182559160200191906001019062000402565b5b5090506200042f919062000433565b5090565b6200045891905b80821115620004545760008160009055506001016200043a565b5090565b90565b615b55806200046b6000396000f300608060405260043610610322576000357c0100000000000000000000000000000000000000000000000000000000900463ffffffff168063042a59ea1461032757806305536ac214610384578063057a53fc146103b5578063069f19ce146103f857806306fdde031461045957806308b7da39146104e95780630dcba2d1146105145780630eecae211461056b5780630efd7661146105825780631251b7a4146105ad57806315038e9e146106045780631bce6ff3146106725780631ecf396d1461069d5780632217e6b6146106f45780632253d381146107275780632517656b146107a1578063254fbd7214610822578063275cdec314610879578063294b4816146108a45780632a61ae19146108e55780632e39140f1461093c5780632f63c3651461099d578063312b43ad146109f85780633983c66514610a4f5780633a9c7d1214610adc5780633bc6cf4714610b0d578063571f231514610b385780635b204f4c14610b635780635dbac10e14610bad57806361c17fa914610bde5780636463a1d014610c0d5780636f42d97f14610c445780637132c03a14610ca8578063718da7ee14610d1657806372e03a5c14610d5957806375f890ab14610dd55780637c4bc6f714610e185780637f498ffc14610e45578063808fe48a14610e725780638099a6a614610ea557806389689e4514610ed85780638be7038e14610f095780638da5cb5b14610f605780638dc7352114610fb757806396931d1114610ffa578063a1aebce81461102b578063ad7a672f14611082578063b4c81c68146110ad578063ba8616a2146110de578063bf131ad214611121578063c93ae0fc14611162578063cb3cdc4b146111b9578063cc7bc3a0146111ea578063cccbeebf1461121b578063d0b3da9914611288578063d6ea1a74146112b4578063d83a3c95146112f7578063d8495ac314611344578063dbf46a021461139b578063ddca3f43146113ca578063e1d1792d146113fb578063e4ebc0e814611452578063e77f912414611483578063efbe1c1c146114f2578063f207564e1461151d578063f2fde38b1461154a578063f718924a1461158d578063fca2aca5146115b8575b600080fd5b34801561033357600080fd5b50610368600480360381019080803573ffffffffffffffffffffffffffffffffffffffff169060200190929190505050611645565b604051808260ff1660ff16815260200191505060405180910390f35b34801561039057600080fd5b50610399611665565b604051808260ff1660ff16815260200191505060405180910390f35b3480156103c157600080fd5b506103f6600480360381019080803573ffffffffffffffffffffffffffffffffffffffff16906020019092919050505061166a565b005b34801561040457600080fd5b50610443600480360381019080803573ffffffffffffffffffffffffffffffffffffffff1690602001909291908035906020019092919050505061175f565b6040518082815260200191505060405180910390f35b34801561046557600080fd5b5061046e611a4d565b6040518080602001828103825283818151815260200191508051906020019080838360005b838110156104ae578082015181840152602081019050610493565b50505050905090810190601f1680156104db5780820380516001836020036101000a031916815260200191505b509250505060405180910390f35b3480156104f557600080fd5b506104fe611aeb565b6040518082815260200191505060405180910390f35b34801561052057600080fd5b50610529611af1565b604051808273ffffffffffffffffffffffffffffffffffffffff1673ffffffffffffffffffffffffffffffffffffffff16815260200191505060405180910390f35b34801561057757600080fd5b50610580611b17565b005b34801561058e57600080fd5b50610597611be3565b6040518082815260200191505060405180910390f35b3480156105b957600080fd5b50610602600480360381019080803573ffffffffffffffffffffffffffffffffffffffff1690602001909291908035906020019092919080359060200190929190505050611be9565b005b34801561061057600080fd5b50610670600480360381019080803573ffffffffffffffffffffffffffffffffffffffff169060200190929190803590602001909291908035906020019092919080359060200190929190803560ff169060200190929190505050611daa565b005b34801561067e57600080fd5b50610687611ede565b6040518082815260200191505060405180910390f35b3480156106a957600080fd5b506106de600480360381019080803573ffffffffffffffffffffffffffffffffffffffff169060200190929190505050611ee4565b6040518082815260200191505060405180910390f35b34801561070057600080fd5b50610709611efc565b604051808261ffff1661ffff16815260200191505060405180910390f35b34801561073357600080fd5b50610772600480360381019080803573ffffffffffffffffffffffffffffffffffffffff16906020019092919080359060200190929190505050611f10565b604051808581526020018481526020018381526020018215151515815260200194505050505060405180910390f35b3480156107ad57600080fd5b5061080c600480360381019080803573ffffffffffffffffffffffffffffffffffffffff169060200190929190803573ffffffffffffffffffffffffffffffffffffffff16906020019092919080359060200190929190505050611f69565b6040518082815260200191505060405180910390f35b34801561082e57600080fd5b50610863600480360381019080803573ffffffffffffffffffffffffffffffffffffffff1690602001909291905050506120eb565b6040518082815260200191505060405180910390f35b34801561088557600080fd5b5061088e612137565b6040518082815260200191505060405180910390f35b3480156108b057600080fd5b506108cf6004803603810190808035906020019092919050505061213d565b6040518082815260200191505060405180910390f35b3480156108f157600080fd5b50610926600480360381019080803573ffffffffffffffffffffffffffffffffffffffff169060200190929190505050612155565b6040518082815260200191505060405180910390f35b34801561094857600080fd5b5061099b600480360381019080803573ffffffffffffffffffffffffffffffffffffffff16906020019092919080359060200190929190803590602001909291908035906020019092919050505061216d565b005b3480156109a957600080fd5b506109de600480360381019080803573ffffffffffffffffffffffffffffffffffffffff169060200190929190505050612276565b604051808215151515815260200191505060405180910390f35b348015610a0457600080fd5b50610a39600480360381019080803573ffffffffffffffffffffffffffffffffffffffff169060200190929190505050612296565b6040518082815260200191505060405180910390f35b348015610a5b57600080fd5b50610a9a600480360381019080803573ffffffffffffffffffffffffffffffffffffffff169060200190929190803590602001909291905050506122e2565b604051808273ffffffffffffffffffffffffffffffffffffffff1673ffffffffffffffffffffffffffffffffffffffff16815260200191505060405180910390f35b348015610ae857600080fd5b50610af161232f565b604051808260ff1660ff16815260200191505060405180910390f35b348015610b1957600080fd5b50610b22612342565b6040518082815260200191505060405180910390f35b348015610b4457600080fd5b50610b4d612348565b6040518082815260200191505060405180910390f35b348015610b6f57600080fd5b50610b91600480360381019080803560ff16906020019092919050505061234e565b604051808260ff1660ff16815260200191505060405180910390f35b348015610bb957600080fd5b50610bc261236e565b604051808260ff1660ff16815260200191505060405180910390f35b348015610bea57600080fd5b50610c0b600480360381019080803515159060200190929190505050612373565b005b348015610c1957600080fd5b50610c4260048036038101908080359060200190929190803590602001909291905050506123eb565b005b348015610c5057600080fd5b50610ca6600480360381019080803573ffffffffffffffffffffffffffffffffffffffff1690602001909291908035906020019092919080359060200190929190803560ff169060200190929190505050612488565b005b348015610cb457600080fd5b50610cf3600480360381019080803573ffffffffffffffffffffffffffffffffffffffff169060200190929190803590602001909291905050506126c0565b604051808360ff1660ff1681526020018281526020019250505060405180910390f35b348015610d2257600080fd5b50610d57600480360381019080803573ffffffffffffffffffffffffffffffffffffffff16906020019092919050505061270d565b005b348015610d6557600080fd5b50610da4600480360381019080803573ffffffffffffffffffffffffffffffffffffffff169060200190929190803590602001909291905050506127ac565b604051808581526020018481526020018381526020018260ff1660ff16815260200194505050505060405180910390f35b348015610de157600080fd5b50610e16600480360381019080803573ffffffffffffffffffffffffffffffffffffffff169060200190929190505050612805565b005b348015610e2457600080fd5b50610e43600480360381019080803590602001909291905050506128a4565b005b348015610e5157600080fd5b50610e706004803603810190808035906020019092919050505061291e565b005b348015610e7e57600080fd5b50610e87612983565b604051808261ffff1661ffff16815260200191505060405180910390f35b348015610eb157600080fd5b50610eba612997565b604051808261ffff1661ffff16815260200191505060405180910390f35b348015610ee457600080fd5b50610eed6129ab565b604051808260ff1660ff16815260200191505060405180910390f35b348015610f1557600080fd5b50610f4a600480360381019080803573ffffffffffffffffffffffffffffffffffffffff1690602001909291905050506129b0565b6040518082815260200191505060405180910390f35b348015610f6c57600080fd5b50610f756129c8565b604051808273ffffffffffffffffffffffffffffffffffffffff1673ffffffffffffffffffffffffffffffffffffffff16815260200191505060405180910390f35b348015610fc357600080fd5b50610ff8600480360381019080803573ffffffffffffffffffffffffffffffffffffffff1690602001909291905050506129ed565b005b34801561100657600080fd5b5061100f612bc8565b604051808260ff1660ff16815260200191505060405180910390f35b34801561103757600080fd5b5061106c600480360381019080803573ffffffffffffffffffffffffffffffffffffffff169060200190929190505050612bcd565b6040518082815260200191505060405180910390f35b34801561108e57600080fd5b50611097612c19565b6040518082815260200191505060405180910390f35b3480156110b957600080fd5b506110c2612c1f565b604051808260ff1660ff16815260200191505060405180910390f35b3480156110ea57600080fd5b5061111f600480360381019080803573ffffffffffffffffffffffffffffffffffffffff169060200190929190505050612c24565b005b34801561112d57600080fd5b5061114c60048036038101908080359060200190929190505050612fbe565b6040518082815260200191505060405180910390f35b34801561116e57600080fd5b506111a3600480360381019080803573ffffffffffffffffffffffffffffffffffffffff169060200190929190505050613013565b6040518082815260200191505060405180910390f35b3480156111c557600080fd5b506111ce61305f565b604051808260ff1660ff16815260200191505060405180910390f35b3480156111f657600080fd5b506111ff613072565b604051808260ff1660ff16815260200191505060405180910390f35b34801561122757600080fd5b5061124660048036038101908080359060200190929190505050613077565b604051808273ffffffffffffffffffffffffffffffffffffffff1673ffffffffffffffffffffffffffffffffffffffff16815260200191505060405180910390f35b6112b2600480360381019080803590602001909291908035151590602001909291905050506130aa565b005b3480156112c057600080fd5b506112f5600480360381019080803573ffffffffffffffffffffffffffffffffffffffff169060200190929190505050613afe565b005b34801561130357600080fd5b50611342600480360381019080803573ffffffffffffffffffffffffffffffffffffffff16906020019092919080359060200190929190505050613b66565b005b34801561135057600080fd5b50611385600480360381019080803573ffffffffffffffffffffffffffffffffffffffff169060200190929190505050613c5b565b6040518082815260200191505060405180910390f35b3480156113a757600080fd5b506113b0613ca7565b604051808215151515815260200191505060405180910390f35b3480156113d657600080fd5b506113df613cba565b604051808260ff1660ff16815260200191505060405180910390f35b34801561140757600080fd5b5061143c600480360381019080803573ffffffffffffffffffffffffffffffffffffffff169060200190929190505050613cbf565b6040518082815260200191505060405180910390f35b34801561145e57600080fd5b50611467613cd7565b604051808260ff1660ff16815260200191505060405180910390f35b34801561148f57600080fd5b506114ce600480360381019080803573ffffffffffffffffffffffffffffffffffffffff16906020019092919080359060200190929190505050613cea565b60405180848152602001838152602001828152602001935050505060405180910390f35b3480156114fe57600080fd5b50611507613d30565b6040518082815260200191505060405180910390f35b34801561152957600080fd5b5061154860048036038101908080359060200190929190505050613d36565b005b34801561155657600080fd5b5061158b600480360381019080803573ffffffffffffffffffffffffffffffffffffffff1690602001909291905050506143de565b005b34801561159957600080fd5b506115a26144b3565b6040518082815260200191505060405180910390f35b3480156115c457600080fd5b50611603600480360381019080803573ffffffffffffffffffffffffffffffffffffffff169060200190929190803590602001909291905050506144b9565b604051808273ffffffffffffffffffffffffffffffffffffffff1673ffffffffffffffffffffffffffffffffffffffff16815260200191505060405180910390f35b601c6020528060005260406000206000915054906101000a900460ff1681565b600a81565b600360009054906101000a900473ffffffffffffffffffffffffffffffffffffffff1673ffffffffffffffffffffffffffffffffffffffff163373ffffffffffffffffffffffffffffffffffffffff161415156116c657600080fd5b6117196001601860008473ffffffffffffffffffffffffffffffffffffffff1673ffffffffffffffffffffffffffffffffffffffff1681526020019081526020016000205461450690919063ffffffff16565b601860008373ffffffffffffffffffffffffffffffffffffffff1673ffffffffffffffffffffffffffffffffffffffff1681526020019081526020016000208190555050565b6000806000600654841115151561177557600080fd5b600090505b601560008673ffffffffffffffffffffffffffffffffffffffff1673ffffffffffffffffffffffffffffffffffffffff16815260200190815260200160002080549050811015611a4257601560008673ffffffffffffffffffffffffffffffffffffffff1673ffffffffffffffffffffffffffffffffffffffff1681526020019081526020016000208181548110151561181057fe5b906000526020600020906004020160030160009054906101000a900460ff161561196b57601560008673ffffffffffffffffffffffffffffffffffffffff1673ffffffffffffffffffffffffffffffffffffffff1681526020019081526020016000208181548110151561188057fe5b90600052602060002090600402016000015484101580156118fe5750601560008673ffffffffffffffffffffffffffffffffffffffff1673ffffffffffffffffffffffffffffffffffffffff168152602001908152602001600020818154811015156118e857fe5b9060005260206000209060040201600201548411155b1561196657601560008673ffffffffffffffffffffffffffffffffffffffff1673ffffffffffffffffffffffffffffffffffffffff1681526020019081526020016000208181548110151561194f57fe5b906000526020600020906004020160010154820191505b611a35565b601560008673ffffffffffffffffffffffffffffffffffffffff1673ffffffffffffffffffffffffffffffffffffffff168152602001908152602001600020818154811015156119b757fe5b90600052602060002090600402016000015484101515611a3457601560008673ffffffffffffffffffffffffffffffffffffffff1673ffffffffffffffffffffffffffffffffffffffff16815260200190815260200160002081815481101515611a1d57fe5b906000526020600020906004020160010154820191505b5b808060010191505061177a565b819250505092915050565b60018054600181600116156101000203166002900480601f016020809104026020016040519081016040528092919081815260200182805460018160011615610100020316600290048015611ae35780601f10611ab857610100808354040283529160200191611ae3565b820191906000526020600020905b815481529060010190602001808311611ac657829003601f168201915b505050505081565b600d5481565b600260009054906101000a900473ffffffffffffffffffffffffffffffffffffffff1681565b6000809054906101000a900473ffffffffffffffffffffffffffffffffffffffff1673ffffffffffffffffffffffffffffffffffffffff163373ffffffffffffffffffffffffffffffffffffffff16141515611b7257600080fd5b600460009054906101000a900473ffffffffffffffffffffffffffffffffffffffff1673ffffffffffffffffffffffffffffffffffffffff166108fc3073ffffffffffffffffffffffffffffffffffffffff16319081150290604051600060405180830381858888f1935050505050565b600e5481565b6000600360009054906101000a900473ffffffffffffffffffffffffffffffffffffffff1673ffffffffffffffffffffffffffffffffffffffff163373ffffffffffffffffffffffffffffffffffffffff16141515611c4757600080fd5b6000601160008673ffffffffffffffffffffffffffffffffffffffff1673ffffffffffffffffffffffffffffffffffffffff16815260200190815260200160002080549050111515611c9857600080fd5b6001601160008673ffffffffffffffffffffffffffffffffffffffff1673ffffffffffffffffffffffffffffffffffffffff1681526020019081526020016000208054905003905082601160008673ffffffffffffffffffffffffffffffffffffffff1673ffffffffffffffffffffffffffffffffffffffff16815260200190815260200160002082815481101515611d2d57fe5b90600052602060002090600302016001018190555081601160008673ffffffffffffffffffffffffffffffffffffffff1673ffffffffffffffffffffffffffffffffffffffff16815260200190815260200160002082815481101515611d8f57fe5b90600052602060002090600302016002018190555050505050565b600360009054906101000a900473ffffffffffffffffffffffffffffffffffffffff1673ffffffffffffffffffffffffffffffffffffffff163373ffffffffffffffffffffffffffffffffffffffff16141515611e0657600080fd5b601060008673ffffffffffffffffffffffffffffffffffffffff1673ffffffffffffffffffffffffffffffffffffffff1681526020019081526020016000206080604051908101604052808681526020018581526020018481526020018360ff168152509080600181540180825580915050906001820390600052602060002090600402016000909192909190915060008201518160000155602082015181600101556040820151816002015560608201518160030160006101000a81548160ff021916908360ff1602179055505050505050505050565b60055481565b60196020528060005260406000206000915090505481565b600b60059054906101000a900461ffff1681565b601560205281600052604060002081815481101515611f2b57fe5b9060005260206000209060040201600091509150508060000154908060010154908060020154908060030160009054906101000a900460ff16905084565b6000806000806000806000611f7e894261175f565b9550611f8a8a4261175f565b94508486101515611f9d578793506120b4565b6001601560008c73ffffffffffffffffffffffffffffffffffffffff1673ffffffffffffffffffffffffffffffffffffffff1681526020019081526020016000208054905011156120af576002601560008c73ffffffffffffffffffffffffffffffffffffffff1673ffffffffffffffffffffffffffffffffffffffff16815260200190815260200160002080549050039250601560008b73ffffffffffffffffffffffffffffffffffffffff1673ffffffffffffffffffffffffffffffffffffffff1681526020019081526020016000208381548110151561207c57fe5b906000526020600020906004020160000154915061209a8a8361175f565b9050808611156120aa5780860393505b6120b3565b8593505b5b6120dc6103e86120ce60038761452290919063ffffffff16565b61455890919063ffffffff16565b96505050505050509392505050565b6000601060008373ffffffffffffffffffffffffffffffffffffffff1673ffffffffffffffffffffffffffffffffffffffff168152602001908152602001600020805490509050919050565b600c5481565b60176020528060005260406000206000915090505481565b60166020528060005260406000206000915090505481565b600360009054906101000a900473ffffffffffffffffffffffffffffffffffffffff1673ffffffffffffffffffffffffffffffffffffffff163373ffffffffffffffffffffffffffffffffffffffff161415156121c957600080fd5b601160008573ffffffffffffffffffffffffffffffffffffffff1673ffffffffffffffffffffffffffffffffffffffff168152602001908152602001600020606060405190810160405280858152602001848152602001838152509080600181540180825580915050906001820390600052602060002090600302016000909192909190915060008201518160000155602082015181600101556040820151816002015550505050505050565b601e6020528060005260406000206000915054906101000a900460ff1681565b6000601160008373ffffffffffffffffffffffffffffffffffffffff1673ffffffffffffffffffffffffffffffffffffffff168152602001908152602001600020805490509050919050565b6012602052816000526040600020818154811015156122fd57fe5b906000526020600020016000915091509054906101000a900473ffffffffffffffffffffffffffffffffffffffff1681565b600b60019054906101000a900460ff1681565b60085481565b60075481565b601d6020528060005260406000206000915054906101000a900460ff1681565b600581565b6000809054906101000a900473ffffffffffffffffffffffffffffffffffffffff1673ffffffffffffffffffffffffffffffffffffffff163373ffffffffffffffffffffffffffffffffffffffff161415156123ce57600080fd5b80600f60006101000a81548160ff02191690831515021790555050565b60008060009054906101000a900473ffffffffffffffffffffffffffffffffffffffff1673ffffffffffffffffffffffffffffffffffffffff163373ffffffffffffffffffffffffffffffffffffffff1614151561244857600080fd5b60085460020260065401821115151561246057600080fd5b61246982612fbe565b9050826017600083815260200190815260200160002081905550505050565b6000600360009054906101000a900473ffffffffffffffffffffffffffffffffffffffff1673ffffffffffffffffffffffffffffffffffffffff163373ffffffffffffffffffffffffffffffffffffffff161415156124e657600080fd5b6000601060008773ffffffffffffffffffffffffffffffffffffffff1673ffffffffffffffffffffffffffffffffffffffff1681526020019081526020016000208054905011151561253757600080fd5b6001601060008773ffffffffffffffffffffffffffffffffffffffff1673ffffffffffffffffffffffffffffffffffffffff1681526020019081526020016000208054905003905083601060008773ffffffffffffffffffffffffffffffffffffffff1673ffffffffffffffffffffffffffffffffffffffff168152602001908152602001600020828154811015156125cc57fe5b90600052602060002090600402016001018190555082601060008773ffffffffffffffffffffffffffffffffffffffff1673ffffffffffffffffffffffffffffffffffffffff1681526020019081526020016000208281548110151561262e57fe5b90600052602060002090600402016002018190555081601060008773ffffffffffffffffffffffffffffffffffffffff1673ffffffffffffffffffffffffffffffffffffffff1681526020019081526020016000208281548110151561269057fe5b906000526020600020906004020160030160006101000a81548160ff021916908360ff1602179055505050505050565b6014602052816000526040600020818154811015156126db57fe5b9060005260206000209060020201600091509150508060000160009054906101000a900460ff16908060010154905082565b6000809054906101000a900473ffffffffffffffffffffffffffffffffffffffff1673ffffffffffffffffffffffffffffffffffffffff163373ffffffffffffffffffffffffffffffffffffffff1614151561276857600080fd5b80600460006101000a81548173ffffffffffffffffffffffffffffffffffffffff021916908373ffffffffffffffffffffffffffffffffffffffff16021790555050565b6010602052816000526040600020818154811015156127c757fe5b9060005260206000209060040201600091509150508060000154908060010154908060020154908060030160009054906101000a900460ff16905084565b6000809054906101000a900473ffffffffffffffffffffffffffffffffffffffff1673ffffffffffffffffffffffffffffffffffffffff163373ffffffffffffffffffffffffffffffffffffffff1614151561286057600080fd5b80600360006101000a81548173ffffffffffffffffffffffffffffffffffffffff021916908373ffffffffffffffffffffffffffffffffffffffff16021790555050565b600360009054906101000a900473ffffffffffffffffffffffffffffffffffffffff1673ffffffffffffffffffffffffffffffffffffffff163373ffffffffffffffffffffffffffffffffffffffff1614151561290057600080fd5b61291581600a5461450690919063ffffffff16565b600a8190555050565b6000809054906101000a900473ffffffffffffffffffffffffffffffffffffffff1673ffffffffffffffffffffffffffffffffffffffff163373ffffffffffffffffffffffffffffffffffffffff1614151561297957600080fd5b8060068190555050565b600b60079054906101000a900461ffff1681565b600b60039054906101000a900461ffff1681565b600281565b601b6020528060005260406000206000915090505481565b6000809054906101000a900473ffffffffffffffffffffffffffffffffffffffff1681565b6000600360009054906101000a900473ffffffffffffffffffffffffffffffffffffffff1673ffffffffffffffffffffffffffffffffffffffff163373ffffffffffffffffffffffffffffffffffffffff16141515612a4b57600080fd5b600090505b601560008373ffffffffffffffffffffffffffffffffffffffff1673ffffffffffffffffffffffffffffffffffffffff16815260200190815260200160002080549050811015612b7f5742601560008473ffffffffffffffffffffffffffffffffffffffff1673ffffffffffffffffffffffffffffffffffffffff16815260200190815260200160002082815481101515612ae757fe5b9060005260206000209060040201600201819055506001601560008473ffffffffffffffffffffffffffffffffffffffff1673ffffffffffffffffffffffffffffffffffffffff16815260200190815260200160002082815481101515612b4a57fe5b906000526020600020906004020160030160006101000a81548160ff0219169083151502179055508080600101915050612a50565b6000601660008473ffffffffffffffffffffffffffffffffffffffff1673ffffffffffffffffffffffffffffffffffffffff168152602001908152602001600020819055505050565b600381565b6000601360008373ffffffffffffffffffffffffffffffffffffffff1673ffffffffffffffffffffffffffffffffffffffff168152602001908152602001600020805490509050919050565b600a5481565b600581565b600080600360009054906101000a900473ffffffffffffffffffffffffffffffffffffffff1673ffffffffffffffffffffffffffffffffffffffff163373ffffffffffffffffffffffffffffffffffffffff16141515612c8357600080fd5b612c8c42612fbe565b91506000601160008573ffffffffffffffffffffffffffffffffffffffff1673ffffffffffffffffffffffffffffffffffffffff168152602001908152602001600020805490501115612de8576001601160008573ffffffffffffffffffffffffffffffffffffffff1673ffffffffffffffffffffffffffffffffffffffff168152602001908152602001600020805490500390506000601160008573ffffffffffffffffffffffffffffffffffffffff1673ffffffffffffffffffffffffffffffffffffffff16815260200190815260200160002082815481101515612d6f57fe5b9060005260206000209060030201600101819055506000601160008573ffffffffffffffffffffffffffffffffffffffff1673ffffffffffffffffffffffffffffffffffffffff16815260200190815260200160002082815481101515612dd257fe5b9060005260206000209060030201600201819055505b6000601160008573ffffffffffffffffffffffffffffffffffffffff1673ffffffffffffffffffffffffffffffffffffffff168152602001908152602001600020805490501115612fb9576001601060008573ffffffffffffffffffffffffffffffffffffffff1673ffffffffffffffffffffffffffffffffffffffff168152602001908152602001600020805490500390506000601060008573ffffffffffffffffffffffffffffffffffffffff1673ffffffffffffffffffffffffffffffffffffffff16815260200190815260200160002082815481101515612ec957fe5b9060005260206000209060040201600101819055506000601060008573ffffffffffffffffffffffffffffffffffffffff1673ffffffffffffffffffffffffffffffffffffffff16815260200190815260200160002082815481101515612f2c57fe5b9060005260206000209060040201600201819055506000601060008573ffffffffffffffffffffffffffffffffffffffff1673ffffffffffffffffffffffffffffffffffffffff16815260200190815260200160002082815481101515612f8f57fe5b906000526020600020906004020160030160006101000a81548160ff021916908360ff1602179055505b505050565b6000600854600654018211151515612fd557600080fd5b600161300b600854612ff26005548661450690919063ffffffff16565b811515612ffb57fe5b068461450690919063ffffffff16565b039050919050565b6000601560008373ffffffffffffffffffffffffffffffffffffffff1673ffffffffffffffffffffffffffffffffffffffff168152602001908152602001600020805490509050919050565b600b60029054906101000a900460ff1681565b600381565b601a6020528060005260406000206000915054906101000a900473ffffffffffffffffffffffffffffffffffffffff1681565b6000806000600f60009054906101000a900460ff1615156130ca57600080fd5b60065442111515156130db57600080fd5b6000601660003373ffffffffffffffffffffffffffffffffffffffff1673ffffffffffffffffffffffffffffffffffffffff16815260200190815260200160002054141561317b5783601e60003373ffffffffffffffffffffffffffffffffffffffff1673ffffffffffffffffffffffffffffffffffffffff16815260200190815260200160002060006101000a81548160ff0219169083151502179055505b600260009054906101000a900473ffffffffffffffffffffffffffffffffffffffff1673ffffffffffffffffffffffffffffffffffffffff166323b872dd33600360009054906101000a900473ffffffffffffffffffffffffffffffffffffffff16886040518463ffffffff167c0100000000000000000000000000000000000000000000000000000000028152600401808473ffffffffffffffffffffffffffffffffffffffff1673ffffffffffffffffffffffffffffffffffffffff1681526020018373ffffffffffffffffffffffffffffffffffffffff1673ffffffffffffffffffffffffffffffffffffffff1681526020018281526020019350505050600060405180830381600087803b15801561329657600080fd5b505af11580156132aa573d6000803e3d6000fd5b50505050601560003373ffffffffffffffffffffffffffffffffffffffff1673ffffffffffffffffffffffffffffffffffffffff16815260200190815260200160002060806040519081016040528042815260200187815260200160008152602001600015158152509080600181540180825580915050906001820390600052602060002090600402016000909192909190915060008201518160000155602082015181600101556040820151816002015560608201518160030160006101000a81548160ff021916908315150217905550505050601660003373ffffffffffffffffffffffffffffffffffffffff1673ffffffffffffffffffffffffffffffffffffffff16815260200190815260200160002054925061341385601660003373ffffffffffffffffffffffffffffffffffffffff1673ffffffffffffffffffffffffffffffffffffffff1681526020019081526020016000205461459f90919063ffffffff16565b601660003373ffffffffffffffffffffffffffffffffffffffff1673ffffffffffffffffffffffffffffffffffffffff1681526020019081526020016000208190555061346b85600a5461459f90919063ffffffff16565b600a819055507f11cb292a08eba5f64499fcedb93fd02a1af37c611dfdf9aa1012b3d408d7d59e33428787604051808573ffffffffffffffffffffffffffffffffffffffff1673ffffffffffffffffffffffffffffffffffffffff1681526020018481526020018381526020018215151515815260200194505050505060405180910390a1600090505b601260003373ffffffffffffffffffffffffffffffffffffffff1673ffffffffffffffffffffffffffffffffffffffff16815260200190815260200160002080549050811015613af757600b60029054906101000a900460ff1660ff1681141561355e57613af7565b6001601560003373ffffffffffffffffffffffffffffffffffffffff1673ffffffffffffffffffffffffffffffffffffffff16815260200190815260200160002080549050141561367257600160186000601260003373ffffffffffffffffffffffffffffffffffffffff1673ffffffffffffffffffffffffffffffffffffffff168152602001908152602001600020848154811015156135fb57fe5b9060005260206000200160009054906101000a900473ffffffffffffffffffffffffffffffffffffffff1673ffffffffffffffffffffffffffffffffffffffff1673ffffffffffffffffffffffffffffffffffffffff16815260200190815260200160002060008282540192505081905550613741565b600083141561374057600160186000601260003373ffffffffffffffffffffffffffffffffffffffff1673ffffffffffffffffffffffffffffffffffffffff168152602001908152602001600020848154811015156136cd57fe5b9060005260206000200160009054906101000a900473ffffffffffffffffffffffffffffffffffffffff1673ffffffffffffffffffffffffffffffffffffffff1673ffffffffffffffffffffffffffffffffffffffff168152602001908152602001600020600082825401925050819055505b5b6138098560196000601260003373ffffffffffffffffffffffffffffffffffffffff1673ffffffffffffffffffffffffffffffffffffffff1681526020019081526020016000208581548110151561379557fe5b9060005260206000200160009054906101000a900473ffffffffffffffffffffffffffffffffffffffff1673ffffffffffffffffffffffffffffffffffffffff1673ffffffffffffffffffffffffffffffffffffffff1681526020019081526020016000205461459f90919063ffffffff16565b60196000601260003373ffffffffffffffffffffffffffffffffffffffff1673ffffffffffffffffffffffffffffffffffffffff1681526020019081526020016000208481548110151561385957fe5b9060005260206000200160009054906101000a900473ffffffffffffffffffffffffffffffffffffffff1673ffffffffffffffffffffffffffffffffffffffff1673ffffffffffffffffffffffffffffffffffffffff16815260200190815260200160002081905550613941601260003373ffffffffffffffffffffffffffffffffffffffff1673ffffffffffffffffffffffffffffffffffffffff1681526020019081526020016000208281548110151561391157fe5b9060005260206000200160009054906101000a900473ffffffffffffffffffffffffffffffffffffffff166145c0565b6139c233601260003373ffffffffffffffffffffffffffffffffffffffff1673ffffffffffffffffffffffffffffffffffffffff1681526020019081526020016000208381548110151561399157fe5b9060005260206000200160009054906101000a900473ffffffffffffffffffffffffffffffffffffffff1687611f69565b91506002811015613a4f57613a4e601260003373ffffffffffffffffffffffffffffffffffffffff1673ffffffffffffffffffffffffffffffffffffffff16815260200190815260200160002082815481101515613a1c57fe5b9060005260206000200160009054906101000a900473ffffffffffffffffffffffffffffffffffffffff16838361517a565b5b600b60029054906101000a900460ff1660ff16811015613aea57613ae9601260003373ffffffffffffffffffffffffffffffffffffffff1673ffffffffffffffffffffffffffffffffffffffff16815260200190815260200160002082815481101515613ab857fe5b9060005260206000200160009054906101000a900473ffffffffffffffffffffffffffffffffffffffff1683615628565b5b80806001019150506134f5565b5050505050565b600360009054906101000a900473ffffffffffffffffffffffffffffffffffffffff1673ffffffffffffffffffffffffffffffffffffffff163373ffffffffffffffffffffffffffffffffffffffff16141515613b5a57600080fd5b613b63816145c0565b50565b600360009054906101000a900473ffffffffffffffffffffffffffffffffffffffff1673ffffffffffffffffffffffffffffffffffffffff163373ffffffffffffffffffffffffffffffffffffffff16141515613bc257600080fd5b613c1481601960008573ffffffffffffffffffffffffffffffffffffffff1673ffffffffffffffffffffffffffffffffffffffff1681526020019081526020016000205461450690919063ffffffff16565b601960008473ffffffffffffffffffffffffffffffffffffffff1673ffffffffffffffffffffffffffffffffffffffff168152602001908152602001600020819055505050565b6000601260008373ffffffffffffffffffffffffffffffffffffffff1673ffffffffffffffffffffffffffffffffffffffff168152602001908152602001600020805490509050919050565b600f60009054906101000a900460ff1681565b600581565b60186020528060005260406000206000915090505481565b600b60009054906101000a900460ff1681565b601160205281600052604060002081815481101515613d0557fe5b9060005260206000209060030201600091509150508060000154908060010154908060020154905083565b60065481565b600080600080600f60009054906101000a900460ff161515613d5757600080fd5b6006544211151515613d6857600080fd5b6000601b60003373ffffffffffffffffffffffffffffffffffffffff1673ffffffffffffffffffffffffffffffffffffffff16815260200190815260200160002054141515613db657600080fd5b60644233604051808381526020018273ffffffffffffffffffffffffffffffffffffffff1673ffffffffffffffffffffffffffffffffffffffff166c0100000000000000000000000002815260140192505050604051809103902060019004811515613e1e57fe5b069350613e368460075461459f90919063ffffffff16565b9250613e4d8460075461459f90919063ffffffff16565b600781905550600073ffffffffffffffffffffffffffffffffffffffff16601a600085815260200190815260200160002060009054906101000a900473ffffffffffffffffffffffffffffffffffffffff1673ffffffffffffffffffffffffffffffffffffffff16141515613ec157600080fd5b600073ffffffffffffffffffffffffffffffffffffffff16601a600087815260200190815260200160002060009054906101000a900473ffffffffffffffffffffffffffffffffffffffff1673ffffffffffffffffffffffffffffffffffffffff1614151515613f3057600080fd5b33601a600085815260200190815260200160002060006101000a81548173ffffffffffffffffffffffffffffffffffffffff021916908373ffffffffffffffffffffffffffffffffffffffff16021790555082601b60003373ffffffffffffffffffffffffffffffffffffffff1673ffffffffffffffffffffffffffffffffffffffff168152602001908152602001600020819055507f29317bf7eb9941522faad78efabe2efda58f223f6b421c6e91762fb0484cbdad33600754604051808373ffffffffffffffffffffffffffffffffffffffff1673ffffffffffffffffffffffffffffffffffffffff1681526020018281526020019250505060405180910390a1600960008154809291906001019190505550601a600086815260200190815260200160002060009054906101000a900473ffffffffffffffffffffffffffffffffffffffff169150601360008373ffffffffffffffffffffffffffffffffffffffff1673ffffffffffffffffffffffffffffffffffffffff1681526020019081526020016000203390806001815401808255809150509060018203906000526020600020016000909192909190916101000a81548173ffffffffffffffffffffffffffffffffffffffff021916908373ffffffffffffffffffffffffffffffffffffffff160217905550506009601260003373ffffffffffffffffffffffffffffffffffffffff1673ffffffffffffffffffffffffffffffffffffffff16815260200190815260200160002080549050101561420d57601260003373ffffffffffffffffffffffffffffffffffffffff1673ffffffffffffffffffffffffffffffffffffffff1681526020019081526020016000208290806001815401808255809150509060018203906000526020600020016000909192909190916101000a81548173ffffffffffffffffffffffffffffffffffffffff021916908373ffffffffffffffffffffffffffffffffffffffff160217905550505b600090505b601260008373ffffffffffffffffffffffffffffffffffffffff1673ffffffffffffffffffffffffffffffffffffffff168152602001908152602001600020805490508110156143d7576009601260003373ffffffffffffffffffffffffffffffffffffffff1673ffffffffffffffffffffffffffffffffffffffff1681526020019081526020016000208054905010156143c557601260003373ffffffffffffffffffffffffffffffffffffffff1673ffffffffffffffffffffffffffffffffffffffff168152602001908152602001600020601260008473ffffffffffffffffffffffffffffffffffffffff1673ffffffffffffffffffffffffffffffffffffffff1681526020019081526020016000208281548110151561433257fe5b9060005260206000200160009054906101000a900473ffffffffffffffffffffffffffffffffffffffff1690806001815401808255809150509060018203906000526020600020016000909192909190916101000a81548173ffffffffffffffffffffffffffffffffffffffff021916908373ffffffffffffffffffffffffffffffffffffffff160217905550506143ca565b6143d7565b8080600101915050614212565b5050505050565b6000809054906101000a900473ffffffffffffffffffffffffffffffffffffffff1673ffffffffffffffffffffffffffffffffffffffff163373ffffffffffffffffffffffffffffffffffffffff1614151561443957600080fd5b600073ffffffffffffffffffffffffffffffffffffffff168173ffffffffffffffffffffffffffffffffffffffff161415156144b057806000806101000a81548173ffffffffffffffffffffffffffffffffffffffff021916908373ffffffffffffffffffffffffffffffffffffffff1602179055505b50565b60095481565b6013602052816000526040600020818154811015156144d457fe5b906000526020600020016000915091509054906101000a900473ffffffffffffffffffffffffffffffffffffffff1681565b600082821115151561451757600080fd5b818303905092915050565b60008082840290506000841480614543575082848281151561454057fe5b04145b151561454e57600080fd5b8091505092915050565b60008060008311151561456a57600080fd5b828481151561457557fe5b049050828481151561458357fe5b06818402018414151561459557600080fd5b8091505092915050565b60008082840190508381101515156145b657600080fd5b8091505092915050565b600b60079054906101000a900461ffff1661ffff16601860008373ffffffffffffffffffffffffffffffffffffffff1673ffffffffffffffffffffffffffffffffffffffff16815260200190815260200160002054101580156146645750600e54601960008373ffffffffffffffffffffffffffffffffffffffff1673ffffffffffffffffffffffffffffffffffffffff1681526020019081526020016000205410155b80156146b65750600560ff16601360008373ffffffffffffffffffffffffffffffffffffffff1673ffffffffffffffffffffffffffffffffffffffff1681526020019081526020016000208054905010155b156148ed576003601c60008373ffffffffffffffffffffffffffffffffffffffff1673ffffffffffffffffffffffffffffffffffffffff16815260200190815260200160002060009054906101000a900460ff1660ff161415156148e8577fc7d5ff51d6870ddf5a0064f51d3b5ddc326806d4c4a84146226d42ea13e0bf3e81601c60008473ffffffffffffffffffffffffffffffffffffffff1673ffffffffffffffffffffffffffffffffffffffff16815260200190815260200160002060009054906101000a900460ff166003604051808473ffffffffffffffffffffffffffffffffffffffff1673ffffffffffffffffffffffffffffffffffffffff1681526020018360ff1660ff1681526020018260ff168152602001935050505060405180910390a16003601c60008373ffffffffffffffffffffffffffffffffffffffff1673ffffffffffffffffffffffffffffffffffffffff16815260200190815260200160002060006101000a81548160ff021916908360ff160217905550601460008273ffffffffffffffffffffffffffffffffffffffff1673ffffffffffffffffffffffffffffffffffffffff1681526020019081526020016000206040805190810160405280600360ff168152602001428152509080600181540180825580915050906001820390600052602060002090600202016000909192909190915060008201518160000160006101000a81548160ff021916908360ff160217905550602082015181600101555050505b615177565b600b60059054906101000a900461ffff1661ffff16601860008373ffffffffffffffffffffffffffffffffffffffff1673ffffffffffffffffffffffffffffffffffffffff16815260200190815260200160002054101580156149915750600d54601960008373ffffffffffffffffffffffffffffffffffffffff1673ffffffffffffffffffffffffffffffffffffffff1681526020019081526020016000205410155b80156149e35750600360ff16601360008373ffffffffffffffffffffffffffffffffffffffff1673ffffffffffffffffffffffffffffffffffffffff1681526020019081526020016000208054905010155b15614c1a576002601c60008373ffffffffffffffffffffffffffffffffffffffff1673ffffffffffffffffffffffffffffffffffffffff16815260200190815260200160002060009054906101000a900460ff1660ff16141515614c15577fc7d5ff51d6870ddf5a0064f51d3b5ddc326806d4c4a84146226d42ea13e0bf3e81601c60008473ffffffffffffffffffffffffffffffffffffffff1673ffffffffffffffffffffffffffffffffffffffff16815260200190815260200160002060009054906101000a900460ff166002604051808473ffffffffffffffffffffffffffffffffffffffff1673ffffffffffffffffffffffffffffffffffffffff1681526020018360ff1660ff1681526020018260ff168152602001935050505060405180910390a16002601c60008373ffffffffffffffffffffffffffffffffffffffff1673ffffffffffffffffffffffffffffffffffffffff16815260200190815260200160002060006101000a81548160ff021916908360ff160217905550601460008273ffffffffffffffffffffffffffffffffffffffff1673ffffffffffffffffffffffffffffffffffffffff1681526020019081526020016000206040805190810160405280600260ff168152602001428152509080600181540180825580915050906001820390600052602060002090600202016000909192909190915060008201518160000160006101000a81548160ff021916908360ff160217905550602082015181600101555050505b615176565b600b60039054906101000a900461ffff1661ffff16601860008373ffffffffffffffffffffffffffffffffffffffff1673ffffffffffffffffffffffffffffffffffffffff1681526020019081526020016000205410158015614cbe5750600c54601960008373ffffffffffffffffffffffffffffffffffffffff1673ffffffffffffffffffffffffffffffffffffffff1681526020019081526020016000205410155b8015614d105750600260ff16601360008373ffffffffffffffffffffffffffffffffffffffff1673ffffffffffffffffffffffffffffffffffffffff1681526020019081526020016000208054905010155b15614f47576001601c60008373ffffffffffffffffffffffffffffffffffffffff1673ffffffffffffffffffffffffffffffffffffffff16815260200190815260200160002060009054906101000a900460ff1660ff16141515614f42577fc7d5ff51d6870ddf5a0064f51d3b5ddc326806d4c4a84146226d42ea13e0bf3e81601c60008473ffffffffffffffffffffffffffffffffffffffff1673ffffffffffffffffffffffffffffffffffffffff16815260200190815260200160002060009054906101000a900460ff166001604051808473ffffffffffffffffffffffffffffffffffffffff1673ffffffffffffffffffffffffffffffffffffffff1681526020018360ff1660ff1681526020018260ff168152602001935050505060405180910390a16001601c60008373ffffffffffffffffffffffffffffffffffffffff1673ffffffffffffffffffffffffffffffffffffffff16815260200190815260200160002060006101000a81548160ff021916908360ff160217905550601460008273ffffffffffffffffffffffffffffffffffffffff1673ffffffffffffffffffffffffffffffffffffffff1681526020019081526020016000206040805190810160405280600160ff168152602001428152509080600181540180825580915050906001820390600052602060002090600202016000909192909190915060008201518160000160006101000a81548160ff021916908360ff160217905550602082015181600101555050505b615175565b6000601c60008373ffffffffffffffffffffffffffffffffffffffff1673ffffffffffffffffffffffffffffffffffffffff16815260200190815260200160002060009054906101000a900460ff1660ff16141515615174577fc7d5ff51d6870ddf5a0064f51d3b5ddc326806d4c4a84146226d42ea13e0bf3e81601c60008473ffffffffffffffffffffffffffffffffffffffff1673ffffffffffffffffffffffffffffffffffffffff16815260200190815260200160002060009054906101000a900460ff166000604051808473ffffffffffffffffffffffffffffffffffffffff1673ffffffffffffffffffffffffffffffffffffffff1681526020018360ff1660ff1681526020018260ff168152602001935050505060405180910390a16000601c60008373ffffffffffffffffffffffffffffffffffffffff1673ffffffffffffffffffffffffffffffffffffffff16815260200190815260200160002060006101000a81548160ff021916908360ff160217905550601460008273ffffffffffffffffffffffffffffffffffffffff1673ffffffffffffffffffffffffffffffffffffffff1681526020019081526020016000206040805190810160405280600060ff168152602001428152509080600181540180825580915050906001820390600052602060002090600202016000909192909190915060008201518160000160006101000a81548160ff021916908360ff160217905550602082015181600101555050505b5b5b5b50565b6000806000806000806000806000808a14156151a757600b60009054906101000a900460ff1698506151cd565b60018a14156151c757600b60019054906101000a900460ff1698506151cc565b61561a565b5b6008546151d942612fbe565b0197506000601160008e73ffffffffffffffffffffffffffffffffffffffff1673ffffffffffffffffffffffffffffffffffffffff1681526020019081526020016000208054905014156152f557601160008d73ffffffffffffffffffffffffffffffffffffffff1673ffffffffffffffffffffffffffffffffffffffff1681526020019081526020016000206060604051908101604052808a815260200160648c60ff168f0281151561528957fe5b04815260200160648c60ff168f028115156152a057fe5b0481525090806001815401808255809150509060018203906000526020600020906003020160009091929091909150600082015181600001556020820151816001015560408201518160020155505050615619565b6001601160008e73ffffffffffffffffffffffffffffffffffffffff1673ffffffffffffffffffffffffffffffffffffffff16815260200190815260200160002080549050039650601160008d73ffffffffffffffffffffffffffffffffffffffff1673ffffffffffffffffffffffffffffffffffffffff1681526020019081526020016000208781548110151561538957fe5b9060005260206000209060030201600001549550601160008d73ffffffffffffffffffffffffffffffffffffffff1673ffffffffffffffffffffffffffffffffffffffff168152602001908152602001600020878154811015156153e957fe5b9060005260206000209060030201600101549450601160008d73ffffffffffffffffffffffffffffffffffffffff1673ffffffffffffffffffffffffffffffffffffffff1681526020019081526020016000208781548110151561544957fe5b906000526020600020906003020160020154935060085486890381151561546c57fe5b0492508460648a60ff168d0281151561548157fe5b040191508360648a60ff168d0281151561549757fe5b04868502010190508786101561555357601160008d73ffffffffffffffffffffffffffffffffffffffff1673ffffffffffffffffffffffffffffffffffffffff1681526020019081526020016000206060604051908101604052808a81526020018481526020018381525090806001815401808255809150509060018203906000526020600020906003020160009091929091909150600082015181600001556020820151816001015560408201518160020155505050615618565b81601160008e73ffffffffffffffffffffffffffffffffffffffff1673ffffffffffffffffffffffffffffffffffffffff168152602001908152602001600020888154811015156155a057fe5b90600052602060002090600302016001018190555080601160008e73ffffffffffffffffffffffffffffffffffffffff1673ffffffffffffffffffffffffffffffffffffffff1681526020019081526020016000208881548110151561560257fe5b9060005260206000209060030201600201819055505b5b5b505050505050505050505050565b6000615632615afd565b6000806000601d6000601c60008a73ffffffffffffffffffffffffffffffffffffffff1673ffffffffffffffffffffffffffffffffffffffff16815260200190815260200160002060009054906101000a900460ff1660ff1660ff16815260200190815260200160002060009054906101000a900460ff169450608060405190810160405280600081526020016000815260200160008152602001600060ff1681525093506008546156e342612fbe565b0192506000601060008973ffffffffffffffffffffffffffffffffffffffff1673ffffffffffffffffffffffffffffffffffffffff16815260200190815260200160002080549050141561582457828460000181815250508584602001818152505060648560ff16870281151561575657fe5b0484604001818152505084846060019060ff16908160ff1681525050601060008873ffffffffffffffffffffffffffffffffffffffff1673ffffffffffffffffffffffffffffffffffffffff168152602001908152602001600020849080600181540180825580915050906001820390600052602060002090600402016000909192909190915060008201518160000155602082015181600101556040820151816002015560608201518160030160006101000a81548160ff021916908360ff160217905550505050615af4565b6001601060008973ffffffffffffffffffffffffffffffffffffffff1673ffffffffffffffffffffffffffffffffffffffff16815260200190815260200160002080549050039150601060008873ffffffffffffffffffffffffffffffffffffffff1673ffffffffffffffffffffffffffffffffffffffff168152602001908152602001600020828154811015156158b857fe5b9060005260206000209060040201608060405190810160405290816000820154815260200160018201548152602001600282015481526020016003820160009054906101000a900460ff1660ff1660ff168152505093506008548460000151840381151561592257fe5b0490506064846060015160ff16856020015183020281151561594057fe5b0484604001818152505060648560ff16870281151561595b57fe5b048460400181815101915081815250508584602001818151019150818152505084846060019060ff16908160ff16815250508284600001511015615a555782846000018181525050601060008873ffffffffffffffffffffffffffffffffffffffff1673ffffffffffffffffffffffffffffffffffffffff168152602001908152602001600020849080600181540180825580915050906001820390600052602060002090600402016000909192909190915060008201518160000155602082015181600101556040820151816002015560608201518160030160006101000a81548160ff021916908360ff160217905550505050615af3565b83601060008973ffffffffffffffffffffffffffffffffffffffff1673ffffffffffffffffffffffffffffffffffffffff16815260200190815260200160002083815481101515615aa257fe5b906000526020600020906004020160008201518160000155602082015181600101556040820151816002015560608201518160030160006101000a81548160ff021916908360ff1602179055509050505b5b50505050505050565b608060405190810160405280600081526020016000815260200160008152602001600060ff16815250905600a165627a7a72305820bad5330fcda8376edcc9008d84276d46757360ce065de422be58ecd1e4cc2c170029",
  "source": "pragma solidity ^0.4.23;\n/*\n *             ╔═╗┌─┐┌─┐┬┌─┐┬┌─┐┬   ┌─────────────────────────┐ ╦ ╦┌─┐┌┐ ╔═╗┬┌┬┐┌─┐\n *             ║ ║├┤ ├┤ ││  │├─┤│   │ KOL Community Foundation│ │ ║║║├┤ ├┴┐╚═╗│ │ ├┤\n *             ╚═╝└  └  ┴└─┘┴┴ ┴┴─┘ └─┬─────────────────────┬─┘ ╚╩╝└─┘└─┘╚═╝┴ ┴ └─┘\n *   ┌────────────────────────────────┘                     └──────────────────────────────┐\n *   │    ┌─────────────────────────────────────────────────────────────────────────────┐  │\n *   └────┤ Dev:Jack Koe ├─────────────┤ Special for: KOL  ├───────────────┤ 20200513   ├──┘\n *        └─────────────────────────────────────────────────────────────────────────────┘\n */\n\n library SafeMath {\n   function mul(uint a, uint b) internal pure  returns (uint) {\n     uint c = a * b;\n     require(a == 0 || c / a == b);\n     return c;\n   }\n   function div(uint a, uint b) internal pure returns (uint) {\n     require(b > 0);\n     uint c = a / b;\n     require(a == b * c + a % b);\n     return c;\n   }\n   function sub(uint a, uint b) internal pure returns (uint) {\n     require(b <= a);\n     return a - b;\n   }\n   function add(uint a, uint b) internal pure returns (uint) {\n     uint c = a + b;\n     require(c >= a);\n     return c;\n   }\n   function max64(uint64 a, uint64 b) internal  pure returns (uint64) {\n     return a >= b ? a : b;\n   }\n   function min64(uint64 a, uint64 b) internal  pure returns (uint64) {\n     return a < b ? a : b;\n   }\n   function max256(uint256 a, uint256 b) internal  pure returns (uint256) {\n     return a >= b ? a : b;\n   }\n   function min256(uint256 a, uint256 b) internal  pure returns (uint256) {\n     return a < b ? a : b;\n   }\n }\n\n /**\n  * title KOL Promotion contract\n  * dev visit: https://github.com/jackoelv/KOL/\n */\n\n contract ERC20Basic {\n   uint public totalSupply;\n   function balanceOf(address who) public constant returns (uint);\n   function transfer(address to, uint value) public;\n   event Transfer(address indexed from, address indexed to, uint value);\n }\n\n contract ERC20 is ERC20Basic {\n   function allowance(address owner, address spender) public constant returns (uint);\n   function transferFrom(address from, address to, uint value) public;\n   function approve(address spender, uint value) public;\n   event Approval(address indexed owner, address indexed spender, uint value);\n }\n\n /**\n  * title KOL Promotion contract\n  * dev visit: https://github.com/jackoelv/KOL/\n */\n\n contract BasicToken is ERC20Basic {\n\n   using SafeMath for uint;\n\n   mapping(address => uint) balances;\n\n   function transfer(address _to, uint _value) public{\n     balances[msg.sender] = balances[msg.sender].sub(_value);\n     balances[_to] = balances[_to].add(_value);\n     emit Transfer(msg.sender, _to, _value);\n   }\n\n   function balanceOf(address _owner) public constant returns (uint balance) {\n     return balances[_owner];\n   }\n }\n\n /**\n  * title KOL Promotion contract\n  * dev visit: https://github.com/jackoelv/KOL/\n */\n\n contract StandardToken is BasicToken, ERC20 {\n   mapping (address => mapping (address => uint)) allowed;\n   uint256 public userSupplyed;\n\n   function transferFrom(address _from, address _to, uint _value) public {\n     balances[_to] = balances[_to].add(_value);\n     balances[_from] = balances[_from].sub(_value);\n     allowed[_from][msg.sender] = allowed[_from][msg.sender].sub(_value);\n     emit Transfer(_from, _to, _value);\n   }\n\n   function approve(address _spender, uint _value) public{\n     require((_value == 0) || (allowed[msg.sender][_spender] == 0)) ;\n     allowed[msg.sender][_spender] = _value;\n     emit Approval(msg.sender, _spender, _value);\n   }\n\n   function allowance(address _owner, address _spender) public constant returns (uint remaining) {\n     return allowed[_owner][_spender];\n   }\n }\n contract KOL is StandardToken {\n }\n\n /**\n  * title KOL Promotion contract\n  * dev visit: https://github.com/jackoelv/KOL/\n */\n\n contract Ownable {\n     address public owner;\n\n     constructor() public{\n         owner = msg.sender;\n     }\n\n     modifier onlyOwner {\n         require(msg.sender == owner);\n         _;\n     }\n     function transferOwnership(address newOwner) onlyOwner public{\n         if (newOwner != address(0)) {\n             owner = newOwner;\n         }\n     }\n }\n /**\n  * title KOL Promotion contract\n  * dev visit: https://github.com/jackoelv/KOL/\n */\ncontract KOLPro is Ownable{\n  using SafeMath for uint256;\n  string public name = \"KOL Promotion\";\n  KOL public kol;\n  address public draw;\n  address private receiver;\n\n  uint256 public begin;\n  uint256 public end;\n\n  uint256 public iCode;\n  uint256 public every = 1 days;\n  uint256 public totalRegister;\n  uint256 public totalBalance;\n\n  uint8 public  userLevel1 = 20;\n  uint8 public  userLevel2 = 10;\n  uint8 public maxlevel = 9;\n\n  uint16 public  comLevel1Users = 100;\n  uint16 public  comLevel2Users = 200;\n  uint16 public  comLevel3Users = 300;\n\n  uint256 public  comLevel1Amount = 30000 * (10 ** 18);\n  uint256 public  comLevel2Amount = 50000 * (10 ** 18);\n  uint256 public  comLevel3Amount = 100000 * (10 ** 18);\n\n  uint8 public constant comLevel1 = 3;\n  uint8 public constant comLevel2 = 5;\n  uint8 public constant comLevel3 = 10;\n  uint8 public constant inviteLevel1 = 2;\n  uint8 public constant inviteLevel2 = 3;\n  uint8 public constant inviteLevel3 = 5;\n\n\n  uint8 public constant fee = 5;\n  bool public going = true;\n\n\n  struct lock{\n    uint256 begin;\n    uint256 amount;\n    uint256 end;\n    bool withDrawed;\n  }\n\n  struct teamRate{\n    uint8 rate;\n    uint256 changeTime;\n\n  }\n\n  struct dayTeamBonus{\n    uint256 theDayLastSecond;\n    uint256 theDayTeamBonus;\n    uint256 totalTeamBonus;\n    uint8 theDayRate;\n  }\n  struct dayInviteBonus{\n    uint256 theDayLastSecond;\n    uint256 theDayInviteBonus;\n    uint256 totalInviteBonus;\n  }\n\n\n\n  mapping (address => dayTeamBonus[]) public LockTeamBonus;\n  mapping (address => dayInviteBonus[]) public LockInviteBonus;\n\n\n  mapping (address => address[]) public InviteList;\n  mapping (address => address[]) public ChildAddrs;\n  mapping (address => teamRate[]) public TeamRateList;\n  mapping (address => lock[]) public LockHistory;\n  mapping (address => uint256) public LockBalance;\n\n  mapping (uint256 => uint256) public ClosePrice;\n  mapping (address => uint256) public TotalUsers;\n  mapping (address => uint256) public TotalLockingAmount;\n  mapping (uint256 => address) public InviteCode;\n  mapping (address => uint256) public RInviteCode;\n\n  mapping (address => uint8) public isLevelN;\n  mapping (uint8 => uint8) public levelRate;\n  mapping (address => bool) public USDTOrCoin;\n\n  //GAS优化\n\n  event Registed(address _user,uint256 inviteCode);\n  event Joined(address _user,uint256 _theTime,uint256 _amount,bool _usdtOrCoin);\n  event GradeChanged(address _user,uint8 _oldLevel,uint8 _newLevel);\n\n  modifier onlyContract {\n      require(msg.sender == draw);\n      _;\n  }\n  constructor(address _tokenAddress,address _receiver,uint256 _begin,uint256 _end) public {\n    kol = KOL(_tokenAddress);\n    receiver = _receiver;\n    begin = _begin;\n    end = _end;\n    InviteCode[0] = owner;\n    levelRate[0] = 0;\n    levelRate[1] = comLevel1;\n    levelRate[2] = comLevel2;\n    levelRate[3] = comLevel3;\n  }\n\n  function register(uint256 _fInviteCode) public {\n    require(going);\n    require(now <= end);\n    require(RInviteCode[msg.sender] == 0);\n    uint256 random = uint256(keccak256(now, msg.sender)) % 100;\n    uint256 _myInviteCode = iCode.add(random);\n    iCode = iCode.add(random);\n\n    require(InviteCode[_myInviteCode] == address(0));\n    require(InviteCode[_fInviteCode] != address(0));\n    InviteCode[_myInviteCode] = msg.sender;\n    RInviteCode[msg.sender] = _myInviteCode;\n    emit Registed(msg.sender,iCode);\n    totalRegister ++;\n    address father = InviteCode[_fInviteCode];\n    ChildAddrs[father].push(msg.sender);\n    if (InviteList[msg.sender].length < 9){\n      InviteList[msg.sender].push(father);\n    }\n    for (uint i = 0 ; i < InviteList[father].length; i++){\n      if (InviteList[msg.sender].length < 9){\n        InviteList[msg.sender].push(InviteList[father][i]);\n      }else{\n        break;\n      }\n\n    }\n\n  }\n  /**\n   * title 转入KOL进行持仓生息\n   * _usdtOrCoin, true:金本位; false:币本位\n   * dev visit: https://github.com/jackoelv/KOL/\n  */\n  function join(uint256 _amount,bool _usdtOrCoin) payable  public {\n    require(going);\n    require(now <= end);\n    if (LockBalance[msg.sender] == 0) USDTOrCoin[msg.sender] = _usdtOrCoin;\n    kol.transferFrom(msg.sender,draw,_amount);\n    LockHistory[msg.sender].push(lock(now,_amount,0,false));\n    uint256 oldBalance = LockBalance[msg.sender];\n    LockBalance[msg.sender] = LockBalance[msg.sender].add(_amount);\n    totalBalance = totalBalance.add(_amount);\n    emit Joined(msg.sender,now,_amount,_usdtOrCoin);\n\n    uint256 amount3;//amount*3/1000以后\n\n    for (uint i = 0; i<InviteList[msg.sender].length; i++){\n      if (i == maxlevel) break;\n      if (LockHistory[msg.sender].length == 1){\n        //给上面的人数+1\n        TotalUsers[InviteList[msg.sender][i]] += 1;\n      }else{\n        if (oldBalance == 0) TotalUsers[InviteList[msg.sender][i]] += 1;\n      }\n      //给上面的加入团队总金额\n\n      TotalLockingAmount[InviteList[msg.sender][i]] = TotalLockingAmount[InviteList[msg.sender][i]].add(_amount);\n      queryAndSetLevelN(InviteList[msg.sender][i]);\n\n      amount3 = calcuDiffAmount(msg.sender,InviteList[msg.sender][i],_amount);\n\n\n      if (i<2){\n        setTopInviteBonus(InviteList[msg.sender][i],amount3,i);\n      }\n\n      if (i < maxlevel){\n        setTopTeamBonus(InviteList[msg.sender][i],amount3);\n      }\n    }\n  }\n  function calcuDiffAmount(address _selfAddr,address _topAddr,uint256 _amount) public view returns(uint256){\n    //计算网体收益加速额。\n    uint256 topDayLockBalance = queryLockBalance(_topAddr,now);\n    uint256 selfDayLockBalance = queryLockBalance(_selfAddr,now);\n    uint256 minAmount;\n\n    if (topDayLockBalance >= selfDayLockBalance){\n      minAmount = _amount;\n    }else{\n        if(LockHistory[_selfAddr].length > 1){\n            uint256 previous = LockHistory[_selfAddr].length - 2;\n            uint256 theTime = LockHistory[_selfAddr][previous].begin;\n            uint256 previousLockBalance = queryLockBalance(_selfAddr,theTime);\n            if (topDayLockBalance > previousLockBalance){\n              //_amount + previousLockBalance 一定是大于topDayLockBalance的；\n              minAmount = topDayLockBalance - previousLockBalance;\n            }\n        }else{\n          minAmount = topDayLockBalance;\n        }\n    }\n    return minAmount.mul(3).div(1000);\n  }\n  function setTopTeamBonus(address _topAddr,uint256 _minAmount) private {\n    uint8 newRate = levelRate[isLevelN[_topAddr]];\n    dayTeamBonus memory theDayTB =dayTeamBonus(0,0,0,0);\n    uint256 tomorrowLastSecond =getYestodayLastSecond(now) +  every;\n\n    if (LockTeamBonus[_topAddr].length == 0){\n      theDayTB.theDayLastSecond = tomorrowLastSecond;\n      theDayTB.theDayTeamBonus = _minAmount;\n      theDayTB.totalTeamBonus = _minAmount * newRate / 100;\n      theDayTB.theDayRate = newRate;\n      LockTeamBonus[_topAddr].push(theDayTB);\n    }else{\n      uint256 last = LockTeamBonus[_topAddr].length -1;\n      theDayTB = LockTeamBonus[_topAddr][last];\n\n      uint256 lastingDays = (tomorrowLastSecond - theDayTB.theDayLastSecond) / every;\n\n      theDayTB.totalTeamBonus = lastingDays * theDayTB.theDayTeamBonus * theDayTB.theDayRate/100;//这里不好解决啊\n      theDayTB.totalTeamBonus += _minAmount * newRate / 100;\n      theDayTB.theDayTeamBonus += _minAmount;\n      theDayTB.theDayRate = newRate;\n        //必然就都是明天。\n      if(theDayTB.theDayLastSecond < tomorrowLastSecond){\n        theDayTB.theDayLastSecond = tomorrowLastSecond;\n        LockTeamBonus[_topAddr].push(theDayTB);\n      }else{\n        LockTeamBonus[_topAddr][last]=theDayTB;\n      }\n    }\n  }\n  function setTopInviteBonus(address _topAddr,uint256 _minAmount,uint256 _index) private {\n    uint8 inviteRate;\n    if (_index == 0){\n      inviteRate = userLevel1;\n    }else if(_index ==1){\n      inviteRate = userLevel2;\n    }else{\n      return;\n    }\n    uint256 tomorrowLastSecond = getYestodayLastSecond(now) + every;\n    if (LockInviteBonus[_topAddr].length == 0){\n      LockInviteBonus[_topAddr].push(dayInviteBonus(tomorrowLastSecond,\n                                            _minAmount * inviteRate/100,\n                                            _minAmount * inviteRate/100));\n    }else{\n      uint256 last = LockInviteBonus[_topAddr].length -1;\n\n      uint256 lastDayLastSecond = LockInviteBonus[_topAddr][last].theDayLastSecond;\n      uint256 lastDayInviteBonus = LockInviteBonus[_topAddr][last].theDayInviteBonus;\n      uint256 lastDayInviteTotalBonus = LockInviteBonus[_topAddr][last].totalInviteBonus;\n\n      uint256 lastingDays = (tomorrowLastSecond - lastDayLastSecond) / every;\n      uint256 newDayInviteBonus = _minAmount* inviteRate / 100 + lastDayInviteBonus;\n      uint256 newDayInviteTotalBonus = (lastingDays * lastDayInviteBonus) + _minAmount * inviteRate /100 + lastDayInviteTotalBonus;\n        //必然就都是明天。\n      if(lastDayLastSecond < tomorrowLastSecond){\n        LockInviteBonus[_topAddr].push(dayInviteBonus(tomorrowLastSecond,\n                                              newDayInviteBonus,\n                                              newDayInviteTotalBonus));\n      }else{\n        LockInviteBonus[_topAddr][last].theDayInviteBonus = newDayInviteBonus;\n        LockInviteBonus[_topAddr][last].totalInviteBonus = newDayInviteTotalBonus;\n      }\n\n    }\n  }\n  /**\n   * title 查询并设置用户的身份级别\n   * dev visit: https://github.com/jackoelv/KOL/\n  */\n  function queryAndSetLevelN(address _addr) private{\n    if ((TotalUsers[_addr] >= comLevel3Users) &&\n              (TotalLockingAmount[_addr] >= comLevel3Amount) &&\n              ChildAddrs[_addr].length>=inviteLevel3){\n      if (isLevelN[_addr]!=3){\n        emit GradeChanged(_addr,isLevelN[_addr],3);\n        isLevelN[_addr] = 3;\n        TeamRateList[_addr].push(teamRate(3,now));\n      }\n    }else if((TotalUsers[_addr] >= comLevel2Users) &&\n              (TotalLockingAmount[_addr] >= comLevel2Amount) &&\n              ChildAddrs[_addr].length>=inviteLevel2){\n      if (isLevelN[_addr]!=2){\n        emit GradeChanged(_addr,isLevelN[_addr],2);\n        isLevelN[_addr] = 2;\n        TeamRateList[_addr].push(teamRate(2,now));\n      }\n    }else if((TotalUsers[_addr] >= comLevel1Users) &&\n              (TotalLockingAmount[_addr] >= comLevel1Amount) &&\n              ChildAddrs[_addr].length>=inviteLevel1){\n      if (isLevelN[_addr]!=1){\n        emit GradeChanged(_addr,isLevelN[_addr],1);\n        isLevelN[_addr] = 1;\n        TeamRateList[_addr].push(teamRate(1,now));\n      }\n    }else{\n      if (isLevelN[_addr]!=0){\n        emit GradeChanged(_addr,isLevelN[_addr],0);\n        isLevelN[_addr] = 0;\n        TeamRateList[_addr].push(teamRate(0,now));\n      }\n    }\n  }\n\n  /**\n   * title 查询指定时间用户的有效锁仓余额\n   * dev visit: https://github.com/jackoelv/KOL/\n  */\n  function queryLockBalance(address _addr,uint256 _queryTime) public view returns(uint256) {\n    require(_queryTime <= end);\n    uint256 dayLockBalance;\n    for (uint j = 0; j<LockHistory[_addr].length; j++){\n      if (LockHistory[_addr][j].withDrawed){\n        //如果是已经提现的资金，那就要求计算日期是在起止时间内的。\n        if ((_queryTime >= LockHistory[_addr][j].begin) && (_queryTime <= LockHistory[_addr][j].end)){\n            dayLockBalance += LockHistory[_addr][j].amount;\n        }\n      }else{\n        if (_queryTime >= LockHistory[_addr][j].begin ){\n          //这个就要计入到当天的收益\n          dayLockBalance += LockHistory[_addr][j].amount;\n        }\n      }\n    }\n    return dayLockBalance;\n  }\n\n  /**\n   * title 根据给定时间计算出昨天的最后一秒\n   * dev visit: https://github.com/jackoelv/KOL/\n  */\n  function getYestodayLastSecond(uint256 _queryTime) public view returns(uint256){\n    require(_queryTime <= (end + every));\n    return (_queryTime.sub(_queryTime.sub(begin) % every) - 1);\n  }\n\n\n  function clearLock(address _addr) onlyContract public{\n    for (uint i =0;i<LockHistory[_addr].length;i++){\n      LockHistory[_addr][i].end = now;\n      LockHistory[_addr][i].withDrawed = true;\n    }\n    LockBalance[_addr] = 0;\n  }\n  function pushInvite(address _addr,\n                      uint256 _theDayLastSecond,\n                      uint256 _theDayInviteBonus,\n                      uint256 _totalInviteBonus) onlyContract public{\n    LockInviteBonus[_addr].push(dayInviteBonus(_theDayLastSecond,\n                                              _theDayInviteBonus,\n                                              _totalInviteBonus));\n  }\n  function setLastInvite(address _addr,\n                      uint256 _theDayInviteBonus,\n                      uint256 _totalInviteBonus) onlyContract public{\n    require(LockInviteBonus[_addr].length > 0);\n    uint256 last = LockInviteBonus[_addr].length -1;\n    LockInviteBonus[_addr][last].theDayInviteBonus = _theDayInviteBonus;\n    LockInviteBonus[_addr][last].totalInviteBonus = _totalInviteBonus;\n  }\n  function pushTeam(address _addr,\n                      uint256 _theDayLastSecond,\n                      uint256 _theDayTeamBonus,\n                      uint256 _totalTeamBonus,\n                      uint8 _theDayRate) onlyContract public{\n    LockTeamBonus[_addr].push(dayTeamBonus(_theDayLastSecond,\n                                              _theDayTeamBonus,\n                                              _totalTeamBonus,\n                                              _theDayRate));\n  }\n  function setLastTeam(address _addr,\n                      uint256 _theDayTeamBonus,\n                      uint256 _totalTeamBonus,\n                      uint8 _theDayRate) onlyContract public{\n    require(LockTeamBonus[_addr].length > 0);\n    uint256 last = LockTeamBonus[_addr].length - 1;\n    LockTeamBonus[_addr][last].theDayTeamBonus = _theDayTeamBonus;\n    LockTeamBonus[_addr][last].totalTeamBonus = _totalTeamBonus;\n    LockTeamBonus[_addr][last].theDayRate = _theDayRate;\n\n  }\n  function subTotalUsers(address _addr) onlyContract public{\n    TotalUsers[_addr] = TotalUsers[_addr].sub(1);\n  }\n  function subTotalLockingAmount(address _addr,uint256 _amount) onlyContract public{\n    TotalLockingAmount[_addr] = TotalLockingAmount[_addr].sub(_amount);\n  }\n  function subTotalBalance(uint256 _amount) onlyContract public{\n    totalBalance=totalBalance.sub(_amount);\n  }\n  function qsLevel(address _addr) onlyContract public{\n    queryAndSetLevelN(_addr);\n  }\n  function setInviteTeam(address _addr) onlyContract public{\n    uint256 yestodayLastSecond = getYestodayLastSecond(now);\n    uint256 last;\n    if (LockInviteBonus[_addr].length > 0){\n      last = LockInviteBonus[_addr].length - 1;\n      LockInviteBonus[_addr][last].theDayInviteBonus = 0;\n      LockInviteBonus[_addr][last].totalInviteBonus = 0;\n    }\n    if (LockInviteBonus[_addr].length > 0){\n      last = LockTeamBonus[_addr].length - 1;\n      LockTeamBonus[_addr][last].theDayTeamBonus = 0;\n      LockTeamBonus[_addr][last].totalTeamBonus = 0;\n      LockTeamBonus[_addr][last].theDayRate = 0;\n    }\n  }\n  /**\n   * title 录入KOL的收盘价\n   * dev visit: https://github.com/jackoelv/KOL/\n  */\n  function putClosePrice(uint256 price,uint256 _queryTime) onlyOwner public{\n    //录入的价格为4位小数\n    require(_queryTime <= (end + 2*every));\n    uint256 yestodayLastSecond = getYestodayLastSecond(_queryTime);\n    ClosePrice[yestodayLastSecond] = price;\n  }\n\n  function setReceiver(address _receiver) onlyOwner public{\n    receiver = _receiver;\n  }\n  function draw() onlyOwner public{\n    receiver.send(address(this).balance);\n  }\n  function setContract(address _addr) onlyOwner public{\n    draw = _addr;\n  }\n  function setGoing(bool _going) onlyOwner public{\n    going = _going;\n  }\n  function setEnd(uint256 _end) onlyOwner public{\n    end = _end;\n  }\n\n  function getLockLen(address _addr) public view returns(uint256) {\n    return(LockHistory[_addr].length);\n  }\n  function getFathersLength(address _addr) public view returns(uint256){\n    return InviteList[_addr].length;\n  }\n  function getLockTeamBonusLen(address _addr) public view returns(uint256){\n    return(LockTeamBonus[_addr].length);\n  }\n  function getLockInviteBonusLen(address _addr) public view returns(uint256){\n    return(LockInviteBonus[_addr].length);\n  }\n  function getChildsLen(address _addr) public view returns(uint256){\n  return(ChildAddrs[_addr].length);\n  }\n\n}\n",
  "sourcePath": "/Users/jack/git/github/KOL/contracts/KOLPromotion.sol",
  "compiler": {
    "name": "solc",
    "version": "0.4.23+commit.124ca40d.Emscripten.clang"
  },
  "schemaVersion": "3.0.19",
  "updatedAt": "2020-05-13T13:40:18.653Z",
  "networkType": "ethereum",
  "devdoc": {
    "methods": {}
  },
  "userdoc": {
    "methods": {
      "getYestodayLastSecond(uint256)": {
        "notice": "title 根据给定时间计算出昨天的最后一秒 dev visit: https://github.com/jackoelv/KOL/"
      },
      "join(uint256,bool)": {
        "notice": "title 转入KOL进行持仓生息 _usdtOrCoin, true:金本位; false:币本位 dev visit: https://github.com/jackoelv/KOL/"
      },
      "putClosePrice(uint256,uint256)": {
        "notice": "title 录入KOL的收盘价 dev visit: https://github.com/jackoelv/KOL/"
      },
      "queryLockBalance(address,uint256)": {
        "notice": "title 查询指定时间用户的有效锁仓余额 dev visit: https://github.com/jackoelv/KOL/"
      }
    }
  }
}