{
  "contractName": "KOLPromote",
  "abi": [
    {
      "constant": true,
      "inputs": [],
      "name": "comLevel3",
      "outputs": [
        {
          "name": "",
          "type": "uint8"
        }
      ],
      "payable": false,
      "stateMutability": "view",
      "type": "function"
    },
    {
      "constant": true,
      "inputs": [],
      "name": "name",
      "outputs": [
        {
          "name": "",
          "type": "string"
        }
      ],
      "payable": false,
      "stateMutability": "view",
      "type": "function"
    },
    {
      "constant": true,
      "inputs": [],
      "name": "comLevel2Amount",
      "outputs": [
        {
          "name": "",
          "type": "uint256"
        }
      ],
      "payable": false,
      "stateMutability": "view",
      "type": "function"
    },
    {
      "constant": true,
      "inputs": [],
      "name": "kol",
      "outputs": [
        {
          "name": "",
          "type": "address"
        }
      ],
      "payable": false,
      "stateMutability": "view",
      "type": "function"
    },
    {
      "constant": true,
      "inputs": [],
      "name": "comLevel3Amount",
      "outputs": [
        {
          "name": "",
          "type": "uint256"
        }
      ],
      "payable": false,
      "stateMutability": "view",
      "type": "function"
    },
    {
      "constant": true,
      "inputs": [],
      "name": "begin",
      "outputs": [
        {
          "name": "",
          "type": "uint256"
        }
      ],
      "payable": false,
      "stateMutability": "view",
      "type": "function"
    },
    {
      "constant": true,
      "inputs": [],
      "name": "comLevel2Users",
      "outputs": [
        {
          "name": "",
          "type": "uint16"
        }
      ],
      "payable": false,
      "stateMutability": "view",
      "type": "function"
    },
    {
      "constant": true,
      "inputs": [],
      "name": "comLevel1Amount",
      "outputs": [
        {
          "name": "",
          "type": "uint256"
        }
      ],
      "payable": false,
      "stateMutability": "view",
      "type": "function"
    },
    {
      "constant": true,
      "inputs": [
        {
          "name": "",
          "type": "address"
        }
      ],
      "name": "USDTOrCoin",
      "outputs": [
        {
          "name": "",
          "type": "bool"
        }
      ],
      "payable": false,
      "stateMutability": "view",
      "type": "function"
    },
    {
      "constant": true,
      "inputs": [],
      "name": "userLevel2",
      "outputs": [
        {
          "name": "",
          "type": "uint8"
        }
      ],
      "payable": false,
      "stateMutability": "view",
      "type": "function"
    },
    {
      "constant": true,
      "inputs": [],
      "name": "iCode",
      "outputs": [
        {
          "name": "",
          "type": "uint256"
        }
      ],
      "payable": false,
      "stateMutability": "view",
      "type": "function"
    },
    {
      "constant": true,
      "inputs": [],
      "name": "comLevel2",
      "outputs": [
        {
          "name": "",
          "type": "uint8"
        }
      ],
      "payable": false,
      "stateMutability": "view",
      "type": "function"
    },
    {
      "constant": true,
      "inputs": [],
      "name": "withDrawDays",
      "outputs": [
        {
          "name": "",
          "type": "uint256"
        }
      ],
      "payable": false,
      "stateMutability": "view",
      "type": "function"
    },
    {
      "constant": true,
      "inputs": [],
      "name": "comLevel3Users",
      "outputs": [
        {
          "name": "",
          "type": "uint16"
        }
      ],
      "payable": false,
      "stateMutability": "view",
      "type": "function"
    },
    {
      "constant": true,
      "inputs": [],
      "name": "comLevel1Users",
      "outputs": [
        {
          "name": "",
          "type": "uint16"
        }
      ],
      "payable": false,
      "stateMutability": "view",
      "type": "function"
    },
    {
      "constant": true,
      "inputs": [
        {
          "name": "",
          "type": "address"
        }
      ],
      "name": "RInviteCode",
      "outputs": [
        {
          "name": "",
          "type": "uint256"
        }
      ],
      "payable": false,
      "stateMutability": "view",
      "type": "function"
    },
    {
      "constant": true,
      "inputs": [],
      "name": "owner",
      "outputs": [
        {
          "name": "",
          "type": "address"
        }
      ],
      "payable": false,
      "stateMutability": "view",
      "type": "function"
    },
    {
      "constant": true,
      "inputs": [],
      "name": "comLevel1",
      "outputs": [
        {
          "name": "",
          "type": "uint8"
        }
      ],
      "payable": false,
      "stateMutability": "view",
      "type": "function"
    },
    {
      "constant": true,
      "inputs": [
        {
          "name": "",
          "type": "uint256"
        }
      ],
      "name": "InviteCode",
      "outputs": [
        {
          "name": "",
          "type": "address"
        }
      ],
      "payable": false,
      "stateMutability": "view",
      "type": "function"
    },
    {
      "constant": true,
      "inputs": [],
      "name": "withDrawRate",
      "outputs": [
        {
          "name": "",
          "type": "uint8"
        }
      ],
      "payable": false,
      "stateMutability": "view",
      "type": "function"
    },
    {
      "constant": true,
      "inputs": [
        {
          "name": "",
          "type": "address"
        }
      ],
      "name": "WithDraws",
      "outputs": [
        {
          "name": "",
          "type": "uint256"
        }
      ],
      "payable": false,
      "stateMutability": "view",
      "type": "function"
    },
    {
      "constant": true,
      "inputs": [],
      "name": "userLevel1",
      "outputs": [
        {
          "name": "",
          "type": "uint8"
        }
      ],
      "payable": false,
      "stateMutability": "view",
      "type": "function"
    },
    {
      "constant": true,
      "inputs": [],
      "name": "end",
      "outputs": [
        {
          "name": "",
          "type": "uint256"
        }
      ],
      "payable": false,
      "stateMutability": "view",
      "type": "function"
    },
    {
      "constant": false,
      "inputs": [
        {
          "name": "newOwner",
          "type": "address"
        }
      ],
      "name": "transferOwnership",
      "outputs": [],
      "payable": false,
      "stateMutability": "nonpayable",
      "type": "function"
    },
    {
      "inputs": [
        {
          "name": "_tokenAddress",
          "type": "address"
        },
        {
          "name": "_begin",
          "type": "uint256"
        },
        {
          "name": "_end",
          "type": "uint256"
        }
      ],
      "payable": false,
      "stateMutability": "nonpayable",
      "type": "constructor"
    },
    {
      "anonymous": false,
      "inputs": [
        {
          "indexed": false,
          "name": "_user",
          "type": "address"
        },
        {
          "indexed": false,
          "name": "inviteCode",
          "type": "uint256"
        }
      ],
      "name": "Registed",
      "type": "event"
    },
    {
      "anonymous": false,
      "inputs": [
        {
          "indexed": false,
          "name": "_user",
          "type": "address"
        },
        {
          "indexed": false,
          "name": "_oldLevel",
          "type": "uint8"
        },
        {
          "indexed": false,
          "name": "_newLevel",
          "type": "uint8"
        }
      ],
      "name": "GradeChanged",
      "type": "event"
    },
    {
      "anonymous": false,
      "inputs": [
        {
          "indexed": false,
          "name": "_user",
          "type": "address"
        },
        {
          "indexed": false,
          "name": "_self",
          "type": "uint256"
        },
        {
          "indexed": false,
          "name": "_promotion",
          "type": "uint256"
        },
        {
          "indexed": false,
          "name": "_team",
          "type": "uint256"
        }
      ],
      "name": "WithDraw",
      "type": "event"
    },
    {
      "anonymous": false,
      "inputs": [
        {
          "indexed": false,
          "name": "_user",
          "type": "address"
        },
        {
          "indexed": false,
          "name": "_balance",
          "type": "uint256"
        }
      ],
      "name": "WithDrawBalance",
      "type": "event"
    },
    {
      "constant": false,
      "inputs": [
        {
          "name": "_type",
          "type": "bool"
        }
      ],
      "name": "withDraw",
      "outputs": [],
      "payable": false,
      "stateMutability": "nonpayable",
      "type": "function"
    },
    {
      "constant": true,
      "inputs": [],
      "name": "getCode",
      "outputs": [
        {
          "name": "",
          "type": "uint256"
        }
      ],
      "payable": false,
      "stateMutability": "view",
      "type": "function"
    },
    {
      "constant": false,
      "inputs": [
        {
          "name": "_fInviteCode",
          "type": "uint256"
        }
      ],
      "name": "register",
      "outputs": [],
      "payable": false,
      "stateMutability": "nonpayable",
      "type": "function"
    },
    {
      "constant": false,
      "inputs": [
        {
          "name": "_amount",
          "type": "uint256"
        },
        {
          "name": "_usdtOrCoin",
          "type": "bool"
        }
      ],
      "name": "join",
      "outputs": [],
      "payable": false,
      "stateMutability": "nonpayable",
      "type": "function"
    },
    {
      "constant": false,
      "inputs": [
        {
          "name": "price",
          "type": "uint256"
        }
      ],
      "name": "putClosePrice",
      "outputs": [],
      "payable": false,
      "stateMutability": "nonpayable",
      "type": "function"
    }
  ],
  "bytecode": "0x60806040526040805190810160405280600d81526020017f4b4f4c2050726f6d6f74696f6e00000000000000000000000000000000000000815250600190805190602001906200005192919062000137565b50635eaaf6006003553480156200006757600080fd5b50604051606080620040f6833981018060405281019080805190602001909291908051906020019092919080519060200190929190505050336000806101000a81548173ffffffffffffffffffffffffffffffffffffffff021916908373ffffffffffffffffffffffffffffffffffffffff16021790555082600260006101000a81548173ffffffffffffffffffffffffffffffffffffffff021916908373ffffffffffffffffffffffffffffffffffffffff1602179055508160038190555080600481905550505050620001e6565b828054600181600116156101000203166002900490600052602060002090601f016020900481019282601f106200017a57805160ff1916838001178555620001ab565b82800160010185558215620001ab579182015b82811115620001aa5782518255916020019190600101906200018d565b5b509050620001ba9190620001be565b5090565b620001e391905b80821115620001df576000816000905550600101620001c5565b5090565b90565b613f0080620001f66000396000f300608060405260043610610175576000357c0100000000000000000000000000000000000000000000000000000000900463ffffffff16806305536ac21461017a57806306fdde03146101ab57806307bed0d01461023b57806308b7da39146102685780630dcba2d1146102935780630efd7661146102ea5780631bce6ff3146103155780632217e6b614610340578063275cdec3146103735780632f63c3651461039e5780633a9c7d12146103f9578063571f23151461042a5780635dbac10e1461045557806360cd2f7c14610486578063808fe48a146104b15780638099a6a6146104e45780638be7038e146105175780638cdb20221461056e5780638da5cb5b1461059d578063cc7bc3a0146105f4578063cccbeebf14610625578063d0b3da9914610692578063d520c99d146106cb578063e36fe7d7146106fc578063e4ebc0e814610753578063ea87963414610784578063efbe1c1c146107af578063f207564e146107da578063f2fde38b14610807575b600080fd5b34801561018657600080fd5b5061018f61084a565b604051808260ff1660ff16815260200191505060405180910390f35b3480156101b757600080fd5b506101c061084f565b6040518080602001828103825283818151815260200191508051906020019080838360005b838110156102005780820151818401526020810190506101e5565b50505050905090810190601f16801561022d5780820380516001836020036101000a031916815260200191505b509250505060405180910390f35b34801561024757600080fd5b50610266600480360381019080803590602001909291905050506108ed565b005b34801561027457600080fd5b5061027d610b47565b6040518082815260200191505060405180910390f35b34801561029f57600080fd5b506102a8610b55565b604051808273ffffffffffffffffffffffffffffffffffffffff1673ffffffffffffffffffffffffffffffffffffffff16815260200191505060405180910390f35b3480156102f657600080fd5b506102ff610b7b565b6040518082815260200191505060405180910390f35b34801561032157600080fd5b5061032a610b89565b6040518082815260200191505060405180910390f35b34801561034c57600080fd5b50610355610b8f565b604051808261ffff1661ffff16815260200191505060405180910390f35b34801561037f57600080fd5b50610388610b95565b6040518082815260200191505060405180910390f35b3480156103aa57600080fd5b506103df600480360381019080803573ffffffffffffffffffffffffffffffffffffffff169060200190929190505050610ba3565b604051808215151515815260200191505060405180910390f35b34801561040557600080fd5b5061040e610bc3565b604051808260ff1660ff16815260200191505060405180910390f35b34801561043657600080fd5b5061043f610bc8565b6040518082815260200191505060405180910390f35b34801561046157600080fd5b5061046a610bce565b604051808260ff1660ff16815260200191505060405180910390f35b34801561049257600080fd5b5061049b610bd3565b6040518082815260200191505060405180910390f35b3480156104bd57600080fd5b506104c6610bda565b604051808261ffff1661ffff16815260200191505060405180910390f35b3480156104f057600080fd5b506104f9610be0565b604051808261ffff1661ffff16815260200191505060405180910390f35b34801561052357600080fd5b50610558600480360381019080803573ffffffffffffffffffffffffffffffffffffffff169060200190929190505050610be5565b6040518082815260200191505060405180910390f35b34801561057a57600080fd5b5061059b600480360381019080803515159060200190929190505050610bfd565b005b3480156105a957600080fd5b506105b261133b565b604051808273ffffffffffffffffffffffffffffffffffffffff1673ffffffffffffffffffffffffffffffffffffffff16815260200191505060405180910390f35b34801561060057600080fd5b50610609611360565b604051808260ff1660ff16815260200191505060405180910390f35b34801561063157600080fd5b5061065060048036038101908080359060200190929190505050611365565b604051808273ffffffffffffffffffffffffffffffffffffffff1673ffffffffffffffffffffffffffffffffffffffff16815260200191505060405180910390f35b34801561069e57600080fd5b506106c960048036038101908080359060200190929190803515159060200190929190505050611398565b005b3480156106d757600080fd5b506106e06119d9565b604051808260ff1660ff16815260200191505060405180910390f35b34801561070857600080fd5b5061073d600480360381019080803573ffffffffffffffffffffffffffffffffffffffff1690602001909291905050506119de565b6040518082815260200191505060405180910390f35b34801561075f57600080fd5b506107686119f6565b604051808260ff1660ff16815260200191505060405180910390f35b34801561079057600080fd5b506107996119fb565b6040518082815260200191505060405180910390f35b3480156107bb57600080fd5b506107c4611a42565b6040518082815260200191505060405180910390f35b3480156107e657600080fd5b5061080560048036038101908080359060200190929190505050611a48565b005b34801561081357600080fd5b50610848600480360381019080803573ffffffffffffffffffffffffffffffffffffffff169060200190929190505050612041565b005b600a81565b60018054600181600116156101000203166002900480601f0160208091040260200160405190810160405280929190818152602001828054600181600116156101000203166002900480156108e55780601f106108ba576101008083540402835291602001916108e5565b820191906000526020600020905b8154815290600101906020018083116108c857829003601f168201915b505050505081565b6000600260009054906101000a900473ffffffffffffffffffffffffffffffffffffffff1673ffffffffffffffffffffffffffffffffffffffff1663c4a1dbad336040518263ffffffff167c0100000000000000000000000000000000000000000000000000000000028152600401808273ffffffffffffffffffffffffffffffffffffffff1673ffffffffffffffffffffffffffffffffffffffff168152602001915050602060405180830381600087803b1580156109ac57600080fd5b505af11580156109c0573d6000803e3d6000fd5b505050506040513d60208110156109d657600080fd5b810190808051906020019092919050505080610ae65750600260009054906101000a900473ffffffffffffffffffffffffffffffffffffffff1673ffffffffffffffffffffffffffffffffffffffff1663bac30981336040518263ffffffff167c0100000000000000000000000000000000000000000000000000000000028152600401808273ffffffffffffffffffffffffffffffffffffffff1673ffffffffffffffffffffffffffffffffffffffff168152602001915050602060405180830381600087803b158015610aaa57600080fd5b505af1158015610abe573d6000803e3d6000fd5b505050506040513d6020811015610ad457600080fd5b81019080805190602001909291905050505b1515610af157600080fd5b6001610b2862015180610b0f6003544261211690919063ffffffff16565b811515610b1857fe5b064261211690919063ffffffff16565b03905081600f6000838152602001908152602001600020819055505050565b69065a4da25d3016c0000081565b600260009054906101000a900473ffffffffffffffffffffffffffffffffffffffff1681565b690a968163f0a57b40000081565b60035481565b61012c81565b69021e19e0c9bab240000081565b60156020528060005260406000206000915054906101000a900460ff1681565b600a81565b60055481565b600581565b62278d0081565b6101f481565b606481565b60136020528060005260406000206000915090505481565b600080600080600080600080600080600a60003373ffffffffffffffffffffffffffffffffffffffff1673ffffffffffffffffffffffffffffffffffffffff16815260200190815260200160002054111515610c5857600080fd5b8915610f11576001610c9562015180610c7c6003544261211690919063ffffffff16565b811515610c8557fe5b064261211690919063ffffffff16565b039550610ce262015180610cd462015180610cbb6003544261211690919063ffffffff16565b811515610cc457fe5b064261211690919063ffffffff16565b61213290919063ffffffff16565b9450600093505b84841015610d4057610cfb3387612179565b89019850610d0933876124ef565b88019750610d173387612782565b87019650610d31620151808761211690919063ffffffff16565b95508380600101945050610ce9565b7fbf79b1192913bd26b5198d852f8a38b4852fa1ac348957e63ffecd43ad427b58338a8a8a604051808573ffffffffffffffffffffffffffffffffffffffff1673ffffffffffffffffffffffffffffffffffffffff16815260200184815260200183815260200182815260200194505050505060405180910390a1610de087610dd28a8c612ad890919063ffffffff16565b612ad890919063ffffffff16565b925082601660003373ffffffffffffffffffffffffffffffffffffffff1673ffffffffffffffffffffffffffffffffffffffff16815260200190815260200160002060008282540192505081905550600260009054906101000a900473ffffffffffffffffffffffffffffffffffffffff1673ffffffffffffffffffffffffffffffffffffffff1663a9059cbb33856040518363ffffffff167c0100000000000000000000000000000000000000000000000000000000028152600401808373ffffffffffffffffffffffffffffffffffffffff1673ffffffffffffffffffffffffffffffffffffffff16815260200182815260200192505050600060405180830381600087803b158015610ef457600080fd5b505af1158015610f08573d6000803e3d6000fd5b5050505061132e565b610f67600560ff16600a60003373ffffffffffffffffffffffffffffffffffffffff1673ffffffffffffffffffffffffffffffffffffffff16815260200190815260200160002054612af990919063ffffffff16565b601160003373ffffffffffffffffffffffffffffffffffffffff1673ffffffffffffffffffffffffffffffffffffffff16815260200190815260200160002054108015611016575062278d00600960003373ffffffffffffffffffffffffffffffffffffffff1673ffffffffffffffffffffffffffffffffffffffff168152602001908152602001600020600081548110151561100057fe5b9060005260206000209060040201600001540142105b156110205761132f565b600091505b600960003373ffffffffffffffffffffffffffffffffffffffff1673ffffffffffffffffffffffffffffffffffffffff168152602001908152602001600020805490508210156111545742600960003373ffffffffffffffffffffffffffffffffffffffff1673ffffffffffffffffffffffffffffffffffffffff168152602001908152602001600020838154811015156110bc57fe5b9060005260206000209060040201600201819055506001600960003373ffffffffffffffffffffffffffffffffffffffff1673ffffffffffffffffffffffffffffffffffffffff1681526020019081526020016000208381548110151561111f57fe5b906000526020600020906004020160030160006101000a81548160ff0219169083151502179055508180600101925050611025565b600a60003373ffffffffffffffffffffffffffffffffffffffff1673ffffffffffffffffffffffffffffffffffffffff1681526020019081526020016000205490507f1d7e20a3af434720a531a7785440694acdceb547ac66ab57e37f52ba0d6edee53382604051808373ffffffffffffffffffffffffffffffffffffffff1673ffffffffffffffffffffffffffffffffffffffff1681526020018281526020019250505060405180910390a1600260009054906101000a900473ffffffffffffffffffffffffffffffffffffffff1673ffffffffffffffffffffffffffffffffffffffff1663a9059cbb33836040518363ffffffff167c0100000000000000000000000000000000000000000000000000000000028152600401808373ffffffffffffffffffffffffffffffffffffffff1673ffffffffffffffffffffffffffffffffffffffff16815260200182815260200192505050600060405180830381600087803b1580156112c657600080fd5b505af11580156112da573d6000803e3d6000fd5b505050506000600a60003373ffffffffffffffffffffffffffffffffffffffff1673ffffffffffffffffffffffffffffffffffffffff1681526020019081526020016000208190555061132d3382612b2f565b5b5b50505050505050505050565b6000809054906101000a900473ffffffffffffffffffffffffffffffffffffffff1681565b600381565b60126020528060005260406000206000915054906101000a900473ffffffffffffffffffffffffffffffffffffffff1681565b6000600260009054906101000a900473ffffffffffffffffffffffffffffffffffffffff1673ffffffffffffffffffffffffffffffffffffffff166323b872dd3330866040518463ffffffff167c0100000000000000000000000000000000000000000000000000000000028152600401808473ffffffffffffffffffffffffffffffffffffffff1673ffffffffffffffffffffffffffffffffffffffff1681526020018373ffffffffffffffffffffffffffffffffffffffff1673ffffffffffffffffffffffffffffffffffffffff1681526020018281526020019350505050600060405180830381600087803b15801561149357600080fd5b505af11580156114a7573d6000803e3d6000fd5b50505050600960003373ffffffffffffffffffffffffffffffffffffffff1673ffffffffffffffffffffffffffffffffffffffff16815260200190815260200160002060806040519081016040528042815260200185815260200160008152602001600015158152509080600181540180825580915050906001820390600052602060002090600402016000909192909190915060008201518160000155602082015181600101556040820151816002015560608201518160030160006101000a81548160ff0219169083151502179055505050506115ce83600a60003373ffffffffffffffffffffffffffffffffffffffff1673ffffffffffffffffffffffffffffffffffffffff16815260200190815260200160002054612ad890919063ffffffff16565b600a60003373ffffffffffffffffffffffffffffffffffffffff1673ffffffffffffffffffffffffffffffffffffffff1681526020019081526020016000208190555081601560003373ffffffffffffffffffffffffffffffffffffffff1673ffffffffffffffffffffffffffffffffffffffff16815260200190815260200160002060006101000a81548160ff021916908315150217905550600090505b600660003373ffffffffffffffffffffffffffffffffffffffff1673ffffffffffffffffffffffffffffffffffffffff168152602001908152602001600020805490508110156119d4576001600960003373ffffffffffffffffffffffffffffffffffffffff1673ffffffffffffffffffffffffffffffffffffffff1681526020019081526020016000208054905014156117c757600160106000600660003373ffffffffffffffffffffffffffffffffffffffff1673ffffffffffffffffffffffffffffffffffffffff1681526020019081526020016000208481548110151561175457fe5b9060005260206000200160009054906101000a900473ffffffffffffffffffffffffffffffffffffffff1673ffffffffffffffffffffffffffffffffffffffff1673ffffffffffffffffffffffffffffffffffffffff168152602001908152602001600020600082825401925050819055505b61188f8360116000600660003373ffffffffffffffffffffffffffffffffffffffff1673ffffffffffffffffffffffffffffffffffffffff1681526020019081526020016000208581548110151561181b57fe5b9060005260206000200160009054906101000a900473ffffffffffffffffffffffffffffffffffffffff1673ffffffffffffffffffffffffffffffffffffffff1673ffffffffffffffffffffffffffffffffffffffff16815260200190815260200160002054612ad890919063ffffffff16565b60116000600660003373ffffffffffffffffffffffffffffffffffffffff1673ffffffffffffffffffffffffffffffffffffffff168152602001908152602001600020848154811015156118df57fe5b9060005260206000200160009054906101000a900473ffffffffffffffffffffffffffffffffffffffff1673ffffffffffffffffffffffffffffffffffffffff1673ffffffffffffffffffffffffffffffffffffffff168152602001908152602001600020819055506119c7600660003373ffffffffffffffffffffffffffffffffffffffff1673ffffffffffffffffffffffffffffffffffffffff1681526020019081526020016000208281548110151561199757fe5b9060005260206000200160009054906101000a900473ffffffffffffffffffffffffffffffffffffffff16612f19565b808060010191505061166d565b505050565b600581565b60166020528060005260406000206000915090505481565b601481565b6000601360003373ffffffffffffffffffffffffffffffffffffffff1673ffffffffffffffffffffffffffffffffffffffff16815260200190815260200160002054905090565b60045481565b60008060008060644233604051808381526020018273ffffffffffffffffffffffffffffffffffffffff1673ffffffffffffffffffffffffffffffffffffffff166c0100000000000000000000000002815260140192505050604051809103902060019004811515611ab657fe5b069350611ace84600554612ad890919063ffffffff16565b9250611ae584600554612ad890919063ffffffff16565b600581905550600073ffffffffffffffffffffffffffffffffffffffff166012600085815260200190815260200160002060009054906101000a900473ffffffffffffffffffffffffffffffffffffffff1673ffffffffffffffffffffffffffffffffffffffff16141515611b5957600080fd5b600073ffffffffffffffffffffffffffffffffffffffff166012600087815260200190815260200160002060009054906101000a900473ffffffffffffffffffffffffffffffffffffffff1673ffffffffffffffffffffffffffffffffffffffff1614151515611bc857600080fd5b336012600085815260200190815260200160002060006101000a81548173ffffffffffffffffffffffffffffffffffffffff021916908373ffffffffffffffffffffffffffffffffffffffff16021790555082601360003373ffffffffffffffffffffffffffffffffffffffff1673ffffffffffffffffffffffffffffffffffffffff168152602001908152602001600020819055507f29317bf7eb9941522faad78efabe2efda58f223f6b421c6e91762fb0484cbdad33600554604051808373ffffffffffffffffffffffffffffffffffffffff1673ffffffffffffffffffffffffffffffffffffffff1681526020018281526020019250505060405180910390a16012600086815260200190815260200160002060009054906101000a900473ffffffffffffffffffffffffffffffffffffffff16915081600e60003373ffffffffffffffffffffffffffffffffffffffff1673ffffffffffffffffffffffffffffffffffffffff16815260200190815260200160002060006101000a81548173ffffffffffffffffffffffffffffffffffffffff021916908373ffffffffffffffffffffffffffffffffffffffff160217905550600760008373ffffffffffffffffffffffffffffffffffffffff1673ffffffffffffffffffffffffffffffffffffffff1681526020019081526020016000203390806001815401808255809150509060018203906000526020600020016000909192909190916101000a81548173ffffffffffffffffffffffffffffffffffffffff021916908373ffffffffffffffffffffffffffffffffffffffff16021790555050600660003373ffffffffffffffffffffffffffffffffffffffff1673ffffffffffffffffffffffffffffffffffffffff1681526020019081526020016000208290806001815401808255809150509060018203906000526020600020016000909192909190916101000a81548173ffffffffffffffffffffffffffffffffffffffff021916908373ffffffffffffffffffffffffffffffffffffffff16021790555050600090505b600660008373ffffffffffffffffffffffffffffffffffffffff1673ffffffffffffffffffffffffffffffffffffffff1681526020019081526020016000208054905081101561203a57600660003373ffffffffffffffffffffffffffffffffffffffff1673ffffffffffffffffffffffffffffffffffffffff168152602001908152602001600020600660008473ffffffffffffffffffffffffffffffffffffffff1673ffffffffffffffffffffffffffffffffffffffff16815260200190815260200160002082815481101515611f9f57fe5b9060005260206000200160009054906101000a900473ffffffffffffffffffffffffffffffffffffffff1690806001815401808255809150509060018203906000526020600020016000909192909190916101000a81548173ffffffffffffffffffffffffffffffffffffffff021916908373ffffffffffffffffffffffffffffffffffffffff160217905550508080600101915050611eca565b5050505050565b6000809054906101000a900473ffffffffffffffffffffffffffffffffffffffff1673ffffffffffffffffffffffffffffffffffffffff163373ffffffffffffffffffffffffffffffffffffffff1614151561209c57600080fd5b600073ffffffffffffffffffffffffffffffffffffffff168173ffffffffffffffffffffffffffffffffffffffff1614151561211357806000806101000a81548173ffffffffffffffffffffffffffffffffffffffff021916908373ffffffffffffffffffffffffffffffffffffffff1602179055505b50565b600082821115151561212757600080fd5b818303905092915050565b60008060008311151561214457600080fd5b828481151561214f57fe5b049050828481151561215d57fe5b06818402018414151561216f57600080fd5b8091505092915050565b600080600080600960008773ffffffffffffffffffffffffffffffffffffffff1673ffffffffffffffffffffffffffffffffffffffff1681526020019081526020016000208054905011156124e457600090505b600960008673ffffffffffffffffffffffffffffffffffffffff1673ffffffffffffffffffffffffffffffffffffffff168152602001908152602001600020805490508110156124e357600960008673ffffffffffffffffffffffffffffffffffffffff1673ffffffffffffffffffffffffffffffffffffffff1681526020019081526020016000208181548110151561226357fe5b906000526020600020906004020160030160009054906101000a900460ff16156123e557600960008673ffffffffffffffffffffffffffffffffffffffff1673ffffffffffffffffffffffffffffffffffffffff168152602001908152602001600020818154811015156122d357fe5b90600052602060002090600402016000015484101580156123515750600960008673ffffffffffffffffffffffffffffffffffffffff1673ffffffffffffffffffffffffffffffffffffffff1681526020019081526020016000208181548110151561233b57fe5b9060005260206000209060040201600201548411155b156123e0576123db6103e86123cd6003600960008a73ffffffffffffffffffffffffffffffffffffffff1673ffffffffffffffffffffffffffffffffffffffff168152602001908152602001600020858154811015156123ad57fe5b906000526020600020906004020160010154612af990919063ffffffff16565b61213290919063ffffffff16565b820191505b6124d6565b600960008673ffffffffffffffffffffffffffffffffffffffff1673ffffffffffffffffffffffffffffffffffffffff1681526020019081526020016000208181548110151561243157fe5b906000526020600020906004020160000154841015156124d5576124d06103e86124c26003600960008a73ffffffffffffffffffffffffffffffffffffffff1673ffffffffffffffffffffffffffffffffffffffff168152602001908152602001600020858154811015156124a257fe5b906000526020600020906004020160010154612af990919063ffffffff16565b61213290919063ffffffff16565b820191505b5b80806001019150506121cd565b5b819250505092915050565b600080600080600080600080600080600760008d73ffffffffffffffffffffffffffffffffffffffff1673ffffffffffffffffffffffffffffffffffffffff16815260200190815260200160002098506125498c8c6139ca565b9750600092505b888054905083101561275e5761259e898481548110151561256d57fe5b9060005260206000200160009054906101000a900473ffffffffffffffffffffffffffffffffffffffff168c6139ca565b965086881015156125dc576125d360646125c5601460ff168a612af990919063ffffffff16565b61213290919063ffffffff16565b8501945061260b565b61260660646125f8601460ff168b612af990919063ffffffff16565b61213290919063ffffffff16565b850194505b600760008a8581548110151561261d57fe5b9060005260206000200160009054906101000a900473ffffffffffffffffffffffffffffffffffffffff1673ffffffffffffffffffffffffffffffffffffffff1673ffffffffffffffffffffffffffffffffffffffff1681526020019081526020016000209150600090505b8180549050811015612751576126d782828154811015156126a657fe5b9060005260206000200160009054906101000a900473ffffffffffffffffffffffffffffffffffffffff168c6139ca565b955085881015156127155761270c60646126fe600a60ff168a612af990919063ffffffff16565b61213290919063ffffffff16565b84019350612744565b61273f6064612731600a60ff168b612af990919063ffffffff16565b61213290919063ffffffff16565b840193505b8080600101915050612689565b8280600101935050612550565b6127718486612ad890919063ffffffff16565b995050505050505050505092915050565b6000806000806000600860008873ffffffffffffffffffffffffffffffffffffffff1673ffffffffffffffffffffffffffffffffffffffff1681526020019081526020016000208054905014156127dc5760009350612acf565b600091505b600860008773ffffffffffffffffffffffffffffffffffffffff1673ffffffffffffffffffffffffffffffffffffffff16815260200190815260200160002080549050821015612a9f576001600860008873ffffffffffffffffffffffffffffffffffffffff1673ffffffffffffffffffffffffffffffffffffffff16815260200190815260200160002080549050038210156129bd57600860008773ffffffffffffffffffffffffffffffffffffffff1673ffffffffffffffffffffffffffffffffffffffff168152602001908152602001600020828154811015156128c457fe5b90600052602060002090600202016001015485101580156129455750600860008773ffffffffffffffffffffffffffffffffffffffff1673ffffffffffffffffffffffffffffffffffffffff1681526020019081526020016000206001830181548110151561292f57fe5b9060005260206000209060020201600101548511155b156129b857600860008773ffffffffffffffffffffffffffffffffffffffff1673ffffffffffffffffffffffffffffffffffffffff1681526020019081526020016000208281548110151561299657fe5b906000526020600020906002020160000160009054906101000a900460ff1692505b612a92565b600860008773ffffffffffffffffffffffffffffffffffffffff1673ffffffffffffffffffffffffffffffffffffffff16815260200190815260200160002082815481101515612a0957fe5b90600052602060002090600202016001015485101515612a9157600860008773ffffffffffffffffffffffffffffffffffffffff1673ffffffffffffffffffffffffffffffffffffffff16815260200190815260200160002082815481101515612a6f57fe5b906000526020600020906002020160000160009054906101000a900460ff1692505b5b81806001019250506127e1565b60008360ff161115612aca57612ab586866139ca565b9050612ac381848888613ca6565b9350612acf565b600093505b50505092915050565b6000808284019050838110151515612aef57600080fd5b8091505092915050565b60008082840290506000841480612b1a5750828482811515612b1757fe5b04145b1515612b2557600080fd5b8091505092915050565b60008090505b600660008473ffffffffffffffffffffffffffffffffffffffff1673ffffffffffffffffffffffffffffffffffffffff16815260200190815260200160002080549050811015612f1457600060106000600660008773ffffffffffffffffffffffffffffffffffffffff1673ffffffffffffffffffffffffffffffffffffffff16815260200190815260200160002084815481101515612bd157fe5b9060005260206000200160009054906101000a900473ffffffffffffffffffffffffffffffffffffffff1673ffffffffffffffffffffffffffffffffffffffff1673ffffffffffffffffffffffffffffffffffffffff16815260200190815260200160002054111515612c4357600080fd5b600160106000600660008773ffffffffffffffffffffffffffffffffffffffff1673ffffffffffffffffffffffffffffffffffffffff16815260200190815260200160002084815481101515612c9557fe5b9060005260206000200160009054906101000a900473ffffffffffffffffffffffffffffffffffffffff1673ffffffffffffffffffffffffffffffffffffffff1673ffffffffffffffffffffffffffffffffffffffff16815260200190815260200160002060008282540392505081905550612dcf8260116000600660008873ffffffffffffffffffffffffffffffffffffffff1673ffffffffffffffffffffffffffffffffffffffff16815260200190815260200160002085815481101515612d5b57fe5b9060005260206000200160009054906101000a900473ffffffffffffffffffffffffffffffffffffffff1673ffffffffffffffffffffffffffffffffffffffff1673ffffffffffffffffffffffffffffffffffffffff1681526020019081526020016000205461211690919063ffffffff16565b60116000600660008773ffffffffffffffffffffffffffffffffffffffff1673ffffffffffffffffffffffffffffffffffffffff16815260200190815260200160002084815481101515612e1f57fe5b9060005260206000200160009054906101000a900473ffffffffffffffffffffffffffffffffffffffff1673ffffffffffffffffffffffffffffffffffffffff1673ffffffffffffffffffffffffffffffffffffffff16815260200190815260200160002081905550612f07600660008573ffffffffffffffffffffffffffffffffffffffff1673ffffffffffffffffffffffffffffffffffffffff16815260200190815260200160002082815481101515612ed757fe5b9060005260206000200160009054906101000a900473ffffffffffffffffffffffffffffffffffffffff16612f19565b8080600101915050612b35565b505050565b6101f461ffff16601060008373ffffffffffffffffffffffffffffffffffffffff1673ffffffffffffffffffffffffffffffffffffffff1681526020019081526020016000205410158015612fb75750690a968163f0a57b400000601160008373ffffffffffffffffffffffffffffffffffffffff1673ffffffffffffffffffffffffffffffffffffffff1681526020019081526020016000205410155b156131ee576003601460008373ffffffffffffffffffffffffffffffffffffffff1673ffffffffffffffffffffffffffffffffffffffff16815260200190815260200160002060009054906101000a900460ff1660ff161415156131e9577fc7d5ff51d6870ddf5a0064f51d3b5ddc326806d4c4a84146226d42ea13e0bf3e81601460008473ffffffffffffffffffffffffffffffffffffffff1673ffffffffffffffffffffffffffffffffffffffff16815260200190815260200160002060009054906101000a900460ff166003604051808473ffffffffffffffffffffffffffffffffffffffff1673ffffffffffffffffffffffffffffffffffffffff1681526020018360ff1660ff1681526020018260ff168152602001935050505060405180910390a16003601460008373ffffffffffffffffffffffffffffffffffffffff1673ffffffffffffffffffffffffffffffffffffffff16815260200190815260200160002060006101000a81548160ff021916908360ff160217905550600860008273ffffffffffffffffffffffffffffffffffffffff1673ffffffffffffffffffffffffffffffffffffffff1681526020019081526020016000206040805190810160405280600360ff168152602001428152509080600181540180825580915050906001820390600052602060002090600202016000909192909190915060008201518160000160006101000a81548160ff021916908360ff160217905550602082015181600101555050505b6139c7565b61012c61ffff16601060008373ffffffffffffffffffffffffffffffffffffffff1673ffffffffffffffffffffffffffffffffffffffff168152602001908152602001600020541015801561328c575069065a4da25d3016c00000601160008373ffffffffffffffffffffffffffffffffffffffff1673ffffffffffffffffffffffffffffffffffffffff1681526020019081526020016000205410155b156134c3576002601460008373ffffffffffffffffffffffffffffffffffffffff1673ffffffffffffffffffffffffffffffffffffffff16815260200190815260200160002060009054906101000a900460ff1660ff161415156134be577fc7d5ff51d6870ddf5a0064f51d3b5ddc326806d4c4a84146226d42ea13e0bf3e81601460008473ffffffffffffffffffffffffffffffffffffffff1673ffffffffffffffffffffffffffffffffffffffff16815260200190815260200160002060009054906101000a900460ff166002604051808473ffffffffffffffffffffffffffffffffffffffff1673ffffffffffffffffffffffffffffffffffffffff1681526020018360ff1660ff1681526020018260ff168152602001935050505060405180910390a16002601460008373ffffffffffffffffffffffffffffffffffffffff1673ffffffffffffffffffffffffffffffffffffffff16815260200190815260200160002060006101000a81548160ff021916908360ff160217905550600860008273ffffffffffffffffffffffffffffffffffffffff1673ffffffffffffffffffffffffffffffffffffffff1681526020019081526020016000206040805190810160405280600260ff168152602001428152509080600181540180825580915050906001820390600052602060002090600202016000909192909190915060008201518160000160006101000a81548160ff021916908360ff160217905550602082015181600101555050505b6139c6565b606461ffff16601060008373ffffffffffffffffffffffffffffffffffffffff1673ffffffffffffffffffffffffffffffffffffffff1681526020019081526020016000205410158015613560575069021e19e0c9bab2400000601160008373ffffffffffffffffffffffffffffffffffffffff1673ffffffffffffffffffffffffffffffffffffffff1681526020019081526020016000205410155b15613797576001601460008373ffffffffffffffffffffffffffffffffffffffff1673ffffffffffffffffffffffffffffffffffffffff16815260200190815260200160002060009054906101000a900460ff1660ff16141515613792577fc7d5ff51d6870ddf5a0064f51d3b5ddc326806d4c4a84146226d42ea13e0bf3e81601460008473ffffffffffffffffffffffffffffffffffffffff1673ffffffffffffffffffffffffffffffffffffffff16815260200190815260200160002060009054906101000a900460ff166001604051808473ffffffffffffffffffffffffffffffffffffffff1673ffffffffffffffffffffffffffffffffffffffff1681526020018360ff1660ff1681526020018260ff168152602001935050505060405180910390a16001601460008373ffffffffffffffffffffffffffffffffffffffff1673ffffffffffffffffffffffffffffffffffffffff16815260200190815260200160002060006101000a81548160ff021916908360ff160217905550600860008273ffffffffffffffffffffffffffffffffffffffff1673ffffffffffffffffffffffffffffffffffffffff1681526020019081526020016000206040805190810160405280600160ff168152602001428152509080600181540180825580915050906001820390600052602060002090600202016000909192909190915060008201518160000160006101000a81548160ff021916908360ff160217905550602082015181600101555050505b6139c5565b6000601460008373ffffffffffffffffffffffffffffffffffffffff1673ffffffffffffffffffffffffffffffffffffffff16815260200190815260200160002060009054906101000a900460ff1660ff161415156139c4577fc7d5ff51d6870ddf5a0064f51d3b5ddc326806d4c4a84146226d42ea13e0bf3e81601460008473ffffffffffffffffffffffffffffffffffffffff1673ffffffffffffffffffffffffffffffffffffffff16815260200190815260200160002060009054906101000a900460ff166000604051808473ffffffffffffffffffffffffffffffffffffffff1673ffffffffffffffffffffffffffffffffffffffff1681526020018360ff1660ff1681526020018260ff168152602001935050505060405180910390a16000601460008373ffffffffffffffffffffffffffffffffffffffff1673ffffffffffffffffffffffffffffffffffffffff16815260200190815260200160002060006101000a81548160ff021916908360ff160217905550600860008273ffffffffffffffffffffffffffffffffffffffff1673ffffffffffffffffffffffffffffffffffffffff1681526020019081526020016000206040805190810160405280600060ff168152602001428152509080600181540180825580915050906001820390600052602060002090600202016000909192909190915060008201518160000160006101000a81548160ff021916908360ff160217905550602082015181600101555050505b5b5b5b50565b60008060008090505b600960008673ffffffffffffffffffffffffffffffffffffffff1673ffffffffffffffffffffffffffffffffffffffff16815260200190815260200160002080549050811015613c9b57600960008673ffffffffffffffffffffffffffffffffffffffff1673ffffffffffffffffffffffffffffffffffffffff16815260200190815260200160002081815481101515613a6957fe5b906000526020600020906004020160030160009054906101000a900460ff1615613bc457600960008673ffffffffffffffffffffffffffffffffffffffff1673ffffffffffffffffffffffffffffffffffffffff16815260200190815260200160002081815481101515613ad957fe5b9060005260206000209060040201600001548410158015613b575750600960008673ffffffffffffffffffffffffffffffffffffffff1673ffffffffffffffffffffffffffffffffffffffff16815260200190815260200160002081815481101515613b4157fe5b9060005260206000209060040201600201548411155b15613bbf57600960008673ffffffffffffffffffffffffffffffffffffffff1673ffffffffffffffffffffffffffffffffffffffff16815260200190815260200160002081815481101515613ba857fe5b906000526020600020906004020160010154820191505b613c8e565b600960008673ffffffffffffffffffffffffffffffffffffffff1673ffffffffffffffffffffffffffffffffffffffff16815260200190815260200160002081815481101515613c1057fe5b90600052602060002090600402016000015484101515613c8d57600960008673ffffffffffffffffffffffffffffffffffffffff1673ffffffffffffffffffffffffffffffffffffffff16815260200190815260200160002081815481101515613c7657fe5b906000526020600020906004020160010154820191505b5b80806001019150506139d3565b819250505092915050565b6000806000806000600760008873ffffffffffffffffffffffffffffffffffffffff1673ffffffffffffffffffffffffffffffffffffffff168152602001908152602001600020805490501115613ec557600091505b600760008773ffffffffffffffffffffffffffffffffffffffff1673ffffffffffffffffffffffffffffffffffffffff16815260200190815260200160002080549050821015613ec457613dc6600760008873ffffffffffffffffffffffffffffffffffffffff1673ffffffffffffffffffffffffffffffffffffffff16815260200190815260200160002083815481101515613d9557fe5b9060005260206000200160009054906101000a900473ffffffffffffffffffffffffffffffffffffffff16866139ca565b90508088101515613e0357613dfa6064613dec8960ff1684612af990919063ffffffff16565b61213290919063ffffffff16565b83019250613e31565b613e2c6064613e1e8960ff168b612af990919063ffffffff16565b61213290919063ffffffff16565b830192505b613eb38888600760008a73ffffffffffffffffffffffffffffffffffffffff1673ffffffffffffffffffffffffffffffffffffffff16815260200190815260200160002085815481101515613e8257fe5b9060005260206000200160009054906101000a900473ffffffffffffffffffffffffffffffffffffffff1688613ca6565b830192508180600101925050613cfc565b5b600093505050509493505050505600a165627a7a723058201b81d6e4bf8217273989f37cd2b7242bae2b7154293c0a2bd5c53dc2a117ec1d0029",
  "source": "pragma solidity ^0.4.23;\n/*\n *             ╔═╗┌─┐┌─┐┬┌─┐┬┌─┐┬   ┌─────────────────────────┐ ╦ ╦┌─┐┌┐ ╔═╗┬┌┬┐┌─┐\n *             ║ ║├┤ ├┤ ││  │├─┤│   │ KOL Community Foundation│ │ ║║║├┤ ├┴┐╚═╗│ │ ├┤\n *             ╚═╝└  └  ┴└─┘┴┴ ┴┴─┘ └─┬─────────────────────┬─┘ ╚╩╝└─┘└─┘╚═╝┴ ┴ └─┘\n *   ┌────────────────────────────────┘                     └──────────────────────────────┐\n *   │    ┌─────────────────────────────────────────────────────────────────────────────┐  │\n *   └────┤ Dev:Jack Koe ├─────────────┤ Special for: KOL  ├───────────────┤ 20200406   ├──┘\n *        └─────────────────────────────────────────────────────────────────────────────┘\n */\n\n library SafeMath {\n   function mul(uint a, uint b) internal pure  returns (uint) {\n     uint c = a * b;\n     require(a == 0 || c / a == b);\n     return c;\n   }\n   function div(uint a, uint b) internal pure returns (uint) {\n     require(b > 0);\n     uint c = a / b;\n     require(a == b * c + a % b);\n     return c;\n   }\n   function sub(uint a, uint b) internal pure returns (uint) {\n     require(b <= a);\n     return a - b;\n   }\n   function add(uint a, uint b) internal pure returns (uint) {\n     uint c = a + b;\n     require(c >= a);\n     return c;\n   }\n   function max64(uint64 a, uint64 b) internal  pure returns (uint64) {\n     return a >= b ? a : b;\n   }\n   function min64(uint64 a, uint64 b) internal  pure returns (uint64) {\n     return a < b ? a : b;\n   }\n   function max256(uint256 a, uint256 b) internal  pure returns (uint256) {\n     return a >= b ? a : b;\n   }\n   function min256(uint256 a, uint256 b) internal  pure returns (uint256) {\n     return a < b ? a : b;\n   }\n }\n\n /**\n  * title KOL Promotion contract\n  * dev visit: https://github.com/jackoelv/KOL/\n */\n\n contract ERC20Basic {\n   uint public totalSupply;\n   function balanceOf(address who) public constant returns (uint);\n   function transfer(address to, uint value) public;\n   event Transfer(address indexed from, address indexed to, uint value);\n }\n\n contract ERC20 is ERC20Basic {\n   function allowance(address owner, address spender) public constant returns (uint);\n   function transferFrom(address from, address to, uint value) public;\n   function approve(address spender, uint value) public;\n   event Approval(address indexed owner, address indexed spender, uint value);\n }\n\n /**\n  * title KOL Promotion contract\n  * dev visit: https://github.com/jackoelv/KOL/\n */\n\n contract BasicToken is ERC20Basic {\n\n   using SafeMath for uint;\n\n   mapping(address => uint) balances;\n\n   function transfer(address _to, uint _value) public{\n     balances[msg.sender] = balances[msg.sender].sub(_value);\n     balances[_to] = balances[_to].add(_value);\n     emit Transfer(msg.sender, _to, _value);\n   }\n\n   function balanceOf(address _owner) public constant returns (uint balance) {\n     return balances[_owner];\n   }\n }\n\n /**\n  * title KOL Promotion contract\n  * dev visit: https://github.com/jackoelv/KOL/\n */\n\n contract StandardToken is BasicToken, ERC20 {\n   mapping (address => mapping (address => uint)) allowed;\n   uint256 public userSupplyed;\n\n   function transferFrom(address _from, address _to, uint _value) public {\n     balances[_to] = balances[_to].add(_value);\n     balances[_from] = balances[_from].sub(_value);\n     allowed[_from][msg.sender] = allowed[_from][msg.sender].sub(_value);\n     emit Transfer(_from, _to, _value);\n   }\n\n   function approve(address _spender, uint _value) public{\n     require((_value == 0) || (allowed[msg.sender][_spender] == 0)) ;\n     allowed[msg.sender][_spender] = _value;\n     emit Approval(msg.sender, _spender, _value);\n   }\n\n   function allowance(address _owner, address _spender) public constant returns (uint remaining) {\n     return allowed[_owner][_spender];\n   }\n }\n contract KOL is StandardToken {\n   function queryNode(address _addr) public view returns(bool);\n   function querySuperNode(address _addr) public view returns(bool);\n }\n\n /**\n  * title KOL Promotion contract\n  * dev visit: https://github.com/jackoelv/KOL/\n */\n\n contract Ownable {\n     address public owner;\n\n     constructor() public{\n         owner = msg.sender;\n     }\n\n     modifier onlyOwner {\n         require(msg.sender == owner);\n         _;\n     }\n     function transferOwnership(address newOwner) onlyOwner public{\n         if (newOwner != address(0)) {\n             owner = newOwner;\n         }\n     }\n }\n /**\n  * title KOL Promotion contract\n  * dev visit: https://github.com/jackoelv/KOL/\n */\ncontract KOLPromote is Ownable{\n  using SafeMath for uint256;\n  string public name = \"KOL Promotion\";\n  KOL public kol;\n\n  uint256 public begin = 1588262400;//2020年5月1日0点0分0秒\n  uint256 public end;\n\n  uint256 public iCode;\n\n\n\n  uint8 public constant userLevel1 = 20;\n  uint8 public constant userLevel2 = 10;\n\n  uint16 public constant comLevel1Users = 100;\n  uint16 public constant comLevel2Users = 300;\n  uint16 public constant comLevel3Users = 500;\n\n  uint256 public constant comLevel1Amount = 10000 * (10 ** 18);\n  uint256 public constant comLevel2Amount = 30000 * (10 ** 18);\n  uint256 public constant comLevel3Amount = 50000 * (10 ** 18);\n\n  uint8 public constant comLevel1 = 3;\n  uint8 public constant comLevel2 = 5;\n  uint8 public constant comLevel3 = 10;\n  uint8 public constant withDrawRate = 5;\n\n  uint256 public constant withDrawDays = 30 days;\n\n\n  /* address[] private inviteAddr;// A->B->C: inviteAddr= B,A\n  address[] private childAddr;// A-->B,A-->C,childAddr= B, C */\n\n\n\n  struct lock{\n    uint256 begin;\n    uint256 amount;\n    uint256 end;\n    bool withDrawed;\n  }\n\n  struct teamRate{\n    uint8 rate;\n    uint256 changeTime;\n\n  }\n\n  struct inviteBonus{\n    uint256 begin;//网体开始时间\n    uint256 dayBonus;//网体当日加速\n    uint256 hisTotalBonus;\n  }\n  struct withDraws{\n    uint256 time;\n    uint256 amount;\n  }\n\n  mapping (address => address[]) internal InviteList;\n  mapping (address => address[]) internal ChildAddrs;\n  mapping (address => teamRate[]) internal TeamRateList;\n  mapping (address => lock[]) internal LockHistory;\n  mapping (address => uint256) internal LockBalance;\n  mapping (address => uint256) internal LockHistoryBonus;\n  mapping (address => uint256) internal InviteHistoryBonus;\n  mapping (address => uint256) internal InviteCurrentDayBonus;\n\n  mapping (address => address) internal InviteRelation;//A=>B B is father;\n  mapping (uint256 => uint256) internal ClosePrice;\n  mapping (address => uint256) internal TotalUsers;\n  mapping (address => uint256) internal TotalLockingAmount;\n  mapping (uint256 => address) public InviteCode;\n  mapping (address => uint256) public RInviteCode;\n\n  mapping (address => uint8) internal isLevelN;\n  mapping (address => bool) public USDTOrCoin;\n\n  mapping (address => uint256) public WithDraws;\n\n\n  event Registed(address _user,uint256 inviteCode);\n  event GradeChanged(address _user,uint8 _oldLevel,uint8 _newLevel);\n  event WithDraw(address _user,uint256 _self,uint256 _promotion,uint256 _team);\n  event WithDrawBalance(address _user,uint256 _balance);\n\n\n  constructor(address _tokenAddress,uint256 _begin,uint256 _end) public {\n    kol = KOL(_tokenAddress);\n    begin = _begin;\n    end = _end;\n\n  }\n\n  modifier onlySuperNode() {\n    require(kol.querySuperNode(msg.sender));\n      _;\n  }\n  modifier onlyNode() {\n      require(kol.queryNode(msg.sender));\n      _;\n  }\n  modifier onlyNodes() {\n      require(kol.querySuperNode(msg.sender)||kol.queryNode(msg.sender));\n      _;\n  }\n  /**\n   * title 提现KOL到自己的账户\n   * dev visit: https://github.com/jackoelv/KOL/\n  */\n  function withDraw(bool _type) public {\n    //_type true，提利息，false，提本息\n    //提现就把利息全部提走，只能提整数，不能提小数点。\n    //如果是提现本金，需要判断一下用户是否满足自由提现的条件。\n    require(LockBalance[msg.sender] > 0);\n    uint256 self;\n    uint256 promotion;\n    uint256 team;\n    if (_type) {\n      //提利息+奖励\n      //今天凌晨的时间\n      uint256 yestodayLastSecond = now.sub(now.sub(begin) % 86400) - 1;//昨天的最后一秒\n      uint256 lastingDays = now.sub(now.sub(begin) % 86400).div(86400);//除法刚好是整数\n      for (uint i = 0 ; i<lastingDays; i++) {\n         self += calcuBonus(msg.sender,yestodayLastSecond);\n         promotion += calcuInviteBonus(msg.sender,yestodayLastSecond);\n         team += calcuTeamBonus(msg.sender,yestodayLastSecond);\n         yestodayLastSecond = yestodayLastSecond.sub(86400);\n      }\n      //应该把这个历史记录下来？爆出一个事件吧，不记录链上了。\n      emit WithDraw(msg.sender,self,promotion,team);\n      uint256 total = self.add(promotion).add(team);\n      WithDraws[msg.sender] += total;\n      kol.transfer(msg.sender,total);\n    }else{\n      //提本金，先判断是否符合条件，一旦提了本金就要注意给上级网体降级减少网体的加速。\n      if ((TotalLockingAmount[msg.sender] < LockBalance[msg.sender].mul(withDrawRate)) &&\n                                    (now < LockHistory[msg.sender][0].begin + withDrawDays)){\n          //没有达到提现要求\n          return;\n      }else{\n        for (uint j = 0; j<LockHistory[msg.sender].length; j++){\n          LockHistory[msg.sender][j].end = now;\n          LockHistory[msg.sender][j].withDrawed = true;\n        }\n        uint256 balance = LockBalance[msg.sender];\n        emit WithDrawBalance(msg.sender,balance);\n        kol.transfer(msg.sender,balance);\n        LockBalance[msg.sender] = 0;\n        afterDraw(msg.sender,balance);//提现以后需要对上级所有的网体人数和金额做减法。\n      }\n\n    }\n\n  }\n  /**\n   * title 提现以后上级的处理\n   * dev visit: https://github.com/jackoelv/KOL/\n  */\n  function afterDraw(address _addr,uint256 _amount) private{\n    for (uint i = 0; i<InviteList[_addr].length; i++){\n        require(TotalUsers[InviteList[_addr][i]] > 0);\n        TotalUsers[InviteList[_addr][i]] -= 1;\n        //给上面的加入团队总金额\n        TotalLockingAmount[InviteList[_addr][i]] = TotalLockingAmount[InviteList[_addr][i]].sub(_amount);\n        queryAndSetLevelN(InviteList[_addr][i]);\n    }\n  }\n\n  /**\n   * title 获得自己的邀请码\n   * dev visit: https://github.com/jackoelv/KOL/\n  */\n  function getCode() public view returns(uint256) {\n    return (RInviteCode[msg.sender]);\n  }\n  /**\n   * title 注册并绑定邀请关系\n   * dev visit: https://github.com/jackoelv/KOL/\n  */\n  function register(uint256 _fInviteCode) public {\n    uint256 random = uint256(keccak256(now, msg.sender)) % 100;\n    uint256 _myInviteCode = iCode.add(random);\n    iCode = iCode.add(random);\n\n    require(InviteCode[_myInviteCode] == address(0));\n    require(InviteCode[_fInviteCode] != address(0));\n    InviteCode[_myInviteCode] = msg.sender;\n    RInviteCode[msg.sender] = _myInviteCode;\n    emit Registed(msg.sender,iCode);\n\n    address father = InviteCode[_fInviteCode];\n    InviteRelation[msg.sender] = father;\n\n    ChildAddrs[father].push(msg.sender);\n\n    InviteList[msg.sender].push(father);\n    for (uint i = 0 ; i < InviteList[father].length; i++){\n      InviteList[msg.sender].push(InviteList[father][i]);\n    }\n\n  }\n  /**\n   * title 转入KOL进行持仓生息\n   * _usdtOrCoin, true:金本位; false:币本位\n   * dev visit: https://github.com/jackoelv/KOL/\n  */\n  function join(uint256 _amount,bool _usdtOrCoin) public {\n    kol.transferFrom(msg.sender,address(this),_amount);\n    LockHistory[msg.sender].push(lock(now,_amount,0,false));\n    LockBalance[msg.sender] = LockBalance[msg.sender].add(_amount);\n\n    USDTOrCoin[msg.sender] = _usdtOrCoin;\n\n    for (uint i = 0; i<InviteList[msg.sender].length; i++){\n      if (LockHistory[msg.sender].length == 1){\n        //给上面的人数+1\n        TotalUsers[InviteList[msg.sender][i]] += 1;\n      }\n      //给上面的加入团队总金额\n      TotalLockingAmount[InviteList[msg.sender][i]] = TotalLockingAmount[InviteList[msg.sender][i]].add(_amount);\n      queryAndSetLevelN(InviteList[msg.sender][i]);\n    }\n\n\n  }\n  /**\n   * title 查询并设置用户的身份级别\n   * dev visit: https://github.com/jackoelv/KOL/\n  */\n  function queryAndSetLevelN(address _addr) internal{\n    if ((TotalUsers[_addr] >= comLevel3Users) && (TotalLockingAmount[_addr] >= comLevel3Amount)){\n      if (isLevelN[_addr]!=3){\n        emit GradeChanged(_addr,isLevelN[_addr],3);\n        isLevelN[_addr] = 3;\n        TeamRateList[_addr].push(teamRate(3,now));\n      }\n    }else if((TotalUsers[_addr] >= comLevel2Users) && (TotalLockingAmount[_addr] >= comLevel2Amount)){\n      if (isLevelN[_addr]!=2){\n        emit GradeChanged(_addr,isLevelN[_addr],2);\n        isLevelN[_addr] = 2;\n        TeamRateList[_addr].push(teamRate(2,now));\n      }\n    }else if((TotalUsers[_addr] >= comLevel1Users) && (TotalLockingAmount[_addr] >= comLevel1Amount)){\n      if (isLevelN[_addr]!=1){\n        emit GradeChanged(_addr,isLevelN[_addr],1);\n        isLevelN[_addr] = 1;\n        TeamRateList[_addr].push(teamRate(1,now));\n      }\n    }else{\n      if (isLevelN[_addr]!=0){\n        emit GradeChanged(_addr,isLevelN[_addr],0);\n        isLevelN[_addr] = 0;\n        TeamRateList[_addr].push(teamRate(0,now));\n      }\n    }\n  }\n  /**\n   * title 用户升级后首次计算历史佣金的汇总\n   * dev visit: https://github.com/jackoelv/KOL/\n  */\n  function firstUpgradeBonus(address _addr) internal{\n    if (isLevelN[_addr] == 1){\n      //首次升级社区长,计算日加速\n    }else if (isLevelN[_addr] ==2 ){\n      //首次升级到精英社区\n    }else if (isLevelN[_addr] == 3){\n      //首次升级到VIP社区\n    }\n  }\n  /**\n   * title 查询到指定时间点，当天用户的持币生息收益，建议输入时间为当天的11点59分\n   * dev visit: https://github.com/jackoelv/KOL/\n  */\n  function calcuBonus(address _addr,uint256 _queryTime) private view returns(uint256) {\n    //输入参数为查询的时间。\n    //返回值为截止到查询时间之前当天的静态收益。\n    uint256 tmpBonus;\n    if (LockHistory[_addr].length > 0){\n      for (uint i = 0; i<LockHistory[_addr].length; i++){\n        if (LockHistory[_addr][i].withDrawed){\n          //如果是已经提现的资金，那就要求计算日期是在起止时间内的。\n          if ((_queryTime >= LockHistory[_addr][i].begin) && (_queryTime <= LockHistory[_addr][i].end)){\n              tmpBonus += LockHistory[_addr][i].amount.mul(3).div(1000);\n          }\n        }else{\n          if (_queryTime >= LockHistory[_addr][i].begin ){\n            //这个就要计入到当天的收益\n            tmpBonus += LockHistory[_addr][i].amount.mul(3).div(1000);\n          }\n        }\n      }\n    }\n    return tmpBonus;\n\n\n  }\n  /**\n   * title 查询到指定时间点，计算用户当天的推广收益\n   * dev visit: https://github.com/jackoelv/KOL/\n  */\n  function calcuInviteBonus(address _addr,uint256 _queryTime) private view returns(uint256) {\n    //直推，直推的直推，比较金额，计算佣金。\n    //先计算直推的\n    address[] childUser = ChildAddrs[_addr];\n\n    uint256 dayLockBalance;//先算出这一天他的有效锁仓余额是多少\n    uint256 childLockBalance;\n    uint256 child2LockBalance;\n\n    uint256 level1Bonus;\n    uint256 level2Bonus;\n\n    dayLockBalance = queryLockBalance(_addr,_queryTime);\n\n    for (uint i = 0; i<childUser.length; i++){\n      //每个直推独立计算\n      childLockBalance = queryLockBalance(childUser[i],_queryTime);\n      if (dayLockBalance >= childLockBalance){\n        level1Bonus += childLockBalance.mul(userLevel1).div(100);\n      }else{\n        level1Bonus += dayLockBalance.mul(userLevel1).div(100);\n      }\n      //再计算二级的\n      address[] child2User = ChildAddrs[childUser[i]];\n      for (uint j = 0; j<child2User.length; j++){\n        child2LockBalance = queryLockBalance(child2User[j],_queryTime);\n        if (dayLockBalance >= child2LockBalance){\n          level2Bonus += childLockBalance.mul(userLevel2).div(100);\n        }else{\n          level2Bonus += dayLockBalance.mul(userLevel2).div(100);\n        }\n      }\n    }\n    return (level1Bonus.add(level2Bonus));\n\n  }\n  /**\n   * title 查询指定时间用户的有效锁仓余额\n   * dev visit: https://github.com/jackoelv/KOL/\n  */\n  function queryLockBalance(address _addr,uint256 _queryTime) private view returns(uint256) {\n    uint256 dayLockBalance;\n    for (uint j = 0; j<LockHistory[_addr].length; j++){\n      if (LockHistory[_addr][j].withDrawed){\n        //如果是已经提现的资金，那就要求计算日期是在起止时间内的。\n        if ((_queryTime >= LockHistory[_addr][j].begin) && (_queryTime <= LockHistory[_addr][j].end)){\n            dayLockBalance += LockHistory[_addr][j].amount;\n        }\n      }else{\n        if (_queryTime >= LockHistory[_addr][j].begin ){\n          //这个就要计入到当天的收益\n          dayLockBalance += LockHistory[_addr][j].amount;\n        }\n      }\n    }\n    return dayLockBalance;\n  }\n  /**\n   * title 查询并计算用户的网体收益\n   * dev visit: https://github.com/jackoelv/KOL/\n  */\n  function calcuTeamBonus(address _addr,uint256 _queryTime) private view returns(uint256) {\n    uint8 rate;\n    if (TeamRateList[_addr].length == 0){\n      return 0;\n    }else{\n      for (uint i = 0; i<TeamRateList[_addr].length; i++){\n        if (i < TeamRateList[_addr].length -1){\n          if (( _queryTime >= TeamRateList[_addr][i].changeTime ) &&\n                    ( _queryTime <= TeamRateList[_addr][i+1].changeTime )){\n            rate = TeamRateList[_addr][i].rate;\n          }\n        }else{\n          if ( _queryTime >= TeamRateList[_addr][i].changeTime ){\n            rate = TeamRateList[_addr][i].rate;\n          }\n        }\n\n      }\n    }\n\n    if (rate>0){\n      //现在开始计算整个网体的奖励，从直推开始一路递归下去\n      //有一个问题没有考虑到，就是升级以前的网体收益是不同的。！！！\n      uint256 dayLockBalance = queryLockBalance(_addr,_queryTime);\n      return levelBonus(dayLockBalance,rate,_addr,_queryTime);\n\n    }else{\n      return 0;\n    }\n\n  }\n  /**\n   * title 递归计算直推网体奖励\n   * dev visit: https://github.com/jackoelv/KOL/\n  */\n  function levelBonus(uint256 _ancientBalance,uint8 _rate,address _addr,uint256 _queryTime) private view returns(uint256){\n    uint256 bonus;\n\n    if ( ChildAddrs[_addr].length > 0 ){\n      for (uint i = 0; i<ChildAddrs[_addr].length; i++){\n        uint256 childLockBalance = queryLockBalance(ChildAddrs[_addr][i],_queryTime);\n        if (_ancientBalance >= childLockBalance) {\n          bonus += childLockBalance.mul(_rate).div(100);\n        }else{\n          bonus += _ancientBalance.mul(_rate).div(100);\n        }\n        bonus += levelBonus(_ancientBalance,_rate,ChildAddrs[_addr][i],_queryTime);\n      }\n    }\n    return 0;\n  }\n\n  /**\n   * title 录入KOL的收盘价\n   * dev visit: https://github.com/jackoelv/KOL/\n  */\n  function putClosePrice(uint256 price) onlyNodes public{\n    //录入的价格为4位小数\n    uint256 yestodayLastSecond = now.sub(now.sub(begin) % 86400) - 1;\n    ClosePrice[yestodayLastSecond] = price;\n\n  }\n\n\n}\n",
  "sourcePath": "/Users/jack/git/github/KOL/contracts/KOLPromotion.sol",
  "compiler": {
    "name": "solc",
    "version": "0.4.23+commit.124ca40d.Emscripten.clang"
  },
  "schemaVersion": "3.0.19",
  "updatedAt": "2020-04-22T05:47:22.916Z",
  "devdoc": {
    "methods": {}
  },
  "userdoc": {
    "methods": {
      "getCode()": {
        "notice": "title 获得自己的邀请码 dev visit: https://github.com/jackoelv/KOL/"
      },
      "join(uint256,bool)": {
        "notice": "title 转入KOL进行持仓生息 _usdtOrCoin, true:金本位; false:币本位 dev visit: https://github.com/jackoelv/KOL/"
      },
      "putClosePrice(uint256)": {
        "notice": "title 录入KOL的收盘价 dev visit: https://github.com/jackoelv/KOL/"
      },
      "register(uint256)": {
        "notice": "title 注册并绑定邀请关系 dev visit: https://github.com/jackoelv/KOL/"
      },
      "withDraw(bool)": {
        "notice": "title 提现KOL到自己的账户 dev visit: https://github.com/jackoelv/KOL/"
      }
    }
  }
}