{
  "contractName": "KOLUSDTFund",
  "abi": [
    {
      "constant": true,
      "inputs": [],
      "name": "name",
      "outputs": [
        {
          "name": "",
          "type": "string"
        }
      ],
      "payable": false,
      "stateMutability": "view",
      "type": "function"
    },
    {
      "constant": true,
      "inputs": [],
      "name": "kol",
      "outputs": [
        {
          "name": "",
          "type": "address"
        }
      ],
      "payable": false,
      "stateMutability": "view",
      "type": "function"
    },
    {
      "constant": true,
      "inputs": [],
      "name": "usdt",
      "outputs": [
        {
          "name": "",
          "type": "address"
        }
      ],
      "payable": false,
      "stateMutability": "view",
      "type": "function"
    },
    {
      "constant": true,
      "inputs": [],
      "name": "minSuperNodes",
      "outputs": [
        {
          "name": "",
          "type": "uint16"
        }
      ],
      "payable": false,
      "stateMutability": "view",
      "type": "function"
    },
    {
      "constant": true,
      "inputs": [],
      "name": "halfSuperNodes",
      "outputs": [
        {
          "name": "",
          "type": "uint16"
        }
      ],
      "payable": false,
      "stateMutability": "view",
      "type": "function"
    },
    {
      "constant": true,
      "inputs": [],
      "name": "owner",
      "outputs": [
        {
          "name": "",
          "type": "address"
        }
      ],
      "payable": false,
      "stateMutability": "view",
      "type": "function"
    },
    {
      "constant": true,
      "inputs": [],
      "name": "symbol",
      "outputs": [
        {
          "name": "",
          "type": "string"
        }
      ],
      "payable": false,
      "stateMutability": "view",
      "type": "function"
    },
    {
      "constant": true,
      "inputs": [],
      "name": "TENKOL",
      "outputs": [
        {
          "name": "",
          "type": "uint256"
        }
      ],
      "payable": false,
      "stateMutability": "view",
      "type": "function"
    },
    {
      "constant": true,
      "inputs": [],
      "name": "missionId",
      "outputs": [
        {
          "name": "",
          "type": "uint256"
        }
      ],
      "payable": false,
      "stateMutability": "view",
      "type": "function"
    },
    {
      "constant": true,
      "inputs": [],
      "name": "dealTime",
      "outputs": [
        {
          "name": "",
          "type": "uint256"
        }
      ],
      "payable": false,
      "stateMutability": "view",
      "type": "function"
    },
    {
      "constant": true,
      "inputs": [],
      "name": "TENUSDT",
      "outputs": [
        {
          "name": "",
          "type": "uint256"
        }
      ],
      "payable": false,
      "stateMutability": "view",
      "type": "function"
    },
    {
      "inputs": [
        {
          "name": "_kolAddress",
          "type": "address"
        },
        {
          "name": "_usdtAddress",
          "type": "address"
        }
      ],
      "payable": false,
      "stateMutability": "nonpayable",
      "type": "constructor"
    },
    {
      "anonymous": false,
      "inputs": [
        {
          "indexed": false,
          "name": "_missionId",
          "type": "uint256"
        },
        {
          "indexed": false,
          "name": "_name",
          "type": "bytes32"
        }
      ],
      "name": "MissionPassed",
      "type": "event"
    },
    {
      "anonymous": false,
      "inputs": [
        {
          "indexed": false,
          "name": "_missionId",
          "type": "uint256"
        },
        {
          "indexed": false,
          "name": "_totalAmount",
          "type": "uint256"
        },
        {
          "indexed": false,
          "name": "_length",
          "type": "uint256"
        }
      ],
      "name": "OfferingFinished",
      "type": "event"
    },
    {
      "anonymous": false,
      "inputs": [
        {
          "indexed": false,
          "name": "_name",
          "type": "bytes32"
        },
        {
          "indexed": false,
          "name": "_missionId",
          "type": "uint256"
        },
        {
          "indexed": false,
          "name": "_whoLaunch",
          "type": "address"
        }
      ],
      "name": "MissionLaunched",
      "type": "event"
    },
    {
      "anonymous": false,
      "inputs": [
        {
          "indexed": true,
          "name": "previousOwner",
          "type": "address"
        },
        {
          "indexed": true,
          "name": "newOwner",
          "type": "address"
        }
      ],
      "name": "OwnershipTransferred",
      "type": "event"
    },
    {
      "constant": false,
      "inputs": [
        {
          "name": "_name",
          "type": "bytes32"
        },
        {
          "name": "_totalAmount",
          "type": "uint256"
        },
        {
          "name": "_isKol",
          "type": "bool"
        }
      ],
      "name": "createKolMission",
      "outputs": [],
      "payable": false,
      "stateMutability": "nonpayable",
      "type": "function"
    },
    {
      "constant": false,
      "inputs": [
        {
          "name": "_missionId",
          "type": "uint256"
        },
        {
          "name": "_agree",
          "type": "bool"
        }
      ],
      "name": "voteMission",
      "outputs": [],
      "payable": false,
      "stateMutability": "nonpayable",
      "type": "function"
    },
    {
      "constant": false,
      "inputs": [
        {
          "name": "_missionId",
          "type": "uint256"
        },
        {
          "name": "_target",
          "type": "address"
        },
        {
          "name": "_targetAmount",
          "type": "uint256"
        }
      ],
      "name": "addKolOffering",
      "outputs": [],
      "payable": false,
      "stateMutability": "nonpayable",
      "type": "function"
    },
    {
      "constant": false,
      "inputs": [
        {
          "name": "_missionId",
          "type": "uint256"
        }
      ],
      "name": "excuteVote",
      "outputs": [],
      "payable": false,
      "stateMutability": "nonpayable",
      "type": "function"
    },
    {
      "constant": true,
      "inputs": [
        {
          "name": "_missionId",
          "type": "uint256"
        }
      ],
      "name": "getMission1",
      "outputs": [
        {
          "name": "",
          "type": "bool"
        },
        {
          "name": "",
          "type": "uint256"
        },
        {
          "name": "",
          "type": "uint256"
        },
        {
          "name": "",
          "type": "uint256"
        },
        {
          "name": "",
          "type": "uint256"
        },
        {
          "name": "",
          "type": "bytes32"
        }
      ],
      "payable": false,
      "stateMutability": "view",
      "type": "function"
    },
    {
      "constant": true,
      "inputs": [
        {
          "name": "_missionId",
          "type": "uint256"
        }
      ],
      "name": "getMission2",
      "outputs": [
        {
          "name": "",
          "type": "uint16"
        },
        {
          "name": "",
          "type": "uint16"
        },
        {
          "name": "",
          "type": "bool"
        },
        {
          "name": "",
          "type": "bool"
        }
      ],
      "payable": false,
      "stateMutability": "view",
      "type": "function"
    },
    {
      "constant": true,
      "inputs": [
        {
          "name": "_missionId",
          "type": "uint256"
        },
        {
          "name": "_id",
          "type": "uint256"
        }
      ],
      "name": "getOfferings",
      "outputs": [
        {
          "name": "",
          "type": "address"
        },
        {
          "name": "",
          "type": "uint256"
        },
        {
          "name": "",
          "type": "uint256"
        }
      ],
      "payable": false,
      "stateMutability": "view",
      "type": "function"
    },
    {
      "constant": true,
      "inputs": [
        {
          "name": "_node",
          "type": "address"
        },
        {
          "name": "_missionId",
          "type": "uint256"
        }
      ],
      "name": "voted",
      "outputs": [
        {
          "name": "",
          "type": "bool"
        }
      ],
      "payable": false,
      "stateMutability": "view",
      "type": "function"
    }
  ],
  "bytecode": "0x60806040526040805190810160405280601381526020017f4b4f4c205553445420466f756e646174696f6e000000000000000000000000008152506001908051906020019062000051929190620001b1565b506040805190810160405280600b81526020017f4b4f4c5553445446756e64000000000000000000000000000000000000000000815250600290805190602001906200009f929190620001b1565b506203f4806005556000600655348015620000b957600080fd5b506040516040806200204d8339810180604052810190808051906020019092919080519060200190929190505050336000806101000a81548173ffffffffffffffffffffffffffffffffffffffff021916908373ffffffffffffffffffffffffffffffffffffffff16021790555081600360006101000a81548173ffffffffffffffffffffffffffffffffffffffff021916908373ffffffffffffffffffffffffffffffffffffffff16021790555080600460006101000a81548173ffffffffffffffffffffffffffffffffffffffff021916908373ffffffffffffffffffffffffffffffffffffffff160217905550505062000260565b828054600181600116156101000203166002900490600052602060002090601f016020900481019282601f10620001f457805160ff191683800117855562000225565b8280016001018555821562000225579182015b828111156200022457825182559160200191906001019062000207565b5b50905062000234919062000238565b5090565b6200025d91905b80821115620002595760008160009055506001016200023f565b5090565b90565b611ddd80620002706000396000f300608060405260043610610107576000357c0100000000000000000000000000000000000000000000000000000000900463ffffffff16806301424b2c1461010c57806306fdde03146101395780630dcba2d1146101c95780632f48ab7d146102205780633c10edaa146102775780635797654d146102b05780635883f032146102e35780636bfa24ea146103685780637291437c1461039b57806378daffd1146103f25780638da5cb5b1461043957806395d89b411461049057806398e4c5e814610520578063af26b7621461054b578063bbc1a30014610576578063c446b6de146105e4578063c591aa981461060f578063d23db1cd14610674578063e01b9d34146106e4575b600080fd5b34801561011857600080fd5b506101376004803603810190808035906020019092919050505061070f565b005b34801561014557600080fd5b5061014e610c19565b6040518080602001828103825283818151815260200191508051906020019080838360005b8381101561018e578082015181840152602081019050610173565b50505050905090810190601f1680156101bb5780820380516001836020036101000a031916815260200191505b509250505060405180910390f35b3480156101d557600080fd5b506101de610cb7565b604051808273ffffffffffffffffffffffffffffffffffffffff1673ffffffffffffffffffffffffffffffffffffffff16815260200191505060405180910390f35b34801561022c57600080fd5b50610235610cdd565b604051808273ffffffffffffffffffffffffffffffffffffffff1673ffffffffffffffffffffffffffffffffffffffff16815260200191505060405180910390f35b34801561028357600080fd5b506102ae60048036038101908080359060200190929190803515159060200190929190505050610d03565b005b3480156102bc57600080fd5b506102c5611229565b604051808261ffff1661ffff16815260200191505060405180910390f35b3480156102ef57600080fd5b50610318600480360381019080803590602001909291908035906020019092919050505061122e565b604051808473ffffffffffffffffffffffffffffffffffffffff1673ffffffffffffffffffffffffffffffffffffffff168152602001838152602001828152602001935050505060405180910390f35b34801561037457600080fd5b5061037d6112db565b604051808261ffff1661ffff16815260200191505060405180910390f35b3480156103a757600080fd5b506103f060048036038101908080359060200190929190803573ffffffffffffffffffffffffffffffffffffffff169060200190929190803590602001909291905050506112e0565b005b3480156103fe57600080fd5b50610437600480360381019080803560001916906020019092919080359060200190929190803515159060200190929190505050611791565b005b34801561044557600080fd5b5061044e611a8b565b604051808273ffffffffffffffffffffffffffffffffffffffff1673ffffffffffffffffffffffffffffffffffffffff16815260200191505060405180910390f35b34801561049c57600080fd5b506104a5611ab0565b6040518080602001828103825283818151815260200191508051906020019080838360005b838110156104e55780820151818401526020810190506104ca565b50505050905090810190601f1680156105125780820380516001836020036101000a031916815260200191505b509250505060405180910390f35b34801561052c57600080fd5b50610535611b4e565b6040518082815260200191505060405180910390f35b34801561055757600080fd5b50610560611b5c565b6040518082815260200191505060405180910390f35b34801561058257600080fd5b506105a160048036038101908080359060200190929190505050611b62565b604051808561ffff1661ffff1681526020018461ffff1661ffff168152602001831515151581526020018215151515815260200194505050505060405180910390f35b3480156105f057600080fd5b506105f9611c09565b6040518082815260200191505060405180910390f35b34801561061b57600080fd5b5061065a600480360381019080803573ffffffffffffffffffffffffffffffffffffffff16906020019092919080359060200190929190505050611c0f565b604051808215151515815260200191505060405180910390f35b34801561068057600080fd5b5061069f60048036038101908080359060200190929190505050611c77565b60405180871515151581526020018681526020018581526020018481526020018381526020018260001916600019168152602001965050505050505060405180910390f35b3480156106f057600080fd5b506106f9611d2c565b6040518082815260200191505060405180910390f35b6000806000809054906101000a900473ffffffffffffffffffffffffffffffffffffffff1673ffffffffffffffffffffffffffffffffffffffff163373ffffffffffffffffffffffffffffffffffffffff1614151561076d57600080fd5b6008600084815260200190815260200160002060060160059054906101000a900460ff1615151561079d57600080fd5b600554600860008581526020019081526020016000206002015401421015156107c557600080fd5b6008600084815260200190815260200160002060060160049054906101000a900460ff1615156107f457600080fd5b6008600084815260200190815260200160002060040154600860008581526020019081526020016000206003015414151561082e57600080fd5b6008600084815260200190815260200160002060000160009054906101000a900460ff169150600090505b600a600084815260200190815260200160002080549050811015610b72578115610a0557600360009054906101000a900473ffffffffffffffffffffffffffffffffffffffff1673ffffffffffffffffffffffffffffffffffffffff1663a9059cbb600a6000868152602001908152602001600020838154811015156108db57fe5b906000526020600020906002020160000160009054906101000a900473ffffffffffffffffffffffffffffffffffffffff16600a60008781526020019081526020016000208481548110151561092d57fe5b9060005260206000209060020201600101546040518363ffffffff167c0100000000000000000000000000000000000000000000000000000000028152600401808373ffffffffffffffffffffffffffffffffffffffff1673ffffffffffffffffffffffffffffffffffffffff16815260200182815260200192505050602060405180830381600087803b1580156109c457600080fd5b505af11580156109d8573d6000803e3d6000fd5b505050506040513d60208110156109ee57600080fd5b810190808051906020019092919050505050610b65565b600460009054906101000a900473ffffffffffffffffffffffffffffffffffffffff1673ffffffffffffffffffffffffffffffffffffffff1663a9059cbb600a600086815260200190815260200160002083815481101515610a6357fe5b906000526020600020906002020160000160009054906101000a900473ffffffffffffffffffffffffffffffffffffffff16600a600087815260200190815260200160002084815481101515610ab557fe5b9060005260206000209060020201600101546040518363ffffffff167c0100000000000000000000000000000000000000000000000000000000028152600401808373ffffffffffffffffffffffffffffffffffffffff1673ffffffffffffffffffffffffffffffffffffffff16815260200182815260200192505050600060405180830381600087803b158015610b4c57600080fd5b505af1158015610b60573d6000803e3d6000fd5b505050505b8080600101915050610859565b60016008600085815260200190815260200160002060060160056101000a81548160ff0219169083151502179055507f1022a2c4ccad65760f1f251079912a70e8690dba3a6efc0e30332501a68092d5836008600086815260200190815260200160002060040154600a60008781526020019081526020016000208054905060405180848152602001838152602001828152602001935050505060405180910390a1505050565b60018054600181600116156101000203166002900480601f016020809104026020016040519081016040528092919081815260200182805460018160011615610100020316600290048015610caf5780601f10610c8457610100808354040283529160200191610caf565b820191906000526020600020905b815481529060010190602001808311610c9257829003601f168201915b505050505081565b600360009054906101000a900473ffffffffffffffffffffffffffffffffffffffff1681565b600460009054906101000a900473ffffffffffffffffffffffffffffffffffffffff1681565b6000806000600360009054906101000a900473ffffffffffffffffffffffffffffffffffffffff1673ffffffffffffffffffffffffffffffffffffffff1663c4a1dbad336040518263ffffffff167c0100000000000000000000000000000000000000000000000000000000028152600401808273ffffffffffffffffffffffffffffffffffffffff1673ffffffffffffffffffffffffffffffffffffffff168152602001915050602060405180830381600087803b158015610dc557600080fd5b505af1158015610dd9573d6000803e3d6000fd5b505050506040513d6020811015610def57600080fd5b81019080805190602001909291905050501515610e0b57600080fd5b600860008681526020019081526020016000206002015442101515610e2f57600080fd5b600360009054906101000a900473ffffffffffffffffffffffffffffffffffffffff1673ffffffffffffffffffffffffffffffffffffffff1663c4a1dbad336040518263ffffffff167c0100000000000000000000000000000000000000000000000000000000028152600401808273ffffffffffffffffffffffffffffffffffffffff1673ffffffffffffffffffffffffffffffffffffffff168152602001915050602060405180830381600087803b158015610eec57600080fd5b505af1158015610f00573d6000803e3d6000fd5b505050506040513d6020811015610f1657600080fd5b81019080805190602001909291905050501515610f3257600080fd5b6008600086815260200190815260200160002060060160059054906101000a900460ff16151515610f6257600080fd5b600760003373ffffffffffffffffffffffffffffffffffffffff1673ffffffffffffffffffffffffffffffffffffffff168152602001908152602001600020600086815260200190815260200160002060009054906101000a900460ff16151515610fcc57600080fd5b600f9250600b91506008600086815260200190815260200160002060000160009054906101000a900460ff161561100f5769152d02c7e14af68000009050611018565b64174876e80090505b80600860008781526020019081526020016000206003015410151561103c57600f91505b6001151584151514156110975760086000868152602001908152602001600020600601600081819054906101000a900461ffff168092919060010191906101000a81548161ffff021916908361ffff160217905550506110e1565b60086000868152602001908152602001600020600601600281819054906101000a900461ffff168092919060010191906101000a81548161ffff021916908361ffff160217905550505b8161ffff166008600087815260200190815260200160002060060160009054906101000a900461ffff1661ffff161015156111535760016008600087815260200190815260200160002060060160046101000a81548160ff02191690831515021790555061114e85611d35565b6111b9565b8161ffff166008600087815260200190815260200160002060060160029054906101000a900461ffff1661ffff161015156111b85760016008600087815260200190815260200160002060060160056101000a81548160ff0219169083151502179055505b5b6001600760003373ffffffffffffffffffffffffffffffffffffffff1673ffffffffffffffffffffffffffffffffffffffff168152602001908152602001600020600087815260200190815260200160002060006101000a81548160ff0219169083151502179055505050505050565b600f81565b6000806000600a60008681526020019081526020016000208481548110151561125357fe5b906000526020600020906002020160000160009054906101000a900473ffffffffffffffffffffffffffffffffffffffff16600a6000878152602001908152602001600020858154811015156112a557fe5b906000526020600020906002020160010154600a6000888152602001908152602001600020805490509250925092509250925092565b600b81565b600360009054906101000a900473ffffffffffffffffffffffffffffffffffffffff1673ffffffffffffffffffffffffffffffffffffffff1663c4a1dbad336040518263ffffffff167c0100000000000000000000000000000000000000000000000000000000028152600401808273ffffffffffffffffffffffffffffffffffffffff1673ffffffffffffffffffffffffffffffffffffffff168152602001915050602060405180830381600087803b15801561139d57600080fd5b505af11580156113b1573d6000803e3d6000fd5b505050506040513d60208110156113c757600080fd5b810190808051906020019092919050505015156113e357600080fd5b6008600084815260200190815260200160002060060160059054906101000a900460ff1615151561141357600080fd5b6008600084815260200190815260200160002060000160009054906101000a900460ff161561163f57600360009054906101000a900473ffffffffffffffffffffffffffffffffffffffff1673ffffffffffffffffffffffffffffffffffffffff1663bac30981836040518263ffffffff167c0100000000000000000000000000000000000000000000000000000000028152600401808273ffffffffffffffffffffffffffffffffffffffff1673ffffffffffffffffffffffffffffffffffffffff168152602001915050602060405180830381600087803b1580156114f957600080fd5b505af115801561150d573d6000803e3d6000fd5b505050506040513d602081101561152357600080fd5b8101908080519060200190929190505050806116335750600360009054906101000a900473ffffffffffffffffffffffffffffffffffffffff1673ffffffffffffffffffffffffffffffffffffffff1663c4a1dbad836040518263ffffffff167c0100000000000000000000000000000000000000000000000000000000028152600401808273ffffffffffffffffffffffffffffffffffffffff1673ffffffffffffffffffffffffffffffffffffffff168152602001915050602060405180830381600087803b1580156115f757600080fd5b505af115801561160b573d6000803e3d6000fd5b505050506040513d602081101561162157600080fd5b81019080805190602001909291905050505b151561163e57600080fd5b5b600860008481526020019081526020016000206003015461167f826008600087815260200190815260200160002060040154611d9590919063ffffffff16565b1115151561168c57600080fd5b600a600084815260200190815260200160002060408051908101604052808473ffffffffffffffffffffffffffffffffffffffff168152602001838152509080600181540180825580915050906001820390600052602060002090600202016000909192909190915060008201518160000160006101000a81548173ffffffffffffffffffffffffffffffffffffffff021916908373ffffffffffffffffffffffffffffffffffffffff16021790555060208201518160010155505050611772816008600086815260200190815260200160002060040154611d9590919063ffffffff16565b6008600085815260200190815260200160002060040181905550505050565b6000600360009054906101000a900473ffffffffffffffffffffffffffffffffffffffff1673ffffffffffffffffffffffffffffffffffffffff1663c4a1dbad336040518263ffffffff167c0100000000000000000000000000000000000000000000000000000000028152600401808273ffffffffffffffffffffffffffffffffffffffff1673ffffffffffffffffffffffffffffffffffffffff168152602001915050602060405180830381600087803b15801561185057600080fd5b505af1158015611864573d6000803e3d6000fd5b505050506040513d602081101561187a57600080fd5b8101908080519060200190929190505050151561189657600080fd5b839050610140604051908101604052808315158152602001428152602001600554420181526020018481526020016000815260200182600019168152602001600061ffff168152602001600061ffff1681526020016000151581526020016000151581525060086000600654815260200190815260200160002060008201518160000160006101000a81548160ff0219169083151502179055506020820151816001015560408201518160020155606082015181600301556080820151816004015560a0820151816005019060001916905560c08201518160060160006101000a81548161ffff021916908361ffff16021790555060e08201518160060160026101000a81548161ffff021916908361ffff1602179055506101008201518160060160046101000a81548160ff0219169083151502179055506101208201518160060160056101000a81548160ff0219169083151502179055509050506006600081548092919060010191905055507fc96853e9a347a4993a1ab1a2f1f683db63a40fab5e2ce45e29c81b5149c58e4681600160065403336040518084600019166000191681526020018381526020018273ffffffffffffffffffffffffffffffffffffffff1673ffffffffffffffffffffffffffffffffffffffff168152602001935050505060405180910390a150505050565b6000809054906101000a900473ffffffffffffffffffffffffffffffffffffffff1681565b60028054600181600116156101000203166002900480601f016020809104026020016040519081016040528092919081815260200182805460018160011615610100020316600290048015611b465780601f10611b1b57610100808354040283529160200191611b46565b820191906000526020600020905b815481529060010190602001808311611b2957829003601f168201915b505050505081565b69152d02c7e14af680000081565b60065481565b6000806000806008600086815260200190815260200160002060060160009054906101000a900461ffff166008600087815260200190815260200160002060060160029054906101000a900461ffff166008600088815260200190815260200160002060060160049054906101000a900460ff166008600089815260200190815260200160002060060160059054906101000a900460ff1693509350935093509193509193565b60055481565b6000600760008473ffffffffffffffffffffffffffffffffffffffff1673ffffffffffffffffffffffffffffffffffffffff168152602001908152602001600020600083815260200190815260200160002060009054906101000a900460ff16905092915050565b6000806000806000806008600088815260200190815260200160002060000160009054906101000a900460ff166008600089815260200190815260200160002060010154600860008a815260200190815260200160002060020154600860008b815260200190815260200160002060030154600860008c815260200190815260200160002060040154600860008d81526020019081526020016000206005015495509550955095509550955091939550919395565b64174876e80081565b7f3aa94a81513bec2a88fbe53be130cc208c447c9914b300256c34c95ed7d5d8ab8160086000848152602001908152602001600020600501546040518083815260200182600019166000191681526020019250505060405180910390a150565b60008183019050828110151515611da857fe5b809050929150505600a165627a7a72305820d68e4c6609cb98444f715f221f144bbf13969b42dec1114d1196712d552b83c50029",
  "source": "pragma solidity ^0.4.23;\n/*\n *                   \n *                     KOL Community Foundation     \n *                      \n *                        \n *         \n *    Dev:Jack Koe  Special for:KOL Fund  20200212   \n *        \n */\nlibrary SafeMath {\n\n  function mul(uint256 _a, uint256 _b) internal pure returns (uint256 c) {\n    if (_a == 0) {\n      return 0;\n    }\n    c = _a * _b;\n    assert(c / _a == _b);\n    return c;\n  }\n  function div(uint256 _a, uint256 _b) internal pure returns (uint256) {\n    return _a / _b;\n  }\n  function sub(uint256 _a, uint256 _b) internal pure returns (uint256) {\n    assert(_b <= _a);\n    return _a - _b;\n  }\n  function add(uint256 _a, uint256 _b) internal pure returns (uint256 c) {\n    c = _a + _b;\n    assert(c >= _a);\n    return c;\n  }\n}\n\ncontract UERC20Basic {\n    uint public _totalSupply;\n    function totalSupply() public constant returns (uint);\n    function balanceOf(address who) public constant returns (uint);\n    function transfer(address to, uint value) public;\n    event Transfer(address indexed from, address indexed to, uint value);\n}\n\ncontract UERC20 is UERC20Basic {\n    function allowance(address owner, address spender) public constant returns (uint);\n    function transferFrom(address from, address to, uint value) public;\n    function approve(address spender, uint value) public;\n    event Approval(address indexed owner, address indexed spender, uint value);\n}\n\ncontract KERC20Basic {\n  function balanceOf(address _who) public view returns (uint256);\n  function transfer(address _to, uint256 _value) public returns (bool);\n  event Transfer(address indexed from, address indexed to, uint256 value);\n}\n\ncontract KERC20 is KERC20Basic {\n  function allowance(address _owner, address _spender)\n    public view returns (uint256);\n\n  function transferFrom(address _from, address _to, uint256 _value)\n    public returns (bool);\n  function querySuperNode(address _addr)\n    public returns(bool);\n  function queryNode(address _addr)\n    public view returns(bool);\n  function approve(address _spender, uint256 _value) public returns (bool);\n  event Approval(\n    address indexed owner,\n    address indexed spender,\n    uint256 value\n  );\n}\n\ncontract Ownable {\n\n  address public owner;\n  event OwnershipTransferred(\n    address indexed previousOwner,\n    address indexed newOwner\n  );\n  constructor() public {\n    owner = msg.sender;\n  }\n  modifier onlyOwner() {\n    require(msg.sender == owner);\n    _;\n  }\n  function _transferOwnership(address _newOwner) internal {\n    require(_newOwner != address(0));\n    emit OwnershipTransferred(owner, _newOwner);\n    owner = _newOwner;\n  }\n}\n\ncontract KOLUSDTFund is Ownable{\n  using SafeMath for uint256;\n  string public name = \"KOL USDT Foundation\";\n  string public symbol = \"KOLUSDTFund\";\n  KERC20 public kol;\n  UERC20 public usdt;\n\n  uint256 public dealTime =  3 days;\n  uint256 public missionId = 0;\n  uint256 public constant TENKOL = 100000 * (10 ** 18);\n  uint256 public constant TENUSDT = 100000 * (10 ** 6);\n\n\n  uint16 public constant halfSuperNodes = 11;\n  uint16 public constant minSuperNodes = 15;\n\n  mapping(address => mapping(uint256 => bool)) private Voter;\n\n  constructor(address _kolAddress,address _usdtAddress) public {\n    kol = KERC20(_kolAddress);\n    usdt = UERC20(_usdtAddress);\n  }\n\n  event MissionPassed(uint256 _missionId,bytes32 _name);\n  event OfferingFinished(uint256 _missionId,uint256 _totalAmount,uint256 _length);\n  event MissionLaunched(bytes32 _name,uint256 _missionId,address _whoLaunch);\n\n  modifier onlySuperNode() {\n    require(kol.querySuperNode(msg.sender));\n      _;\n  }\n\n/*\nisKol:true, mean kol\nisKol:false, mean usdt\n*/\n  struct KolMission{\n    bool isKol;\n    uint256 startTime;\n    uint256 endTime;\n    uint256 totalAmount;\n    uint256 offeringAmount;\n    bytes32 name;\n    uint16 agreeSuperNodes;\n    uint16 refuseSuperNodes;\n    bool superPassed;\n    bool done;\n  }\n  mapping (uint256 => KolMission) private missionList;\n\n  struct KolOffering{\n    address target;\n    uint256 targetAmount;\n  }\n  KolOffering[] private kolOfferings;\n  mapping(uint256 => KolOffering[]) private offeringList;\n\n  function missionPassed(uint256 _missionId) private {\n    emit MissionPassed(_missionId,missionList[_missionId].name);\n  }\n  function createKolMission(bytes32 _name,uint256 _totalAmount,bool _isKol) onlySuperNode public {\n      bytes32 iName = _name;\n      missionList[missionId] = KolMission(_isKol,\n                                          uint256(now),\n                                          uint256(now + dealTime),\n                                          _totalAmount,\n                                          0,\n                                          iName,\n                                          0,\n                                          0,\n                                          false,\n                                          false);\n\n      missionId++;\n      emit MissionLaunched(iName,missionId-1,msg.sender);\n  }\n  function voteMission(uint256 _missionId,bool _agree) onlySuperNode public{\n    require(now < missionList[_missionId].endTime);\n    require(kol.querySuperNode(msg.sender));\n    require(!missionList[_missionId].done);\n    require(!Voter[msg.sender][_missionId]);\n\n    uint16 minSuperNodesNum = minSuperNodes;\n    uint16 passSuperNodes = halfSuperNodes;\n\n    uint256 TEN;\n    if (missionList[_missionId].isKol){\n      TEN = TENKOL;\n    }else{\n      TEN = TENUSDT;\n    }\n\n    if (missionList[_missionId].totalAmount >= TEN){\n      passSuperNodes = minSuperNodes;\n    }\n\n    if(_agree == true){\n      missionList[_missionId].agreeSuperNodes++;\n    }\n    else{\n      missionList[_missionId].refuseSuperNodes++;\n    }\n    if (missionList[_missionId].agreeSuperNodes >= passSuperNodes) {\n        missionList[_missionId].superPassed = true;\n        missionPassed(_missionId);\n    }else if (missionList[_missionId].refuseSuperNodes >= passSuperNodes) {\n        missionList[_missionId].done = true;\n    }\n    Voter[msg.sender][_missionId] = true;\n  }\n  function addKolOffering(uint256 _missionId,address _target,uint256 _targetAmount) onlySuperNode public{\n    require(!missionList[_missionId].done);\n    if (missionList[_missionId].isKol){\n      require(kol.queryNode(_target)||kol.querySuperNode(_target));\n    }\n    require(missionList[_missionId].offeringAmount.add(_targetAmount) <= missionList[_missionId].totalAmount);\n    offeringList[_missionId].push(KolOffering(_target,_targetAmount));\n    missionList[_missionId].offeringAmount = missionList[_missionId].offeringAmount.add(_targetAmount);\n\n  }\n  function excuteVote(uint256 _missionId) onlyOwner public {\n    require(!missionList[_missionId].done);\n    require(uint256(now) < (missionList[_missionId].endTime + uint256(dealTime)));\n    require(missionList[_missionId].superPassed);\n    require(missionList[_missionId].totalAmount == missionList[_missionId].offeringAmount);\n\n    bool isKol = missionList[_missionId].isKol;\n    for (uint m = 0; m < offeringList[_missionId].length; m++){\n      if (isKol){\n        kol.transfer(offeringList[_missionId][m].target, offeringList[_missionId][m].targetAmount);\n      }else{\n        usdt.transfer(offeringList[_missionId][m].target, offeringList[_missionId][m].targetAmount);\n      }\n\n    }\n\n    missionList[_missionId].done = true;\n    emit OfferingFinished(_missionId,missionList[_missionId].offeringAmount,offeringList[_missionId].length);\n\n  }\n  function getMission1(uint256 _missionId) public view returns(bool,\n                                                            uint256,\n                                                            uint256,\n                                                            uint256,\n                                                            uint256,\n                                                            bytes32){\n    return(missionList[_missionId].isKol,\n            missionList[_missionId].startTime,\n            missionList[_missionId].endTime,\n            missionList[_missionId].totalAmount,\n            missionList[_missionId].offeringAmount,\n            missionList[_missionId].name);\n  }\n  function getMission2(uint256 _missionId) public view returns(uint16,\n                                                              uint16,\n                                                              bool,\n                                                              bool){\n    return(\n          missionList[_missionId].agreeSuperNodes,\n          missionList[_missionId].refuseSuperNodes,\n          missionList[_missionId].superPassed,\n          missionList[_missionId].done);\n  }\n  function getOfferings(uint256 _missionId,uint256 _id) public view returns(address,uint256,uint256){\n    return(offeringList[_missionId][_id].target,offeringList[_missionId][_id].targetAmount,offeringList[_missionId].length);\n  }\n  function voted(address _node,uint256 _missionId) public view returns(bool){\n    return Voter[_node][_missionId];\n  }\n\n}\n",
  "sourcePath": "/Users/jack/git/github/KOL/contracts/KOLUSDTFund.sol",
  "compiler": {
    "name": "solc",
    "version": "0.4.23+commit.124ca40d.Emscripten.clang"
  },
  "schemaVersion": "3.0.19",
  "updatedAt": "2020-02-16T01:50:56.481Z",
  "devdoc": {
    "methods": {}
  },
  "userdoc": {
    "methods": {}
  }
}