{
  "contractName": "KOLVote",
  "abi": [
    {
      "constant": true,
      "inputs": [],
      "name": "name",
      "outputs": [
        {
          "name": "",
          "type": "string"
        }
      ],
      "payable": false,
      "stateMutability": "view",
      "type": "function"
    },
    {
      "constant": false,
      "inputs": [
        {
          "name": "_spender",
          "type": "address"
        },
        {
          "name": "_value",
          "type": "uint256"
        }
      ],
      "name": "approve",
      "outputs": [
        {
          "name": "",
          "type": "bool"
        }
      ],
      "payable": false,
      "stateMutability": "nonpayable",
      "type": "function"
    },
    {
      "constant": true,
      "inputs": [],
      "name": "totalSupply",
      "outputs": [
        {
          "name": "",
          "type": "uint256"
        }
      ],
      "payable": false,
      "stateMutability": "view",
      "type": "function"
    },
    {
      "constant": false,
      "inputs": [
        {
          "name": "_from",
          "type": "address"
        },
        {
          "name": "_to",
          "type": "address"
        },
        {
          "name": "_value",
          "type": "uint256"
        }
      ],
      "name": "transferFrom",
      "outputs": [
        {
          "name": "",
          "type": "bool"
        }
      ],
      "payable": false,
      "stateMutability": "nonpayable",
      "type": "function"
    },
    {
      "constant": true,
      "inputs": [],
      "name": "decimals",
      "outputs": [
        {
          "name": "",
          "type": "uint256"
        }
      ],
      "payable": false,
      "stateMutability": "view",
      "type": "function"
    },
    {
      "constant": true,
      "inputs": [],
      "name": "superNodesNum",
      "outputs": [
        {
          "name": "",
          "type": "uint256"
        }
      ],
      "payable": false,
      "stateMutability": "view",
      "type": "function"
    },
    {
      "constant": true,
      "inputs": [],
      "name": "minNodes",
      "outputs": [
        {
          "name": "",
          "type": "uint16"
        }
      ],
      "payable": false,
      "stateMutability": "view",
      "type": "function"
    },
    {
      "constant": true,
      "inputs": [],
      "name": "minSuperNodes",
      "outputs": [
        {
          "name": "",
          "type": "uint16"
        }
      ],
      "payable": false,
      "stateMutability": "view",
      "type": "function"
    },
    {
      "constant": true,
      "inputs": [],
      "name": "most",
      "outputs": [
        {
          "name": "",
          "type": "uint16"
        }
      ],
      "payable": false,
      "stateMutability": "view",
      "type": "function"
    },
    {
      "constant": true,
      "inputs": [],
      "name": "TOKEN_DECIMALS",
      "outputs": [
        {
          "name": "",
          "type": "uint256"
        }
      ],
      "payable": false,
      "stateMutability": "view",
      "type": "function"
    },
    {
      "constant": false,
      "inputs": [
        {
          "name": "_spender",
          "type": "address"
        },
        {
          "name": "_subtractedValue",
          "type": "uint256"
        }
      ],
      "name": "decreaseApproval",
      "outputs": [
        {
          "name": "",
          "type": "bool"
        }
      ],
      "payable": false,
      "stateMutability": "nonpayable",
      "type": "function"
    },
    {
      "constant": true,
      "inputs": [],
      "name": "halfSuperNodes",
      "outputs": [
        {
          "name": "",
          "type": "uint16"
        }
      ],
      "payable": false,
      "stateMutability": "view",
      "type": "function"
    },
    {
      "constant": true,
      "inputs": [
        {
          "name": "_owner",
          "type": "address"
        }
      ],
      "name": "balanceOf",
      "outputs": [
        {
          "name": "",
          "type": "uint256"
        }
      ],
      "payable": false,
      "stateMutability": "view",
      "type": "function"
    },
    {
      "constant": true,
      "inputs": [],
      "name": "nodesNum",
      "outputs": [
        {
          "name": "",
          "type": "uint256"
        }
      ],
      "payable": false,
      "stateMutability": "view",
      "type": "function"
    },
    {
      "constant": true,
      "inputs": [],
      "name": "userSupplyed",
      "outputs": [
        {
          "name": "",
          "type": "uint256"
        }
      ],
      "payable": false,
      "stateMutability": "view",
      "type": "function"
    },
    {
      "constant": true,
      "inputs": [],
      "name": "totalNodeSupply",
      "outputs": [
        {
          "name": "",
          "type": "uint256"
        }
      ],
      "payable": false,
      "stateMutability": "view",
      "type": "function"
    },
    {
      "constant": true,
      "inputs": [],
      "name": "owner",
      "outputs": [
        {
          "name": "",
          "type": "address"
        }
      ],
      "payable": false,
      "stateMutability": "view",
      "type": "function"
    },
    {
      "constant": false,
      "inputs": [],
      "name": "construct",
      "outputs": [],
      "payable": false,
      "stateMutability": "nonpayable",
      "type": "function"
    },
    {
      "constant": true,
      "inputs": [],
      "name": "totalNodes",
      "outputs": [
        {
          "name": "",
          "type": "uint16"
        }
      ],
      "payable": false,
      "stateMutability": "view",
      "type": "function"
    },
    {
      "constant": true,
      "inputs": [],
      "name": "symbol",
      "outputs": [
        {
          "name": "",
          "type": "string"
        }
      ],
      "payable": false,
      "stateMutability": "view",
      "type": "function"
    },
    {
      "constant": true,
      "inputs": [],
      "name": "mostNodes",
      "outputs": [
        {
          "name": "",
          "type": "uint16"
        }
      ],
      "payable": false,
      "stateMutability": "view",
      "type": "function"
    },
    {
      "constant": true,
      "inputs": [],
      "name": "totalSuperNodes",
      "outputs": [
        {
          "name": "",
          "type": "uint16"
        }
      ],
      "payable": false,
      "stateMutability": "view",
      "type": "function"
    },
    {
      "constant": true,
      "inputs": [],
      "name": "totalUserSupply",
      "outputs": [
        {
          "name": "",
          "type": "uint256"
        }
      ],
      "payable": false,
      "stateMutability": "view",
      "type": "function"
    },
    {
      "constant": true,
      "inputs": [],
      "name": "ethFundDeposit",
      "outputs": [
        {
          "name": "",
          "type": "address"
        }
      ],
      "payable": false,
      "stateMutability": "view",
      "type": "function"
    },
    {
      "constant": false,
      "inputs": [
        {
          "name": "_to",
          "type": "address"
        },
        {
          "name": "_value",
          "type": "uint256"
        }
      ],
      "name": "transfer",
      "outputs": [
        {
          "name": "",
          "type": "bool"
        }
      ],
      "payable": false,
      "stateMutability": "nonpayable",
      "type": "function"
    },
    {
      "constant": true,
      "inputs": [],
      "name": "missionId",
      "outputs": [
        {
          "name": "",
          "type": "uint256"
        }
      ],
      "payable": false,
      "stateMutability": "view",
      "type": "function"
    },
    {
      "constant": true,
      "inputs": [],
      "name": "totalSupplyed",
      "outputs": [
        {
          "name": "",
          "type": "uint256"
        }
      ],
      "payable": false,
      "stateMutability": "view",
      "type": "function"
    },
    {
      "constant": true,
      "inputs": [],
      "name": "dealTime",
      "outputs": [
        {
          "name": "",
          "type": "uint256"
        }
      ],
      "payable": false,
      "stateMutability": "view",
      "type": "function"
    },
    {
      "constant": true,
      "inputs": [],
      "name": "less",
      "outputs": [
        {
          "name": "",
          "type": "uint16"
        }
      ],
      "payable": false,
      "stateMutability": "view",
      "type": "function"
    },
    {
      "constant": false,
      "inputs": [
        {
          "name": "_spender",
          "type": "address"
        },
        {
          "name": "_addedValue",
          "type": "uint256"
        }
      ],
      "name": "increaseApproval",
      "outputs": [
        {
          "name": "",
          "type": "bool"
        }
      ],
      "payable": false,
      "stateMutability": "nonpayable",
      "type": "function"
    },
    {
      "constant": true,
      "inputs": [],
      "name": "halfNodes",
      "outputs": [
        {
          "name": "",
          "type": "uint16"
        }
      ],
      "payable": false,
      "stateMutability": "view",
      "type": "function"
    },
    {
      "constant": true,
      "inputs": [],
      "name": "nodeSupplyed",
      "outputs": [
        {
          "name": "",
          "type": "uint256"
        }
      ],
      "payable": false,
      "stateMutability": "view",
      "type": "function"
    },
    {
      "constant": false,
      "inputs": [
        {
          "name": "_ethFundDeposit",
          "type": "address"
        }
      ],
      "name": "setEthFundDeposit",
      "outputs": [],
      "payable": false,
      "stateMutability": "nonpayable",
      "type": "function"
    },
    {
      "constant": true,
      "inputs": [
        {
          "name": "_owner",
          "type": "address"
        },
        {
          "name": "_spender",
          "type": "address"
        }
      ],
      "name": "allowance",
      "outputs": [
        {
          "name": "",
          "type": "uint256"
        }
      ],
      "payable": false,
      "stateMutability": "view",
      "type": "function"
    },
    {
      "constant": false,
      "inputs": [],
      "name": "transferETH",
      "outputs": [],
      "payable": false,
      "stateMutability": "nonpayable",
      "type": "function"
    },
    {
      "constant": true,
      "inputs": [],
      "name": "half",
      "outputs": [
        {
          "name": "",
          "type": "uint16"
        }
      ],
      "payable": false,
      "stateMutability": "view",
      "type": "function"
    },
    {
      "anonymous": false,
      "inputs": [
        {
          "indexed": false,
          "name": "_missionId",
          "type": "uint256"
        },
        {
          "indexed": false,
          "name": "_name",
          "type": "bytes32"
        }
      ],
      "name": "MissionPassed",
      "type": "event"
    },
    {
      "anonymous": false,
      "inputs": [
        {
          "indexed": false,
          "name": "_missionId",
          "type": "uint256"
        },
        {
          "indexed": false,
          "name": "_totalAmount",
          "type": "uint256"
        },
        {
          "indexed": false,
          "name": "_length",
          "type": "uint256"
        }
      ],
      "name": "OfferingFinished",
      "type": "event"
    },
    {
      "anonymous": false,
      "inputs": [
        {
          "indexed": false,
          "name": "_missionId",
          "type": "uint256"
        },
        {
          "indexed": false,
          "name": "_totalAmount",
          "type": "uint256"
        }
      ],
      "name": "RecycleTokens",
      "type": "event"
    },
    {
      "anonymous": false,
      "inputs": [
        {
          "indexed": false,
          "name": "_type",
          "type": "uint16"
        },
        {
          "indexed": false,
          "name": "_oldNode",
          "type": "address"
        },
        {
          "indexed": false,
          "name": "_newNode",
          "type": "address"
        }
      ],
      "name": "NodeChanged",
      "type": "event"
    },
    {
      "anonymous": false,
      "inputs": [
        {
          "indexed": false,
          "name": "_name",
          "type": "bytes32"
        },
        {
          "indexed": false,
          "name": "_missionId",
          "type": "uint256"
        },
        {
          "indexed": false,
          "name": "_whoLaunch",
          "type": "address"
        }
      ],
      "name": "MissionLaunched",
      "type": "event"
    },
    {
      "anonymous": false,
      "inputs": [
        {
          "indexed": true,
          "name": "burner",
          "type": "address"
        },
        {
          "indexed": false,
          "name": "value",
          "type": "uint256"
        }
      ],
      "name": "Burn",
      "type": "event"
    },
    {
      "anonymous": false,
      "inputs": [
        {
          "indexed": true,
          "name": "owner",
          "type": "address"
        },
        {
          "indexed": true,
          "name": "spender",
          "type": "address"
        },
        {
          "indexed": false,
          "name": "value",
          "type": "uint256"
        }
      ],
      "name": "Approval",
      "type": "event"
    },
    {
      "anonymous": false,
      "inputs": [
        {
          "indexed": true,
          "name": "from",
          "type": "address"
        },
        {
          "indexed": true,
          "name": "to",
          "type": "address"
        },
        {
          "indexed": false,
          "name": "value",
          "type": "uint256"
        }
      ],
      "name": "Transfer",
      "type": "event"
    },
    {
      "anonymous": false,
      "inputs": [
        {
          "indexed": true,
          "name": "previousOwner",
          "type": "address"
        },
        {
          "indexed": true,
          "name": "newOwner",
          "type": "address"
        }
      ],
      "name": "OwnershipTransferred",
      "type": "event"
    },
    {
      "constant": false,
      "inputs": [
        {
          "name": "superNodeAddress",
          "type": "address"
        }
      ],
      "name": "setSuperNode",
      "outputs": [],
      "payable": false,
      "stateMutability": "nonpayable",
      "type": "function"
    },
    {
      "constant": false,
      "inputs": [
        {
          "name": "nodeAddress",
          "type": "address"
        }
      ],
      "name": "setNode",
      "outputs": [],
      "payable": false,
      "stateMutability": "nonpayable",
      "type": "function"
    },
    {
      "constant": true,
      "inputs": [
        {
          "name": "_addr",
          "type": "address"
        }
      ],
      "name": "querySuperNode",
      "outputs": [
        {
          "name": "",
          "type": "bool"
        }
      ],
      "payable": false,
      "stateMutability": "view",
      "type": "function"
    },
    {
      "constant": true,
      "inputs": [
        {
          "name": "_addr",
          "type": "address"
        }
      ],
      "name": "queryNode",
      "outputs": [
        {
          "name": "",
          "type": "bool"
        }
      ],
      "payable": false,
      "stateMutability": "view",
      "type": "function"
    },
    {
      "constant": false,
      "inputs": [
        {
          "name": "_type",
          "type": "uint16"
        },
        {
          "name": "_name",
          "type": "bytes32"
        },
        {
          "name": "_totalAmount",
          "type": "uint256"
        },
        {
          "name": "_oldNode",
          "type": "address"
        },
        {
          "name": "_newNode",
          "type": "address"
        }
      ],
      "name": "createKolMission",
      "outputs": [],
      "payable": false,
      "stateMutability": "nonpayable",
      "type": "function"
    },
    {
      "constant": false,
      "inputs": [
        {
          "name": "_missionId",
          "type": "uint256"
        },
        {
          "name": "_target",
          "type": "address"
        },
        {
          "name": "_targetAmount",
          "type": "uint256"
        }
      ],
      "name": "addKolOffering",
      "outputs": [],
      "payable": false,
      "stateMutability": "nonpayable",
      "type": "function"
    },
    {
      "constant": false,
      "inputs": [
        {
          "name": "_type",
          "type": "uint16"
        },
        {
          "name": "_missionId",
          "type": "uint256"
        },
        {
          "name": "_agree",
          "type": "bool"
        }
      ],
      "name": "voteMission",
      "outputs": [],
      "payable": false,
      "stateMutability": "nonpayable",
      "type": "function"
    },
    {
      "constant": false,
      "inputs": [
        {
          "name": "_missionId",
          "type": "uint256"
        }
      ],
      "name": "excuteVote",
      "outputs": [],
      "payable": false,
      "stateMutability": "nonpayable",
      "type": "function"
    },
    {
      "constant": true,
      "inputs": [
        {
          "name": "_missionId",
          "type": "uint256"
        }
      ],
      "name": "getMission1",
      "outputs": [
        {
          "name": "",
          "type": "address"
        },
        {
          "name": "",
          "type": "address"
        },
        {
          "name": "",
          "type": "uint256"
        },
        {
          "name": "",
          "type": "uint256"
        },
        {
          "name": "",
          "type": "uint256"
        },
        {
          "name": "",
          "type": "uint256"
        },
        {
          "name": "",
          "type": "bytes32"
        }
      ],
      "payable": false,
      "stateMutability": "view",
      "type": "function"
    },
    {
      "constant": true,
      "inputs": [
        {
          "name": "_missionId",
          "type": "uint256"
        }
      ],
      "name": "getMission2",
      "outputs": [
        {
          "name": "",
          "type": "uint16"
        },
        {
          "name": "",
          "type": "uint16"
        },
        {
          "name": "",
          "type": "uint16"
        },
        {
          "name": "",
          "type": "uint16"
        },
        {
          "name": "",
          "type": "bool"
        },
        {
          "name": "",
          "type": "bool"
        },
        {
          "name": "",
          "type": "bool"
        }
      ],
      "payable": false,
      "stateMutability": "view",
      "type": "function"
    },
    {
      "constant": true,
      "inputs": [
        {
          "name": "_missionId",
          "type": "uint256"
        },
        {
          "name": "_id",
          "type": "uint256"
        }
      ],
      "name": "getOfferings",
      "outputs": [
        {
          "name": "",
          "type": "address"
        },
        {
          "name": "",
          "type": "uint256"
        },
        {
          "name": "",
          "type": "uint256"
        }
      ],
      "payable": false,
      "stateMutability": "view",
      "type": "function"
    },
    {
      "constant": true,
      "inputs": [
        {
          "name": "_node",
          "type": "address"
        },
        {
          "name": "_missionId",
          "type": "uint256"
        }
      ],
      "name": "voted",
      "outputs": [
        {
          "name": "",
          "type": "bool"
        }
      ],
      "payable": false,
      "stateMutability": "view",
      "type": "function"
    }
  ],
  "bytecode": "0x60806040526040805190810160405280601681526020017f4b4f4c20436f6d6d756e69747920416c6c69616e63650000000000000000000081525060039080519060200190620000519291906200011e565b506040805190810160405280600381526020017f4b4f4c0000000000000000000000000000000000000000000000000000000000815250600490805190602001906200009f9291906200011e565b5060126005556012600a0a6301406f4002600655600060075560006009556000600a556000600b556000600c556203f480600d556000600e55336000806101000a81548173ffffffffffffffffffffffffffffffffffffffff021916908373ffffffffffffffffffffffffffffffffffffffff160217905550620001cd565b828054600181600116156101000203166002900490600052602060002090601f016020900481019282601f106200016157805160ff191683800117855562000192565b8280016001018555821562000192579182015b828111156200019157825182559160200191906001019062000174565b5b509050620001a19190620001a5565b5090565b620001ca91905b80821115620001c6576000816000905550600101620001ac565b5090565b90565b6151d180620001dd6000396000f300608060405260043610610246576000357c0100000000000000000000000000000000000000000000000000000000900463ffffffff16806301424b2c1461024b57806306fdde0314610278578063095ea7b31461030857806318160ddd1461036d5780631e81862a1461039857806323b872dd146103db578063313ce5671461046057806335c31e141461048b57806349512214146104b65780635797654d146104e95780635883f0321461051c57806358d7889c146105a15780635b7f415c146105d457806366188463146105ff5780636bfa24ea1461066457806370a08231146106975780637291437c146106ee5780637db129871461074557806384312e721461077057806389df13a9146107b75780638a0a59d5146107e25780638da5cb5b1461080d57806394b91deb146108645780639592d4241461087b57806395d89b41146108ae5780639625e0fb1461093e57806399619fa6146109715780639eba02ff146109a4578063a81c3bdf146109cf578063a9059cbb14610a26578063ae5c12fc14610a8b578063af26b76214610b14578063b9f8c99714610b3f578063bac3098114610b6a578063bbc1a30014610bc5578063c21d5ab714610c5c578063c446b6de14610c9f578063c4a1dbad14610cca578063c591aa9814610d25578063d0b4237314610d8a578063d23db1cd14610dbd578063d73dd62314610e88578063d886ad4914610eed578063d88f111f14610f20578063d903744114610f4b578063dd62ed3e14610f8e578063e28d717b14611005578063f6a6462c1461101c575b600080fd5b34801561025757600080fd5b506102766004803603810190808035906020019092919050505061104f565b005b34801561028457600080fd5b5061028d6116c5565b6040518080602001828103825283818151815260200191508051906020019080838360005b838110156102cd5780820151818401526020810190506102b2565b50505050905090810190601f1680156102fa5780820380516001836020036101000a031916815260200191505b509250505060405180910390f35b34801561031457600080fd5b50610353600480360381019080803573ffffffffffffffffffffffffffffffffffffffff16906020019092919080359060200190929190505050611763565b604051808215151515815260200191505060405180910390f35b34801561037957600080fd5b50610382611855565b6040518082815260200191505060405180910390f35b3480156103a457600080fd5b506103d9600480360381019080803573ffffffffffffffffffffffffffffffffffffffff16906020019092919050505061185b565b005b3480156103e757600080fd5b50610446600480360381019080803573ffffffffffffffffffffffffffffffffffffffff169060200190929190803573ffffffffffffffffffffffffffffffffffffffff16906020019092919080359060200190929190505050611991565b604051808215151515815260200191505060405180910390f35b34801561046c57600080fd5b50610475611dad565b6040518082815260200191505060405180910390f35b34801561049757600080fd5b506104a0611db3565b6040518082815260200191505060405180910390f35b3480156104c257600080fd5b506104cb611db9565b604051808261ffff1661ffff16815260200191505060405180910390f35b3480156104f557600080fd5b506104fe611dbe565b604051808261ffff1661ffff16815260200191505060405180910390f35b34801561052857600080fd5b506105516004803603810190808035906020019092919080359060200190929190505050611dc3565b604051808473ffffffffffffffffffffffffffffffffffffffff1673ffffffffffffffffffffffffffffffffffffffff168152602001838152602001828152602001935050505060405180910390f35b3480156105ad57600080fd5b506105b6611e70565b604051808261ffff1661ffff16815260200191505060405180910390f35b3480156105e057600080fd5b506105e9611e75565b6040518082815260200191505060405180910390f35b34801561060b57600080fd5b5061064a600480360381019080803573ffffffffffffffffffffffffffffffffffffffff16906020019092919080359060200190929190505050611e7a565b604051808215151515815260200191505060405180910390f35b34801561067057600080fd5b5061067961210c565b604051808261ffff1661ffff16815260200191505060405180910390f35b3480156106a357600080fd5b506106d8600480360381019080803573ffffffffffffffffffffffffffffffffffffffff169060200190929190505050612111565b6040518082815260200191505060405180910390f35b3480156106fa57600080fd5b5061074360048036038101908080359060200190929190803573ffffffffffffffffffffffffffffffffffffffff1690602001909291908035906020019092919050505061215a565b005b34801561075157600080fd5b5061075a6124a6565b6040518082815260200191505060405180910390f35b34801561077c57600080fd5b506107b5600480360381019080803561ffff169060200190929190803590602001909291908035151590602001909291905050506124ac565b005b3480156107c357600080fd5b506107cc612ec9565b6040518082815260200191505060405180910390f35b3480156107ee57600080fd5b506107f7612ecf565b6040518082815260200191505060405180910390f35b34801561081957600080fd5b50610822612edc565b604051808273ffffffffffffffffffffffffffffffffffffffff1673ffffffffffffffffffffffffffffffffffffffff16815260200191505060405180910390f35b34801561087057600080fd5b50610879612f01565b005b34801561088757600080fd5b50610890612f44565b604051808261ffff1661ffff16815260200191505060405180910390f35b3480156108ba57600080fd5b506108c3612f4a565b6040518080602001828103825283818151815260200191508051906020019080838360005b838110156109035780820151818401526020810190506108e8565b50505050905090810190601f1680156109305780820380516001836020036101000a031916815260200191505b509250505060405180910390f35b34801561094a57600080fd5b50610953612fe8565b604051808261ffff1661ffff16815260200191505060405180910390f35b34801561097d57600080fd5b50610986612fee565b604051808261ffff1661ffff16815260200191505060405180910390f35b3480156109b057600080fd5b506109b9612ff3565b6040518082815260200191505060405180910390f35b3480156109db57600080fd5b506109e4613000565b604051808273ffffffffffffffffffffffffffffffffffffffff1673ffffffffffffffffffffffffffffffffffffffff16815260200191505060405180910390f35b348015610a3257600080fd5b50610a71600480360381019080803573ffffffffffffffffffffffffffffffffffffffff16906020019092919080359060200190929190505050613026565b604051808215151515815260200191505060405180910390f35b348015610a9757600080fd5b50610b12600480360381019080803561ffff169060200190929190803560001916906020019092919080359060200190929190803573ffffffffffffffffffffffffffffffffffffffff169060200190929190803573ffffffffffffffffffffffffffffffffffffffff1690602001909291905050506132a7565b005b348015610b2057600080fd5b50610b29613877565b6040518082815260200191505060405180910390f35b348015610b4b57600080fd5b50610b5461387d565b6040518082815260200191505060405180910390f35b348015610b7657600080fd5b50610bab600480360381019080803573ffffffffffffffffffffffffffffffffffffffff169060200190929190505050613883565b604051808215151515815260200191505060405180910390f35b348015610bd157600080fd5b50610bf0600480360381019080803590602001909291905050506138d9565b604051808861ffff1661ffff1681526020018761ffff1661ffff1681526020018661ffff1661ffff1681526020018561ffff1661ffff16815260200184151515158152602001831515151581526020018215151515815260200197505050505050505060405180910390f35b348015610c6857600080fd5b50610c9d600480360381019080803573ffffffffffffffffffffffffffffffffffffffff1690602001909291905050506139fd565b005b348015610cab57600080fd5b50610cb4613b34565b6040518082815260200191505060405180910390f35b348015610cd657600080fd5b50610d0b600480360381019080803573ffffffffffffffffffffffffffffffffffffffff169060200190929190505050613b3a565b604051808215151515815260200191505060405180910390f35b348015610d3157600080fd5b50610d70600480360381019080803573ffffffffffffffffffffffffffffffffffffffff16906020019092919080359060200190929190505050613b90565b604051808215151515815260200191505060405180910390f35b348015610d9657600080fd5b50610d9f613bf8565b604051808261ffff1661ffff16815260200191505060405180910390f35b348015610dc957600080fd5b50610de860048036038101908080359060200190929190505050613bfd565b604051808873ffffffffffffffffffffffffffffffffffffffff1673ffffffffffffffffffffffffffffffffffffffff1681526020018773ffffffffffffffffffffffffffffffffffffffff1673ffffffffffffffffffffffffffffffffffffffff168152602001868152602001858152602001848152602001838152602001826000191660001916815260200197505050505050505060405180910390f35b348015610e9457600080fd5b50610ed3600480360381019080803573ffffffffffffffffffffffffffffffffffffffff16906020019092919080359060200190929190505050613d02565b604051808215151515815260200191505060405180910390f35b348015610ef957600080fd5b50610f02613efe565b604051808261ffff1661ffff16815260200191505060405180910390f35b348015610f2c57600080fd5b50610f35613f03565b6040518082815260200191505060405180910390f35b348015610f5757600080fd5b50610f8c600480360381019080803573ffffffffffffffffffffffffffffffffffffffff169060200190929190505050613f09565b005b348015610f9a57600080fd5b50610fef600480360381019080803573ffffffffffffffffffffffffffffffffffffffff169060200190929190803573ffffffffffffffffffffffffffffffffffffffff169060200190929190505050613fe4565b6040518082815260200191505060405180910390f35b34801561101157600080fd5b5061101a61406b565b005b34801561102857600080fd5b506110316141c6565b604051808261ffff1661ffff16815260200191505060405180910390f35b60008060009054906101000a900473ffffffffffffffffffffffffffffffffffffffff1673ffffffffffffffffffffffffffffffffffffffff163373ffffffffffffffffffffffffffffffffffffffff161415156110ac57600080fd5b60126000838152602001908152602001600020600701600a9054906101000a900460ff161515156110dc57600080fd5b600d546012600084815260200190815260200160002060030154014210151561110457600080fd5b6012600083815260200190815260200160002060070160089054906101000a900460ff16151561113357600080fd5b6012600083815260200190815260200160002060070160099054906101000a900460ff16151561116257600080fd5b6012600083815260200190815260200160002060050154601260008481526020019081526020016000206004015414151561119c57600080fd5b6111c16012600a0a62f42400026012600a0a624c4b40026141cb90919063ffffffff16565b6111ec60075460126000868152602001908152602001600020600401546141cb90919063ffffffff16565b111515156111f957600080fd5b7f4352454154494f4e2049535355494e47000000000000000000000000000000006012600084815260200190815260200160002060060154600019161415611282576012600a0a624c4b400261127060126000858152602001908152602001600020600401546009546141cb90919063ffffffff16565b1115151561127d57600080fd5b6112c5565b6012600a0a62f42400026112b76012600085815260200190815260200160002060040154600a546141cb90919063ffffffff16565b111515156112c457600080fd5b5b600090505b6014600083815260200190815260200160002080549050811015611544576113bc601460008481526020019081526020016000208281548110151561130b57fe5b90600052602060002090600202016001015460016000601460008781526020019081526020016000208581548110151561134157fe5b906000526020600020906002020160000160009054906101000a900473ffffffffffffffffffffffffffffffffffffffff1673ffffffffffffffffffffffffffffffffffffffff1673ffffffffffffffffffffffffffffffffffffffff168152602001908152602001600020546141cb90919063ffffffff16565b6001600060146000868152602001908152602001600020848154811015156113e057fe5b906000526020600020906002020160000160009054906101000a900473ffffffffffffffffffffffffffffffffffffffff1673ffffffffffffffffffffffffffffffffffffffff1673ffffffffffffffffffffffffffffffffffffffff16815260200190815260200160002081905550601460008381526020019081526020016000208181548110151561147057fe5b906000526020600020906002020160000160009054906101000a900473ffffffffffffffffffffffffffffffffffffffff1673ffffffffffffffffffffffffffffffffffffffff163373ffffffffffffffffffffffffffffffffffffffff167fddf252ad1be2c89b69c2b068fc378daa952ba7f163c4a11628f55a4df523b3ef601460008681526020019081526020016000208481548110151561151057fe5b9060005260206000209060020201600101546040518082815260200191505060405180910390a380806001019150506112ca565b61156f60126000848152602001908152602001600020600401546007546141cb90919063ffffffff16565b6007819055507f4352454154494f4e2049535355494e470000000000000000000000000000000060126000848152602001908152602001600020600601546000191614156115ed576115e260126000848152602001908152602001600020600401546009546141cb90919063ffffffff16565b60098190555061161f565b6116186012600084815260200190815260200160002060040154600a546141cb90919063ffffffff16565b600a819055505b600160126000848152602001908152602001600020600701600a6101000a81548160ff0219169083151502179055507f1022a2c4ccad65760f1f251079912a70e8690dba3a6efc0e30332501a68092d5826012600085815260200190815260200160002060050154601460008681526020019081526020016000208054905060405180848152602001838152602001828152602001935050505060405180910390a15050565b60038054600181600116156101000203166002900480601f01602080910402602001604051908101604052809291908181526020018280546001816001161561010002031660029004801561175b5780601f106117305761010080835404028352916020019161175b565b820191906000526020600020905b81548152906001019060200180831161173e57829003601f168201915b505050505081565b600081600260003373ffffffffffffffffffffffffffffffffffffffff1673ffffffffffffffffffffffffffffffffffffffff16815260200190815260200160002060008573ffffffffffffffffffffffffffffffffffffffff1673ffffffffffffffffffffffffffffffffffffffff168152602001908152602001600020819055508273ffffffffffffffffffffffffffffffffffffffff163373ffffffffffffffffffffffffffffffffffffffff167f8c5be1e5ebec7d5bd14f71427d1e84f3dd0314c0f7b2291e5b200ac8c7c3b925846040518082815260200191505060405180910390a36001905092915050565b60065481565b6000809054906101000a900473ffffffffffffffffffffffffffffffffffffffff1673ffffffffffffffffffffffffffffffffffffffff163373ffffffffffffffffffffffffffffffffffffffff161415156118b657600080fd5b600f60008273ffffffffffffffffffffffffffffffffffffffff1673ffffffffffffffffffffffffffffffffffffffff16815260200190815260200160002060009054906101000a900460ff1615151561190f57600080fd5b601561ffff16600b5410151561192457600080fd5b6001600f60008373ffffffffffffffffffffffffffffffffffffffff1673ffffffffffffffffffffffffffffffffffffffff16815260200190815260200160002060006101000a81548160ff021916908315150217905550600b6000815480929190600101919050555050565b60008060009054906101000a900473ffffffffffffffffffffffffffffffffffffffff1673ffffffffffffffffffffffffffffffffffffffff168473ffffffffffffffffffffffffffffffffffffffff16141515156119ef57600080fd5b600160008573ffffffffffffffffffffffffffffffffffffffff1673ffffffffffffffffffffffffffffffffffffffff168152602001908152602001600020548211151515611a3d57600080fd5b600260008573ffffffffffffffffffffffffffffffffffffffff1673ffffffffffffffffffffffffffffffffffffffff16815260200190815260200160002060003373ffffffffffffffffffffffffffffffffffffffff1673ffffffffffffffffffffffffffffffffffffffff168152602001908152602001600020548211151515611ac857600080fd5b600073ffffffffffffffffffffffffffffffffffffffff168373ffffffffffffffffffffffffffffffffffffffff1614151515611b0457600080fd5b611b5682600160008773ffffffffffffffffffffffffffffffffffffffff1673ffffffffffffffffffffffffffffffffffffffff168152602001908152602001600020546141e790919063ffffffff16565b600160008673ffffffffffffffffffffffffffffffffffffffff1673ffffffffffffffffffffffffffffffffffffffff16815260200190815260200160002081905550611beb82600160008673ffffffffffffffffffffffffffffffffffffffff1673ffffffffffffffffffffffffffffffffffffffff168152602001908152602001600020546141cb90919063ffffffff16565b600160008573ffffffffffffffffffffffffffffffffffffffff1673ffffffffffffffffffffffffffffffffffffffff16815260200190815260200160002081905550611cbd82600260008773ffffffffffffffffffffffffffffffffffffffff1673ffffffffffffffffffffffffffffffffffffffff16815260200190815260200160002060003373ffffffffffffffffffffffffffffffffffffffff1673ffffffffffffffffffffffffffffffffffffffff168152602001908152602001600020546141e790919063ffffffff16565b600260008673ffffffffffffffffffffffffffffffffffffffff1673ffffffffffffffffffffffffffffffffffffffff16815260200190815260200160002060003373ffffffffffffffffffffffffffffffffffffffff1673ffffffffffffffffffffffffffffffffffffffff168152602001908152602001600020819055508273ffffffffffffffffffffffffffffffffffffffff168473ffffffffffffffffffffffffffffffffffffffff167fddf252ad1be2c89b69c2b068fc378daa952ba7f163c4a11628f55a4df523b3ef846040518082815260200191505060405180910390a3600190509392505050565b60055481565b600b5481565b606581565b600f81565b60008060006014600086815260200190815260200160002084815481101515611de857fe5b906000526020600020906002020160000160009054906101000a900473ffffffffffffffffffffffffffffffffffffffff166014600087815260200190815260200160002085815481101515611e3a57fe5b90600052602060002090600202016001015460146000888152602001908152602001600020805490509250925092509250925092565b604381565b601281565b600080600260003373ffffffffffffffffffffffffffffffffffffffff1673ffffffffffffffffffffffffffffffffffffffff16815260200190815260200160002060008573ffffffffffffffffffffffffffffffffffffffff1673ffffffffffffffffffffffffffffffffffffffff1681526020019081526020016000205490508083101515611f8c576000600260003373ffffffffffffffffffffffffffffffffffffffff1673ffffffffffffffffffffffffffffffffffffffff16815260200190815260200160002060008673ffffffffffffffffffffffffffffffffffffffff1673ffffffffffffffffffffffffffffffffffffffff16815260200190815260200160002081905550612020565b611f9f83826141e790919063ffffffff16565b600260003373ffffffffffffffffffffffffffffffffffffffff1673ffffffffffffffffffffffffffffffffffffffff16815260200190815260200160002060008673ffffffffffffffffffffffffffffffffffffffff1673ffffffffffffffffffffffffffffffffffffffff168152602001908152602001600020819055505b8373ffffffffffffffffffffffffffffffffffffffff163373ffffffffffffffffffffffffffffffffffffffff167f8c5be1e5ebec7d5bd14f71427d1e84f3dd0314c0f7b2291e5b200ac8c7c3b925600260003373ffffffffffffffffffffffffffffffffffffffff1673ffffffffffffffffffffffffffffffffffffffff16815260200190815260200160002060008873ffffffffffffffffffffffffffffffffffffffff1673ffffffffffffffffffffffffffffffffffffffff168152602001908152602001600020546040518082815260200191505060405180910390a3600191505092915050565b600b81565b6000600160008373ffffffffffffffffffffffffffffffffffffffff1673ffffffffffffffffffffffffffffffffffffffff168152602001908152602001600020549050919050565b600f60003373ffffffffffffffffffffffffffffffffffffffff1673ffffffffffffffffffffffffffffffffffffffff16815260200190815260200160002060009054906101000a900460ff16806121fb5750601060003373ffffffffffffffffffffffffffffffffffffffff1673ffffffffffffffffffffffffffffffffffffffff16815260200190815260200160002060009054906101000a900460ff165b151561220657600080fd5b6012600084815260200190815260200160002060070160089054906101000a900460ff16151561223557600080fd5b60126000848152602001908152602001600020600701600a9054906101000a900460ff1615151561226557600080fd5b7f4352454154494f4e2049535355494e4700000000000000000000000000000000601260008581526020019081526020016000206006015460001916141561235457601060008373ffffffffffffffffffffffffffffffffffffffff1673ffffffffffffffffffffffffffffffffffffffff16815260200190815260200160002060009054906101000a900460ff16806123485750600f60008373ffffffffffffffffffffffffffffffffffffffff1673ffffffffffffffffffffffffffffffffffffffff16815260200190815260200160002060009054906101000a900460ff165b151561235357600080fd5b5b60126000848152602001908152602001600020600401546123948260126000878152602001908152602001600020600501546141cb90919063ffffffff16565b111515156123a157600080fd5b6014600084815260200190815260200160002060408051908101604052808473ffffffffffffffffffffffffffffffffffffffff168152602001838152509080600181540180825580915050906001820390600052602060002090600202016000909192909190915060008201518160000160006101000a81548173ffffffffffffffffffffffffffffffffffffffff021916908373ffffffffffffffffffffffffffffffffffffffff160217905550602082015181600101555050506124878160126000868152602001908152602001600020600501546141cb90919063ffffffff16565b6012600085815260200190815260200160002060050181905550505050565b600c5481565b6000806000806000600f60003373ffffffffffffffffffffffffffffffffffffffff1673ffffffffffffffffffffffffffffffffffffffff16815260200190815260200160002060009054906101000a900460ff16806125555750601060003373ffffffffffffffffffffffffffffffffffffffff1673ffffffffffffffffffffffffffffffffffffffff16815260200190815260200160002060009054906101000a900460ff165b151561256057600080fd5b601160003373ffffffffffffffffffffffffffffffffffffffff1673ffffffffffffffffffffffffffffffffffffffff168152602001908152602001600020600088815260200190815260200160002060009054906101000a900460ff161515156125ca57600080fd5b60126000888152602001908152602001600020600701600a9054906101000a900460ff161515156125fa57600080fd5b60659450600f935060fb9250600b9150603390507f4348414e4745204f574e45520000000000000000000000000000000000000000601260008981526020019081526020016000206006015460001916141561266357604390506101f4945061014f92506127af565b7f4348414e4745204e4f444500000000000000000000000000000000000000000060126000898152602001908152602001600020600601546000191614156126b65760219050600f9350600b91506127ae565b7f4348414e4745205355504552204e4f4445000000000000000000000000000000601260008981526020019081526020016000206006015460001916141561270957602190506065945060fb92506127ad565b7f4352454154494f4e2049535355494e47000000000000000000000000000000006012600089815260200190815260200160002060060154600019161415612760576065945060fb9250600f9350600b91506127ac565b7f52454359434c4520544f4b454e2046524f4d204f574e4552000000000000000060126000898152602001908152602001600020600601546000191614156127ab576065945060fb92505b5b5b5b5b60018861ffff16141561281957600f60003373ffffffffffffffffffffffffffffffffffffffff1673ffffffffffffffffffffffffffffffffffffffff16815260200190815260200160002060009054906101000a900460ff16151561281457600080fd5b612880565b60028861ffff16141561287f57601060003373ffffffffffffffffffffffffffffffffffffffff1673ffffffffffffffffffffffffffffffffffffffff16815260200190815260200160002060009054906101000a900460ff16151561287e57600080fd5b5b5b6012600088815260200190815260200160002060030154421115612b0b5760018861ffff1614156129d8578361ffff166012600089815260200190815260200160002060070160069054906101000a900461ffff16601260008a815260200190815260200160002060070160049054906101000a900461ffff160161ffff16101580156129955750606481601260008a815260200190815260200160002060070160069054906101000a900461ffff16601260008b815260200190815260200160002060070160049054906101000a900461ffff16010261ffff1681151561296457fe5b0461ffff166012600089815260200190815260200160002060070160049054906101000a900461ffff1661ffff1610155b156129d35760016012600089815260200190815260200160002060070160086101000a81548160ff0219169083151502179055506129d287614200565b5b612b06565b60028861ffff161415612b05578461ffff166012600089815260200190815260200160002060070160029054906101000a900461ffff16601260008a815260200190815260200160002060070160009054906101000a900461ffff160161ffff1610158015612acf5750606481601260008a815260200190815260200160002060070160029054906101000a900461ffff16601260008b815260200190815260200160002060070160029054906101000a900461ffff16010261ffff16811515612a9e57fe5b0461ffff166012600089815260200190815260200160002060070160009054906101000a900461ffff1661ffff1610155b15612b045760016012600089815260200190815260200160002060070160096101000a81548160ff0219169083151502179055505b5b5b612e4d565b600115158615151415612bd05760018861ffff161415612b735760126000888152602001908152602001600020600701600481819054906101000a900461ffff168092919060010191906101000a81548161ffff021916908361ffff16021790555050612bcb565b60028861ffff161415612bca5760126000888152602001908152602001600020600701600081819054906101000a900461ffff168092919060010191906101000a81548161ffff021916908361ffff160217905550505b5b612c84565b60018861ffff161415612c2b5760126000888152602001908152602001600020600701600681819054906101000a900461ffff168092919060010191906101000a81548161ffff021916908361ffff16021790555050612c83565b60028861ffff161415612c825760126000888152602001908152602001600020600701600281819054906101000a900461ffff168092919060010191906101000a81548161ffff021916908361ffff160217905550505b5b5b60018861ffff161415612d6e578161ffff166012600089815260200190815260200160002060070160049054906101000a900461ffff1661ffff16101515612d035760016012600089815260200190815260200160002060070160086101000a81548160ff021916908315150217905550612cfe87614200565b612d69565b8161ffff166012600089815260200190815260200160002060070160069054906101000a900461ffff1661ffff16101515612d6857600160126000898152602001908152602001600020600701600a6101000a81548160ff0219169083151502179055505b5b612e4c565b60028861ffff161415612e4b578261ffff166012600089815260200190815260200160002060070160009054906101000a900461ffff1661ffff16101515612de45760016012600089815260200190815260200160002060070160096101000a81548160ff021916908315150217905550612e4a565b8261ffff166012600089815260200190815260200160002060070160029054906101000a900461ffff1661ffff16101515612e4957600160126000898152602001908152602001600020600701600a6101000a81548160ff0219169083151502179055505b5b5b5b5b6001601160003373ffffffffffffffffffffffffffffffffffffffff1673ffffffffffffffffffffffffffffffffffffffff168152602001908152602001600020600089815260200190815260200160002060006101000a81548160ff021916908315150217905550612ebf87614376565b5050505050505050565b600a5481565b6012600a0a624c4b400281565b6000809054906101000a900473ffffffffffffffffffffffffffffffffffffffff1681565b33600860006101000a81548173ffffffffffffffffffffffffffffffffffffffff021916908373ffffffffffffffffffffffffffffffffffffffff160217905550565b6101f481565b60048054600181600116156101000203166002900480601f016020809104026020016040519081016040528092919081815260200182805460018160011615610100020316600290048015612fe05780601f10612fb557610100808354040283529160200191612fe0565b820191906000526020600020905b815481529060010190602001808311612fc357829003601f168201915b505050505081565b61014f81565b601581565b6012600a0a62f424000281565b600860009054906101000a900473ffffffffffffffffffffffffffffffffffffffff1681565b60008060009054906101000a900473ffffffffffffffffffffffffffffffffffffffff1673ffffffffffffffffffffffffffffffffffffffff163373ffffffffffffffffffffffffffffffffffffffff161415151561308457600080fd5b600160003373ffffffffffffffffffffffffffffffffffffffff1673ffffffffffffffffffffffffffffffffffffffff1681526020019081526020016000205482111515156130d257600080fd5b600073ffffffffffffffffffffffffffffffffffffffff168373ffffffffffffffffffffffffffffffffffffffff161415151561310e57600080fd5b61316082600160003373ffffffffffffffffffffffffffffffffffffffff1673ffffffffffffffffffffffffffffffffffffffff168152602001908152602001600020546141e790919063ffffffff16565b600160003373ffffffffffffffffffffffffffffffffffffffff1673ffffffffffffffffffffffffffffffffffffffff168152602001908152602001600020819055506131f582600160008673ffffffffffffffffffffffffffffffffffffffff1673ffffffffffffffffffffffffffffffffffffffff168152602001908152602001600020546141cb90919063ffffffff16565b600160008573ffffffffffffffffffffffffffffffffffffffff1673ffffffffffffffffffffffffffffffffffffffff168152602001908152602001600020819055508273ffffffffffffffffffffffffffffffffffffffff163373ffffffffffffffffffffffffffffffffffffffff167fddf252ad1be2c89b69c2b068fc378daa952ba7f163c4a11628f55a4df523b3ef846040518082815260200191505060405180910390a36001905092915050565b6000600f60003373ffffffffffffffffffffffffffffffffffffffff1673ffffffffffffffffffffffffffffffffffffffff16815260200190815260200160002060009054906101000a900460ff168061334a5750601060003373ffffffffffffffffffffffffffffffffffffffff1673ffffffffffffffffffffffffffffffffffffffff16815260200190815260200160002060009054906101000a900460ff165b151561335557600080fd5b84905060028661ffff1614156133e557600f60003373ffffffffffffffffffffffffffffffffffffffff1673ffffffffffffffffffffffffffffffffffffffff16815260200190815260200160002060009054906101000a900460ff1615156133bd57600080fd5b7f4348414e4745204e4f4445000000000000000000000000000000000000000000905061355c565b60038661ffff16141561341a577f4348414e4745204f574e45520000000000000000000000000000000000000000905061355b565b60018661ffff1614156134a757601060003373ffffffffffffffffffffffffffffffffffffffff1673ffffffffffffffffffffffffffffffffffffffff16815260200190815260200160002060009054906101000a900460ff16151561347f57600080fd5b7f4348414e4745205355504552204e4f4445000000000000000000000000000000905061355a565b60048661ffff1614156134d5576012600a0a62f4240002600a548501111515156134d057600080fd5b613559565b60068661ffff161415613526576012600a0a624c4b40026009548501111515156134fe57600080fd5b7f4352454154494f4e2049535355494e47000000000000000000000000000000009050613558565b60078661ffff161415613557577f52454359434c4520544f4b454e2046524f4d204f574e4552000000000000000090505b5b5b5b5b5b6101c0604051908101604052808473ffffffffffffffffffffffffffffffffffffffff1681526020018373ffffffffffffffffffffffffffffffffffffffff168152602001428152602001600d54420181526020018581526020016000815260200182600019168152602001600061ffff168152602001600061ffff168152602001600061ffff168152602001600061ffff1681526020016000151581526020016000151581526020016000151581525060126000600e54815260200190815260200160002060008201518160000160006101000a81548173ffffffffffffffffffffffffffffffffffffffff021916908373ffffffffffffffffffffffffffffffffffffffff16021790555060208201518160010160006101000a81548173ffffffffffffffffffffffffffffffffffffffff021916908373ffffffffffffffffffffffffffffffffffffffff16021790555060408201518160020155606082015181600301556080820151816004015560a0820151816005015560c0820151816006019060001916905560e08201518160070160006101000a81548161ffff021916908361ffff1602179055506101008201518160070160026101000a81548161ffff021916908361ffff1602179055506101208201518160070160046101000a81548161ffff021916908361ffff1602179055506101408201518160070160066101000a81548161ffff021916908361ffff1602179055506101608201518160070160086101000a81548160ff0219169083151502179055506101808201518160070160096101000a81548160ff0219169083151502179055506101a082015181600701600a6101000a81548160ff021916908315150217905550905050600e600081548092919060010191905055507fc96853e9a347a4993a1ab1a2f1f683db63a40fab5e2ce45e29c81b5149c58e46816001600e5403336040518084600019166000191681526020018381526020018273ffffffffffffffffffffffffffffffffffffffff1673ffffffffffffffffffffffffffffffffffffffff168152602001935050505060405180910390a1505050505050565b600e5481565b60075481565b6000601060008373ffffffffffffffffffffffffffffffffffffffff1673ffffffffffffffffffffffffffffffffffffffff16815260200190815260200160002060009054906101000a900460ff169050919050565b60008060008060008060006012600089815260200190815260200160002060070160009054906101000a900461ffff16601260008a815260200190815260200160002060070160029054906101000a900461ffff16601260008b815260200190815260200160002060070160049054906101000a900461ffff16601260008c815260200190815260200160002060070160069054906101000a900461ffff16601260008d815260200190815260200160002060070160089054906101000a900460ff16601260008e815260200190815260200160002060070160099054906101000a900460ff16601260008f8152602001908152602001600020600701600a9054906101000a900460ff169650965096509650965096509650919395979092949650565b6000809054906101000a900473ffffffffffffffffffffffffffffffffffffffff1673ffffffffffffffffffffffffffffffffffffffff163373ffffffffffffffffffffffffffffffffffffffff16141515613a5857600080fd5b601060008273ffffffffffffffffffffffffffffffffffffffff1673ffffffffffffffffffffffffffffffffffffffff16815260200190815260200160002060009054906101000a900460ff16151515613ab157600080fd5b6101f461ffff16600c54101515613ac757600080fd5b6001601060008373ffffffffffffffffffffffffffffffffffffffff1673ffffffffffffffffffffffffffffffffffffffff16815260200190815260200160002060006101000a81548160ff021916908315150217905550600c6000815480929190600101919050555050565b600d5481565b6000600f60008373ffffffffffffffffffffffffffffffffffffffff1673ffffffffffffffffffffffffffffffffffffffff16815260200190815260200160002060009054906101000a900460ff169050919050565b6000601160008473ffffffffffffffffffffffffffffffffffffffff1673ffffffffffffffffffffffffffffffffffffffff168152602001908152602001600020600083815260200190815260200160002060009054906101000a900460ff16905092915050565b602181565b60008060008060008060006012600089815260200190815260200160002060000160009054906101000a900473ffffffffffffffffffffffffffffffffffffffff16601260008a815260200190815260200160002060010160009054906101000a900473ffffffffffffffffffffffffffffffffffffffff16601260008b815260200190815260200160002060020154601260008c815260200190815260200160002060030154601260008d815260200190815260200160002060040154601260008e815260200190815260200160002060050154601260008f8152602001908152602001600020600601549650965096509650965096509650919395979092949650565b6000613d9382600260003373ffffffffffffffffffffffffffffffffffffffff1673ffffffffffffffffffffffffffffffffffffffff16815260200190815260200160002060008673ffffffffffffffffffffffffffffffffffffffff1673ffffffffffffffffffffffffffffffffffffffff168152602001908152602001600020546141cb90919063ffffffff16565b600260003373ffffffffffffffffffffffffffffffffffffffff1673ffffffffffffffffffffffffffffffffffffffff16815260200190815260200160002060008573ffffffffffffffffffffffffffffffffffffffff1673ffffffffffffffffffffffffffffffffffffffff168152602001908152602001600020819055508273ffffffffffffffffffffffffffffffffffffffff163373ffffffffffffffffffffffffffffffffffffffff167f8c5be1e5ebec7d5bd14f71427d1e84f3dd0314c0f7b2291e5b200ac8c7c3b925600260003373ffffffffffffffffffffffffffffffffffffffff1673ffffffffffffffffffffffffffffffffffffffff16815260200190815260200160002060008773ffffffffffffffffffffffffffffffffffffffff1673ffffffffffffffffffffffffffffffffffffffff168152602001908152602001600020546040518082815260200191505060405180910390a36001905092915050565b60fb81565b60095481565b6000809054906101000a900473ffffffffffffffffffffffffffffffffffffffff1673ffffffffffffffffffffffffffffffffffffffff163373ffffffffffffffffffffffffffffffffffffffff16141515613f6457600080fd5b600073ffffffffffffffffffffffffffffffffffffffff168173ffffffffffffffffffffffffffffffffffffffff1614151515613fa057600080fd5b80600860006101000a81548173ffffffffffffffffffffffffffffffffffffffff021916908373ffffffffffffffffffffffffffffffffffffffff16021790555050565b6000600260008473ffffffffffffffffffffffffffffffffffffffff1673ffffffffffffffffffffffffffffffffffffffff16815260200190815260200160002060008373ffffffffffffffffffffffffffffffffffffffff1673ffffffffffffffffffffffffffffffffffffffff16815260200190815260200160002054905092915050565b6000809054906101000a900473ffffffffffffffffffffffffffffffffffffffff1673ffffffffffffffffffffffffffffffffffffffff163373ffffffffffffffffffffffffffffffffffffffff161415156140c657600080fd5b600073ffffffffffffffffffffffffffffffffffffffff16600860009054906101000a900473ffffffffffffffffffffffffffffffffffffffff1673ffffffffffffffffffffffffffffffffffffffff161415151561412457600080fd5b60003073ffffffffffffffffffffffffffffffffffffffff16311415151561414b57600080fd5b600860009054906101000a900473ffffffffffffffffffffffffffffffffffffffff1673ffffffffffffffffffffffffffffffffffffffff166108fc3073ffffffffffffffffffffffffffffffffffffffff16319081150290604051600060405180830381858888f1935050505015156141c457600080fd5b565b603381565b600081830190508281101515156141de57fe5b80905092915050565b60008282111515156141f557fe5b818303905092915050565b7f4348414e4745205355504552204e4f44450000000000000000000000000000006012600083815260200190815260200160002060060154600019161415801561428457507f4348414e4745204e4f444500000000000000000000000000000000000000000060126000838152602001908152602001600020600601546000191614155b80156142ca57507f4348414e4745204f574e4552000000000000000000000000000000000000000060126000838152602001908152602001600020600601546000191614155b801561431057507f52454359434c4520544f4b454e2046524f4d204f574e4552000000000000000060126000838152602001908152602001600020600601546000191614155b15614373577f3aa94a81513bec2a88fbe53be130cc208c447c9914b300256c34c95ed7d5d8ab8160126000848152602001908152602001600020600601546040518083815260200182600019166000191681526020019250505060405180910390a15b50565b7f4348414e4745204e4f44450000000000000000000000000000000000000000006012600083815260200190815260200160002060060154600019161480156143df57506012600082815260200190815260200160002060070160089054906101000a900460ff165b1561476157601060006012600084815260200190815260200160002060000160009054906101000a900473ffffffffffffffffffffffffffffffffffffffff1673ffffffffffffffffffffffffffffffffffffffff1673ffffffffffffffffffffffffffffffffffffffff16815260200190815260200160002060009054906101000a900460ff16151561447257600080fd5b600f60006012600084815260200190815260200160002060010160009054906101000a900473ffffffffffffffffffffffffffffffffffffffff1673ffffffffffffffffffffffffffffffffffffffff1673ffffffffffffffffffffffffffffffffffffffff16815260200190815260200160002060009054906101000a900460ff1615151561450157600080fd5b6000601060006012600085815260200190815260200160002060000160009054906101000a900473ffffffffffffffffffffffffffffffffffffffff1673ffffffffffffffffffffffffffffffffffffffff1673ffffffffffffffffffffffffffffffffffffffff16815260200190815260200160002060006101000a81548160ff0219169083151502179055506001601060006012600085815260200190815260200160002060010160009054906101000a900473ffffffffffffffffffffffffffffffffffffffff1673ffffffffffffffffffffffffffffffffffffffff1673ffffffffffffffffffffffffffffffffffffffff16815260200190815260200160002060006101000a81548160ff021916908315150217905550600160126000838152602001908152602001600020600701600a6101000a81548160ff0219169083151502179055507f2fec96f7509500b10857cfc0f8b8a6fe8ad1d6380276b897f72eb91a0a79e0c060026012600084815260200190815260200160002060000160009054906101000a900473ffffffffffffffffffffffffffffffffffffffff166012600085815260200190815260200160002060010160009054906101000a900473ffffffffffffffffffffffffffffffffffffffff16604051808461ffff1681526020018373ffffffffffffffffffffffffffffffffffffffff1673ffffffffffffffffffffffffffffffffffffffff1681526020018273ffffffffffffffffffffffffffffffffffffffff1673ffffffffffffffffffffffffffffffffffffffff168152602001935050505060405180910390a1614e3d565b7f4348414e4745205355504552204e4f44450000000000000000000000000000006012600083815260200190815260200160002060060154600019161480156147ca57506012600082815260200190815260200160002060070160099054906101000a900460ff165b15614b4c57600f60006012600084815260200190815260200160002060000160009054906101000a900473ffffffffffffffffffffffffffffffffffffffff1673ffffffffffffffffffffffffffffffffffffffff1673ffffffffffffffffffffffffffffffffffffffff16815260200190815260200160002060009054906101000a900460ff16151561485d57600080fd5b600f60006012600084815260200190815260200160002060010160009054906101000a900473ffffffffffffffffffffffffffffffffffffffff1673ffffffffffffffffffffffffffffffffffffffff1673ffffffffffffffffffffffffffffffffffffffff16815260200190815260200160002060009054906101000a900460ff161515156148ec57600080fd5b6000600f60006012600085815260200190815260200160002060000160009054906101000a900473ffffffffffffffffffffffffffffffffffffffff1673ffffffffffffffffffffffffffffffffffffffff1673ffffffffffffffffffffffffffffffffffffffff16815260200190815260200160002060006101000a81548160ff0219169083151502179055506001600f60006012600085815260200190815260200160002060010160009054906101000a900473ffffffffffffffffffffffffffffffffffffffff1673ffffffffffffffffffffffffffffffffffffffff1673ffffffffffffffffffffffffffffffffffffffff16815260200190815260200160002060006101000a81548160ff021916908315150217905550600160126000838152602001908152602001600020600701600a6101000a81548160ff0219169083151502179055507f2fec96f7509500b10857cfc0f8b8a6fe8ad1d6380276b897f72eb91a0a79e0c060016012600084815260200190815260200160002060000160009054906101000a900473ffffffffffffffffffffffffffffffffffffffff166012600085815260200190815260200160002060010160009054906101000a900473ffffffffffffffffffffffffffffffffffffffff16604051808461ffff1681526020018373ffffffffffffffffffffffffffffffffffffffff1673ffffffffffffffffffffffffffffffffffffffff1681526020018273ffffffffffffffffffffffffffffffffffffffff1673ffffffffffffffffffffffffffffffffffffffff168152602001935050505060405180910390a1614e3c565b7f4348414e4745204f574e45520000000000000000000000000000000000000000601260008381526020019081526020016000206006015460001916148015614bb557506012600082815260200190815260200160002060070160099054906101000a900460ff165b15614d28577f2fec96f7509500b10857cfc0f8b8a6fe8ad1d6380276b897f72eb91a0a79e0c060036000809054906101000a900473ffffffffffffffffffffffffffffffffffffffff166012600085815260200190815260200160002060010160009054906101000a900473ffffffffffffffffffffffffffffffffffffffff16604051808461ffff1681526020018373ffffffffffffffffffffffffffffffffffffffff1673ffffffffffffffffffffffffffffffffffffffff1681526020018273ffffffffffffffffffffffffffffffffffffffff1673ffffffffffffffffffffffffffffffffffffffff168152602001935050505060405180910390a1614cf46012600083815260200190815260200160002060010160009054906101000a900473ffffffffffffffffffffffffffffffffffffffff16614e40565b600160126000838152602001908152602001600020600701600a6101000a81548160ff021916908315150217905550614e3b565b7f52454359434c4520544f4b454e2046524f4d204f574e45520000000000000000601260008381526020019081526020016000206006015460001916148015614d9157506012600082815260200190815260200160002060070160099054906101000a900460ff165b15614e3a57614db56012600083815260200190815260200160002060040154614f3a565b7f2a5f91af01292d01793d956cecd32d065c3732c93d895036a09a0df0e967c80d816012600084815260200190815260200160002060040154604051808381526020018281526020019250505060405180910390a1600160126000838152602001908152602001600020600701600a6101000a81548160ff0219169083151502179055505b5b5b5b50565b600073ffffffffffffffffffffffffffffffffffffffff168173ffffffffffffffffffffffffffffffffffffffff1614151515614e7c57600080fd5b8073ffffffffffffffffffffffffffffffffffffffff166000809054906101000a900473ffffffffffffffffffffffffffffffffffffffff1673ffffffffffffffffffffffffffffffffffffffff167f8be0079c531659141344cd1fd0a4f28419497f9722a3daafe3b4186f6b6457e060405160405180910390a3806000806101000a81548173ffffffffffffffffffffffffffffffffffffffff021916908373ffffffffffffffffffffffffffffffffffffffff16021790555050565b600160008060009054906101000a900473ffffffffffffffffffffffffffffffffffffffff1673ffffffffffffffffffffffffffffffffffffffff1673ffffffffffffffffffffffffffffffffffffffff168152602001908152602001600020548111151515614fa957600080fd5b6006548111151515614fba57600080fd5b61502d81600160008060009054906101000a900473ffffffffffffffffffffffffffffffffffffffff1673ffffffffffffffffffffffffffffffffffffffff1673ffffffffffffffffffffffffffffffffffffffff168152602001908152602001600020546141e790919063ffffffff16565b600160008060009054906101000a900473ffffffffffffffffffffffffffffffffffffffff1673ffffffffffffffffffffffffffffffffffffffff1673ffffffffffffffffffffffffffffffffffffffff168152602001908152602001600020819055506150a6816006546141e790919063ffffffff16565b6006819055506000809054906101000a900473ffffffffffffffffffffffffffffffffffffffff1673ffffffffffffffffffffffffffffffffffffffff167fcc16f5dbb4873280815c1ee09dbd06736cffcc184412cf7a71a0fdb75d397ca5826040518082815260200191505060405180910390a2600073ffffffffffffffffffffffffffffffffffffffff166000809054906101000a900473ffffffffffffffffffffffffffffffffffffffff1673ffffffffffffffffffffffffffffffffffffffff167fddf252ad1be2c89b69c2b068fc378daa952ba7f163c4a11628f55a4df523b3ef836040518082815260200191505060405180910390a3505600a165627a7a72305820c21262855e28379ef9cb8a3a9935c6830d146ab858ea75480b37f78a8067517e0029",
  "source": "pragma solidity ^0.4.23;\n/*\n *                   \n *                      KOL Community Foundation      \n *                      \n *                        \n *         \n *    Dev:Jack Koe  Special for: KOL   20200106   \n *        \n */\n\nlibrary SafeMath {\n\n  function mul(uint256 _a, uint256 _b) internal pure returns (uint256 c) {\n    if (_a == 0) {\n      return 0;\n    }\n    c = _a * _b;\n    assert(c / _a == _b);\n    return c;\n  }\n  function div(uint256 _a, uint256 _b) internal pure returns (uint256) {\n    return _a / _b;\n  }\n  function sub(uint256 _a, uint256 _b) internal pure returns (uint256) {\n    assert(_b <= _a);\n    return _a - _b;\n  }\n  function add(uint256 _a, uint256 _b) internal pure returns (uint256 c) {\n    c = _a + _b;\n    assert(c >= _a);\n    return c;\n  }\n}\n\ncontract Ownable {\n\n  address public owner;\n  event OwnershipTransferred(\n    address indexed previousOwner,\n    address indexed newOwner\n  );\n  constructor() public {\n    owner = msg.sender;\n  }\n  modifier onlyOwner() {\n    require(msg.sender == owner);\n    _;\n  }\n  function _transferOwnership(address _newOwner) internal {\n    require(_newOwner != address(0));\n    emit OwnershipTransferred(owner, _newOwner);\n    owner = _newOwner;\n  }\n}\n\ncontract ERC20Basic {\n  function balanceOf(address _who) public view returns (uint256);\n  function transfer(address _to, uint256 _value) public returns (bool);\n  event Transfer(address indexed from, address indexed to, uint256 value);\n}\n\ncontract ERC20 is ERC20Basic {\n  function allowance(address _owner, address _spender)\n    public view returns (uint256);\n\n  function transferFrom(address _from, address _to, uint256 _value)\n    public returns (bool);\n\n  function approve(address _spender, uint256 _value) public returns (bool);\n  event Approval(\n    address indexed owner,\n    address indexed spender,\n    uint256 value\n  );\n}\n\ncontract BasicToken is Ownable,ERC20Basic {\n  using SafeMath for uint256;\n\n  mapping(address => uint256) internal balances;\n\n  function transfer(address _to, uint256 _value) public returns (bool) {\n    require(msg.sender != owner);\n    require(_value <= balances[msg.sender]);\n    require(_to != address(0));\n\n    balances[msg.sender] = balances[msg.sender].sub(_value);\n    balances[_to] = balances[_to].add(_value);\n    emit Transfer(msg.sender, _to, _value);\n    return true;\n  }\n  function balanceOf(address _owner) public view returns (uint256) {\n    return balances[_owner];\n  }\n}\n\ncontract StandardToken is ERC20, BasicToken {\n\n  mapping (address => mapping (address => uint256)) internal allowed;\n\n  function transferFrom(\n    address _from,\n    address _to,\n    uint256 _value\n  )\n    public\n    returns (bool)\n  {\n    require(_from != owner);\n    require(_value <= balances[_from]);\n    require(_value <= allowed[_from][msg.sender]);\n    require(_to != address(0));\n\n    balances[_from] = balances[_from].sub(_value);\n    balances[_to] = balances[_to].add(_value);\n    allowed[_from][msg.sender] = allowed[_from][msg.sender].sub(_value);\n    emit Transfer(_from, _to, _value);\n    return true;\n  }\n  function approve(address _spender, uint256 _value) public returns (bool) {\n    allowed[msg.sender][_spender] = _value;\n    emit Approval(msg.sender, _spender, _value);\n    return true;\n  }\n  function allowance(\n    address _owner,\n    address _spender\n   )\n    public\n    view\n    returns (uint256)\n  {\n    return allowed[_owner][_spender];\n  }\n\n  function increaseApproval(\n    address _spender,\n    uint256 _addedValue\n  )\n    public\n    returns (bool)\n  {\n    allowed[msg.sender][_spender] = (\n      allowed[msg.sender][_spender].add(_addedValue));\n    emit Approval(msg.sender, _spender, allowed[msg.sender][_spender]);\n    return true;\n  }\n\n  function decreaseApproval(\n    address _spender,\n    uint256 _subtractedValue\n  )\n    public\n    returns (bool)\n  {\n    uint256 oldValue = allowed[msg.sender][_spender];\n    if (_subtractedValue >= oldValue) {\n      allowed[msg.sender][_spender] = 0;\n    } else {\n      allowed[msg.sender][_spender] = oldValue.sub(_subtractedValue);\n    }\n    emit Approval(msg.sender, _spender, allowed[msg.sender][_spender]);\n    return true;\n  }\n\n}\n\ncontract KOL is StandardToken{\n    using SafeMath for uint256;\n\n    uint256 public constant TOKEN_DECIMALS = 18;\n\n    string public name = \"KOL Community Alliance\";\n    string public symbol = \"KOL\";\n    uint256 public decimals = TOKEN_DECIMALS;\n    uint256 public totalSupply = 21000000 *(10**uint256(TOKEN_DECIMALS));\n\n    uint256 public totalSupplyed = 0;\n    address public ethFundDeposit;\n\n\n    uint16 public constant totalSuperNodes = 21;\n    uint16 public constant totalNodes = 500;\n    uint16 public constant halfSuperNodes = 11;\n    uint16 public constant mostNodes = 335;\n    uint16 public constant halfNodes = 251;\n    uint16 public constant minSuperNodes = 15;\n    uint16 public constant minNodes = 101;\n\n    uint16 public constant most = 67;\n    uint16 public constant half = 51;\n    uint16 public constant less = 33;\n\n    function construct() public {\n        ethFundDeposit = msg.sender;\n    }\n    function setEthFundDeposit(address _ethFundDeposit) onlyOwner public {\n        require(_ethFundDeposit != address(0));\n        ethFundDeposit = _ethFundDeposit;\n    }\n\n    function transferETH() onlyOwner public {\n        require(ethFundDeposit != address(0));\n        require(address(this).balance != 0);\n        require(ethFundDeposit.send(address(this).balance));\n    }\n    function isOwner() internal view returns(bool success) {\n        if (msg.sender == owner) return true;\n        return false;\n    }\n}\n\ncontract KOLVote is KOL {\n\n    uint256 public constant totalNodeSupply = 5000000 *(10**uint256(TOKEN_DECIMALS));\n    uint256 public constant totalUserSupply = 16000000 *(10**uint256(TOKEN_DECIMALS));\n    uint256 public nodeSupplyed = 0;\n    uint256 public userSupplyed = 0;\n\n    uint256 public superNodesNum = 0;\n    uint256 public nodesNum = 0;\n    uint256 public dealTime =  3 days;\n    uint256 public missionId = 0;\n\n    mapping(address => bool) private isSuperNode;\n    mapping(address => bool) private isNode;\n    mapping(address => mapping(uint256 => bool)) private Voter;\n\n\n    event MissionPassed(uint256 _missionId,bytes32 _name);\n    event OfferingFinished(uint256 _missionId,uint256 _totalAmount,uint256 _length);\n    event RecycleTokens(uint256 _missionId,uint256 _totalAmount);\n    event NodeChanged(uint16 _type,address _oldNode,address _newNode);\n    event MissionLaunched(bytes32 _name,uint256 _missionId,address _whoLaunch);\n    event Burn(address indexed burner, uint256 value);\n\n    function burn(uint256 _value) internal {\n      require(_value <= balances[owner]);\n      require(_value <= totalSupply);\n      balances[owner] = balances[owner].sub(_value);\n      totalSupply = totalSupply.sub(_value);\n      emit Burn(owner, _value);\n      emit Transfer(owner, address(0), _value);\n    }\n\n    modifier onlySuperNode() {\n      require(isSuperNode[msg.sender]);\n        _;\n    }\n    modifier onlyNode() {\n        require(isNode[msg.sender]);\n        _;\n    }\n    modifier onlyNodes() {\n        require(isSuperNode[msg.sender]||isNode[msg.sender]);\n        _;\n    }\n\n    function setSuperNode(address superNodeAddress) onlyOwner public{\n      require(!isSuperNode[superNodeAddress]);\n      require(superNodesNum < totalSuperNodes);\n      isSuperNode[superNodeAddress] = true;\n      superNodesNum++;\n    }\n\n    function setNode(address nodeAddress) onlyOwner public{\n      require(!isNode[nodeAddress]);\n      require(nodesNum < totalNodes);\n      isNode[nodeAddress] = true;\n      nodesNum++;\n\n    }\n\n    function querySuperNode(address _addr) public view returns(bool){\n      return(isSuperNode[_addr]);\n    }\n    function queryNode(address _addr) public view returns(bool){\n      return(isNode[_addr]);\n    }\n    /***************************************************/\n    /*       KOL Vote Code Begin here                  */\n    /***************************************************/\n\n    struct KolMission{\n      address oldNode;\n      address newNode;\n      uint256 startTime;\n      uint256 endTime;\n      uint256 totalAmount;\n      uint256 offeringAmount;\n      bytes32 name;\n      uint16 agreeNodes;\n      uint16 refuseNodes;\n      uint16 agreeSuperNodes;\n      uint16 refuseSuperNodes;\n      bool superPassed;\n      bool nodePassed;\n      bool done;\n    }\n    mapping (uint256 => KolMission) private missionList;\n\n    struct KolOffering{\n      address target;\n      uint256 targetAmount;\n    }\n    KolOffering[] private kolOfferings;\n\n    mapping(uint256 => KolOffering[]) private offeringList;\n\n    //_type:1,change supernode;2,change node;3,changeowner;4,mission launched;6,creation issuing;7,recycle token from owner\n    function createKolMission(uint16 _type,bytes32 _name,uint256 _totalAmount,address _oldNode,address _newNode) onlyNodes public {\n        bytes32 iName = _name;\n        if (_type == 2){\n          require(isSuperNode[msg.sender]);\n          iName = \"CHANGE NODE\";\n        }else if (_type == 3){\n          iName = \"CHANGE OWNER\";\n        }else if (_type == 1){\n          require(isNode[msg.sender]);\n          iName = \"CHANGE SUPER NODE\";\n        }else if ((_type ==4)){\n          require((_totalAmount + userSupplyed) <= totalUserSupply);\n        }else if (_type ==6){\n          require((_totalAmount + nodeSupplyed) <= totalNodeSupply);\n          iName = \"CREATION ISSUING\";\n        }else if (_type ==7){\n          iName = \"RECYCLE TOKEN FROM OWNER\";\n        }\n        missionList[missionId] = KolMission(_oldNode,\n                                            _newNode,\n                                            uint256(now),\n                                            uint256(now + dealTime),\n                                            _totalAmount,\n                                            0,\n                                            iName,\n                                            0,\n                                            0,\n                                            0,\n                                            0,\n                                            false,\n                                            false,\n                                            false);\n\n        missionId++;\n        emit MissionLaunched(iName,missionId-1,msg.sender);\n    }\n    function addKolOffering(uint256 _missionId,address _target,uint256 _targetAmount) onlyNodes public{\n      require(missionList[_missionId].superPassed);\n      require(!missionList[_missionId].done);\n      if (missionList[_missionId].name == \"CREATION ISSUING\"){\n        require(isNode[_target]||isSuperNode[_target]);\n      }\n      require(missionList[_missionId].offeringAmount.add(_targetAmount) <= missionList[_missionId].totalAmount);\n      offeringList[_missionId].push(KolOffering(_target,_targetAmount));\n      missionList[_missionId].offeringAmount = missionList[_missionId].offeringAmount.add(_targetAmount);\n\n    }\n    function missionPassed(uint256 _missionId) private {\n      if ((missionList[_missionId].name != \"CHANGE SUPER NODE\") &&\n              (missionList[_missionId].name != \"CHANGE NODE\") &&\n              (missionList[_missionId].name != \"CHANGE OWNER\") &&\n              (missionList[_missionId].name != \"RECYCLE TOKEN FROM OWNER\")){\n          emit MissionPassed(_missionId,missionList[_missionId].name);\n        }\n\n    }\n    //once voting passed,excute auto;\n    function excuteAuto(uint256 _missionId) private {\n      if ((missionList[_missionId].name == \"CHANGE NODE\") && missionList[_missionId].superPassed){\n        require(isNode[missionList[_missionId].oldNode]);\n        require(!isSuperNode[missionList[_missionId].newNode]);\n        isNode[missionList[_missionId].oldNode] = false;\n        isNode[missionList[_missionId].newNode] = true;\n        missionList[_missionId].done = true;\n        emit NodeChanged(2,missionList[_missionId].oldNode,missionList[_missionId].newNode);\n      }else if ((missionList[_missionId].name == \"CHANGE SUPER NODE\") && missionList[_missionId].nodePassed){\n        require(isSuperNode[missionList[_missionId].oldNode]);\n        require(!isSuperNode[missionList[_missionId].newNode]);\n        isSuperNode[missionList[_missionId].oldNode] = false;\n        isSuperNode[missionList[_missionId].newNode] = true;\n        missionList[_missionId].done = true;\n        emit NodeChanged(1,missionList[_missionId].oldNode,missionList[_missionId].newNode);\n      }else if ((missionList[_missionId].name == \"CHANGE OWNER\") && missionList[_missionId].nodePassed){\n        emit NodeChanged(3,owner,missionList[_missionId].newNode);\n        _transferOwnership(missionList[_missionId].newNode);\n        missionList[_missionId].done = true;\n      }else if ((missionList[_missionId].name == \"RECYCLE TOKEN FROM OWNER\") && missionList[_missionId].nodePassed){\n        burn(missionList[_missionId].totalAmount);\n        emit RecycleTokens(_missionId,missionList[_missionId].totalAmount);\n        missionList[_missionId].done = true;\n      }\n    }\n    //_type,1,supernode;2,node\n    function voteMission(uint16 _type,uint256 _missionId,bool _agree) onlyNodes public{\n      require(!Voter[msg.sender][_missionId]);\n      require(!missionList[_missionId].done);\n      uint16 minNodesNum = minNodes;\n      uint16 minSuperNodesNum = minSuperNodes;\n      uint16 passNodes = halfNodes;\n      uint16 passSuperNodes = halfSuperNodes;\n      uint16 rate = half;\n      if (missionList[_missionId].name == \"CHANGE OWNER\") {\n        rate = most;\n        minNodesNum = totalNodes;\n        passNodes = mostNodes;\n      }else if (missionList[_missionId].name == \"CHANGE NODE\"){\n        rate = less;\n        minSuperNodesNum = minSuperNodes;\n        passSuperNodes = halfSuperNodes;\n      }else if (missionList[_missionId].name == \"CHANGE SUPER NODE\"){\n        rate = less;\n        minNodesNum = minNodes;\n        passNodes = halfNodes;\n      }else if (missionList[_missionId].name == \"CREATION ISSUING\"){\n        minNodesNum = minNodes;\n        passNodes = halfNodes;\n        minSuperNodesNum = minSuperNodes;\n        passSuperNodes = halfSuperNodes;\n      }else if (missionList[_missionId].name == \"RECYCLE TOKEN FROM OWNER\"){\n        minNodesNum = minNodes;\n        passNodes = halfNodes;\n      }\n\n      if (_type == 1){\n        require(isSuperNode[msg.sender]);\n      }else if (_type ==2){\n        require(isNode[msg.sender]);\n      }\n\n      if(now > missionList[_missionId].endTime){\n        if ( _type == 1 ){\n          if (\n            (missionList[_missionId].agreeSuperNodes + missionList[_missionId].refuseSuperNodes)>=minSuperNodesNum\n            &&\n            missionList[_missionId].agreeSuperNodes >= (missionList[_missionId].agreeSuperNodes + missionList[_missionId].refuseSuperNodes) * rate/100\n            ){\n              missionList[_missionId].superPassed = true;\n              missionPassed(_missionId);\n          }\n        }else if (_type ==2 ){\n          //\n          if (\n            (missionList[_missionId].agreeNodes + missionList[_missionId].refuseNodes)>=minNodesNum\n            &&\n            missionList[_missionId].agreeNodes >= (missionList[_missionId].refuseNodes + missionList[_missionId].refuseNodes) * rate/100\n            ){\n              missionList[_missionId].nodePassed = true;\n          }\n        }\n      }else{\n        if(_agree == true){\n          if (_type == 1){\n            missionList[_missionId].agreeSuperNodes++;\n          }else if(_type == 2){\n            missionList[_missionId].agreeNodes++;\n          }\n        }\n        else{\n          if (_type == 1){\n            missionList[_missionId].refuseSuperNodes++;\n          }else if(_type == 2){\n            missionList[_missionId].refuseNodes++;\n          }\n        }\n        if (_type == 1){\n          if (missionList[_missionId].agreeSuperNodes >= passSuperNodes) {\n              missionList[_missionId].superPassed = true;\n              missionPassed(_missionId);\n          }else if (missionList[_missionId].refuseSuperNodes >= passSuperNodes) {\n              missionList[_missionId].done = true;\n          }\n        }else if (_type ==2){\n          if (missionList[_missionId].agreeNodes >= passNodes) {\n              missionList[_missionId].nodePassed = true;\n          }else if (missionList[_missionId].refuseNodes >= passNodes) {\n              missionList[_missionId].done = true;\n          }\n        }\n      }\n      Voter[msg.sender][_missionId] = true;\n      excuteAuto(_missionId);\n    }\n\n    function excuteVote(uint256 _missionId) onlyOwner public {\n      require(!missionList[_missionId].done);\n      require(uint256(now) < (missionList[_missionId].endTime + uint256(dealTime)));\n\n      require(missionList[_missionId].superPassed);\n      require(missionList[_missionId].nodePassed);\n      require(missionList[_missionId].totalAmount == missionList[_missionId].offeringAmount);\n      require((missionList[_missionId].totalAmount.add(totalSupplyed))<=totalNodeSupply.add(totalUserSupply));\n\n      if (missionList[_missionId].name == \"CREATION ISSUING\"){\n        require((nodeSupplyed.add(missionList[_missionId].totalAmount))<=totalNodeSupply);\n      }else{\n        require((userSupplyed.add(missionList[_missionId].totalAmount))<=totalUserSupply);\n      }\n      for (uint m = 0; m < offeringList[_missionId].length; m++){\n        balances[offeringList[_missionId][m].target] = balances[offeringList[_missionId][m].target].add(offeringList[_missionId][m].targetAmount);\n        emit Transfer(msg.sender,offeringList[_missionId][m].target,offeringList[_missionId][m].targetAmount);\n      }\n      totalSupplyed = totalSupplyed.add(missionList[_missionId].totalAmount);\n\n      if (missionList[_missionId].name == \"CREATION ISSUING\"){\n        nodeSupplyed = nodeSupplyed.add(missionList[_missionId].totalAmount);\n      }else{\n        userSupplyed = userSupplyed.add(missionList[_missionId].totalAmount);\n      }\n      missionList[_missionId].done = true;\n      emit OfferingFinished(_missionId,missionList[_missionId].offeringAmount,offeringList[_missionId].length);\n\n    }\n    function getMission1(uint256 _missionId) public view returns(address,\n                                                              address,\n                                                              uint256,\n                                                              uint256,\n                                                              uint256,\n                                                              uint256,\n                                                              bytes32){\n      return(missionList[_missionId].oldNode,\n              missionList[_missionId].newNode,\n              missionList[_missionId].startTime,\n              missionList[_missionId].endTime,\n              missionList[_missionId].totalAmount,\n              missionList[_missionId].offeringAmount,\n              missionList[_missionId].name);\n    }\n    function getMission2(uint256 _missionId) public view returns(uint16,\n                                                                uint16,\n                                                                uint16,\n                                                                uint16,\n                                                                bool,\n                                                                bool,\n                                                                bool){\n      return(\n            missionList[_missionId].agreeNodes,\n            missionList[_missionId].refuseNodes,\n            missionList[_missionId].agreeSuperNodes,\n            missionList[_missionId].refuseSuperNodes,\n            missionList[_missionId].superPassed,\n            missionList[_missionId].nodePassed,\n            missionList[_missionId].done);\n    }\n    function getOfferings(uint256 _missionId,uint256 _id) public view returns(address,uint256,uint256){\n      return(offeringList[_missionId][_id].target,offeringList[_missionId][_id].targetAmount,offeringList[_missionId].length);\n    }\n    function voted(address _node,uint256 _missionId) public view returns(bool){\n      return Voter[_node][_missionId];\n    }\n}\ncontract KOLFund is Ownable{\n  using SafeMath for uint256;\n  string public name = \"KOL Foundation\";\n  string public symbol = \"KOLFund\";\n  KOLVote public token;\n\n  uint256 public dealTime =  3 days;\n  uint256 public missionId = 0;\n\n  uint16 public constant totalSuperNodes = 21;\n  uint16 public constant totalNodes = 500;\n  uint16 public constant halfSuperNodes = 11;\n  uint16 public constant mostNodes = 335;\n  uint16 public constant halfNodes = 251;\n  uint16 public constant minSuperNodes = 15;\n  uint16 public constant minNodes = 101;\n\n  uint16 public constant most = 67;\n  uint16 public constant half = 51;\n  uint16 public constant less = 33;\n\n  mapping(address => mapping(uint256 => bool)) private Voter;\n\n  constructor(address _tokenAddress) public {\n    token = KOLVote(_tokenAddress);\n  }\n\n  event MissionPassed(uint256 _missionId,bytes32 _name);\n  event OfferingFinished(uint256 _missionId,uint256 _totalAmount,uint256 _length);\n  event MissionLaunched(bytes32 _name,uint256 _missionId,address _whoLaunch);\n\n  modifier onlySuperNode() {\n    require(token.querySuperNode(msg.sender));\n      _;\n  }\n  modifier onlyNode() {\n      require(token.queryNode(msg.sender));\n      _;\n  }\n  modifier onlyNodes() {\n      require(token.querySuperNode(msg.sender)||token.queryNode(msg.sender));\n      _;\n  }\n\n  struct KolMission{\n    uint256 startTime;\n    uint256 endTime;\n    uint256 totalAmount;\n    uint256 offeringAmount;\n    bytes32 name;\n    uint16 agreeNodes;\n    uint16 refuseNodes;\n    uint16 agreeSuperNodes;\n    uint16 refuseSuperNodes;\n    bool superPassed;\n    bool nodePassed;\n    bool done;\n  }\n  mapping (uint256 => KolMission) private missionList;\n\n  struct KolOffering{\n    address target;\n    uint256 targetAmount;\n  }\n  KolOffering[] private kolOfferings;\n  mapping(uint256 => KolOffering[]) private offeringList;\n\n  function missionPassed(uint256 _missionId) private {\n    emit MissionPassed(_missionId,missionList[_missionId].name);\n  }\n  function createKolMission(bytes32 _name,uint256 _totalAmount) onlyNodes public {\n      bytes32 iName = _name;\n      missionList[missionId] = KolMission(uint256(now),\n                                          uint256(now + dealTime),\n                                          _totalAmount,\n                                          0,\n                                          iName,\n                                          0,\n                                          0,\n                                          0,\n                                          0,\n                                          false,\n                                          false,\n                                          false);\n\n      missionId++;\n      emit MissionLaunched(iName,missionId-1,msg.sender);\n  }\n  function voteMission(uint16 _type,uint256 _missionId,bool _agree) onlyNodes public{\n    require(!Voter[msg.sender][_missionId]);\n    require(!missionList[_missionId].done);\n    uint16 minNodesNum = minNodes;\n    uint16 minSuperNodesNum = minSuperNodes;\n    uint16 passNodes = halfNodes;\n    uint16 passSuperNodes = halfSuperNodes;\n    uint16 rate = half;\n\n    if (_type == 1){\n      require(token.querySuperNode(msg.sender));\n    }else if (_type ==2){\n      require(token.queryNode(msg.sender));\n    }\n\n    if(now > missionList[_missionId].endTime){\n      if ( _type == 1 ){\n        if (\n          (missionList[_missionId].agreeSuperNodes + missionList[_missionId].refuseSuperNodes)>=minSuperNodesNum\n          &&\n          missionList[_missionId].agreeSuperNodes >= (missionList[_missionId].agreeSuperNodes + missionList[_missionId].refuseSuperNodes) * rate/100\n          ){\n            missionList[_missionId].superPassed = true;\n            missionPassed(_missionId);\n        }\n      }else if (_type ==2 ){\n        //\n        if (\n          (missionList[_missionId].agreeNodes + missionList[_missionId].refuseNodes)>=minNodesNum\n          &&\n          missionList[_missionId].agreeNodes >= (missionList[_missionId].refuseNodes + missionList[_missionId].refuseNodes) * rate/100\n          ){\n            missionList[_missionId].nodePassed = true;\n        }\n      }\n    }else{\n      if(_agree == true){\n        if (_type == 1){\n          missionList[_missionId].agreeSuperNodes++;\n        }else if(_type == 2){\n          missionList[_missionId].agreeNodes++;\n        }\n      }\n      else{\n        if (_type == 1){\n          missionList[_missionId].refuseSuperNodes++;\n        }else if(_type == 2){\n          missionList[_missionId].refuseNodes++;\n        }\n      }\n      if (_type == 1){\n        if (missionList[_missionId].agreeSuperNodes >= passSuperNodes) {\n            missionList[_missionId].superPassed = true;\n            missionPassed(_missionId);\n        }else if (missionList[_missionId].refuseSuperNodes >= passSuperNodes) {\n            missionList[_missionId].done = true;\n        }\n      }else if (_type ==2){\n        if (missionList[_missionId].agreeNodes >= passNodes) {\n            missionList[_missionId].nodePassed = true;\n        }else if (missionList[_missionId].refuseNodes >= passNodes) {\n            missionList[_missionId].done = true;\n        }\n      }\n    }\n    Voter[msg.sender][_missionId] = true;\n  }\n  function addKolOffering(uint256 _missionId,address _target,uint256 _targetAmount) onlyNodes public{\n    require(missionList[_missionId].superPassed);\n    require(!missionList[_missionId].done);\n    require(token.queryNode(_target)||token.querySuperNode(_target));\n    require(missionList[_missionId].offeringAmount.add(_targetAmount) <= missionList[_missionId].totalAmount);\n    offeringList[_missionId].push(KolOffering(_target,_targetAmount));\n    missionList[_missionId].offeringAmount = missionList[_missionId].offeringAmount.add(_targetAmount);\n\n  }\n  function excuteVote(uint256 _missionId) onlyOwner public {\n    require(!missionList[_missionId].done);\n    require(uint256(now) < (missionList[_missionId].endTime + uint256(dealTime)));\n    require(missionList[_missionId].superPassed);\n    require(missionList[_missionId].nodePassed);\n    require(missionList[_missionId].totalAmount == missionList[_missionId].offeringAmount);\n\n\n    for (uint m = 0; m < offeringList[_missionId].length; m++){\n      token.transfer(offeringList[_missionId][m].target, offeringList[_missionId][m].targetAmount);\n    }\n    missionList[_missionId].done = true;\n    emit OfferingFinished(_missionId,missionList[_missionId].offeringAmount,offeringList[_missionId].length);\n\n  }\n  function getMission1(uint256 _missionId) public view returns(uint256,\n                                                            uint256,\n                                                            uint256,\n                                                            uint256,\n                                                            bytes32){\n    return(missionList[_missionId].startTime,\n            missionList[_missionId].endTime,\n            missionList[_missionId].totalAmount,\n            missionList[_missionId].offeringAmount,\n            missionList[_missionId].name);\n  }\n  function getMission2(uint256 _missionId) public view returns(uint16,\n                                                              uint16,\n                                                              uint16,\n                                                              uint16,\n                                                              bool,\n                                                              bool,\n                                                              bool){\n    return(\n          missionList[_missionId].agreeNodes,\n          missionList[_missionId].refuseNodes,\n          missionList[_missionId].agreeSuperNodes,\n          missionList[_missionId].refuseSuperNodes,\n          missionList[_missionId].superPassed,\n          missionList[_missionId].nodePassed,\n          missionList[_missionId].done);\n  }\n  function getOfferings(uint256 _missionId,uint256 _id) public view returns(address,uint256,uint256){\n    return(offeringList[_missionId][_id].target,offeringList[_missionId][_id].targetAmount,offeringList[_missionId].length);\n  }\n  function voted(address _node,uint256 _missionId) public view returns(bool){\n    return Voter[_node][_missionId];\n  }\n\n}\n",
  "sourcePath": "/Users/jack/git/github/KOL/contracts/KOLFund.sol",
  "compiler": {
    "name": "solc",
    "version": "0.4.23+commit.124ca40d.Emscripten.clang"
  },
  "schemaVersion": "3.0.19",
  "updatedAt": "2020-02-16T01:50:56.393Z",
  "devdoc": {
    "methods": {}
  },
  "userdoc": {
    "methods": {}
  }
}