{
  "contractName": "KOLWithDraw",
  "abi": [
    {
      "constant": true,
      "inputs": [],
      "name": "name",
      "outputs": [
        {
          "name": "",
          "type": "string"
        }
      ],
      "payable": false,
      "stateMutability": "view",
      "type": "function"
    },
    {
      "constant": true,
      "inputs": [],
      "name": "kol",
      "outputs": [
        {
          "name": "",
          "type": "address"
        }
      ],
      "payable": false,
      "stateMutability": "view",
      "type": "function"
    },
    {
      "constant": true,
      "inputs": [],
      "name": "leftBonus",
      "outputs": [
        {
          "name": "",
          "type": "uint256"
        }
      ],
      "payable": false,
      "stateMutability": "view",
      "type": "function"
    },
    {
      "constant": true,
      "inputs": [],
      "name": "every",
      "outputs": [
        {
          "name": "",
          "type": "uint256"
        }
      ],
      "payable": false,
      "stateMutability": "view",
      "type": "function"
    },
    {
      "constant": true,
      "inputs": [
        {
          "name": "",
          "type": "address"
        }
      ],
      "name": "DrawTime",
      "outputs": [
        {
          "name": "",
          "type": "uint256"
        }
      ],
      "payable": false,
      "stateMutability": "view",
      "type": "function"
    },
    {
      "constant": true,
      "inputs": [],
      "name": "kolp",
      "outputs": [
        {
          "name": "",
          "type": "address"
        }
      ],
      "payable": false,
      "stateMutability": "view",
      "type": "function"
    },
    {
      "constant": true,
      "inputs": [],
      "name": "owner",
      "outputs": [
        {
          "name": "",
          "type": "address"
        }
      ],
      "payable": false,
      "stateMutability": "view",
      "type": "function"
    },
    {
      "constant": true,
      "inputs": [
        {
          "name": "",
          "type": "address"
        }
      ],
      "name": "TotalWithDraws",
      "outputs": [
        {
          "name": "",
          "type": "uint256"
        }
      ],
      "payable": false,
      "stateMutability": "view",
      "type": "function"
    },
    {
      "constant": true,
      "inputs": [],
      "name": "minBonus",
      "outputs": [
        {
          "name": "",
          "type": "uint256"
        }
      ],
      "payable": false,
      "stateMutability": "view",
      "type": "function"
    },
    {
      "constant": true,
      "inputs": [],
      "name": "fee",
      "outputs": [
        {
          "name": "",
          "type": "uint8"
        }
      ],
      "payable": false,
      "stateMutability": "view",
      "type": "function"
    },
    {
      "constant": true,
      "inputs": [],
      "name": "etherFee",
      "outputs": [
        {
          "name": "",
          "type": "uint256"
        }
      ],
      "payable": false,
      "stateMutability": "view",
      "type": "function"
    },
    {
      "constant": false,
      "inputs": [
        {
          "name": "newOwner",
          "type": "address"
        }
      ],
      "name": "transferOwnership",
      "outputs": [],
      "payable": false,
      "stateMutability": "nonpayable",
      "type": "function"
    },
    {
      "constant": true,
      "inputs": [],
      "name": "reciever",
      "outputs": [
        {
          "name": "",
          "type": "address"
        }
      ],
      "payable": false,
      "stateMutability": "view",
      "type": "function"
    },
    {
      "inputs": [
        {
          "name": "_kolAddress",
          "type": "address"
        },
        {
          "name": "_kolpAddress",
          "type": "address"
        },
        {
          "name": "_reciever",
          "type": "address"
        }
      ],
      "payable": false,
      "stateMutability": "nonpayable",
      "type": "constructor"
    },
    {
      "anonymous": false,
      "inputs": [
        {
          "indexed": false,
          "name": "_user",
          "type": "address"
        },
        {
          "indexed": false,
          "name": "_amount",
          "type": "uint256"
        }
      ],
      "name": "WithDrawed",
      "type": "event"
    },
    {
      "constant": true,
      "inputs": [
        {
          "name": "_addr",
          "type": "address"
        }
      ],
      "name": "querySelfBonus",
      "outputs": [
        {
          "name": "",
          "type": "uint256"
        }
      ],
      "payable": false,
      "stateMutability": "view",
      "type": "function"
    },
    {
      "constant": true,
      "inputs": [
        {
          "name": "_addr",
          "type": "address"
        }
      ],
      "name": "queryInviteBonus",
      "outputs": [
        {
          "name": "",
          "type": "uint256"
        }
      ],
      "payable": false,
      "stateMutability": "view",
      "type": "function"
    },
    {
      "constant": true,
      "inputs": [
        {
          "name": "_addr",
          "type": "address"
        }
      ],
      "name": "queryTeamBonus",
      "outputs": [
        {
          "name": "",
          "type": "uint256"
        }
      ],
      "payable": false,
      "stateMutability": "view",
      "type": "function"
    },
    {
      "constant": false,
      "inputs": [
        {
          "name": "_onlyBonus",
          "type": "bool"
        }
      ],
      "name": "withdraw",
      "outputs": [],
      "payable": true,
      "stateMutability": "payable",
      "type": "function"
    },
    {
      "constant": true,
      "inputs": [
        {
          "name": "_onlyBonus",
          "type": "bool"
        }
      ],
      "name": "calcuAllBonus",
      "outputs": [
        {
          "name": "",
          "type": "uint256"
        }
      ],
      "payable": false,
      "stateMutability": "view",
      "type": "function"
    },
    {
      "constant": false,
      "inputs": [
        {
          "name": "_amount",
          "type": "uint256"
        }
      ],
      "name": "addBonus",
      "outputs": [],
      "payable": false,
      "stateMutability": "nonpayable",
      "type": "function"
    },
    {
      "constant": false,
      "inputs": [
        {
          "name": "_fee",
          "type": "uint8"
        }
      ],
      "name": "setFee",
      "outputs": [],
      "payable": false,
      "stateMutability": "nonpayable",
      "type": "function"
    },
    {
      "constant": false,
      "inputs": [
        {
          "name": "_paddr",
          "type": "address"
        }
      ],
      "name": "setKOLP",
      "outputs": [],
      "payable": false,
      "stateMutability": "nonpayable",
      "type": "function"
    },
    {
      "constant": false,
      "inputs": [],
      "name": "draw",
      "outputs": [],
      "payable": false,
      "stateMutability": "nonpayable",
      "type": "function"
    },
    {
      "constant": false,
      "inputs": [
        {
          "name": "_fee",
          "type": "uint256"
        }
      ],
      "name": "setetherFee",
      "outputs": [],
      "payable": false,
      "stateMutability": "nonpayable",
      "type": "function"
    },
    {
      "constant": false,
      "inputs": [
        {
          "name": "_reciever",
          "type": "address"
        }
      ],
      "name": "setReciever",
      "outputs": [],
      "payable": false,
      "stateMutability": "nonpayable",
      "type": "function"
    }
  ],
  "bytecode": "0x60806040526040805190810160405280600c81526020017f4b4f4c20576974686472617700000000000000000000000000000000000000008152506001908051906020019062000051929190620001e2565b5061012c6004556801a055690d9db8000060055560006006556611c37937e080006008556005600960006101000a81548160ff021916908360ff1602179055503480156200009e57600080fd5b5060405160608062003e04833981018060405281019080805190602001909291908051906020019092919080519060200190929190505050336000806101000a81548173ffffffffffffffffffffffffffffffffffffffff021916908373ffffffffffffffffffffffffffffffffffffffff16021790555082600260006101000a81548173ffffffffffffffffffffffffffffffffffffffff021916908373ffffffffffffffffffffffffffffffffffffffff16021790555081600360006101000a81548173ffffffffffffffffffffffffffffffffffffffff021916908373ffffffffffffffffffffffffffffffffffffffff16021790555080600760006101000a81548173ffffffffffffffffffffffffffffffffffffffff021916908373ffffffffffffffffffffffffffffffffffffffff16021790555050505062000291565b828054600181600116156101000203166002900490600052602060002090601f016020900481019282601f106200022557805160ff191683800117855562000256565b8280016001018555821562000256579182015b828111156200025557825182559160200191906001019062000238565b5b50905062000265919062000269565b5090565b6200028e91905b808211156200028a57600081600090555060010162000270565b5090565b90565b613b6380620002a16000396000f30060806040526004361061013e576000357c0100000000000000000000000000000000000000000000000000000000900463ffffffff16806306fdde03146101435780630dcba2d1146101d35780630eecae211461022a578063111878f61461024157806318a1b4091461026e5780631a547b30146102995780632e6d7c9e146102c65780633bc6cf47146103095780635c1f8c62146103345780636e563d9c1461038b578063749f9f9a146103ce5780638da5cb5b14610425578063a0db86f91461047c578063a810a54c146104bf578063cb122a09146104e1578063d2f5aa3d14610511578063d45c241c14610568578063d461d2f014610593578063ddca3f43146105ea578063e07b86ee1461061b578063ed94c7f414610672578063f2fde38b1461069d578063f4b0b756146106e0578063f88c6c0314610737575b600080fd5b34801561014f57600080fd5b5061015861078e565b6040518080602001828103825283818151815260200191508051906020019080838360005b8381101561019857808201518184015260208101905061017d565b50505050905090810190601f1680156101c55780820380516001836020036101000a031916815260200191505b509250505060405180910390f35b3480156101df57600080fd5b506101e861082c565b604051808273ffffffffffffffffffffffffffffffffffffffff1673ffffffffffffffffffffffffffffffffffffffff16815260200191505060405180910390f35b34801561023657600080fd5b5061023f610852565b005b34801561024d57600080fd5b5061026c6004803603810190808035906020019092919050505061091e565b005b34801561027a57600080fd5b50610283610997565b6040518082815260200191505060405180910390f35b3480156102a557600080fd5b506102c46004803603810190808035906020019092919050505061099d565b005b3480156102d257600080fd5b506102f3600480360381019080803515159060200190929190505050610a02565b6040518082815260200191505060405180910390f35b34801561031557600080fd5b5061031e6111df565b6040518082815260200191505060405180910390f35b34801561034057600080fd5b50610375600480360381019080803573ffffffffffffffffffffffffffffffffffffffff1690602001909291905050506111e5565b6040518082815260200191505060405180910390f35b34801561039757600080fd5b506103cc600480360381019080803573ffffffffffffffffffffffffffffffffffffffff1690602001909291905050506111fd565b005b3480156103da57600080fd5b506103e361129c565b604051808273ffffffffffffffffffffffffffffffffffffffff1673ffffffffffffffffffffffffffffffffffffffff16815260200191505060405180910390f35b34801561043157600080fd5b5061043a6112c2565b604051808273ffffffffffffffffffffffffffffffffffffffff1673ffffffffffffffffffffffffffffffffffffffff16815260200191505060405180910390f35b34801561048857600080fd5b506104bd600480360381019080803573ffffffffffffffffffffffffffffffffffffffff1690602001909291905050506112e7565b005b6104df600480360381019080803515159060200190929190505050611386565b005b3480156104ed57600080fd5b5061050f600480360381019080803560ff169060200190929190505050612472565b005b34801561051d57600080fd5b50610552600480360381019080803573ffffffffffffffffffffffffffffffffffffffff1690602001909291905050506124eb565b6040518082815260200191505060405180910390f35b34801561057457600080fd5b5061057d612503565b6040518082815260200191505060405180910390f35b34801561059f57600080fd5b506105d4600480360381019080803573ffffffffffffffffffffffffffffffffffffffff169060200190929190505050612509565b6040518082815260200191505060405180910390f35b3480156105f657600080fd5b506105ff6128a8565b604051808260ff1660ff16815260200191505060405180910390f35b34801561062757600080fd5b5061065c600480360381019080803573ffffffffffffffffffffffffffffffffffffffff1690602001909291905050506128bb565b6040518082815260200191505060405180910390f35b34801561067e57600080fd5b5061068761312b565b6040518082815260200191505060405180910390f35b3480156106a957600080fd5b506106de600480360381019080803573ffffffffffffffffffffffffffffffffffffffff169060200190929190505050613131565b005b3480156106ec57600080fd5b506106f5613206565b604051808273ffffffffffffffffffffffffffffffffffffffff1673ffffffffffffffffffffffffffffffffffffffff16815260200191505060405180910390f35b34801561074357600080fd5b50610778600480360381019080803573ffffffffffffffffffffffffffffffffffffffff16906020019092919050505061322c565b6040518082815260200191505060405180910390f35b60018054600181600116156101000203166002900480601f0160208091040260200160405190810160405280929190818152602001828054600181600116156101000203166002900480156108245780601f106107f957610100808354040283529160200191610824565b820191906000526020600020905b81548152906001019060200180831161080757829003601f168201915b505050505081565b600260009054906101000a900473ffffffffffffffffffffffffffffffffffffffff1681565b6000809054906101000a900473ffffffffffffffffffffffffffffffffffffffff1673ffffffffffffffffffffffffffffffffffffffff163373ffffffffffffffffffffffffffffffffffffffff161415156108ad57600080fd5b600760009054906101000a900473ffffffffffffffffffffffffffffffffffffffff1673ffffffffffffffffffffffffffffffffffffffff166108fc3073ffffffffffffffffffffffffffffffffffffffff16319081150290604051600060405180830381858888f1935050505050565b6000809054906101000a900473ffffffffffffffffffffffffffffffffffffffff1673ffffffffffffffffffffffffffffffffffffffff163373ffffffffffffffffffffffffffffffffffffffff1614151561097957600080fd5b61098e8160065461360390919063ffffffff16565b60068190555050565b60065481565b6000809054906101000a900473ffffffffffffffffffffffffffffffffffffffff1673ffffffffffffffffffffffffffffffffffffffff163373ffffffffffffffffffffffffffffffffffffffff161415156109f857600080fd5b8060088190555050565b6000806000806000610a12613ae9565b6000610a1c613b0b565b6000610a27336128bb565b9750600360009054906101000a900473ffffffffffffffffffffffffffffffffffffffff1673ffffffffffffffffffffffffffffffffffffffff1663312b43ad336040518263ffffffff167c0100000000000000000000000000000000000000000000000000000000028152600401808273ffffffffffffffffffffffffffffffffffffffff1673ffffffffffffffffffffffffffffffffffffffff168152602001915050602060405180830381600087803b158015610ae657600080fd5b505af1158015610afa573d6000803e3d6000fd5b505050506040513d6020811015610b1057600080fd5b81019080805190602001909291905050509650600360009054906101000a900473ffffffffffffffffffffffffffffffffffffffff1673ffffffffffffffffffffffffffffffffffffffff1663bf131ad2426040518263ffffffff167c010000000000000000000000000000000000000000000000000000000002815260040180828152602001915050602060405180830381600087803b158015610bb457600080fd5b505af1158015610bc8573d6000803e3d6000fd5b505050506040513d6020811015610bde57600080fd5b810190808051906020019092919050505095506000871115610d9f576060604051908101604052806000815260200160008152602001600081525093508692505b600183101515610d9e57600360009054906101000a900473ffffffffffffffffffffffffffffffffffffffff1673ffffffffffffffffffffffffffffffffffffffff1663e77f912433600186036040518363ffffffff167c0100000000000000000000000000000000000000000000000000000000028152600401808373ffffffffffffffffffffffffffffffffffffffff1673ffffffffffffffffffffffffffffffffffffffff16815260200182815260200192505050606060405180830381600087803b158015610cf157600080fd5b505af1158015610d05573d6000803e3d6000fd5b505050506040513d6060811015610d1b57600080fd5b81019080805190602001909291908051906020019092919080519060200190929190505050866000018760200188604001838152508381525083815250505050828060019003935050858460000151111515610d995760045484600001518703811515610d8457fe5b04945083604001518460200151860201880197505b610c1f565b5b600360009054906101000a900473ffffffffffffffffffffffffffffffffffffffff1673ffffffffffffffffffffffffffffffffffffffff1663254fbd72336040518263ffffffff167c0100000000000000000000000000000000000000000000000000000000028152600401808273ffffffffffffffffffffffffffffffffffffffff1673ffffffffffffffffffffffffffffffffffffffff168152602001915050602060405180830381600087803b158015610e5c57600080fd5b505af1158015610e70573d6000803e3d6000fd5b505050506040513d6020811015610e8657600080fd5b81019080805190602001909291905050509650600087111561107c57608060405190810160405280600081526020016000815260200160008152602001600060ff1681525091505b60018710151561107b57600360009054906101000a900473ffffffffffffffffffffffffffffffffffffffff1673ffffffffffffffffffffffffffffffffffffffff166372e03a5c3360018a036040518363ffffffff167c0100000000000000000000000000000000000000000000000000000000028152600401808373ffffffffffffffffffffffffffffffffffffffff1673ffffffffffffffffffffffffffffffffffffffff16815260200182815260200192505050608060405180830381600087803b158015610fa057600080fd5b505af1158015610fb4573d6000803e3d6000fd5b505050506040513d6080811015610fca57600080fd5b8101908080519060200190929190805190602001909291908051906020019092919080519060200190929190505050856000018660200187604001886060018460ff1660ff1681525084815250848152508481525050505050868060019003975050858260000151111515611076576004548260000151870381151561104c57fe5b04945081604001516064836060015160ff16846020015188020281151561106f57fe5b0401880197505b610ece565b5b6000600654141561109057600097506110a2565b600654881015156110a15760065497505b5b6064600960009054906101000a900460ff1660640360ff1689028115156110c557fe5b0497508915156111cf57600360009054906101000a900473ffffffffffffffffffffffffffffffffffffffff1673ffffffffffffffffffffffffffffffffffffffff16632a61ae19336040518263ffffffff167c0100000000000000000000000000000000000000000000000000000000028152600401808273ffffffffffffffffffffffffffffffffffffffff1673ffffffffffffffffffffffffffffffffffffffff168152602001915050602060405180830381600087803b15801561118c57600080fd5b505af11580156111a0573d6000803e3d6000fd5b505050506040513d60208110156111b657600080fd5b8101908080519060200190929190505050905080880197505b8798505050505050505050919050565b60045481565b600b6020528060005260406000206000915090505481565b6000809054906101000a900473ffffffffffffffffffffffffffffffffffffffff1673ffffffffffffffffffffffffffffffffffffffff163373ffffffffffffffffffffffffffffffffffffffff1614151561125857600080fd5b80600360006101000a81548173ffffffffffffffffffffffffffffffffffffffff021916908373ffffffffffffffffffffffffffffffffffffffff16021790555050565b600360009054906101000a900473ffffffffffffffffffffffffffffffffffffffff1681565b6000809054906101000a900473ffffffffffffffffffffffffffffffffffffffff1681565b6000809054906101000a900473ffffffffffffffffffffffffffffffffffffffff1673ffffffffffffffffffffffffffffffffffffffff163373ffffffffffffffffffffffffffffffffffffffff1614151561134257600080fd5b80600760006101000a81548173ffffffffffffffffffffffffffffffffffffffff021916908373ffffffffffffffffffffffffffffffffffffffff16021790555050565b600080600080611394613ae9565b600061139e613b0b565b600080600060085434101515156113b457600080fd5b6113bd336128bb565b995042600b60003373ffffffffffffffffffffffffffffffffffffffff1673ffffffffffffffffffffffffffffffffffffffff16815260200190815260200160002081905550600360009054906101000a900473ffffffffffffffffffffffffffffffffffffffff1673ffffffffffffffffffffffffffffffffffffffff1663312b43ad336040518263ffffffff167c0100000000000000000000000000000000000000000000000000000000028152600401808273ffffffffffffffffffffffffffffffffffffffff1673ffffffffffffffffffffffffffffffffffffffff168152602001915050602060405180830381600087803b1580156114c057600080fd5b505af11580156114d4573d6000803e3d6000fd5b505050506040513d60208110156114ea57600080fd5b81019080805190602001909291905050509850600360009054906101000a900473ffffffffffffffffffffffffffffffffffffffff1673ffffffffffffffffffffffffffffffffffffffff1663bf131ad2426040518263ffffffff167c010000000000000000000000000000000000000000000000000000000002815260040180828152602001915050602060405180830381600087803b15801561158e57600080fd5b505af11580156115a2573d6000803e3d6000fd5b505050506040513d60208110156115b857600080fd5b810190808051906020019092919050505097506000891115611974576060604051908101604052806000815260200160008152602001600081525095508894505b60018510151561197357600360009054906101000a900473ffffffffffffffffffffffffffffffffffffffff1673ffffffffffffffffffffffffffffffffffffffff1663e77f912433600188036040518363ffffffff167c0100000000000000000000000000000000000000000000000000000000028152600401808373ffffffffffffffffffffffffffffffffffffffff1673ffffffffffffffffffffffffffffffffffffffff16815260200182815260200192505050606060405180830381600087803b1580156116cb57600080fd5b505af11580156116df573d6000803e3d6000fd5b505050506040513d60608110156116f557600080fd5b8101908080519060200190929190805190602001909291908051906020019092919050505088600001896020018a60400183815250838152508381525050505084806001900395505087866000015111151561196e576004548660000151890381151561175e57fe5b049650856040015186602001518802018a019950878660000151101561187557600360009054906101000a900473ffffffffffffffffffffffffffffffffffffffff1673ffffffffffffffffffffffffffffffffffffffff16632e39140f338a896020015160006040518563ffffffff167c0100000000000000000000000000000000000000000000000000000000028152600401808573ffffffffffffffffffffffffffffffffffffffff1673ffffffffffffffffffffffffffffffffffffffff168152602001848152602001838152602001828152602001945050505050600060405180830381600087803b15801561185857600080fd5b505af115801561186c573d6000803e3d6000fd5b5050505061196d565b878660000151141561196c57600360009054906101000a900473ffffffffffffffffffffffffffffffffffffffff1673ffffffffffffffffffffffffffffffffffffffff16631251b7a433886020015160006040518463ffffffff167c0100000000000000000000000000000000000000000000000000000000028152600401808473ffffffffffffffffffffffffffffffffffffffff1673ffffffffffffffffffffffffffffffffffffffff1681526020018381526020018281526020019350505050600060405180830381600087803b15801561195357600080fd5b505af1158015611967573d6000803e3d6000fd5b505050505b5b5b6115f9565b5b600360009054906101000a900473ffffffffffffffffffffffffffffffffffffffff1673ffffffffffffffffffffffffffffffffffffffff1663254fbd72336040518263ffffffff167c0100000000000000000000000000000000000000000000000000000000028152600401808273ffffffffffffffffffffffffffffffffffffffff1673ffffffffffffffffffffffffffffffffffffffff168152602001915050602060405180830381600087803b158015611a3157600080fd5b505af1158015611a45573d6000803e3d6000fd5b505050506040513d6020811015611a5b57600080fd5b810190808051906020019092919050505098506000891115611e7057608060405190810160405280600081526020016000815260200160008152602001600060ff1681525093505b600189101515611e6f57600360009054906101000a900473ffffffffffffffffffffffffffffffffffffffff1673ffffffffffffffffffffffffffffffffffffffff166372e03a5c3360018c036040518363ffffffff167c0100000000000000000000000000000000000000000000000000000000028152600401808373ffffffffffffffffffffffffffffffffffffffff1673ffffffffffffffffffffffffffffffffffffffff16815260200182815260200192505050608060405180830381600087803b158015611b7557600080fd5b505af1158015611b89573d6000803e3d6000fd5b505050506040513d6080811015611b9f57600080fd5b81019080805190602001909291908051906020019092919080519060200190929190805190602001909291905050508760000188602001896040018a6060018460ff1660ff1681525084815250848152508481525050505050888060019003995050878460000151111515611e6a5760045484600001518903811515611c2157fe5b04965083604001516064856060015160ff1686602001518a0202811515611c4457fe5b04018a0199508784600001511015611d5f57600360009054906101000a900473ffffffffffffffffffffffffffffffffffffffff1673ffffffffffffffffffffffffffffffffffffffff166315038e9e338a8760200151600089606001516040518663ffffffff167c0100000000000000000000000000000000000000000000000000000000028152600401808673ffffffffffffffffffffffffffffffffffffffff1673ffffffffffffffffffffffffffffffffffffffff1681526020018581526020018481526020018381526020018260ff1660ff16815260200195505050505050600060405180830381600087803b158015611d4257600080fd5b505af1158015611d56573d6000803e3d6000fd5b50505050611e69565b8784600001511415611e6857600360009054906101000a900473ffffffffffffffffffffffffffffffffffffffff1673ffffffffffffffffffffffffffffffffffffffff16636f42d97f338660200151600088606001516040518563ffffffff167c0100000000000000000000000000000000000000000000000000000000028152600401808573ffffffffffffffffffffffffffffffffffffffff1673ffffffffffffffffffffffffffffffffffffffff1681526020018481526020018381526020018260ff1660ff168152602001945050505050600060405180830381600087803b158015611e4f57600080fd5b505af1158015611e63573d6000803e3d6000fd5b505050505b5b5b611aa3565b5b89925060006006541415611e8b5760009a5060009250611e9d565b6006548a101515611e9c5760065492505b5b611eb28360065461362490919063ffffffff16565b6006819055506064600960009054906101000a900460ff1660640360ff168402811515611edb57fe5b0492506064600960009054906101000a900460ff1660ff168402811515611efe57fe5b0491508a15156121ab57600360009054906101000a900473ffffffffffffffffffffffffffffffffffffffff1673ffffffffffffffffffffffffffffffffffffffff16632a61ae19336040518263ffffffff167c0100000000000000000000000000000000000000000000000000000000028152600401808273ffffffffffffffffffffffffffffffffffffffff1673ffffffffffffffffffffffffffffffffffffffff168152602001915050602060405180830381600087803b158015611fc557600080fd5b505af1158015611fd9573d6000803e3d6000fd5b505050506040513d6020811015611fef57600080fd5b810190808051906020019092919050505090506005548a1015612018578092506000915061201e565b80830192505b600360009054906101000a900473ffffffffffffffffffffffffffffffffffffffff1673ffffffffffffffffffffffffffffffffffffffff16637c4bc6f7826040518263ffffffff167c010000000000000000000000000000000000000000000000000000000002815260040180828152602001915050600060405180830381600087803b1580156120af57600080fd5b505af11580156120c3573d6000803e3d6000fd5b50505050600360009054906101000a900473ffffffffffffffffffffffffffffffffffffffff1673ffffffffffffffffffffffffffffffffffffffff16638dc73521336040518263ffffffff167c0100000000000000000000000000000000000000000000000000000000028152600401808273ffffffffffffffffffffffffffffffffffffffff1673ffffffffffffffffffffffffffffffffffffffff168152602001915050600060405180830381600087803b15801561218457600080fd5b505af1158015612198573d6000803e3d6000fd5b505050506121a63382613640565b6121bd565b6005548a101515156121bc57600080fd5b5b600083111561235c57600260009054906101000a900473ffffffffffffffffffffffffffffffffffffffff1673ffffffffffffffffffffffffffffffffffffffff1663a9059cbb33856040518363ffffffff167c0100000000000000000000000000000000000000000000000000000000028152600401808373ffffffffffffffffffffffffffffffffffffffff1673ffffffffffffffffffffffffffffffffffffffff16815260200182815260200192505050600060405180830381600087803b15801561228b57600080fd5b505af115801561229f573d6000803e3d6000fd5b5050505082600a60003373ffffffffffffffffffffffffffffffffffffffff1673ffffffffffffffffffffffffffffffffffffffff168152602001908152602001600020600082825401925050819055507fc674231d2496906f0e8253e960f393e2857bda5ec7294f70264e9e8eb2db476f3384604051808373ffffffffffffffffffffffffffffffffffffffff1673ffffffffffffffffffffffffffffffffffffffff1681526020018281526020019250505060405180910390a15b600082111561246557600260009054906101000a900473ffffffffffffffffffffffffffffffffffffffff1673ffffffffffffffffffffffffffffffffffffffff1663a9059cbb600760009054906101000a900473ffffffffffffffffffffffffffffffffffffffff16846040518363ffffffff167c0100000000000000000000000000000000000000000000000000000000028152600401808373ffffffffffffffffffffffffffffffffffffffff1673ffffffffffffffffffffffffffffffffffffffff16815260200182815260200192505050600060405180830381600087803b15801561244c57600080fd5b505af1158015612460573d6000803e3d6000fd5b505050505b5050505050505050505050565b6000809054906101000a900473ffffffffffffffffffffffffffffffffffffffff1673ffffffffffffffffffffffffffffffffffffffff163373ffffffffffffffffffffffffffffffffffffffff161415156124cd57600080fd5b80600960006101000a81548160ff021916908360ff16021790555050565b600a6020528060005260406000206000915090505481565b60055481565b6000806000806000612519613ae9565b600360009054906101000a900473ffffffffffffffffffffffffffffffffffffffff1673ffffffffffffffffffffffffffffffffffffffff1663312b43ad886040518263ffffffff167c0100000000000000000000000000000000000000000000000000000000028152600401808273ffffffffffffffffffffffffffffffffffffffff1673ffffffffffffffffffffffffffffffffffffffff168152602001915050602060405180830381600087803b1580156125d657600080fd5b505af11580156125ea573d6000803e3d6000fd5b505050506040513d602081101561260057600080fd5b81019080805190602001909291905050509450600085111561289957600360009054906101000a900473ffffffffffffffffffffffffffffffffffffffff1673ffffffffffffffffffffffffffffffffffffffff1663bf131ad2426040518263ffffffff167c010000000000000000000000000000000000000000000000000000000002815260040180828152602001915050602060405180830381600087803b1580156126ad57600080fd5b505af11580156126c1573d6000803e3d6000fd5b505050506040513d60208110156126d757600080fd5b810190808051906020019092919050505093506060604051908101604052806000815260200160008152602001600081525090505b60018510151561289057600360009054906101000a900473ffffffffffffffffffffffffffffffffffffffff1673ffffffffffffffffffffffffffffffffffffffff1663e77f912488600188036040518363ffffffff167c0100000000000000000000000000000000000000000000000000000000028152600401808373ffffffffffffffffffffffffffffffffffffffff1673ffffffffffffffffffffffffffffffffffffffff16815260200182815260200192505050606060405180830381600087803b1580156127de57600080fd5b505af11580156127f2573d6000803e3d6000fd5b505050506040513d606081101561280857600080fd5b8101908080519060200190929190805190602001909291908051906020019092919050505083600001846020018560400183815250838152508381525050505084806001900395505083816000015111151561288b576004548160000151850381151561287157fe5b04925080604001518160200151840201915081955061289e565b61270c565b6000955061289e565b600095505b5050505050919050565b600960009054906101000a900460ff1681565b6000806000806000806000806000806000600360009054906101000a900473ffffffffffffffffffffffffffffffffffffffff1673ffffffffffffffffffffffffffffffffffffffff1663c93ae0fc8d6040518263ffffffff167c0100000000000000000000000000000000000000000000000000000000028152600401808273ffffffffffffffffffffffffffffffffffffffff1673ffffffffffffffffffffffffffffffffffffffff168152602001915050602060405180830381600087803b15801561298957600080fd5b505af115801561299d573d6000803e3d6000fd5b505050506040513d60208110156129b357600080fd5b8101908080519060200190929190505050995060008a111561311957600093505b8984101561311857600360009054906101000a900473ffffffffffffffffffffffffffffffffffffffff1673ffffffffffffffffffffffffffffffffffffffff16632253d3818d866040518363ffffffff167c0100000000000000000000000000000000000000000000000000000000028152600401808373ffffffffffffffffffffffffffffffffffffffff1673ffffffffffffffffffffffffffffffffffffffff16815260200182815260200192505050608060405180830381600087803b158015612aa157600080fd5b505af1158015612ab5573d6000803e3d6000fd5b505050506040513d6080811015612acb57600080fd5b8101908080519060200190929190805190602001909291908051906020019092919080519060200190929190505050809850819a50829950839b505050505084151561310b5787600b60008e73ffffffffffffffffffffffffffffffffffffffff1673ffffffffffffffffffffffffffffffffffffffff168152602001908152602001600020541115612b9b57600b60008d73ffffffffffffffffffffffffffffffffffffffff1673ffffffffffffffffffffffffffffffffffffffff1681526020019081526020016000205497505b600454600360009054906101000a900473ffffffffffffffffffffffffffffffffffffffff1673ffffffffffffffffffffffffffffffffffffffff1663bf131ad28a6040518263ffffffff167c010000000000000000000000000000000000000000000000000000000002815260040180828152602001915050602060405180830381600087803b158015612c2f57600080fd5b505af1158015612c43573d6000803e3d6000fd5b505050506040513d6020811015612c5957600080fd5b8101908080519060200190929190505050600360009054906101000a900473ffffffffffffffffffffffffffffffffffffffff1673ffffffffffffffffffffffffffffffffffffffff1663bf131ad2426040518263ffffffff167c010000000000000000000000000000000000000000000000000000000002815260040180828152602001915050602060405180830381600087803b158015612cfb57600080fd5b505af1158015612d0f573d6000803e3d6000fd5b505050506040513d6020811015612d2557600080fd5b810190808051906020019092919050505003811515612d4057fe5b049250600360009054906101000a900473ffffffffffffffffffffffffffffffffffffffff1673ffffffffffffffffffffffffffffffffffffffff16632f63c3658d6040518263ffffffff167c0100000000000000000000000000000000000000000000000000000000028152600401808273ffffffffffffffffffffffffffffffffffffffff1673ffffffffffffffffffffffffffffffffffffffff168152602001915050602060405180830381600087803b158015612e0057600080fd5b505af1158015612e14573d6000803e3d6000fd5b505050506040513d6020811015612e2a57600080fd5b8101908080519060200190929190505050156130f257600454600360009054906101000a900473ffffffffffffffffffffffffffffffffffffffff1673ffffffffffffffffffffffffffffffffffffffff1663bf131ad28a6040518263ffffffff167c010000000000000000000000000000000000000000000000000000000002815260040180828152602001915050602060405180830381600087803b158015612ed457600080fd5b505af1158015612ee8573d6000803e3d6000fd5b505050506040513d6020811015612efe57600080fd5b8101908080519060200190929190505050019750600091505b828210156130ed57600454820288019050600360009054906101000a900473ffffffffffffffffffffffffffffffffffffffff1673ffffffffffffffffffffffffffffffffffffffff1663294b4816826040518263ffffffff167c010000000000000000000000000000000000000000000000000000000002815260040180828152602001915050602060405180830381600087803b158015612fb957600080fd5b505af1158015612fcd573d6000803e3d6000fd5b505050506040513d6020811015612fe357600080fd5b8101908080519060200190929190505050600360009054906101000a900473ffffffffffffffffffffffffffffffffffffffff1673ffffffffffffffffffffffffffffffffffffffff1663294b48168a6040518263ffffffff167c010000000000000000000000000000000000000000000000000000000002815260040180828152602001915050602060405180830381600087803b15801561308557600080fd5b505af1158015613099573d6000803e3d6000fd5b505050506040513d60208110156130af57600080fd5b81019080805190602001909291905050506103e8600389028115156130d057fe5b04028115156130db57fe5b04890198508180600101925050612f17565b61310a565b6103e860038785020281151561310457fe5b04890198505b5b83806001019450506129d4565b5b889a5050505050505050505050919050565b60085481565b6000809054906101000a900473ffffffffffffffffffffffffffffffffffffffff1673ffffffffffffffffffffffffffffffffffffffff163373ffffffffffffffffffffffffffffffffffffffff1614151561318c57600080fd5b600073ffffffffffffffffffffffffffffffffffffffff168173ffffffffffffffffffffffffffffffffffffffff1614151561320357806000806101000a81548173ffffffffffffffffffffffffffffffffffffffff021916908373ffffffffffffffffffffffffffffffffffffffff1602179055505b50565b600760009054906101000a900473ffffffffffffffffffffffffffffffffffffffff1681565b600080600080600061323c613b0b565b600360009054906101000a900473ffffffffffffffffffffffffffffffffffffffff1673ffffffffffffffffffffffffffffffffffffffff1663254fbd72886040518263ffffffff167c0100000000000000000000000000000000000000000000000000000000028152600401808273ffffffffffffffffffffffffffffffffffffffff1673ffffffffffffffffffffffffffffffffffffffff168152602001915050602060405180830381600087803b1580156132f957600080fd5b505af115801561330d573d6000803e3d6000fd5b505050506040513d602081101561332357600080fd5b8101908080519060200190929190505050945060008511156135f457600360009054906101000a900473ffffffffffffffffffffffffffffffffffffffff1673ffffffffffffffffffffffffffffffffffffffff1663bf131ad2426040518263ffffffff167c010000000000000000000000000000000000000000000000000000000002815260040180828152602001915050602060405180830381600087803b1580156133d057600080fd5b505af11580156133e4573d6000803e3d6000fd5b505050506040513d60208110156133fa57600080fd5b81019080805190602001909291905050509350608060405190810160405280600081526020016000815260200160008152602001600060ff1681525090505b6001851015156135eb57600360009054906101000a900473ffffffffffffffffffffffffffffffffffffffff1673ffffffffffffffffffffffffffffffffffffffff166372e03a5c88600188036040518363ffffffff167c0100000000000000000000000000000000000000000000000000000000028152600401808373ffffffffffffffffffffffffffffffffffffffff1673ffffffffffffffffffffffffffffffffffffffff16815260200182815260200192505050608060405180830381600087803b15801561350b57600080fd5b505af115801561351f573d6000803e3d6000fd5b505050506040513d608081101561353557600080fd5b8101908080519060200190929190805190602001909291908051906020019092919080519060200190929190505050846000018560200186604001876060018460ff1660ff16815250848152508481525084815250505050508480600190039550508381600001511115156135e657600454816000015185038115156135b757fe5b04925080604001516064826060015160ff1683602001518602028115156135da57fe5b040191508195506135f9565b613439565b600095506135f9565b600095505b5050505050919050565b600080828401905083811015151561361a57600080fd5b8091505092915050565b600082821115151561363557600080fd5b818303905092915050565b6000806000600360009054906101000a900473ffffffffffffffffffffffffffffffffffffffff1673ffffffffffffffffffffffffffffffffffffffff1663d8495ac3866040518263ffffffff167c0100000000000000000000000000000000000000000000000000000000028152600401808273ffffffffffffffffffffffffffffffffffffffff1673ffffffffffffffffffffffffffffffffffffffff168152602001915050602060405180830381600087803b15801561370257600080fd5b505af1158015613716573d6000803e3d6000fd5b505050506040513d602081101561372c57600080fd5b81019080805190602001909291905050509150600090505b81811015613ae257600360009054906101000a900473ffffffffffffffffffffffffffffffffffffffff1673ffffffffffffffffffffffffffffffffffffffff16633983c66586836040518363ffffffff167c0100000000000000000000000000000000000000000000000000000000028152600401808373ffffffffffffffffffffffffffffffffffffffff1673ffffffffffffffffffffffffffffffffffffffff16815260200182815260200192505050602060405180830381600087803b15801561381157600080fd5b505af1158015613825573d6000803e3d6000fd5b505050506040513d602081101561383b57600080fd5b81019080805190602001909291905050509250600360009054906101000a900473ffffffffffffffffffffffffffffffffffffffff1673ffffffffffffffffffffffffffffffffffffffff1663057a53fc846040518263ffffffff167c0100000000000000000000000000000000000000000000000000000000028152600401808273ffffffffffffffffffffffffffffffffffffffff1673ffffffffffffffffffffffffffffffffffffffff168152602001915050600060405180830381600087803b15801561390b57600080fd5b505af115801561391f573d6000803e3d6000fd5b50505050600360009054906101000a900473ffffffffffffffffffffffffffffffffffffffff1673ffffffffffffffffffffffffffffffffffffffff1663d83a3c9584866040518363ffffffff167c0100000000000000000000000000000000000000000000000000000000028152600401808373ffffffffffffffffffffffffffffffffffffffff1673ffffffffffffffffffffffffffffffffffffffff16815260200182815260200192505050600060405180830381600087803b1580156139e857600080fd5b505af11580156139fc573d6000803e3d6000fd5b50505050600360009054906101000a900473ffffffffffffffffffffffffffffffffffffffff1673ffffffffffffffffffffffffffffffffffffffff1663d6ea1a74846040518263ffffffff167c0100000000000000000000000000000000000000000000000000000000028152600401808273ffffffffffffffffffffffffffffffffffffffff1673ffffffffffffffffffffffffffffffffffffffff168152602001915050600060405180830381600087803b158015613abd57600080fd5b505af1158015613ad1573d6000803e3d6000fd5b505050508080600101915050613744565b5050505050565b6060604051908101604052806000815260200160008152602001600081525090565b608060405190810160405280600081526020016000815260200160008152602001600060ff16815250905600a165627a7a72305820ab714f6604bbf34dacc7ff639fa8f428cd7cb9dd5f5e05d09ce24b7268d417f30029",
  "source": "pragma solidity ^0.4.23;\n/*\n *                   \n *                      KOL Community Foundation     \n *                      \n *                        \n *         \n *    Dev:Jack Koe  Special for: KOL   20200510   \n *        \n */\n\n library SafeMath {\n   function mul(uint a, uint b) internal pure  returns (uint) {\n     uint c = a * b;\n     require(a == 0 || c / a == b);\n     return c;\n   }\n   function div(uint a, uint b) internal pure returns (uint) {\n     require(b > 0);\n     uint c = a / b;\n     require(a == b * c + a % b);\n     return c;\n   }\n   function sub(uint a, uint b) internal pure returns (uint) {\n     require(b <= a);\n     return a - b;\n   }\n   function add(uint a, uint b) internal pure returns (uint) {\n     uint c = a + b;\n     require(c >= a);\n     return c;\n   }\n   function max64(uint64 a, uint64 b) internal  pure returns (uint64) {\n     return a >= b ? a : b;\n   }\n   function min64(uint64 a, uint64 b) internal  pure returns (uint64) {\n     return a < b ? a : b;\n   }\n   function max256(uint256 a, uint256 b) internal  pure returns (uint256) {\n     return a >= b ? a : b;\n   }\n   function min256(uint256 a, uint256 b) internal  pure returns (uint256) {\n     return a < b ? a : b;\n   }\n }\n\n /**\n  * title KOL Promotion Withdraw contract\n  * dev visit: https://github.com/jackoelv/KOL/\n */\n\n contract ERC20Basic {\n   uint public totalSupply;\n   function balanceOf(address who) public constant returns (uint);\n   function transfer(address to, uint value) public;\n   event Transfer(address indexed from, address indexed to, uint value);\n }\n\n contract ERC20 is ERC20Basic {\n   function allowance(address owner, address spender) public constant returns (uint);\n   function transferFrom(address from, address to, uint value) public;\n   function approve(address spender, uint value) public;\n   event Approval(address indexed owner, address indexed spender, uint value);\n }\n\n /**\n  * title KOL Promotion Withdraw contract\n  * dev visit: https://github.com/jackoelv/KOL/\n */\n\n contract BasicToken is ERC20Basic {\n\n   using SafeMath for uint;\n\n   mapping(address => uint) balances;\n\n   function transfer(address _to, uint _value) public{\n     balances[msg.sender] = balances[msg.sender].sub(_value);\n     balances[_to] = balances[_to].add(_value);\n     emit Transfer(msg.sender, _to, _value);\n   }\n\n   function balanceOf(address _owner) public constant returns (uint balance) {\n     return balances[_owner];\n   }\n }\n\n /**\n  * title KOL Promotion Withdraw contract\n  * dev visit: https://github.com/jackoelv/KOL/\n */\n\n contract StandardToken is BasicToken, ERC20 {\n   mapping (address => mapping (address => uint)) allowed;\n   uint256 public userSupplyed;\n\n   function transferFrom(address _from, address _to, uint _value) public {\n     balances[_to] = balances[_to].add(_value);\n     balances[_from] = balances[_from].sub(_value);\n     allowed[_from][msg.sender] = allowed[_from][msg.sender].sub(_value);\n     emit Transfer(_from, _to, _value);\n   }\n\n   function approve(address _spender, uint _value) public{\n     require((_value == 0) || (allowed[msg.sender][_spender] == 0)) ;\n     allowed[msg.sender][_spender] = _value;\n     emit Approval(msg.sender, _spender, _value);\n   }\n\n   function allowance(address _owner, address _spender) public constant returns (uint remaining) {\n     return allowed[_owner][_spender];\n   }\n }\n contract KOL is StandardToken {\n   function queryNode(address _addr) public view returns(bool);\n   function querySuperNode(address _addr) public view returns(bool);\n }\n contract KOLP is StandardToken {\n\n   address public draw;\n   bool public going;\n   struct lock{\n     uint256 begin;\n     uint256 amount;\n     uint256 end;\n     bool withDrawed;\n   }\n   struct teamRate{\n     uint8 rate;\n     uint256 changeTime;\n\n   }\n   struct inviteBonus{\n     uint256 begin;\n     uint256 dayBonus;\n     uint256 hisTotalBonus;\n   }\n   struct withDraws{\n     uint256 time;\n     uint256 amount;\n   }\n   struct dayTeamBonus{\n     uint256 theDayLastSecond;\n     uint256 theDayTeamBonus;\n     uint256 totalTeamBonus;\n     uint8 theDayRate;\n   }\n   struct dayInviteBonus{\n     uint256 theDayLastSecond;\n     uint256 theDayInviteBonus;\n     uint256 totalInviteBonus;\n   }\n   mapping (address => dayTeamBonus[]) public LockTeamBonus;\n   mapping (address => dayInviteBonus[]) public LockInviteBonus;\n\n\n   mapping (address => address[]) public InviteList;\n   mapping (address => address[]) public ChildAddrs;\n   mapping (address => lock[]) public LockHistory;\n   mapping (address => uint256) public LockBalance;\n\n   mapping (address => uint256) public InviteHistoryBonus;\n   mapping (address => uint256) public InviteCurrentDayBonus;\n\n   mapping (uint256 => uint256) public ClosePrice;\n   mapping (address => uint256) public TotalUsers;\n   mapping (address => uint256) public TotalLockingAmount;\n   mapping (uint256 => address) public InviteCode;\n   mapping (address => uint256) public RInviteCode;\n\n   mapping (address => uint8) public isLevelN;\n   mapping (uint8 => uint8) public levelRate;\n   mapping (address => bool) public USDTOrCoin;\n\n   //GAS\n   modifier onlyContract {\n       require(msg.sender == draw);\n       _;\n   }\n   function qsLevel(address _addr) onlyContract public;\n   /* function queryAndSetLevelN(address _addr) public; */\n   function queryLockBalance(address _addr,uint256 _queryTime) public view returns(uint256);\n   function getYestodayLastSecond(uint256 _queryTime) public view returns(uint256);\n   function clearLock(address _addr) onlyContract public ;\n   function pushInvite(address _addr,\n                       uint256 _theDayLastSecond,\n                       uint256 _theDayInviteBonus,\n                       uint256 _totalInviteBonus) onlyContract public ;\n   function setLastInvite(address _addr,\n                       uint256 _theDayInviteBonus,\n                       uint256 _totalInviteBonus) onlyContract public ;\n   function pushTeam(address _addr,\n                       uint256 _theDayLastSecond,\n                       uint256 _theDayTeamBonus,\n                       uint256 _totalTeamBonus,\n                       uint8 _theDayRate) onlyContract public ;\n   function setLastTeam(address _addr,\n                       uint256 _theDayTeamBonus,\n                       uint256 _totalTeamBonus,\n                       uint8 _theDayRate) onlyContract public ;\n\n   function subTotalUsers(address _addr) onlyContract public ;\n   function subTotalLockingAmount(address _addr,uint256 _amount) onlyContract public ;\n   function subTotalBalance(uint256 _amount) onlyContract public;\n   function getLockLen(address _addr) public view returns(uint256);\n   function getFathersLength(address _addr) public view returns(uint256);\n   function getLockTeamBonusLen(address _addr) public view returns(uint256);\n   function getLockInviteBonusLen(address _addr) public view returns(uint256);\n}\n\n /**\n  * title KOL Promotion Withdraw contract\n  * dev visit: https://github.com/jackoelv/KOL/\n */\n\n contract Ownable {\n     address public owner;\n\n     constructor() public{\n         owner = msg.sender;\n     }\n\n     modifier onlyOwner {\n         require(msg.sender == owner);\n         _;\n     }\n     function transferOwnership(address newOwner) onlyOwner public{\n         if (newOwner != address(0)) {\n             owner = newOwner;\n         }\n     }\n }\n /**\n  * title KOL Promotion Withdraw contract\n  * dev visit: https://github.com/jackoelv/KOL/\n */\ncontract KOLWithDraw is Ownable{\n  using SafeMath for uint256;\n  string public name = \"KOL Withdraw\";\n  KOL public kol;\n  KOLP public kolp;\n\n  uint256 public every = 5 minutes; //1 days;\n  uint256 public minBonus = 30 * (10 ** 18);\n  uint256 public leftBonus = 0;\n  address public reciever;\n  uint256 public etherFee = 0.005 ether;\n  uint8 public fee = 5;\n\n\n  struct dayTeamBonus{\n    uint256 theDayLastSecond;\n    uint256 theDayTeamBonus;\n    uint256 totalTeamBonus;\n    uint8 theDayRate;\n  }\n  struct dayInviteBonus{\n    uint256 theDayLastSecond;\n    uint256 theDayInviteBonus;\n    uint256 totalInviteBonus;\n  }\n\n  mapping (address => uint256) public TotalWithDraws;\n\n  mapping (address => uint256) public DrawTime;\n  event WithDrawed(address _user,uint256 _amount);\n\n  constructor(address _kolAddress,address _kolpAddress,address _reciever) public {\n    kol = KOL(_kolAddress);\n    kolp = KOLP(_kolpAddress);\n    reciever = _reciever;\n  }\n\n  function querySelfBonus(address _addr) public view returns(uint256){\n    uint256 len = kolp.getLockLen(_addr);\n    uint256 selfBonus;\n    if(len >0){\n      uint256 begin;\n      uint256 end;\n      uint256 amount;\n      bool withDrawed;\n      for (uint i=0; i<len; i++){\n        (begin,amount,end,withDrawed) = kolp.LockHistory(_addr,i);\n        if (!withDrawed){\n          if (DrawTime[_addr] > begin) begin = DrawTime[_addr];\n          uint256 lastingDays = (kolp.getYestodayLastSecond(now) - kolp.getYestodayLastSecond(begin)) / every;\n          if (kolp.USDTOrCoin(_addr)){\n            begin = kolp.getYestodayLastSecond(begin) + every;\n            for (uint j=0;j<lastingDays;j++){\n              uint256 theTime = begin + j*every;\n              selfBonus += amount * 3 / 1000 * kolp.ClosePrice(begin) / kolp.ClosePrice(theTime);\n            }\n          }else{\n            selfBonus += lastingDays * amount * 3 / 1000;\n          }\n        }\n      }\n    }\n    return (selfBonus);\n\n  }\n\n  function queryInviteBonus(address _addr) public view returns(uint256){\n    uint256 last = kolp.getLockInviteBonusLen(_addr);\n    if(last>0){\n      uint256 yestodayLastSecond = kolp.getYestodayLastSecond(now);\n      uint256 lastingDays;\n      uint256 newDayInviteTotalBonus;\n      dayInviteBonus memory theDayIB = dayInviteBonus(0,0,0);\n      while(last>=1){\n        (theDayIB.theDayLastSecond,theDayIB.theDayInviteBonus,theDayIB.totalInviteBonus) = kolp.LockInviteBonus(_addr,last-1);\n        last--;\n        if (theDayIB.theDayLastSecond <= yestodayLastSecond){\n          lastingDays = (yestodayLastSecond - theDayIB.theDayLastSecond) / every;\n          newDayInviteTotalBonus = (lastingDays * theDayIB.theDayInviteBonus) + theDayIB.totalInviteBonus;\n          return (newDayInviteTotalBonus);\n        }\n      }\n      return 0;\n    }else\n      return 0;\n  }\n  function queryTeamBonus(address _addr) public view returns(uint256){\n    uint256 last = kolp.getLockTeamBonusLen(_addr);\n    if(last>0){\n      uint256 yestodayLastSecond = kolp.getYestodayLastSecond(now);\n      uint256 lastingDays;\n      uint256 newDayTeamTotalBonus;\n      dayTeamBonus memory theDayTB =dayTeamBonus(0,0,0,0);\n      while(last>=1){\n        (theDayTB.theDayLastSecond,theDayTB.theDayTeamBonus,theDayTB.totalTeamBonus,theDayTB.theDayRate) = kolp.LockTeamBonus(_addr,last-1);\n        last--;\n        if (theDayTB.theDayLastSecond <= yestodayLastSecond){\n          lastingDays = (yestodayLastSecond - theDayTB.theDayLastSecond) / every;\n          newDayTeamTotalBonus = (lastingDays * theDayTB.theDayTeamBonus * theDayTB.theDayRate / 100 ) + theDayTB.totalTeamBonus;\n          return (newDayTeamTotalBonus);\n        }\n      }\n      return 0;\n    }else\n      return 0;\n\n  }\n  function afterWithdraw(address _addr,uint256 _amount) private {\n    address father;\n    uint256 fathersLen = kolp.getFathersLength(_addr);\n    for (uint i = 0; i<fathersLen; i++){\n      father = kolp.InviteList(_addr,i);\n      kolp.subTotalUsers(father);\n      kolp.subTotalLockingAmount(father,_amount);\n      kolp.qsLevel(father);\n    }\n\n  }\n  function withdraw(bool _onlyBonus) payable public{\n    //true: Only Bonus;false:all;\n    require(msg.value >= etherFee);\n    uint256 bonus = querySelfBonus(msg.sender);\n    DrawTime[msg.sender] = now;\n    uint256 last = kolp.getLockInviteBonusLen(msg.sender);\n    uint256 yestodayLastSecond = kolp.getYestodayLastSecond(now);\n    uint256 lastingDays;\n\n    if(last>0){\n      dayInviteBonus memory theDayIB = dayInviteBonus(0,0,0);\n      uint256 realLast = last;\n      while(realLast>=1){\n        (theDayIB.theDayLastSecond,theDayIB.theDayInviteBonus,theDayIB.totalInviteBonus) = kolp.LockInviteBonus(msg.sender,realLast-1);\n        realLast--;\n        if (theDayIB.theDayLastSecond <= yestodayLastSecond){\n          lastingDays = (yestodayLastSecond - theDayIB.theDayLastSecond) / every;\n          bonus += (lastingDays * theDayIB.theDayInviteBonus) + theDayIB.totalInviteBonus;\n          if(theDayIB.theDayLastSecond < yestodayLastSecond){\n            kolp.pushInvite(msg.sender,yestodayLastSecond,theDayIB.theDayInviteBonus,0);\n          }else if(theDayIB.theDayLastSecond == yestodayLastSecond){\n            kolp.setLastInvite(msg.sender,theDayIB.theDayInviteBonus,0);\n          }\n        }\n      }\n    }\n\n    last = kolp.getLockTeamBonusLen(msg.sender);\n\n    if(last>0){\n      dayTeamBonus memory theDayTB =dayTeamBonus(0,0,0,0);\n      while(last>=1){\n        (theDayTB.theDayLastSecond,theDayTB.theDayTeamBonus,theDayTB.totalTeamBonus,theDayTB.theDayRate) = kolp.LockTeamBonus(msg.sender,last-1);\n        last--;\n        if (theDayTB.theDayLastSecond <= yestodayLastSecond){\n          lastingDays = (yestodayLastSecond - theDayTB.theDayLastSecond) / every;\n          bonus += (lastingDays * theDayTB.theDayTeamBonus * theDayTB.theDayRate / 100 ) + theDayTB.totalTeamBonus;\n          if(theDayTB.theDayLastSecond < yestodayLastSecond){\n            kolp.pushTeam(msg.sender,yestodayLastSecond,theDayTB.theDayTeamBonus,0,theDayTB.theDayRate);\n          }else if(theDayTB.theDayLastSecond == yestodayLastSecond){\n            kolp.setLastTeam(msg.sender,theDayTB.theDayTeamBonus,0,theDayTB.theDayRate);\n          }\n        }\n      }\n\n    }\n    //\n    uint256 realBonus = bonus;\n    if (leftBonus == 0){\n      _onlyBonus = false;\n      realBonus =0;\n    }else if(bonus >= leftBonus){\n      realBonus = leftBonus;\n    }\n    leftBonus = leftBonus.sub(realBonus);\n\n    realBonus = realBonus*(100-fee)/100;\n    uint256 tax = realBonus*fee/100;\n\n    if (!_onlyBonus){\n      uint256 balance = kolp.LockBalance(msg.sender);\n      if (bonus < minBonus){\n        realBonus = balance;\n        tax = 0;\n      }else{\n        realBonus += balance;\n      }\n      kolp.subTotalBalance(balance);\n      kolp.clearLock(msg.sender);\n      afterWithdraw(msg.sender,balance);\n\n    }else{\n      require(bonus >= minBonus);\n    }\n    if (realBonus > 0) {\n      kol.transfer(msg.sender,realBonus);\n      TotalWithDraws[msg.sender] += realBonus;\n      emit WithDrawed(msg.sender,realBonus);\n    }\n    if (tax > 0) kol.transfer(reciever,tax);\n\n  }\n  function calcuAllBonus(bool _onlyBonus) public view returns(uint256){\n    //true: Only Bonus;false: balance & bonus;\n    uint256 bonus = querySelfBonus(msg.sender);\n    uint256 last = kolp.getLockInviteBonusLen(msg.sender);\n    uint256 yestodayLastSecond = kolp.getYestodayLastSecond(now);\n    uint256 lastingDays;\n\n    if(last>0){\n      dayInviteBonus memory theDayIB = dayInviteBonus(0,0,0);\n      uint256 realLast = last;\n      while(realLast>=1){\n        (theDayIB.theDayLastSecond,theDayIB.theDayInviteBonus,theDayIB.totalInviteBonus) = kolp.LockInviteBonus(msg.sender,realLast-1);\n        realLast--;\n        if (theDayIB.theDayLastSecond <= yestodayLastSecond){\n          lastingDays = (yestodayLastSecond - theDayIB.theDayLastSecond) / every;\n          bonus += (lastingDays * theDayIB.theDayInviteBonus) + theDayIB.totalInviteBonus;\n        }\n      }\n    }\n\n    last = kolp.getLockTeamBonusLen(msg.sender);\n\n    if(last>0){\n      dayTeamBonus memory theDayTB =dayTeamBonus(0,0,0,0);\n      while(last>=1){\n        (theDayTB.theDayLastSecond,theDayTB.theDayTeamBonus,theDayTB.totalTeamBonus,theDayTB.theDayRate) = kolp.LockTeamBonus(msg.sender,last-1);\n        last--;\n        if (theDayTB.theDayLastSecond <= yestodayLastSecond){\n          lastingDays = (yestodayLastSecond - theDayTB.theDayLastSecond) / every;\n          bonus += (lastingDays * theDayTB.theDayTeamBonus * theDayTB.theDayRate / 100 ) + theDayTB.totalTeamBonus;\n        }\n      }\n    }\n    if (leftBonus == 0){\n      bonus =0;\n    }else if(bonus >= leftBonus){\n      bonus = leftBonus;\n    }\n    bonus = bonus * (100-fee) /100;\n\n    if (!_onlyBonus){\n      uint256 balance = kolp.LockBalance(msg.sender);\n      bonus += balance;\n    }\n    return bonus;\n  }\n  function addBonus(uint256 _amount) onlyOwner public{\n    leftBonus = leftBonus.add(_amount);\n  }\n  /* function setWithdrawDays(uint256 _seconds) onlyOwner public{\n    withDrawDays = _seconds;\n  } */\n  /* function setDrawRate(uint8 _ra.exitte) onlyOwner public{\n    withDrawRate = _rate;\n  } */\n  function setFee(uint8 _fee) onlyOwner public{\n    fee = _fee;\n  }\n  function setKOLP(address _paddr) onlyOwner public{\n    kolp = KOLP(_paddr);\n  }\n  function draw() onlyOwner public{\n    reciever.send(address(this).balance);\n  }\n  function setetherFee(uint256 _fee) onlyOwner public{\n    etherFee = _fee;\n  }\n  function setReciever(address _reciever) onlyOwner public{\n    reciever = _reciever;\n  }\n}\n",
  "sourcePath": "/Users/jack/git/github/KOL/contracts/KOLWithDraw.sol",
  "compiler": {
    "name": "solc",
    "version": "0.4.23+commit.124ca40d.Emscripten.clang"
  },
  "schemaVersion": "3.0.19",
  "updatedAt": "2020-05-13T07:29:38.301Z",
  "networkType": "ethereum",
  "devdoc": {
    "methods": {}
  },
  "userdoc": {
    "methods": {}
  }
}