{
  "contractName": "KOLWithDraw",
  "abi": [
    {
      "constant": true,
      "inputs": [],
      "name": "name",
      "outputs": [
        {
          "name": "",
          "type": "string"
        }
      ],
      "payable": false,
      "stateMutability": "view",
      "type": "function"
    },
    {
      "constant": true,
      "inputs": [],
      "name": "comLevel2Amount",
      "outputs": [
        {
          "name": "",
          "type": "uint256"
        }
      ],
      "payable": false,
      "stateMutability": "view",
      "type": "function"
    },
    {
      "constant": true,
      "inputs": [],
      "name": "kol",
      "outputs": [
        {
          "name": "",
          "type": "address"
        }
      ],
      "payable": false,
      "stateMutability": "view",
      "type": "function"
    },
    {
      "constant": true,
      "inputs": [],
      "name": "comLevel3Amount",
      "outputs": [
        {
          "name": "",
          "type": "uint256"
        }
      ],
      "payable": false,
      "stateMutability": "view",
      "type": "function"
    },
    {
      "constant": true,
      "inputs": [
        {
          "name": "",
          "type": "address"
        }
      ],
      "name": "ForTest",
      "outputs": [
        {
          "name": "",
          "type": "uint256"
        }
      ],
      "payable": false,
      "stateMutability": "view",
      "type": "function"
    },
    {
      "constant": true,
      "inputs": [],
      "name": "comLevel1Amount",
      "outputs": [
        {
          "name": "",
          "type": "uint256"
        }
      ],
      "payable": false,
      "stateMutability": "view",
      "type": "function"
    },
    {
      "constant": true,
      "inputs": [],
      "name": "every",
      "outputs": [
        {
          "name": "",
          "type": "uint256"
        }
      ],
      "payable": false,
      "stateMutability": "view",
      "type": "function"
    },
    {
      "constant": true,
      "inputs": [
        {
          "name": "",
          "type": "address"
        }
      ],
      "name": "DrawTime",
      "outputs": [
        {
          "name": "",
          "type": "uint256"
        }
      ],
      "payable": false,
      "stateMutability": "view",
      "type": "function"
    },
    {
      "constant": true,
      "inputs": [],
      "name": "withDrawDays",
      "outputs": [
        {
          "name": "",
          "type": "uint256"
        }
      ],
      "payable": false,
      "stateMutability": "view",
      "type": "function"
    },
    {
      "constant": true,
      "inputs": [],
      "name": "kolp",
      "outputs": [
        {
          "name": "",
          "type": "address"
        }
      ],
      "payable": false,
      "stateMutability": "view",
      "type": "function"
    },
    {
      "constant": true,
      "inputs": [],
      "name": "owner",
      "outputs": [
        {
          "name": "",
          "type": "address"
        }
      ],
      "payable": false,
      "stateMutability": "view",
      "type": "function"
    },
    {
      "constant": true,
      "inputs": [
        {
          "name": "",
          "type": "address"
        }
      ],
      "name": "TotalWithDraws",
      "outputs": [
        {
          "name": "",
          "type": "uint256"
        }
      ],
      "payable": false,
      "stateMutability": "view",
      "type": "function"
    },
    {
      "constant": true,
      "inputs": [],
      "name": "withDrawRate",
      "outputs": [
        {
          "name": "",
          "type": "uint8"
        }
      ],
      "payable": false,
      "stateMutability": "view",
      "type": "function"
    },
    {
      "constant": true,
      "inputs": [],
      "name": "fee",
      "outputs": [
        {
          "name": "",
          "type": "uint8"
        }
      ],
      "payable": false,
      "stateMutability": "view",
      "type": "function"
    },
    {
      "constant": false,
      "inputs": [
        {
          "name": "newOwner",
          "type": "address"
        }
      ],
      "name": "transferOwnership",
      "outputs": [],
      "payable": false,
      "stateMutability": "nonpayable",
      "type": "function"
    },
    {
      "constant": true,
      "inputs": [],
      "name": "reciever",
      "outputs": [
        {
          "name": "",
          "type": "address"
        }
      ],
      "payable": false,
      "stateMutability": "view",
      "type": "function"
    },
    {
      "inputs": [
        {
          "name": "_kolAddress",
          "type": "address"
        },
        {
          "name": "_kolpAddress",
          "type": "address"
        },
        {
          "name": "_reciever",
          "type": "address"
        }
      ],
      "payable": false,
      "stateMutability": "nonpayable",
      "type": "constructor"
    },
    {
      "anonymous": false,
      "inputs": [
        {
          "indexed": false,
          "name": "_user",
          "type": "address"
        },
        {
          "indexed": false,
          "name": "_amount",
          "type": "uint256"
        }
      ],
      "name": "WithDrawed",
      "type": "event"
    },
    {
      "constant": true,
      "inputs": [],
      "name": "getBlockTime",
      "outputs": [
        {
          "name": "",
          "type": "uint256"
        }
      ],
      "payable": false,
      "stateMutability": "view",
      "type": "function"
    },
    {
      "constant": false,
      "inputs": [],
      "name": "setNewBlock",
      "outputs": [],
      "payable": false,
      "stateMutability": "nonpayable",
      "type": "function"
    },
    {
      "constant": false,
      "inputs": [
        {
          "name": "_addr",
          "type": "address"
        }
      ],
      "name": "setReciever",
      "outputs": [],
      "payable": false,
      "stateMutability": "nonpayable",
      "type": "function"
    },
    {
      "constant": true,
      "inputs": [
        {
          "name": "_addr",
          "type": "address"
        }
      ],
      "name": "querySelfBonus",
      "outputs": [
        {
          "name": "",
          "type": "uint256"
        }
      ],
      "payable": false,
      "stateMutability": "view",
      "type": "function"
    },
    {
      "constant": true,
      "inputs": [
        {
          "name": "_addr",
          "type": "address"
        }
      ],
      "name": "queryInviteBonus",
      "outputs": [
        {
          "name": "",
          "type": "uint256"
        }
      ],
      "payable": false,
      "stateMutability": "view",
      "type": "function"
    },
    {
      "constant": true,
      "inputs": [
        {
          "name": "_addr",
          "type": "address"
        }
      ],
      "name": "queryTeamBonus",
      "outputs": [
        {
          "name": "",
          "type": "uint256"
        }
      ],
      "payable": false,
      "stateMutability": "view",
      "type": "function"
    },
    {
      "constant": false,
      "inputs": [
        {
          "name": "_onlyBonus",
          "type": "bool"
        }
      ],
      "name": "withdraw",
      "outputs": [],
      "payable": false,
      "stateMutability": "nonpayable",
      "type": "function"
    },
    {
      "constant": true,
      "inputs": [
        {
          "name": "_onlyBonus",
          "type": "bool"
        }
      ],
      "name": "calcuAllBonus",
      "outputs": [
        {
          "name": "",
          "type": "uint256"
        }
      ],
      "payable": false,
      "stateMutability": "view",
      "type": "function"
    }
  ],
  "bytecode": "0x60806040526040805190810160405280600d81526020017f4b4f4c2050726f6d6f74696f6e000000000000000000000000000000000000008152506001908051906020019062000051929190620001a9565b5061012c6004553480156200006557600080fd5b5060405160608062003d5e833981018060405281019080805190602001909291908051906020019092919080519060200190929190505050336000806101000a81548173ffffffffffffffffffffffffffffffffffffffff021916908373ffffffffffffffffffffffffffffffffffffffff16021790555082600260006101000a81548173ffffffffffffffffffffffffffffffffffffffff021916908373ffffffffffffffffffffffffffffffffffffffff16021790555081600360006101000a81548173ffffffffffffffffffffffffffffffffffffffff021916908373ffffffffffffffffffffffffffffffffffffffff16021790555080600560006101000a81548173ffffffffffffffffffffffffffffffffffffffff021916908373ffffffffffffffffffffffffffffffffffffffff16021790555050505062000258565b828054600181600116156101000203166002900490600052602060002090601f016020900481019282601f10620001ec57805160ff19168380011785556200021d565b828001600101855582156200021d579182015b828111156200021c578251825591602001919060010190620001ff565b5b5090506200022c919062000230565b5090565b6200025591905b808211156200025157600081600090555060010162000237565b5090565b90565b613af680620002686000396000f30060806040526004361061013e576000357c0100000000000000000000000000000000000000000000000000000000900463ffffffff16806306fdde031461014357806308b7da39146101d35780630dcba2d1146101fe5780630efd766114610255578063239c8eb314610280578063275cdec3146102d75780632e6d7c9e146103025780633bc6cf47146103455780635c1f8c621461037057806360cd2f7c146103c7578063749f9f9a146103f257806387ceff09146104495780638bba3dd9146104745780638da5cb5b1461048b578063a0db86f9146104e2578063a810a54c14610525578063d2f5aa3d14610554578063d461d2f0146105ab578063d520c99d14610602578063ddca3f4314610633578063e07b86ee14610664578063f2fde38b146106bb578063f4b0b756146106fe578063f88c6c0314610755575b600080fd5b34801561014f57600080fd5b506101586107ac565b6040518080602001828103825283818151815260200191508051906020019080838360005b8381101561019857808201518184015260208101905061017d565b50505050905090810190601f1680156101c55780820380516001836020036101000a031916815260200191505b509250505060405180910390f35b3480156101df57600080fd5b506101e861084a565b6040518082815260200191505060405180910390f35b34801561020a57600080fd5b50610213610858565b604051808273ffffffffffffffffffffffffffffffffffffffff1673ffffffffffffffffffffffffffffffffffffffff16815260200191505060405180910390f35b34801561026157600080fd5b5061026a61087e565b6040518082815260200191505060405180910390f35b34801561028c57600080fd5b506102c1600480360381019080803573ffffffffffffffffffffffffffffffffffffffff16906020019092919050505061088c565b6040518082815260200191505060405180910390f35b3480156102e357600080fd5b506102ec6108a4565b6040518082815260200191505060405180910390f35b34801561030e57600080fd5b5061032f6004803603810190808035151590602001909291905050506108b2565b6040518082815260200191505060405180910390f35b34801561035157600080fd5b5061035a61105b565b6040518082815260200191505060405180910390f35b34801561037c57600080fd5b506103b1600480360381019080803573ffffffffffffffffffffffffffffffffffffffff169060200190929190505050611061565b6040518082815260200191505060405180910390f35b3480156103d357600080fd5b506103dc611079565b6040518082815260200191505060405180910390f35b3480156103fe57600080fd5b5061040761107f565b604051808273ffffffffffffffffffffffffffffffffffffffff1673ffffffffffffffffffffffffffffffffffffffff16815260200191505060405180910390f35b34801561045557600080fd5b5061045e6110a5565b6040518082815260200191505060405180910390f35b34801561048057600080fd5b506104896110ad565b005b34801561049757600080fd5b506104a06110f3565b604051808273ffffffffffffffffffffffffffffffffffffffff1673ffffffffffffffffffffffffffffffffffffffff16815260200191505060405180910390f35b3480156104ee57600080fd5b50610523600480360381019080803573ffffffffffffffffffffffffffffffffffffffff169060200190929190505050611118565b005b34801561053157600080fd5b506105526004803603810190808035151590602001909291905050506111b7565b005b34801561056057600080fd5b50610595600480360381019080803573ffffffffffffffffffffffffffffffffffffffff169060200190929190505050612155565b6040518082815260200191505060405180910390f35b3480156105b757600080fd5b506105ec600480360381019080803573ffffffffffffffffffffffffffffffffffffffff16906020019092919050505061216d565b6040518082815260200191505060405180910390f35b34801561060e57600080fd5b5061061761250c565b604051808260ff1660ff16815260200191505060405180910390f35b34801561063f57600080fd5b50610648612511565b604051808260ff1660ff16815260200191505060405180910390f35b34801561067057600080fd5b506106a5600480360381019080803573ffffffffffffffffffffffffffffffffffffffff169060200190929190505050612516565b6040518082815260200191505060405180910390f35b3480156106c757600080fd5b506106fc600480360381019080803573ffffffffffffffffffffffffffffffffffffffff169060200190929190505050612d86565b005b34801561070a57600080fd5b50610713612e5b565b604051808273ffffffffffffffffffffffffffffffffffffffff1673ffffffffffffffffffffffffffffffffffffffff16815260200191505060405180910390f35b34801561076157600080fd5b50610796600480360381019080803573ffffffffffffffffffffffffffffffffffffffff169060200190929190505050612e81565b6040518082815260200191505060405180910390f35b60018054600181600116156101000203166002900480601f0160208091040260200160405190810160405280929190818152602001828054600181600116156101000203166002900480156108425780601f1061081757610100808354040283529160200191610842565b820191906000526020600020905b81548152906001019060200180831161082557829003601f168201915b505050505081565b69065a4da25d3016c0000081565b600260009054906101000a900473ffffffffffffffffffffffffffffffffffffffff1681565b690a968163f0a57b40000081565b60086020528060005260406000206000915090505481565b69021e19e0c9bab240000081565b60008060008060006108c2613a7c565b60006108cc613a9e565b60006108d733612516565b9750600360009054906101000a900473ffffffffffffffffffffffffffffffffffffffff1673ffffffffffffffffffffffffffffffffffffffff1663312b43ad336040518263ffffffff167c0100000000000000000000000000000000000000000000000000000000028152600401808273ffffffffffffffffffffffffffffffffffffffff1673ffffffffffffffffffffffffffffffffffffffff168152602001915050602060405180830381600087803b15801561099657600080fd5b505af11580156109aa573d6000803e3d6000fd5b505050506040513d60208110156109c057600080fd5b81019080805190602001909291905050509650600360009054906101000a900473ffffffffffffffffffffffffffffffffffffffff1673ffffffffffffffffffffffffffffffffffffffff1663bf131ad2426040518263ffffffff167c010000000000000000000000000000000000000000000000000000000002815260040180828152602001915050602060405180830381600087803b158015610a6457600080fd5b505af1158015610a78573d6000803e3d6000fd5b505050506040513d6020811015610a8e57600080fd5b810190808051906020019092919050505095506000871115610c4f576060604051908101604052806000815260200160008152602001600081525093508692505b600183101515610c4e57600360009054906101000a900473ffffffffffffffffffffffffffffffffffffffff1673ffffffffffffffffffffffffffffffffffffffff1663e77f912433600186036040518363ffffffff167c0100000000000000000000000000000000000000000000000000000000028152600401808373ffffffffffffffffffffffffffffffffffffffff1673ffffffffffffffffffffffffffffffffffffffff16815260200182815260200192505050606060405180830381600087803b158015610ba157600080fd5b505af1158015610bb5573d6000803e3d6000fd5b505050506040513d6060811015610bcb57600080fd5b81019080805190602001909291908051906020019092919080519060200190929190505050866000018760200188604001838152508381525083815250505050828060019003935050858460000151111515610c495760045484600001518703811515610c3457fe5b04945083604001518460200151860201880197505b610acf565b5b600360009054906101000a900473ffffffffffffffffffffffffffffffffffffffff1673ffffffffffffffffffffffffffffffffffffffff1663254fbd72336040518263ffffffff167c0100000000000000000000000000000000000000000000000000000000028152600401808273ffffffffffffffffffffffffffffffffffffffff1673ffffffffffffffffffffffffffffffffffffffff168152602001915050602060405180830381600087803b158015610d0c57600080fd5b505af1158015610d20573d6000803e3d6000fd5b505050506040513d6020811015610d3657600080fd5b810190808051906020019092919050505096506000871115610f2c57608060405190810160405280600081526020016000815260200160008152602001600060ff1681525091505b600187101515610f2b57600360009054906101000a900473ffffffffffffffffffffffffffffffffffffffff1673ffffffffffffffffffffffffffffffffffffffff166372e03a5c3360018a036040518363ffffffff167c0100000000000000000000000000000000000000000000000000000000028152600401808373ffffffffffffffffffffffffffffffffffffffff1673ffffffffffffffffffffffffffffffffffffffff16815260200182815260200192505050608060405180830381600087803b158015610e5057600080fd5b505af1158015610e64573d6000803e3d6000fd5b505050506040513d6080811015610e7a57600080fd5b8101908080519060200190929190805190602001909291908051906020019092919080519060200190929190505050856000018660200187604001886060018460ff1660ff1681525084815250848152508481525050505050868060019003975050858260000151111515610f265760045482600001518703811515610efc57fe5b04945081604001516064836060015160ff168460200151880202811515610f1f57fe5b0401880197505b610d7e565b5b6064600560640360ff168902811515610f4157fe5b04975089151561104b57600360009054906101000a900473ffffffffffffffffffffffffffffffffffffffff1673ffffffffffffffffffffffffffffffffffffffff16632a61ae19336040518263ffffffff167c0100000000000000000000000000000000000000000000000000000000028152600401808273ffffffffffffffffffffffffffffffffffffffff1673ffffffffffffffffffffffffffffffffffffffff168152602001915050602060405180830381600087803b15801561100857600080fd5b505af115801561101c573d6000803e3d6000fd5b505050506040513d602081101561103257600080fd5b8101908080519060200190929190505050905080880197505b8798505050505050505050919050565b60045481565b60076020528060005260406000206000915090505481565b6104b081565b600360009054906101000a900473ffffffffffffffffffffffffffffffffffffffff1681565b600042905090565b42600860003373ffffffffffffffffffffffffffffffffffffffff1673ffffffffffffffffffffffffffffffffffffffff16815260200190815260200160002081905550565b6000809054906101000a900473ffffffffffffffffffffffffffffffffffffffff1681565b6000809054906101000a900473ffffffffffffffffffffffffffffffffffffffff1673ffffffffffffffffffffffffffffffffffffffff163373ffffffffffffffffffffffffffffffffffffffff1614151561117357600080fd5b80600560006101000a81548173ffffffffffffffffffffffffffffffffffffffff021916908373ffffffffffffffffffffffffffffffffffffffff16021790555050565b6000806000806111c5613a7c565b60006111cf613a9e565b6000806111db33612516565b985042600760003373ffffffffffffffffffffffffffffffffffffffff1673ffffffffffffffffffffffffffffffffffffffff16815260200190815260200160002081905550600360009054906101000a900473ffffffffffffffffffffffffffffffffffffffff1673ffffffffffffffffffffffffffffffffffffffff1663312b43ad336040518263ffffffff167c0100000000000000000000000000000000000000000000000000000000028152600401808273ffffffffffffffffffffffffffffffffffffffff1673ffffffffffffffffffffffffffffffffffffffff168152602001915050602060405180830381600087803b1580156112de57600080fd5b505af11580156112f2573d6000803e3d6000fd5b505050506040513d602081101561130857600080fd5b81019080805190602001909291905050509750600360009054906101000a900473ffffffffffffffffffffffffffffffffffffffff1673ffffffffffffffffffffffffffffffffffffffff1663bf131ad2426040518263ffffffff167c010000000000000000000000000000000000000000000000000000000002815260040180828152602001915050602060405180830381600087803b1580156113ac57600080fd5b505af11580156113c0573d6000803e3d6000fd5b505050506040513d60208110156113d657600080fd5b810190808051906020019092919050505096506000881115611792576060604051908101604052806000815260200160008152602001600081525094508793505b60018410151561179157600360009054906101000a900473ffffffffffffffffffffffffffffffffffffffff1673ffffffffffffffffffffffffffffffffffffffff1663e77f912433600187036040518363ffffffff167c0100000000000000000000000000000000000000000000000000000000028152600401808373ffffffffffffffffffffffffffffffffffffffff1673ffffffffffffffffffffffffffffffffffffffff16815260200182815260200192505050606060405180830381600087803b1580156114e957600080fd5b505af11580156114fd573d6000803e3d6000fd5b505050506040513d606081101561151357600080fd5b8101908080519060200190929190805190602001909291908051906020019092919050505087600001886020018960400183815250838152508381525050505083806001900394505086856000015111151561178c576004548560000151880381151561157c57fe5b0495508460400151856020015187020189019850868560000151101561169357600360009054906101000a900473ffffffffffffffffffffffffffffffffffffffff1673ffffffffffffffffffffffffffffffffffffffff16632e39140f3389886020015160006040518563ffffffff167c0100000000000000000000000000000000000000000000000000000000028152600401808573ffffffffffffffffffffffffffffffffffffffff1673ffffffffffffffffffffffffffffffffffffffff168152602001848152602001838152602001828152602001945050505050600060405180830381600087803b15801561167657600080fd5b505af115801561168a573d6000803e3d6000fd5b5050505061178b565b868560000151141561178a57600360009054906101000a900473ffffffffffffffffffffffffffffffffffffffff1673ffffffffffffffffffffffffffffffffffffffff16631251b7a433876020015160006040518463ffffffff167c0100000000000000000000000000000000000000000000000000000000028152600401808473ffffffffffffffffffffffffffffffffffffffff1673ffffffffffffffffffffffffffffffffffffffff1681526020018381526020018281526020019350505050600060405180830381600087803b15801561177157600080fd5b505af1158015611785573d6000803e3d6000fd5b505050505b5b5b611417565b5b600360009054906101000a900473ffffffffffffffffffffffffffffffffffffffff1673ffffffffffffffffffffffffffffffffffffffff1663254fbd72336040518263ffffffff167c0100000000000000000000000000000000000000000000000000000000028152600401808273ffffffffffffffffffffffffffffffffffffffff1673ffffffffffffffffffffffffffffffffffffffff168152602001915050602060405180830381600087803b15801561184f57600080fd5b505af1158015611863573d6000803e3d6000fd5b505050506040513d602081101561187957600080fd5b810190808051906020019092919050505097506000881115611c8e57608060405190810160405280600081526020016000815260200160008152602001600060ff1681525092505b600188101515611c8d57600360009054906101000a900473ffffffffffffffffffffffffffffffffffffffff1673ffffffffffffffffffffffffffffffffffffffff166372e03a5c3360018b036040518363ffffffff167c0100000000000000000000000000000000000000000000000000000000028152600401808373ffffffffffffffffffffffffffffffffffffffff1673ffffffffffffffffffffffffffffffffffffffff16815260200182815260200192505050608060405180830381600087803b15801561199357600080fd5b505af11580156119a7573d6000803e3d6000fd5b505050506040513d60808110156119bd57600080fd5b8101908080519060200190929190805190602001909291908051906020019092919080519060200190929190505050866000018760200188604001896060018460ff1660ff1681525084815250848152508481525050505050878060019003985050868360000151111515611c885760045483600001518803811515611a3f57fe5b04955082604001516064846060015160ff168560200151890202811515611a6257fe5b0401890198508683600001511015611b7d57600360009054906101000a900473ffffffffffffffffffffffffffffffffffffffff1673ffffffffffffffffffffffffffffffffffffffff166315038e9e33898660200151600088606001516040518663ffffffff167c0100000000000000000000000000000000000000000000000000000000028152600401808673ffffffffffffffffffffffffffffffffffffffff1673ffffffffffffffffffffffffffffffffffffffff1681526020018581526020018481526020018381526020018260ff1660ff16815260200195505050505050600060405180830381600087803b158015611b6057600080fd5b505af1158015611b74573d6000803e3d6000fd5b50505050611c87565b8683600001511415611c8657600360009054906101000a900473ffffffffffffffffffffffffffffffffffffffff1673ffffffffffffffffffffffffffffffffffffffff16636f42d97f338560200151600087606001516040518563ffffffff167c0100000000000000000000000000000000000000000000000000000000028152600401808573ffffffffffffffffffffffffffffffffffffffff1673ffffffffffffffffffffffffffffffffffffffff1681526020018481526020018381526020018260ff1660ff168152602001945050505050600060405180830381600087803b158015611c6d57600080fd5b505af1158015611c81573d6000803e3d6000fd5b505050505b5b5b6118c1565b5b6064600560640360ff168a02811515611ca357fe5b0498506064600560ff168a02811515611cb857fe5b049150891515611eb557611ccb33613258565b1515611cd657600080fd5b600360009054906101000a900473ffffffffffffffffffffffffffffffffffffffff1673ffffffffffffffffffffffffffffffffffffffff16632a61ae19336040518263ffffffff167c0100000000000000000000000000000000000000000000000000000000028152600401808273ffffffffffffffffffffffffffffffffffffffff1673ffffffffffffffffffffffffffffffffffffffff168152602001915050602060405180830381600087803b158015611d9357600080fd5b505af1158015611da7573d6000803e3d6000fd5b505050506040513d6020811015611dbd57600080fd5b810190808051906020019092919050505090508089019850611ddf33826135d3565b600360009054906101000a900473ffffffffffffffffffffffffffffffffffffffff1673ffffffffffffffffffffffffffffffffffffffff16638dc73521336040518263ffffffff167c0100000000000000000000000000000000000000000000000000000000028152600401808273ffffffffffffffffffffffffffffffffffffffff1673ffffffffffffffffffffffffffffffffffffffff168152602001915050600060405180830381600087803b158015611e9c57600080fd5b505af1158015611eb0573d6000803e3d6000fd5b505050505b600260009054906101000a900473ffffffffffffffffffffffffffffffffffffffff1673ffffffffffffffffffffffffffffffffffffffff1663a9059cbb338b6040518363ffffffff167c0100000000000000000000000000000000000000000000000000000000028152600401808373ffffffffffffffffffffffffffffffffffffffff1673ffffffffffffffffffffffffffffffffffffffff16815260200182815260200192505050600060405180830381600087803b158015611f7a57600080fd5b505af1158015611f8e573d6000803e3d6000fd5b50505050600260009054906101000a900473ffffffffffffffffffffffffffffffffffffffff1673ffffffffffffffffffffffffffffffffffffffff1663a9059cbb600560009054906101000a900473ffffffffffffffffffffffffffffffffffffffff16846040518363ffffffff167c0100000000000000000000000000000000000000000000000000000000028152600401808373ffffffffffffffffffffffffffffffffffffffff1673ffffffffffffffffffffffffffffffffffffffff16815260200182815260200192505050600060405180830381600087803b15801561207957600080fd5b505af115801561208d573d6000803e3d6000fd5b5050505088600660003373ffffffffffffffffffffffffffffffffffffffff1673ffffffffffffffffffffffffffffffffffffffff168152602001908152602001600020600082825401925050819055507fc674231d2496906f0e8253e960f393e2857bda5ec7294f70264e9e8eb2db476f338a604051808373ffffffffffffffffffffffffffffffffffffffff1673ffffffffffffffffffffffffffffffffffffffff1681526020018281526020019250505060405180910390a150505050505050505050565b60066020528060005260406000206000915090505481565b600080600080600061217d613a7c565b600360009054906101000a900473ffffffffffffffffffffffffffffffffffffffff1673ffffffffffffffffffffffffffffffffffffffff1663312b43ad886040518263ffffffff167c0100000000000000000000000000000000000000000000000000000000028152600401808273ffffffffffffffffffffffffffffffffffffffff1673ffffffffffffffffffffffffffffffffffffffff168152602001915050602060405180830381600087803b15801561223a57600080fd5b505af115801561224e573d6000803e3d6000fd5b505050506040513d602081101561226457600080fd5b8101908080519060200190929190505050945060008511156124fd57600360009054906101000a900473ffffffffffffffffffffffffffffffffffffffff1673ffffffffffffffffffffffffffffffffffffffff1663bf131ad2426040518263ffffffff167c010000000000000000000000000000000000000000000000000000000002815260040180828152602001915050602060405180830381600087803b15801561231157600080fd5b505af1158015612325573d6000803e3d6000fd5b505050506040513d602081101561233b57600080fd5b810190808051906020019092919050505093506060604051908101604052806000815260200160008152602001600081525090505b6001851015156124f457600360009054906101000a900473ffffffffffffffffffffffffffffffffffffffff1673ffffffffffffffffffffffffffffffffffffffff1663e77f912488600188036040518363ffffffff167c0100000000000000000000000000000000000000000000000000000000028152600401808373ffffffffffffffffffffffffffffffffffffffff1673ffffffffffffffffffffffffffffffffffffffff16815260200182815260200192505050606060405180830381600087803b15801561244257600080fd5b505af1158015612456573d6000803e3d6000fd5b505050506040513d606081101561246c57600080fd5b810190808051906020019092919080519060200190929190805190602001909291905050508360000184602001856040018381525083815250838152505050508480600190039550508381600001511115156124ef57600454816000015185038115156124d557fe5b049250806040015181602001518402019150819550612502565b612370565b60009550612502565b600095505b5050505050919050565b600581565b600581565b6000806000806000806000806000806000600360009054906101000a900473ffffffffffffffffffffffffffffffffffffffff1673ffffffffffffffffffffffffffffffffffffffff1663c93ae0fc8d6040518263ffffffff167c0100000000000000000000000000000000000000000000000000000000028152600401808273ffffffffffffffffffffffffffffffffffffffff1673ffffffffffffffffffffffffffffffffffffffff168152602001915050602060405180830381600087803b1580156125e457600080fd5b505af11580156125f8573d6000803e3d6000fd5b505050506040513d602081101561260e57600080fd5b8101908080519060200190929190505050995060008a1115612d7457600093505b89841015612d7357600360009054906101000a900473ffffffffffffffffffffffffffffffffffffffff1673ffffffffffffffffffffffffffffffffffffffff16632253d3818d866040518363ffffffff167c0100000000000000000000000000000000000000000000000000000000028152600401808373ffffffffffffffffffffffffffffffffffffffff1673ffffffffffffffffffffffffffffffffffffffff16815260200182815260200192505050608060405180830381600087803b1580156126fc57600080fd5b505af1158015612710573d6000803e3d6000fd5b505050506040513d608081101561272657600080fd5b8101908080519060200190929190805190602001909291908051906020019092919080519060200190929190505050809850819a50829950839b5050505050841515612d665787600760008e73ffffffffffffffffffffffffffffffffffffffff1673ffffffffffffffffffffffffffffffffffffffff1681526020019081526020016000205411156127f657600760008d73ffffffffffffffffffffffffffffffffffffffff1673ffffffffffffffffffffffffffffffffffffffff1681526020019081526020016000205497505b600454600360009054906101000a900473ffffffffffffffffffffffffffffffffffffffff1673ffffffffffffffffffffffffffffffffffffffff1663bf131ad28a6040518263ffffffff167c010000000000000000000000000000000000000000000000000000000002815260040180828152602001915050602060405180830381600087803b15801561288a57600080fd5b505af115801561289e573d6000803e3d6000fd5b505050506040513d60208110156128b457600080fd5b8101908080519060200190929190505050600360009054906101000a900473ffffffffffffffffffffffffffffffffffffffff1673ffffffffffffffffffffffffffffffffffffffff1663bf131ad2426040518263ffffffff167c010000000000000000000000000000000000000000000000000000000002815260040180828152602001915050602060405180830381600087803b15801561295657600080fd5b505af115801561296a573d6000803e3d6000fd5b505050506040513d602081101561298057600080fd5b81019080805190602001909291905050500381151561299b57fe5b049250600360009054906101000a900473ffffffffffffffffffffffffffffffffffffffff1673ffffffffffffffffffffffffffffffffffffffff16632f63c3658d6040518263ffffffff167c0100000000000000000000000000000000000000000000000000000000028152600401808273ffffffffffffffffffffffffffffffffffffffff1673ffffffffffffffffffffffffffffffffffffffff168152602001915050602060405180830381600087803b158015612a5b57600080fd5b505af1158015612a6f573d6000803e3d6000fd5b505050506040513d6020811015612a8557600080fd5b810190808051906020019092919050505015612d4d57600454600360009054906101000a900473ffffffffffffffffffffffffffffffffffffffff1673ffffffffffffffffffffffffffffffffffffffff1663bf131ad28a6040518263ffffffff167c010000000000000000000000000000000000000000000000000000000002815260040180828152602001915050602060405180830381600087803b158015612b2f57600080fd5b505af1158015612b43573d6000803e3d6000fd5b505050506040513d6020811015612b5957600080fd5b8101908080519060200190929190505050019750600091505b82821015612d4857600454820288019050600360009054906101000a900473ffffffffffffffffffffffffffffffffffffffff1673ffffffffffffffffffffffffffffffffffffffff1663294b4816826040518263ffffffff167c010000000000000000000000000000000000000000000000000000000002815260040180828152602001915050602060405180830381600087803b158015612c1457600080fd5b505af1158015612c28573d6000803e3d6000fd5b505050506040513d6020811015612c3e57600080fd5b8101908080519060200190929190505050600360009054906101000a900473ffffffffffffffffffffffffffffffffffffffff1673ffffffffffffffffffffffffffffffffffffffff1663294b48168a6040518263ffffffff167c010000000000000000000000000000000000000000000000000000000002815260040180828152602001915050602060405180830381600087803b158015612ce057600080fd5b505af1158015612cf4573d6000803e3d6000fd5b505050506040513d6020811015612d0a57600080fd5b81019080805190602001909291905050506103e860038902811515612d2b57fe5b0402811515612d3657fe5b04890198508180600101925050612b72565b612d65565b6103e8600387850202811515612d5f57fe5b04890198505b5b838060010194505061262f565b5b889a5050505050505050505050919050565b6000809054906101000a900473ffffffffffffffffffffffffffffffffffffffff1673ffffffffffffffffffffffffffffffffffffffff163373ffffffffffffffffffffffffffffffffffffffff16141515612de157600080fd5b600073ffffffffffffffffffffffffffffffffffffffff168173ffffffffffffffffffffffffffffffffffffffff16141515612e5857806000806101000a81548173ffffffffffffffffffffffffffffffffffffffff021916908373ffffffffffffffffffffffffffffffffffffffff1602179055505b50565b600560009054906101000a900473ffffffffffffffffffffffffffffffffffffffff1681565b6000806000806000612e91613a9e565b600360009054906101000a900473ffffffffffffffffffffffffffffffffffffffff1673ffffffffffffffffffffffffffffffffffffffff1663254fbd72886040518263ffffffff167c0100000000000000000000000000000000000000000000000000000000028152600401808273ffffffffffffffffffffffffffffffffffffffff1673ffffffffffffffffffffffffffffffffffffffff168152602001915050602060405180830381600087803b158015612f4e57600080fd5b505af1158015612f62573d6000803e3d6000fd5b505050506040513d6020811015612f7857600080fd5b81019080805190602001909291905050509450600085111561324957600360009054906101000a900473ffffffffffffffffffffffffffffffffffffffff1673ffffffffffffffffffffffffffffffffffffffff1663bf131ad2426040518263ffffffff167c010000000000000000000000000000000000000000000000000000000002815260040180828152602001915050602060405180830381600087803b15801561302557600080fd5b505af1158015613039573d6000803e3d6000fd5b505050506040513d602081101561304f57600080fd5b81019080805190602001909291905050509350608060405190810160405280600081526020016000815260200160008152602001600060ff1681525090505b60018510151561324057600360009054906101000a900473ffffffffffffffffffffffffffffffffffffffff1673ffffffffffffffffffffffffffffffffffffffff166372e03a5c88600188036040518363ffffffff167c0100000000000000000000000000000000000000000000000000000000028152600401808373ffffffffffffffffffffffffffffffffffffffff1673ffffffffffffffffffffffffffffffffffffffff16815260200182815260200192505050608060405180830381600087803b15801561316057600080fd5b505af1158015613174573d6000803e3d6000fd5b505050506040513d608081101561318a57600080fd5b8101908080519060200190929190805190602001909291908051906020019092919080519060200190929190505050846000018560200186604001876060018460ff1660ff168152508481525084815250848152505050505084806001900395505083816000015111151561323b576004548160000151850381151561320c57fe5b04925080604001516064826060015160ff16836020015186020281151561322f57fe5b0401915081955061324e565b61308e565b6000955061324e565b600095505b5050505050919050565b600080600080600080600080600360009054906101000a900473ffffffffffffffffffffffffffffffffffffffff1673ffffffffffffffffffffffffffffffffffffffff16631ecf396d8a6040518263ffffffff167c0100000000000000000000000000000000000000000000000000000000028152600401808273ffffffffffffffffffffffffffffffffffffffff1673ffffffffffffffffffffffffffffffffffffffff168152602001915050602060405180830381600087803b15801561332157600080fd5b505af1158015613335573d6000803e3d6000fd5b505050506040513d602081101561334b57600080fd5b81019080805190602001909291905050509650600560ff16600360009054906101000a900473ffffffffffffffffffffffffffffffffffffffff1673ffffffffffffffffffffffffffffffffffffffff16632a61ae198b6040518263ffffffff167c0100000000000000000000000000000000000000000000000000000000028152600401808273ffffffffffffffffffffffffffffffffffffffff1673ffffffffffffffffffffffffffffffffffffffff168152602001915050602060405180830381600087803b15801561342057600080fd5b505af1158015613434573d6000803e3d6000fd5b505050506040513d602081101561344a57600080fd5b8101908080519060200190929190505050029550600086141561347057600097506135c7565b600360009054906101000a900473ffffffffffffffffffffffffffffffffffffffff1673ffffffffffffffffffffffffffffffffffffffff16632253d3818a60006040518363ffffffff167c0100000000000000000000000000000000000000000000000000000000028152600401808373ffffffffffffffffffffffffffffffffffffffff1673ffffffffffffffffffffffffffffffffffffffff16815260200182815260200192505050608060405180830381600087803b15801561353657600080fd5b505af115801561354a573d6000803e3d6000fd5b505050506040513d608081101561356057600080fd5b810190808051906020019092919080519060200190929190805190602001909291908051906020019092919050505080955081965082975083985050505050844203905086861115806135b457506104b081115b156135c257600197506135c7565b600097505b50505050505050919050565b6000806000600360009054906101000a900473ffffffffffffffffffffffffffffffffffffffff1673ffffffffffffffffffffffffffffffffffffffff1663d8495ac3866040518263ffffffff167c0100000000000000000000000000000000000000000000000000000000028152600401808273ffffffffffffffffffffffffffffffffffffffff1673ffffffffffffffffffffffffffffffffffffffff168152602001915050602060405180830381600087803b15801561369557600080fd5b505af11580156136a9573d6000803e3d6000fd5b505050506040513d60208110156136bf57600080fd5b81019080805190602001909291905050509150600090505b81811015613a7557600360009054906101000a900473ffffffffffffffffffffffffffffffffffffffff1673ffffffffffffffffffffffffffffffffffffffff16633983c66586836040518363ffffffff167c0100000000000000000000000000000000000000000000000000000000028152600401808373ffffffffffffffffffffffffffffffffffffffff1673ffffffffffffffffffffffffffffffffffffffff16815260200182815260200192505050602060405180830381600087803b1580156137a457600080fd5b505af11580156137b8573d6000803e3d6000fd5b505050506040513d60208110156137ce57600080fd5b81019080805190602001909291905050509250600360009054906101000a900473ffffffffffffffffffffffffffffffffffffffff1673ffffffffffffffffffffffffffffffffffffffff1663057a53fc846040518263ffffffff167c0100000000000000000000000000000000000000000000000000000000028152600401808273ffffffffffffffffffffffffffffffffffffffff1673ffffffffffffffffffffffffffffffffffffffff168152602001915050600060405180830381600087803b15801561389e57600080fd5b505af11580156138b2573d6000803e3d6000fd5b50505050600360009054906101000a900473ffffffffffffffffffffffffffffffffffffffff1673ffffffffffffffffffffffffffffffffffffffff1663d83a3c9584866040518363ffffffff167c0100000000000000000000000000000000000000000000000000000000028152600401808373ffffffffffffffffffffffffffffffffffffffff1673ffffffffffffffffffffffffffffffffffffffff16815260200182815260200192505050600060405180830381600087803b15801561397b57600080fd5b505af115801561398f573d6000803e3d6000fd5b50505050600360009054906101000a900473ffffffffffffffffffffffffffffffffffffffff1673ffffffffffffffffffffffffffffffffffffffff1663d7320563846040518263ffffffff167c0100000000000000000000000000000000000000000000000000000000028152600401808273ffffffffffffffffffffffffffffffffffffffff1673ffffffffffffffffffffffffffffffffffffffff168152602001915050600060405180830381600087803b158015613a5057600080fd5b505af1158015613a64573d6000803e3d6000fd5b5050505080806001019150506136d7565b5050505050565b6060604051908101604052806000815260200160008152602001600081525090565b608060405190810160405280600081526020016000815260200160008152602001600060ff16815250905600a165627a7a72305820333f0e4a0b234e8a05d5711913817be6bf413a4ef31209a5cffb36e0a7c0db000029",
  "source": "pragma solidity ^0.4.23;\n/*\n *                   \n *                      KOL Community Foundation     \n *                      \n *                        \n *         \n *    Dev:Jack Koe  Special for: KOL   20200422   \n *        \n */\n\n library SafeMath {\n   function mul(uint a, uint b) internal pure  returns (uint) {\n     uint c = a * b;\n     require(a == 0 || c / a == b);\n     return c;\n   }\n   function div(uint a, uint b) internal pure returns (uint) {\n     require(b > 0);\n     uint c = a / b;\n     require(a == b * c + a % b);\n     return c;\n   }\n   function sub(uint a, uint b) internal pure returns (uint) {\n     require(b <= a);\n     return a - b;\n   }\n   function add(uint a, uint b) internal pure returns (uint) {\n     uint c = a + b;\n     require(c >= a);\n     return c;\n   }\n   function max64(uint64 a, uint64 b) internal  pure returns (uint64) {\n     return a >= b ? a : b;\n   }\n   function min64(uint64 a, uint64 b) internal  pure returns (uint64) {\n     return a < b ? a : b;\n   }\n   function max256(uint256 a, uint256 b) internal  pure returns (uint256) {\n     return a >= b ? a : b;\n   }\n   function min256(uint256 a, uint256 b) internal  pure returns (uint256) {\n     return a < b ? a : b;\n   }\n }\n\n /**\n  * title KOL Promotion Withdraw contract\n  * dev visit: https://github.com/jackoelv/KOL/\n */\n\n contract ERC20Basic {\n   uint public totalSupply;\n   function balanceOf(address who) public constant returns (uint);\n   function transfer(address to, uint value) public;\n   event Transfer(address indexed from, address indexed to, uint value);\n }\n\n contract ERC20 is ERC20Basic {\n   function allowance(address owner, address spender) public constant returns (uint);\n   function transferFrom(address from, address to, uint value) public;\n   function approve(address spender, uint value) public;\n   event Approval(address indexed owner, address indexed spender, uint value);\n }\n\n /**\n  * title KOL Promotion Withdraw contract\n  * dev visit: https://github.com/jackoelv/KOL/\n */\n\n contract BasicToken is ERC20Basic {\n\n   using SafeMath for uint;\n\n   mapping(address => uint) balances;\n\n   function transfer(address _to, uint _value) public{\n     balances[msg.sender] = balances[msg.sender].sub(_value);\n     balances[_to] = balances[_to].add(_value);\n     emit Transfer(msg.sender, _to, _value);\n   }\n\n   function balanceOf(address _owner) public constant returns (uint balance) {\n     return balances[_owner];\n   }\n }\n\n /**\n  * title KOL Promotion Withdraw contract\n  * dev visit: https://github.com/jackoelv/KOL/\n */\n\n contract StandardToken is BasicToken, ERC20 {\n   mapping (address => mapping (address => uint)) allowed;\n   uint256 public userSupplyed;\n\n   function transferFrom(address _from, address _to, uint _value) public {\n     balances[_to] = balances[_to].add(_value);\n     balances[_from] = balances[_from].sub(_value);\n     allowed[_from][msg.sender] = allowed[_from][msg.sender].sub(_value);\n     emit Transfer(_from, _to, _value);\n   }\n\n   function approve(address _spender, uint _value) public{\n     require((_value == 0) || (allowed[msg.sender][_spender] == 0)) ;\n     allowed[msg.sender][_spender] = _value;\n     emit Approval(msg.sender, _spender, _value);\n   }\n\n   function allowance(address _owner, address _spender) public constant returns (uint remaining) {\n     return allowed[_owner][_spender];\n   }\n }\n contract KOL is StandardToken {\n   function queryNode(address _addr) public view returns(bool);\n   function querySuperNode(address _addr) public view returns(bool);\n }\n contract KOLP is StandardToken {\n\n   address public draw;\n   struct lock{\n     uint256 begin;\n     uint256 amount;\n     uint256 end;\n     bool withDrawed;\n   }\n   struct teamRate{\n     uint8 rate;\n     uint256 changeTime;\n\n   }\n   struct inviteBonus{\n     uint256 begin;//\n     uint256 dayBonus;//\n     uint256 hisTotalBonus;\n   }\n   struct withDraws{\n     uint256 time;\n     uint256 amount;\n   }\n   struct dayTeamBonus{\n     uint256 theDayLastSecond;\n     uint256 theDayTeamBonus;\n     uint256 totalTeamBonus;\n     uint8 theDayRate;\n   }\n   struct dayInviteBonus{\n     uint256 theDayLastSecond;\n     uint256 theDayInviteBonus;\n     uint256 totalInviteBonus;\n   }\n   mapping (address => dayTeamBonus[]) public LockTeamBonus;\n   mapping (address => dayInviteBonus[]) public LockInviteBonus;\n\n\n   mapping (address => address[]) public InviteList;\n   mapping (address => address[]) public ChildAddrs;\n   mapping (address => teamRate[]) public TeamRateList;\n   mapping (address => lock[]) public LockHistory;\n   mapping (address => uint256) public LockBalance;\n\n   mapping (address => uint256) public InviteHistoryBonus;\n   mapping (address => uint256) public InviteCurrentDayBonus;\n\n   mapping (address => address) public InviteRelation;//A=>B B is father;\n   mapping (uint256 => uint256) public ClosePrice;//\n   mapping (address => uint256) public TotalUsers;\n   mapping (address => uint256) public TotalLockingAmount;\n   mapping (uint256 => address) public InviteCode;\n   mapping (address => uint256) public RInviteCode;\n\n   mapping (address => uint8) public isLevelN;\n   mapping (uint8 => uint8) public levelRate;\n   mapping (address => bool) public USDTOrCoin;\n\n   mapping (address => bool) public contractAddr;\n\n   //GAS\n\n   event Registed(address _user,uint256 inviteCode);\n   event GradeChanged(address _user,uint8 _oldLevel,uint8 _newLevel);\n   event WithDraw(address _user,uint256 _amount);\n   event WithDrawBalance(address _user,uint256 _balance);\n   modifier onlyContract {\n       require(msg.sender == draw);\n       _;\n   }\n   function calcuDiffAmount(address _selfAddr,address _topAddr,uint256 _amount) public view returns(uint256);\n   function queryAndSetLevelN(address _addr) public;\n   function queryLockBalance(address _addr,uint256 _queryTime) public view returns(uint256);\n   function getYestodayLastSecond(uint256 _queryTime) public view returns(uint256);\n   function getHistoryTeamBonus(address _addr,uint256 _index) public view returns(uint256,uint256,uint256,uint256,uint256);\n   function getHistoryInviteBonus(address _addr,uint256 _index) public view returns(uint256,uint256,uint256,uint256);\n   function getTeamRateList(address _addr,uint256 _index) public view returns(uint256,uint256,uint256);\n   function clearLock(address _addr) onlyContract public ;\n   function pushInvite(address _addr,\n                       uint256 _theDayLastSecond,\n                       uint256 _theDayInviteBonus,\n                       uint256 _totalInviteBonus) onlyContract public ;\n   function setLastInvite(address _addr,\n                       uint256 _theDayInviteBonus,\n                       uint256 _totalInviteBonus) onlyContract public ;\n   function pushTeam(address _addr,\n                       uint256 _theDayLastSecond,\n                       uint256 _theDayTeamBonus,\n                       uint256 _totalTeamBonus,\n                       uint8 _theDayRate) onlyContract public ;\n   function setLastTeam(address _addr,\n                       uint256 _theDayTeamBonus,\n                       uint256 _totalTeamBonus,\n                       uint8 _theDayRate) onlyContract public ;\n\n   function subTotalUsers(address _addr) onlyContract public ;\n   function subTotalLockingAmount(address _addr,uint256 _amount) onlyContract public ;\n   function getLockLen(address _addr) public view returns(uint256);\n   function getFathersLength(address _addr) public view returns(uint256);\n   function getLockTeamBonusLen(address _addr) public view returns(uint256);\n   function getLockInviteBonusLen(address _addr) public view returns(uint256);\n}\n\n /**\n  * title KOL Promotion Withdraw contract\n  * dev visit: https://github.com/jackoelv/KOL/\n */\n\n contract Ownable {\n     address public owner;\n\n     constructor() public{\n         owner = msg.sender;\n     }\n\n     modifier onlyOwner {\n         require(msg.sender == owner);\n         _;\n     }\n     function transferOwnership(address newOwner) onlyOwner public{\n         if (newOwner != address(0)) {\n             owner = newOwner;\n         }\n     }\n }\n /**\n  * title KOL Promotion Withdraw contract\n  * dev visit: https://github.com/jackoelv/KOL/\n */\n //15\ncontract KOLWithDraw is Ownable{\n  using SafeMath for uint256;\n  string public name = \"KOL Promotion\";\n  KOL public kol;\n  KOLP public kolp;\n\n  uint256 public every = 5 minutes;//1 days;\n  address public reciever;\n\n  /* uint16 public constant comLevel1Users = 100;\n  uint16 public constant comLevel2Users = 300;\n  uint16 public constant comLevel3Users = 500; */\n\n  //\n  struct dayTeamBonus{\n    uint256 theDayLastSecond;\n    uint256 theDayTeamBonus;\n    uint256 totalTeamBonus;\n    uint8 theDayRate;\n  }\n  struct dayInviteBonus{\n    uint256 theDayLastSecond;\n    uint256 theDayInviteBonus;\n    uint256 totalInviteBonus;\n  }\n\n\n  uint256 public constant comLevel1Amount = 10000 * (10 ** 18);\n  uint256 public constant comLevel2Amount = 30000 * (10 ** 18);\n  uint256 public constant comLevel3Amount = 50000 * (10 ** 18);\n\n\n  uint8 public constant withDrawRate = 5;\n  uint8 public constant fee = 5;\n\n  /* uint256 public constant withDrawDays = 30 days; */\n  //5\n  uint256 public constant withDrawDays = 20 minutes;\n\n  mapping (address => uint256) public TotalWithDraws;\n\n  mapping (address => uint256) public DrawTime;\n  event WithDrawed(address _user,uint256 _amount);\n\n  constructor(address _kolAddress,address _kolpAddress,address _reciever) public {\n    kol = KOL(_kolAddress);\n    kolp = KOLP(_kolpAddress);\n    reciever = _reciever;\n  }\n  /*\n  *\n  * \n  * \n  */\n\n  mapping (address => uint256) public ForTest;\n  function getBlockTime() public view returns(uint256){\n    return now;\n  }\n  function setNewBlock() public{\n    ForTest[msg.sender] = now;\n  }\n\n  /*\n  *  \n  * \n  *\n  */\n  function setReciever(address _addr) onlyOwner public{\n    reciever = _addr;\n  }\n\n  function querySelfBonus(address _addr) public view returns(uint256){\n    uint256 len = kolp.getLockLen(_addr);\n    uint256 selfBonus;\n    if(len >0){\n      uint256 begin;\n      uint256 end;\n      uint256 amount;\n      bool withDrawed;\n      for (uint i=0; i<len; i++){\n        (begin,amount,end,withDrawed) = kolp.LockHistory(_addr,i);\n        if (!withDrawed){\n          if (DrawTime[_addr] > begin) begin = DrawTime[_addr];\n          /* begin = kolp.getYestodayLastSecond(now) + every; */\n          /* uint256 lastingDays = (now - begin) % every; */\n          /* lastingDays = (now - lastingDays - begin) / every; */\n          uint256 lastingDays = (kolp.getYestodayLastSecond(now) - kolp.getYestodayLastSecond(begin)) / every;\n          if (kolp.USDTOrCoin(_addr)){\n            begin = kolp.getYestodayLastSecond(begin) + every;\n            for (uint j=0;j<lastingDays;j++){\n              uint256 theTime = begin + j*every;\n              selfBonus += amount * 3 / 1000 * kolp.ClosePrice(begin) / kolp.ClosePrice(theTime);\n            }\n          }else{\n            selfBonus += lastingDays * amount * 3 / 1000;\n          }\n        }\n      }\n    }\n    return (selfBonus);\n\n  }\n\n  function queryInviteBonus(address _addr) public view returns(uint256){\n    uint256 last = kolp.getLockInviteBonusLen(_addr);\n    if(last>0){\n      uint256 yestodayLastSecond = kolp.getYestodayLastSecond(now);\n      uint256 lastingDays;\n      uint256 newDayInviteTotalBonus;\n      dayInviteBonus memory theDayIB = dayInviteBonus(0,0,0);\n      while(last>=1){\n        (theDayIB.theDayLastSecond,theDayIB.theDayInviteBonus,theDayIB.totalInviteBonus) = kolp.LockInviteBonus(_addr,last-1);\n        last--;\n        if (theDayIB.theDayLastSecond <= yestodayLastSecond){\n          lastingDays = (yestodayLastSecond - theDayIB.theDayLastSecond) / every;\n          newDayInviteTotalBonus = (lastingDays * theDayIB.theDayInviteBonus) + theDayIB.totalInviteBonus;\n          return (newDayInviteTotalBonus);\n        }\n      }\n      return 0;\n    }else\n      return 0;\n  }\n  function queryTeamBonus(address _addr) public view returns(uint256){\n    uint256 last = kolp.getLockTeamBonusLen(_addr);\n    if(last>0){\n      uint256 yestodayLastSecond = kolp.getYestodayLastSecond(now);\n      uint256 lastingDays;\n      uint256 newDayTeamTotalBonus;\n      dayTeamBonus memory theDayTB =dayTeamBonus(0,0,0,0);\n      while(last>=1){\n        (theDayTB.theDayLastSecond,theDayTB.theDayTeamBonus,theDayTB.totalTeamBonus,theDayTB.theDayRate) = kolp.LockTeamBonus(_addr,last-1);\n        last--;\n        if (theDayTB.theDayLastSecond <= yestodayLastSecond){\n          lastingDays = (yestodayLastSecond - theDayTB.theDayLastSecond) / every;\n          newDayTeamTotalBonus = (lastingDays * theDayTB.theDayTeamBonus * theDayTB.theDayRate / 100 ) + theDayTB.totalTeamBonus;\n          return (newDayTeamTotalBonus);\n        }\n      }\n      return 0;\n    }else\n      return 0;\n\n  }\n  function afterWithdraw(address _addr,uint256 _amount) internal {\n    //\n    address father;\n    uint256 fathersLen = kolp.getFathersLength(_addr);\n    for (uint i = 0; i<fathersLen; i++){\n      father = kolp.InviteList(_addr,i);\n      kolp.subTotalUsers(father);\n      kolp.subTotalLockingAmount(father,_amount);\n      kolp.queryAndSetLevelN(father);\n    }\n\n  }\n  function checkDraw(address _addr) private view returns(bool) {\n    uint256 teamAmount = kolp.TotalLockingAmount(_addr) ;\n    uint256 myBalance = kolp.LockBalance(_addr) * withDrawRate;\n    if (myBalance == 0) return false;\n    uint256 myBegin;\n    uint256 amount;\n    uint256 end;\n    bool withDrawed;\n    ( myBegin, amount, end, withDrawed) = kolp.LockHistory(_addr,0);\n    uint256 diff = now - myBegin;\n    if ((myBalance <= teamAmount) || (diff > withDrawDays)) {\n      return true;\n    }else{\n      return false;\n    }\n\n  }\n  function withdraw(bool _onlyBonus) public{\n    //true: Only Bonus;false:all;\n    uint256 bonus = querySelfBonus(msg.sender);\n    DrawTime[msg.sender] = now;\n    uint256 last = kolp.getLockInviteBonusLen(msg.sender);\n    uint256 yestodayLastSecond = kolp.getYestodayLastSecond(now);\n    uint256 lastingDays;\n\n    if(last>0){\n      dayInviteBonus memory theDayIB = dayInviteBonus(0,0,0);\n      uint256 realLast = last;\n      while(realLast>=1){\n        (theDayIB.theDayLastSecond,theDayIB.theDayInviteBonus,theDayIB.totalInviteBonus) = kolp.LockInviteBonus(msg.sender,realLast-1);\n        realLast--;\n        if (theDayIB.theDayLastSecond <= yestodayLastSecond){\n          lastingDays = (yestodayLastSecond - theDayIB.theDayLastSecond) / every;\n          bonus += (lastingDays * theDayIB.theDayInviteBonus) + theDayIB.totalInviteBonus;\n          if(theDayIB.theDayLastSecond < yestodayLastSecond){\n            kolp.pushInvite(msg.sender,yestodayLastSecond,theDayIB.theDayInviteBonus,0);\n          }else if(theDayIB.theDayLastSecond == yestodayLastSecond){\n            kolp.setLastInvite(msg.sender,theDayIB.theDayInviteBonus,0);\n          }\n        }\n      }\n    }\n\n    last = kolp.getLockTeamBonusLen(msg.sender);\n\n    if(last>0){\n      dayTeamBonus memory theDayTB =dayTeamBonus(0,0,0,0);\n      while(last>=1){\n        (theDayTB.theDayLastSecond,theDayTB.theDayTeamBonus,theDayTB.totalTeamBonus,theDayTB.theDayRate) = kolp.LockTeamBonus(msg.sender,last-1);\n        last--;\n        if (theDayTB.theDayLastSecond <= yestodayLastSecond){\n          lastingDays = (yestodayLastSecond - theDayTB.theDayLastSecond) / every;\n          bonus += (lastingDays * theDayTB.theDayTeamBonus * theDayTB.theDayRate / 100 ) + theDayTB.totalTeamBonus;\n          if(theDayTB.theDayLastSecond < yestodayLastSecond){\n            kolp.pushTeam(msg.sender,yestodayLastSecond,theDayTB.theDayTeamBonus,0,theDayTB.theDayRate);\n          }else if(theDayTB.theDayLastSecond == yestodayLastSecond){\n            kolp.setLastTeam(msg.sender,theDayTB.theDayTeamBonus,0,theDayTB.theDayRate);\n          }\n        }\n      }\n\n    }\n    bonus=bonus*(100-fee)/100;\n    uint256 tax = bonus*fee/100;\n    if (!_onlyBonus){\n      require(checkDraw(msg.sender));\n      uint256 balance = kolp.LockBalance(msg.sender);\n      bonus += balance;\n      afterWithdraw(msg.sender,balance);\n      kolp.clearLock(msg.sender);\n    }\n    kol.transfer(msg.sender,bonus);\n    kol.transfer(reciever,tax);\n    TotalWithDraws[msg.sender] += bonus;\n    emit WithDrawed(msg.sender,bonus);\n  }\n  function calcuAllBonus(bool _onlyBonus) public view returns(uint256){\n    //true: Only Bonus;false:all;\n    uint256 bonus = querySelfBonus(msg.sender);\n    uint256 last = kolp.getLockInviteBonusLen(msg.sender);\n    uint256 yestodayLastSecond = kolp.getYestodayLastSecond(now);\n    uint256 lastingDays;\n\n    if(last>0){\n      dayInviteBonus memory theDayIB = dayInviteBonus(0,0,0);\n      uint256 realLast = last;\n      while(realLast>=1){\n        (theDayIB.theDayLastSecond,theDayIB.theDayInviteBonus,theDayIB.totalInviteBonus) = kolp.LockInviteBonus(msg.sender,realLast-1);\n        realLast--;\n        if (theDayIB.theDayLastSecond <= yestodayLastSecond){\n          lastingDays = (yestodayLastSecond - theDayIB.theDayLastSecond) / every;\n          bonus += (lastingDays * theDayIB.theDayInviteBonus) + theDayIB.totalInviteBonus;\n        }\n      }\n    }\n\n    last = kolp.getLockTeamBonusLen(msg.sender);\n\n    if(last>0){\n      dayTeamBonus memory theDayTB =dayTeamBonus(0,0,0,0);\n      while(last>=1){\n        (theDayTB.theDayLastSecond,theDayTB.theDayTeamBonus,theDayTB.totalTeamBonus,theDayTB.theDayRate) = kolp.LockTeamBonus(msg.sender,last-1);\n        last--;\n        if (theDayTB.theDayLastSecond <= yestodayLastSecond){\n          lastingDays = (yestodayLastSecond - theDayTB.theDayLastSecond) / every;\n          bonus += (lastingDays * theDayTB.theDayTeamBonus * theDayTB.theDayRate / 100 ) + theDayTB.totalTeamBonus;\n        }\n      }\n    }\n\n    bonus = bonus * (100-fee) /100;\n\n    if (!_onlyBonus){\n      uint256 balance = kolp.LockBalance(msg.sender);\n      bonus += balance;\n    }\n    return bonus;\n  }\n}\n",
  "sourcePath": "/Users/jack/git/github/KOL/contracts/KOLWithDraw.sol",
  "compiler": {
    "name": "solc",
    "version": "0.4.23+commit.124ca40d.Emscripten.clang"
  },
  "schemaVersion": "3.0.19",
  "updatedAt": "2020-05-09T10:24:01.608Z",
  "networkType": "ethereum",
  "devdoc": {
    "methods": {}
  },
  "userdoc": {
    "methods": {}
  }
}