{
  "contractName": "KOLWithDraw",
  "abi": [
    {
      "constant": true,
      "inputs": [],
      "name": "name",
      "outputs": [
        {
          "name": "",
          "type": "string"
        }
      ],
      "payable": false,
      "stateMutability": "view",
      "type": "function"
    },
    {
      "constant": true,
      "inputs": [],
      "name": "comLevel2Amount",
      "outputs": [
        {
          "name": "",
          "type": "uint256"
        }
      ],
      "payable": false,
      "stateMutability": "view",
      "type": "function"
    },
    {
      "constant": true,
      "inputs": [],
      "name": "kol",
      "outputs": [
        {
          "name": "",
          "type": "address"
        }
      ],
      "payable": false,
      "stateMutability": "view",
      "type": "function"
    },
    {
      "constant": true,
      "inputs": [],
      "name": "comLevel3Amount",
      "outputs": [
        {
          "name": "",
          "type": "uint256"
        }
      ],
      "payable": false,
      "stateMutability": "view",
      "type": "function"
    },
    {
      "constant": true,
      "inputs": [
        {
          "name": "",
          "type": "address"
        }
      ],
      "name": "ForTest",
      "outputs": [
        {
          "name": "",
          "type": "uint256"
        }
      ],
      "payable": false,
      "stateMutability": "view",
      "type": "function"
    },
    {
      "constant": true,
      "inputs": [],
      "name": "comLevel1Amount",
      "outputs": [
        {
          "name": "",
          "type": "uint256"
        }
      ],
      "payable": false,
      "stateMutability": "view",
      "type": "function"
    },
    {
      "constant": true,
      "inputs": [],
      "name": "every",
      "outputs": [
        {
          "name": "",
          "type": "uint256"
        }
      ],
      "payable": false,
      "stateMutability": "view",
      "type": "function"
    },
    {
      "constant": true,
      "inputs": [
        {
          "name": "",
          "type": "address"
        }
      ],
      "name": "DrawTime",
      "outputs": [
        {
          "name": "",
          "type": "uint256"
        }
      ],
      "payable": false,
      "stateMutability": "view",
      "type": "function"
    },
    {
      "constant": true,
      "inputs": [],
      "name": "withDrawDays",
      "outputs": [
        {
          "name": "",
          "type": "uint256"
        }
      ],
      "payable": false,
      "stateMutability": "view",
      "type": "function"
    },
    {
      "constant": true,
      "inputs": [],
      "name": "kolp",
      "outputs": [
        {
          "name": "",
          "type": "address"
        }
      ],
      "payable": false,
      "stateMutability": "view",
      "type": "function"
    },
    {
      "constant": true,
      "inputs": [],
      "name": "owner",
      "outputs": [
        {
          "name": "",
          "type": "address"
        }
      ],
      "payable": false,
      "stateMutability": "view",
      "type": "function"
    },
    {
      "constant": true,
      "inputs": [
        {
          "name": "",
          "type": "address"
        }
      ],
      "name": "TotalWithDraws",
      "outputs": [
        {
          "name": "",
          "type": "uint256"
        }
      ],
      "payable": false,
      "stateMutability": "view",
      "type": "function"
    },
    {
      "constant": true,
      "inputs": [],
      "name": "withDrawRate",
      "outputs": [
        {
          "name": "",
          "type": "uint8"
        }
      ],
      "payable": false,
      "stateMutability": "view",
      "type": "function"
    },
    {
      "constant": true,
      "inputs": [],
      "name": "fee",
      "outputs": [
        {
          "name": "",
          "type": "uint8"
        }
      ],
      "payable": false,
      "stateMutability": "view",
      "type": "function"
    },
    {
      "constant": false,
      "inputs": [
        {
          "name": "newOwner",
          "type": "address"
        }
      ],
      "name": "transferOwnership",
      "outputs": [],
      "payable": false,
      "stateMutability": "nonpayable",
      "type": "function"
    },
    {
      "inputs": [
        {
          "name": "_kolAddress",
          "type": "address"
        },
        {
          "name": "_kolpAddress",
          "type": "address"
        }
      ],
      "payable": false,
      "stateMutability": "nonpayable",
      "type": "constructor"
    },
    {
      "anonymous": false,
      "inputs": [
        {
          "indexed": false,
          "name": "_user",
          "type": "address"
        },
        {
          "indexed": false,
          "name": "_amount",
          "type": "uint256"
        }
      ],
      "name": "WithDrawed",
      "type": "event"
    },
    {
      "constant": true,
      "inputs": [],
      "name": "getBlockTime",
      "outputs": [
        {
          "name": "",
          "type": "uint256"
        }
      ],
      "payable": false,
      "stateMutability": "view",
      "type": "function"
    },
    {
      "constant": false,
      "inputs": [],
      "name": "setNewBlock",
      "outputs": [],
      "payable": false,
      "stateMutability": "nonpayable",
      "type": "function"
    },
    {
      "constant": true,
      "inputs": [
        {
          "name": "_addr",
          "type": "address"
        }
      ],
      "name": "querySelfBonus",
      "outputs": [
        {
          "name": "",
          "type": "uint256"
        }
      ],
      "payable": false,
      "stateMutability": "view",
      "type": "function"
    },
    {
      "constant": true,
      "inputs": [
        {
          "name": "_addr",
          "type": "address"
        }
      ],
      "name": "queryInviteBonus",
      "outputs": [
        {
          "name": "",
          "type": "uint256"
        }
      ],
      "payable": false,
      "stateMutability": "view",
      "type": "function"
    },
    {
      "constant": true,
      "inputs": [
        {
          "name": "_addr",
          "type": "address"
        }
      ],
      "name": "queryTeamBonus",
      "outputs": [
        {
          "name": "",
          "type": "uint256"
        }
      ],
      "payable": false,
      "stateMutability": "view",
      "type": "function"
    },
    {
      "constant": false,
      "inputs": [
        {
          "name": "_onlyBonus",
          "type": "bool"
        }
      ],
      "name": "withdraw",
      "outputs": [],
      "payable": false,
      "stateMutability": "nonpayable",
      "type": "function"
    },
    {
      "constant": true,
      "inputs": [
        {
          "name": "_addr",
          "type": "address"
        }
      ],
      "name": "wokao",
      "outputs": [
        {
          "name": "",
          "type": "address"
        },
        {
          "name": "",
          "type": "uint256"
        }
      ],
      "payable": false,
      "stateMutability": "view",
      "type": "function"
    },
    {
      "constant": true,
      "inputs": [],
      "name": "testcal",
      "outputs": [
        {
          "name": "",
          "type": "address"
        },
        {
          "name": "",
          "type": "address"
        },
        {
          "name": "",
          "type": "uint256"
        }
      ],
      "payable": false,
      "stateMutability": "view",
      "type": "function"
    },
    {
      "constant": true,
      "inputs": [
        {
          "name": "_onlyBonus",
          "type": "bool"
        }
      ],
      "name": "calcuAllBonus",
      "outputs": [
        {
          "name": "",
          "type": "uint256"
        }
      ],
      "payable": false,
      "stateMutability": "view",
      "type": "function"
    }
  ],
  "bytecode": "0x60806040526040805190810160405280600d81526020017f4b4f4c2050726f6d6f74696f6e0000000000000000000000000000000000000081525060019080519060200190620000519291906200015c565b50603c6004553480156200006457600080fd5b5060405160408062003b3a8339810180604052810190808051906020019092919080519060200190929190505050336000806101000a81548173ffffffffffffffffffffffffffffffffffffffff021916908373ffffffffffffffffffffffffffffffffffffffff16021790555081600260006101000a81548173ffffffffffffffffffffffffffffffffffffffff021916908373ffffffffffffffffffffffffffffffffffffffff16021790555080600360006101000a81548173ffffffffffffffffffffffffffffffffffffffff021916908373ffffffffffffffffffffffffffffffffffffffff16021790555050506200020b565b828054600181600116156101000203166002900490600052602060002090601f016020900481019282601f106200019f57805160ff1916838001178555620001d0565b82800160010185558215620001d0579182015b82811115620001cf578251825591602001919060010190620001b2565b5b509050620001df9190620001e3565b5090565b6200020891905b8082111562000204576000816000905550600101620001ea565b5090565b90565b61391f806200021b6000396000f30060806040526004361061013e576000357c0100000000000000000000000000000000000000000000000000000000900463ffffffff16806306fdde031461014357806308b7da39146101d35780630dcba2d1146101fe5780630efd7661146102555780631a279b4d14610280578063239c8eb314610311578063275cdec3146103685780632e6d7c9e146103935780633bc6cf47146103d65780635c1f8c621461040157806360cd2f7c14610458578063749f9f9a1461048357806387ceff09146104da5780638bba3dd9146105055780638da5cb5b1461051c578063a810a54c14610573578063d2f5aa3d146105a2578063d461d2f0146105f9578063d520c99d14610650578063ddca3f4314610681578063e07b86ee146106b2578063f2fde38b14610709578063f6e6c0c21461074c578063f88c6c03146107d6575b600080fd5b34801561014f57600080fd5b5061015861082d565b6040518080602001828103825283818151815260200191508051906020019080838360005b8381101561019857808201518184015260208101905061017d565b50505050905090810190601f1680156101c55780820380516001836020036101000a031916815260200191505b509250505060405180910390f35b3480156101df57600080fd5b506101e86108cb565b6040518082815260200191505060405180910390f35b34801561020a57600080fd5b506102136108d9565b604051808273ffffffffffffffffffffffffffffffffffffffff1673ffffffffffffffffffffffffffffffffffffffff16815260200191505060405180910390f35b34801561026157600080fd5b5061026a6108ff565b6040518082815260200191505060405180910390f35b34801561028c57600080fd5b5061029561090d565b604051808473ffffffffffffffffffffffffffffffffffffffff1673ffffffffffffffffffffffffffffffffffffffff1681526020018373ffffffffffffffffffffffffffffffffffffffff1673ffffffffffffffffffffffffffffffffffffffff168152602001828152602001935050505060405180910390f35b34801561031d57600080fd5b50610352600480360381019080803573ffffffffffffffffffffffffffffffffffffffff169060200190929190505050610936565b6040518082815260200191505060405180910390f35b34801561037457600080fd5b5061037d61094e565b6040518082815260200191505060405180910390f35b34801561039f57600080fd5b506103c060048036038101908080351515906020019092919050505061095c565b6040518082815260200191505060405180910390f35b3480156103e257600080fd5b506103eb611107565b6040518082815260200191505060405180910390f35b34801561040d57600080fd5b50610442600480360381019080803573ffffffffffffffffffffffffffffffffffffffff16906020019092919050505061110d565b6040518082815260200191505060405180910390f35b34801561046457600080fd5b5061046d611125565b6040518082815260200191505060405180910390f35b34801561048f57600080fd5b5061049861112b565b604051808273ffffffffffffffffffffffffffffffffffffffff1673ffffffffffffffffffffffffffffffffffffffff16815260200191505060405180910390f35b3480156104e657600080fd5b506104ef611151565b6040518082815260200191505060405180910390f35b34801561051157600080fd5b5061051a611159565b005b34801561052857600080fd5b5061053161119f565b604051808273ffffffffffffffffffffffffffffffffffffffff1673ffffffffffffffffffffffffffffffffffffffff16815260200191505060405180910390f35b34801561057f57600080fd5b506105a06004803603810190808035151590602001909291905050506111c4565b005b3480156105ae57600080fd5b506105e3600480360381019080803573ffffffffffffffffffffffffffffffffffffffff169060200190929190505050611ff9565b6040518082815260200191505060405180910390f35b34801561060557600080fd5b5061063a600480360381019080803573ffffffffffffffffffffffffffffffffffffffff169060200190929190505050612011565b6040518082815260200191505060405180910390f35b34801561065c57600080fd5b506106656123bc565b604051808260ff1660ff16815260200191505060405180910390f35b34801561068d57600080fd5b506106966123c1565b604051808260ff1660ff16815260200191505060405180910390f35b3480156106be57600080fd5b506106f3600480360381019080803573ffffffffffffffffffffffffffffffffffffffff1690602001909291905050506123c6565b6040518082815260200191505060405180910390f35b34801561071557600080fd5b5061074a600480360381019080803573ffffffffffffffffffffffffffffffffffffffff169060200190929190505050612b22565b005b34801561075857600080fd5b5061078d600480360381019080803573ffffffffffffffffffffffffffffffffffffffff169060200190929190505050612bf7565b604051808373ffffffffffffffffffffffffffffffffffffffff1673ffffffffffffffffffffffffffffffffffffffff1681526020018281526020019250505060405180910390f35b3480156107e257600080fd5b50610817600480360381019080803573ffffffffffffffffffffffffffffffffffffffff169060200190929190505050612d02565b6040518082815260200191505060405180910390f35b60018054600181600116156101000203166002900480601f0160208091040260200160405190810160405280929190818152602001828054600181600116156101000203166002900480156108c35780601f10610898576101008083540402835291602001916108c3565b820191906000526020600020905b8154815290600101906020018083116108a657829003601f168201915b505050505081565b69065a4da25d3016c0000081565b600260009054906101000a900473ffffffffffffffffffffffffffffffffffffffff1681565b690a968163f0a57b40000081565b600080600080600061091e33612bf7565b80935081925050503381839450945094505050909192565b60066020528060005260406000206000915090505481565b69021e19e0c9bab240000081565b600080600080600080600080600080610974336123c6565b9850600360009054906101000a900473ffffffffffffffffffffffffffffffffffffffff1673ffffffffffffffffffffffffffffffffffffffff1663312b43ad336040518263ffffffff167c0100000000000000000000000000000000000000000000000000000000028152600401808273ffffffffffffffffffffffffffffffffffffffff1673ffffffffffffffffffffffffffffffffffffffff168152602001915050602060405180830381600087803b158015610a3357600080fd5b505af1158015610a47573d6000803e3d6000fd5b505050506040513d6020811015610a5d57600080fd5b81019080805190602001909291905050509750600088111515610ae8576040517f08c379a00000000000000000000000000000000000000000000000000000000081526004018080602001828103825260188152602001807f63616c6375206c6f636b20696e76697465206c6173743d30000000000000000081525060200191505060405180910390fd5b600188039750600360009054906101000a900473ffffffffffffffffffffffffffffffffffffffff1673ffffffffffffffffffffffffffffffffffffffff1663bf131ad2426040518263ffffffff167c010000000000000000000000000000000000000000000000000000000002815260040180828152602001915050602060405180830381600087803b158015610b7f57600080fd5b505af1158015610b93573d6000803e3d6000fd5b505050506040513d6020811015610ba957600080fd5b81019080805190602001909291905050509650600360009054906101000a900473ffffffffffffffffffffffffffffffffffffffff1673ffffffffffffffffffffffffffffffffffffffff1663e77f9124338a6040518363ffffffff167c0100000000000000000000000000000000000000000000000000000000028152600401808373ffffffffffffffffffffffffffffffffffffffff1673ffffffffffffffffffffffffffffffffffffffff16815260200182815260200192505050606060405180830381600087803b158015610c8157600080fd5b505af1158015610c95573d6000803e3d6000fd5b505050506040513d6060811015610cab57600080fd5b8101908080519060200190929190805190602001909291908051906020019092919050505080965081975082985050505086861015610d0457600454868803811515610cf357fe5b049250838584020189019850610d0a565b83890198505b600360009054906101000a900473ffffffffffffffffffffffffffffffffffffffff1673ffffffffffffffffffffffffffffffffffffffff1663254fbd72336040518263ffffffff167c0100000000000000000000000000000000000000000000000000000000028152600401808273ffffffffffffffffffffffffffffffffffffffff1673ffffffffffffffffffffffffffffffffffffffff168152602001915050602060405180830381600087803b158015610dc757600080fd5b505af1158015610ddb573d6000803e3d6000fd5b505050506040513d6020811015610df157600080fd5b81019080805190602001909291905050509750600088111515610e7c576040517f08c379a00000000000000000000000000000000000000000000000000000000081526004018080602001828103825260168152602001807f63616c6375206c6f636b207465616d206c6173743d300000000000000000000081525060200191505060405180910390fd5b600188039750600360009054906101000a900473ffffffffffffffffffffffffffffffffffffffff1673ffffffffffffffffffffffffffffffffffffffff166372e03a5c338a6040518363ffffffff167c0100000000000000000000000000000000000000000000000000000000028152600401808373ffffffffffffffffffffffffffffffffffffffff1673ffffffffffffffffffffffffffffffffffffffff16815260200182815260200192505050608060405180830381600087803b158015610f4757600080fd5b505af1158015610f5b573d6000803e3d6000fd5b505050506040513d6080811015610f7157600080fd5b81019080805190602001909291908051906020019092919080519060200190929190805190602001909291905050508095508197508298508399505050505086861015610fe957600454868803811515610fc757fe5b0492508360648360ff1687860202811515610fde57fe5b040189019850610fef565b83890198505b8a15156110f657600360009054906101000a900473ffffffffffffffffffffffffffffffffffffffff1673ffffffffffffffffffffffffffffffffffffffff16632a61ae19336040518263ffffffff167c0100000000000000000000000000000000000000000000000000000000028152600401808273ffffffffffffffffffffffffffffffffffffffff1673ffffffffffffffffffffffffffffffffffffffff168152602001915050602060405180830381600087803b1580156110b357600080fd5b505af11580156110c7573d6000803e3d6000fd5b505050506040513d60208110156110dd57600080fd5b8101908080519060200190929190505050905080890198505b889950505050505050505050919050565b60045481565b60076020528060005260406000206000915090505481565b6104b081565b600360009054906101000a900473ffffffffffffffffffffffffffffffffffffffff1681565b600042905090565b42600660003373ffffffffffffffffffffffffffffffffffffffff1673ffffffffffffffffffffffffffffffffffffffff16815260200190815260200160002081905550565b6000809054906101000a900473ffffffffffffffffffffffffffffffffffffffff1681565b60008060008060008060008060006111db336130cf565b15156111e657600080fd5b6111ef336123c6565b985042600760003373ffffffffffffffffffffffffffffffffffffffff1673ffffffffffffffffffffffffffffffffffffffff16815260200190815260200160002081905550600360009054906101000a900473ffffffffffffffffffffffffffffffffffffffff1673ffffffffffffffffffffffffffffffffffffffff1663312b43ad336040518263ffffffff167c0100000000000000000000000000000000000000000000000000000000028152600401808273ffffffffffffffffffffffffffffffffffffffff1673ffffffffffffffffffffffffffffffffffffffff168152602001915050602060405180830381600087803b1580156112f257600080fd5b505af1158015611306573d6000803e3d6000fd5b505050506040513d602081101561131c57600080fd5b810190808051906020019092919050505097506000881115156113a7576040517f08c379a00000000000000000000000000000000000000000000000000000000081526004018080602001828103825260118152602001807f6c6f636b696e76697465206c6173743d3000000000000000000000000000000081525060200191505060405180910390fd5b600188039750600360009054906101000a900473ffffffffffffffffffffffffffffffffffffffff1673ffffffffffffffffffffffffffffffffffffffff1663bf131ad2426040518263ffffffff167c010000000000000000000000000000000000000000000000000000000002815260040180828152602001915050602060405180830381600087803b15801561143e57600080fd5b505af1158015611452573d6000803e3d6000fd5b505050506040513d602081101561146857600080fd5b81019080805190602001909291905050509650600360009054906101000a900473ffffffffffffffffffffffffffffffffffffffff1673ffffffffffffffffffffffffffffffffffffffff1663e77f9124338a6040518363ffffffff167c0100000000000000000000000000000000000000000000000000000000028152600401808373ffffffffffffffffffffffffffffffffffffffff1673ffffffffffffffffffffffffffffffffffffffff16815260200182815260200192505050606060405180830381600087803b15801561154057600080fd5b505af1158015611554573d6000803e3d6000fd5b505050506040513d606081101561156a57600080fd5b81019080805190602001909291908051906020019092919080519060200190929190505050809650819750829850505050868610156116b1576004548688038115156115b257fe5b049250838584020189019850600360009054906101000a900473ffffffffffffffffffffffffffffffffffffffff1673ffffffffffffffffffffffffffffffffffffffff16632e39140f33898860006040518563ffffffff167c0100000000000000000000000000000000000000000000000000000000028152600401808573ffffffffffffffffffffffffffffffffffffffff1673ffffffffffffffffffffffffffffffffffffffff168152602001848152602001838152602001828152602001945050505050600060405180830381600087803b15801561169457600080fd5b505af11580156116a8573d6000803e3d6000fd5b5050505061179d565b600360009054906101000a900473ffffffffffffffffffffffffffffffffffffffff1673ffffffffffffffffffffffffffffffffffffffff16631251b7a4338760006040518463ffffffff167c0100000000000000000000000000000000000000000000000000000000028152600401808473ffffffffffffffffffffffffffffffffffffffff1673ffffffffffffffffffffffffffffffffffffffff1681526020018381526020018281526020019350505050600060405180830381600087803b15801561177f57600080fd5b505af1158015611793573d6000803e3d6000fd5b5050505083890198505b600360009054906101000a900473ffffffffffffffffffffffffffffffffffffffff1673ffffffffffffffffffffffffffffffffffffffff1663254fbd72336040518263ffffffff167c0100000000000000000000000000000000000000000000000000000000028152600401808273ffffffffffffffffffffffffffffffffffffffff1673ffffffffffffffffffffffffffffffffffffffff168152602001915050602060405180830381600087803b15801561185a57600080fd5b505af115801561186e573d6000803e3d6000fd5b505050506040513d602081101561188457600080fd5b8101908080519060200190929190505050975060008811151561190f576040517f08c379a00000000000000000000000000000000000000000000000000000000081526004018080602001828103825260108152602001807f6c6f636b207465616d206c6173743d300000000000000000000000000000000081525060200191505060405180910390fd5b600188039750600360009054906101000a900473ffffffffffffffffffffffffffffffffffffffff1673ffffffffffffffffffffffffffffffffffffffff166372e03a5c338a6040518363ffffffff167c0100000000000000000000000000000000000000000000000000000000028152600401808373ffffffffffffffffffffffffffffffffffffffff1673ffffffffffffffffffffffffffffffffffffffff16815260200182815260200192505050608060405180830381600087803b1580156119da57600080fd5b505af11580156119ee573d6000803e3d6000fd5b505050506040513d6080811015611a0457600080fd5b81019080805190602001909291908051906020019092919080519060200190929190805190602001909291905050508095508197508298508399505050505086861015611b7857600454868803811515611a5a57fe5b0492508360648360ff1687860202811515611a7157fe5b040189019850600360009054906101000a900473ffffffffffffffffffffffffffffffffffffffff1673ffffffffffffffffffffffffffffffffffffffff166315038e9e3389886000876040518663ffffffff167c0100000000000000000000000000000000000000000000000000000000028152600401808673ffffffffffffffffffffffffffffffffffffffff1673ffffffffffffffffffffffffffffffffffffffff1681526020018581526020018481526020018381526020018260ff1660ff16815260200195505050505050600060405180830381600087803b158015611b5b57600080fd5b505af1158015611b6f573d6000803e3d6000fd5b50505050611c72565b600360009054906101000a900473ffffffffffffffffffffffffffffffffffffffff1673ffffffffffffffffffffffffffffffffffffffff16636f42d97f33876000866040518563ffffffff167c0100000000000000000000000000000000000000000000000000000000028152600401808573ffffffffffffffffffffffffffffffffffffffff1673ffffffffffffffffffffffffffffffffffffffff1681526020018481526020018381526020018260ff1660ff168152602001945050505050600060405180830381600087803b158015611c5457600080fd5b505af1158015611c68573d6000803e3d6000fd5b5050505083890198505b891515611e5857600360009054906101000a900473ffffffffffffffffffffffffffffffffffffffff1673ffffffffffffffffffffffffffffffffffffffff16632a61ae19336040518263ffffffff167c0100000000000000000000000000000000000000000000000000000000028152600401808273ffffffffffffffffffffffffffffffffffffffff1673ffffffffffffffffffffffffffffffffffffffff168152602001915050602060405180830381600087803b158015611d3657600080fd5b505af1158015611d4a573d6000803e3d6000fd5b505050506040513d6020811015611d6057600080fd5b810190808051906020019092919050505090508089019850611d82338261344a565b600360009054906101000a900473ffffffffffffffffffffffffffffffffffffffff1673ffffffffffffffffffffffffffffffffffffffff16638dc73521336040518263ffffffff167c0100000000000000000000000000000000000000000000000000000000028152600401808273ffffffffffffffffffffffffffffffffffffffff1673ffffffffffffffffffffffffffffffffffffffff168152602001915050600060405180830381600087803b158015611e3f57600080fd5b505af1158015611e53573d6000803e3d6000fd5b505050505b600260009054906101000a900473ffffffffffffffffffffffffffffffffffffffff1673ffffffffffffffffffffffffffffffffffffffff1663a9059cbb338b6040518363ffffffff167c0100000000000000000000000000000000000000000000000000000000028152600401808373ffffffffffffffffffffffffffffffffffffffff1673ffffffffffffffffffffffffffffffffffffffff16815260200182815260200192505050600060405180830381600087803b158015611f1d57600080fd5b505af1158015611f31573d6000803e3d6000fd5b5050505088600560003373ffffffffffffffffffffffffffffffffffffffff1673ffffffffffffffffffffffffffffffffffffffff168152602001908152602001600020600082825401925050819055507fc674231d2496906f0e8253e960f393e2857bda5ec7294f70264e9e8eb2db476f338a604051808373ffffffffffffffffffffffffffffffffffffffff1673ffffffffffffffffffffffffffffffffffffffff1681526020018281526020019250505060405180910390a150505050505050505050565b60056020528060005260406000206000915090505481565b600080600080600080600080600360009054906101000a900473ffffffffffffffffffffffffffffffffffffffff1673ffffffffffffffffffffffffffffffffffffffff1663312b43ad8a6040518263ffffffff167c0100000000000000000000000000000000000000000000000000000000028152600401808273ffffffffffffffffffffffffffffffffffffffff1673ffffffffffffffffffffffffffffffffffffffff168152602001915050602060405180830381600087803b1580156120da57600080fd5b505af11580156120ee573d6000803e3d6000fd5b505050506040513d602081101561210457600080fd5b8101908080519060200190929190505050965060008711151561218f576040517f08c379a000000000000000000000000000000000000000000000000000000000815260040180806020018281038252600d8152602001807f696e76697465206c6173743d300000000000000000000000000000000000000081525060200191505060405180910390fd5b600187039650600360009054906101000a900473ffffffffffffffffffffffffffffffffffffffff1673ffffffffffffffffffffffffffffffffffffffff1663bf131ad2426040518263ffffffff167c010000000000000000000000000000000000000000000000000000000002815260040180828152602001915050602060405180830381600087803b15801561222657600080fd5b505af115801561223a573d6000803e3d6000fd5b505050506040513d602081101561225057600080fd5b81019080805190602001909291905050509550600360009054906101000a900473ffffffffffffffffffffffffffffffffffffffff1673ffffffffffffffffffffffffffffffffffffffff1663e77f91248a896040518363ffffffff167c0100000000000000000000000000000000000000000000000000000000028152600401808373ffffffffffffffffffffffffffffffffffffffff1673ffffffffffffffffffffffffffffffffffffffff16815260200182815260200192505050606060405180830381600087803b15801561232857600080fd5b505af115801561233c573d6000803e3d6000fd5b505050506040513d606081101561235257600080fd5b81019080805190602001909291908051906020019092919080519060200190929190505050809550819650829750505050858510156123ac5760045485870381151561239a57fe5b049150828483020190508097506123b0565b8297505b50505050505050919050565b600581565b600581565b6000806000806000806000806000806000600360009054906101000a900473ffffffffffffffffffffffffffffffffffffffff1673ffffffffffffffffffffffffffffffffffffffff1663c93ae0fc8d6040518263ffffffff167c0100000000000000000000000000000000000000000000000000000000028152600401808273ffffffffffffffffffffffffffffffffffffffff1673ffffffffffffffffffffffffffffffffffffffff168152602001915050602060405180830381600087803b15801561249457600080fd5b505af11580156124a8573d6000803e3d6000fd5b505050506040513d60208110156124be57600080fd5b8101908080519060200190929190505050995060008a111515612549576040517f08c379a00000000000000000000000000000000000000000000000000000000081526004018080602001828103825260038152602001807f776879000000000000000000000000000000000000000000000000000000000081525060200191505060405180910390fd5b600093505b89841015612b1057600360009054906101000a900473ffffffffffffffffffffffffffffffffffffffff1673ffffffffffffffffffffffffffffffffffffffff16632253d3818d866040518363ffffffff167c0100000000000000000000000000000000000000000000000000000000028152600401808373ffffffffffffffffffffffffffffffffffffffff1673ffffffffffffffffffffffffffffffffffffffff16815260200182815260200192505050608060405180830381600087803b15801561261b57600080fd5b505af115801561262f573d6000803e3d6000fd5b505050506040513d608081101561264557600080fd5b8101908080519060200190929190805190602001909291908051906020019092919080519060200190929190505050809850819a50829950839b5050505050841515612b035787600760008e73ffffffffffffffffffffffffffffffffffffffff1673ffffffffffffffffffffffffffffffffffffffff16815260200190815260200160002054111561271557600760008d73ffffffffffffffffffffffffffffffffffffffff1673ffffffffffffffffffffffffffffffffffffffff1681526020019081526020016000205497505b60045488420381151561272457fe5b069250600454888442030381151561273857fe5b049250600360009054906101000a900473ffffffffffffffffffffffffffffffffffffffff1673ffffffffffffffffffffffffffffffffffffffff16632f63c3658d6040518263ffffffff167c0100000000000000000000000000000000000000000000000000000000028152600401808273ffffffffffffffffffffffffffffffffffffffff1673ffffffffffffffffffffffffffffffffffffffff168152602001915050602060405180830381600087803b1580156127f857600080fd5b505af115801561280c573d6000803e3d6000fd5b505050506040513d602081101561282257600080fd5b810190808051906020019092919050505015612aea57600454600360009054906101000a900473ffffffffffffffffffffffffffffffffffffffff1673ffffffffffffffffffffffffffffffffffffffff1663bf131ad28a6040518263ffffffff167c010000000000000000000000000000000000000000000000000000000002815260040180828152602001915050602060405180830381600087803b1580156128cc57600080fd5b505af11580156128e0573d6000803e3d6000fd5b505050506040513d60208110156128f657600080fd5b8101908080519060200190929190505050019750600091505b82821015612ae557600454820288019050600360009054906101000a900473ffffffffffffffffffffffffffffffffffffffff1673ffffffffffffffffffffffffffffffffffffffff1663294b4816826040518263ffffffff167c010000000000000000000000000000000000000000000000000000000002815260040180828152602001915050602060405180830381600087803b1580156129b157600080fd5b505af11580156129c5573d6000803e3d6000fd5b505050506040513d60208110156129db57600080fd5b8101908080519060200190929190505050600360009054906101000a900473ffffffffffffffffffffffffffffffffffffffff1673ffffffffffffffffffffffffffffffffffffffff1663294b48168a6040518263ffffffff167c010000000000000000000000000000000000000000000000000000000002815260040180828152602001915050602060405180830381600087803b158015612a7d57600080fd5b505af1158015612a91573d6000803e3d6000fd5b505050506040513d6020811015612aa757600080fd5b81019080805190602001909291905050506103e860038902811515612ac857fe5b0402811515612ad357fe5b0489019850818060010192505061290f565b612b02565b6103e8600387850202811515612afc57fe5b04890198505b5b838060010194505061254e565b889a5050505050505050505050919050565b6000809054906101000a900473ffffffffffffffffffffffffffffffffffffffff1673ffffffffffffffffffffffffffffffffffffffff163373ffffffffffffffffffffffffffffffffffffffff16141515612b7d57600080fd5b600073ffffffffffffffffffffffffffffffffffffffff168173ffffffffffffffffffffffffffffffffffffffff16141515612bf457806000806101000a81548173ffffffffffffffffffffffffffffffffffffffff021916908373ffffffffffffffffffffffffffffffffffffffff1602179055505b50565b6000806000600360009054906101000a900473ffffffffffffffffffffffffffffffffffffffff1673ffffffffffffffffffffffffffffffffffffffff1663c93ae0fc856040518263ffffffff167c0100000000000000000000000000000000000000000000000000000000028152600401808273ffffffffffffffffffffffffffffffffffffffff1673ffffffffffffffffffffffffffffffffffffffff168152602001915050602060405180830381600087803b158015612cb957600080fd5b505af1158015612ccd573d6000803e3d6000fd5b505050506040513d6020811015612ce357600080fd5b8101908080519060200190929190505050905083819250925050915091565b6000806000806000806000806000600360009054906101000a900473ffffffffffffffffffffffffffffffffffffffff1673ffffffffffffffffffffffffffffffffffffffff1663254fbd728b6040518263ffffffff167c0100000000000000000000000000000000000000000000000000000000028152600401808273ffffffffffffffffffffffffffffffffffffffff1673ffffffffffffffffffffffffffffffffffffffff168152602001915050602060405180830381600087803b158015612dcd57600080fd5b505af1158015612de1573d6000803e3d6000fd5b505050506040513d6020811015612df757600080fd5b81019080805190602001909291905050509750600088111515612e82576040517f08c379a000000000000000000000000000000000000000000000000000000000815260040180806020018281038252600b8152602001807f7465616d206c6173743d3000000000000000000000000000000000000000000081525060200191505060405180910390fd5b600188039750600360009054906101000a900473ffffffffffffffffffffffffffffffffffffffff1673ffffffffffffffffffffffffffffffffffffffff1663bf131ad2426040518263ffffffff167c010000000000000000000000000000000000000000000000000000000002815260040180828152602001915050602060405180830381600087803b158015612f1957600080fd5b505af1158015612f2d573d6000803e3d6000fd5b505050506040513d6020811015612f4357600080fd5b81019080805190602001909291905050509650600360009054906101000a900473ffffffffffffffffffffffffffffffffffffffff1673ffffffffffffffffffffffffffffffffffffffff166372e03a5c8b8a6040518363ffffffff167c0100000000000000000000000000000000000000000000000000000000028152600401808373ffffffffffffffffffffffffffffffffffffffff1673ffffffffffffffffffffffffffffffffffffffff16815260200182815260200192505050608060405180830381600087803b15801561301b57600080fd5b505af115801561302f573d6000803e3d6000fd5b505050506040513d608081101561304557600080fd5b810190808051906020019092919080519060200190929190805190602001909291908051906020019092919050505080965081975082985083995050505050868610156130be5760045486880381151561309b57fe5b0491508360648460ff16878502028115156130b257fe5b040190508098506130c2565b8398505b5050505050505050919050565b600080600080600080600080600360009054906101000a900473ffffffffffffffffffffffffffffffffffffffff1673ffffffffffffffffffffffffffffffffffffffff16631ecf396d8a6040518263ffffffff167c0100000000000000000000000000000000000000000000000000000000028152600401808273ffffffffffffffffffffffffffffffffffffffff1673ffffffffffffffffffffffffffffffffffffffff168152602001915050602060405180830381600087803b15801561319857600080fd5b505af11580156131ac573d6000803e3d6000fd5b505050506040513d60208110156131c257600080fd5b81019080805190602001909291905050509650600560ff16600360009054906101000a900473ffffffffffffffffffffffffffffffffffffffff1673ffffffffffffffffffffffffffffffffffffffff16632a61ae198b6040518263ffffffff167c0100000000000000000000000000000000000000000000000000000000028152600401808273ffffffffffffffffffffffffffffffffffffffff1673ffffffffffffffffffffffffffffffffffffffff168152602001915050602060405180830381600087803b15801561329757600080fd5b505af11580156132ab573d6000803e3d6000fd5b505050506040513d60208110156132c157600080fd5b810190808051906020019092919050505002955060008614156132e7576000975061343e565b600360009054906101000a900473ffffffffffffffffffffffffffffffffffffffff1673ffffffffffffffffffffffffffffffffffffffff16632253d3818a60006040518363ffffffff167c0100000000000000000000000000000000000000000000000000000000028152600401808373ffffffffffffffffffffffffffffffffffffffff1673ffffffffffffffffffffffffffffffffffffffff16815260200182815260200192505050608060405180830381600087803b1580156133ad57600080fd5b505af11580156133c1573d6000803e3d6000fd5b505050506040513d60808110156133d757600080fd5b8101908080519060200190929190805190602001909291908051906020019092919080519060200190929190505050809550819650829750839850505050508442039050868611158061342b57506104b081115b15613439576001975061343e565b600097505b50505050505050919050565b6000806000600360009054906101000a900473ffffffffffffffffffffffffffffffffffffffff1673ffffffffffffffffffffffffffffffffffffffff1663d8495ac3866040518263ffffffff167c0100000000000000000000000000000000000000000000000000000000028152600401808273ffffffffffffffffffffffffffffffffffffffff1673ffffffffffffffffffffffffffffffffffffffff168152602001915050602060405180830381600087803b15801561350c57600080fd5b505af1158015613520573d6000803e3d6000fd5b505050506040513d602081101561353657600080fd5b81019080805190602001909291905050509150600090505b818110156138ec57600360009054906101000a900473ffffffffffffffffffffffffffffffffffffffff1673ffffffffffffffffffffffffffffffffffffffff16633983c66586836040518363ffffffff167c0100000000000000000000000000000000000000000000000000000000028152600401808373ffffffffffffffffffffffffffffffffffffffff1673ffffffffffffffffffffffffffffffffffffffff16815260200182815260200192505050602060405180830381600087803b15801561361b57600080fd5b505af115801561362f573d6000803e3d6000fd5b505050506040513d602081101561364557600080fd5b81019080805190602001909291905050509250600360009054906101000a900473ffffffffffffffffffffffffffffffffffffffff1673ffffffffffffffffffffffffffffffffffffffff1663057a53fc846040518263ffffffff167c0100000000000000000000000000000000000000000000000000000000028152600401808273ffffffffffffffffffffffffffffffffffffffff1673ffffffffffffffffffffffffffffffffffffffff168152602001915050600060405180830381600087803b15801561371557600080fd5b505af1158015613729573d6000803e3d6000fd5b50505050600360009054906101000a900473ffffffffffffffffffffffffffffffffffffffff1673ffffffffffffffffffffffffffffffffffffffff1663d83a3c9584866040518363ffffffff167c0100000000000000000000000000000000000000000000000000000000028152600401808373ffffffffffffffffffffffffffffffffffffffff1673ffffffffffffffffffffffffffffffffffffffff16815260200182815260200192505050600060405180830381600087803b1580156137f257600080fd5b505af1158015613806573d6000803e3d6000fd5b50505050600360009054906101000a900473ffffffffffffffffffffffffffffffffffffffff1673ffffffffffffffffffffffffffffffffffffffff1663d7320563846040518263ffffffff167c0100000000000000000000000000000000000000000000000000000000028152600401808273ffffffffffffffffffffffffffffffffffffffff1673ffffffffffffffffffffffffffffffffffffffff168152602001915050600060405180830381600087803b1580156138c757600080fd5b505af11580156138db573d6000803e3d6000fd5b50505050808060010191505061354e565b50505050505600a165627a7a72305820b8483f0604436769158b8446606a7a4c040cbf4e9e0a760a886817834ec220f70029",
  "source": "pragma solidity ^0.4.23;\n/*\n *                   \n *                      KOL Community Foundation     \n *                      \n *                        \n *         \n *    Dev:Jack Koe  Special for: KOL   20200422   \n *        \n */\n\n library SafeMath {\n   function mul(uint a, uint b) internal pure  returns (uint) {\n     uint c = a * b;\n     require(a == 0 || c / a == b);\n     return c;\n   }\n   function div(uint a, uint b) internal pure returns (uint) {\n     require(b > 0);\n     uint c = a / b;\n     require(a == b * c + a % b);\n     return c;\n   }\n   function sub(uint a, uint b) internal pure returns (uint) {\n     require(b <= a);\n     return a - b;\n   }\n   function add(uint a, uint b) internal pure returns (uint) {\n     uint c = a + b;\n     require(c >= a);\n     return c;\n   }\n   function max64(uint64 a, uint64 b) internal  pure returns (uint64) {\n     return a >= b ? a : b;\n   }\n   function min64(uint64 a, uint64 b) internal  pure returns (uint64) {\n     return a < b ? a : b;\n   }\n   function max256(uint256 a, uint256 b) internal  pure returns (uint256) {\n     return a >= b ? a : b;\n   }\n   function min256(uint256 a, uint256 b) internal  pure returns (uint256) {\n     return a < b ? a : b;\n   }\n }\n\n /**\n  * title KOL Promotion Withdraw contract\n  * dev visit: https://github.com/jackoelv/KOL/\n */\n\n contract ERC20Basic {\n   uint public totalSupply;\n   function balanceOf(address who) public constant returns (uint);\n   function transfer(address to, uint value) public;\n   event Transfer(address indexed from, address indexed to, uint value);\n }\n\n contract ERC20 is ERC20Basic {\n   function allowance(address owner, address spender) public constant returns (uint);\n   function transferFrom(address from, address to, uint value) public;\n   function approve(address spender, uint value) public;\n   event Approval(address indexed owner, address indexed spender, uint value);\n }\n\n /**\n  * title KOL Promotion Withdraw contract\n  * dev visit: https://github.com/jackoelv/KOL/\n */\n\n contract BasicToken is ERC20Basic {\n\n   using SafeMath for uint;\n\n   mapping(address => uint) balances;\n\n   function transfer(address _to, uint _value) public{\n     balances[msg.sender] = balances[msg.sender].sub(_value);\n     balances[_to] = balances[_to].add(_value);\n     emit Transfer(msg.sender, _to, _value);\n   }\n\n   function balanceOf(address _owner) public constant returns (uint balance) {\n     return balances[_owner];\n   }\n }\n\n /**\n  * title KOL Promotion Withdraw contract\n  * dev visit: https://github.com/jackoelv/KOL/\n */\n\n contract StandardToken is BasicToken, ERC20 {\n   mapping (address => mapping (address => uint)) allowed;\n   uint256 public userSupplyed;\n\n   function transferFrom(address _from, address _to, uint _value) public {\n     balances[_to] = balances[_to].add(_value);\n     balances[_from] = balances[_from].sub(_value);\n     allowed[_from][msg.sender] = allowed[_from][msg.sender].sub(_value);\n     emit Transfer(_from, _to, _value);\n   }\n\n   function approve(address _spender, uint _value) public{\n     require((_value == 0) || (allowed[msg.sender][_spender] == 0)) ;\n     allowed[msg.sender][_spender] = _value;\n     emit Approval(msg.sender, _spender, _value);\n   }\n\n   function allowance(address _owner, address _spender) public constant returns (uint remaining) {\n     return allowed[_owner][_spender];\n   }\n }\n contract KOL is StandardToken {\n   function queryNode(address _addr) public view returns(bool);\n   function querySuperNode(address _addr) public view returns(bool);\n }\n contract KOLP is StandardToken {\n\n   address public draw;\n   struct lock{\n     uint256 begin;\n     uint256 amount;\n     uint256 end;\n     bool withDrawed;\n   }\n   struct teamRate{\n     uint8 rate;\n     uint256 changeTime;\n\n   }\n   struct inviteBonus{\n     uint256 begin;//\n     uint256 dayBonus;//\n     uint256 hisTotalBonus;\n   }\n   struct withDraws{\n     uint256 time;\n     uint256 amount;\n   }\n   struct dayTeamBonus{\n     uint256 theDayLastSecond;\n     uint256 theDayTeamBonus;\n     uint256 totalTeamBonus;\n     uint8 theDayRate;\n   }\n   struct dayInviteBonus{\n     uint256 theDayLastSecond;\n     uint256 theDayInviteBonus;\n     uint256 totalInviteBonus;\n   }\n   mapping (address => dayTeamBonus[]) public LockTeamBonus;\n   mapping (address => dayInviteBonus[]) public LockInviteBonus;\n\n\n   mapping (address => address[]) public InviteList;\n   mapping (address => address[]) public ChildAddrs;\n   mapping (address => teamRate[]) public TeamRateList;\n   mapping (address => lock[]) public LockHistory;\n   mapping (address => uint256) public LockBalance;\n\n   mapping (address => uint256) public InviteHistoryBonus;\n   mapping (address => uint256) public InviteCurrentDayBonus;\n\n   mapping (address => address) public InviteRelation;//A=>B B is father;\n   mapping (uint256 => uint256) public ClosePrice;//\n   mapping (address => uint256) public TotalUsers;\n   mapping (address => uint256) public TotalLockingAmount;\n   mapping (uint256 => address) public InviteCode;\n   mapping (address => uint256) public RInviteCode;\n\n   mapping (address => uint8) public isLevelN;\n   mapping (uint8 => uint8) public levelRate;\n   mapping (address => bool) public USDTOrCoin;\n\n   mapping (address => bool) public contractAddr;\n\n   //GAS\n\n   event Registed(address _user,uint256 inviteCode);\n   event GradeChanged(address _user,uint8 _oldLevel,uint8 _newLevel);\n   event WithDraw(address _user,uint256 _amount);\n   event WithDrawBalance(address _user,uint256 _balance);\n   modifier onlyContract {\n       require(msg.sender == draw);\n       _;\n   }\n   function calcuDiffAmount(address _selfAddr,address _topAddr,uint256 _amount) public view returns(uint256);\n   function queryAndSetLevelN(address _addr) public;\n   function queryLockBalance(address _addr,uint256 _queryTime) public view returns(uint256);\n   function getYestodayLastSecond(uint256 _queryTime) public view returns(uint256);\n   function getHistoryTeamBonus(address _addr,uint256 _index) public view returns(uint256,uint256,uint256,uint256,uint256);\n   function getHistoryInviteBonus(address _addr,uint256 _index) public view returns(uint256,uint256,uint256,uint256);\n   function getTeamRateList(address _addr,uint256 _index) public view returns(uint256,uint256,uint256);\n   function clearLock(address _addr) onlyContract public ;\n   function pushInvite(address _addr,\n                       uint256 _theDayLastSecond,\n                       uint256 _theDayInviteBonus,\n                       uint256 _totalInviteBonus) onlyContract public ;\n   function setLastInvite(address _addr,\n                       uint256 _theDayInviteBonus,\n                       uint256 _totalInviteBonus) onlyContract public ;\n   function pushTeam(address _addr,\n                       uint256 _theDayLastSecond,\n                       uint256 _theDayTeamBonus,\n                       uint256 _totalTeamBonus,\n                       uint8 _theDayRate) onlyContract public ;\n   function setLastTeam(address _addr,\n                       uint256 _theDayTeamBonus,\n                       uint256 _totalTeamBonus,\n                       uint8 _theDayRate) onlyContract public ;\n\n   function subTotalUsers(address _addr) onlyContract public ;\n   function subTotalLockingAmount(address _addr,uint256 _amount) onlyContract public ;\n   function getLockLen(address _addr) public view returns(uint256);\n   function getFathersLength(address _addr) public view returns(uint256);\n   function getLockTeamBonusLen(address _addr) public view returns(uint256);\n   function getLockInviteBonusLen(address _addr) public view returns(uint256);\n}\n\n /**\n  * title KOL Promotion Withdraw contract\n  * dev visit: https://github.com/jackoelv/KOL/\n */\n\n contract Ownable {\n     address public owner;\n\n     constructor() public{\n         owner = msg.sender;\n     }\n\n     modifier onlyOwner {\n         require(msg.sender == owner);\n         _;\n     }\n     function transferOwnership(address newOwner) onlyOwner public{\n         if (newOwner != address(0)) {\n             owner = newOwner;\n         }\n     }\n }\n /**\n  * title KOL Promotion Withdraw contract\n  * dev visit: https://github.com/jackoelv/KOL/\n */\n //15\ncontract KOLWithDraw is Ownable{\n  using SafeMath for uint256;\n  string public name = \"KOL Promotion\";\n  KOL public kol;\n  KOLP public kolp;\n\n  uint256 public every = 60 seconds;//1 days;\n\n  /* uint16 public constant comLevel1Users = 100;\n  uint16 public constant comLevel2Users = 300;\n  uint16 public constant comLevel3Users = 500; */\n\n  //\n\n\n  uint256 public constant comLevel1Amount = 10000 * (10 ** 18);\n  uint256 public constant comLevel2Amount = 30000 * (10 ** 18);\n  uint256 public constant comLevel3Amount = 50000 * (10 ** 18);\n\n\n  uint8 public constant withDrawRate = 5;\n  uint8 public constant fee = 5;\n\n  /* uint256 public constant withDrawDays = 30 days; */\n  //5\n  uint256 public constant withDrawDays = 20 minutes;\n\n  mapping (address => uint256) public TotalWithDraws;\n  mapping (address => uint256) public ForTest;\n\n  //\n  mapping (address => uint256) public DrawTime;\n  //GAS\n  event WithDrawed(address _user,uint256 _amount);\n\n  constructor(address _kolAddress,address _kolpAddress) public {\n    kol = KOL(_kolAddress);\n    kolp = KOLP(_kolpAddress);\n  }\n\n  function getBlockTime() public view returns(uint256){\n    return now;\n  }\n  function setNewBlock() public{\n    ForTest[msg.sender] = now;\n  }\n\n  function querySelfBonus(address _addr) public view returns(uint256){\n    //\n    uint256 len = kolp.getLockLen(_addr);\n    require(len > 0,\"why\");\n    uint256 selfBonus;\n    uint256 begin;\n    uint256 end;\n    uint256 amount;\n    bool withDrawed;\n    for (uint i=0; i<len; i++){\n      (begin,amount,end,withDrawed) = kolp.LockHistory(_addr,i);\n      if (!withDrawed){\n        if (DrawTime[_addr] > begin) begin = DrawTime[_addr];\n        uint256 lastingDays = (now - begin) % every;\n        lastingDays = (now - lastingDays - begin) / every;\n        if (kolp.USDTOrCoin(_addr)){\n          begin = kolp.getYestodayLastSecond(begin) + every;\n          for (uint j=0;j<lastingDays;j++){\n            uint256 theTime = begin + j*every;\n            selfBonus += amount * 3 / 1000 * kolp.ClosePrice(begin) / kolp.ClosePrice(theTime);\n          }\n        }else{\n          selfBonus += lastingDays * amount * 3 / 1000;\n        }\n      }\n    }\n    return (selfBonus);\n  }\n\n  function queryInviteBonus(address _addr) public view returns(uint256){\n    uint256 last = kolp.getLockInviteBonusLen(_addr);\n    require(last > 0,\"invite last=0\");\n    last = last -1;\n    uint256 yestodayLastSecond = kolp.getYestodayLastSecond(now);\n    uint256 lastDayLastSecond;\n    uint256 lastDayInviteBonus;\n    uint256 lastDayInviteTotalBonus;\n    (lastDayLastSecond,lastDayInviteBonus,lastDayInviteTotalBonus) = kolp.LockInviteBonus(_addr,last);\n    uint256 lastingDays;\n    uint256 newDayInviteTotalBonus;\n    if (lastDayLastSecond < yestodayLastSecond){\n      // Push\n      lastingDays = (yestodayLastSecond - lastDayLastSecond) / every;\n      newDayInviteTotalBonus = (lastingDays * lastDayInviteBonus) + lastDayInviteTotalBonus;\n      return (newDayInviteTotalBonus);\n    }else{\n      return (lastDayInviteTotalBonus);\n    }\n  }\n  function queryTeamBonus(address _addr) public view returns(uint256){\n    uint256 last = kolp.getLockTeamBonusLen(_addr);\n    require(last > 0,\"team last=0\");\n    last = last-1;\n    uint256 yestodayLastSecond = kolp.getYestodayLastSecond(now);\n    uint256 lastDayLastSecond;\n    uint256 lastDayTeamBonus;\n    uint256 lastDayTeamTotalBonus;\n    uint8 theDayRate;\n    (lastDayLastSecond,lastDayTeamBonus,lastDayTeamTotalBonus,theDayRate) = kolp.LockTeamBonus(_addr,last);\n\n    uint256 lastingDays;\n    uint256 newDayTeamTotalBonus;\n    if (lastDayLastSecond < yestodayLastSecond){\n      // Push\n      lastingDays = (yestodayLastSecond - lastDayLastSecond) / every;\n      newDayTeamTotalBonus = (lastingDays * lastDayTeamBonus * theDayRate / 100 ) + lastDayTeamTotalBonus;\n      return (newDayTeamTotalBonus);\n    }else{\n      return (lastDayTeamTotalBonus);\n    }\n  }\n  function afterWithdraw(address _addr,uint256 _amount) internal {\n    //\n    address father;\n    uint256 fathersLen = kolp.getFathersLength(_addr);\n    for (uint i = 0; i<fathersLen; i++){\n      father = kolp.InviteList(_addr,i);\n      kolp.subTotalUsers(father);\n      kolp.subTotalLockingAmount(father,_amount);\n      kolp.queryAndSetLevelN(father);\n    }\n\n  }\n  function checkDraw(address _addr) private view returns(bool) {\n    uint256 teamAmount = kolp.TotalLockingAmount(_addr) ;\n    uint256 myBalance = kolp.LockBalance(_addr) * withDrawRate;\n    if (myBalance == 0) return false;\n    uint256 myBegin;\n    uint256 amount;\n    uint256 end;\n    bool withDrawed;\n    ( myBegin, amount, end, withDrawed) = kolp.LockHistory(_addr,0);\n    uint256 diff = now - myBegin;\n    if ((myBalance <= teamAmount) || (diff > withDrawDays)) {\n      return true;\n    }else{\n      return false;\n    }\n\n  }\n  function withdraw(bool _onlyBonus) public{\n    //true: Only Bonus;false:all;\n    require(checkDraw(msg.sender));\n    uint256 bonus = querySelfBonus(msg.sender);\n    DrawTime[msg.sender] = now;\n    uint256 last = kolp.getLockInviteBonusLen(msg.sender);\n    require(last > 0,\"lockinvite last=0\");\n    last = last -1;\n    uint256 yestodayLastSecond = kolp.getYestodayLastSecond(now);\n    uint256 lastDayLastSecond;\n    uint256 lastDayBonus;\n    uint256 lastDayTotalBonus;\n    (lastDayLastSecond,lastDayBonus,lastDayTotalBonus) = kolp.LockInviteBonus(msg.sender,last);\n    uint256 lastingDays;\n    if (lastDayLastSecond < yestodayLastSecond){\n      // Push\n      lastingDays = (yestodayLastSecond - lastDayLastSecond) / every;\n      bonus += (lastingDays * lastDayBonus) + lastDayTotalBonus;\n      kolp.pushInvite(msg.sender,yestodayLastSecond,lastDayBonus,0);\n    }else{\n      kolp.setLastInvite(msg.sender,lastDayBonus,0);\n      bonus += lastDayTotalBonus;\n    }\n    last = kolp.getLockTeamBonusLen(msg.sender);\n    require(last > 0,\"lock team last=0\");\n    last = last -1;\n    uint8 theDayRate;\n    (lastDayLastSecond,lastDayBonus,lastDayTotalBonus,theDayRate) = kolp.LockTeamBonus(msg.sender,last);\n    if (lastDayLastSecond < yestodayLastSecond){\n      lastingDays = (yestodayLastSecond - lastDayLastSecond) / every;\n      bonus  += (lastingDays * lastDayBonus * theDayRate / 100 ) + lastDayTotalBonus;\n      kolp.pushTeam(msg.sender,yestodayLastSecond,lastDayBonus,0,theDayRate);\n    }else{\n      kolp.setLastTeam(msg.sender,lastDayBonus,0,theDayRate);\n      bonus += lastDayTotalBonus;\n    }\n    if (!_onlyBonus){\n      uint256 balance = kolp.LockBalance(msg.sender);\n      bonus += balance;\n      afterWithdraw(msg.sender,balance);\n      kolp.clearLock(msg.sender);\n    }\n    kol.transfer(msg.sender,bonus);\n    TotalWithDraws[msg.sender] += bonus;\n    emit WithDrawed(msg.sender,bonus);\n  }\n  function wokao(address _addr) public view returns(address,uint256){\n    uint256 len = kolp.getLockLen(_addr);\n    return (_addr,len);\n  }\n  function testcal() public view returns(address,address,uint256){\n    uint256 bonus;\n    address addr;\n    (addr,bonus) = wokao(msg.sender);\n    return (msg.sender,addr,bonus);\n  }\n  function calcuAllBonus(bool _onlyBonus) public view returns(uint256){\n    //true: Only Bonus;false:all;\n    /* require(checkDraw(msg.sender)); */\n    uint256 bonus = querySelfBonus(msg.sender);\n    /* DrawTime[msg.sender] = now; */\n    uint256 last = kolp.getLockInviteBonusLen(msg.sender);\n    require(last > 0,\"calcu lock invite last=0\");\n    last = last -1;\n    uint256 yestodayLastSecond = kolp.getYestodayLastSecond(now);\n    uint256 lastDayLastSecond;\n    uint256 lastDayBonus;\n    uint256 lastDayTotalBonus;\n    (lastDayLastSecond,lastDayBonus,lastDayTotalBonus) = kolp.LockInviteBonus(msg.sender,last);\n    uint256 lastingDays;\n    if (lastDayLastSecond < yestodayLastSecond){\n      // Push\n      lastingDays = (yestodayLastSecond - lastDayLastSecond) / every;\n      bonus += (lastingDays * lastDayBonus) + lastDayTotalBonus;\n      /* kolp.pushInvite(msg.sender,yestodayLastSecond,lastDayBonus,0); */\n    }else{\n      /* kolp.setLastInvite(msg.sender,lastDayBonus,0); */\n      bonus += lastDayTotalBonus;\n    }\n    last = kolp.getLockTeamBonusLen(msg.sender);\n    require(last > 0,\"calcu lock team last=0\");\n    last = last -1;\n    uint8 theDayRate;\n    (lastDayLastSecond,lastDayBonus,lastDayTotalBonus,theDayRate) = kolp.LockTeamBonus(msg.sender,last);\n    if (lastDayLastSecond < yestodayLastSecond){\n      lastingDays = (yestodayLastSecond - lastDayLastSecond) / every;\n      bonus  += (lastingDays * lastDayBonus * theDayRate / 100 ) + lastDayTotalBonus;\n      /* kolp.pushTeam(msg.sender,yestodayLastSecond,lastDayBonus,0,theDayRate); */\n    }else{\n      /* kolp.setLastTeam(msg.sender,lastDayBonus,0,theDayRate); */\n      bonus += lastDayTotalBonus;\n    }\n    if (!_onlyBonus){\n      uint256 balance = kolp.LockBalance(msg.sender);\n      bonus += balance;\n      /* afterWithdraw(msg.sender,balance); */\n      /* kolp.clearLock(msg.sender); */\n    }\n    /* kol.transfer(msg.sender,bonus); */\n    /* TotalWithDraws[msg.sender] += bonus; */\n    /* emit WithDrawed(msg.sender,bonus); */\n    return bonus;\n  }\n}\n",
  "sourcePath": "/Users/jack/git/github/KOL/contracts/KOLWithDraw.sol",
  "compiler": {
    "name": "solc",
    "version": "0.4.23+commit.124ca40d.Emscripten.clang"
  },
  "schemaVersion": "3.0.19",
  "updatedAt": "2020-05-07T03:20:41.924Z",
  "networkType": "ethereum",
  "devdoc": {
    "methods": {}
  },
  "userdoc": {
    "methods": {}
  }
}