{
  "contractName": "KOLWithDraw",
  "abi": [
    {
      "constant": true,
      "inputs": [],
      "name": "name",
      "outputs": [
        {
          "name": "",
          "type": "string"
        }
      ],
      "payable": false,
      "stateMutability": "view",
      "type": "function"
    },
    {
      "constant": true,
      "inputs": [],
      "name": "kol",
      "outputs": [
        {
          "name": "",
          "type": "address"
        }
      ],
      "payable": false,
      "stateMutability": "view",
      "type": "function"
    },
    {
      "constant": true,
      "inputs": [],
      "name": "leftBonus",
      "outputs": [
        {
          "name": "",
          "type": "uint256"
        }
      ],
      "payable": false,
      "stateMutability": "view",
      "type": "function"
    },
    {
      "constant": true,
      "inputs": [],
      "name": "every",
      "outputs": [
        {
          "name": "",
          "type": "uint256"
        }
      ],
      "payable": false,
      "stateMutability": "view",
      "type": "function"
    },
    {
      "constant": true,
      "inputs": [
        {
          "name": "",
          "type": "address"
        }
      ],
      "name": "DrawTime",
      "outputs": [
        {
          "name": "",
          "type": "uint256"
        }
      ],
      "payable": false,
      "stateMutability": "view",
      "type": "function"
    },
    {
      "constant": true,
      "inputs": [],
      "name": "kolp",
      "outputs": [
        {
          "name": "",
          "type": "address"
        }
      ],
      "payable": false,
      "stateMutability": "view",
      "type": "function"
    },
    {
      "constant": true,
      "inputs": [],
      "name": "owner",
      "outputs": [
        {
          "name": "",
          "type": "address"
        }
      ],
      "payable": false,
      "stateMutability": "view",
      "type": "function"
    },
    {
      "constant": true,
      "inputs": [
        {
          "name": "",
          "type": "address"
        }
      ],
      "name": "TotalWithDraws",
      "outputs": [
        {
          "name": "",
          "type": "uint256"
        }
      ],
      "payable": false,
      "stateMutability": "view",
      "type": "function"
    },
    {
      "constant": true,
      "inputs": [],
      "name": "minBonus",
      "outputs": [
        {
          "name": "",
          "type": "uint256"
        }
      ],
      "payable": false,
      "stateMutability": "view",
      "type": "function"
    },
    {
      "constant": true,
      "inputs": [],
      "name": "fee",
      "outputs": [
        {
          "name": "",
          "type": "uint8"
        }
      ],
      "payable": false,
      "stateMutability": "view",
      "type": "function"
    },
    {
      "constant": true,
      "inputs": [],
      "name": "etherFee",
      "outputs": [
        {
          "name": "",
          "type": "uint256"
        }
      ],
      "payable": false,
      "stateMutability": "view",
      "type": "function"
    },
    {
      "constant": false,
      "inputs": [
        {
          "name": "newOwner",
          "type": "address"
        }
      ],
      "name": "transferOwnership",
      "outputs": [],
      "payable": false,
      "stateMutability": "nonpayable",
      "type": "function"
    },
    {
      "constant": true,
      "inputs": [],
      "name": "reciever",
      "outputs": [
        {
          "name": "",
          "type": "address"
        }
      ],
      "payable": false,
      "stateMutability": "view",
      "type": "function"
    },
    {
      "inputs": [
        {
          "name": "_kolAddress",
          "type": "address"
        },
        {
          "name": "_kolpAddress",
          "type": "address"
        },
        {
          "name": "_reciever",
          "type": "address"
        }
      ],
      "payable": false,
      "stateMutability": "nonpayable",
      "type": "constructor"
    },
    {
      "anonymous": false,
      "inputs": [
        {
          "indexed": false,
          "name": "_user",
          "type": "address"
        },
        {
          "indexed": false,
          "name": "_amount",
          "type": "uint256"
        }
      ],
      "name": "WithDrawed",
      "type": "event"
    },
    {
      "constant": true,
      "inputs": [
        {
          "name": "_addr",
          "type": "address"
        }
      ],
      "name": "querySelfBonus",
      "outputs": [
        {
          "name": "",
          "type": "uint256"
        }
      ],
      "payable": false,
      "stateMutability": "view",
      "type": "function"
    },
    {
      "constant": true,
      "inputs": [
        {
          "name": "_addr",
          "type": "address"
        }
      ],
      "name": "queryInviteBonus",
      "outputs": [
        {
          "name": "",
          "type": "uint256"
        }
      ],
      "payable": false,
      "stateMutability": "view",
      "type": "function"
    },
    {
      "constant": true,
      "inputs": [
        {
          "name": "_addr",
          "type": "address"
        }
      ],
      "name": "queryTeamBonus",
      "outputs": [
        {
          "name": "",
          "type": "uint256"
        }
      ],
      "payable": false,
      "stateMutability": "view",
      "type": "function"
    },
    {
      "constant": false,
      "inputs": [
        {
          "name": "_onlyBonus",
          "type": "bool"
        }
      ],
      "name": "withdraw",
      "outputs": [],
      "payable": true,
      "stateMutability": "payable",
      "type": "function"
    },
    {
      "constant": true,
      "inputs": [
        {
          "name": "_onlyBonus",
          "type": "bool"
        }
      ],
      "name": "calcuAllBonus",
      "outputs": [
        {
          "name": "",
          "type": "uint256"
        }
      ],
      "payable": false,
      "stateMutability": "view",
      "type": "function"
    },
    {
      "constant": false,
      "inputs": [
        {
          "name": "_amount",
          "type": "uint256"
        }
      ],
      "name": "addBonus",
      "outputs": [],
      "payable": false,
      "stateMutability": "nonpayable",
      "type": "function"
    },
    {
      "constant": false,
      "inputs": [
        {
          "name": "_fee",
          "type": "uint8"
        }
      ],
      "name": "setFee",
      "outputs": [],
      "payable": false,
      "stateMutability": "nonpayable",
      "type": "function"
    },
    {
      "constant": false,
      "inputs": [
        {
          "name": "_paddr",
          "type": "address"
        }
      ],
      "name": "setKOLP",
      "outputs": [],
      "payable": false,
      "stateMutability": "nonpayable",
      "type": "function"
    },
    {
      "constant": false,
      "inputs": [],
      "name": "draw",
      "outputs": [],
      "payable": false,
      "stateMutability": "nonpayable",
      "type": "function"
    },
    {
      "constant": false,
      "inputs": [
        {
          "name": "_fee",
          "type": "uint256"
        }
      ],
      "name": "setetherFee",
      "outputs": [],
      "payable": false,
      "stateMutability": "nonpayable",
      "type": "function"
    },
    {
      "constant": false,
      "inputs": [
        {
          "name": "_reciever",
          "type": "address"
        }
      ],
      "name": "setReciever",
      "outputs": [],
      "payable": false,
      "stateMutability": "nonpayable",
      "type": "function"
    }
  ],
  "bytecode": "0x60806040526040805190810160405280600c81526020017f4b4f4c20576974686472617700000000000000000000000000000000000000008152506001908051906020019062000051929190620001e2565b5061012c6004556801a055690d9db8000060055560006006556611c37937e080006008556005600960006101000a81548160ff021916908360ff1602179055503480156200009e57600080fd5b5060405160608062003872833981018060405281019080805190602001909291908051906020019092919080519060200190929190505050336000806101000a81548173ffffffffffffffffffffffffffffffffffffffff021916908373ffffffffffffffffffffffffffffffffffffffff16021790555082600260006101000a81548173ffffffffffffffffffffffffffffffffffffffff021916908373ffffffffffffffffffffffffffffffffffffffff16021790555081600360006101000a81548173ffffffffffffffffffffffffffffffffffffffff021916908373ffffffffffffffffffffffffffffffffffffffff16021790555080600760006101000a81548173ffffffffffffffffffffffffffffffffffffffff021916908373ffffffffffffffffffffffffffffffffffffffff16021790555050505062000291565b828054600181600116156101000203166002900490600052602060002090601f016020900481019282601f106200022557805160ff191683800117855562000256565b8280016001018555821562000256579182015b828111156200025557825182559160200191906001019062000238565b5b50905062000265919062000269565b5090565b6200028e91905b808211156200028a57600081600090555060010162000270565b5090565b90565b6135d180620002a16000396000f30060806040526004361061013e576000357c0100000000000000000000000000000000000000000000000000000000900463ffffffff16806306fdde03146101435780630dcba2d1146101d35780630eecae211461022a578063111878f61461024157806318a1b4091461026e5780631a547b30146102995780632e6d7c9e146102c65780633bc6cf47146103095780635c1f8c62146103345780636e563d9c1461038b578063749f9f9a146103ce5780638da5cb5b14610425578063a0db86f91461047c578063a810a54c146104bf578063cb122a09146104e1578063d2f5aa3d14610511578063d45c241c14610568578063d461d2f014610593578063ddca3f43146105ea578063e07b86ee1461061b578063ed94c7f414610672578063f2fde38b1461069d578063f4b0b756146106e0578063f88c6c0314610737575b600080fd5b34801561014f57600080fd5b5061015861078e565b6040518080602001828103825283818151815260200191508051906020019080838360005b8381101561019857808201518184015260208101905061017d565b50505050905090810190601f1680156101c55780820380516001836020036101000a031916815260200191505b509250505060405180910390f35b3480156101df57600080fd5b506101e861082c565b604051808273ffffffffffffffffffffffffffffffffffffffff1673ffffffffffffffffffffffffffffffffffffffff16815260200191505060405180910390f35b34801561023657600080fd5b5061023f610852565b005b34801561024d57600080fd5b5061026c6004803603810190808035906020019092919050505061091e565b005b34801561027a57600080fd5b50610283610997565b6040518082815260200191505060405180910390f35b3480156102a557600080fd5b506102c46004803603810190808035906020019092919050505061099d565b005b3480156102d257600080fd5b506102f3600480360381019080803515159060200190929190505050610a02565b6040518082815260200191505060405180910390f35b34801561031557600080fd5b5061031e610b89565b6040518082815260200191505060405180910390f35b34801561034057600080fd5b50610375600480360381019080803573ffffffffffffffffffffffffffffffffffffffff169060200190929190505050610b8f565b6040518082815260200191505060405180910390f35b34801561039757600080fd5b506103cc600480360381019080803573ffffffffffffffffffffffffffffffffffffffff169060200190929190505050610ba7565b005b3480156103da57600080fd5b506103e3610c46565b604051808273ffffffffffffffffffffffffffffffffffffffff1673ffffffffffffffffffffffffffffffffffffffff16815260200191505060405180910390f35b34801561043157600080fd5b5061043a610c6c565b604051808273ffffffffffffffffffffffffffffffffffffffff1673ffffffffffffffffffffffffffffffffffffffff16815260200191505060405180910390f35b34801561048857600080fd5b506104bd600480360381019080803573ffffffffffffffffffffffffffffffffffffffff169060200190929190505050610c91565b005b6104df600480360381019080803515159060200190929190505050610d30565b005b3480156104ed57600080fd5b5061050f600480360381019080803560ff169060200190929190505050611e0b565b005b34801561051d57600080fd5b50610552600480360381019080803573ffffffffffffffffffffffffffffffffffffffff169060200190929190505050611e84565b6040518082815260200191505060405180910390f35b34801561057457600080fd5b5061057d611e9c565b6040518082815260200191505060405180910390f35b34801561059f57600080fd5b506105d4600480360381019080803573ffffffffffffffffffffffffffffffffffffffff169060200190929190505050611ea2565b6040518082815260200191505060405180910390f35b3480156105f657600080fd5b506105ff612241565b604051808260ff1660ff16815260200191505060405180910390f35b34801561062757600080fd5b5061065c600480360381019080803573ffffffffffffffffffffffffffffffffffffffff169060200190929190505050612254565b6040518082815260200191505060405180910390f35b34801561067e57600080fd5b50610687612ac4565b6040518082815260200191505060405180910390f35b3480156106a957600080fd5b506106de600480360381019080803573ffffffffffffffffffffffffffffffffffffffff169060200190929190505050612aca565b005b3480156106ec57600080fd5b506106f5612b9f565b604051808273ffffffffffffffffffffffffffffffffffffffff1673ffffffffffffffffffffffffffffffffffffffff16815260200191505060405180910390f35b34801561074357600080fd5b50610778600480360381019080803573ffffffffffffffffffffffffffffffffffffffff169060200190929190505050612bc5565b6040518082815260200191505060405180910390f35b60018054600181600116156101000203166002900480601f0160208091040260200160405190810160405280929190818152602001828054600181600116156101000203166002900480156108245780601f106107f957610100808354040283529160200191610824565b820191906000526020600020905b81548152906001019060200180831161080757829003601f168201915b505050505081565b600260009054906101000a900473ffffffffffffffffffffffffffffffffffffffff1681565b6000809054906101000a900473ffffffffffffffffffffffffffffffffffffffff1673ffffffffffffffffffffffffffffffffffffffff163373ffffffffffffffffffffffffffffffffffffffff161415156108ad57600080fd5b600760009054906101000a900473ffffffffffffffffffffffffffffffffffffffff1673ffffffffffffffffffffffffffffffffffffffff166108fc3073ffffffffffffffffffffffffffffffffffffffff16319081150290604051600060405180830381858888f1935050505050565b6000809054906101000a900473ffffffffffffffffffffffffffffffffffffffff1673ffffffffffffffffffffffffffffffffffffffff163373ffffffffffffffffffffffffffffffffffffffff1614151561097957600080fd5b61098e81600654612f9c90919063ffffffff16565b60068190555050565b60065481565b6000809054906101000a900473ffffffffffffffffffffffffffffffffffffffff1673ffffffffffffffffffffffffffffffffffffffff163373ffffffffffffffffffffffffffffffffffffffff161415156109f857600080fd5b8060088190555050565b6000806000610a1033612254565b9150610a1b33611ea2565b82019150610a2833612bc5565b8201915060006006541415610a405760009150610a52565b60065482101515610a515760065491505b5b6064600960009054906101000a900460ff1660640360ff168302811515610a7557fe5b049150831515610b7f57600360009054906101000a900473ffffffffffffffffffffffffffffffffffffffff1673ffffffffffffffffffffffffffffffffffffffff16632a61ae19336040518263ffffffff167c0100000000000000000000000000000000000000000000000000000000028152600401808273ffffffffffffffffffffffffffffffffffffffff1673ffffffffffffffffffffffffffffffffffffffff168152602001915050602060405180830381600087803b158015610b3c57600080fd5b505af1158015610b50573d6000803e3d6000fd5b505050506040513d6020811015610b6657600080fd5b8101908080519060200190929190505050905080820191505b8192505050919050565b60045481565b600b6020528060005260406000206000915090505481565b6000809054906101000a900473ffffffffffffffffffffffffffffffffffffffff1673ffffffffffffffffffffffffffffffffffffffff163373ffffffffffffffffffffffffffffffffffffffff16141515610c0257600080fd5b80600360006101000a81548173ffffffffffffffffffffffffffffffffffffffff021916908373ffffffffffffffffffffffffffffffffffffffff16021790555050565b600360009054906101000a900473ffffffffffffffffffffffffffffffffffffffff1681565b6000809054906101000a900473ffffffffffffffffffffffffffffffffffffffff1681565b6000809054906101000a900473ffffffffffffffffffffffffffffffffffffffff1673ffffffffffffffffffffffffffffffffffffffff163373ffffffffffffffffffffffffffffffffffffffff16141515610cec57600080fd5b80600760006101000a81548173ffffffffffffffffffffffffffffffffffffffff021916908373ffffffffffffffffffffffffffffffffffffffff16021790555050565b600080600080610d3e613557565b6000610d48613579565b60008060006008543410151515610d5e57600080fd5b610d6733612254565b995042600b60003373ffffffffffffffffffffffffffffffffffffffff1673ffffffffffffffffffffffffffffffffffffffff16815260200190815260200160002081905550600360009054906101000a900473ffffffffffffffffffffffffffffffffffffffff1673ffffffffffffffffffffffffffffffffffffffff1663312b43ad336040518263ffffffff167c0100000000000000000000000000000000000000000000000000000000028152600401808273ffffffffffffffffffffffffffffffffffffffff1673ffffffffffffffffffffffffffffffffffffffff168152602001915050602060405180830381600087803b158015610e6a57600080fd5b505af1158015610e7e573d6000803e3d6000fd5b505050506040513d6020811015610e9457600080fd5b81019080805190602001909291905050509850600360009054906101000a900473ffffffffffffffffffffffffffffffffffffffff1673ffffffffffffffffffffffffffffffffffffffff1663bf131ad2426040518263ffffffff167c010000000000000000000000000000000000000000000000000000000002815260040180828152602001915050602060405180830381600087803b158015610f3857600080fd5b505af1158015610f4c573d6000803e3d6000fd5b505050506040513d6020811015610f6257600080fd5b81019080805190602001909291905050509750600089111561131e576060604051908101604052806000815260200160008152602001600081525095508894505b60018510151561131d57600360009054906101000a900473ffffffffffffffffffffffffffffffffffffffff1673ffffffffffffffffffffffffffffffffffffffff1663e77f912433600188036040518363ffffffff167c0100000000000000000000000000000000000000000000000000000000028152600401808373ffffffffffffffffffffffffffffffffffffffff1673ffffffffffffffffffffffffffffffffffffffff16815260200182815260200192505050606060405180830381600087803b15801561107557600080fd5b505af1158015611089573d6000803e3d6000fd5b505050506040513d606081101561109f57600080fd5b8101908080519060200190929190805190602001909291908051906020019092919050505088600001896020018a604001838152508381525083815250505050848060019003955050878660000151111515611318576004548660000151890381151561110857fe5b049650856040015186602001518802018a019950878660000151101561121f57600360009054906101000a900473ffffffffffffffffffffffffffffffffffffffff1673ffffffffffffffffffffffffffffffffffffffff16632e39140f338a896020015160006040518563ffffffff167c0100000000000000000000000000000000000000000000000000000000028152600401808573ffffffffffffffffffffffffffffffffffffffff1673ffffffffffffffffffffffffffffffffffffffff168152602001848152602001838152602001828152602001945050505050600060405180830381600087803b15801561120257600080fd5b505af1158015611216573d6000803e3d6000fd5b50505050611317565b878660000151141561131657600360009054906101000a900473ffffffffffffffffffffffffffffffffffffffff1673ffffffffffffffffffffffffffffffffffffffff16631251b7a433886020015160006040518463ffffffff167c0100000000000000000000000000000000000000000000000000000000028152600401808473ffffffffffffffffffffffffffffffffffffffff1673ffffffffffffffffffffffffffffffffffffffff1681526020018381526020018281526020019350505050600060405180830381600087803b1580156112fd57600080fd5b505af1158015611311573d6000803e3d6000fd5b505050505b5b5b610fa3565b5b600360009054906101000a900473ffffffffffffffffffffffffffffffffffffffff1673ffffffffffffffffffffffffffffffffffffffff1663254fbd72336040518263ffffffff167c0100000000000000000000000000000000000000000000000000000000028152600401808273ffffffffffffffffffffffffffffffffffffffff1673ffffffffffffffffffffffffffffffffffffffff168152602001915050602060405180830381600087803b1580156113db57600080fd5b505af11580156113ef573d6000803e3d6000fd5b505050506040513d602081101561140557600080fd5b81019080805190602001909291905050509850600089111561181a57608060405190810160405280600081526020016000815260200160008152602001600060ff1681525093505b60018910151561181957600360009054906101000a900473ffffffffffffffffffffffffffffffffffffffff1673ffffffffffffffffffffffffffffffffffffffff166372e03a5c3360018c036040518363ffffffff167c0100000000000000000000000000000000000000000000000000000000028152600401808373ffffffffffffffffffffffffffffffffffffffff1673ffffffffffffffffffffffffffffffffffffffff16815260200182815260200192505050608060405180830381600087803b15801561151f57600080fd5b505af1158015611533573d6000803e3d6000fd5b505050506040513d608081101561154957600080fd5b81019080805190602001909291908051906020019092919080519060200190929190805190602001909291905050508760000188602001896040018a6060018460ff1660ff168152508481525084815250848152505050505088806001900399505087846000015111151561181457600454846000015189038115156115cb57fe5b04965083604001516064856060015160ff1686602001518a02028115156115ee57fe5b04018a019950878460000151101561170957600360009054906101000a900473ffffffffffffffffffffffffffffffffffffffff1673ffffffffffffffffffffffffffffffffffffffff166315038e9e338a8760200151600089606001516040518663ffffffff167c0100000000000000000000000000000000000000000000000000000000028152600401808673ffffffffffffffffffffffffffffffffffffffff1673ffffffffffffffffffffffffffffffffffffffff1681526020018581526020018481526020018381526020018260ff1660ff16815260200195505050505050600060405180830381600087803b1580156116ec57600080fd5b505af1158015611700573d6000803e3d6000fd5b50505050611813565b878460000151141561181257600360009054906101000a900473ffffffffffffffffffffffffffffffffffffffff1673ffffffffffffffffffffffffffffffffffffffff16636f42d97f338660200151600088606001516040518563ffffffff167c0100000000000000000000000000000000000000000000000000000000028152600401808573ffffffffffffffffffffffffffffffffffffffff1673ffffffffffffffffffffffffffffffffffffffff1681526020018481526020018381526020018260ff1660ff168152602001945050505050600060405180830381600087803b1580156117f957600080fd5b505af115801561180d573d6000803e3d6000fd5b505050505b5b5b61144d565b5b899250600060065414156118355760009a5060009250611847565b6006548a1015156118465760065492505b5b61185c83600654612fbd90919063ffffffff16565b6006819055506064600960009054906101000a900460ff1660ff16840281151561188257fe5b0491506118988284612fbd90919063ffffffff16565b92508a1515611b4457600360009054906101000a900473ffffffffffffffffffffffffffffffffffffffff1673ffffffffffffffffffffffffffffffffffffffff16632a61ae19336040518263ffffffff167c0100000000000000000000000000000000000000000000000000000000028152600401808273ffffffffffffffffffffffffffffffffffffffff1673ffffffffffffffffffffffffffffffffffffffff168152602001915050602060405180830381600087803b15801561195e57600080fd5b505af1158015611972573d6000803e3d6000fd5b505050506040513d602081101561198857600080fd5b810190808051906020019092919050505090506005548a10156119b157809250600091506119b7565b80830192505b600360009054906101000a900473ffffffffffffffffffffffffffffffffffffffff1673ffffffffffffffffffffffffffffffffffffffff16637c4bc6f7826040518263ffffffff167c010000000000000000000000000000000000000000000000000000000002815260040180828152602001915050600060405180830381600087803b158015611a4857600080fd5b505af1158015611a5c573d6000803e3d6000fd5b50505050600360009054906101000a900473ffffffffffffffffffffffffffffffffffffffff1673ffffffffffffffffffffffffffffffffffffffff16638dc73521336040518263ffffffff167c0100000000000000000000000000000000000000000000000000000000028152600401808273ffffffffffffffffffffffffffffffffffffffff1673ffffffffffffffffffffffffffffffffffffffff168152602001915050600060405180830381600087803b158015611b1d57600080fd5b505af1158015611b31573d6000803e3d6000fd5b50505050611b3f3382612fd9565b611b56565b6005548a10151515611b5557600080fd5b5b6000831115611cf557600260009054906101000a900473ffffffffffffffffffffffffffffffffffffffff1673ffffffffffffffffffffffffffffffffffffffff1663a9059cbb33856040518363ffffffff167c0100000000000000000000000000000000000000000000000000000000028152600401808373ffffffffffffffffffffffffffffffffffffffff1673ffffffffffffffffffffffffffffffffffffffff16815260200182815260200192505050600060405180830381600087803b158015611c2457600080fd5b505af1158015611c38573d6000803e3d6000fd5b5050505082600a60003373ffffffffffffffffffffffffffffffffffffffff1673ffffffffffffffffffffffffffffffffffffffff168152602001908152602001600020600082825401925050819055507fc674231d2496906f0e8253e960f393e2857bda5ec7294f70264e9e8eb2db476f3384604051808373ffffffffffffffffffffffffffffffffffffffff1673ffffffffffffffffffffffffffffffffffffffff1681526020018281526020019250505060405180910390a15b6000821115611dfe57600260009054906101000a900473ffffffffffffffffffffffffffffffffffffffff1673ffffffffffffffffffffffffffffffffffffffff1663a9059cbb600760009054906101000a900473ffffffffffffffffffffffffffffffffffffffff16846040518363ffffffff167c0100000000000000000000000000000000000000000000000000000000028152600401808373ffffffffffffffffffffffffffffffffffffffff1673ffffffffffffffffffffffffffffffffffffffff16815260200182815260200192505050600060405180830381600087803b158015611de557600080fd5b505af1158015611df9573d6000803e3d6000fd5b505050505b5050505050505050505050565b6000809054906101000a900473ffffffffffffffffffffffffffffffffffffffff1673ffffffffffffffffffffffffffffffffffffffff163373ffffffffffffffffffffffffffffffffffffffff16141515611e6657600080fd5b80600960006101000a81548160ff021916908360ff16021790555050565b600a6020528060005260406000206000915090505481565b60055481565b6000806000806000611eb2613557565b600360009054906101000a900473ffffffffffffffffffffffffffffffffffffffff1673ffffffffffffffffffffffffffffffffffffffff1663312b43ad886040518263ffffffff167c0100000000000000000000000000000000000000000000000000000000028152600401808273ffffffffffffffffffffffffffffffffffffffff1673ffffffffffffffffffffffffffffffffffffffff168152602001915050602060405180830381600087803b158015611f6f57600080fd5b505af1158015611f83573d6000803e3d6000fd5b505050506040513d6020811015611f9957600080fd5b81019080805190602001909291905050509450600085111561223257600360009054906101000a900473ffffffffffffffffffffffffffffffffffffffff1673ffffffffffffffffffffffffffffffffffffffff1663bf131ad2426040518263ffffffff167c010000000000000000000000000000000000000000000000000000000002815260040180828152602001915050602060405180830381600087803b15801561204657600080fd5b505af115801561205a573d6000803e3d6000fd5b505050506040513d602081101561207057600080fd5b810190808051906020019092919050505093506060604051908101604052806000815260200160008152602001600081525090505b60018510151561222957600360009054906101000a900473ffffffffffffffffffffffffffffffffffffffff1673ffffffffffffffffffffffffffffffffffffffff1663e77f912488600188036040518363ffffffff167c0100000000000000000000000000000000000000000000000000000000028152600401808373ffffffffffffffffffffffffffffffffffffffff1673ffffffffffffffffffffffffffffffffffffffff16815260200182815260200192505050606060405180830381600087803b15801561217757600080fd5b505af115801561218b573d6000803e3d6000fd5b505050506040513d60608110156121a157600080fd5b81019080805190602001909291908051906020019092919080519060200190929190505050836000018460200185604001838152508381525083815250505050848060019003955050838160000151111515612224576004548160000151850381151561220a57fe5b049250806040015181602001518402019150819550612237565b6120a5565b60009550612237565b600095505b5050505050919050565b600960009054906101000a900460ff1681565b6000806000806000806000806000806000600360009054906101000a900473ffffffffffffffffffffffffffffffffffffffff1673ffffffffffffffffffffffffffffffffffffffff1663c93ae0fc8d6040518263ffffffff167c0100000000000000000000000000000000000000000000000000000000028152600401808273ffffffffffffffffffffffffffffffffffffffff1673ffffffffffffffffffffffffffffffffffffffff168152602001915050602060405180830381600087803b15801561232257600080fd5b505af1158015612336573d6000803e3d6000fd5b505050506040513d602081101561234c57600080fd5b8101908080519060200190929190505050995060008a1115612ab257600093505b89841015612ab157600360009054906101000a900473ffffffffffffffffffffffffffffffffffffffff1673ffffffffffffffffffffffffffffffffffffffff16632253d3818d866040518363ffffffff167c0100000000000000000000000000000000000000000000000000000000028152600401808373ffffffffffffffffffffffffffffffffffffffff1673ffffffffffffffffffffffffffffffffffffffff16815260200182815260200192505050608060405180830381600087803b15801561243a57600080fd5b505af115801561244e573d6000803e3d6000fd5b505050506040513d608081101561246457600080fd5b8101908080519060200190929190805190602001909291908051906020019092919080519060200190929190505050809850819a50829950839b5050505050841515612aa45787600b60008e73ffffffffffffffffffffffffffffffffffffffff1673ffffffffffffffffffffffffffffffffffffffff16815260200190815260200160002054111561253457600b60008d73ffffffffffffffffffffffffffffffffffffffff1673ffffffffffffffffffffffffffffffffffffffff1681526020019081526020016000205497505b600454600360009054906101000a900473ffffffffffffffffffffffffffffffffffffffff1673ffffffffffffffffffffffffffffffffffffffff1663bf131ad28a6040518263ffffffff167c010000000000000000000000000000000000000000000000000000000002815260040180828152602001915050602060405180830381600087803b1580156125c857600080fd5b505af11580156125dc573d6000803e3d6000fd5b505050506040513d60208110156125f257600080fd5b8101908080519060200190929190505050600360009054906101000a900473ffffffffffffffffffffffffffffffffffffffff1673ffffffffffffffffffffffffffffffffffffffff1663bf131ad2426040518263ffffffff167c010000000000000000000000000000000000000000000000000000000002815260040180828152602001915050602060405180830381600087803b15801561269457600080fd5b505af11580156126a8573d6000803e3d6000fd5b505050506040513d60208110156126be57600080fd5b8101908080519060200190929190505050038115156126d957fe5b049250600360009054906101000a900473ffffffffffffffffffffffffffffffffffffffff1673ffffffffffffffffffffffffffffffffffffffff16632f63c3658d6040518263ffffffff167c0100000000000000000000000000000000000000000000000000000000028152600401808273ffffffffffffffffffffffffffffffffffffffff1673ffffffffffffffffffffffffffffffffffffffff168152602001915050602060405180830381600087803b15801561279957600080fd5b505af11580156127ad573d6000803e3d6000fd5b505050506040513d60208110156127c357600080fd5b810190808051906020019092919050505015612a8b57600454600360009054906101000a900473ffffffffffffffffffffffffffffffffffffffff1673ffffffffffffffffffffffffffffffffffffffff1663bf131ad28a6040518263ffffffff167c010000000000000000000000000000000000000000000000000000000002815260040180828152602001915050602060405180830381600087803b15801561286d57600080fd5b505af1158015612881573d6000803e3d6000fd5b505050506040513d602081101561289757600080fd5b8101908080519060200190929190505050019750600091505b82821015612a8657600454820288019050600360009054906101000a900473ffffffffffffffffffffffffffffffffffffffff1673ffffffffffffffffffffffffffffffffffffffff1663294b4816826040518263ffffffff167c010000000000000000000000000000000000000000000000000000000002815260040180828152602001915050602060405180830381600087803b15801561295257600080fd5b505af1158015612966573d6000803e3d6000fd5b505050506040513d602081101561297c57600080fd5b8101908080519060200190929190505050600360009054906101000a900473ffffffffffffffffffffffffffffffffffffffff1673ffffffffffffffffffffffffffffffffffffffff1663294b48168a6040518263ffffffff167c010000000000000000000000000000000000000000000000000000000002815260040180828152602001915050602060405180830381600087803b158015612a1e57600080fd5b505af1158015612a32573d6000803e3d6000fd5b505050506040513d6020811015612a4857600080fd5b81019080805190602001909291905050506103e860038902811515612a6957fe5b0402811515612a7457fe5b048901985081806001019250506128b0565b612aa3565b6103e8600387850202811515612a9d57fe5b04890198505b5b838060010194505061236d565b5b889a5050505050505050505050919050565b60085481565b6000809054906101000a900473ffffffffffffffffffffffffffffffffffffffff1673ffffffffffffffffffffffffffffffffffffffff163373ffffffffffffffffffffffffffffffffffffffff16141515612b2557600080fd5b600073ffffffffffffffffffffffffffffffffffffffff168173ffffffffffffffffffffffffffffffffffffffff16141515612b9c57806000806101000a81548173ffffffffffffffffffffffffffffffffffffffff021916908373ffffffffffffffffffffffffffffffffffffffff1602179055505b50565b600760009054906101000a900473ffffffffffffffffffffffffffffffffffffffff1681565b6000806000806000612bd5613579565b600360009054906101000a900473ffffffffffffffffffffffffffffffffffffffff1673ffffffffffffffffffffffffffffffffffffffff1663254fbd72886040518263ffffffff167c0100000000000000000000000000000000000000000000000000000000028152600401808273ffffffffffffffffffffffffffffffffffffffff1673ffffffffffffffffffffffffffffffffffffffff168152602001915050602060405180830381600087803b158015612c9257600080fd5b505af1158015612ca6573d6000803e3d6000fd5b505050506040513d6020811015612cbc57600080fd5b810190808051906020019092919050505094506000851115612f8d57600360009054906101000a900473ffffffffffffffffffffffffffffffffffffffff1673ffffffffffffffffffffffffffffffffffffffff1663bf131ad2426040518263ffffffff167c010000000000000000000000000000000000000000000000000000000002815260040180828152602001915050602060405180830381600087803b158015612d6957600080fd5b505af1158015612d7d573d6000803e3d6000fd5b505050506040513d6020811015612d9357600080fd5b81019080805190602001909291905050509350608060405190810160405280600081526020016000815260200160008152602001600060ff1681525090505b600185101515612f8457600360009054906101000a900473ffffffffffffffffffffffffffffffffffffffff1673ffffffffffffffffffffffffffffffffffffffff166372e03a5c88600188036040518363ffffffff167c0100000000000000000000000000000000000000000000000000000000028152600401808373ffffffffffffffffffffffffffffffffffffffff1673ffffffffffffffffffffffffffffffffffffffff16815260200182815260200192505050608060405180830381600087803b158015612ea457600080fd5b505af1158015612eb8573d6000803e3d6000fd5b505050506040513d6080811015612ece57600080fd5b8101908080519060200190929190805190602001909291908051906020019092919080519060200190929190505050846000018560200186604001876060018460ff1660ff1681525084815250848152508481525050505050848060019003955050838160000151111515612f7f5760045481600001518503811515612f5057fe5b04925080604001516064826060015160ff168360200151860202811515612f7357fe5b04019150819550612f92565b612dd2565b60009550612f92565b600095505b5050505050919050565b6000808284019050838110151515612fb357600080fd5b8091505092915050565b6000828211151515612fce57600080fd5b818303905092915050565b6000806000600360009054906101000a900473ffffffffffffffffffffffffffffffffffffffff1673ffffffffffffffffffffffffffffffffffffffff1663d8495ac3866040518263ffffffff167c0100000000000000000000000000000000000000000000000000000000028152600401808273ffffffffffffffffffffffffffffffffffffffff1673ffffffffffffffffffffffffffffffffffffffff168152602001915050602060405180830381600087803b15801561309b57600080fd5b505af11580156130af573d6000803e3d6000fd5b505050506040513d60208110156130c557600080fd5b81019080805190602001909291905050509150600090505b8181101561355057600360009054906101000a900473ffffffffffffffffffffffffffffffffffffffff1673ffffffffffffffffffffffffffffffffffffffff16633983c66586836040518363ffffffff167c0100000000000000000000000000000000000000000000000000000000028152600401808373ffffffffffffffffffffffffffffffffffffffff1673ffffffffffffffffffffffffffffffffffffffff16815260200182815260200192505050602060405180830381600087803b1580156131aa57600080fd5b505af11580156131be573d6000803e3d6000fd5b505050506040513d60208110156131d457600080fd5b81019080805190602001909291905050509250600360009054906101000a900473ffffffffffffffffffffffffffffffffffffffff1673ffffffffffffffffffffffffffffffffffffffff1663057a53fc846040518263ffffffff167c0100000000000000000000000000000000000000000000000000000000028152600401808273ffffffffffffffffffffffffffffffffffffffff1673ffffffffffffffffffffffffffffffffffffffff168152602001915050600060405180830381600087803b1580156132a457600080fd5b505af11580156132b8573d6000803e3d6000fd5b50505050600360009054906101000a900473ffffffffffffffffffffffffffffffffffffffff1673ffffffffffffffffffffffffffffffffffffffff1663d83a3c9584866040518363ffffffff167c0100000000000000000000000000000000000000000000000000000000028152600401808373ffffffffffffffffffffffffffffffffffffffff1673ffffffffffffffffffffffffffffffffffffffff16815260200182815260200192505050600060405180830381600087803b15801561338157600080fd5b505af1158015613395573d6000803e3d6000fd5b50505050600360009054906101000a900473ffffffffffffffffffffffffffffffffffffffff1673ffffffffffffffffffffffffffffffffffffffff1663d6ea1a74846040518263ffffffff167c0100000000000000000000000000000000000000000000000000000000028152600401808273ffffffffffffffffffffffffffffffffffffffff1673ffffffffffffffffffffffffffffffffffffffff168152602001915050600060405180830381600087803b15801561345657600080fd5b505af115801561346a573d6000803e3d6000fd5b50505050600360009054906101000a900473ffffffffffffffffffffffffffffffffffffffff1673ffffffffffffffffffffffffffffffffffffffff1663ba8616a2866040518263ffffffff167c0100000000000000000000000000000000000000000000000000000000028152600401808273ffffffffffffffffffffffffffffffffffffffff1673ffffffffffffffffffffffffffffffffffffffff168152602001915050600060405180830381600087803b15801561352b57600080fd5b505af115801561353f573d6000803e3d6000fd5b5050505080806001019150506130dd565b5050505050565b6060604051908101604052806000815260200160008152602001600081525090565b608060405190810160405280600081526020016000815260200160008152602001600060ff16815250905600a165627a7a72305820c67073825d999a4767b772e5e2cb09990e00be44c5674b298051c7fda450da650029",
  "source": "pragma solidity ^0.4.23;\n/*\n *                   \n *                      KOL Community Foundation     \n *                      \n *                        \n *         \n *    Dev:Jack Koe  Special for: KOL   20200510   \n *        \n */\n\n library SafeMath {\n   function mul(uint a, uint b) internal pure  returns (uint) {\n     uint c = a * b;\n     require(a == 0 || c / a == b);\n     return c;\n   }\n   function div(uint a, uint b) internal pure returns (uint) {\n     require(b > 0);\n     uint c = a / b;\n     require(a == b * c + a % b);\n     return c;\n   }\n   function sub(uint a, uint b) internal pure returns (uint) {\n     require(b <= a);\n     return a - b;\n   }\n   function add(uint a, uint b) internal pure returns (uint) {\n     uint c = a + b;\n     require(c >= a);\n     return c;\n   }\n   function max64(uint64 a, uint64 b) internal  pure returns (uint64) {\n     return a >= b ? a : b;\n   }\n   function min64(uint64 a, uint64 b) internal  pure returns (uint64) {\n     return a < b ? a : b;\n   }\n   function max256(uint256 a, uint256 b) internal  pure returns (uint256) {\n     return a >= b ? a : b;\n   }\n   function min256(uint256 a, uint256 b) internal  pure returns (uint256) {\n     return a < b ? a : b;\n   }\n }\n\n /**\n  * title KOL Promotion Withdraw contract\n  * dev visit: https://github.com/jackoelv/KOL/\n */\n\n contract ERC20Basic {\n   uint public totalSupply;\n   function balanceOf(address who) public constant returns (uint);\n   function transfer(address to, uint value) public;\n   event Transfer(address indexed from, address indexed to, uint value);\n }\n\n contract ERC20 is ERC20Basic {\n   function allowance(address owner, address spender) public constant returns (uint);\n   function transferFrom(address from, address to, uint value) public;\n   function approve(address spender, uint value) public;\n   event Approval(address indexed owner, address indexed spender, uint value);\n }\n\n /**\n  * title KOL Promotion Withdraw contract\n  * dev visit: https://github.com/jackoelv/KOL/\n */\n\n contract BasicToken is ERC20Basic {\n\n   using SafeMath for uint;\n\n   mapping(address => uint) balances;\n\n   function transfer(address _to, uint _value) public{\n     balances[msg.sender] = balances[msg.sender].sub(_value);\n     balances[_to] = balances[_to].add(_value);\n     emit Transfer(msg.sender, _to, _value);\n   }\n\n   function balanceOf(address _owner) public constant returns (uint balance) {\n     return balances[_owner];\n   }\n }\n\n /**\n  * title KOL Promotion Withdraw contract\n  * dev visit: https://github.com/jackoelv/KOL/\n */\n\n contract StandardToken is BasicToken, ERC20 {\n   mapping (address => mapping (address => uint)) allowed;\n   uint256 public userSupplyed;\n\n   function transferFrom(address _from, address _to, uint _value) public {\n     balances[_to] = balances[_to].add(_value);\n     balances[_from] = balances[_from].sub(_value);\n     allowed[_from][msg.sender] = allowed[_from][msg.sender].sub(_value);\n     emit Transfer(_from, _to, _value);\n   }\n\n   function approve(address _spender, uint _value) public{\n     require((_value == 0) || (allowed[msg.sender][_spender] == 0)) ;\n     allowed[msg.sender][_spender] = _value;\n     emit Approval(msg.sender, _spender, _value);\n   }\n\n   function allowance(address _owner, address _spender) public constant returns (uint remaining) {\n     return allowed[_owner][_spender];\n   }\n }\n contract KOL is StandardToken {\n   function queryNode(address _addr) public view returns(bool);\n   function querySuperNode(address _addr) public view returns(bool);\n }\n contract KOLP is StandardToken {\n\n   address public draw;\n   bool public going;\n   struct lock{\n     uint256 begin;\n     uint256 amount;\n     uint256 end;\n     bool withDrawed;\n   }\n   struct teamRate{\n     uint8 rate;\n     uint256 changeTime;\n\n   }\n   struct inviteBonus{\n     uint256 begin;\n     uint256 dayBonus;\n     uint256 hisTotalBonus;\n   }\n   struct withDraws{\n     uint256 time;\n     uint256 amount;\n   }\n   struct dayTeamBonus{\n     uint256 theDayLastSecond;\n     uint256 theDayTeamBonus;\n     uint256 totalTeamBonus;\n     uint8 theDayRate;\n   }\n   struct dayInviteBonus{\n     uint256 theDayLastSecond;\n     uint256 theDayInviteBonus;\n     uint256 totalInviteBonus;\n   }\n   mapping (address => dayTeamBonus[]) public LockTeamBonus;\n   mapping (address => dayInviteBonus[]) public LockInviteBonus;\n\n\n   mapping (address => address[]) public InviteList;\n   mapping (address => address[]) public ChildAddrs;\n   mapping (address => lock[]) public LockHistory;\n   mapping (address => uint256) public LockBalance;\n\n   mapping (address => uint256) public InviteHistoryBonus;\n   mapping (address => uint256) public InviteCurrentDayBonus;\n\n   mapping (uint256 => uint256) public ClosePrice;\n   mapping (address => uint256) public TotalUsers;\n   mapping (address => uint256) public TotalLockingAmount;\n   mapping (uint256 => address) public InviteCode;\n   mapping (address => uint256) public RInviteCode;\n\n   mapping (address => uint8) public isLevelN;\n   mapping (uint8 => uint8) public levelRate;\n   mapping (address => bool) public USDTOrCoin;\n\n   //GAS\n   modifier onlyContract {\n       require(msg.sender == draw);\n       _;\n   }\n   function qsLevel(address _addr) onlyContract public ;\n   /* function queryAndSetLevelN(address _addr) public; */\n   function queryLockBalance(address _addr,uint256 _queryTime) public view returns(uint256);\n   function getYestodayLastSecond(uint256 _queryTime) public view returns(uint256);\n   function clearLock(address _addr) onlyContract public ;\n   function pushInvite(address _addr,\n                       uint256 _theDayLastSecond,\n                       uint256 _theDayInviteBonus,\n                       uint256 _totalInviteBonus) onlyContract public ;\n   function setLastInvite(address _addr,\n                       uint256 _theDayInviteBonus,\n                       uint256 _totalInviteBonus) onlyContract public ;\n   function pushTeam(address _addr,\n                       uint256 _theDayLastSecond,\n                       uint256 _theDayTeamBonus,\n                       uint256 _totalTeamBonus,\n                       uint8 _theDayRate) onlyContract public ;\n   function setLastTeam(address _addr,\n                       uint256 _theDayTeamBonus,\n                       uint256 _totalTeamBonus,\n                       uint8 _theDayRate) onlyContract public ;\n\n   function subTotalUsers(address _addr) onlyContract public ;\n   function subTotalLockingAmount(address _addr,uint256 _amount) onlyContract public ;\n   function subTotalBalance(uint256 _amount) onlyContract public ;\n   function setInviteTeam(address _addr) onlyContract public ;\n   function getLockLen(address _addr) public view returns(uint256);\n   function getFathersLength(address _addr) public view returns(uint256);\n   function getLockTeamBonusLen(address _addr) public view returns(uint256);\n   function getLockInviteBonusLen(address _addr) public view returns(uint256);\n\n}\n\n /**\n  * title KOL Promotion Withdraw contract\n  * dev visit: https://github.com/jackoelv/KOL/\n */\n\n contract Ownable {\n     address public owner;\n\n     constructor() public{\n         owner = msg.sender;\n     }\n\n     modifier onlyOwner {\n         require(msg.sender == owner);\n         _;\n     }\n     function transferOwnership(address newOwner) onlyOwner public{\n         if (newOwner != address(0)) {\n             owner = newOwner;\n         }\n     }\n }\n /**\n  * title KOL Promotion Withdraw contract\n  * dev visit: https://github.com/jackoelv/KOL/\n */\ncontract KOLWithDraw is Ownable{\n  using SafeMath for uint256;\n  string public name = \"KOL Withdraw\";\n  KOL public kol;\n  KOLP public kolp;\n\n  uint256 public every = 5 minutes;//1 days;\n  uint256 public minBonus = 30 * (10 ** 18);\n  uint256 public leftBonus = 0;\n  address public reciever;\n  uint256 public etherFee = 0.005 ether;\n  uint8 public fee = 5;\n\n\n  struct dayTeamBonus{\n    uint256 theDayLastSecond;\n    uint256 theDayTeamBonus;\n    uint256 totalTeamBonus;\n    uint8 theDayRate;\n  }\n  struct dayInviteBonus{\n    uint256 theDayLastSecond;\n    uint256 theDayInviteBonus;\n    uint256 totalInviteBonus;\n  }\n\n  mapping (address => uint256) public TotalWithDraws;\n\n  mapping (address => uint256) public DrawTime;\n  event WithDrawed(address _user,uint256 _amount);\n\n  constructor(address _kolAddress,address _kolpAddress,address _reciever) public {\n    kol = KOL(_kolAddress);\n    kolp = KOLP(_kolpAddress);\n    reciever = _reciever;\n  }\n\n  function querySelfBonus(address _addr) public view returns(uint256){\n    uint256 len = kolp.getLockLen(_addr);\n    uint256 selfBonus;\n    if(len >0){\n      uint256 begin;\n      uint256 end;\n      uint256 amount;\n      bool withDrawed;\n      for (uint i=0; i<len; i++){\n        (begin,amount,end,withDrawed) = kolp.LockHistory(_addr,i);\n        if (!withDrawed){\n          if (DrawTime[_addr] > begin) begin = DrawTime[_addr];\n          uint256 lastingDays = (kolp.getYestodayLastSecond(now) - kolp.getYestodayLastSecond(begin)) / every;\n          if (kolp.USDTOrCoin(_addr)){\n            begin = kolp.getYestodayLastSecond(begin) + every;\n            for (uint j=0;j<lastingDays;j++){\n              uint256 theTime = begin + j*every;\n              selfBonus += amount * 3 / 1000 * kolp.ClosePrice(begin) / kolp.ClosePrice(theTime);\n            }\n          }else{\n            selfBonus += lastingDays * amount * 3 / 1000;\n          }\n        }\n      }\n    }\n    return (selfBonus);\n\n  }\n\n  function queryInviteBonus(address _addr) public view returns(uint256){\n    uint256 last = kolp.getLockInviteBonusLen(_addr);\n    if(last>0){\n      uint256 yestodayLastSecond = kolp.getYestodayLastSecond(now);\n      uint256 lastingDays;\n      uint256 newDayInviteTotalBonus;\n      dayInviteBonus memory theDayIB = dayInviteBonus(0,0,0);\n      while(last>=1){\n        (theDayIB.theDayLastSecond,theDayIB.theDayInviteBonus,theDayIB.totalInviteBonus) = kolp.LockInviteBonus(_addr,last-1);\n        last--;\n        if (theDayIB.theDayLastSecond <= yestodayLastSecond){\n          lastingDays = (yestodayLastSecond - theDayIB.theDayLastSecond) / every;\n          newDayInviteTotalBonus = (lastingDays * theDayIB.theDayInviteBonus) + theDayIB.totalInviteBonus;\n          return (newDayInviteTotalBonus);\n        }\n      }\n      return 0;\n    }else\n      return 0;\n  }\n  function queryTeamBonus(address _addr) public view returns(uint256){\n    uint256 last = kolp.getLockTeamBonusLen(_addr);\n    if(last>0){\n      uint256 yestodayLastSecond = kolp.getYestodayLastSecond(now);\n      uint256 lastingDays;\n      uint256 newDayTeamTotalBonus;\n      dayTeamBonus memory theDayTB =dayTeamBonus(0,0,0,0);\n      while(last>=1){\n        (theDayTB.theDayLastSecond,theDayTB.theDayTeamBonus,theDayTB.totalTeamBonus,theDayTB.theDayRate) = kolp.LockTeamBonus(_addr,last-1);\n        last--;\n        if (theDayTB.theDayLastSecond <= yestodayLastSecond){\n          lastingDays = (yestodayLastSecond - theDayTB.theDayLastSecond) / every;\n          newDayTeamTotalBonus = (lastingDays * theDayTB.theDayTeamBonus * theDayTB.theDayRate / 100 ) + theDayTB.totalTeamBonus;\n          return (newDayTeamTotalBonus);\n        }\n      }\n      return 0;\n    }else\n      return 0;\n\n  }\n  function afterWithdraw(address _addr,uint256 _amount) private {\n    address father;\n    uint256 fathersLen = kolp.getFathersLength(_addr);\n    for (uint i = 0; i<fathersLen; i++){\n      father = kolp.InviteList(_addr,i);\n      kolp.subTotalUsers(father);\n      kolp.subTotalLockingAmount(father,_amount);\n      kolp.qsLevel(father);\n      kolp.setInviteTeam(_addr);\n    }\n\n  }\n  function withdraw(bool _onlyBonus) payable public{\n    //true: bonus;false:balance & bonus;\n    require(msg.value >= etherFee);\n    uint256 bonus = querySelfBonus(msg.sender);\n    DrawTime[msg.sender] = now;\n    uint256 last = kolp.getLockInviteBonusLen(msg.sender);\n    uint256 yestodayLastSecond = kolp.getYestodayLastSecond(now);\n    uint256 lastingDays;\n\n    if(last>0){\n      dayInviteBonus memory theDayIB = dayInviteBonus(0,0,0);\n      uint256 realLast = last;\n      while(realLast>=1){\n        (theDayIB.theDayLastSecond,theDayIB.theDayInviteBonus,theDayIB.totalInviteBonus) = kolp.LockInviteBonus(msg.sender,realLast-1);\n        realLast--;\n        if (theDayIB.theDayLastSecond <= yestodayLastSecond){\n          lastingDays = (yestodayLastSecond - theDayIB.theDayLastSecond) / every;\n          bonus += (lastingDays * theDayIB.theDayInviteBonus) + theDayIB.totalInviteBonus;\n          if(theDayIB.theDayLastSecond < yestodayLastSecond){\n            kolp.pushInvite(msg.sender,yestodayLastSecond,theDayIB.theDayInviteBonus,0);\n          }else if(theDayIB.theDayLastSecond == yestodayLastSecond){\n            kolp.setLastInvite(msg.sender,theDayIB.theDayInviteBonus,0);\n          }\n        }\n      }\n    }\n\n    last = kolp.getLockTeamBonusLen(msg.sender);\n\n    if(last>0){\n      dayTeamBonus memory theDayTB =dayTeamBonus(0,0,0,0);\n      while(last>=1){\n        (theDayTB.theDayLastSecond,theDayTB.theDayTeamBonus,theDayTB.totalTeamBonus,theDayTB.theDayRate) = kolp.LockTeamBonus(msg.sender,last-1);\n        last--;\n        if (theDayTB.theDayLastSecond <= yestodayLastSecond){\n          lastingDays = (yestodayLastSecond - theDayTB.theDayLastSecond) / every;\n          bonus += (lastingDays * theDayTB.theDayTeamBonus * theDayTB.theDayRate / 100 ) + theDayTB.totalTeamBonus;\n          if(theDayTB.theDayLastSecond < yestodayLastSecond){\n            kolp.pushTeam(msg.sender,yestodayLastSecond,theDayTB.theDayTeamBonus,0,theDayTB.theDayRate);\n          }else if(theDayTB.theDayLastSecond == yestodayLastSecond){\n            kolp.setLastTeam(msg.sender,theDayTB.theDayTeamBonus,0,theDayTB.theDayRate);\n          }\n        }\n      }\n\n    }\n    uint256 realBonus = bonus;\n    if (leftBonus == 0){\n      _onlyBonus = false;\n      realBonus =0;\n    }else if(bonus >= leftBonus){\n      realBonus = leftBonus;\n    }\n    leftBonus = leftBonus.sub(realBonus);\n    uint256 tax = realBonus*fee/100;\n    realBonus = realBonus.sub(tax);\n\n    if (!_onlyBonus){\n      uint256 balance = kolp.LockBalance(msg.sender);\n      if (bonus < minBonus){\n        realBonus = balance;\n        tax = 0;\n      }else{\n        realBonus += balance;\n      }\n      kolp.subTotalBalance(balance);\n      kolp.clearLock(msg.sender);\n      afterWithdraw(msg.sender,balance);\n\n    }else{\n      require(bonus >= minBonus);\n    }\n    if (realBonus > 0) {\n      kol.transfer(msg.sender,realBonus);\n      TotalWithDraws[msg.sender] += realBonus;\n      emit WithDrawed(msg.sender,realBonus);\n    }\n    if (tax > 0) kol.transfer(reciever,tax);\n\n  }\n  function calcuAllBonus(bool _onlyBonus) public view returns(uint256){\n    //true: Only Bonus;false: balance & bonus;\n    uint256 bonus = querySelfBonus(msg.sender);\n    bonus += queryInviteBonus(msg.sender);\n    bonus += queryTeamBonus(msg.sender);\n    if (leftBonus == 0){\n      bonus =0;\n    }else if(bonus >= leftBonus){\n      bonus = leftBonus;\n    }\n    bonus = bonus * (100-fee) /100;\n\n    if (!_onlyBonus){\n      uint256 balance = kolp.LockBalance(msg.sender);\n      bonus += balance;\n    }\n    return bonus;\n  }\n  function addBonus(uint256 _amount) onlyOwner public{\n    leftBonus = leftBonus.add(_amount);\n  }\n  function setFee(uint8 _fee) onlyOwner public{\n    fee = _fee;\n  }\n  function setKOLP(address _paddr) onlyOwner public{\n    kolp = KOLP(_paddr);\n  }\n  function draw() onlyOwner public{\n    reciever.send(address(this).balance);\n  }\n  function setetherFee(uint256 _fee) onlyOwner public{\n    etherFee = _fee;\n  }\n  function setReciever(address _reciever) onlyOwner public{\n    reciever = _reciever;\n  }\n}\n",
  "sourcePath": "/Users/jack/git/github/KOL/contracts/KOLWithDraw.sol",
  "compiler": {
    "name": "solc",
    "version": "0.4.23+commit.124ca40d.Emscripten.clang"
  },
  "schemaVersion": "3.0.19",
  "updatedAt": "2020-05-13T12:34:08.628Z",
  "networkType": "ethereum",
  "devdoc": {
    "methods": {}
  },
  "userdoc": {
    "methods": {}
  }
}