{
  "contractName": "KOLWithDraw",
  "abi": [
    {
      "constant": true,
      "inputs": [
        {
          "name": "",
          "type": "address"
        }
      ],
      "name": "isLevelN",
      "outputs": [
        {
          "name": "",
          "type": "uint8"
        }
      ],
      "payable": false,
      "stateMutability": "view",
      "type": "function"
    },
    {
      "constant": true,
      "inputs": [],
      "name": "comLevel3",
      "outputs": [
        {
          "name": "",
          "type": "uint8"
        }
      ],
      "payable": false,
      "stateMutability": "view",
      "type": "function"
    },
    {
      "constant": true,
      "inputs": [],
      "name": "name",
      "outputs": [
        {
          "name": "",
          "type": "string"
        }
      ],
      "payable": false,
      "stateMutability": "view",
      "type": "function"
    },
    {
      "constant": true,
      "inputs": [],
      "name": "comLevel2Amount",
      "outputs": [
        {
          "name": "",
          "type": "uint256"
        }
      ],
      "payable": false,
      "stateMutability": "view",
      "type": "function"
    },
    {
      "constant": true,
      "inputs": [],
      "name": "kol",
      "outputs": [
        {
          "name": "",
          "type": "address"
        }
      ],
      "payable": false,
      "stateMutability": "view",
      "type": "function"
    },
    {
      "constant": true,
      "inputs": [],
      "name": "comLevel3Amount",
      "outputs": [
        {
          "name": "",
          "type": "uint256"
        }
      ],
      "payable": false,
      "stateMutability": "view",
      "type": "function"
    },
    {
      "constant": true,
      "inputs": [],
      "name": "begin",
      "outputs": [
        {
          "name": "",
          "type": "uint256"
        }
      ],
      "payable": false,
      "stateMutability": "view",
      "type": "function"
    },
    {
      "constant": true,
      "inputs": [
        {
          "name": "",
          "type": "address"
        }
      ],
      "name": "TotalLockingAmount",
      "outputs": [
        {
          "name": "",
          "type": "uint256"
        }
      ],
      "payable": false,
      "stateMutability": "view",
      "type": "function"
    },
    {
      "constant": true,
      "inputs": [],
      "name": "comLevel2Users",
      "outputs": [
        {
          "name": "",
          "type": "uint16"
        }
      ],
      "payable": false,
      "stateMutability": "view",
      "type": "function"
    },
    {
      "constant": true,
      "inputs": [
        {
          "name": "",
          "type": "address"
        },
        {
          "name": "",
          "type": "uint256"
        }
      ],
      "name": "LockHistory",
      "outputs": [
        {
          "name": "begin",
          "type": "uint256"
        },
        {
          "name": "amount",
          "type": "uint256"
        },
        {
          "name": "end",
          "type": "uint256"
        },
        {
          "name": "withDrawed",
          "type": "bool"
        }
      ],
      "payable": false,
      "stateMutability": "view",
      "type": "function"
    },
    {
      "constant": true,
      "inputs": [],
      "name": "comLevel1Amount",
      "outputs": [
        {
          "name": "",
          "type": "uint256"
        }
      ],
      "payable": false,
      "stateMutability": "view",
      "type": "function"
    },
    {
      "constant": true,
      "inputs": [
        {
          "name": "",
          "type": "uint256"
        }
      ],
      "name": "ClosePrice",
      "outputs": [
        {
          "name": "",
          "type": "uint256"
        }
      ],
      "payable": false,
      "stateMutability": "view",
      "type": "function"
    },
    {
      "constant": true,
      "inputs": [
        {
          "name": "",
          "type": "address"
        }
      ],
      "name": "LockBalance",
      "outputs": [
        {
          "name": "",
          "type": "uint256"
        }
      ],
      "payable": false,
      "stateMutability": "view",
      "type": "function"
    },
    {
      "constant": true,
      "inputs": [
        {
          "name": "",
          "type": "address"
        }
      ],
      "name": "USDTOrCoin",
      "outputs": [
        {
          "name": "",
          "type": "bool"
        }
      ],
      "payable": false,
      "stateMutability": "view",
      "type": "function"
    },
    {
      "constant": true,
      "inputs": [
        {
          "name": "",
          "type": "address"
        }
      ],
      "name": "InviteHistoryBonus",
      "outputs": [
        {
          "name": "",
          "type": "uint256"
        }
      ],
      "payable": false,
      "stateMutability": "view",
      "type": "function"
    },
    {
      "constant": true,
      "inputs": [
        {
          "name": "",
          "type": "address"
        }
      ],
      "name": "InviteDrawAmount",
      "outputs": [
        {
          "name": "",
          "type": "uint256"
        }
      ],
      "payable": false,
      "stateMutability": "view",
      "type": "function"
    },
    {
      "constant": true,
      "inputs": [
        {
          "name": "",
          "type": "address"
        },
        {
          "name": "",
          "type": "uint256"
        }
      ],
      "name": "InviteList",
      "outputs": [
        {
          "name": "",
          "type": "address"
        }
      ],
      "payable": false,
      "stateMutability": "view",
      "type": "function"
    },
    {
      "constant": true,
      "inputs": [],
      "name": "userLevel2",
      "outputs": [
        {
          "name": "",
          "type": "uint8"
        }
      ],
      "payable": false,
      "stateMutability": "view",
      "type": "function"
    },
    {
      "constant": true,
      "inputs": [],
      "name": "every",
      "outputs": [
        {
          "name": "",
          "type": "uint256"
        }
      ],
      "payable": false,
      "stateMutability": "view",
      "type": "function"
    },
    {
      "constant": true,
      "inputs": [
        {
          "name": "",
          "type": "address"
        }
      ],
      "name": "TeamDrawAmount",
      "outputs": [
        {
          "name": "",
          "type": "uint256"
        }
      ],
      "payable": false,
      "stateMutability": "view",
      "type": "function"
    },
    {
      "constant": true,
      "inputs": [],
      "name": "iCode",
      "outputs": [
        {
          "name": "",
          "type": "uint256"
        }
      ],
      "payable": false,
      "stateMutability": "view",
      "type": "function"
    },
    {
      "constant": true,
      "inputs": [
        {
          "name": "",
          "type": "uint8"
        }
      ],
      "name": "levelRate",
      "outputs": [
        {
          "name": "",
          "type": "uint8"
        }
      ],
      "payable": false,
      "stateMutability": "view",
      "type": "function"
    },
    {
      "constant": true,
      "inputs": [
        {
          "name": "",
          "type": "address"
        }
      ],
      "name": "DrawTime",
      "outputs": [
        {
          "name": "",
          "type": "uint256"
        }
      ],
      "payable": false,
      "stateMutability": "view",
      "type": "function"
    },
    {
      "constant": true,
      "inputs": [],
      "name": "comLevel2",
      "outputs": [
        {
          "name": "",
          "type": "uint8"
        }
      ],
      "payable": false,
      "stateMutability": "view",
      "type": "function"
    },
    {
      "constant": true,
      "inputs": [],
      "name": "withDrawDays",
      "outputs": [
        {
          "name": "",
          "type": "uint256"
        }
      ],
      "payable": false,
      "stateMutability": "view",
      "type": "function"
    },
    {
      "constant": true,
      "inputs": [
        {
          "name": "",
          "type": "address"
        }
      ],
      "name": "InviteRelation",
      "outputs": [
        {
          "name": "",
          "type": "address"
        }
      ],
      "payable": false,
      "stateMutability": "view",
      "type": "function"
    },
    {
      "constant": true,
      "inputs": [
        {
          "name": "",
          "type": "address"
        },
        {
          "name": "",
          "type": "address"
        }
      ],
      "name": "ABTeamBonus",
      "outputs": [
        {
          "name": "",
          "type": "uint256"
        }
      ],
      "payable": false,
      "stateMutability": "view",
      "type": "function"
    },
    {
      "constant": true,
      "inputs": [
        {
          "name": "",
          "type": "address"
        },
        {
          "name": "",
          "type": "uint256"
        }
      ],
      "name": "TeamRateList",
      "outputs": [
        {
          "name": "rate",
          "type": "uint8"
        },
        {
          "name": "changeTime",
          "type": "uint256"
        }
      ],
      "payable": false,
      "stateMutability": "view",
      "type": "function"
    },
    {
      "constant": true,
      "inputs": [],
      "name": "maxSettleDays",
      "outputs": [
        {
          "name": "",
          "type": "uint256"
        }
      ],
      "payable": false,
      "stateMutability": "view",
      "type": "function"
    },
    {
      "constant": true,
      "inputs": [
        {
          "name": "",
          "type": "address"
        },
        {
          "name": "",
          "type": "uint256"
        }
      ],
      "name": "LockTeamBonus",
      "outputs": [
        {
          "name": "theDayLastSecond",
          "type": "uint256"
        },
        {
          "name": "theDayTeamBonus",
          "type": "uint256"
        },
        {
          "name": "totalTeamBonus",
          "type": "uint256"
        },
        {
          "name": "theDayRate",
          "type": "uint8"
        }
      ],
      "payable": false,
      "stateMutability": "view",
      "type": "function"
    },
    {
      "constant": true,
      "inputs": [],
      "name": "kolp",
      "outputs": [
        {
          "name": "",
          "type": "address"
        }
      ],
      "payable": false,
      "stateMutability": "view",
      "type": "function"
    },
    {
      "constant": true,
      "inputs": [],
      "name": "comLevel3Users",
      "outputs": [
        {
          "name": "",
          "type": "uint16"
        }
      ],
      "payable": false,
      "stateMutability": "view",
      "type": "function"
    },
    {
      "constant": true,
      "inputs": [],
      "name": "comLevel1Users",
      "outputs": [
        {
          "name": "",
          "type": "uint16"
        }
      ],
      "payable": false,
      "stateMutability": "view",
      "type": "function"
    },
    {
      "constant": true,
      "inputs": [],
      "name": "inviteLevel1",
      "outputs": [
        {
          "name": "",
          "type": "uint8"
        }
      ],
      "payable": false,
      "stateMutability": "view",
      "type": "function"
    },
    {
      "constant": true,
      "inputs": [
        {
          "name": "",
          "type": "address"
        }
      ],
      "name": "RInviteCode",
      "outputs": [
        {
          "name": "",
          "type": "uint256"
        }
      ],
      "payable": false,
      "stateMutability": "view",
      "type": "function"
    },
    {
      "constant": true,
      "inputs": [],
      "name": "owner",
      "outputs": [
        {
          "name": "",
          "type": "address"
        }
      ],
      "payable": false,
      "stateMutability": "view",
      "type": "function"
    },
    {
      "constant": true,
      "inputs": [],
      "name": "inviteLevel2",
      "outputs": [
        {
          "name": "",
          "type": "uint8"
        }
      ],
      "payable": false,
      "stateMutability": "view",
      "type": "function"
    },
    {
      "constant": true,
      "inputs": [
        {
          "name": "",
          "type": "address"
        },
        {
          "name": "",
          "type": "address"
        }
      ],
      "name": "ABInviteBonus",
      "outputs": [
        {
          "name": "",
          "type": "uint256"
        }
      ],
      "payable": false,
      "stateMutability": "view",
      "type": "function"
    },
    {
      "constant": true,
      "inputs": [],
      "name": "totalBonus",
      "outputs": [
        {
          "name": "",
          "type": "uint256"
        }
      ],
      "payable": false,
      "stateMutability": "view",
      "type": "function"
    },
    {
      "constant": true,
      "inputs": [],
      "name": "totalBalance",
      "outputs": [
        {
          "name": "",
          "type": "uint256"
        }
      ],
      "payable": false,
      "stateMutability": "view",
      "type": "function"
    },
    {
      "constant": true,
      "inputs": [],
      "name": "inviteLevel3",
      "outputs": [
        {
          "name": "",
          "type": "uint8"
        }
      ],
      "payable": false,
      "stateMutability": "view",
      "type": "function"
    },
    {
      "constant": true,
      "inputs": [],
      "name": "maxlevel",
      "outputs": [
        {
          "name": "",
          "type": "uint8"
        }
      ],
      "payable": false,
      "stateMutability": "view",
      "type": "function"
    },
    {
      "constant": true,
      "inputs": [],
      "name": "comLevel1",
      "outputs": [
        {
          "name": "",
          "type": "uint8"
        }
      ],
      "payable": false,
      "stateMutability": "view",
      "type": "function"
    },
    {
      "constant": true,
      "inputs": [
        {
          "name": "",
          "type": "uint256"
        }
      ],
      "name": "InviteCode",
      "outputs": [
        {
          "name": "",
          "type": "address"
        }
      ],
      "payable": false,
      "stateMutability": "view",
      "type": "function"
    },
    {
      "constant": true,
      "inputs": [
        {
          "name": "",
          "type": "address"
        }
      ],
      "name": "InviteCurrentDayBonus",
      "outputs": [
        {
          "name": "",
          "type": "uint256"
        }
      ],
      "payable": false,
      "stateMutability": "view",
      "type": "function"
    },
    {
      "constant": true,
      "inputs": [],
      "name": "withDrawRate",
      "outputs": [
        {
          "name": "",
          "type": "uint8"
        }
      ],
      "payable": false,
      "stateMutability": "view",
      "type": "function"
    },
    {
      "constant": true,
      "inputs": [],
      "name": "fee",
      "outputs": [
        {
          "name": "",
          "type": "uint8"
        }
      ],
      "payable": false,
      "stateMutability": "view",
      "type": "function"
    },
    {
      "constant": true,
      "inputs": [
        {
          "name": "",
          "type": "address"
        }
      ],
      "name": "TotalUsers",
      "outputs": [
        {
          "name": "",
          "type": "uint256"
        }
      ],
      "payable": false,
      "stateMutability": "view",
      "type": "function"
    },
    {
      "constant": true,
      "inputs": [
        {
          "name": "",
          "type": "address"
        }
      ],
      "name": "WithDraws",
      "outputs": [
        {
          "name": "",
          "type": "uint256"
        }
      ],
      "payable": false,
      "stateMutability": "view",
      "type": "function"
    },
    {
      "constant": true,
      "inputs": [],
      "name": "userLevel1",
      "outputs": [
        {
          "name": "",
          "type": "uint8"
        }
      ],
      "payable": false,
      "stateMutability": "view",
      "type": "function"
    },
    {
      "constant": true,
      "inputs": [
        {
          "name": "",
          "type": "address"
        },
        {
          "name": "",
          "type": "uint256"
        }
      ],
      "name": "LockInviteBonus",
      "outputs": [
        {
          "name": "theDayLastSecond",
          "type": "uint256"
        },
        {
          "name": "theDayInviteBonus",
          "type": "uint256"
        },
        {
          "name": "totalInviteBonus",
          "type": "uint256"
        }
      ],
      "payable": false,
      "stateMutability": "view",
      "type": "function"
    },
    {
      "constant": true,
      "inputs": [],
      "name": "end",
      "outputs": [
        {
          "name": "",
          "type": "uint256"
        }
      ],
      "payable": false,
      "stateMutability": "view",
      "type": "function"
    },
    {
      "constant": false,
      "inputs": [
        {
          "name": "newOwner",
          "type": "address"
        }
      ],
      "name": "transferOwnership",
      "outputs": [],
      "payable": false,
      "stateMutability": "nonpayable",
      "type": "function"
    },
    {
      "constant": true,
      "inputs": [],
      "name": "reciever",
      "outputs": [
        {
          "name": "",
          "type": "address"
        }
      ],
      "payable": false,
      "stateMutability": "view",
      "type": "function"
    },
    {
      "constant": true,
      "inputs": [],
      "name": "totalRegister",
      "outputs": [
        {
          "name": "",
          "type": "uint256"
        }
      ],
      "payable": false,
      "stateMutability": "view",
      "type": "function"
    },
    {
      "constant": true,
      "inputs": [
        {
          "name": "",
          "type": "address"
        },
        {
          "name": "",
          "type": "uint256"
        }
      ],
      "name": "ChildAddrs",
      "outputs": [
        {
          "name": "",
          "type": "address"
        }
      ],
      "payable": false,
      "stateMutability": "view",
      "type": "function"
    },
    {
      "inputs": [
        {
          "name": "_kolAddress",
          "type": "address"
        },
        {
          "name": "_kolpAddress",
          "type": "address"
        }
      ],
      "payable": false,
      "stateMutability": "nonpayable",
      "type": "constructor"
    },
    {
      "constant": false,
      "inputs": [
        {
          "name": "_onlyBonus",
          "type": "bool"
        }
      ],
      "name": "withdraw",
      "outputs": [],
      "payable": false,
      "stateMutability": "nonpayable",
      "type": "function"
    }
  ],
  "bytecode": "0x60806040526040805190810160405280600d81526020017f4b4f4c2050726f6d6f74696f6e0000000000000000000000000000000000000081525060019080519060200190620000519291906200017d565b50600a60085560016009556009600d60006101000a81548160ff021916908360ff1602179055503480156200008557600080fd5b506040516040806200341b8339810180604052810190808051906020019092919080519060200190929190505050336000806101000a81548173ffffffffffffffffffffffffffffffffffffffff021916908373ffffffffffffffffffffffffffffffffffffffff16021790555081600260006101000a81548173ffffffffffffffffffffffffffffffffffffffff021916908373ffffffffffffffffffffffffffffffffffffffff16021790555080600360006101000a81548173ffffffffffffffffffffffffffffffffffffffff021916908373ffffffffffffffffffffffffffffffffffffffff16021790555050506200022c565b828054600181600116156101000203166002900490600052602060002090601f016020900481019282601f10620001c057805160ff1916838001178555620001f1565b82800160010185558215620001f1579182015b82811115620001f0578251825591602001919060010190620001d3565b5b50905062000200919062000204565b5090565b6200022991905b80821115620002255760008160009055506001016200020b565b5090565b90565b6131df806200023c6000396000f3006080604052600436106102a9576000357c0100000000000000000000000000000000000000000000000000000000900463ffffffff168063042a59ea146102ae57806305536ac21461030b57806306fdde031461033c57806308b7da39146103cc5780630dcba2d1146103f75780630efd76611461044e5780631bce6ff3146104795780631ecf396d146104a45780632217e6b6146104fb5780632253d3811461052e578063275cdec3146105a8578063294b4816146105d35780632a61ae19146106145780632f63c3651461066b5780633885836f146106c657806338e8440f1461071d5780633983c665146107745780633a9c7d12146108015780633bc6cf47146108325780634da2d4041461085d578063571f2315146108b45780635b204f4c146108df5780635c1f8c62146109295780635dbac10e1461098057806360cd2f7c146109b157806361ec34db146109dc5780636afd70fe14610a5f5780637132c03a14610ad65780637138160614610b4457806372e03a5c14610b6f578063749f9f9a14610beb578063808fe48a14610c425780638099a6a614610c7557806389689e4514610ca85780638be7038e14610cd95780638da5cb5b14610d3057806396931d1114610d875780639ec12fed14610db8578063a810a54c14610e2f578063a8dd07dc14610e5e578063ad7a672f14610e89578063b4c81c6814610eb4578063cb3cdc4b14610ee5578063cc7bc3a014610f16578063cccbeebf14610f47578063ce5a6ecc14610fb4578063d520c99d1461100b578063ddca3f431461103c578063e1d1792d1461106d578063e36fe7d7146110c4578063e4ebc0e81461111b578063e77f91241461114c578063efbe1c1c146111bb578063f2fde38b146111e6578063f4b0b75614611229578063f718924a14611280578063fca2aca5146112ab575b600080fd5b3480156102ba57600080fd5b506102ef600480360381019080803573ffffffffffffffffffffffffffffffffffffffff169060200190929190505050611338565b604051808260ff1660ff16815260200191505060405180910390f35b34801561031757600080fd5b50610320611358565b604051808260ff1660ff16815260200191505060405180910390f35b34801561034857600080fd5b5061035161135d565b6040518080602001828103825283818151815260200191508051906020019080838360005b83811015610391578082015181840152602081019050610376565b50505050905090810190601f1680156103be5780820380516001836020036101000a031916815260200191505b509250505060405180910390f35b3480156103d857600080fd5b506103e16113fb565b6040518082815260200191505060405180910390f35b34801561040357600080fd5b5061040c611409565b604051808273ffffffffffffffffffffffffffffffffffffffff1673ffffffffffffffffffffffffffffffffffffffff16815260200191505060405180910390f35b34801561045a57600080fd5b5061046361142f565b6040518082815260200191505060405180910390f35b34801561048557600080fd5b5061048e61143d565b6040518082815260200191505060405180910390f35b3480156104b057600080fd5b506104e5600480360381019080803573ffffffffffffffffffffffffffffffffffffffff169060200190929190505050611443565b6040518082815260200191505060405180910390f35b34801561050757600080fd5b5061051061145b565b604051808261ffff1661ffff16815260200191505060405180910390f35b34801561053a57600080fd5b50610579600480360381019080803573ffffffffffffffffffffffffffffffffffffffff16906020019092919080359060200190929190505050611460565b604051808581526020018481526020018381526020018215151515815260200194505050505060405180910390f35b3480156105b457600080fd5b506105bd6114b9565b6040518082815260200191505060405180910390f35b3480156105df57600080fd5b506105fe600480360381019080803590602001909291905050506114c7565b6040518082815260200191505060405180910390f35b34801561062057600080fd5b50610655600480360381019080803573ffffffffffffffffffffffffffffffffffffffff1690602001909291905050506114df565b6040518082815260200191505060405180910390f35b34801561067757600080fd5b506106ac600480360381019080803573ffffffffffffffffffffffffffffffffffffffff1690602001909291905050506114f7565b604051808215151515815260200191505060405180910390f35b3480156106d257600080fd5b50610707600480360381019080803573ffffffffffffffffffffffffffffffffffffffff169060200190929190505050611517565b6040518082815260200191505060405180910390f35b34801561072957600080fd5b5061075e600480360381019080803573ffffffffffffffffffffffffffffffffffffffff16906020019092919050505061152f565b6040518082815260200191505060405180910390f35b34801561078057600080fd5b506107bf600480360381019080803573ffffffffffffffffffffffffffffffffffffffff16906020019092919080359060200190929190505050611547565b604051808273ffffffffffffffffffffffffffffffffffffffff1673ffffffffffffffffffffffffffffffffffffffff16815260200191505060405180910390f35b34801561080d57600080fd5b50610816611594565b604051808260ff1660ff16815260200191505060405180910390f35b34801561083e57600080fd5b50610847611599565b6040518082815260200191505060405180910390f35b34801561086957600080fd5b5061089e600480360381019080803573ffffffffffffffffffffffffffffffffffffffff16906020019092919050505061159f565b6040518082815260200191505060405180910390f35b3480156108c057600080fd5b506108c96115b7565b6040518082815260200191505060405180910390f35b3480156108eb57600080fd5b5061090d600480360381019080803560ff1690602001909291905050506115bd565b604051808260ff1660ff16815260200191505060405180910390f35b34801561093557600080fd5b5061096a600480360381019080803573ffffffffffffffffffffffffffffffffffffffff1690602001909291905050506115dd565b6040518082815260200191505060405180910390f35b34801561098c57600080fd5b506109956115f5565b604051808260ff1660ff16815260200191505060405180910390f35b3480156109bd57600080fd5b506109c66115fa565b6040518082815260200191505060405180910390f35b3480156109e857600080fd5b50610a1d600480360381019080803573ffffffffffffffffffffffffffffffffffffffff1690602001909291905050506115ff565b604051808273ffffffffffffffffffffffffffffffffffffffff1673ffffffffffffffffffffffffffffffffffffffff16815260200191505060405180910390f35b348015610a6b57600080fd5b50610ac0600480360381019080803573ffffffffffffffffffffffffffffffffffffffff169060200190929190803573ffffffffffffffffffffffffffffffffffffffff169060200190929190505050611632565b6040518082815260200191505060405180910390f35b348015610ae257600080fd5b50610b21600480360381019080803573ffffffffffffffffffffffffffffffffffffffff16906020019092919080359060200190929190505050611657565b604051808360ff1660ff1681526020018281526020019250505060405180910390f35b348015610b5057600080fd5b50610b596116a4565b6040518082815260200191505060405180910390f35b348015610b7b57600080fd5b50610bba600480360381019080803573ffffffffffffffffffffffffffffffffffffffff169060200190929190803590602001909291905050506116aa565b604051808581526020018481526020018381526020018260ff1660ff16815260200194505050505060405180910390f35b348015610bf757600080fd5b50610c00611703565b604051808273ffffffffffffffffffffffffffffffffffffffff1673ffffffffffffffffffffffffffffffffffffffff16815260200191505060405180910390f35b348015610c4e57600080fd5b50610c57611729565b604051808261ffff1661ffff16815260200191505060405180910390f35b348015610c8157600080fd5b50610c8a61172e565b604051808261ffff1661ffff16815260200191505060405180910390f35b348015610cb457600080fd5b50610cbd611733565b604051808260ff1660ff16815260200191505060405180910390f35b348015610ce557600080fd5b50610d1a600480360381019080803573ffffffffffffffffffffffffffffffffffffffff169060200190929190505050611738565b6040518082815260200191505060405180910390f35b348015610d3c57600080fd5b50610d45611750565b604051808273ffffffffffffffffffffffffffffffffffffffff1673ffffffffffffffffffffffffffffffffffffffff16815260200191505060405180910390f35b348015610d9357600080fd5b50610d9c611775565b604051808260ff1660ff16815260200191505060405180910390f35b348015610dc457600080fd5b50610e19600480360381019080803573ffffffffffffffffffffffffffffffffffffffff169060200190929190803573ffffffffffffffffffffffffffffffffffffffff16906020019092919050505061177a565b6040518082815260200191505060405180910390f35b348015610e3b57600080fd5b50610e5c60048036038101908080351515906020019092919050505061179f565b005b348015610e6a57600080fd5b50610e73611a3e565b6040518082815260200191505060405180910390f35b348015610e9557600080fd5b50610e9e611a44565b6040518082815260200191505060405180910390f35b348015610ec057600080fd5b50610ec9611a4a565b604051808260ff1660ff16815260200191505060405180910390f35b348015610ef157600080fd5b50610efa611a4f565b604051808260ff1660ff16815260200191505060405180910390f35b348015610f2257600080fd5b50610f2b611a62565b604051808260ff1660ff16815260200191505060405180910390f35b348015610f5357600080fd5b50610f7260048036038101908080359060200190929190505050611a67565b604051808273ffffffffffffffffffffffffffffffffffffffff1673ffffffffffffffffffffffffffffffffffffffff16815260200191505060405180910390f35b348015610fc057600080fd5b50610ff5600480360381019080803573ffffffffffffffffffffffffffffffffffffffff169060200190929190505050611a9a565b6040518082815260200191505060405180910390f35b34801561101757600080fd5b50611020611ab2565b604051808260ff1660ff16815260200191505060405180910390f35b34801561104857600080fd5b50611051611ab7565b604051808260ff1660ff16815260200191505060405180910390f35b34801561107957600080fd5b506110ae600480360381019080803573ffffffffffffffffffffffffffffffffffffffff169060200190929190505050611abc565b6040518082815260200191505060405180910390f35b3480156110d057600080fd5b50611105600480360381019080803573ffffffffffffffffffffffffffffffffffffffff169060200190929190505050611ad4565b6040518082815260200191505060405180910390f35b34801561112757600080fd5b50611130611aeb565b604051808260ff1660ff16815260200191505060405180910390f35b34801561115857600080fd5b50611197600480360381019080803573ffffffffffffffffffffffffffffffffffffffff16906020019092919080359060200190929190505050611af0565b60405180848152602001838152602001828152602001935050505060405180910390f35b3480156111c757600080fd5b506111d0611b36565b6040518082815260200191505060405180910390f35b3480156111f257600080fd5b50611227600480360381019080803573ffffffffffffffffffffffffffffffffffffffff169060200190929190505050611b3c565b005b34801561123557600080fd5b5061123e611c11565b604051808273ffffffffffffffffffffffffffffffffffffffff1673ffffffffffffffffffffffffffffffffffffffff16815260200191505060405180910390f35b34801561128c57600080fd5b50611295611c37565b6040518082815260200191505060405180910390f35b3480156112b757600080fd5b506112f6600480360381019080803573ffffffffffffffffffffffffffffffffffffffff16906020019092919080359060200190929190505050611c3d565b604051808273ffffffffffffffffffffffffffffffffffffffff1673ffffffffffffffffffffffffffffffffffffffff16815260200191505060405180910390f35b601d6020528060005260406000206000915054906101000a900460ff1681565b600a81565b60018054600181600116156101000203166002900480601f0160208091040260200160405190810160405280929190818152602001828054600181600116156101000203166002900480156113f35780601f106113c8576101008083540402835291602001916113f3565b820191906000526020600020905b8154815290600101906020018083116113d657829003601f168201915b505050505081565b69065a4da25d3016c0000081565b600260009054906101000a900473ffffffffffffffffffffffffffffffffffffffff1681565b690a968163f0a57b40000081565b60055481565b601a6020528060005260406000206000915090505481565b600381565b60136020528160005260406000208181548110151561147b57fe5b9060005260206000209060040201600091509150508060000154908060010154908060020154908060030160009054906101000a900460ff16905084565b69021e19e0c9bab240000081565b60186020528060005260406000206000915090505481565b60146020528060005260406000206000915090505481565b601f6020528060005260406000206000915054906101000a900460ff1681565b60156020528060005260406000206000915090505481565b60246020528060005260406000206000915090505481565b60106020528160005260406000208181548110151561156257fe5b906000526020600020016000915091509054906101000a900473ffffffffffffffffffffffffffffffffffffffff1681565b600a81565b60085481565b60256020528060005260406000206000915090505481565b60075481565b601e6020528060005260406000206000915054906101000a900460ff1681565b60236020528060005260406000206000915090505481565b600581565b607881565b60176020528060005260406000206000915054906101000a900473ffffffffffffffffffffffffffffffffffffffff1681565b6021602052816000526040600020602052806000526040600020600091509150505481565b60126020528160005260406000208181548110151561167257fe5b9060005260206000209060020201600091509150508060000160009054906101000a900460ff16908060010154905082565b60095481565b600e602052816000526040600020818154811015156116c557fe5b9060005260206000209060040201600091509150508060000154908060010154908060020154908060030160009054906101000a900460ff16905084565b600360009054906101000a900473ffffffffffffffffffffffffffffffffffffffff1681565b600481565b600281565b600381565b601c6020528060005260406000206000915090505481565b6000809054906101000a900473ffffffffffffffffffffffffffffffffffffffff1681565b600581565b6022602052816000526040600020602052806000526040600020600091509150505481565b60008060008060006117b033611c8a565b94506117bb336123bf565b93506117c63361280e565b92506117ed836117df8688612ce990919063ffffffff16565b612ce990919063ffffffff16565b905085151561195957601460003373ffffffffffffffffffffffffffffffffffffffff1673ffffffffffffffffffffffffffffffffffffffff168152602001908152602001600020548101905061188333601460003373ffffffffffffffffffffffffffffffffffffffff1673ffffffffffffffffffffffffffffffffffffffff16815260200190815260200160002054612d0a565b600360009054906101000a900473ffffffffffffffffffffffffffffffffffffffff1673ffffffffffffffffffffffffffffffffffffffff16638dc73521336040518263ffffffff167c0100000000000000000000000000000000000000000000000000000000028152600401808273ffffffffffffffffffffffffffffffffffffffff1673ffffffffffffffffffffffffffffffffffffffff168152602001915050600060405180830381600087803b15801561194057600080fd5b505af1158015611954573d6000803e3d6000fd5b505050505b600260009054906101000a900473ffffffffffffffffffffffffffffffffffffffff1673ffffffffffffffffffffffffffffffffffffffff1663a9059cbb33836040518363ffffffff167c0100000000000000000000000000000000000000000000000000000000028152600401808373ffffffffffffffffffffffffffffffffffffffff1673ffffffffffffffffffffffffffffffffffffffff16815260200182815260200192505050600060405180830381600087803b158015611a1e57600080fd5b505af1158015611a32573d6000803e3d6000fd5b50505050505050505050565b600c5481565b600b5481565b600a81565b600d60009054906101000a900460ff1681565b600381565b601b6020528060005260406000206000915054906101000a900473ffffffffffffffffffffffffffffffffffffffff1681565b60166020528060005260406000206000915090505481565b600581565b600581565b60196020528060005260406000206000915090505481565b602080528060005260406000206000915090505481565b601481565b600f60205281600052604060002081815481101515611b0b57fe5b9060005260206000209060030201600091509150508060000154908060010154908060020154905083565b60065481565b6000809054906101000a900473ffffffffffffffffffffffffffffffffffffffff1673ffffffffffffffffffffffffffffffffffffffff163373ffffffffffffffffffffffffffffffffffffffff16141515611b9757600080fd5b600073ffffffffffffffffffffffffffffffffffffffff168173ffffffffffffffffffffffffffffffffffffffff16141515611c0e57806000806101000a81548173ffffffffffffffffffffffffffffffffffffffff021916908373ffffffffffffffffffffffffffffffffffffffff1602179055505b50565b600460009054906101000a900473ffffffffffffffffffffffffffffffffffffffff1681565b600a5481565b601160205281600052604060002081815481101515611c5857fe5b906000526020600020016000915091509054906101000a900473ffffffffffffffffffffffffffffffffffffffff1681565b6000806000806000806000806000806000600360009054906101000a900473ffffffffffffffffffffffffffffffffffffffff1673ffffffffffffffffffffffffffffffffffffffff1663c93ae0fc8d6040518263ffffffff167c0100000000000000000000000000000000000000000000000000000000028152600401808273ffffffffffffffffffffffffffffffffffffffff1673ffffffffffffffffffffffffffffffffffffffff168152602001915050602060405180830381600087803b158015611d5857600080fd5b505af1158015611d6c573d6000803e3d6000fd5b505050506040513d6020811015611d8257600080fd5b81019080805190602001909291905050509550600086111515611da457600080fd5b600093505b8584101561236957600360009054906101000a900473ffffffffffffffffffffffffffffffffffffffff1673ffffffffffffffffffffffffffffffffffffffff1663b2a084278d866040518363ffffffff167c0100000000000000000000000000000000000000000000000000000000028152600401808373ffffffffffffffffffffffffffffffffffffffff1673ffffffffffffffffffffffffffffffffffffffff16815260200182815260200192505050608060405180830381600087803b158015611e7657600080fd5b505af1158015611e8a573d6000803e3d6000fd5b505050506040513d6080811015611ea057600080fd5b8101908080519060200190929190805190602001909291908051906020019092919080519060200190929190505050809a50819b50829c50839d505050505086151561235c5789602360003373ffffffffffffffffffffffffffffffffffffffff1673ffffffffffffffffffffffffffffffffffffffff168152602001908152602001600020541115611f7057602360003373ffffffffffffffffffffffffffffffffffffffff1673ffffffffffffffffffffffffffffffffffffffff1681526020019081526020016000205499505b6008548a4203811515611f7f57fe5b069250600854834203811515611f9157fe5b049250600360009054906101000a900473ffffffffffffffffffffffffffffffffffffffff1673ffffffffffffffffffffffffffffffffffffffff16632f63c3658d6040518263ffffffff167c0100000000000000000000000000000000000000000000000000000000028152600401808273ffffffffffffffffffffffffffffffffffffffff1673ffffffffffffffffffffffffffffffffffffffff168152602001915050602060405180830381600087803b15801561205157600080fd5b505af1158015612065573d6000803e3d6000fd5b505050506040513d602081101561207b57600080fd5b81019080805190602001909291905050501561234357600854600360009054906101000a900473ffffffffffffffffffffffffffffffffffffffff1673ffffffffffffffffffffffffffffffffffffffff1663bf131ad28c6040518263ffffffff167c010000000000000000000000000000000000000000000000000000000002815260040180828152602001915050602060405180830381600087803b15801561212557600080fd5b505af1158015612139573d6000803e3d6000fd5b505050506040513d602081101561214f57600080fd5b8101908080519060200190929190505050019950600091505b8282101561233e5760085482028a019050600360009054906101000a900473ffffffffffffffffffffffffffffffffffffffff1673ffffffffffffffffffffffffffffffffffffffff1663294b4816826040518263ffffffff167c010000000000000000000000000000000000000000000000000000000002815260040180828152602001915050602060405180830381600087803b15801561220a57600080fd5b505af115801561221e573d6000803e3d6000fd5b505050506040513d602081101561223457600080fd5b8101908080519060200190929190505050600360009054906101000a900473ffffffffffffffffffffffffffffffffffffffff1673ffffffffffffffffffffffffffffffffffffffff1663294b48168c6040518263ffffffff167c010000000000000000000000000000000000000000000000000000000002815260040180828152602001915050602060405180830381600087803b1580156122d657600080fd5b505af11580156122ea573d6000803e3d6000fd5b505050506040513d602081101561230057600080fd5b81019080805190602001909291905050506103e860038b0281151561232157fe5b040281151561232c57fe5b04850194508180600101925050612168565b61235b565b6103e860038985020281151561235557fe5b04850194505b5b8380600101945050611da9565b42602360003373ffffffffffffffffffffffffffffffffffffffff1673ffffffffffffffffffffffffffffffffffffffff16815260200190815260200160002081905550849a5050505050505050505050919050565b6000806000806000806000806001600f60008b73ffffffffffffffffffffffffffffffffffffffff1673ffffffffffffffffffffffffffffffffffffffff16815260200190815260200160002080549050039650600360009054906101000a900473ffffffffffffffffffffffffffffffffffffffff1673ffffffffffffffffffffffffffffffffffffffff1663bf131ad2426040518263ffffffff167c010000000000000000000000000000000000000000000000000000000002815260040180828152602001915050602060405180830381600087803b1580156124a457600080fd5b505af11580156124b8573d6000803e3d6000fd5b505050506040513d60208110156124ce57600080fd5b81019080805190602001909291905050509550600f60008a73ffffffffffffffffffffffffffffffffffffffff1673ffffffffffffffffffffffffffffffffffffffff1681526020019081526020016000208781548110151561252d57fe5b9060005260206000209060030201600001549450600f60008a73ffffffffffffffffffffffffffffffffffffffff1673ffffffffffffffffffffffffffffffffffffffff1681526020019081526020016000208781548110151561258d57fe5b9060005260206000209060030201600101549350600f60008a73ffffffffffffffffffffffffffffffffffffffff1673ffffffffffffffffffffffffffffffffffffffff168152602001908152602001600020878154811015156125ed57fe5b9060005260206000209060030201600201549250858510156127185760085485870381151561261857fe5b04915082848302019050600360009054906101000a900473ffffffffffffffffffffffffffffffffffffffff1673ffffffffffffffffffffffffffffffffffffffff16632e39140f8a888760006040518563ffffffff167c0100000000000000000000000000000000000000000000000000000000028152600401808573ffffffffffffffffffffffffffffffffffffffff1673ffffffffffffffffffffffffffffffffffffffff168152602001848152602001838152602001828152602001945050505050600060405180830381600087803b1580156126f857600080fd5b505af115801561270c573d6000803e3d6000fd5b50505050809750612802565b600360009054906101000a900473ffffffffffffffffffffffffffffffffffffffff1673ffffffffffffffffffffffffffffffffffffffff16631251b7a48a8660006040518463ffffffff167c0100000000000000000000000000000000000000000000000000000000028152600401808473ffffffffffffffffffffffffffffffffffffffff1673ffffffffffffffffffffffffffffffffffffffff1681526020018381526020018281526020019350505050600060405180830381600087803b1580156127e657600080fd5b505af11580156127fa573d6000803e3d6000fd5b505050508297505b50505050505050919050565b60008060008060008060008060006001600e60008c73ffffffffffffffffffffffffffffffffffffffff1673ffffffffffffffffffffffffffffffffffffffff16815260200190815260200160002080549050039750600360009054906101000a900473ffffffffffffffffffffffffffffffffffffffff1673ffffffffffffffffffffffffffffffffffffffff1663bf131ad2426040518263ffffffff167c010000000000000000000000000000000000000000000000000000000002815260040180828152602001915050602060405180830381600087803b1580156128f557600080fd5b505af1158015612909573d6000803e3d6000fd5b505050506040513d602081101561291f57600080fd5b81019080805190602001909291905050509650600e60008b73ffffffffffffffffffffffffffffffffffffffff1673ffffffffffffffffffffffffffffffffffffffff1681526020019081526020016000208881548110151561297e57fe5b9060005260206000209060040201600001549550600e60008b73ffffffffffffffffffffffffffffffffffffffff1673ffffffffffffffffffffffffffffffffffffffff168152602001908152602001600020888154811015156129de57fe5b9060005260206000209060040201600101549450600e60008b73ffffffffffffffffffffffffffffffffffffffff1673ffffffffffffffffffffffffffffffffffffffff16815260200190815260200160002088815481101515612a3e57fe5b9060005260206000209060040201600201549350600e60008b73ffffffffffffffffffffffffffffffffffffffff1673ffffffffffffffffffffffffffffffffffffffff16815260200190815260200160002088815481101515612a9e57fe5b906000526020600020906004020160030160009054906101000a900460ff16925086861015612be457600854868803811515612ad657fe5b04915083858302019050600360009054906101000a900473ffffffffffffffffffffffffffffffffffffffff1673ffffffffffffffffffffffffffffffffffffffff166315038e9e8b89886000886040518663ffffffff167c0100000000000000000000000000000000000000000000000000000000028152600401808673ffffffffffffffffffffffffffffffffffffffff1673ffffffffffffffffffffffffffffffffffffffff1681526020018581526020018481526020018381526020018260ff1660ff16815260200195505050505050600060405180830381600087803b158015612bc457600080fd5b505af1158015612bd8573d6000803e3d6000fd5b50505050809850612cdc565b600360009054906101000a900473ffffffffffffffffffffffffffffffffffffffff1673ffffffffffffffffffffffffffffffffffffffff16636f42d97f8b876000876040518563ffffffff167c0100000000000000000000000000000000000000000000000000000000028152600401808573ffffffffffffffffffffffffffffffffffffffff1673ffffffffffffffffffffffffffffffffffffffff1681526020018481526020018381526020018260ff1660ff168152602001945050505050600060405180830381600087803b158015612cc057600080fd5b505af1158015612cd4573d6000803e3d6000fd5b505050508098505b5050505050505050919050565b6000808284019050838110151515612d0057600080fd5b8091505092915050565b6000806000600360009054906101000a900473ffffffffffffffffffffffffffffffffffffffff1673ffffffffffffffffffffffffffffffffffffffff1663d8495ac3866040518263ffffffff167c0100000000000000000000000000000000000000000000000000000000028152600401808273ffffffffffffffffffffffffffffffffffffffff1673ffffffffffffffffffffffffffffffffffffffff168152602001915050602060405180830381600087803b158015612dcc57600080fd5b505af1158015612de0573d6000803e3d6000fd5b505050506040513d6020811015612df657600080fd5b81019080805190602001909291905050509150600090505b818110156131ac57600360009054906101000a900473ffffffffffffffffffffffffffffffffffffffff1673ffffffffffffffffffffffffffffffffffffffff16636f560c3486836040518363ffffffff167c0100000000000000000000000000000000000000000000000000000000028152600401808373ffffffffffffffffffffffffffffffffffffffff1673ffffffffffffffffffffffffffffffffffffffff16815260200182815260200192505050602060405180830381600087803b158015612edb57600080fd5b505af1158015612eef573d6000803e3d6000fd5b505050506040513d6020811015612f0557600080fd5b81019080805190602001909291905050509250600360009054906101000a900473ffffffffffffffffffffffffffffffffffffffff1673ffffffffffffffffffffffffffffffffffffffff1663057a53fc846040518263ffffffff167c0100000000000000000000000000000000000000000000000000000000028152600401808273ffffffffffffffffffffffffffffffffffffffff1673ffffffffffffffffffffffffffffffffffffffff168152602001915050600060405180830381600087803b158015612fd557600080fd5b505af1158015612fe9573d6000803e3d6000fd5b50505050600360009054906101000a900473ffffffffffffffffffffffffffffffffffffffff1673ffffffffffffffffffffffffffffffffffffffff1663d83a3c9584866040518363ffffffff167c0100000000000000000000000000000000000000000000000000000000028152600401808373ffffffffffffffffffffffffffffffffffffffff1673ffffffffffffffffffffffffffffffffffffffff16815260200182815260200192505050600060405180830381600087803b1580156130b257600080fd5b505af11580156130c6573d6000803e3d6000fd5b50505050600360009054906101000a900473ffffffffffffffffffffffffffffffffffffffff1673ffffffffffffffffffffffffffffffffffffffff1663d7320563846040518263ffffffff167c0100000000000000000000000000000000000000000000000000000000028152600401808273ffffffffffffffffffffffffffffffffffffffff1673ffffffffffffffffffffffffffffffffffffffff168152602001915050600060405180830381600087803b15801561318757600080fd5b505af115801561319b573d6000803e3d6000fd5b505050508080600101915050612e0e565b50505050505600a165627a7a72305820b06fc528e6a5bcaae518746edfd334c29ba33e4729ff4653c55e1e90bdff17c50029",
  "source": "pragma solidity ^0.4.23;\n/*\n *                   \n *                      KOL Community Foundation     \n *                      \n *                        \n *         \n *    Dev:Jack Koe  Special for: KOL   20200422   \n *        \n */\n\n library SafeMath {\n   function mul(uint a, uint b) internal pure  returns (uint) {\n     uint c = a * b;\n     require(a == 0 || c / a == b);\n     return c;\n   }\n   function div(uint a, uint b) internal pure returns (uint) {\n     require(b > 0);\n     uint c = a / b;\n     require(a == b * c + a % b);\n     return c;\n   }\n   function sub(uint a, uint b) internal pure returns (uint) {\n     require(b <= a);\n     return a - b;\n   }\n   function add(uint a, uint b) internal pure returns (uint) {\n     uint c = a + b;\n     require(c >= a);\n     return c;\n   }\n   function max64(uint64 a, uint64 b) internal  pure returns (uint64) {\n     return a >= b ? a : b;\n   }\n   function min64(uint64 a, uint64 b) internal  pure returns (uint64) {\n     return a < b ? a : b;\n   }\n   function max256(uint256 a, uint256 b) internal  pure returns (uint256) {\n     return a >= b ? a : b;\n   }\n   function min256(uint256 a, uint256 b) internal  pure returns (uint256) {\n     return a < b ? a : b;\n   }\n }\n\n /**\n  * title KOL Promotion Withdraw contract\n  * dev visit: https://github.com/jackoelv/KOL/\n */\n\n contract ERC20Basic {\n   uint public totalSupply;\n   function balanceOf(address who) public constant returns (uint);\n   function transfer(address to, uint value) public;\n   event Transfer(address indexed from, address indexed to, uint value);\n }\n\n contract ERC20 is ERC20Basic {\n   function allowance(address owner, address spender) public constant returns (uint);\n   function transferFrom(address from, address to, uint value) public;\n   function approve(address spender, uint value) public;\n   event Approval(address indexed owner, address indexed spender, uint value);\n }\n\n /**\n  * title KOL Promotion Withdraw contract\n  * dev visit: https://github.com/jackoelv/KOL/\n */\n\n contract BasicToken is ERC20Basic {\n\n   using SafeMath for uint;\n\n   mapping(address => uint) balances;\n\n   function transfer(address _to, uint _value) public{\n     balances[msg.sender] = balances[msg.sender].sub(_value);\n     balances[_to] = balances[_to].add(_value);\n     emit Transfer(msg.sender, _to, _value);\n   }\n\n   function balanceOf(address _owner) public constant returns (uint balance) {\n     return balances[_owner];\n   }\n }\n\n /**\n  * title KOL Promotion Withdraw contract\n  * dev visit: https://github.com/jackoelv/KOL/\n */\n\n contract StandardToken is BasicToken, ERC20 {\n   mapping (address => mapping (address => uint)) allowed;\n   uint256 public userSupplyed;\n\n   function transferFrom(address _from, address _to, uint _value) public {\n     balances[_to] = balances[_to].add(_value);\n     balances[_from] = balances[_from].sub(_value);\n     allowed[_from][msg.sender] = allowed[_from][msg.sender].sub(_value);\n     emit Transfer(_from, _to, _value);\n   }\n\n   function approve(address _spender, uint _value) public{\n     require((_value == 0) || (allowed[msg.sender][_spender] == 0)) ;\n     allowed[msg.sender][_spender] = _value;\n     emit Approval(msg.sender, _spender, _value);\n   }\n\n   function allowance(address _owner, address _spender) public constant returns (uint remaining) {\n     return allowed[_owner][_spender];\n   }\n }\n contract KOL is StandardToken {\n   function queryNode(address _addr) public view returns(bool);\n   function querySuperNode(address _addr) public view returns(bool);\n }\n contract KOLP is StandardToken {\n\n   struct lock{\n     uint256 begin;\n     uint256 amount;\n     uint256 end;\n     bool withDrawed;\n   }\n   struct teamRate{\n     uint8 rate;\n     uint256 changeTime;\n\n   }\n   struct inviteBonus{\n     uint256 begin;//\n     uint256 dayBonus;//\n     uint256 hisTotalBonus;\n   }\n   struct withDraws{\n     uint256 time;\n     uint256 amount;\n   }\n   struct dayTeamBonus{\n     uint256 theDayLastSecond;\n     uint256 theDayTeamBonus;\n     uint256 totalTeamBonus;\n     uint8 theDayRate;\n   }\n   struct dayInviteBonus{\n     uint256 theDayLastSecond;\n     uint256 theDayInviteBonus;\n     uint256 totalInviteBonus;\n   }\n   mapping (address => dayTeamBonus[]) public LockTeamBonus;\n   mapping (address => dayInviteBonus[]) public LockInviteBonus;\n\n\n   mapping (address => address[]) public InviteList;\n   mapping (address => address[]) public ChildAddrs;\n   mapping (address => teamRate[]) public TeamRateList;\n   mapping (address => lock[]) public LockHistory;\n   mapping (address => uint256) public LockBalance;\n\n   mapping (address => uint256) public InviteHistoryBonus;\n   mapping (address => uint256) public InviteCurrentDayBonus;\n\n   mapping (address => address) public InviteRelation;//A=>B B is father;\n   mapping (uint256 => uint256) public ClosePrice;//\n   mapping (address => uint256) public TotalUsers;\n   mapping (address => uint256) public TotalLockingAmount;\n   mapping (uint256 => address) public InviteCode;\n   mapping (address => uint256) public RInviteCode;\n\n   mapping (address => uint8) public isLevelN;\n   mapping (uint8 => uint8) public levelRate;\n   mapping (address => bool) public USDTOrCoin;\n\n   mapping (address => uint256) public WithDraws;\n   mapping (address => mapping (address => uint256) ) public ABTeamBonus;//ABABBonusAB\n   mapping (address => mapping (address => uint256) ) public ABInviteBonus;//ABABBonusAB\n   mapping (address => bool) public contractAddr;\n\n   //GAS\n\n   event Registed(address _user,uint256 inviteCode);\n   event GradeChanged(address _user,uint8 _oldLevel,uint8 _newLevel);\n   event WithDraw(address _user,uint256 _amount);\n   event WithDrawBalance(address _user,uint256 _balance);\n   modifier onlyContract {\n       require(contractAddr[msg.sender]);\n       _;\n   }\n   function calcuDiffAmount(address _selfAddr,address _topAddr,uint256 _amount) public view returns(uint256);\n   function queryAndSetLevelN(address _addr) public;\n   function queryLockBalance(address _addr,uint256 _queryTime) public view returns(uint256);\n   function getYestodayLastSecond(uint256 _queryTime) public view returns(uint256);\n   function getCode() public view returns(uint256);\n   function getTeam() public view returns(address[]);\n   function getFathers() public view returns(address[]);\n   function getTeamTotalUsers() public view returns(uint256);\n   function getTeamTotalAmount() public view returns(uint256);\n   function getLockHistory(address _addr,uint _index) public view returns(uint256,uint256,uint256,bool);\n   function getLockLen(address _addr) public view returns(uint256);\n   function getHistoryTeamBonus(address _addr,uint256 _index) public view returns(uint256,uint256,uint256,uint256,uint256);\n   function getHistoryInviteBonus(address _addr,uint256 _index) public view returns(uint256,uint256,uint256,uint256);\n   function getTeamRateList(address _addr,uint256 _index) public view returns(uint256,uint256,uint256);\n   function clearLock(address _addr) onlyContract public ;\n   function pushInvite(address _addr,\n                       uint256 _theDayLastSecond,\n                       uint256 _theDayInviteBonus,\n                       uint256 _totalInviteBonus) onlyContract public ;\n   function setLastInvite(address _addr,\n                       uint256 _theDayInviteBonus,\n                       uint256 _totalInviteBonus) onlyContract public ;\n   function pushTeam(address _addr,\n                       uint256 _theDayLastSecond,\n                       uint256 _theDayTeamBonus,\n                       uint256 _totalTeamBonus,\n                       uint8 _theDayRate) onlyContract public ;\n   function setLastTeam(address _addr,\n                       uint256 _theDayTeamBonus,\n                       uint256 _totalTeamBonus,\n                       uint8 _theDayRate) onlyContract public ;\n\n   function subTotalUsers(address _addr) onlyContract public ;\n   function subTotalLockingAmount(address _addr,uint256 _amount) onlyContract public ;\n   function getFathersLength(address _addr) public view returns(uint256);\n   function getFather(address _addr,uint256 _index) public view returns(address);\n}\n\n /**\n  * title KOL Promotion Withdraw contract\n  * dev visit: https://github.com/jackoelv/KOL/\n */\n\n contract Ownable {\n     address public owner;\n\n     constructor() public{\n         owner = msg.sender;\n     }\n\n     modifier onlyOwner {\n         require(msg.sender == owner);\n         _;\n     }\n     function transferOwnership(address newOwner) onlyOwner public{\n         if (newOwner != address(0)) {\n             owner = newOwner;\n         }\n     }\n }\n /**\n  * title KOL Promotion Withdraw contract\n  * dev visit: https://github.com/jackoelv/KOL/\n */\n //15\ncontract KOLWithDraw is Ownable{\n  using SafeMath for uint256;\n  string public name = \"KOL Promotion\";\n  KOL public kol;\n  KOLP public kolp;\n  address public reciever;\n\n  uint256 public begin;//2020422000\n  uint256 public end;\n\n  uint256 public iCode;\n  uint256 public every = 10 seconds;//1 days;\n  uint256 public maxSettleDays = 1;\n  uint256 public totalRegister;\n  uint256 public totalBalance;\n  uint256 public totalBonus;\n\n\n\n  uint8 public constant userLevel1 = 20;\n  uint8 public constant userLevel2 = 10;\n  uint8 public maxlevel = 9;\n\n  /* uint16 public constant comLevel1Users = 100;\n  uint16 public constant comLevel2Users = 300;\n  uint16 public constant comLevel3Users = 500; */\n\n  //\n  uint16 public constant comLevel1Users = 2;\n  uint16 public constant comLevel2Users = 3;\n  uint16 public constant comLevel3Users = 4;\n\n  uint256 public constant comLevel1Amount = 10000 * (10 ** 18);\n  uint256 public constant comLevel2Amount = 30000 * (10 ** 18);\n  uint256 public constant comLevel3Amount = 50000 * (10 ** 18);\n\n  uint8 public constant comLevel1 = 3;\n  uint8 public constant comLevel2 = 5;\n  uint8 public constant comLevel3 = 10;\n  uint8 public constant inviteLevel1 = 3;//31\n  uint8 public constant inviteLevel2 = 5;\n  uint8 public constant inviteLevel3 = 10;\n  uint8 public constant withDrawRate = 5;\n  uint8 public constant fee = 5;\n\n  /* uint256 public constant withDrawDays = 30 days; */\n  //5\n  uint256 public constant withDrawDays = 2 minutes;\n\n  /* address[] private inviteAddr;// A->B->C: inviteAddr= B,A\n  address[] private childAddr;// A-->B,A-->C,childAddr= B, C */\n\n\n\n  struct lock{\n    uint256 begin;\n    uint256 amount;\n    uint256 end;\n    bool withDrawed;\n  }\n\n  struct teamRate{\n    uint8 rate;\n    uint256 changeTime;\n\n  }\n\n  struct inviteBonus{\n    uint256 begin;//\n    uint256 dayBonus;//\n    uint256 hisTotalBonus;\n  }\n  struct withDraws{\n    uint256 time;\n    uint256 amount;\n  }\n  struct dayTeamBonus{\n    uint256 theDayLastSecond;\n    uint256 theDayTeamBonus;\n    uint256 totalTeamBonus;\n    uint8 theDayRate;\n  }\n  struct dayInviteBonus{\n    uint256 theDayLastSecond;\n    uint256 theDayInviteBonus;\n    uint256 totalInviteBonus;\n  }\n\n\n\n  mapping (address => dayTeamBonus[]) public LockTeamBonus;\n  mapping (address => dayInviteBonus[]) public LockInviteBonus;\n\n\n  mapping (address => address[]) public InviteList;\n  mapping (address => address[]) public ChildAddrs;\n  mapping (address => teamRate[]) public TeamRateList;\n  mapping (address => lock[]) public LockHistory;\n  mapping (address => uint256) public LockBalance;\n\n  mapping (address => uint256) public InviteHistoryBonus;\n  mapping (address => uint256) public InviteCurrentDayBonus;\n\n  mapping (address => address) public InviteRelation;//A=>B B is father;\n  mapping (uint256 => uint256) public ClosePrice;//\n  mapping (address => uint256) public TotalUsers;\n  mapping (address => uint256) public TotalLockingAmount;\n  mapping (uint256 => address) public InviteCode;\n  mapping (address => uint256) public RInviteCode;\n\n  mapping (address => uint8) public isLevelN;\n  mapping (uint8 => uint8) public levelRate;\n  mapping (address => bool) public USDTOrCoin;\n\n  mapping (address => uint256) public WithDraws;\n  mapping (address => mapping (address => uint256) ) public ABTeamBonus;//ABABBonusAB\n  mapping (address => mapping (address => uint256) ) public ABInviteBonus;//ABABBonusAB\n\n  //\n  mapping (address => uint256) public DrawTime;\n  mapping (address => uint256) public InviteDrawAmount;\n  mapping (address => uint256) public TeamDrawAmount;\n  //GAS\n\n  constructor(address _kolAddress,address _kolpAddress) public {\n    kol = KOL(_kolAddress);\n    kolp = KOLP(_kolpAddress);\n  }\n\n\n  function querySelfBonus(address _addr) internal view returns(uint256){\n    uint256 begin;\n    uint256 end;\n    uint256 amount;\n    bool withDrawed;\n    uint256 len = kolp.getLockLen(_addr);\n    require(len > 0);\n    uint256 selfBonus;\n    for (uint i=0; i<len; i++){\n      (begin,end,amount,withDrawed) = kolp.getLockHistory(_addr,i);\n      if (!withDrawed){\n        if (DrawTime[msg.sender] > begin) begin = DrawTime[msg.sender];\n        uint256 lastingDays = (now - begin) % every;\n        lastingDays = (now - lastingDays) / every;\n        if (kolp.USDTOrCoin(_addr)){\n          begin = kolp.getYestodayLastSecond(begin) + every;\n          for (uint j=0;j<lastingDays;j++){\n            uint256 theTime = begin + j*every;\n            selfBonus += amount * 3 / 1000 * kolp.ClosePrice(begin) / kolp.ClosePrice(theTime);\n          }\n        }else{\n          selfBonus += lastingDays * amount * 3 / 1000;\n        }\n      }\n    }\n    DrawTime[msg.sender] = now;\n    return selfBonus;\n  }\n  function queryInviteBonus(address _addr) internal view returns(uint256){\n    uint256 last = LockInviteBonus[_addr].length - 1;\n    uint256 yestodayLastSecond = kolp.getYestodayLastSecond(now);\n    uint256 lastDayLastSecond = LockInviteBonus[_addr][last].theDayLastSecond;\n    uint256 lastDayInviteBonus = LockInviteBonus[_addr][last].theDayInviteBonus;\n    uint256 lastDayInviteTotalBonus = LockInviteBonus[_addr][last].totalInviteBonus;\n    uint256 lastingDays;\n    uint256 newDayInviteTotalBonus;\n    if (lastDayLastSecond < yestodayLastSecond){\n      // Push\n      lastingDays = (yestodayLastSecond - lastDayLastSecond) / every;\n      newDayInviteTotalBonus = (lastingDays * lastDayInviteBonus) + lastDayInviteTotalBonus;\n      kolp.pushInvite(_addr,yestodayLastSecond,lastDayInviteBonus,0);\n      return newDayInviteTotalBonus;\n    }else{\n      //\n      kolp.setLastInvite(_addr,lastDayInviteBonus,0);\n      return lastDayInviteTotalBonus;\n    }\n\n  }\n  function queryTeamBonus(address _addr) internal view returns(uint256){\n    uint256 last = LockTeamBonus[_addr].length - 1;\n    uint256 yestodayLastSecond = kolp.getYestodayLastSecond(now);\n    uint256 lastDayLastSecond = LockTeamBonus[_addr][last].theDayLastSecond;\n    uint256 lastDayTeamBonus = LockTeamBonus[_addr][last].theDayTeamBonus;\n    uint256 lastDayTeamTotalBonus = LockTeamBonus[_addr][last].totalTeamBonus;\n    uint8 theDayRate = LockTeamBonus[_addr][last].theDayRate;\n    uint256 lastingDays;\n    uint256 newDayTeamTotalBonus;\n    if (lastDayLastSecond < yestodayLastSecond){\n      // Push\n      lastingDays = (yestodayLastSecond - lastDayLastSecond) / every;\n      newDayTeamTotalBonus = (lastingDays * lastDayTeamBonus) + lastDayTeamTotalBonus;\n      kolp.pushTeam(_addr,yestodayLastSecond,lastDayTeamBonus,0,theDayRate);\n      return newDayTeamTotalBonus;\n    }else{\n      //\n      kolp.setLastTeam(_addr,lastDayTeamBonus,0,theDayRate);\n      return newDayTeamTotalBonus;\n    }\n  }\n  function afterWithdraw(address _addr,uint256 _amount) internal {\n    //\n    address father;\n    uint256 fathersLen = kolp.getFathersLength(_addr);\n    for (uint i = 0; i<fathersLen; i++){\n      father = kolp.getFather(_addr,i);\n      kolp.subTotalUsers(father);\n      kolp.subTotalLockingAmount(father,_amount);\n      kolp.queryAndSetLevelN(father);\n    }\n\n  }\n  function withdraw(bool _onlyBonus) public{\n    //true: Only Bonus;false:all;\n    uint256 selfBonus;\n    uint256 inviteBonus;\n    uint256 teamBonus;\n    uint256 balance;\n\n    selfBonus = querySelfBonus(msg.sender);\n    inviteBonus = queryInviteBonus(msg.sender);\n    teamBonus = queryTeamBonus(msg.sender);\n\n    uint256 allBonus = selfBonus.add(inviteBonus).add(teamBonus);\n    if (!_onlyBonus){\n      allBonus += LockBalance[msg.sender];\n      afterWithdraw(msg.sender,LockBalance[msg.sender]);\n      kolp.clearLock(msg.sender);\n    }\n    kol.transfer(msg.sender,allBonus);\n  }\n\n}\n",
  "sourcePath": "/Users/jack/git/github/KOL/contracts/KOLWithDraw.sol",
  "compiler": {
    "name": "solc",
    "version": "0.4.23+commit.124ca40d.Emscripten.clang"
  },
  "schemaVersion": "3.0.19",
  "updatedAt": "2020-05-04T13:05:19.794Z",
  "devdoc": {
    "methods": {}
  },
  "userdoc": {
    "methods": {}
  }
}