{
  "contractName": "KOLWithDraw",
  "abi": [
    {
      "constant": true,
      "inputs": [
        {
          "name": "",
          "type": "address"
        }
      ],
      "name": "isLevelN",
      "outputs": [
        {
          "name": "",
          "type": "uint8"
        }
      ],
      "payable": false,
      "stateMutability": "view",
      "type": "function"
    },
    {
      "constant": true,
      "inputs": [],
      "name": "comLevel3",
      "outputs": [
        {
          "name": "",
          "type": "uint8"
        }
      ],
      "payable": false,
      "stateMutability": "view",
      "type": "function"
    },
    {
      "constant": true,
      "inputs": [],
      "name": "name",
      "outputs": [
        {
          "name": "",
          "type": "string"
        }
      ],
      "payable": false,
      "stateMutability": "view",
      "type": "function"
    },
    {
      "constant": true,
      "inputs": [],
      "name": "comLevel2Amount",
      "outputs": [
        {
          "name": "",
          "type": "uint256"
        }
      ],
      "payable": false,
      "stateMutability": "view",
      "type": "function"
    },
    {
      "constant": true,
      "inputs": [],
      "name": "kol",
      "outputs": [
        {
          "name": "",
          "type": "address"
        }
      ],
      "payable": false,
      "stateMutability": "view",
      "type": "function"
    },
    {
      "constant": true,
      "inputs": [],
      "name": "comLevel3Amount",
      "outputs": [
        {
          "name": "",
          "type": "uint256"
        }
      ],
      "payable": false,
      "stateMutability": "view",
      "type": "function"
    },
    {
      "constant": true,
      "inputs": [
        {
          "name": "",
          "type": "address"
        }
      ],
      "name": "TotalLockingAmount",
      "outputs": [
        {
          "name": "",
          "type": "uint256"
        }
      ],
      "payable": false,
      "stateMutability": "view",
      "type": "function"
    },
    {
      "constant": true,
      "inputs": [],
      "name": "comLevel2Users",
      "outputs": [
        {
          "name": "",
          "type": "uint16"
        }
      ],
      "payable": false,
      "stateMutability": "view",
      "type": "function"
    },
    {
      "constant": true,
      "inputs": [
        {
          "name": "",
          "type": "address"
        },
        {
          "name": "",
          "type": "uint256"
        }
      ],
      "name": "LockHistory",
      "outputs": [
        {
          "name": "begin",
          "type": "uint256"
        },
        {
          "name": "amount",
          "type": "uint256"
        },
        {
          "name": "end",
          "type": "uint256"
        },
        {
          "name": "withDrawed",
          "type": "bool"
        }
      ],
      "payable": false,
      "stateMutability": "view",
      "type": "function"
    },
    {
      "constant": true,
      "inputs": [],
      "name": "comLevel1Amount",
      "outputs": [
        {
          "name": "",
          "type": "uint256"
        }
      ],
      "payable": false,
      "stateMutability": "view",
      "type": "function"
    },
    {
      "constant": true,
      "inputs": [
        {
          "name": "",
          "type": "uint256"
        }
      ],
      "name": "ClosePrice",
      "outputs": [
        {
          "name": "",
          "type": "uint256"
        }
      ],
      "payable": false,
      "stateMutability": "view",
      "type": "function"
    },
    {
      "constant": true,
      "inputs": [
        {
          "name": "",
          "type": "address"
        }
      ],
      "name": "LockBalance",
      "outputs": [
        {
          "name": "",
          "type": "uint256"
        }
      ],
      "payable": false,
      "stateMutability": "view",
      "type": "function"
    },
    {
      "constant": true,
      "inputs": [
        {
          "name": "",
          "type": "address"
        }
      ],
      "name": "USDTOrCoin",
      "outputs": [
        {
          "name": "",
          "type": "bool"
        }
      ],
      "payable": false,
      "stateMutability": "view",
      "type": "function"
    },
    {
      "constant": true,
      "inputs": [
        {
          "name": "",
          "type": "address"
        }
      ],
      "name": "InviteHistoryBonus",
      "outputs": [
        {
          "name": "",
          "type": "uint256"
        }
      ],
      "payable": false,
      "stateMutability": "view",
      "type": "function"
    },
    {
      "constant": true,
      "inputs": [
        {
          "name": "",
          "type": "address"
        }
      ],
      "name": "InviteDrawAmount",
      "outputs": [
        {
          "name": "",
          "type": "uint256"
        }
      ],
      "payable": false,
      "stateMutability": "view",
      "type": "function"
    },
    {
      "constant": true,
      "inputs": [
        {
          "name": "",
          "type": "address"
        },
        {
          "name": "",
          "type": "uint256"
        }
      ],
      "name": "InviteList",
      "outputs": [
        {
          "name": "",
          "type": "address"
        }
      ],
      "payable": false,
      "stateMutability": "view",
      "type": "function"
    },
    {
      "constant": true,
      "inputs": [],
      "name": "userLevel2",
      "outputs": [
        {
          "name": "",
          "type": "uint8"
        }
      ],
      "payable": false,
      "stateMutability": "view",
      "type": "function"
    },
    {
      "constant": true,
      "inputs": [],
      "name": "every",
      "outputs": [
        {
          "name": "",
          "type": "uint256"
        }
      ],
      "payable": false,
      "stateMutability": "view",
      "type": "function"
    },
    {
      "constant": true,
      "inputs": [
        {
          "name": "",
          "type": "address"
        }
      ],
      "name": "TeamDrawAmount",
      "outputs": [
        {
          "name": "",
          "type": "uint256"
        }
      ],
      "payable": false,
      "stateMutability": "view",
      "type": "function"
    },
    {
      "constant": true,
      "inputs": [
        {
          "name": "",
          "type": "uint8"
        }
      ],
      "name": "levelRate",
      "outputs": [
        {
          "name": "",
          "type": "uint8"
        }
      ],
      "payable": false,
      "stateMutability": "view",
      "type": "function"
    },
    {
      "constant": true,
      "inputs": [
        {
          "name": "",
          "type": "address"
        }
      ],
      "name": "DrawTime",
      "outputs": [
        {
          "name": "",
          "type": "uint256"
        }
      ],
      "payable": false,
      "stateMutability": "view",
      "type": "function"
    },
    {
      "constant": true,
      "inputs": [],
      "name": "comLevel2",
      "outputs": [
        {
          "name": "",
          "type": "uint8"
        }
      ],
      "payable": false,
      "stateMutability": "view",
      "type": "function"
    },
    {
      "constant": true,
      "inputs": [],
      "name": "withDrawDays",
      "outputs": [
        {
          "name": "",
          "type": "uint256"
        }
      ],
      "payable": false,
      "stateMutability": "view",
      "type": "function"
    },
    {
      "constant": true,
      "inputs": [
        {
          "name": "",
          "type": "address"
        }
      ],
      "name": "InviteRelation",
      "outputs": [
        {
          "name": "",
          "type": "address"
        }
      ],
      "payable": false,
      "stateMutability": "view",
      "type": "function"
    },
    {
      "constant": true,
      "inputs": [
        {
          "name": "",
          "type": "address"
        },
        {
          "name": "",
          "type": "address"
        }
      ],
      "name": "ABTeamBonus",
      "outputs": [
        {
          "name": "",
          "type": "uint256"
        }
      ],
      "payable": false,
      "stateMutability": "view",
      "type": "function"
    },
    {
      "constant": true,
      "inputs": [
        {
          "name": "",
          "type": "address"
        },
        {
          "name": "",
          "type": "uint256"
        }
      ],
      "name": "TeamRateList",
      "outputs": [
        {
          "name": "rate",
          "type": "uint8"
        },
        {
          "name": "changeTime",
          "type": "uint256"
        }
      ],
      "payable": false,
      "stateMutability": "view",
      "type": "function"
    },
    {
      "constant": true,
      "inputs": [
        {
          "name": "",
          "type": "address"
        },
        {
          "name": "",
          "type": "uint256"
        }
      ],
      "name": "LockTeamBonus",
      "outputs": [
        {
          "name": "theDayLastSecond",
          "type": "uint256"
        },
        {
          "name": "theDayTeamBonus",
          "type": "uint256"
        },
        {
          "name": "totalTeamBonus",
          "type": "uint256"
        },
        {
          "name": "theDayRate",
          "type": "uint8"
        }
      ],
      "payable": false,
      "stateMutability": "view",
      "type": "function"
    },
    {
      "constant": true,
      "inputs": [],
      "name": "kolp",
      "outputs": [
        {
          "name": "",
          "type": "address"
        }
      ],
      "payable": false,
      "stateMutability": "view",
      "type": "function"
    },
    {
      "constant": true,
      "inputs": [],
      "name": "comLevel3Users",
      "outputs": [
        {
          "name": "",
          "type": "uint16"
        }
      ],
      "payable": false,
      "stateMutability": "view",
      "type": "function"
    },
    {
      "constant": true,
      "inputs": [],
      "name": "comLevel1Users",
      "outputs": [
        {
          "name": "",
          "type": "uint16"
        }
      ],
      "payable": false,
      "stateMutability": "view",
      "type": "function"
    },
    {
      "constant": true,
      "inputs": [],
      "name": "inviteLevel1",
      "outputs": [
        {
          "name": "",
          "type": "uint8"
        }
      ],
      "payable": false,
      "stateMutability": "view",
      "type": "function"
    },
    {
      "constant": true,
      "inputs": [
        {
          "name": "",
          "type": "address"
        }
      ],
      "name": "RInviteCode",
      "outputs": [
        {
          "name": "",
          "type": "uint256"
        }
      ],
      "payable": false,
      "stateMutability": "view",
      "type": "function"
    },
    {
      "constant": true,
      "inputs": [],
      "name": "owner",
      "outputs": [
        {
          "name": "",
          "type": "address"
        }
      ],
      "payable": false,
      "stateMutability": "view",
      "type": "function"
    },
    {
      "constant": true,
      "inputs": [],
      "name": "inviteLevel2",
      "outputs": [
        {
          "name": "",
          "type": "uint8"
        }
      ],
      "payable": false,
      "stateMutability": "view",
      "type": "function"
    },
    {
      "constant": true,
      "inputs": [
        {
          "name": "",
          "type": "address"
        },
        {
          "name": "",
          "type": "address"
        }
      ],
      "name": "ABInviteBonus",
      "outputs": [
        {
          "name": "",
          "type": "uint256"
        }
      ],
      "payable": false,
      "stateMutability": "view",
      "type": "function"
    },
    {
      "constant": true,
      "inputs": [],
      "name": "inviteLevel3",
      "outputs": [
        {
          "name": "",
          "type": "uint8"
        }
      ],
      "payable": false,
      "stateMutability": "view",
      "type": "function"
    },
    {
      "constant": true,
      "inputs": [],
      "name": "maxlevel",
      "outputs": [
        {
          "name": "",
          "type": "uint8"
        }
      ],
      "payable": false,
      "stateMutability": "view",
      "type": "function"
    },
    {
      "constant": true,
      "inputs": [],
      "name": "comLevel1",
      "outputs": [
        {
          "name": "",
          "type": "uint8"
        }
      ],
      "payable": false,
      "stateMutability": "view",
      "type": "function"
    },
    {
      "constant": true,
      "inputs": [
        {
          "name": "",
          "type": "uint256"
        }
      ],
      "name": "InviteCode",
      "outputs": [
        {
          "name": "",
          "type": "address"
        }
      ],
      "payable": false,
      "stateMutability": "view",
      "type": "function"
    },
    {
      "constant": true,
      "inputs": [
        {
          "name": "",
          "type": "address"
        }
      ],
      "name": "InviteCurrentDayBonus",
      "outputs": [
        {
          "name": "",
          "type": "uint256"
        }
      ],
      "payable": false,
      "stateMutability": "view",
      "type": "function"
    },
    {
      "constant": true,
      "inputs": [],
      "name": "withDrawRate",
      "outputs": [
        {
          "name": "",
          "type": "uint8"
        }
      ],
      "payable": false,
      "stateMutability": "view",
      "type": "function"
    },
    {
      "constant": true,
      "inputs": [],
      "name": "fee",
      "outputs": [
        {
          "name": "",
          "type": "uint8"
        }
      ],
      "payable": false,
      "stateMutability": "view",
      "type": "function"
    },
    {
      "constant": true,
      "inputs": [
        {
          "name": "",
          "type": "address"
        }
      ],
      "name": "TotalUsers",
      "outputs": [
        {
          "name": "",
          "type": "uint256"
        }
      ],
      "payable": false,
      "stateMutability": "view",
      "type": "function"
    },
    {
      "constant": true,
      "inputs": [
        {
          "name": "",
          "type": "address"
        }
      ],
      "name": "WithDraws",
      "outputs": [
        {
          "name": "",
          "type": "uint256"
        }
      ],
      "payable": false,
      "stateMutability": "view",
      "type": "function"
    },
    {
      "constant": true,
      "inputs": [],
      "name": "userLevel1",
      "outputs": [
        {
          "name": "",
          "type": "uint8"
        }
      ],
      "payable": false,
      "stateMutability": "view",
      "type": "function"
    },
    {
      "constant": true,
      "inputs": [
        {
          "name": "",
          "type": "address"
        },
        {
          "name": "",
          "type": "uint256"
        }
      ],
      "name": "LockInviteBonus",
      "outputs": [
        {
          "name": "theDayLastSecond",
          "type": "uint256"
        },
        {
          "name": "theDayInviteBonus",
          "type": "uint256"
        },
        {
          "name": "totalInviteBonus",
          "type": "uint256"
        }
      ],
      "payable": false,
      "stateMutability": "view",
      "type": "function"
    },
    {
      "constant": false,
      "inputs": [
        {
          "name": "newOwner",
          "type": "address"
        }
      ],
      "name": "transferOwnership",
      "outputs": [],
      "payable": false,
      "stateMutability": "nonpayable",
      "type": "function"
    },
    {
      "constant": true,
      "inputs": [
        {
          "name": "",
          "type": "address"
        },
        {
          "name": "",
          "type": "uint256"
        }
      ],
      "name": "ChildAddrs",
      "outputs": [
        {
          "name": "",
          "type": "address"
        }
      ],
      "payable": false,
      "stateMutability": "view",
      "type": "function"
    },
    {
      "inputs": [
        {
          "name": "_kolAddress",
          "type": "address"
        },
        {
          "name": "_kolpAddress",
          "type": "address"
        }
      ],
      "payable": false,
      "stateMutability": "nonpayable",
      "type": "constructor"
    },
    {
      "anonymous": false,
      "inputs": [
        {
          "indexed": false,
          "name": "_user",
          "type": "address"
        },
        {
          "indexed": false,
          "name": "_amount",
          "type": "uint256"
        }
      ],
      "name": "WithDrawed",
      "type": "event"
    },
    {
      "constant": true,
      "inputs": [
        {
          "name": "_addr",
          "type": "address"
        }
      ],
      "name": "querySelfBonus",
      "outputs": [
        {
          "name": "",
          "type": "uint256"
        }
      ],
      "payable": false,
      "stateMutability": "view",
      "type": "function"
    },
    {
      "constant": false,
      "inputs": [
        {
          "name": "_addr",
          "type": "address"
        }
      ],
      "name": "queryInviteBonus",
      "outputs": [
        {
          "name": "",
          "type": "uint256"
        }
      ],
      "payable": false,
      "stateMutability": "nonpayable",
      "type": "function"
    },
    {
      "constant": false,
      "inputs": [
        {
          "name": "_addr",
          "type": "address"
        }
      ],
      "name": "queryTeamBonus",
      "outputs": [
        {
          "name": "",
          "type": "uint256"
        }
      ],
      "payable": false,
      "stateMutability": "nonpayable",
      "type": "function"
    },
    {
      "constant": false,
      "inputs": [
        {
          "name": "_onlyBonus",
          "type": "bool"
        }
      ],
      "name": "withdraw",
      "outputs": [],
      "payable": false,
      "stateMutability": "nonpayable",
      "type": "function"
    },
    {
      "constant": true,
      "inputs": [
        {
          "name": "_onlyBonus",
          "type": "bool"
        }
      ],
      "name": "withdrawCheck",
      "outputs": [
        {
          "name": "",
          "type": "uint256"
        }
      ],
      "payable": false,
      "stateMutability": "view",
      "type": "function"
    }
  ],
  "bytecode": "0x60806040526040805190810160405280600d81526020017f4b4f4c2050726f6d6f74696f6e00000000000000000000000000000000000000815250600190805190602001906200005192919062000178565b50600a6004556009600560006101000a81548160ff021916908360ff1602179055503480156200008057600080fd5b50604051604080620041438339810180604052810190808051906020019092919080519060200190929190505050336000806101000a81548173ffffffffffffffffffffffffffffffffffffffff021916908373ffffffffffffffffffffffffffffffffffffffff16021790555081600260006101000a81548173ffffffffffffffffffffffffffffffffffffffff021916908373ffffffffffffffffffffffffffffffffffffffff16021790555080600360006101000a81548173ffffffffffffffffffffffffffffffffffffffff021916908373ffffffffffffffffffffffffffffffffffffffff160217905550505062000227565b828054600181600116156101000203166002900490600052602060002090601f016020900481019282601f10620001bb57805160ff1916838001178555620001ec565b82800160010185558215620001ec579182015b82811115620001eb578251825591602001919060010190620001ce565b5b509050620001fb9190620001ff565b5090565b6200022491905b808211156200022057600081600090555060010162000206565b5090565b90565b613f0c80620002376000396000f30060806040526004361061027d576000357c0100000000000000000000000000000000000000000000000000000000900463ffffffff168063042a59ea1461028257806305536ac2146102df57806306fdde031461031057806308b7da39146103a05780630dcba2d1146103cb5780630efd7661146104225780631ecf396d1461044d5780632217e6b6146104a45780632253d381146104d7578063256f131a14610551578063275cdec314610594578063294b4816146105bf5780632a61ae19146106005780632f63c365146106575780633885836f146106b257806338e8440f146107095780633983c665146107605780633a9c7d12146107ed5780633bc6cf471461081e5780634da2d404146108495780635b204f4c146108a05780635c1f8c62146108ea5780635dbac10e1461094157806360cd2f7c1461097257806361ec34db1461099d5780636afd70fe14610a205780637132c03a14610a9757806372e03a5c14610b05578063749f9f9a14610b81578063808fe48a14610bd85780638099a6a614610c0b57806389689e4514610c3e5780638be7038e14610c6f5780638da5cb5b14610cc657806396931d1114610d1d5780639ec12fed14610d4e578063a810a54c14610dc5578063b4c81c6814610df4578063cb3cdc4b14610e25578063cc7bc3a014610e56578063cccbeebf14610e87578063ce5a6ecc14610ef4578063d461d2f014610f4b578063d520c99d14610fa2578063ddca3f4314610fd3578063e07b86ee14611004578063e1d1792d1461105b578063e36fe7d7146110b2578063e4ebc0e814611109578063e77f91241461113a578063f2fde38b146111a9578063f88c6c03146111ec578063fca2aca514611243575b600080fd5b34801561028e57600080fd5b506102c3600480360381019080803573ffffffffffffffffffffffffffffffffffffffff1690602001909291905050506112d0565b604051808260ff1660ff16815260200191505060405180910390f35b3480156102eb57600080fd5b506102f46112f0565b604051808260ff1660ff16815260200191505060405180910390f35b34801561031c57600080fd5b506103256112f5565b6040518080602001828103825283818151815260200191508051906020019080838360005b8381101561036557808201518184015260208101905061034a565b50505050905090810190601f1680156103925780820380516001836020036101000a031916815260200191505b509250505060405180910390f35b3480156103ac57600080fd5b506103b5611393565b6040518082815260200191505060405180910390f35b3480156103d757600080fd5b506103e06113a1565b604051808273ffffffffffffffffffffffffffffffffffffffff1673ffffffffffffffffffffffffffffffffffffffff16815260200191505060405180910390f35b34801561042e57600080fd5b506104376113c7565b6040518082815260200191505060405180910390f35b34801561045957600080fd5b5061048e600480360381019080803573ffffffffffffffffffffffffffffffffffffffff1690602001909291905050506113d5565b6040518082815260200191505060405180910390f35b3480156104b057600080fd5b506104b96113ed565b604051808261ffff1661ffff16815260200191505060405180910390f35b3480156104e357600080fd5b50610522600480360381019080803573ffffffffffffffffffffffffffffffffffffffff169060200190929190803590602001909291905050506113f2565b604051808581526020018481526020018381526020018215151515815260200194505050505060405180910390f35b34801561055d57600080fd5b5061057e60048036038101908080351515906020019092919050505061144b565b6040518082815260200191505060405180910390f35b3480156105a057600080fd5b506105a9611afb565b6040518082815260200191505060405180910390f35b3480156105cb57600080fd5b506105ea60048036038101908080359060200190929190505050611b09565b6040518082815260200191505060405180910390f35b34801561060c57600080fd5b50610641600480360381019080803573ffffffffffffffffffffffffffffffffffffffff169060200190929190505050611b21565b6040518082815260200191505060405180910390f35b34801561066357600080fd5b50610698600480360381019080803573ffffffffffffffffffffffffffffffffffffffff169060200190929190505050611b39565b604051808215151515815260200191505060405180910390f35b3480156106be57600080fd5b506106f3600480360381019080803573ffffffffffffffffffffffffffffffffffffffff169060200190929190505050611b59565b6040518082815260200191505060405180910390f35b34801561071557600080fd5b5061074a600480360381019080803573ffffffffffffffffffffffffffffffffffffffff169060200190929190505050611b71565b6040518082815260200191505060405180910390f35b34801561076c57600080fd5b506107ab600480360381019080803573ffffffffffffffffffffffffffffffffffffffff16906020019092919080359060200190929190505050611b89565b604051808273ffffffffffffffffffffffffffffffffffffffff1673ffffffffffffffffffffffffffffffffffffffff16815260200191505060405180910390f35b3480156107f957600080fd5b50610802611bd6565b604051808260ff1660ff16815260200191505060405180910390f35b34801561082a57600080fd5b50610833611bdb565b6040518082815260200191505060405180910390f35b34801561085557600080fd5b5061088a600480360381019080803573ffffffffffffffffffffffffffffffffffffffff169060200190929190505050611be1565b6040518082815260200191505060405180910390f35b3480156108ac57600080fd5b506108ce600480360381019080803560ff169060200190929190505050611bf9565b604051808260ff1660ff16815260200191505060405180910390f35b3480156108f657600080fd5b5061092b600480360381019080803573ffffffffffffffffffffffffffffffffffffffff169060200190929190505050611c19565b6040518082815260200191505060405180910390f35b34801561094d57600080fd5b50610956611c31565b604051808260ff1660ff16815260200191505060405180910390f35b34801561097e57600080fd5b50610987611c36565b6040518082815260200191505060405180910390f35b3480156109a957600080fd5b506109de600480360381019080803573ffffffffffffffffffffffffffffffffffffffff169060200190929190505050611c3b565b604051808273ffffffffffffffffffffffffffffffffffffffff1673ffffffffffffffffffffffffffffffffffffffff16815260200191505060405180910390f35b348015610a2c57600080fd5b50610a81600480360381019080803573ffffffffffffffffffffffffffffffffffffffff169060200190929190803573ffffffffffffffffffffffffffffffffffffffff169060200190929190505050611c6e565b6040518082815260200191505060405180910390f35b348015610aa357600080fd5b50610ae2600480360381019080803573ffffffffffffffffffffffffffffffffffffffff16906020019092919080359060200190929190505050611c93565b604051808360ff1660ff1681526020018281526020019250505060405180910390f35b348015610b1157600080fd5b50610b50600480360381019080803573ffffffffffffffffffffffffffffffffffffffff16906020019092919080359060200190929190505050611ce0565b604051808581526020018481526020018381526020018260ff1660ff16815260200194505050505060405180910390f35b348015610b8d57600080fd5b50610b96611d39565b604051808273ffffffffffffffffffffffffffffffffffffffff1673ffffffffffffffffffffffffffffffffffffffff16815260200191505060405180910390f35b348015610be457600080fd5b50610bed611d5f565b604051808261ffff1661ffff16815260200191505060405180910390f35b348015610c1757600080fd5b50610c20611d64565b604051808261ffff1661ffff16815260200191505060405180910390f35b348015610c4a57600080fd5b50610c53611d69565b604051808260ff1660ff16815260200191505060405180910390f35b348015610c7b57600080fd5b50610cb0600480360381019080803573ffffffffffffffffffffffffffffffffffffffff169060200190929190505050611d6e565b6040518082815260200191505060405180910390f35b348015610cd257600080fd5b50610cdb611d86565b604051808273ffffffffffffffffffffffffffffffffffffffff1673ffffffffffffffffffffffffffffffffffffffff16815260200191505060405180910390f35b348015610d2957600080fd5b50610d32611dab565b604051808260ff1660ff16815260200191505060405180910390f35b348015610d5a57600080fd5b50610daf600480360381019080803573ffffffffffffffffffffffffffffffffffffffff169060200190929190803573ffffffffffffffffffffffffffffffffffffffff169060200190929190505050611db0565b6040518082815260200191505060405180910390f35b348015610dd157600080fd5b50610df2600480360381019080803515159060200190929190505050611dd5565b005b348015610e0057600080fd5b50610e09612ab3565b604051808260ff1660ff16815260200191505060405180910390f35b348015610e3157600080fd5b50610e3a612ab8565b604051808260ff1660ff16815260200191505060405180910390f35b348015610e6257600080fd5b50610e6b612acb565b604051808260ff1660ff16815260200191505060405180910390f35b348015610e9357600080fd5b50610eb260048036038101908080359060200190929190505050612ad0565b604051808273ffffffffffffffffffffffffffffffffffffffff1673ffffffffffffffffffffffffffffffffffffffff16815260200191505060405180910390f35b348015610f0057600080fd5b50610f35600480360381019080803573ffffffffffffffffffffffffffffffffffffffff169060200190929190505050612b03565b6040518082815260200191505060405180910390f35b348015610f5757600080fd5b50610f8c600480360381019080803573ffffffffffffffffffffffffffffffffffffffff169060200190929190505050612b1b565b6040518082815260200191505060405180910390f35b348015610fae57600080fd5b50610fb7612e4b565b604051808260ff1660ff16815260200191505060405180910390f35b348015610fdf57600080fd5b50610fe8612e50565b604051808260ff1660ff16815260200191505060405180910390f35b34801561101057600080fd5b50611045600480360381019080803573ffffffffffffffffffffffffffffffffffffffff169060200190929190505050612e55565b6040518082815260200191505060405180910390f35b34801561106757600080fd5b5061109c600480360381019080803573ffffffffffffffffffffffffffffffffffffffff169060200190929190505050613548565b6040518082815260200191505060405180910390f35b3480156110be57600080fd5b506110f3600480360381019080803573ffffffffffffffffffffffffffffffffffffffff169060200190929190505050613560565b6040518082815260200191505060405180910390f35b34801561111557600080fd5b5061111e613578565b604051808260ff1660ff16815260200191505060405180910390f35b34801561114657600080fd5b50611185600480360381019080803573ffffffffffffffffffffffffffffffffffffffff1690602001909291908035906020019092919050505061357d565b60405180848152602001838152602001828152602001935050505060405180910390f35b3480156111b557600080fd5b506111ea600480360381019080803573ffffffffffffffffffffffffffffffffffffffff1690602001909291905050506135c3565b005b3480156111f857600080fd5b5061122d600480360381019080803573ffffffffffffffffffffffffffffffffffffffff169060200190929190505050613698565b6040518082815260200191505060405180910390f35b34801561124f57600080fd5b5061128e600480360381019080803573ffffffffffffffffffffffffffffffffffffffff169060200190929190803590602001909291905050506139ea565b604051808273ffffffffffffffffffffffffffffffffffffffff1673ffffffffffffffffffffffffffffffffffffffff16815260200191505060405180910390f35b60156020528060005260406000206000915054906101000a900460ff1681565b600a81565b60018054600181600116156101000203166002900480601f01602080910402602001604051908101604052809291908181526020018280546001816001161561010002031660029004801561138b5780601f106113605761010080835404028352916020019161138b565b820191906000526020600020905b81548152906001019060200180831161136e57829003601f168201915b505050505081565b69065a4da25d3016c0000081565b600260009054906101000a900473ffffffffffffffffffffffffffffffffffffffff1681565b690a968163f0a57b40000081565b60126020528060005260406000206000915090505481565b600381565b600b6020528160005260406000208181548110151561140d57fe5b9060005260206000209060040201600091509150508060000154908060010154908060020154908060030160009054906101000a900460ff16905084565b600080600080600080600080600061146233612e55565b97506001600360009054906101000a900473ffffffffffffffffffffffffffffffffffffffff1673ffffffffffffffffffffffffffffffffffffffff1663312b43ad336040518263ffffffff167c0100000000000000000000000000000000000000000000000000000000028152600401808273ffffffffffffffffffffffffffffffffffffffff1673ffffffffffffffffffffffffffffffffffffffff168152602001915050602060405180830381600087803b15801561152357600080fd5b505af1158015611537573d6000803e3d6000fd5b505050506040513d602081101561154d57600080fd5b8101908080519060200190929190505050039650600360009054906101000a900473ffffffffffffffffffffffffffffffffffffffff1673ffffffffffffffffffffffffffffffffffffffff1663bf131ad2426040518263ffffffff167c010000000000000000000000000000000000000000000000000000000002815260040180828152602001915050602060405180830381600087803b1580156115f257600080fd5b505af1158015611606573d6000803e3d6000fd5b505050506040513d602081101561161c57600080fd5b81019080805190602001909291905050509550600360009054906101000a900473ffffffffffffffffffffffffffffffffffffffff1673ffffffffffffffffffffffffffffffffffffffff1663e77f912433896040518363ffffffff167c0100000000000000000000000000000000000000000000000000000000028152600401808373ffffffffffffffffffffffffffffffffffffffff1673ffffffffffffffffffffffffffffffffffffffff16815260200182815260200192505050606060405180830381600087803b1580156116f457600080fd5b505af1158015611708573d6000803e3d6000fd5b505050506040513d606081101561171e57600080fd5b81019080805190602001909291908051906020019092919080519060200190929190505050809550819650829750505050858510156117775760045485870381151561176657fe5b04915082848302018801975061177d565b82880197505b6001600360009054906101000a900473ffffffffffffffffffffffffffffffffffffffff1673ffffffffffffffffffffffffffffffffffffffff1663254fbd72336040518263ffffffff167c0100000000000000000000000000000000000000000000000000000000028152600401808273ffffffffffffffffffffffffffffffffffffffff1673ffffffffffffffffffffffffffffffffffffffff168152602001915050602060405180830381600087803b15801561183c57600080fd5b505af1158015611850573d6000803e3d6000fd5b505050506040513d602081101561186657600080fd5b8101908080519060200190929190505050039650600360009054906101000a900473ffffffffffffffffffffffffffffffffffffffff1673ffffffffffffffffffffffffffffffffffffffff166372e03a5c33896040518363ffffffff167c0100000000000000000000000000000000000000000000000000000000028152600401808373ffffffffffffffffffffffffffffffffffffffff1673ffffffffffffffffffffffffffffffffffffffff16815260200182815260200192505050608060405180830381600087803b15801561193f57600080fd5b505af1158015611953573d6000803e3d6000fd5b505050506040513d608081101561196957600080fd5b810190808051906020019092919080519060200190929190805190602001909291908051906020019092919050505080945081965082975083985050505050858510156119e1576004548587038115156119bf57fe5b0491508260648260ff16868502028115156119d657fe5b0401880197506119e7565b82880197505b891515611aeb57600360009054906101000a900473ffffffffffffffffffffffffffffffffffffffff1673ffffffffffffffffffffffffffffffffffffffff16632a61ae19336040518263ffffffff167c0100000000000000000000000000000000000000000000000000000000028152600401808273ffffffffffffffffffffffffffffffffffffffff1673ffffffffffffffffffffffffffffffffffffffff168152602001915050602060405180830381600087803b158015611aab57600080fd5b505af1158015611abf573d6000803e3d6000fd5b505050506040513d6020811015611ad557600080fd5b8101908080519060200190929190505050880197505b8798505050505050505050919050565b69021e19e0c9bab240000081565b60106020528060005260406000206000915090505481565b600c6020528060005260406000206000915090505481565b60176020528060005260406000206000915054906101000a900460ff1681565b600d6020528060005260406000206000915090505481565b601c6020528060005260406000206000915090505481565b600860205281600052604060002081815481101515611ba457fe5b906000526020600020016000915091509054906101000a900473ffffffffffffffffffffffffffffffffffffffff1681565b600a81565b60045481565b601d6020528060005260406000206000915090505481565b60166020528060005260406000206000915054906101000a900460ff1681565b601b6020528060005260406000206000915090505481565b600581565b607881565b600f6020528060005260406000206000915054906101000a900473ffffffffffffffffffffffffffffffffffffffff1681565b6019602052816000526040600020602052806000526040600020600091509150505481565b600a60205281600052604060002081815481101515611cae57fe5b9060005260206000209060020201600091509150508060000160009054906101000a900460ff16908060010154905082565b600660205281600052604060002081815481101515611cfb57fe5b9060005260206000209060040201600091509150508060000154908060010154908060020154908060030160009054906101000a900460ff16905084565b600360009054906101000a900473ffffffffffffffffffffffffffffffffffffffff1681565b600481565b600281565b600381565b60146020528060005260406000206000915090505481565b6000809054906101000a900473ffffffffffffffffffffffffffffffffffffffff1681565b600581565b601a602052816000526040600020602052806000526040600020600091509150505481565b6000806000806000806000806000611dec33612e55565b985042601b60003373ffffffffffffffffffffffffffffffffffffffff1673ffffffffffffffffffffffffffffffffffffffff168152602001908152602001600020819055506001600360009054906101000a900473ffffffffffffffffffffffffffffffffffffffff1673ffffffffffffffffffffffffffffffffffffffff1663312b43ad336040518263ffffffff167c0100000000000000000000000000000000000000000000000000000000028152600401808273ffffffffffffffffffffffffffffffffffffffff1673ffffffffffffffffffffffffffffffffffffffff168152602001915050602060405180830381600087803b158015611ef157600080fd5b505af1158015611f05573d6000803e3d6000fd5b505050506040513d6020811015611f1b57600080fd5b8101908080519060200190929190505050039750600360009054906101000a900473ffffffffffffffffffffffffffffffffffffffff1673ffffffffffffffffffffffffffffffffffffffff1663bf131ad2426040518263ffffffff167c010000000000000000000000000000000000000000000000000000000002815260040180828152602001915050602060405180830381600087803b158015611fc057600080fd5b505af1158015611fd4573d6000803e3d6000fd5b505050506040513d6020811015611fea57600080fd5b81019080805190602001909291905050509650600360009054906101000a900473ffffffffffffffffffffffffffffffffffffffff1673ffffffffffffffffffffffffffffffffffffffff1663e77f9124338a6040518363ffffffff167c0100000000000000000000000000000000000000000000000000000000028152600401808373ffffffffffffffffffffffffffffffffffffffff1673ffffffffffffffffffffffffffffffffffffffff16815260200182815260200192505050606060405180830381600087803b1580156120c257600080fd5b505af11580156120d6573d6000803e3d6000fd5b505050506040513d60608110156120ec57600080fd5b81019080805190602001909291908051906020019092919080519060200190929190505050809650819750829850505050868610156122335760045486880381151561213457fe5b049250838584020189019850600360009054906101000a900473ffffffffffffffffffffffffffffffffffffffff1673ffffffffffffffffffffffffffffffffffffffff16632e39140f33898860006040518563ffffffff167c0100000000000000000000000000000000000000000000000000000000028152600401808573ffffffffffffffffffffffffffffffffffffffff1673ffffffffffffffffffffffffffffffffffffffff168152602001848152602001838152602001828152602001945050505050600060405180830381600087803b15801561221657600080fd5b505af115801561222a573d6000803e3d6000fd5b5050505061231f565b600360009054906101000a900473ffffffffffffffffffffffffffffffffffffffff1673ffffffffffffffffffffffffffffffffffffffff16631251b7a4338760006040518463ffffffff167c0100000000000000000000000000000000000000000000000000000000028152600401808473ffffffffffffffffffffffffffffffffffffffff1673ffffffffffffffffffffffffffffffffffffffff1681526020018381526020018281526020019350505050600060405180830381600087803b15801561230157600080fd5b505af1158015612315573d6000803e3d6000fd5b5050505083890198505b6001600360009054906101000a900473ffffffffffffffffffffffffffffffffffffffff1673ffffffffffffffffffffffffffffffffffffffff1663254fbd72336040518263ffffffff167c0100000000000000000000000000000000000000000000000000000000028152600401808273ffffffffffffffffffffffffffffffffffffffff1673ffffffffffffffffffffffffffffffffffffffff168152602001915050602060405180830381600087803b1580156123de57600080fd5b505af11580156123f2573d6000803e3d6000fd5b505050506040513d602081101561240857600080fd5b8101908080519060200190929190505050039750600360009054906101000a900473ffffffffffffffffffffffffffffffffffffffff1673ffffffffffffffffffffffffffffffffffffffff166372e03a5c338a6040518363ffffffff167c0100000000000000000000000000000000000000000000000000000000028152600401808373ffffffffffffffffffffffffffffffffffffffff1673ffffffffffffffffffffffffffffffffffffffff16815260200182815260200192505050608060405180830381600087803b1580156124e157600080fd5b505af11580156124f5573d6000803e3d6000fd5b505050506040513d608081101561250b57600080fd5b8101908080519060200190929190805190602001909291908051906020019092919080519060200190929190505050809550819750829850839950505050508686101561267f5760045486880381151561256157fe5b0492508360648360ff168786020281151561257857fe5b040189019850600360009054906101000a900473ffffffffffffffffffffffffffffffffffffffff1673ffffffffffffffffffffffffffffffffffffffff166315038e9e3389886000876040518663ffffffff167c0100000000000000000000000000000000000000000000000000000000028152600401808673ffffffffffffffffffffffffffffffffffffffff1673ffffffffffffffffffffffffffffffffffffffff1681526020018581526020018481526020018381526020018260ff1660ff16815260200195505050505050600060405180830381600087803b15801561266257600080fd5b505af1158015612676573d6000803e3d6000fd5b50505050612779565b600360009054906101000a900473ffffffffffffffffffffffffffffffffffffffff1673ffffffffffffffffffffffffffffffffffffffff16636f42d97f33876000866040518563ffffffff167c0100000000000000000000000000000000000000000000000000000000028152600401808573ffffffffffffffffffffffffffffffffffffffff1673ffffffffffffffffffffffffffffffffffffffff1681526020018481526020018381526020018260ff1660ff168152602001945050505050600060405180830381600087803b15801561275b57600080fd5b505af115801561276f573d6000803e3d6000fd5b5050505083890198505b89151561295f57600360009054906101000a900473ffffffffffffffffffffffffffffffffffffffff1673ffffffffffffffffffffffffffffffffffffffff16632a61ae19336040518263ffffffff167c0100000000000000000000000000000000000000000000000000000000028152600401808273ffffffffffffffffffffffffffffffffffffffff1673ffffffffffffffffffffffffffffffffffffffff168152602001915050602060405180830381600087803b15801561283d57600080fd5b505af1158015612851573d6000803e3d6000fd5b505050506040513d602081101561286757600080fd5b8101908080519060200190929190505050905080890198506128893382613a37565b600360009054906101000a900473ffffffffffffffffffffffffffffffffffffffff1673ffffffffffffffffffffffffffffffffffffffff16638dc73521336040518263ffffffff167c0100000000000000000000000000000000000000000000000000000000028152600401808273ffffffffffffffffffffffffffffffffffffffff1673ffffffffffffffffffffffffffffffffffffffff168152602001915050600060405180830381600087803b15801561294657600080fd5b505af115801561295a573d6000803e3d6000fd5b505050505b600260009054906101000a900473ffffffffffffffffffffffffffffffffffffffff1673ffffffffffffffffffffffffffffffffffffffff1663a9059cbb338b6040518363ffffffff167c0100000000000000000000000000000000000000000000000000000000028152600401808373ffffffffffffffffffffffffffffffffffffffff1673ffffffffffffffffffffffffffffffffffffffff16815260200182815260200192505050600060405180830381600087803b158015612a2457600080fd5b505af1158015612a38573d6000803e3d6000fd5b505050507fc674231d2496906f0e8253e960f393e2857bda5ec7294f70264e9e8eb2db476f338a604051808373ffffffffffffffffffffffffffffffffffffffff1673ffffffffffffffffffffffffffffffffffffffff1681526020018281526020019250505060405180910390a150505050505050505050565b600a81565b600560009054906101000a900460ff1681565b600381565b60136020528060005260406000206000915054906101000a900473ffffffffffffffffffffffffffffffffffffffff1681565b600e6020528060005260406000206000915090505481565b6000806000806000806000806001600360009054906101000a900473ffffffffffffffffffffffffffffffffffffffff1673ffffffffffffffffffffffffffffffffffffffff1663312b43ad8b6040518263ffffffff167c0100000000000000000000000000000000000000000000000000000000028152600401808273ffffffffffffffffffffffffffffffffffffffff1673ffffffffffffffffffffffffffffffffffffffff168152602001915050602060405180830381600087803b158015612be657600080fd5b505af1158015612bfa573d6000803e3d6000fd5b505050506040513d6020811015612c1057600080fd5b8101908080519060200190929190505050039650600360009054906101000a900473ffffffffffffffffffffffffffffffffffffffff1673ffffffffffffffffffffffffffffffffffffffff1663bf131ad2426040518263ffffffff167c010000000000000000000000000000000000000000000000000000000002815260040180828152602001915050602060405180830381600087803b158015612cb557600080fd5b505af1158015612cc9573d6000803e3d6000fd5b505050506040513d6020811015612cdf57600080fd5b81019080805190602001909291905050509550600360009054906101000a900473ffffffffffffffffffffffffffffffffffffffff1673ffffffffffffffffffffffffffffffffffffffff1663e77f91248a896040518363ffffffff167c0100000000000000000000000000000000000000000000000000000000028152600401808373ffffffffffffffffffffffffffffffffffffffff1673ffffffffffffffffffffffffffffffffffffffff16815260200182815260200192505050606060405180830381600087803b158015612db757600080fd5b505af1158015612dcb573d6000803e3d6000fd5b505050506040513d6060811015612de157600080fd5b8101908080519060200190929190805190602001909291908051906020019092919050505080955081965082975050505085851015612e3b57600454858703811515612e2957fe5b04915082848302019050809750612e3f565b8297505b50505050505050919050565b600581565b600581565b6000806000806000806000806000806000600360009054906101000a900473ffffffffffffffffffffffffffffffffffffffff1673ffffffffffffffffffffffffffffffffffffffff1663c93ae0fc8d6040518263ffffffff167c0100000000000000000000000000000000000000000000000000000000028152600401808273ffffffffffffffffffffffffffffffffffffffff1673ffffffffffffffffffffffffffffffffffffffff168152602001915050602060405180830381600087803b158015612f2357600080fd5b505af1158015612f37573d6000803e3d6000fd5b505050506040513d6020811015612f4d57600080fd5b81019080805190602001909291905050509550600086111515612f6f57600080fd5b600093505b8584101561353657600360009054906101000a900473ffffffffffffffffffffffffffffffffffffffff1673ffffffffffffffffffffffffffffffffffffffff16632253d3818d866040518363ffffffff167c0100000000000000000000000000000000000000000000000000000000028152600401808373ffffffffffffffffffffffffffffffffffffffff1673ffffffffffffffffffffffffffffffffffffffff16815260200182815260200192505050608060405180830381600087803b15801561304157600080fd5b505af1158015613055573d6000803e3d6000fd5b505050506040513d608081101561306b57600080fd5b8101908080519060200190929190805190602001909291908051906020019092919080519060200190929190505050809a50819c50829b50839d50505050508615156135295789601b60003373ffffffffffffffffffffffffffffffffffffffff1673ffffffffffffffffffffffffffffffffffffffff16815260200190815260200160002054111561313b57601b60003373ffffffffffffffffffffffffffffffffffffffff1673ffffffffffffffffffffffffffffffffffffffff1681526020019081526020016000205499505b6004548a420381151561314a57fe5b0692506004548a8442030381151561315e57fe5b049250600360009054906101000a900473ffffffffffffffffffffffffffffffffffffffff1673ffffffffffffffffffffffffffffffffffffffff16632f63c3658d6040518263ffffffff167c0100000000000000000000000000000000000000000000000000000000028152600401808273ffffffffffffffffffffffffffffffffffffffff1673ffffffffffffffffffffffffffffffffffffffff168152602001915050602060405180830381600087803b15801561321e57600080fd5b505af1158015613232573d6000803e3d6000fd5b505050506040513d602081101561324857600080fd5b81019080805190602001909291905050501561351057600454600360009054906101000a900473ffffffffffffffffffffffffffffffffffffffff1673ffffffffffffffffffffffffffffffffffffffff1663bf131ad28c6040518263ffffffff167c010000000000000000000000000000000000000000000000000000000002815260040180828152602001915050602060405180830381600087803b1580156132f257600080fd5b505af1158015613306573d6000803e3d6000fd5b505050506040513d602081101561331c57600080fd5b8101908080519060200190929190505050019950600091505b8282101561350b5760045482028a019050600360009054906101000a900473ffffffffffffffffffffffffffffffffffffffff1673ffffffffffffffffffffffffffffffffffffffff1663294b4816826040518263ffffffff167c010000000000000000000000000000000000000000000000000000000002815260040180828152602001915050602060405180830381600087803b1580156133d757600080fd5b505af11580156133eb573d6000803e3d6000fd5b505050506040513d602081101561340157600080fd5b8101908080519060200190929190505050600360009054906101000a900473ffffffffffffffffffffffffffffffffffffffff1673ffffffffffffffffffffffffffffffffffffffff1663294b48168c6040518263ffffffff167c010000000000000000000000000000000000000000000000000000000002815260040180828152602001915050602060405180830381600087803b1580156134a357600080fd5b505af11580156134b7573d6000803e3d6000fd5b505050506040513d60208110156134cd57600080fd5b81019080805190602001909291905050506103e860038b028115156134ee57fe5b04028115156134f957fe5b04850194508180600101925050613335565b613528565b6103e860038985020281151561352257fe5b04850194505b5b8380600101945050612f74565b849a5050505050505050505050919050565b60116020528060005260406000206000915090505481565b60186020528060005260406000206000915090505481565b601481565b60076020528160005260406000208181548110151561359857fe5b9060005260206000209060030201600091509150508060000154908060010154908060020154905083565b6000809054906101000a900473ffffffffffffffffffffffffffffffffffffffff1673ffffffffffffffffffffffffffffffffffffffff163373ffffffffffffffffffffffffffffffffffffffff1614151561361e57600080fd5b600073ffffffffffffffffffffffffffffffffffffffff168173ffffffffffffffffffffffffffffffffffffffff1614151561369557806000806101000a81548173ffffffffffffffffffffffffffffffffffffffff021916908373ffffffffffffffffffffffffffffffffffffffff1602179055505b50565b60008060008060008060008060006001600360009054906101000a900473ffffffffffffffffffffffffffffffffffffffff1673ffffffffffffffffffffffffffffffffffffffff1663254fbd728c6040518263ffffffff167c0100000000000000000000000000000000000000000000000000000000028152600401808273ffffffffffffffffffffffffffffffffffffffff1673ffffffffffffffffffffffffffffffffffffffff168152602001915050602060405180830381600087803b15801561376557600080fd5b505af1158015613779573d6000803e3d6000fd5b505050506040513d602081101561378f57600080fd5b8101908080519060200190929190505050039750600360009054906101000a900473ffffffffffffffffffffffffffffffffffffffff1673ffffffffffffffffffffffffffffffffffffffff1663bf131ad2426040518263ffffffff167c010000000000000000000000000000000000000000000000000000000002815260040180828152602001915050602060405180830381600087803b15801561383457600080fd5b505af1158015613848573d6000803e3d6000fd5b505050506040513d602081101561385e57600080fd5b81019080805190602001909291905050509650600360009054906101000a900473ffffffffffffffffffffffffffffffffffffffff1673ffffffffffffffffffffffffffffffffffffffff166372e03a5c8b8a6040518363ffffffff167c0100000000000000000000000000000000000000000000000000000000028152600401808373ffffffffffffffffffffffffffffffffffffffff1673ffffffffffffffffffffffffffffffffffffffff16815260200182815260200192505050608060405180830381600087803b15801561393657600080fd5b505af115801561394a573d6000803e3d6000fd5b505050506040513d608081101561396057600080fd5b810190808051906020019092919080519060200190929190805190602001909291908051906020019092919050505080965081975082985083995050505050868610156139d9576004548688038115156139b657fe5b0491508360648460ff16878502028115156139cd57fe5b040190508098506139dd565b8398505b5050505050505050919050565b600960205281600052604060002081815481101515613a0557fe5b906000526020600020016000915091509054906101000a900473ffffffffffffffffffffffffffffffffffffffff1681565b6000806000600360009054906101000a900473ffffffffffffffffffffffffffffffffffffffff1673ffffffffffffffffffffffffffffffffffffffff1663d8495ac3866040518263ffffffff167c0100000000000000000000000000000000000000000000000000000000028152600401808273ffffffffffffffffffffffffffffffffffffffff1673ffffffffffffffffffffffffffffffffffffffff168152602001915050602060405180830381600087803b158015613af957600080fd5b505af1158015613b0d573d6000803e3d6000fd5b505050506040513d6020811015613b2357600080fd5b81019080805190602001909291905050509150600090505b81811015613ed957600360009054906101000a900473ffffffffffffffffffffffffffffffffffffffff1673ffffffffffffffffffffffffffffffffffffffff16636f560c3486836040518363ffffffff167c0100000000000000000000000000000000000000000000000000000000028152600401808373ffffffffffffffffffffffffffffffffffffffff1673ffffffffffffffffffffffffffffffffffffffff16815260200182815260200192505050602060405180830381600087803b158015613c0857600080fd5b505af1158015613c1c573d6000803e3d6000fd5b505050506040513d6020811015613c3257600080fd5b81019080805190602001909291905050509250600360009054906101000a900473ffffffffffffffffffffffffffffffffffffffff1673ffffffffffffffffffffffffffffffffffffffff1663057a53fc846040518263ffffffff167c0100000000000000000000000000000000000000000000000000000000028152600401808273ffffffffffffffffffffffffffffffffffffffff1673ffffffffffffffffffffffffffffffffffffffff168152602001915050600060405180830381600087803b158015613d0257600080fd5b505af1158015613d16573d6000803e3d6000fd5b50505050600360009054906101000a900473ffffffffffffffffffffffffffffffffffffffff1673ffffffffffffffffffffffffffffffffffffffff1663d83a3c9584866040518363ffffffff167c0100000000000000000000000000000000000000000000000000000000028152600401808373ffffffffffffffffffffffffffffffffffffffff1673ffffffffffffffffffffffffffffffffffffffff16815260200182815260200192505050600060405180830381600087803b158015613ddf57600080fd5b505af1158015613df3573d6000803e3d6000fd5b50505050600360009054906101000a900473ffffffffffffffffffffffffffffffffffffffff1673ffffffffffffffffffffffffffffffffffffffff1663d7320563846040518263ffffffff167c0100000000000000000000000000000000000000000000000000000000028152600401808273ffffffffffffffffffffffffffffffffffffffff1673ffffffffffffffffffffffffffffffffffffffff168152602001915050600060405180830381600087803b158015613eb457600080fd5b505af1158015613ec8573d6000803e3d6000fd5b505050508080600101915050613b3b565b50505050505600a165627a7a7230582000cb2f4eecda82bdd62f232bab25921c10c173a380770e7ff00f58fe6e3b11b70029",
  "source": "pragma solidity ^0.4.23;\n/*\n *                   \n *                      KOL Community Foundation     \n *                      \n *                        \n *         \n *    Dev:Jack Koe  Special for: KOL   20200422   \n *        \n */\n\n library SafeMath {\n   function mul(uint a, uint b) internal pure  returns (uint) {\n     uint c = a * b;\n     require(a == 0 || c / a == b);\n     return c;\n   }\n   function div(uint a, uint b) internal pure returns (uint) {\n     require(b > 0);\n     uint c = a / b;\n     require(a == b * c + a % b);\n     return c;\n   }\n   function sub(uint a, uint b) internal pure returns (uint) {\n     require(b <= a);\n     return a - b;\n   }\n   function add(uint a, uint b) internal pure returns (uint) {\n     uint c = a + b;\n     require(c >= a);\n     return c;\n   }\n   function max64(uint64 a, uint64 b) internal  pure returns (uint64) {\n     return a >= b ? a : b;\n   }\n   function min64(uint64 a, uint64 b) internal  pure returns (uint64) {\n     return a < b ? a : b;\n   }\n   function max256(uint256 a, uint256 b) internal  pure returns (uint256) {\n     return a >= b ? a : b;\n   }\n   function min256(uint256 a, uint256 b) internal  pure returns (uint256) {\n     return a < b ? a : b;\n   }\n }\n\n /**\n  * title KOL Promotion Withdraw contract\n  * dev visit: https://github.com/jackoelv/KOL/\n */\n\n contract ERC20Basic {\n   uint public totalSupply;\n   function balanceOf(address who) public constant returns (uint);\n   function transfer(address to, uint value) public;\n   event Transfer(address indexed from, address indexed to, uint value);\n }\n\n contract ERC20 is ERC20Basic {\n   function allowance(address owner, address spender) public constant returns (uint);\n   function transferFrom(address from, address to, uint value) public;\n   function approve(address spender, uint value) public;\n   event Approval(address indexed owner, address indexed spender, uint value);\n }\n\n /**\n  * title KOL Promotion Withdraw contract\n  * dev visit: https://github.com/jackoelv/KOL/\n */\n\n contract BasicToken is ERC20Basic {\n\n   using SafeMath for uint;\n\n   mapping(address => uint) balances;\n\n   function transfer(address _to, uint _value) public{\n     balances[msg.sender] = balances[msg.sender].sub(_value);\n     balances[_to] = balances[_to].add(_value);\n     emit Transfer(msg.sender, _to, _value);\n   }\n\n   function balanceOf(address _owner) public constant returns (uint balance) {\n     return balances[_owner];\n   }\n }\n\n /**\n  * title KOL Promotion Withdraw contract\n  * dev visit: https://github.com/jackoelv/KOL/\n */\n\n contract StandardToken is BasicToken, ERC20 {\n   mapping (address => mapping (address => uint)) allowed;\n   uint256 public userSupplyed;\n\n   function transferFrom(address _from, address _to, uint _value) public {\n     balances[_to] = balances[_to].add(_value);\n     balances[_from] = balances[_from].sub(_value);\n     allowed[_from][msg.sender] = allowed[_from][msg.sender].sub(_value);\n     emit Transfer(_from, _to, _value);\n   }\n\n   function approve(address _spender, uint _value) public{\n     require((_value == 0) || (allowed[msg.sender][_spender] == 0)) ;\n     allowed[msg.sender][_spender] = _value;\n     emit Approval(msg.sender, _spender, _value);\n   }\n\n   function allowance(address _owner, address _spender) public constant returns (uint remaining) {\n     return allowed[_owner][_spender];\n   }\n }\n contract KOL is StandardToken {\n   function queryNode(address _addr) public view returns(bool);\n   function querySuperNode(address _addr) public view returns(bool);\n }\n contract KOLP is StandardToken {\n\n   struct lock{\n     uint256 begin;\n     uint256 amount;\n     uint256 end;\n     bool withDrawed;\n   }\n   struct teamRate{\n     uint8 rate;\n     uint256 changeTime;\n\n   }\n   struct inviteBonus{\n     uint256 begin;//\n     uint256 dayBonus;//\n     uint256 hisTotalBonus;\n   }\n   struct withDraws{\n     uint256 time;\n     uint256 amount;\n   }\n   struct dayTeamBonus{\n     uint256 theDayLastSecond;\n     uint256 theDayTeamBonus;\n     uint256 totalTeamBonus;\n     uint8 theDayRate;\n   }\n   struct dayInviteBonus{\n     uint256 theDayLastSecond;\n     uint256 theDayInviteBonus;\n     uint256 totalInviteBonus;\n   }\n   mapping (address => dayTeamBonus[]) public LockTeamBonus;\n   mapping (address => dayInviteBonus[]) public LockInviteBonus;\n\n\n   mapping (address => address[]) public InviteList;\n   mapping (address => address[]) public ChildAddrs;\n   mapping (address => teamRate[]) public TeamRateList;\n   mapping (address => lock[]) public LockHistory;\n   mapping (address => uint256) public LockBalance;\n\n   mapping (address => uint256) public InviteHistoryBonus;\n   mapping (address => uint256) public InviteCurrentDayBonus;\n\n   mapping (address => address) public InviteRelation;//A=>B B is father;\n   mapping (uint256 => uint256) public ClosePrice;//\n   mapping (address => uint256) public TotalUsers;\n   mapping (address => uint256) public TotalLockingAmount;\n   mapping (uint256 => address) public InviteCode;\n   mapping (address => uint256) public RInviteCode;\n\n   mapping (address => uint8) public isLevelN;\n   mapping (uint8 => uint8) public levelRate;\n   mapping (address => bool) public USDTOrCoin;\n\n   mapping (address => uint256) public WithDraws;\n   mapping (address => mapping (address => uint256) ) public ABTeamBonus;//ABABBonusAB\n   mapping (address => mapping (address => uint256) ) public ABInviteBonus;//ABABBonusAB\n   mapping (address => bool) public contractAddr;\n\n   //GAS\n\n   event Registed(address _user,uint256 inviteCode);\n   event GradeChanged(address _user,uint8 _oldLevel,uint8 _newLevel);\n   event WithDraw(address _user,uint256 _amount);\n   event WithDrawBalance(address _user,uint256 _balance);\n   modifier onlyContract {\n       require(contractAddr[msg.sender]);\n       _;\n   }\n   function calcuDiffAmount(address _selfAddr,address _topAddr,uint256 _amount) public view returns(uint256);\n   function queryAndSetLevelN(address _addr) public;\n   function queryLockBalance(address _addr,uint256 _queryTime) public view returns(uint256);\n   function getYestodayLastSecond(uint256 _queryTime) public view returns(uint256);\n   function getLockHistory(address _addr,uint _index) public view returns(uint256,uint256,uint256,bool);\n   function getLockLen(address _addr) public view returns(uint256);\n   function getHistoryTeamBonus(address _addr,uint256 _index) public view returns(uint256,uint256,uint256,uint256,uint256);\n   function getHistoryInviteBonus(address _addr,uint256 _index) public view returns(uint256,uint256,uint256,uint256);\n   function getTeamRateList(address _addr,uint256 _index) public view returns(uint256,uint256,uint256);\n   function clearLock(address _addr) onlyContract public ;\n   function pushInvite(address _addr,\n                       uint256 _theDayLastSecond,\n                       uint256 _theDayInviteBonus,\n                       uint256 _totalInviteBonus) onlyContract public ;\n   function setLastInvite(address _addr,\n                       uint256 _theDayInviteBonus,\n                       uint256 _totalInviteBonus) onlyContract public ;\n   function pushTeam(address _addr,\n                       uint256 _theDayLastSecond,\n                       uint256 _theDayTeamBonus,\n                       uint256 _totalTeamBonus,\n                       uint8 _theDayRate) onlyContract public ;\n   function setLastTeam(address _addr,\n                       uint256 _theDayTeamBonus,\n                       uint256 _totalTeamBonus,\n                       uint8 _theDayRate) onlyContract public ;\n\n   function subTotalUsers(address _addr) onlyContract public ;\n   function subTotalLockingAmount(address _addr,uint256 _amount) onlyContract public ;\n   function getFathersLength(address _addr) public view returns(uint256);\n   function getFather(address _addr,uint256 _index) public view returns(address);\n   function getLockTeamBonusLen(address _addr) public view returns(uint256);\n   function getLockInviteBonusLen(address _addr) public view returns(uint256);\n}\n\n /**\n  * title KOL Promotion Withdraw contract\n  * dev visit: https://github.com/jackoelv/KOL/\n */\n\n contract Ownable {\n     address public owner;\n\n     constructor() public{\n         owner = msg.sender;\n     }\n\n     modifier onlyOwner {\n         require(msg.sender == owner);\n         _;\n     }\n     function transferOwnership(address newOwner) onlyOwner public{\n         if (newOwner != address(0)) {\n             owner = newOwner;\n         }\n     }\n }\n /**\n  * title KOL Promotion Withdraw contract\n  * dev visit: https://github.com/jackoelv/KOL/\n */\n //15\ncontract KOLWithDraw is Ownable{\n  using SafeMath for uint256;\n  string public name = \"KOL Promotion\";\n  KOL public kol;\n  KOLP public kolp;\n  /* address public reciever;\n\n  uint256 public begin;//2020422000\n  uint256 public end;\n\n  uint256 public iCode; */\n  uint256 public every = 10 seconds;//1 days;\n  /* uint256 public maxSettleDays = 1;\n  uint256 public totalRegister;\n  uint256 public totalBalance;\n  uint256 public totalBonus; */\n\n\n\n  uint8 public constant userLevel1 = 20;\n  uint8 public constant userLevel2 = 10;\n  uint8 public maxlevel = 9;\n\n  /* uint16 public constant comLevel1Users = 100;\n  uint16 public constant comLevel2Users = 300;\n  uint16 public constant comLevel3Users = 500; */\n\n  //\n  uint16 public constant comLevel1Users = 2;\n  uint16 public constant comLevel2Users = 3;\n  uint16 public constant comLevel3Users = 4;\n\n  uint256 public constant comLevel1Amount = 10000 * (10 ** 18);\n  uint256 public constant comLevel2Amount = 30000 * (10 ** 18);\n  uint256 public constant comLevel3Amount = 50000 * (10 ** 18);\n\n  uint8 public constant comLevel1 = 3;\n  uint8 public constant comLevel2 = 5;\n  uint8 public constant comLevel3 = 10;\n  uint8 public constant inviteLevel1 = 3;//31\n  uint8 public constant inviteLevel2 = 5;\n  uint8 public constant inviteLevel3 = 10;\n  uint8 public constant withDrawRate = 5;\n  uint8 public constant fee = 5;\n\n  /* uint256 public constant withDrawDays = 30 days; */\n  //5\n  uint256 public constant withDrawDays = 2 minutes;\n\n  /* address[] private inviteAddr;// A->B->C: inviteAddr= B,A\n  address[] private childAddr;// A-->B,A-->C,childAddr= B, C */\n\n\n\n  struct lock{\n    uint256 begin;\n    uint256 amount;\n    uint256 end;\n    bool withDrawed;\n  }\n\n  struct teamRate{\n    uint8 rate;\n    uint256 changeTime;\n\n  }\n\n  struct inviteBonus{\n    uint256 begin;//\n    uint256 dayBonus;//\n    uint256 hisTotalBonus;\n  }\n  struct withDraws{\n    uint256 time;\n    uint256 amount;\n  }\n  struct dayTeamBonus{\n    uint256 theDayLastSecond;\n    uint256 theDayTeamBonus;\n    uint256 totalTeamBonus;\n    uint8 theDayRate;\n  }\n  struct dayInviteBonus{\n    uint256 theDayLastSecond;\n    uint256 theDayInviteBonus;\n    uint256 totalInviteBonus;\n  }\n\n\n\n  mapping (address => dayTeamBonus[]) public LockTeamBonus;\n  mapping (address => dayInviteBonus[]) public LockInviteBonus;\n\n\n  mapping (address => address[]) public InviteList;\n  mapping (address => address[]) public ChildAddrs;\n  mapping (address => teamRate[]) public TeamRateList;\n  mapping (address => lock[]) public LockHistory;\n  mapping (address => uint256) public LockBalance;\n\n  mapping (address => uint256) public InviteHistoryBonus;\n  mapping (address => uint256) public InviteCurrentDayBonus;\n\n  mapping (address => address) public InviteRelation;//A=>B B is father;\n  mapping (uint256 => uint256) public ClosePrice;//\n  mapping (address => uint256) public TotalUsers;\n  mapping (address => uint256) public TotalLockingAmount;\n  mapping (uint256 => address) public InviteCode;\n  mapping (address => uint256) public RInviteCode;\n\n  mapping (address => uint8) public isLevelN;\n  mapping (uint8 => uint8) public levelRate;\n  mapping (address => bool) public USDTOrCoin;\n\n  mapping (address => uint256) public WithDraws;\n  mapping (address => mapping (address => uint256) ) public ABTeamBonus;//ABABBonusAB\n  mapping (address => mapping (address => uint256) ) public ABInviteBonus;//ABABBonusAB\n\n  //\n  mapping (address => uint256) public DrawTime;\n  mapping (address => uint256) public InviteDrawAmount;\n  mapping (address => uint256) public TeamDrawAmount;\n  //GAS\n  event WithDrawed(address _user,uint256 _amount);\n\n  constructor(address _kolAddress,address _kolpAddress) public {\n    kol = KOL(_kolAddress);\n    kolp = KOLP(_kolpAddress);\n  }\n  function querySelfBonus(address _addr) public view returns(uint256){\n    uint256 begin;\n    uint256 end;\n    uint256 amount;\n    bool withDrawed;\n    uint256 len = kolp.getLockLen(_addr);\n    require(len > 0);\n    uint256 selfBonus;\n    for (uint i=0; i<len; i++){\n      (begin,amount,end,withDrawed) = kolp.LockHistory(_addr,i);\n      if (!withDrawed){\n        if (DrawTime[msg.sender] > begin) begin = DrawTime[msg.sender];\n        uint256 lastingDays = (now - begin) % every;\n        lastingDays = (now - lastingDays - begin) / every;\n        if (kolp.USDTOrCoin(_addr)){\n          begin = kolp.getYestodayLastSecond(begin) + every;\n          for (uint j=0;j<lastingDays;j++){\n            uint256 theTime = begin + j*every;\n            selfBonus += amount * 3 / 1000 * kolp.ClosePrice(begin) / kolp.ClosePrice(theTime);\n          }\n        }else{\n          selfBonus += lastingDays * amount * 3 / 1000;\n        }\n      }\n    }\n    return (selfBonus);\n  }\n  function queryInviteBonus(address _addr) public returns(uint256){\n    uint256 last = kolp.getLockInviteBonusLen(_addr) - 1;\n    uint256 yestodayLastSecond = kolp.getYestodayLastSecond(now);\n    uint256 lastDayLastSecond;\n    uint256 lastDayInviteBonus;\n    uint256 lastDayInviteTotalBonus;\n    (lastDayLastSecond,lastDayInviteBonus,lastDayInviteTotalBonus) = kolp.LockInviteBonus(_addr,last);\n    uint256 lastingDays;\n    uint256 newDayInviteTotalBonus;\n    if (lastDayLastSecond < yestodayLastSecond){\n      // Push\n      lastingDays = (yestodayLastSecond - lastDayLastSecond) / every;\n      newDayInviteTotalBonus = (lastingDays * lastDayInviteBonus) + lastDayInviteTotalBonus;\n      return (newDayInviteTotalBonus);\n    }else{\n      return (lastDayInviteTotalBonus);\n    }\n  }\n  function queryTeamBonus(address _addr) public returns(uint256){\n    uint256 last = kolp.getLockTeamBonusLen(_addr) - 1;\n    uint256 yestodayLastSecond = kolp.getYestodayLastSecond(now);\n    uint256 lastDayLastSecond;\n    uint256 lastDayTeamBonus;\n    uint256 lastDayTeamTotalBonus;\n    uint8 theDayRate;\n    (lastDayLastSecond,lastDayTeamBonus,lastDayTeamTotalBonus,theDayRate) = kolp.LockTeamBonus(_addr,last);\n\n    uint256 lastingDays;\n    uint256 newDayTeamTotalBonus;\n    if (lastDayLastSecond < yestodayLastSecond){\n      // Push\n      lastingDays = (yestodayLastSecond - lastDayLastSecond) / every;\n      newDayTeamTotalBonus = (lastingDays * lastDayTeamBonus * theDayRate / 100 ) + lastDayTeamTotalBonus;\n      return (newDayTeamTotalBonus);\n    }else{\n      return (lastDayTeamTotalBonus);\n    }\n  }\n  function afterWithdraw(address _addr,uint256 _amount) internal {\n    //\n    address father;\n    uint256 fathersLen = kolp.getFathersLength(_addr);\n    for (uint i = 0; i<fathersLen; i++){\n      father = kolp.getFather(_addr,i);\n      kolp.subTotalUsers(father);\n      kolp.subTotalLockingAmount(father,_amount);\n      kolp.queryAndSetLevelN(father);\n    }\n\n  }\n  function withdraw(bool _onlyBonus) public{\n    //true: Only Bonus;false:all;\n    uint256 bonus = querySelfBonus(msg.sender);\n    DrawTime[msg.sender] = now;\n    uint256 last = kolp.getLockInviteBonusLen(msg.sender) - 1;\n    uint256 yestodayLastSecond = kolp.getYestodayLastSecond(now);\n    uint256 lastDayLastSecond;\n    uint256 lastDayBonus;\n    uint256 lastDayTotalBonus;\n    (lastDayLastSecond,lastDayBonus,lastDayTotalBonus) = kolp.LockInviteBonus(msg.sender,last);\n    uint256 lastingDays;\n    if (lastDayLastSecond < yestodayLastSecond){\n      // Push\n      lastingDays = (yestodayLastSecond - lastDayLastSecond) / every;\n      bonus += (lastingDays * lastDayBonus) + lastDayTotalBonus;\n      kolp.pushInvite(msg.sender,yestodayLastSecond,lastDayBonus,0);\n    }else{\n      kolp.setLastInvite(msg.sender,lastDayBonus,0);\n      bonus += lastDayTotalBonus;\n    }\n    last = kolp.getLockTeamBonusLen(msg.sender) - 1;\n    uint8 theDayRate;\n    (lastDayLastSecond,lastDayBonus,lastDayTotalBonus,theDayRate) = kolp.LockTeamBonus(msg.sender,last);\n    if (lastDayLastSecond < yestodayLastSecond){\n      lastingDays = (yestodayLastSecond - lastDayLastSecond) / every;\n      bonus  += (lastingDays * lastDayBonus * theDayRate / 100 ) + lastDayTotalBonus;\n      kolp.pushTeam(msg.sender,yestodayLastSecond,lastDayBonus,0,theDayRate);\n    }else{\n      kolp.setLastTeam(msg.sender,lastDayBonus,0,theDayRate);\n      bonus += lastDayTotalBonus;\n    }\n    if (!_onlyBonus){\n      uint256 balance = kolp.LockBalance(msg.sender);\n      bonus += balance;\n      afterWithdraw(msg.sender,balance);\n      kolp.clearLock(msg.sender);\n    }\n    kol.transfer(msg.sender,bonus);\n    emit WithDrawed(msg.sender,bonus);\n  }\n  function withdrawCheck(bool _onlyBonus) public view returns(uint256){\n    //true: Only Bonus;false:all;\n    uint256 bonus = querySelfBonus(msg.sender);\n    /* DrawTime[msg.sender] = now; */\n    uint256 last = kolp.getLockInviteBonusLen(msg.sender) - 1;\n    uint256 yestodayLastSecond = kolp.getYestodayLastSecond(now);\n    uint256 lastDayLastSecond;\n    uint256 lastDayBonus;\n    uint256 lastDayTotalBonus;\n    (lastDayLastSecond,lastDayBonus,lastDayTotalBonus) = kolp.LockInviteBonus(msg.sender,last);\n    uint256 lastingDays;\n    if (lastDayLastSecond < yestodayLastSecond){\n      lastingDays = (yestodayLastSecond - lastDayLastSecond) / every;\n      bonus += (lastingDays * lastDayBonus) + lastDayTotalBonus;\n    }else{\n      bonus += lastDayTotalBonus;\n    }\n\n    last = kolp.getLockTeamBonusLen(msg.sender) - 1;\n    uint8 theDayRate;\n    (lastDayLastSecond,lastDayBonus,lastDayTotalBonus,theDayRate) = kolp.LockTeamBonus(msg.sender,last);\n    if (lastDayLastSecond < yestodayLastSecond){\n      lastingDays = (yestodayLastSecond - lastDayLastSecond) / every;\n      bonus  += (lastingDays * lastDayBonus * theDayRate / 100 ) + lastDayTotalBonus;\n    }else{\n      bonus += lastDayTotalBonus;\n    }\n\n    if (!_onlyBonus) bonus += kolp.LockBalance(msg.sender);\n    return bonus;\n  }\n}\n",
  "sourcePath": "/Users/jack/git/github/KOL/contracts/KOLWithDraw.sol",
  "compiler": {
    "name": "solc",
    "version": "0.4.23+commit.124ca40d.Emscripten.clang"
  },
  "schemaVersion": "3.0.19",
  "updatedAt": "2020-05-05T12:40:14.007Z",
  "networkType": "ethereum",
  "devdoc": {
    "methods": {}
  },
  "userdoc": {
    "methods": {}
  }
}