{
  "contractName": "StandardToken",
  "abi": [
    {
      "constant": true,
      "inputs": [],
      "name": "totalSupply",
      "outputs": [
        {
          "name": "",
          "type": "uint256"
        }
      ],
      "payable": false,
      "stateMutability": "view",
      "type": "function"
    },
    {
      "constant": true,
      "inputs": [
        {
          "name": "_owner",
          "type": "address"
        }
      ],
      "name": "balanceOf",
      "outputs": [
        {
          "name": "balance",
          "type": "uint256"
        }
      ],
      "payable": false,
      "stateMutability": "view",
      "type": "function"
    },
    {
      "constant": true,
      "inputs": [],
      "name": "userSupplyed",
      "outputs": [
        {
          "name": "",
          "type": "uint256"
        }
      ],
      "payable": false,
      "stateMutability": "view",
      "type": "function"
    },
    {
      "constant": false,
      "inputs": [
        {
          "name": "_to",
          "type": "address"
        },
        {
          "name": "_value",
          "type": "uint256"
        }
      ],
      "name": "transfer",
      "outputs": [],
      "payable": false,
      "stateMutability": "nonpayable",
      "type": "function"
    },
    {
      "anonymous": false,
      "inputs": [
        {
          "indexed": true,
          "name": "owner",
          "type": "address"
        },
        {
          "indexed": true,
          "name": "spender",
          "type": "address"
        },
        {
          "indexed": false,
          "name": "value",
          "type": "uint256"
        }
      ],
      "name": "Approval",
      "type": "event"
    },
    {
      "anonymous": false,
      "inputs": [
        {
          "indexed": true,
          "name": "from",
          "type": "address"
        },
        {
          "indexed": true,
          "name": "to",
          "type": "address"
        },
        {
          "indexed": false,
          "name": "value",
          "type": "uint256"
        }
      ],
      "name": "Transfer",
      "type": "event"
    },
    {
      "constant": false,
      "inputs": [
        {
          "name": "_from",
          "type": "address"
        },
        {
          "name": "_to",
          "type": "address"
        },
        {
          "name": "_value",
          "type": "uint256"
        }
      ],
      "name": "transferFrom",
      "outputs": [],
      "payable": false,
      "stateMutability": "nonpayable",
      "type": "function"
    },
    {
      "constant": false,
      "inputs": [
        {
          "name": "_spender",
          "type": "address"
        },
        {
          "name": "_value",
          "type": "uint256"
        }
      ],
      "name": "approve",
      "outputs": [],
      "payable": false,
      "stateMutability": "nonpayable",
      "type": "function"
    },
    {
      "constant": true,
      "inputs": [
        {
          "name": "_owner",
          "type": "address"
        },
        {
          "name": "_spender",
          "type": "address"
        }
      ],
      "name": "allowance",
      "outputs": [
        {
          "name": "remaining",
          "type": "uint256"
        }
      ],
      "payable": false,
      "stateMutability": "view",
      "type": "function"
    }
  ],
  "bytecode": "0x608060405234801561001057600080fd5b506109ae806100206000396000f300608060405260043610610083576000357c0100000000000000000000000000000000000000000000000000000000900463ffffffff168063095ea7b31461008857806318160ddd146100d557806323b872dd1461010057806370a082311461016d57806389df13a9146101c4578063a9059cbb146101ef578063dd62ed3e1461023c575b600080fd5b34801561009457600080fd5b506100d3600480360381019080803573ffffffffffffffffffffffffffffffffffffffff169060200190929190803590602001909291905050506102b3565b005b3480156100e157600080fd5b506100ea610433565b6040518082815260200191505060405180910390f35b34801561010c57600080fd5b5061016b600480360381019080803573ffffffffffffffffffffffffffffffffffffffff169060200190929190803573ffffffffffffffffffffffffffffffffffffffff16906020019092919080359060200190929190505050610439565b005b34801561017957600080fd5b506101ae600480360381019080803573ffffffffffffffffffffffffffffffffffffffff1690602001909291905050506106dc565b6040518082815260200191505060405180910390f35b3480156101d057600080fd5b506101d9610725565b6040518082815260200191505060405180910390f35b3480156101fb57600080fd5b5061023a600480360381019080803573ffffffffffffffffffffffffffffffffffffffff1690602001909291908035906020019092919050505061072b565b005b34801561024857600080fd5b5061029d600480360381019080803573ffffffffffffffffffffffffffffffffffffffff169060200190929190803573ffffffffffffffffffffffffffffffffffffffff1690602001909291905050506108be565b6040518082815260200191505060405180910390f35b600081148061033e57506000600260003373ffffffffffffffffffffffffffffffffffffffff1673ffffffffffffffffffffffffffffffffffffffff16815260200190815260200160002060008473ffffffffffffffffffffffffffffffffffffffff1673ffffffffffffffffffffffffffffffffffffffff16815260200190815260200160002054145b151561034957600080fd5b80600260003373ffffffffffffffffffffffffffffffffffffffff1673ffffffffffffffffffffffffffffffffffffffff16815260200190815260200160002060008473ffffffffffffffffffffffffffffffffffffffff1673ffffffffffffffffffffffffffffffffffffffff168152602001908152602001600020819055508173ffffffffffffffffffffffffffffffffffffffff163373ffffffffffffffffffffffffffffffffffffffff167f8c5be1e5ebec7d5bd14f71427d1e84f3dd0314c0f7b2291e5b200ac8c7c3b925836040518082815260200191505060405180910390a35050565b60005481565b61048b81600160008573ffffffffffffffffffffffffffffffffffffffff1673ffffffffffffffffffffffffffffffffffffffff1681526020019081526020016000205461094590919063ffffffff16565b600160008473ffffffffffffffffffffffffffffffffffffffff1673ffffffffffffffffffffffffffffffffffffffff1681526020019081526020016000208190555061052081600160008673ffffffffffffffffffffffffffffffffffffffff1673ffffffffffffffffffffffffffffffffffffffff1681526020019081526020016000205461096690919063ffffffff16565b600160008573ffffffffffffffffffffffffffffffffffffffff1673ffffffffffffffffffffffffffffffffffffffff168152602001908152602001600020819055506105f281600260008673ffffffffffffffffffffffffffffffffffffffff1673ffffffffffffffffffffffffffffffffffffffff16815260200190815260200160002060003373ffffffffffffffffffffffffffffffffffffffff1673ffffffffffffffffffffffffffffffffffffffff1681526020019081526020016000205461096690919063ffffffff16565b600260008573ffffffffffffffffffffffffffffffffffffffff1673ffffffffffffffffffffffffffffffffffffffff16815260200190815260200160002060003373ffffffffffffffffffffffffffffffffffffffff1673ffffffffffffffffffffffffffffffffffffffff168152602001908152602001600020819055508173ffffffffffffffffffffffffffffffffffffffff168373ffffffffffffffffffffffffffffffffffffffff167fddf252ad1be2c89b69c2b068fc378daa952ba7f163c4a11628f55a4df523b3ef836040518082815260200191505060405180910390a3505050565b6000600160008373ffffffffffffffffffffffffffffffffffffffff1673ffffffffffffffffffffffffffffffffffffffff168152602001908152602001600020549050919050565b60035481565b61077d81600160003373ffffffffffffffffffffffffffffffffffffffff1673ffffffffffffffffffffffffffffffffffffffff1681526020019081526020016000205461096690919063ffffffff16565b600160003373ffffffffffffffffffffffffffffffffffffffff1673ffffffffffffffffffffffffffffffffffffffff1681526020019081526020016000208190555061081281600160008573ffffffffffffffffffffffffffffffffffffffff1673ffffffffffffffffffffffffffffffffffffffff1681526020019081526020016000205461094590919063ffffffff16565b600160008473ffffffffffffffffffffffffffffffffffffffff1673ffffffffffffffffffffffffffffffffffffffff168152602001908152602001600020819055508173ffffffffffffffffffffffffffffffffffffffff163373ffffffffffffffffffffffffffffffffffffffff167fddf252ad1be2c89b69c2b068fc378daa952ba7f163c4a11628f55a4df523b3ef836040518082815260200191505060405180910390a35050565b6000600260008473ffffffffffffffffffffffffffffffffffffffff1673ffffffffffffffffffffffffffffffffffffffff16815260200190815260200160002060008373ffffffffffffffffffffffffffffffffffffffff1673ffffffffffffffffffffffffffffffffffffffff16815260200190815260200160002054905092915050565b600080828401905083811015151561095c57600080fd5b8091505092915050565b600082821115151561097757600080fd5b8183039050929150505600a165627a7a7230582027cae1a5ec5ff880ecb9bd0e7a8aece61455ba0d864ec27ca52e0fd05d31c8a00029",
  "source": "pragma solidity ^0.4.23;\n/*\n *             ╔═╗┌─┐┌─┐┬┌─┐┬┌─┐┬   ┌─────────────────────────┐ ╦ ╦┌─┐┌┐ ╔═╗┬┌┬┐┌─┐\n *             ║ ║├┤ ├┤ ││  │├─┤│   │ KOL Community Foundation│ │ ║║║├┤ ├┴┐╚═╗│ │ ├┤\n *             ╚═╝└  └  ┴└─┘┴┴ ┴┴─┘ └─┬─────────────────────┬─┘ ╚╩╝└─┘└─┘╚═╝┴ ┴ └─┘\n *   ┌────────────────────────────────┘                     └──────────────────────────────┐\n *   │    ┌─────────────────────────────────────────────────────────────────────────────┐  │\n *   └────┤ Dev:Jack Koe ├─────────────┤ Special for: KOL  ├───────────────┤ 20200510   ├──┘\n *        └─────────────────────────────────────────────────────────────────────────────┘\n */\n\n library SafeMath {\n   function mul(uint a, uint b) internal pure  returns (uint) {\n     uint c = a * b;\n     require(a == 0 || c / a == b);\n     return c;\n   }\n   function div(uint a, uint b) internal pure returns (uint) {\n     require(b > 0);\n     uint c = a / b;\n     require(a == b * c + a % b);\n     return c;\n   }\n   function sub(uint a, uint b) internal pure returns (uint) {\n     require(b <= a);\n     return a - b;\n   }\n   function add(uint a, uint b) internal pure returns (uint) {\n     uint c = a + b;\n     require(c >= a);\n     return c;\n   }\n   function max64(uint64 a, uint64 b) internal  pure returns (uint64) {\n     return a >= b ? a : b;\n   }\n   function min64(uint64 a, uint64 b) internal  pure returns (uint64) {\n     return a < b ? a : b;\n   }\n   function max256(uint256 a, uint256 b) internal  pure returns (uint256) {\n     return a >= b ? a : b;\n   }\n   function min256(uint256 a, uint256 b) internal  pure returns (uint256) {\n     return a < b ? a : b;\n   }\n }\n\n /**\n  * title KOL Promotion contract\n  * dev visit: https://github.com/jackoelv/KOL/\n */\n\n contract ERC20Basic {\n   uint public totalSupply;\n   function balanceOf(address who) public constant returns (uint);\n   function transfer(address to, uint value) public;\n   event Transfer(address indexed from, address indexed to, uint value);\n }\n\n contract ERC20 is ERC20Basic {\n   function allowance(address owner, address spender) public constant returns (uint);\n   function transferFrom(address from, address to, uint value) public;\n   function approve(address spender, uint value) public;\n   event Approval(address indexed owner, address indexed spender, uint value);\n }\n\n /**\n  * title KOL Promotion contract\n  * dev visit: https://github.com/jackoelv/KOL/\n */\n\n contract BasicToken is ERC20Basic {\n\n   using SafeMath for uint;\n\n   mapping(address => uint) balances;\n\n   function transfer(address _to, uint _value) public{\n     balances[msg.sender] = balances[msg.sender].sub(_value);\n     balances[_to] = balances[_to].add(_value);\n     emit Transfer(msg.sender, _to, _value);\n   }\n\n   function balanceOf(address _owner) public constant returns (uint balance) {\n     return balances[_owner];\n   }\n }\n\n /**\n  * title KOL Promotion contract\n  * dev visit: https://github.com/jackoelv/KOL/\n */\n\n contract StandardToken is BasicToken, ERC20 {\n   mapping (address => mapping (address => uint)) allowed;\n   uint256 public userSupplyed;\n\n   function transferFrom(address _from, address _to, uint _value) public {\n     balances[_to] = balances[_to].add(_value);\n     balances[_from] = balances[_from].sub(_value);\n     allowed[_from][msg.sender] = allowed[_from][msg.sender].sub(_value);\n     emit Transfer(_from, _to, _value);\n   }\n\n   function approve(address _spender, uint _value) public{\n     require((_value == 0) || (allowed[msg.sender][_spender] == 0)) ;\n     allowed[msg.sender][_spender] = _value;\n     emit Approval(msg.sender, _spender, _value);\n   }\n\n   function allowance(address _owner, address _spender) public constant returns (uint remaining) {\n     return allowed[_owner][_spender];\n   }\n }\n contract KOL is StandardToken {\n }\n\n /**\n  * title KOL Promotion contract\n  * dev visit: https://github.com/jackoelv/KOL/\n */\n\n contract Ownable {\n     address public owner;\n\n     constructor() public{\n         owner = msg.sender;\n     }\n\n     modifier onlyOwner {\n         require(msg.sender == owner);\n         _;\n     }\n     function transferOwnership(address newOwner) onlyOwner public{\n         if (newOwner != address(0)) {\n             owner = newOwner;\n         }\n     }\n }\n /**\n  * title KOL Promotion contract\n  * dev visit: https://github.com/jackoelv/KOL/\n */\ncontract KOLPro is Ownable{\n  using SafeMath for uint256;\n  string public name = \"KOL Promotion\";\n  KOL public kol;\n  address public draw;\n  address private receiver;\n\n  uint256 public begin;\n  uint256 public end;\n\n  uint256 public iCode;\n  uint256 public every = 5 minutes; //1 days;\n  uint256 public totalRegister;\n  uint256 public totalBalance;\n\n  uint8 public  userLevel1 = 20;\n  uint8 public  userLevel2 = 10;\n  uint8 public maxlevel = 9;\n\n  uint16 public  comLevel1Users = 100;\n  uint16 public  comLevel2Users = 200;\n  uint16 public  comLevel3Users = 300;\n\n  uint256 public  comLevel1Amount = 30000 * (10 ** 18);\n  uint256 public  comLevel2Amount = 50000 * (10 ** 18);\n  uint256 public  comLevel3Amount = 100000 * (10 ** 18);\n\n  uint8 public constant comLevel1 = 3;\n  uint8 public constant comLevel2 = 5;\n  uint8 public constant comLevel3 = 10;\n  uint8 public constant inviteLevel1 = 2;\n  uint8 public constant inviteLevel2 = 3;\n  uint8 public constant inviteLevel3 = 5;\n\n\n  uint8 public constant fee = 5;\n  bool public going = true;\n\n\n  struct lock{\n    uint256 begin;\n    uint256 amount;\n    uint256 end;\n    bool withDrawed;\n  }\n\n  struct teamRate{\n    uint8 rate;\n    uint256 changeTime;\n\n  }\n\n  struct dayTeamBonus{\n    uint256 theDayLastSecond;\n    uint256 theDayTeamBonus;\n    uint256 totalTeamBonus;\n    uint8 theDayRate;\n  }\n  struct dayInviteBonus{\n    uint256 theDayLastSecond;\n    uint256 theDayInviteBonus;\n    uint256 totalInviteBonus;\n  }\n\n\n\n  mapping (address => dayTeamBonus[]) public LockTeamBonus;\n  mapping (address => dayInviteBonus[]) public LockInviteBonus;\n\n\n  mapping (address => address[]) public InviteList;\n  mapping (address => address[]) public ChildAddrs;\n  mapping (address => teamRate[]) public TeamRateList;\n  mapping (address => lock[]) public LockHistory;\n  mapping (address => uint256) public LockBalance;\n\n  mapping (uint256 => uint256) public ClosePrice;\n  mapping (address => uint256) public TotalUsers;\n  mapping (address => uint256) public TotalLockingAmount;\n  mapping (uint256 => address) public InviteCode;\n  mapping (address => uint256) public RInviteCode;\n\n  mapping (address => uint8) public isLevelN;\n  mapping (uint8 => uint8) public levelRate;\n  mapping (address => bool) public USDTOrCoin;\n\n  //GAS优化\n\n  event Registed(address _user,uint256 inviteCode);\n  event Joined(address _user,uint256 _theTime,uint256 _amount,bool _usdtOrCoin);\n  event GradeChanged(address _user,uint8 _oldLevel,uint8 _newLevel);\n\n  modifier onlyContract {\n      require(msg.sender == draw);\n      _;\n  }\n  constructor(address _tokenAddress,address _receiver,uint256 _begin,uint256 _end) public {\n    kol = KOL(_tokenAddress);\n    receiver = _receiver;\n    begin = _begin;\n    end = _end;\n    InviteCode[0] = owner;\n    levelRate[0] = 0;\n    levelRate[1] = comLevel1;\n    levelRate[2] = comLevel2;\n    levelRate[3] = comLevel3;\n  }\n\n  function register(uint256 _fInviteCode) public {\n    require(going);\n    require(now <= end);\n    require(RInviteCode[msg.sender] == 0);\n    uint256 random = uint256(keccak256(now, msg.sender)) % 100;\n    uint256 _myInviteCode = iCode.add(random);\n    iCode = iCode.add(random);\n\n    require(InviteCode[_myInviteCode] == address(0));\n    require(InviteCode[_fInviteCode] != address(0));\n    InviteCode[_myInviteCode] = msg.sender;\n    RInviteCode[msg.sender] = _myInviteCode;\n    emit Registed(msg.sender,iCode);\n    totalRegister ++;\n    address father = InviteCode[_fInviteCode];\n    ChildAddrs[father].push(msg.sender);\n    if (InviteList[msg.sender].length < 9){\n      InviteList[msg.sender].push(father);\n    }\n    for (uint i = 0 ; i < InviteList[father].length; i++){\n      if (InviteList[msg.sender].length < 9){\n        InviteList[msg.sender].push(InviteList[father][i]);\n      }else{\n        break;\n      }\n\n    }\n\n  }\n  /**\n   * title 转入KOL进行持仓生息\n   * _usdtOrCoin, true:金本位; false:币本位\n   * dev visit: https://github.com/jackoelv/KOL/\n  */\n  function join(uint256 _amount,bool _usdtOrCoin) payable  public {\n    require(going);\n    require(now <= end);\n    if (LockBalance[msg.sender] == 0) USDTOrCoin[msg.sender] = _usdtOrCoin;\n    kol.transferFrom(msg.sender,draw,_amount);\n    LockHistory[msg.sender].push(lock(now,_amount,0,false));\n    uint256 oldBalance = LockBalance[msg.sender];\n    LockBalance[msg.sender] = LockBalance[msg.sender].add(_amount);\n    totalBalance = totalBalance.add(_amount);\n    emit Joined(msg.sender,now,_amount,_usdtOrCoin);\n\n    uint256 amount3;//amount*3/1000以后\n\n    for (uint i = 0; i<InviteList[msg.sender].length; i++){\n      if (i == maxlevel) break;\n      if (LockHistory[msg.sender].length == 1){\n        //给上面的人数+1\n        TotalUsers[InviteList[msg.sender][i]] += 1;\n      }else{\n        if (oldBalance == 0) TotalUsers[InviteList[msg.sender][i]] += 1;\n      }\n      //给上面的加入团队总金额\n\n      TotalLockingAmount[InviteList[msg.sender][i]] = TotalLockingAmount[InviteList[msg.sender][i]].add(_amount);\n      queryAndSetLevelN(InviteList[msg.sender][i]);\n\n      amount3 = calcuDiffAmount(msg.sender,InviteList[msg.sender][i],_amount);\n\n\n      if (i<2){\n        setTopInviteBonus(InviteList[msg.sender][i],amount3,i);\n      }\n\n      if (i < maxlevel){\n        setTopTeamBonus(InviteList[msg.sender][i],amount3);\n      }\n    }\n  }\n  function calcuDiffAmount(address _selfAddr,address _topAddr,uint256 _amount) public view returns(uint256){\n    //计算网体收益加速额。\n    uint256 topDayLockBalance = queryLockBalance(_topAddr,now);\n    uint256 selfDayLockBalance = queryLockBalance(_selfAddr,now);\n    uint256 minAmount;\n    if (topDayLockBalance >= selfDayLockBalance){\n      minAmount = _amount;\n    }else{\n        if(LockHistory[_selfAddr].length > 1){\n            uint256 previous = LockHistory[_selfAddr].length - 2;\n            uint256 theTime = LockHistory[_selfAddr][previous].begin;\n            uint256 previousLockBalance = queryLockBalance(_selfAddr,theTime);\n            if (topDayLockBalance > previousLockBalance){\n              //_amount + previousLockBalance 一定是大于topDayLockBalance的；\n              minAmount = topDayLockBalance - previousLockBalance;\n            }\n        }else{\n          minAmount = topDayLockBalance;\n        }\n    }\n    return minAmount.mul(3).div(1000);\n  }\n  function setTopTeamBonus(address _topAddr,uint256 _minAmount) private {\n    uint8 newRate = levelRate[isLevelN[_topAddr]];\n    dayTeamBonus memory theDayTB =dayTeamBonus(0,0,0,0);\n    uint256 tomorrowLastSecond =getYestodayLastSecond(now) +  every;\n\n    if (LockTeamBonus[_topAddr].length == 0){\n      theDayTB.theDayLastSecond = tomorrowLastSecond;\n      theDayTB.theDayTeamBonus = _minAmount;\n      theDayTB.totalTeamBonus = _minAmount * newRate / 100;\n      theDayTB.theDayRate = newRate;\n      LockTeamBonus[_topAddr].push(theDayTB);\n    }else{\n      uint256 last = LockTeamBonus[_topAddr].length -1;\n      theDayTB = LockTeamBonus[_topAddr][last];\n\n      uint256 lastingDays = (tomorrowLastSecond - theDayTB.theDayLastSecond) / every;\n\n      theDayTB.totalTeamBonus = lastingDays * theDayTB.theDayTeamBonus * theDayTB.theDayRate/100;//这里不好解决啊\n      theDayTB.totalTeamBonus += _minAmount * newRate / 100;\n      theDayTB.theDayTeamBonus += _minAmount;\n      theDayTB.theDayRate = newRate;\n        //必然就都是明天。\n      if(theDayTB.theDayLastSecond < tomorrowLastSecond){\n        theDayTB.theDayLastSecond = tomorrowLastSecond;\n        LockTeamBonus[_topAddr].push(theDayTB);\n      }else{\n        LockTeamBonus[_topAddr][last]=theDayTB;\n      }\n    }\n  }\n  function setTopInviteBonus(address _topAddr,uint256 _minAmount,uint256 _index) private {\n    uint8 inviteRate;\n    if (_index == 0){\n      inviteRate = userLevel1;\n    }else if(_index ==1){\n      inviteRate = userLevel2;\n    }else{\n      return;\n    }\n    uint256 tomorrowLastSecond = getYestodayLastSecond(now) + every;\n    if (LockInviteBonus[_topAddr].length == 0){\n      LockInviteBonus[_topAddr].push(dayInviteBonus(tomorrowLastSecond,\n                                            _minAmount * inviteRate/100,\n                                            _minAmount * inviteRate/100));\n    }else{\n      uint256 last = LockInviteBonus[_topAddr].length -1;\n\n      uint256 lastDayLastSecond = LockInviteBonus[_topAddr][last].theDayLastSecond;\n      uint256 lastDayInviteBonus = LockInviteBonus[_topAddr][last].theDayInviteBonus;\n      uint256 lastDayInviteTotalBonus = LockInviteBonus[_topAddr][last].totalInviteBonus;\n\n      uint256 lastingDays = (tomorrowLastSecond - lastDayLastSecond) / every;\n      uint256 newDayInviteBonus = _minAmount* inviteRate / 100 + lastDayInviteBonus;\n      uint256 newDayInviteTotalBonus = (lastingDays * lastDayInviteBonus) + _minAmount * inviteRate /100 + lastDayInviteTotalBonus;\n        //必然就都是明天。\n      if(lastDayLastSecond < tomorrowLastSecond){\n        LockInviteBonus[_topAddr].push(dayInviteBonus(tomorrowLastSecond,\n                                              newDayInviteBonus,\n                                              newDayInviteTotalBonus));\n      }else{\n        LockInviteBonus[_topAddr][last].theDayInviteBonus = newDayInviteBonus;\n        LockInviteBonus[_topAddr][last].totalInviteBonus = newDayInviteTotalBonus;\n      }\n\n    }\n  }\n  /**\n   * title 查询并设置用户的身份级别\n   * dev visit: https://github.com/jackoelv/KOL/\n  */\n  function queryAndSetLevelN(address _addr) private{\n    if ((TotalUsers[_addr] >= comLevel3Users) &&\n              (TotalLockingAmount[_addr] >= comLevel3Amount) &&\n              ChildAddrs[_addr].length>=inviteLevel3){\n      if (isLevelN[_addr]!=3){\n        emit GradeChanged(_addr,isLevelN[_addr],3);\n        isLevelN[_addr] = 3;\n        TeamRateList[_addr].push(teamRate(3,now));\n      }\n    }else if((TotalUsers[_addr] >= comLevel2Users) &&\n              (TotalLockingAmount[_addr] >= comLevel2Amount) &&\n              ChildAddrs[_addr].length>=inviteLevel2){\n      if (isLevelN[_addr]!=2){\n        emit GradeChanged(_addr,isLevelN[_addr],2);\n        isLevelN[_addr] = 2;\n        TeamRateList[_addr].push(teamRate(2,now));\n      }\n    }else if((TotalUsers[_addr] >= comLevel1Users) &&\n              (TotalLockingAmount[_addr] >= comLevel1Amount) &&\n              ChildAddrs[_addr].length>=inviteLevel1){\n      if (isLevelN[_addr]!=1){\n        emit GradeChanged(_addr,isLevelN[_addr],1);\n        isLevelN[_addr] = 1;\n        TeamRateList[_addr].push(teamRate(1,now));\n      }\n    }else{\n      if (isLevelN[_addr]!=0){\n        emit GradeChanged(_addr,isLevelN[_addr],0);\n        isLevelN[_addr] = 0;\n        TeamRateList[_addr].push(teamRate(0,now));\n      }\n    }\n  }\n\n  /**\n   * title 查询指定时间用户的有效锁仓余额\n   * dev visit: https://github.com/jackoelv/KOL/\n  */\n  function queryLockBalance(address _addr,uint256 _queryTime) public view returns(uint256) {\n    require(_queryTime <= end);\n    uint256 dayLockBalance;\n    for (uint j = 0; j<LockHistory[_addr].length; j++){\n      if (LockHistory[_addr][j].withDrawed){\n        //如果是已经提现的资金，那就要求计算日期是在起止时间内的。\n        if ((_queryTime >= LockHistory[_addr][j].begin) && (_queryTime <= LockHistory[_addr][j].end)){\n            dayLockBalance += LockHistory[_addr][j].amount;\n        }\n      }else{\n        if (_queryTime >= LockHistory[_addr][j].begin ){\n          //这个就要计入到当天的收益\n          dayLockBalance += LockHistory[_addr][j].amount;\n        }\n      }\n    }\n    return dayLockBalance;\n  }\n\n  /**\n   * title 根据给定时间计算出昨天的最后一秒\n   * dev visit: https://github.com/jackoelv/KOL/\n  */\n  function getYestodayLastSecond(uint256 _queryTime) public view returns(uint256){\n    require(_queryTime <= (end + every));\n    return (_queryTime.sub(_queryTime.sub(begin) % every) - 1);\n  }\n\n\n  function clearLock(address _addr) onlyContract public{\n    for (uint i =0;i<LockHistory[_addr].length;i++){\n      LockHistory[_addr][i].end = now;\n      LockHistory[_addr][i].withDrawed = true;\n    }\n    LockBalance[_addr] = 0;\n  }\n  function pushInvite(address _addr,\n                      uint256 _theDayLastSecond,\n                      uint256 _theDayInviteBonus,\n                      uint256 _totalInviteBonus) onlyContract public{\n    LockInviteBonus[_addr].push(dayInviteBonus(_theDayLastSecond,\n                                              _theDayInviteBonus,\n                                              _totalInviteBonus));\n  }\n  function setLastInvite(address _addr,\n                      uint256 _theDayInviteBonus,\n                      uint256 _totalInviteBonus) onlyContract public{\n    /* require(LockInviteBonus[_addr].length > 0); */\n    uint256 last = LockInviteBonus[_addr].length -1;\n    LockInviteBonus[_addr][last].theDayInviteBonus = _theDayInviteBonus;\n    LockInviteBonus[_addr][last].totalInviteBonus = _totalInviteBonus;\n  }\n  function pushTeam(address _addr,\n                      uint256 _theDayLastSecond,\n                      uint256 _theDayTeamBonus,\n                      uint256 _totalTeamBonus,\n                      uint8 _theDayRate) onlyContract public{\n    LockTeamBonus[_addr].push(dayTeamBonus(_theDayLastSecond,\n                                              _theDayTeamBonus,\n                                              _totalTeamBonus,\n                                              _theDayRate));\n  }\n  function setLastTeam(address _addr,\n                      uint256 _theDayTeamBonus,\n                      uint256 _totalTeamBonus,\n                      uint8 _theDayRate) onlyContract public{\n    /* require(LockTeamBonus[_addr].length > 0); */\n    uint256 last = LockTeamBonus[_addr].length - 1;\n    LockTeamBonus[_addr][last].theDayTeamBonus = _theDayTeamBonus;\n    LockTeamBonus[_addr][last].totalTeamBonus = _totalTeamBonus;\n    LockTeamBonus[_addr][last].theDayRate = _theDayRate;\n\n  }\n  function subTotalUsers(address _addr) onlyContract public{\n    TotalUsers[_addr] = TotalUsers[_addr].sub(1);\n  }\n  function subTotalLockingAmount(address _addr,uint256 _amount) onlyContract public{\n    TotalUsers[_addr] = TotalUsers[_addr].sub(_amount);\n  }\n  function subTotalBalance(uint256 _amount) onlyContract public{\n    totalBalance=totalBalance.sub(_amount);\n  }\n  function qsLevel(address _addr) onlyContract public{\n    queryAndSetLevelN(_addr);\n  }\n  /**\n   * title 录入KOL的收盘价\n   * dev visit: https://github.com/jackoelv/KOL/\n  */\n  function putClosePrice(uint256 price,uint256 _queryTime) onlyOwner public{\n    //录入的价格为4位小数\n    require(_queryTime <= (end + 2*every));\n    uint256 yestodayLastSecond = getYestodayLastSecond(_queryTime);\n    ClosePrice[yestodayLastSecond] = price;\n  }\n\n  function setLevelN(uint8 _level,uint16 _users,uint256 _amount) onlyOwner public{\n    if (_level == 1){\n      comLevel1Users = _users;\n      comLevel1Amount = _amount;\n    }else if(_level ==2){\n      comLevel2Users = _users;\n      comLevel2Amount = _amount;\n    }else if(_level ==3){\n      comLevel3Users = _users;\n      comLevel3Amount = _amount;\n    }\n  }\n  function setLevelC(uint8 _level,uint16 _users,uint256 _amount) onlyOwner public{\n    if (_level == 1){\n      comLevel1Users = _users;\n      comLevel1Amount = _amount;\n    }else if(_level ==2){\n      comLevel2Users = _users;\n      comLevel2Amount = _amount;\n    }else if(_level ==3){\n      comLevel3Users = _users;\n      comLevel3Amount = _amount;\n    }\n  }\n  function setLevelR(uint8 _level,uint8 _levelRate) onlyOwner public{\n    levelRate[_level] = _levelRate;\n  }\n  function setReceiver(address _receiver) onlyOwner public{\n    receiver = _receiver;\n  }\n  function draw() onlyOwner public{\n    receiver.send(address(this).balance);\n  }\n  function setContract(address _addr) onlyOwner public{\n    draw = _addr;\n  }\n  function setGoing(bool _going) onlyOwner public{\n    going = _going;\n  }\n  function setBegin(uint256 _begin) onlyOwner public{\n    begin = _begin;\n  }\n  function setEnd(uint256 _end) onlyOwner public{\n    end = _end;\n  }\n\n  function getLockLen(address _addr) public view returns(uint256) {\n    return(LockHistory[_addr].length);\n  }\n  function getFathersLength(address _addr) public view returns(uint256){\n    return InviteList[_addr].length;\n  }\n  function getLockTeamBonusLen(address _addr) public view returns(uint256){\n    return(LockTeamBonus[_addr].length);\n  }\n  function getLockInviteBonusLen(address _addr) public view returns(uint256){\n    return(LockInviteBonus[_addr].length);\n  }\n  function getChildsLen(address _addr) public view returns(uint256){\n  return(ChildAddrs[_addr].length);\n  }\n\n}\n",
  "sourcePath": "/Users/jack/git/github/KOL/contracts/KOLPromotion.sol",
  "compiler": {
    "name": "solc",
    "version": "0.4.23+commit.124ca40d.Emscripten.clang"
  },
  "schemaVersion": "3.0.19",
  "updatedAt": "2020-05-13T07:29:33.675Z",
  "devdoc": {
    "methods": {}
  },
  "userdoc": {
    "methods": {}
  }
}